:100000000C94DF040C9426050C9426050C9426050C
:100010000C9426050C9426050C9426050C942605B4
:100020000C9426050C9426050C9415220C94E922B8
:100030000C94B71C0C9426050C9426050C942605EC
:100040000C9426050C9426050C9426050C94260584
:100050000C9426050C940E1D0C9426050C94260574
:100060000C9426050C949C060C9426050C942605ED
:100070000C9426050C9426050C9426050C94260554
:100080000C9426050C9426050C9426050C94260544
:100090000C9426050C9426050C9426050C94260534
:1000A0000C9426050C9426050C9426050A00253090
:1000B000313662003A200025303258000A722F6330
:1000C00020303132333435363738394142434445B4
:1000D000460A00290035001E001F002000210022D2
:1000E00000000024002500260027002D002E002AF5
:1000F000004C003A002B0014001A000800150017ED
:100100000000001C0018000C00120013002F00302B
:100110000031003B00390004001600070009000A06
:100120000000000B000D000E000F0033003400280B
:10013000004C003C00E1001D001B000600190005FA
:1001400000000011001000360037003800E50052B2
:100150000049003D00E000E300E2002C004C0023D9
:100160000000002C00E600E7000000E40050005111
:10017000004F0044454255473A2064697361626C00
:1001800065642E0A0044454255473A20656E616217
:100190006C65642E0A0000000000000000002A2B9D
:1001A0002800000000000000000000000000000027
:1001B0000029000000002C1E342021222434262790
:1001C000252E362D3738271E1F20212223242526B1
:1001D0003333362E37381F0405060708090A0B0C7F
:1001E0000D0E0F101112131415161718191A1B1CC7
:1001F0001D2F3130232D350405060708090A0B0C85
:100200000D0E0F101112131415161718191A1B1CA6
:100210001D2F3130354C00000000000000000000B0
:1002200000000000000000000000000000000000CE
:10023000000000000000000000007E0F00D4FFFF5F
:10024000FFC7000000784F6E6573686F743A2074C2
:10025000696D656F75740A004F6E6573686F743AE7
:10026000206163746976653A2025640A000A0025D6
:10027000303258006B6579626F6172645F736574C8
:100280005F6C65643A20003F00433E20004C2564CB
:100290000A000A092D20537461747573202D0A68B1
:1002A0006F73745F6B6579626F6172645F6C6564B4
:1002B0007328293A20253032580A6B6579626F61BC
:1002C00072645F70726F746F636F6C3A20253032A6
:1002D000580A6B6579626F6172645F69646C653A34
:1002E00020253032580A6B65796D61705F636F6EDF
:1002F0006669672E6E6B726F3A20253032580A7429
:10030000696D65725F72656164333228293A202510
:1003100030386C580A000A092D2056657273696FCF
:100320006E202D0A5649443A20307835333532282C
:1003300053695269757329205049443A2030783006
:1003400032303228556E69363630205632292056E2
:1003500045523A203078323030340A4255494C44C4
:100360003A2020284F637420313620323032312930
:100370000A4F5054494F4E533A204C554641204560
:10038000585452414B455920434F4E534F4C4520F2
:10039000434F4D4D414E44204E4B524F2034303947
:1003A000360A4743433A20382E342E3020415652E5
:1003B0002D4C4942433A20322E302E3020415652A5
:1003C0005F415243483A20617672350A000A092D8E
:1003D00020436F6E736F6C65202D0A4553432F7158
:1003E0003A09717569740A000A092D204D6167691F
:1003F00063202D0A443A094465627567204D657390
:100400007361676520546F67676C650A583A094DD8
:100410006174726978204465627567204D6F646508
:1004200020546F67676C65202D2053686F77206BB1
:1004300065797072657373657320696E206D617480
:1004400072697820677269640A4B3A094B65796270
:100450006F61726420446562756720546F67676CD2
:1004600065202D2053686F77206B657970726573F6
:1004700073207265706F72740A4D3A094465627533
:1004800067204D6F75736520546F67676C650A56FA
:100490003A0956657273696F6E0A533A095374616B
:1004A0007475730A433A094163746976617465200F
:1004B000436F6E736F6C65204D6F64650A46312D16
:1004C0004631303A0953776974636820746F204C61
:1004D0006179657220302D392028463130203D2049
:1004E0004C30290A302D393A0953776974636820F2
:1004F000746F204C6179657220302D390A47524162
:1005000056453A0953776974636820746F204C61CB
:1005100079657220302028616C7465726E61746533
:10052000290A423A094A756D7020746F20426F6F34
:10053000746C6F616465720A4553433A094A756D7C
:100540007020746F20426F6F746C6F6164657220ED
:1005500028616C7465726E617465290A453A0950A8
:1005600072696E7420454550524F4D205365747426
:10057000696E67730A4253504143453A09436C65BB
:10058000617220454550524F4D0A4E3A094E4B522A
:100590004F20546F67676C650A006B65796D6170F9
:1005A0005F636F6E6669672E7261773A202530321D
:1005B000580A2E737761705F636F6E74726F6C5F31
:1005C000636170736C6F636B3A2025750A2E6361EB
:1005D00070736C6F636B5F746F5F636F6E74726F59
:1005E0006C3A2025750A2E737761705F6C63746CAA
:1005F0005F6C6775693A2025750A2E737761705FA5
:100600007263746C5F726775693A2025750A2E7380
:100610007761705F6C616C745F6C6775693A2025F7
:10062000750A2E737761705F72616C745F726775A3
:10063000693A2025750A2E6E6F5F6775693A202525
:10064000750A2E737761705F67726176655F657397
:10065000633A2025750A2E737761705F6261636B60
:10066000736C6173685F6261636B73706163653A39
:100670002025750A2E6E6B726F3A2025750A00646C
:10068000656275675F636F6E6669672E7261773A40
:1006900020253032580A2E656E61626C653A20253D
:1006A000750A2E6D61747269783A2025750A2E6B71
:1006B0006579626F6172643A2025750A2E6D6F75D7
:1006C00073653A2025750A006565636F6E66696714
:1006D0003A0A64656661756C745F6C617965723A3B
:1006E0002025750A003F004E4B524F3A206F666638
:1006F0000A004E4B524F3A206F6E0A000A6D6F751A
:1007000073653A206F66660A000A6D6F7573653A05
:10071000206F6E0A000A6B6579626F6172643A201D
:100720006F66660A000A6B6579626F6172643A20CF
:100730006F6E0A000A6D61747269783A206F66669E
:100740000A000A6D61747269783A206F6E0A000AB5
:1007500064656275673A206F66660A000A646562BE
:1007600075673A206F6E0A000A0A4A756D70696EE5
:100770006720746F20626F6F746C6F616465722E96
:100780002E2E2000433E2000436C656172696E6727
:1007900020454550524F4D0A00556E69636F6465A0
:1007A00020696E707574206D6F64652073657420A8
:1007B000746F3A2025750A00556E69636F64652071
:1007C000696E707574206D6F646520696E69742040
:1007D000746F3A2025750A000A002530325820002F
:1007E0006B6579626F6172645F7265706F72743A83
:1007F000200064656C5F6B65795F6269743A2063A1
:10080000616E27742064656C3A20253032580A00E6
:100810006164645F6B65795F6269743A2063616EDD
:100820002774206164643A20253032580A005B73D3
:100830005D004B6579626F617264207374617274DC
:100840002E0A005B575D005B535D005B525D005BF1
:10085000445D005B435D00140355006E0069003683
:10086000003600300020005600320000000E035316
:10087000006900520069007500730000000403095C
:100880000409025B00030100A0FA0904000001034F
:100890000101000921110100012240000705810327
:1008A00008000A09040100010300000009211101E8
:1008B0000001226D000705820320000A09040200DE
:1008C0000203000000092111010001222200070596
:1008D0008303200001070503032000011201000229
:1008E00000000008525302020420010200010631F8
:1008F000FF0974A1010975150026FF0095207508F0
:1009000081020976150026FF00952075089102C026
:1009100005010980A101850319012AB700150126E7
:10092000B700950175108100C0050C0901A1018572
:100930000419012AA002150126A002950175108153
:1009400000C005010906A1018505050719E029E791
:10095000150025019508750181020507190029EF89
:100960001500250195F07501810205081901290579
:10097000950575019102950175039101C005010965
:1009800006A101050719E029E7150025019508755D
:100990000181029501750881010507190029FF15DC
:1009A0000026FF0095067508810005081901290534
:1009B000950575019102950175039101C0001124FF
:1009C0001FBECFEFDAE0DEBFCDBF04B603FE27C007
:1009D00080918C0390918D03A0918E03B0918F0331
:1009E0008730904BA740B04BD1F410928C031092FB
:1009F0008D0310928E0310928F0314BE84B7877FED
:100A000084BF0FB6F894A8958091600088618093A8
:100A10006000109260000FBEE0E0F8E3099511E07D
:100A2000A0E0B1E0E6EAFAE402C005900D92AE372C
:100A3000B107D9F723E0AEE7B1E001C01D92AC38B1
:100A4000B207E1F70E9449160C94EE240C940000C2
:100A5000FF93EF93E0917E01F0917F01309709F0D1
:100A60000995EF91FF910895FC018591803011F077
:100A7000EFDFFBCF0895FF27E0E230E247FF0CC035
:100A8000419597FF09C0EDE260957095809590952E
:100A9000611D711D811D911D27FF02C0219530E34D
:100AA00050E2AA27660F771F881F991FAA1FA41755
:100AB00010F0A41B63955A95A9F7AA3008F0A95F16
:100AC000A05DAF93F395611571058105910541F71F
:100AD000ED3211F4EF93F395F21718F43F93F39579
:100AE000FBCF8F91B5DFFA95E1F70895E991F99180
:100AF0008591803021F0853219F0AADFF9CF089571
:100B000020E0E89455915532C1F3503311F46894C4
:100B100055915A3348F4505390F3220F022E220F6E
:100B2000220F200D250FF4CF0EF421958991999174
:100B3000533619F3533729F1533559F1BC0188273E
:100B40009927E8945C3621F489919991689455919C
:100B5000543639F446EF7EF077FF0DC08FEF9FEFEC
:100B60000AC055374AE039F0583540E121F0523695
:100B700042E009F00895FF93EF937DDFEF91FF913D
:100B8000B7CFFF93EF93FC0181918030B9F360DF21
:100B9000FBCFFF93EF9368DFF1CFDF93CF93CDB718
:100BA000DEB72596A3DFCF91DF91089508950895CC
:100BB0000C94D70585E00E940F160E9480070C94C4
:100BC0009106EF92FF921F93CF93DF93CDB7DEB7DD
:100BD00061970FB6F894DEBF0FBECDBF83E7809359
:100BE000CE00CE0101967C0181E1D7011D928A954C
:100BF000E9F7D7019E012E5E3F4FC70140E050E06C
:100C0000BA011091C80017FD0AC04F5F5F4F6F4FC8
:100C10007F4F4131E7E25E076105710590F3109166
:100C2000CE00FC011193CF01E217F30751F78B853A
:100C3000803E89F420E831E0A701465F5F4F1196BE
:100C40009C9111978C91F901819391939F01129638
:100C50004A175B07A1F720E045E060E871E0CB01AF
:100C60000E9410160E94880780E061960FB6F894E3
:100C7000DEBF0FBECDBFDF91CF911F91FF90EF90F0
:100C80000895E82FF0E0EE0FFF1FE058FE4F80813F
:100C900091810895CF92DF92EF92FF920F931F936D
:100CA000CF93DF938CEB90E00E94340580E8E82E30
:100CB00081E0F82ED0E0C0E097EBC92E90E0D92E6D
:100CC0000EEA10E0DF93CF93DF92CF920E94CD0522
:100CD00084EB90E00E943405F701819191917F01AE
:100CE0000E948F089F938F931F930F930E94CD05AF
:100CF0008CEA90E00E94340521968DB79EB7089645
:100D00000FB6F8949EBF0FBE8DBFC530D105D1F68A
:100D1000DF91CF911F910F91FF90EF90DF90CF90D7
:100D20000895ECECF0E01082108288E18093C90015
:100D300086E08093CA0008958F938FB78F939F9317
:100D4000EF93FF93E0918B0181E08E0F90918A01E8
:100D5000981741F09091CE00F0E0E457FE4F908359
:100D600080938B01FF91EF919F918F918FBF8F9116
:100D70001895519A599A849A859A8C9A8D9A0895C1
:100D80000E94D6050C94B9069C013A9521153F4165
:100D900050F5FC01EE27F170BC0166277270AC01C2
:100DA000442754709C012227387094FF0EC080E1C4
:100DB000EF2B09F480E0672B09F08062452B09F0E6
:100DC0008064232B89F08068089581E0EF2B09F47B
:100DD00080E0672B09F08260452B09F08460232BAB
:100DE00019F08860089580E00895CF93DF93EC01B7
:100DF0000E94C4069E01205E31092830310510F0A2
:100E0000209739F40E948D098C2FDF91CF910C949B
:100E1000FB080E94D80BF8CFCF93DF93EC010E9420
:100E20004609CE010E94C4069E01205E3109283089
:100E3000310510F0CD2B21F4DF91CF910C94940962
:100E4000DF91CF910C94DF0BCF93DF93EC010E94E5
:100E5000F506CE01DF91CF910C940C0781E0089547
:100E600081E008950C94300708950C9434071F9383
:100E7000CF93DF9300D000D00F92CDB7DEB7498378
:100E80005A836B8330918C0289819A8131111DC004
:100E90006623B9F02223A9F00E94A20D182F682F13
:100EA00089819A810E944F0D69817A81812F0F90EB
:100EB0000F900F900F900F90DF91CF911F910C9496
:100EC000DD140E947B0D182FEFCF0E94A20D6981C7
:100ED0007A81EDCFFC01262F40815181628173819F
:100EE00084810C94370781E00895CF93DF93EC0160
:100EF00060E00E946A07BE01DF91CF910C94350734
:100F00000E94EB150E94A3080E9410180C94C006C2
:100F10000C94D80508950E94F80B0E948A072FEFC1
:100F200084E39CE0215080409040E1F700C0000045
:100F30000C94321D0F931F93CF93DF938C0161E0CC
:100F40000E946A07EC01B8010E9432078823F1F180
:100F5000B801CE010E94C3188823C1F1B801CE01A7
:100F60000E944B19882391F1B801CE010E949D196E
:100F7000882361F1B801CE010E94C01A882331F1A3
:100F8000F8018281882361F0CF3DFCE5DF07B1F1F4
:100F900070F4C115ECE5DE07B9F0C130DC45E1F0D5
:100FA000C801DF91CF911F910F910C942E07CC3582
:100FB0008DE5D80749F1CD35DC0719F1CB35DD4595
:100FC00079F70E944811ECCF0E948B0780E0DF91F7
:100FD000CF911F910F91089590913B03892F8E7FA0
:100FE00090FF816080933B0380FF05C085E891E01E
:100FF0000E943405EBCF83E791E0FACF0E94D9122B
:10100000E5CF0E943F11CCCF0E944B11C9CFDF9298
:10101000EF92FF920F931F93CF93DF93E82FF0E0AF
:10102000EA56FE4FD490282F26952695269530E037
:10103000F901EA5CFD4F0491877010E0082E02C0B0
:10104000159507950A94E2F701701127F901EA5DF9
:10105000FD4FE490F12C082E02C0F594E7940A9419
:10106000E2F791E0E922FF24F901EA5EFD4FC49125
:10107000D0E002C0D595C7958A95E2F7C170DD270B
:101080000115110519F081EE0E94FB08E114F1042D
:1010900019F086EE0E94FB088D2D0E948509EF282D
:1010A00019F086EE0E944609012B19F081EE0E948C
:1010B0004609CD2B51F08CE2DF91CF911F910F911A
:1010C000FF90EF90DF900C948509DF91CF911F91F5
:1010D0000F91FF90EF90DF900895982F9F709A5096
:1010E000963018F0805D0C940708895AFCCF8295E1
:1010F00090E09C01220F331F220F331F2C7C95950B
:101100008795959587958373282B30E0C901880FC3
:10111000991F8A7A359527952575822B0895CF9347
:10112000DF93D92F0E947708C82F8D2F0E94770850
:101130009C2FDF91CF91089508950C949C0881E035
:1011400008950C949F080895CF93C82F0E949D087E
:101150008C2FCF910C94A108CF93DF93CDB7DEB73E
:101160002B970FB6F894DEBF0FBECDBF4F835887C5
:1011700069877A878B8761110E9471111E821D8297
:1011800085E0FE013796DE01119601900D928A9559
:10119000E1F70E94FD10882319F082E00E941212EC
:1011A0000E94E41081110E9495118C819D81892BF0
:1011B00089F449815A816B817C818D819E810E9455
:1011C00036102B960FB6F894DEBF0FBECDBFDF9161
:1011D000CF91089589819A8189238F3F51F3CE0160
:1011E00001960E9473078111E4CFEBCFFC0180814F
:1011F00091810C94E40DCF93C82F882309F444C047
:101200008CEF8C0F813AC8F48C2F0E94B817811193
:101210003BC06C2F80910001909101010E94991BAD
:10122000882329F08C2F0E94D7100E94A3118C2FA5
:101230000E94D010CF910C94A31180E28C0F8830C3
:1012400048F4C77081E001C0880FCA95EAF70E9490
:101250005111F0CFEBE5EC0FE33040F4F0E0E55C4A
:10126000FE4F808190E0CF910C94591BC85AC73132
:1012700058F4EC2FF0E0EE0FFF1FE35FFE4F80818C
:101280009181CF910C946F1BCF910895882329F100
:101290009CEF980F913A20F40E94D7100C94A31160
:1012A00090E2980F983050F4877091E001C0990F48
:1012B0008A95EAF7892F0E945711F0CF9BE5980F86
:1012C000933020F490E080E00C94591B885A8731C9
:1012D00020F490E080E00C946F1B08951F93CF934F
:1012E000DF93182FEB010E94FB08209731F4812F28
:1012F000DF91CF911F910C9446098FE99FE00197F0
:10130000F1F700C000002197F0CF70E060E0893372
:1013100011F460E570E00C946E09882321F00E94BE
:1013200051110C94A3110895882321F00E945711A4
:101330000C94A3110895BF92CF92DF92EF92FF9287
:101340000F931F93CF93DF936C01D62FC72FFC0110
:101350001281058102950F700E941311E82E8823D7
:10136000A1F0E12E112389F08C2F807F803429F0A9
:1013700080E28D0FE12C883040F082E00E94121252
:101380000E94131191E0E82EE926BC2EB2949FE052
:10139000B922FBE0FB1598F1EB2DF0E0E051FB4D9D
:1013A0000C94A6240C2F0F70C07F11F00295007FC3
:1013B0001123A9F0002359F080E28D0F883010F03E
:1013C000D11109C0802F0E9451110E94A3118D2FAD
:1013D0000E94FB0814C0802F0E946411F6CF8D2F4D
:1013E0000E944609002359F080E28D0F883010F0EA
:1013F000D1112CC0802F0E9457110E94A3112B2DB8
:101400002850330B2430310520F40E94EF1A0E943B
:10141000A408EE2009F483C10E94F91080FD7FC169
:10142000F60112820E94F3100E94B30CC6010E94C2
:10143000B00B0E94F310DF91CF911F910F91FF909D
:10144000EF90DF90CF90BF900C94D40C802F0E942F
:101450006A11D3CF2C2F2F70F22EC07FC03219F01B
:10146000F29480EFF822DD2369F0D13049F11123A5
:1014700091F1002351F1F601858180FFA8CF8F7093
:10148000858323C0112381F0011106C00E947711CA
:101490008F290E948D09B3CF0130C1F70E947711C7
:1014A0008F290E947D11ABCF011106C00E949511BA
:1014B0008F2D0E949409A3CF013009F4A0CFF6CF5D
:1014C000112329F0063008F09ACF8F2DE2CF053096
:1014D00008F095CFEDCF002359F3D93349F4FFEF4E
:1014E00027EE33E0F15020403040E1F700C000002B
:1014F0008D2F0E94460983CF8C2F86958695837009
:1015000069F0813009F07BCF8D2F9C2F93701111E2
:1015100002C090E080E00E946F1B71CF8D2F9C2F46
:101520009370111102C090E080E00E94591B67CFB8
:101530008C2F837009F041C0111161CF4D2F42955E
:1015400046954770440F440F0D2F0F7010E030E0A8
:1015500020E0042E04C0000F111F221F331F0A9425
:10156000D2F760E070E0CB01D4FF0FC06FE070E015
:1015700080E090E004C0660F771F881F991F4A958E
:10158000D2F76095709580959095C695C695C37075
:10159000602B712B822B932BC23049F058F4C13051
:1015A00019F00E94650C2BCF0E94530C28CF0E948B
:1015B000770C25CF0E94510C22CF8695112311F074
:1015C0008C2F8170882309F41ACF4D2F42954695B0
:1015D0004770440F440F0D2F0F7010E030E020E0F3
:1015E000042E04C0000F111F221F331F0A94D2F7CC
:1015F00060E070E0CB01D4FF0FC06FE070E080E0EE
:1016000090E004C0660F771F881F991F4A95D2F794
:101610006095709580959095C695C695C370602B22
:10162000712B822B932BC23049F058F4C13019F042
:101630000E942A0DE4CE0E94180DE1CE0E943C0DBE
:10164000DECE0E948D0CDBCECF70112329F08C2FC3
:101650000E94B30C8D2F1DCF8D2F0E9494098C2FCB
:101660000E94D40CCCCED23F89F160F4D03FC9F0B7
:10167000D13F29F1112309F442C00111A8CE8C2FCA
:101680008F7121C0D33F39F1D43FA1F7112369F104
:10169000CF718C2F0E94B30C63E08C2F0E94ED1150
:1016A000AECE112341F0053008F0A9CE8C2F8F71FA
:1016B0000E94F70CA4CE063008F0A1CEF7CF8C2FF5
:1016C0008F71112369F20E94B30C99CE8C2F8F7108
:1016D0001123C9F3C5CF112329F08C2F8F710E94DC
:1016E0009E0C8DCE0E94990C8ACE81E00E9412122F
:1016F000023008F484CE82E00E94121280CE0023D1
:1017000059F0D93309F0F4CE8FEF97EEE3E0815032
:101710009040E040E1F7EACE8C2F8F71A1CFDF91AE
:10172000CF911F910F91FF90EF90DF90CF90BF90DE
:1017300008950F931F93CF93DF93EC016881798114
:101740008A810E94EE0D8C010E944E0D0E94500C69
:10175000B801CE01DF91CF911F910F910C949B099D
:10176000CF93DF93EC018B819C81892B29F08881B9
:10177000998189238F3F59F4DF91CF910895CE014C
:101780000E94990BCE01DF91CF910C947507CE0189
:101790000E949A078111F3CF0E941311882361F3ED
:1017A0008A81882349F382E0DF91CF910C94121251
:1017B000882321F00E9464110C94A31108958823BA
:1017C00021F00E946A110C94A311089590E080E02A
:1017D0000E94591B90E080E00E946F1B0E947111D3
:1017E0000E9474110C94A3110E94DE100C94E60B5D
:1017F0000E9461110C94F40BE92FE295EF70E25016
:10180000EE3070F4F0E0E450FB4D0C94A624803FE1
:1018100019F020F4883E20F481E00895843FE1F33C
:1018200080E00895883EC0F3813FD1F7F5CF93FB68
:10183000882780F90895FC01808191810E94E40D40
:101840000C94FC0BCF93DF9300D000D00F92CDB758
:10185000DEB70F900F900F900F900F90DF91CF9108
:101860000895CF93DF9300D000D000D0CDB7DEB77E
:1018700026960FB6F894DEBF0FBECDBFDF91CF9195
:10188000089508950C94410C0E94420C6093C30289
:101890007093C4028093C5029093C6020C94E60B29
:1018A00008950C94440C0F931F930091C302109160
:1018B000C4022091C5023091C602602B712B822B8D
:1018C000932B1F910F910C94440C0F931F93009135
:1018D000C3021091C4022091C5023091C602602358
:1018E0007123822393231F910F910C94440C0F9327
:1018F0001F930091C3021091C4022091C502309140
:10190000C60260277127822793271F910F910C949D
:10191000440C0C94410C0C94890C0E948B0C609329
:10192000BF027093C0028093C1029093C2020C94D4
:10193000E60B60E070E0CB010C948D0C0F931F93CD
:1019400041E050E060E070E08A019B0104C0000FBC
:10195000111F221F331F8A95D2F7C901B8011F91A9
:101960000F910C948D0C0F931F9341E050E060E0B9
:1019700070E004C0440F551F661F771F8A95D2F789
:101980008091BF029091C002A091C102B091C202A9
:101990008A019B01082B192B2A2B3B2BC901B8016B
:1019A0001F910F910C948D0C0F931F9341E050E009
:1019B00060E070E004C0440F551F661F771F8A95D2
:1019C000D2F7CB01BA016095709580959095009102
:1019D000BF021091C0022091C1023091C202602367
:1019E0007123822393231F910F910C948D0C0F93DD
:1019F0001F9341E050E060E070E004C0440F551FC9
:101A0000661F771F8A95D2F78091BF029091C0021E
:101A1000A091C102B091C2028A019B010827192737
:101A20002A273B27C901B8011F910F910C948D0CF7
:101A30000F931F930091BF021091C0022091C10229
:101A40003091C202602B712B822B932B1F910F912F
:101A50000C948D0C0F931F930091BF021091C00244
:101A60002091C1023091C20260237123822393230B
:101A70001F910F910C948D0C0F931F930091BF0237
:101A80001091C0022091C1023091C20260277127DB
:101A9000822793271F910F910C948D0C0895929596
:101AA000907F890F982F977041E001C0440F9A955D
:101AB000EAF786958695869595E0899FF001112431
:101AC000E357FD4F30E020E070E05191DF011197C6
:101AD000CB01022E02C0969587950A94E2F7817099
:101AE00081958527842385278C932F5F3F4F253051
:101AF000310559F708959295907F890F982F977027
:101B000086958695869525E0829FF0011124E357FE
:101B1000FD4F50E040E080E0219130E0092E02C00E
:101B2000369527950A94E2F721703327042E01C0D9
:101B3000220F0A94EAF7822B4F5F5F4F4530510521
:101B400059F70895BF92CF92DF92EF92FF920F93D1
:101B50001F93CF93DF938C01C090BF02D090C0023F
:101B6000E090C102F090C2028091C3029091C40241
:101B7000A091C502B091C602C82AD92AEA2AFB2A36
:101B8000CFE1D0E0BC2ED701C6010C2E04C0B69523
:101B9000A795979587950A94D2F780FD0EC0219757
:101BA00088F7B12C8B2DDF91CF911F910F91FF9072
:101BB000EF90DF90CF90BF900895B8018C2F0E94D6
:101BC000F214019761F3EECFCF93DF93EC010E9403
:101BD000A20DBE01DF91CF910C94F2141F93CF930D
:101BE000DF93EB0190918C02992331F0CB01DF91CF
:101BF000CF911F910C94E40D882379F0CB010E94C2
:101C0000A20D182F682FCE010E944F0DBE01812F0B
:101C1000DF91CF911F910C94F214CB010E947B0DA8
:101C2000182FF4CF1F93CF93DF93C091C70216E014
:101C30008091C8028C1304C0DF91CF911F91089549
:101C4000D0E01C9FF0011D9FF00D1124E753FD4FC4
:101C50004081518162817381848195810E94310C20
:101C60002196C770E5CF4091F9025091FA02609138
:101C7000FB027091FC028091FD029091FE020C9497
:101C8000310C1F93CF93DF938091FE02807FA9F4E4
:101C90008091FB02882389F08091C702C091C8021D
:101CA0006091F9027091FA02A091FC02B091FD02DC
:101CB000D62FD72316E0C81304C0DF91CF911F9110
:101CC000089590E0109711F0DF3F19F401968770A6
:101CD000F2CF189F9001199F300D1124F901E7539D
:101CE000FD4F41814713F2CF40814613EFCF428130
:101CF0004111ECCF438154814A1B5B0B483C510599
:101D000028F78091FE028F7080618093FE02F901B6
:101D1000E253FD4F80818F708061808389EF92E074
:101D20000E94B00BDF91CF911F910C94120EAF92D5
:101D3000BF92CF92DF92EF92FF920F931F93CF93B8
:101D4000DF93CDB7DEB761970FB6F894DEBF0FBE55
:101D5000CDBF8C0185E0F801DE011D9601900D924A
:101D60008A95E1F7F801E28089EFC82E82E0D82E4B
:101D70006091FC027091FD026115710509F45AC170
:101D80009091F9022091FA02892F82238F3F09F462
:101D900051C140815181A380B480F090FB02F501D4
:101DA000E61BF70BFF2009F4F6C08091FE02382FE6
:101DB000307FE83CF10508F0AFC0311179C0FE2C4E
:101DC000251323C0941321C0E1101FC08F708061C0
:101DD0008093FE020E94330EC6010E94B00B8091D8
:101DE000FE02F80185838F2D61960FB6F894DEBF51
:101DF0000FBECDBFDF91CF911F910F91FF90EF905C
:101E0000DF90CF90BF90AF900895AB2829F0842F3A
:101E100085238F3F09F027C180E0F82FF170DF2E76
:101E200080FF3CC08091C7022091C80236E0821337
:101E300015C04D875E878D859E850E94E40D292FF4
:101E400022952F702230F0F0243018F59F70F1F0B9
:101E5000F8019581907FD1F4D12C1EC090E0389F7D
:101E6000F001399FF00D1124E753FD4F6181651397
:101E700006C06081641303C06281E6120FC0019640
:101E80008770D5CF9F7011F0882331F3805E883042
:101E900018F3C8010E94B00BFD2CA5CFEE2009F469
:101EA000A2CF8091FE0281608093FE02F12C9BCF35
:101EB000251306C0941304C0F801EE2009F487C06E
:101EC000C8010E941B0C882319F1EE2009F18091B2
:101ED000FE02803270F02091F9023091FA023887C8
:101EE0002F831986BB86AA868C87CE0107960E940F
:101EF000B00B86E0F801A9EFB2E001900D928A954F
:101F0000E1F70E94410E0E94330EFF24F3946BCF41
:101F1000C8010E94B00BF9CF311113C07A2DB98AD4
:101F2000A88A6E2D89890E94220C89EF92E00E9476
:101F3000B00B86E0F60111928A95E9F70E94330E04
:101F4000B5CF25130FC094130DC0E1100BC0F801DD
:101F50008583C8010E94B00B86E0F60111928A9534
:101F6000E9F741CFC8010E941B0C882389F2EE20BB
:101F700079F28091FE02803208F4BBCF2091F90201
:101F80003091FA023A8329831B82BD82AC828E8310
:101F9000CE010196ACCFE83CF10508F03EC0FE2C26
:101FA000EE2009F4B5CF25132AC0941328C08091E0
:101FB000FE0280FD1BC0982F907FC1F0F801858341
:101FC000903F31F0982F907F905F8F70892B8583A1
:101FD000C8010E94B00B86E0F801A9EFB2E00190C1
:101FE0000D928A95E1F70E94330EFDCE86E0F8014E
:101FF000A9EFB2E001900D928A95E1F7F4CEC80105
:102000000E941B0C811175CF8091FE02816080932C
:10201000FE02C8010E94B00BE6CE7A2DB98AA88ACA
:102020006E2D89890E94220C86E0F60111928A9514
:10203000E9F7D9CFEE2009F46BCFC8010E941B0C41
:10204000F82E882309F464CF86E0F801A9EFB2E006
:1020500001900D928A95E1F789EF92E00E94F608CF
:102060000E94410EC0CF81E08E25D7CE1F93CF9323
:10207000DF93CDB7DEB72C970FB6F894DEBF0FBE57
:10208000CDBF4F83588769877A878B879C87CE011E
:1020900007960E94970E882369F08A859B85892B75
:1020A00039F04F815885842F85238F3F09F071C007
:1020B00016E05FC086E0FE013796DE0111960190C2
:1020C0000D928A95E1F78A859B85892B89F38F810B
:1020D000988589238F3F61F32091C80230E0C901C0
:1020E0000196877099274091C7024817190671F425
:1020F0000E94F80B1092C8021092C70286E0E9EF26
:10210000F2E0DF011D928A95E9F7D2CF96E0929F27
:10211000D001939FB00D1124A753BD4FFE013196FE
:1021200001900D929A95E1F78093C8020E94120ED9
:10213000BFCF819FC001112487539D4F0E94970EEE
:102140008823E9F0E091C7021E9FF0011124E753B4
:10215000FD4F4081518162817381848195810E940C
:10216000310C8091C70290E0019687709927809387
:10217000C7028091C7029091C8028913DACF2C96CA
:102180000FB6F894DEBF0FBECDBFDF91CF911F9188
:10219000089569857A858B859C850E94310C88CF4E
:1021A000682F80910001909101010C943B1C682FD5
:1021B00080910001909101010C94461C80910001D6
:1021C000909101010C94511C0E94E71C2091020384
:1021D00030910303821B930B9C0181E0243F31402B
:1021E00008F480E008958091010385958595859593
:1021F000089580910103877008950E94E71C209143
:10220000FF0230910003821B930B843F914048F002
:102210008091010382FB882780F991E089278170F2
:10222000089580E0FCCF90910103977081E009F45C
:1022300080E00895CF93C82F8091740382FB992783
:1022400090F99C17D1F0C0FB82F9809374038091C0
:102250007303909174030E94551280913B0380FF99
:102260000CC01F92CF9388E592E09F938F930E94BA
:10227000CD050F900F900F900F90CF910895809102
:10228000740382FB882780F991E089270C941A1146
:1022900081E00C941A1180E00C941A1180912703AC
:1022A000089590912703892B8093270308958095A3
:1022B00090912703982390932703089580932703F1
:1022C000089510922703089590912603892B8093F7
:1022D00026030895809590912603982390932603D2
:1022E0000895109226030895109225030895809171
:1022F0000403089508950C947A11CF93C82F809108
:10230000740382FD10C0809104038C1761F00E9459
:10231000E71C9093030380930203C09304038C2F64
:10232000CF910C947B11CF91089580910403882361
:1023300049F010920403109203031092020380E00C
:102340000C947B110895E0910001F09101018091BE
:1023500027038083E0910001F09101018081909139
:102360002603892B8083E0910001F0910101808197
:1023700090912503892B808380910403882321F188
:102380000E94E410882371F080913B0380FF08C015
:1023900086E492E09F938F930E94CD050F900F905B
:1023A0000E949511E0910001F091010180819091CE
:1023B0000403892B808380910001909101010E9488
:1023C000851B81110E94951180910001909101015E
:1023D0000C94FE1A08950C94EA119091740392FDE6
:1023E00016C098E0899F90011124622B609301032D
:1023F0000E94B30C0E94E71C909300038093FF029D
:10240000809101038595859585950C94EB110C942D
:10241000B30C10920103109200031092FF0280E0AF
:102420000C94EB1190910103809589238093010313
:10243000282F277039F4282F082E000C330B921701
:10244000130621F49091740392FF07C0859585953A
:1024500085950E94D40C0C94091208956FEF7FEFBC
:1024600090E080E00C94D82490E080E00E94B424B6
:1024700021E0893E9E4F09F020E0822F089582E0FE
:1024800090E00C94AC2483E090E00C94AC24CF93C7
:1024900084E090E00E94AC24C82F82E290E00E9489
:1024A000AC24982F8C2FCF910895CF93C92F682FEC
:1024B00084E090E00E94BA246C2F82E290E0CF91F9
:1024C0000C94BA24AB01BC018FE090E00C94CC24B6
:1024D000AB01BC0183E190E00C94CC2460E070E09F
:1024E000CB010C94681260E070E0CB010E94621294
:1024F0000C946E1269EE7EEF90E080E00E94D8248A
:1025000060E082E090E00E94BA2460E083E090E026
:102510000E94BA241092C3021092C4021092C50203
:102520001092C60260E084E090E00E94BA2460E06D
:1025300082E290E00E94BA2460E085E090E00E9490
:10254000BA2460E086E090E00E94BA246FEF87E052
:1025500090E00E94BA2440E050E0BA0188E090E0A8
:102560000E94CC2460E08DE090E00E94BA2440E01C
:1025700050E0BA0188E190E00E94CC2460E087E15D
:1025800090E00E94BA2440E050E0BA018CE190E073
:102590000E94CC2470E060E080E290E00E94D824A9
:1025A00040E050E0BA0188E190E00E94CC240C9415
:1025B00073120C947A12682F8EE090E00C94BA2477
:1025C0000E94F31C609337037093380380933903A0
:1025D00090933A03609333037093340380933503ED
:1025E00090933603089585B7806885BF85B7806866
:1025F00085BF0895089508950C94FA1208950C94D7
:10260000FE120E94F3128BEE9EE10E94431D0E9477
:10261000FB120C94FC1281E008950C940B130895A6
:1026200008950E940F130C9410130E94DE1C0E9448
:10263000DA050C94FF12CF93C82F80913B0382FFE1
:102640001EC080FF1CC084E792E00E943405809188
:102650003B0380FF14C01F92CF938FE692E09F93BD
:102660008F930E94CD0580913B030F900F900F90A8
:102670000F9080FF04C08DE692E00E9434058C2FFD
:10268000CF910C94A4088F929F92AF92BF92CF9259
:10269000DF92EF92FF920F931F93CF93DF93CDB70B
:1026A000DEB72A970FB6F894DEBF0FBECDBF0E94EB
:1026B000E10581110E94E01259E2852E53E0952E2A
:1026C00010E000E0A02E802F0E9441066C01F40172
:1026D000E190F1904F01E816F90609F45AC0809193
:1026E0003B0381FD0E944A06C7018C259D25B12C24
:1026F000EE24E394F12C9C012E213F21232B09F49D
:1027000042C00E940D138823A9F0BE82AF82CE2062
:10271000DF2081E0CD2809F480E088870E94E71C53
:102720008160782F9A8789874E815F8168858A8545
:102730000E94AC08000F111FF801E75DFC4F80817B
:102740009181E826F926F182E0820E94EF1A9091A9
:1027500028038917A9F10E94EF1A809328032A966B
:102760000FB6F894DEBF0FBECDBFDF91CF911F91A2
:102770000F91FF90EF90DF90CF90BF90AF909F9020
:102780008F900C941B13B394EE0CFF1CF0E1BF125E
:10279000B2CF0F5F1F4F0530110509F093CF8FEFB8
:1027A00089838A831B820E94E71C8160782F9D8326
:1027B0008C8349815A816B818D810E94AC08C5CF81
:1027C0002A960FB6F894DEBF0FBECDBFDF91CF9132
:1027D0001F910F91FF90EF90DF90CF90BF90AF903F
:1027E0009F908F900895CF93DF930E94F614EC0191
:1027F000811522E59207E8F5811531E5930708F088
:10280000ACC0883E910510F5803E910570F5883A80
:10281000910570F4853A910508F078C081309105F2
:1028200021F1009711F1049700F5D0E0C0E01DC040
:102830008F3B9105D0F7C85AD0E0CC0FDD1FC25CAA
:10284000DE4F0990D881C02DD4640FC0811540E5BA
:10285000940708F066C0C11580E4D80708F05EC090
:10286000CE019A9581159F4100F7CE01DF91CF915E
:102870000895811536E5930718F5811545E5940708
:1028800008F083C0C11584E5D80708F079C09C2FF3
:10289000969596959E0123703327C115D34508F46C
:1028A00061C0C1E0D0E002C0CC0FDD1F2A95E2F785
:1028B00030E2939FC0011124C82BD92BDA68D5CF01
:1028C000C1158AE5D80778F4C11599E5D90708F04C
:1028D00066C0C11528E5D20708F4A7CFDC2FCC27A6
:1028E000C06FD06AC2CFCE0190568115904208F0D9
:1028F0009CCF8D2F8F710E948D1590E0982F882787
:1029000088279F719C012C2BE90147C0C55AD0E054
:10291000C459DE4FC881D0E0D064A7CFDF70D06A41
:10292000A4CFE4E096958795EA95E1F783702C2F84
:1029300026952695237040E2249F90011124382B80
:102940008C2F8370C1E0D0E002C0CC0FDD1F8A95D0
:10295000E2F7C22BD32BDC6888CFD82FCC27C16FEE
:10296000D06A83CFC1E0D0E002C0CC0FDD1F2A9532
:10297000E2F720E2929FC0011124C82BD92BEBCFA4
:10298000DC2FCC27C46FD06A70CF0E948D15C82F62
:10299000D0E0DC2FCC27CC27DF71D06266CF8C2F24
:1029A0008F700E948D1534E0D695C7953A95E1F762
:1029B000CF709C2FEC01D06958CFE72FF0E095E065
:1029C000899FE00DF11D112484E0EE0FFF1F8A9511
:1029D000E1F7E60FF11DEE0FFF1FED52FF4F85915E
:1029E000949108950E94DD140C94F313823891059C
:1029F000B1F1B0F48133910509F475C048F489321E
:102A0000910509F469C08A32910509F473C00895EB
:102A10008533910509F459C08933910501F1089571
:102A2000833E9105A9F138F4803E9105F9F0823E8C
:102A3000910549F10895863E9105A9F1873E9105DA
:102A4000C9F1843E910519F52091740321FF1FC03F
:102A50008091730384FD14C087EE90E00895209167
:102A600073032370A1F080EE90E00895209173032A
:102A700020FD47C03091740330FF09C024FF44C0DB
:102A800090E080E004C02091730322FDF7CF089509
:102A90002091730322FD3BC03091740330FDE3CFDE
:102AA00024FFF5CFEDCF2091730323FFF0CF24FD5A
:102AB000E7CFD2CF2091730323FD2CC03091740354
:102AC00031FFEECF84EE90E008952091730325FF4F
:102AD000DECF89E290E008952091730325FFD7CFE0
:102AE00085E390E008952091730326FFD0CF8AE21A
:102AF00090E008952091730326FFC9CF81E390E011
:102B0000089589E390E0089583EE90E0089582EEC1
:102B100090E0089586EE90E008959091730392FFFF
:102B200006C0282F28712830F9F4877F846093FF2E
:102B300006C0282F28712831F1F4877E8461209106
:102B4000740320FF06C0382F38713830D9F4877FDE
:102B5000816021FF06C0282F28712831D1F4877E9B
:102B6000816194FD877E0895282F24712430F9F621
:102B70008B7F8860DCCF282F2471243101F78B7E76
:102B80008861DDCF382F3171313019F78E7F886041
:102B9000E0CF282F2171213121F78E7E8861E1CF8E
:102BA0000C942E120E94E1052FEF86E791E0215050
:102BB00080409040E1F700C000000E94E10580E005
:102BC0000E94410680FF04C00E94D0150C94321D63
:102BD00008950C94D2150E943412811102C00E94F3
:102BE000D9120E943F1280933B030E944712909398
:102BF0007403809373030E94E9150E944312682FA7
:102C000070E090E080E00E94510C6091BF027091F2
:102C1000C0028091C1029091C2020C948B0C089565
:102C2000FF920F931F93CF93DF93F82E092F162F48
:102C3000D72FC42F222349F081E080933E030E94C6
:102C4000E71C90933D0380933C0380913E038823CF
:102C5000A1F080913C0390913D030E94FF1C0597D9
:102C600060F0EF2DF02FA12FBD2F90E080E0D0E09D
:102C70008C179D0744F010923E03DF91CF911F9176
:102C80000F91FF900895219131912D933D930196DD
:102C9000EFCF0E94631C0E944D1F0E94661F0E947E
:102CA0007C1F0E941113FBCFCF93C82F1F928F93CD
:102CB0008DE892E09F938F930E94CD0561E070E0D4
:102CC00080E090E004C0660F771F881F991FCA95A7
:102CD000D2F70E94510C0F900F900F900F90CF9150
:102CE0000C94F80BDF92EF92FF920F931F93CF9308
:102CF000DF93EBEFE80FEF3308F030C1F0E0E65F71
:102D0000FA4D0C94A6240E9443121F928F9388ECD4
:102D100096E09F938F930E94CD050E943F1283FB04
:102D2000992790F91F929F9382FB992790F91F9200
:102D30009F9381FB992790F91F929F93982F9170F1
:102D40001F929F931F928F938FE796E09F938F938D
:102D50000E94CD050E94471287FB222720F91F926F
:102D60002F9386FB222720F91F922F9385FB222782
:102D700020F91F922F9384FB222720F91F922F9373
:102D800083FB222720F91F922F9382FB222720F911
:102D90001F922F9391FB222720F91F922F93292F07
:102DA00021701F922F9381FB222720F91F922F93CE
:102DB000282F21701F922F939F938F938AE995E07C
:102DC0009F938F930E94CD058DB79EB788960FB6BF
:102DD000F8949EBF0FBE8DBF81E01CC088E897E0CD
:102DE0000E9434050E94D912F7CF88EE93E00E942A
:102DF0003405F2CF80913B03807F80933B038DECC1
:102E000093E00E94340584E897E00E94340581E055
:102E100080933F03DF91CF911F910F91FF90EF902F
:102E2000DF90089588E697E00E9434050E948B07A2
:102E3000D3CF90913B03892F8E7F90FF8160809349
:102E40003B0380FF03C08CE597E0D1CF8FE497E090
:102E50000E94340580913B03817F80933B03BCCF6C
:102E600090913B03892F8D7F91FF826080933B037C
:102E700081FF08C082E497E00E94340580913B0303
:102E80008160EBCF84E397E0B2CF90913B03892F31
:102E90008B7F92FF846080933B0382FF03C085E2B7
:102EA00097E0EACF85E197E0A2CF90913B03892F8D
:102EB000877F93FF886080933B0383FF03C089E093
:102EC00097E0DACF8CEF96E092CF86E193E08FCF58
:102ED0000E94F31C062FF72EE82ED92EC091730303
:102EE000C7FBCC27C0F910917203D0910C010E944E
:102EF000EF1ADF92EF92FF920F931F92CF931F92E0
:102F00001F931F92DF931F928F9382E992E09F930A
:102F10008F930E94CD058DB79EB70E960FB6F8948D
:102F20009EBF0FBE8DBF58CF0E94F80B90917303C8
:102F3000892F97FB87F980588093730387FF03C01D
:102F400082EF96E054CF87EE96E051CF80E00E946A
:102F5000541642CF8953FBCF8D51F9CF85EE96E0C1
:102F60000E94340580E056CF80E008950C94B41799
:102F7000CF93C82F80913F03882331F0813099F09F
:102F800010923F0380E00DC00E944E118232D1F7B3
:102F90008C2F0E94B417811119C08C2F0E947216B9
:102FA0008170CF9108950E944E11823289F38C2F47
:102FB0000E94B617811119C0C431C9F050F4CB304A
:102FC00061F087E892E00E94340513C081E090E050
:102FD000E7CFC93261F0C833A1F78DEC93E00E94CE
:102FE000340589E892E00E94340581E0D9CF10923F
:102FF0003F0380E0D5CFCF93DF93EC0197FF0CC068
:10300000FB018281882341F00E944E18CE019F77F8
:103010000E94A8180E94891881E0DF91CF9108953D
:103020008CE090E00E94AC24482F50E070E060E01B
:1030300040937503509376036093770370937803FE
:1030400090913B0390FF0CC01F928F9388EB97E009
:103050009F938F930E94CD050F900F900F900F902C
:103060000895609175038CE090E00C94BA248093ED
:1030700075030E94311880913B0380FF0EC0809140
:1030800075031F928F9389E997E09F938F930E9416
:10309000CD050F900F900F900F9008950E94FB1A8E
:1030A0008695817080937A0390917503913029F40D
:1030B000882319F089E30E9485090E944E118093AC
:1030C00079030E94611180917503813089F0882312
:1030D00059F0823091F08430B9F08FE39CE9019788
:1030E000F1F700C00000089582EE0E94FB08F5CFC2
:1030F00088E193E00E942407F0CF82EE0E94FB0853
:1031000087E50E948509E9CF86EE0E94850988E15E
:10311000F8CF80917503813071F0882341F08230BF
:1031200031F0843099F0809179030C945E1182EE35
:103130000E944609F8CF8CE20E94850980917A03AB
:10314000882389F389E30E948509EDCF88E2FBCFCC
:103150000F931F93CF93DF938C01CCE0D0E0C80195
:103160000C2E02C0969587950A94E2F78F700E9404
:103170006D082497CC3F8FEFD80789F7DF91CF9167
:103180001F910F9108950F931F93CF93DF93EC013D
:103190008B01FB018281882351F00E944E11CE01E8
:1031A000825E9C458530910510F40E943718B80165
:1031B000CE01DF91CF911F910F910C94FB170F93CC
:1031C0001F93CF93DF93C42FD22FFC0182818823DA
:1031D000C9F0409342030E94E71C909341038093FF
:1031E000400380E28C0F883008F050C0C77081E047
:1031F00001C0880FCA95EAF7DF91CF911F910F9117
:103200000C948D0910914203141335C08091400332
:10321000909141030E94FF1C883C910560F5C0E23B
:10322000CD0F1D17B9F080E2810F883040F4177080
:1032300081E001C0880F1A95EAF70E949409C8300E
:1032400048F481E09D2F977001C0880F9A95EAF7A6
:103250000E948D09802F0E948509C830B8F4D7706C
:1032600081E001C0880FDA95EAF7DF91CF911F91D5
:103270000F910C94940980E28C0F883038F4C77059
:1032800081E001C0880FCA95EAF7EFCFDF91CF91B7
:103290001F910F9108950F939C01CB01243F4CE5A2
:1032A000340759F1A8F4293DFCE53F0701F12A3D17
:1032B0004CE53407D1F1283D3C4591F406E221EE7E
:1032C00041EE68ED7CE50E94DF1880E00F910895E3
:1032D000263FFCE53F07E9F0B0F0273F3C45F9F019
:1032E000FC018281882339F110924203EFCF07E27B
:1032F00025EE45EE69ED7CE5E6CF06E221EE40EEF7
:1033000064EF7CE5E0CF07E225EE44EE65EF7CE577
:10331000DACF06E221EE42EE66EF7CE5D4CF07E29B
:1033200025EE46EE67EF7CE5CECF08E221E045EEE4
:103330006AED7CE5C8CF81E0C9CFCF93DF93EC0184
:10334000FB018281882309F419C1C230FCE5DF0743
:10335000C0F1C6319CE5D90730F09E012B5F3C459A
:103360002930310570F50E944712909374038093C1
:103370007303C031ECE5DE0709F4CFC008F05BC091
:10338000C8308CE5D80709F4B6C088F5C430ECE540
:10339000DE0709F4A8C0C0F4C2308CE5D80709F4F0
:1033A0009CC0809173038260C330DC4509F498C0EF
:1033B00080917303909174030E9455120E94F80B40
:1033C00080E0DF91CF910895809173038061C630D2
:1033D000ECE5DE0709F484C0809173038860C73090
:1033E000DC4508F47DC080917303806279C0CC30E5
:1033F0008CE5D80709F489C070F4809173038C6060
:10340000CA30ECE5DE0709F46BC008F478C080919F
:1034100073038E7F65C0CE308CE5D80709F479C080
:10342000809173038B7FCF30DC4508F459C08091C5
:1034300073038F7E55C0CC3FECE5DE0709F457C01F
:1034400030F5C3318CE5D80709F46FC078F4C13189
:10345000ECE5DE0709F465C0C231DC4509F0A8CF10
:103460000E94F80B809173038F773AC0C5318CE5C9
:10347000D80709F462C008F476C0809174038160B3
:10348000CB3FDC4509F094CF8093740391CFC115F5
:10349000FDE5DF0709F44DC088F4809174038D7F4A
:1034A000CE3F9CE5D90781F3809174038E7FCF3F97
:1034B000DC4550F3809174038360E6CFC230FDE5B4
:1034C000DF0709F459C008F444C080E0C330DD458B
:1034D00009F06ECF0E94DB126BCF80917303816085
:1034E0008093730365CF809173038460F9CF8091DB
:1034F00074038260C9CF809173038064F1CF0E940E
:10350000F80B809173038068EBCF809173038D7FFC
:10351000E7CF80917303877FE3CF809173038F7D23
:10352000DFCF809173038F7BDBCF80917303837F29
:10353000D7CF809174038C7FA7CF8091730382FBD8
:10354000992790F921E0922790FB82F990FB83F96B
:10355000C7CF80917403982F909591708E7F892B9F
:1035600090FB81F991CF0E94F80B90917303892F02
:1035700097FB87F98058B4CF81E0ACCF81E021CFB1
:10358000CF93DF93EB0186319C4511F50E944E11DC
:103590009A81992399F08A7A91E009F490E09093C6
:1035A0004303811109C089E20E94D0100E94A31137
:1035B00080E0DF91CF91089585E3F6CF80914303BA
:1035C000811104C089E20E94D710F0CF85E3FBCFC0
:1035D00081E0EFCF90934903809348030895E091F1
:1035E0004803F0914903309721F00190F081E02DDC
:1035F000099480E008950E94EF1A0895EF92FF92D7
:103600000F931F93CF93DF93EC01E0914803F09168
:103610004903309709F446C080910C01882341F09A
:103620008091730387FF04C08881898385E0888344
:103630000280F381E02DCE01099580913B0382FF4A
:1036400031C080FF04C080EE97E00E94340510E096
:1036500000E08AEDE82E87E0F82E80913B0380FFA2
:103660000EC0FE01E00FF11F80811F928F93FF9229
:10367000EF920E94CD050F900F900F900F900F5F6B
:103680001F4F0830110549F780913B0380FF0AC0A6
:1036900088ED97E0DF91CF911F910F91FF90EF9010
:1036A0000C943405DF91CF911F910F91FF90EF9013
:1036B000089520914603309147032817390771F088
:1036C0009093470380934603E0914803F0914903A8
:1036D000309721F00680F781E02D0994089520911C
:1036E0004403309145032817390771F0909345033F
:1036F00080934403E0914803F0914903309721F00F
:103700000084F185E02D09940895FC0132968091A2
:103710000C01882321F0809173039EE187FF96E0DE
:1037200080E0915008F4089521912223D1F38F5F16
:10373000F8CF662301F120910C012223F1F02091B2
:10374000730327FF1AC0462F4695469546954E317E
:1037500090F4677021E030E002C0220F331F6A95B9
:10376000E2F7840F911DFC01828190E02823392328
:1037700081E0232B69F480E00895FC0132960896DD
:103780002191261721F0E817F907D1F7F4CF81E04E
:1037900008959C01FC0132969FEF80E0419146170D
:1037A00051F09F3F19F4411101C0982F8F5F86306F
:1037B000A9F79F3F09F40895290F311D97FD3A9508
:1037C000F90162830895FC0132960896219126132F
:1037D00003C0DF0111971C92E817F907B9F70895A4
:1037E000E62FE695E695E695EE3170F4E80FF92FB1
:1037F000F11D677021E030E001C0220F6A95EAF701
:103800008281822B8283089580913B0380FF0CC0CC
:103810001F926F9380E198E09F938F930E94CD0554
:103820000F900F900F900F900895E62FE695E69574
:10383000E695EE3178F4E80FF92FF11D677021E07D
:1038400030E001C0220F6A95EAF720958281282393
:103850002283089580913B0380FF0CC01F926F93D9
:1038600082EF97E09F938F930E94CD050F900F906A
:103870000F900F90089520910C01222329F02091A0
:10388000730327FD0C94F01B0C94C91B20910C01B1
:10389000222329F02091730327FD0C94151C0C940E
:1038A000E31BFC01329680910C01882351F080913A
:1038B000730387FF06C08EE1DF011D928A95E9F749
:1038C000089586E0F9CF0895089508950C94651C35
:1038D00080918303843049F10E94661C80E00E943D
:1038E000A40810924A0388E190E020E40FB6F8940F
:1038F000A895809360000FBE2093600083B7817FFE
:10390000846083BF83B7816083BF7894889583B7D1
:103910008E7F83BF0FB6F894A89580916000886170
:1039200080936000109260000FBE08950895CF93B9
:103930000E94641C0E94E1050E94961CC0E08C2F2E
:103940000E944106892B31F4CF5FC530C1F780E07A
:10395000CF91089581E0FCCF08950C94AC1C0E9497
:10396000F80B0E94EF1A0E94A4080C94AD1C1F9241
:103970001FB61F9211248F939F93AF93BF93809193
:103980004A03811113C080917B0390917C03A09125
:103990007D03B0917E034196A11DB11D80937B03F1
:1039A00090937C03A0937D03B0937E03BF91AF916E
:1039B0009F918F911F901FBE1F90189582E084BD2C
:1039C00093E095BD9AEF97BD80936E0008952FB751
:1039D000F89480917B0390917C03A0917D03B0913A
:1039E0007E032FBF08952FB7F89460917B037091E9
:1039F0007C0380917D0390917E032FBF08959C01ED
:103A00004FB7F89480917B0390917C03A0917D0344
:103A1000B0917E034FBF821B930B089578941F9241
:103A20001FB61F9211248F939F93AF93BF938091E2
:103A30007B0390917C03A0917D03B0917E0301965E
:103A4000A11DB11D80937B0390937C03A0937D0304
:103A5000B0937E03BF91AF919F918F911F901FBE36
:103A60001F90189587E797E79093010880930008C7
:103A700088E19AE00FB6F894A895809360000FBE95
:103A800090936000FFCF90937F0180937E01089513
:103A900080917103089590918303943031F5809360
:103AA0004D0370934F0360934E0382E08093E900CF
:103AB0008FEF9091E800815095FD06C095ED9A95A5
:103AC000F1F700008111F5CF8091E80085FF0DC06E
:103AD00050E040E063E070E08DE493E00E940A2053
:103AE0008091E8008E778093E8000895BC0184E01F
:103AF0000C944B1DBC0183E00C944B1DCF93DF93C2
:103B0000EC0180910C018823B1F18091730387FF50
:103B100032C060E282E08093E9008FEF9091E8008C
:103B2000815095FD06C095ED9A95F1F70000811141
:103B3000F5CF8091E80085FF1BC080910C0170E0FB
:103B400050E040E0811104C050E040E068E070E0E7
:103B5000CE010E940A208091E8008E778093E800D1
:103B600080E2FE01A1E5B3E001900D928A95E1F7B4
:103B7000DF91CF91089568E081E0CDCF089583E58E
:103B800098E00E94340580918203811109C00E944F
:103B90009A210E94F7218091E20084608093E200E4
:103BA00008958FE498E00E943405109282030895EE
:103BB0008BE498E00C94340587E498E00C94340589
:103BC00083E498E00C94340520914C032F5F822FFE
:103BD00062E30E949A24992319F020934C030895DC
:103BE00010924C03809150038823F1F0809183035D
:103BF0008430C1F49091E9009F702091EC00822FF5
:103C0000817020FD80E8892B93E09093E9009091EA
:103C1000EB0090FF04C09091EE0097FD08C08F70FC
:103C20008093E9001092500308951092F100909152
:103C3000E80095FDFACF9091E80090FFF0CF9091C9
:103C4000E8009E779093E800EACF42E061EC81E0E3
:103C50000E94162142E261EC82E00E94162142E2BB
:103C600061EC83E00C94162180918503833009F484
:103C70005FC030F48130C1F1823009F49BC00895F7
:103C80008A3009F487C08B3009F46DC0893009F09F
:103C90004EC080918403813209F049C0809188032D
:103CA00090918903029708F042C08091E800877FD5
:103CB0008093E8008091E80082FF35C09091F30086
:103CC0008091F200029729F48091F1008B7F81307E
:103CD00021F48091F100809371038091E8008B774B
:103CE0008093E8000C944A2180918403813AF9F48E
:103CF0008091E800877F8093E8008091880390910D
:103D00008903892B61F460E281E593E070E00E9411
:103D100059208091E8008B778093E800089560E057
:103D200090E080E0F3CF809183038111C3CF0895A9
:103D300080918403813AD9F7809188039091890317
:103D4000892BA9F78091E800877F8093E800809114
:103D5000E80080FFFCCF80910C018093F1008091FE
:103D6000E8008E77BDCF80918403813201F7809186
:103D7000880390918903892BD1F68091E800877F91
:103D80008093E8000E944A218091860380930C0171
:103D90000C94F80B80918403813249F68091E800FD
:103DA000877F8093E8000E944A2180918703809357
:103DB0007203089580918403813A09F0B8CF80910D
:103DC000E800877F8093E8008091E80080FFFCCFC7
:103DD00080917203C2CF9FB7F894109250039FBF97
:103DE00090918303943009F048C02091E9002F702E
:103DF0003091EC00932F917030FD90E8922B23E0EE
:103E00002093E9002091EB0020FF34C02091EE00C8
:103E100027FF30C020914B03222321F02091E8009E
:103E200025FF28C010924B0326E03091E80035FFB3
:103E300014C08093F1008091E80085FD27C0809137
:103E4000E80080FFFCCF8091E8008E778093E80047
:103E50009F709093E90080E008953091830334309F
:103E600049F43091EB0035FD05C0215041F481E06B
:103E700080934B039F709093E9008FEF0895EFE9D3
:103E8000FFE03197F1F700C00000CFCF8FB7F89473
:103E900021E0209350038FBFDBCF84B7877F84BF9F
:103EA0000FB6F894A89580916000886180936000B7
:103EB000109260000FBE80E890E00FB6F8948093F7
:103EC0006100909361000FBE0C9401130E949A212F
:103ED0000E94F721E2EEF0E0808184608083789494
:103EE0000E947F240E94151382E091E00E94EA1A4A
:103EF00082E398E00C94340580918303853051F47B
:103F00008EE298E00E94340580918303853021F091
:103F10000E94AF1C0C9443130E94681C8091810383
:103F2000882391F30E94971C882371F30E94F41F49
:103F30000E94F80BE9CF0C949D1F292F33272330C3
:103F4000310521F168F42130310509F443C02230F4
:103F5000310509F444C090E080E030E020E026C064
:103F60002132310551F122323105A9F76330710553
:103F700090F7FB01EE0FFF1FEE58FE4F20813181BD
:103F800061597E4FFB01808190E010C099278130FC
:103F9000910581F0009729F00297E9F6E7E5F8E04E
:103FA00002C0EDE7F8E0849190E09F01FA013183CF
:103FB00020830895EDE6F8E0F6CF6330710558F6FA
:103FC000660F771FFB01E858FE4F2081318189E0A1
:103FD00090E0ECCF82E190E02CED38E0E7CF8BE58C
:103FE00090E021E838E0E2CF80E189BD82E189BD3F
:103FF00009B400FEFDCF8091D8008F7D8093D8005A
:104000008091E00082608093E0008091E00081FD7B
:10401000FCCF0895AF92BF92CF92DF92FF920F93A1
:104020001F93CF93DF936C01EB018A010E946921FA
:10403000F82E811123C00115110539F0F801808196
:104040009181C81BD90BC80ED91EB12CA12C209769
:10405000A9F08091E80085FD22C08091E8008E776C
:104060008093E80001151105A1F0F801808191818C
:10407000A80EB91EB182A08285E0F82E8F2DDF91A7
:10408000CF911F910F91FF90DF90CF90BF90AF9095
:1040900008950E9469218823D1F2F82EEFCFF6010E
:1040A00081916F018093F1002197FFEFAF1ABF0A52
:1040B000CECFFC0180918A0390918B0386179707DE
:1040C000A0F06115710529F49091E8009E77909316
:1040D000E80090E06115710551F4911108C08091DC
:1040E000E80082FF34C080E00895BC01F2CF8091E7
:1040F00083038823C1F18530C1F18091E80083FDFD
:1041000030C08091E80082FDEACF8091E80080FF16
:10411000E1CF8091F3002091F200382F61157105F5
:1041200019F02830310558F091E02830310509F0B8
:1041300090E02091E8002E772093E800CBCF81918A
:104140008093F100615071092F5F3F4FE7CF80915D
:104150008303882341F0853041F08091E80083FF9C
:10416000BECF81E0089582E0089583E00895FC01C8
:1041700080918A0390918B0386179707A0F06115B1
:10418000710529F48091E8008E778093E80090E033
:104190006115710551F4911108C08091E80082FF0A
:1041A00035C080E00895BC01F2CF8091830388235D
:1041B000C9F18530C9F18091E80083FD31C080915B
:1041C000E80082FDEACF8091E80080FFE1CF809196
:1041D000F3002091F200382F6115710519F0283095
:1041E000310558F091E02830310509F090E08091D8
:1041F000E8008E778093E800CBCF84918093F10024
:104200003196615071092F5F3F4FE6CF8091830354
:10421000882341F0853041F08091E80083FFBDCFD5
:1042200081E0089582E0089583E00895982F973003
:1042300028F08F708093E90081E008959093E90061
:10424000242F762F50E0981731F07091EC002091D8
:10425000ED005091F00021FD02C09F5FE8CF30914A
:10426000EB003E7F3093EB003091ED003D7F3093CB
:10427000ED003091EB0031603093EB007093EC0077
:104280002093ED005093F0002091EE0027FDE5CF44
:1042900080E008958091840387FF13C08091E80037
:1042A00082FF06C08091E8008B778093E80004C00D
:1042B000809183038111F2CF089580918303882335
:1042C000D9F38091E80080FFF8CF8091E8008E77E5
:1042D000ECCF2091E4003091E50095E6A901209112
:1042E000EC00822F817020FF06C08091E80080FFE3
:1042F00006C080E008952091E80022FD1AC0809158
:104300008303882389F0853089F08091EB0085FD57
:104310000FC02091E4003091E50042175307F9F2F5
:104320009150E1F684E0089582E0089583E00895D5
:1043300081E008950E9408220E941022E0EEF0E041
:10434000808181608083E8EDF0E080818F778083D9
:1043500019BCA7EDB0E08C918E7F8C9380818F7E0D
:1043600080831092820308950F931F93CF93DF935E
:104370000E9408220E941022C8EDD0E088818F7729
:10438000888388818068888388818F7D888319BC31
:104390001092830310927F03109281031092800386
:1043A00000EE10E0F80180818B7F8083888181603E
:1043B000888342E060E080E00E941621E1EEF0E0B8
:1043C00080818E7F8083E2EEF0E080818160808357
:1043D000808188608083F80180818E7F80838881DE
:1043E00080618883DF91CF911F910F910895E8ED4F
:1043F000F0E080818F7E8083E7EDF0E08081816056
:10440000808384E082BF81E0809382030C94B42196
:10441000E8EDF0E080818E7F80831092E2000895C5
:104420001092DA001092E10008951F920F920FB6D9
:104430000F9211242F933F934F935F936F937F932A
:104440008F939F93AF93BF93EF93FF938091E1007E
:1044500082FF0BC08091E20082FF07C08091E100E3
:104460008B7F8093E1000E94E41D8091DA0080FF41
:1044700019C08091D80080FF15C08091DA008E7F2E
:104480008093DA008091D90080FF96C080E189BDD9
:1044900082E189BD09B400FEFDCF81E080938303F2
:1044A0000E94BF1D8091E10080FF19C08091E20051
:1044B00080FF15C08091E2008E7F8093E2008091A2
:1044C000E20080618093E2008091D8008062809356
:1044D000D80019BC85E0809383030E94DC1D809185
:1044E000E10084FF2BC08091E20084FF27C080E1BF
:1044F00089BD82E189BD89B5982F917080FFFBCF7E
:104500008091D8008F7D8093D8008091E1008F7ECC
:104510008093E1008091E2008F7E8093E2008091A1
:10452000E20081608093E20080917F03882309F498
:1045300049C084E0809383030E94E01D8091E100E4
:1045400083FF29C08091E20083FF25C08091E100B4
:10455000877F8093E10082E08093830310927F0342
:104560008091E1008E7F8093E1008091E2008E7F58
:104570008093E2008091E20080618093E20042E05B
:1045800060E080E00E9416218091F00088608093B6
:10459000F0000E94D81DFF91EF91BF91AF919F91C4
:1045A0008F917F916F915F914F913F912F910F90DC
:1045B0000FBE0F901F90189519BC109283030E9494
:1045C000D11D70CF8091E30087FD93E0909383032A
:1045D000B3CF1F920F920FB60F9211242F933F93D8
:1045E0004F935F936F937F938F939F93AF93BF93FB
:1045F000CF93DF93EF93FF93D091E900DF70809129
:10460000EC00C82FC17080FDC0E81092E9008091D5
:10461000F000877F8093F00078940E942D23109201
:10462000E9008091F00088608093F000CD2BCF707E
:10463000C093E900FF91EF91DF91CF91BF91AF91CE
:104640009F918F917F916F915F914F913F912F91AA
:104650000F900FBE0F901F9018951F93CF93DF936D
:10466000CDB7DEB7AA970FB6F894DEBF0FBECDBFA9
:1046700084E893E02091F100FC012193CF01F3E065
:104680008C389F07B9F70E94341E8091E80083FFA1
:104690001EC180918403909185039A3008F017C160
:1046A000E92FF0E0E75BFA4D0C94A624803899F0EE
:1046B000823809F00CC1809188038F70873008F030
:1046C00006C18093E9008091EB0085FB882780F983
:1046D0001092E90006C080918003909181039111AE
:1046E00082609091E800977F9093E8008093F100BA
:1046F0001092F1008091E8008E77E5C0882309F4DC
:10470000D3C0823009F0E3C0809186038111D6C006
:10471000809188038F702FEF280F263008F0D7C0C4
:104720008093E9002091EB0020FFC8C0933031F462
:104730008091EB0080628093EB00C0C09091EB0011
:1047400090619093EB0021E030E001C0220F8A9548
:10475000EAF72093EA001092EA008091EB0088606B
:10476000EACF8111B4C0109186031F778091E300D6
:104770008078812B8093E3008091E800877F80938D
:10478000E8000E944A218091E80080FFFCCF8091E0
:10479000E30080688093E30082E0111183E080935E
:1047A000830395C08058823008F091C080918603C1
:1047B000909187038C3D23E09207A1F583E08A83E3
:1047C0008AE289834FB7F894DE01139620E03EE039
:1047D00051E2E32FF0E050935700E49120FF03C033
:1047E000E295EF703F5FEF708E2F90E0EA30C0F0FF
:1047F000C7968D939D932F5F243159F74FBF8091BA
:10480000E800877F8093E8006AE270E0CE010196BD
:104810000E9459208091E8008B778093E80057C070
:10482000C096E7CF6091880370918903AE014F5F16
:104830005F4F0E949B1FBC01892B09F448C09091D7
:10484000E800977F9093E80089819A810E94B720C1
:10485000E1CF8038E1F58091E800877F8093E80020
:1048600080917F038093F10045CF811130C09091FA
:104870008603923060F58091E800877F8093E8009E
:1048800090937F030E944A2180917F03882311F037
:1048900084E005C08091E30087FDFACF81E080933A
:1048A00083030E94251E13C080918603813079F412
:1048B00081E0933009F080E0809381031092E90059
:1048C0008091E800877F8093E8000E944A218091D0
:1048D000E80083FF0AC08091E800877F8093E800AA
:1048E0008091EB0080628093EB00AA960FB6F8945B
:1048F000DEBF0FBECDBFDF91CF911F910895CF9343
:10490000809183038823A1F0C091E900CF7090913A
:10491000EC00892F817090FD80E8C82B1092E9008F
:104920008091E80083FD0E942D23CF70C093E900A1
:10493000CF910895991B79E004C0991F961708F04C
:10494000961B881F7A95C9F780950895EE0FFF1F73
:104950000590F491E02D0994F999FECF92BD81BDA7
:10496000F89A992780B50895A8E1B0E042E050E0B8
:104970000C94E024262FF999FECF92BD81BDF89AC0
:10498000019700B4021639F01FBA20BD0FB6F89493
:10499000FA9AF99A0FBE08950396272F0E94BB2416
:1049A0000E94BA24252F0E94BB24242F0C94BB24E0
:1049B0000196272F0E94BB240C94BA24DC01CB0162
:1049C000FC01F999FECF06C0F2BDE1BDF89A31961F
:1049D00000B40D9241505040B8F70895F894FFCFBD
:1049E000D209D2092A0A2A0A7C0AFF09FF09FF090B
:1049F000980A240B330B330B070C070C100C100C0C
:104A0000120C100C100C100C070C070C170C100CCF
:104A1000100C170C1217FA1619178316AE17AE17CB
:104A2000F516AE17AE174517AE1755179417AE17F4
:104A3000AE17AE17AE176817AE17AE176517AE17DD
:104A40003017AE17AE17AC17AC17AC17AC17AC17C6
:104A5000AC17AC17AC17AC17A617AE171217EE169B
:104A6000AE17AE17AE17AE17AE17AE17AE17AE171E
:104A7000AE17AE17A617AE17AE17F516AE17AA17D4
:104A8000AA17AA17AA17AA17AA17AA17AA17AA171E
:104A9000A61756237E2367247E236724B123D223BF
:064AA000672429243524DF
:104AA6000503481D7E1DBE1D7A1D761D01E200E927
:104AB60000EA00B500B600B700CD008301CC008A3D
:104AC60001920194012102230224022502260227D3
:104AD600022A02B300B4006F007000818283E200F4
:104AE600E900EA00B500B600B700CD008301CC00AE
:104AF6008A01920194012102230224022502260240
:104B060027022A02B300B4006F007000818283403E
:0E4B16006D227D091009EE089308AC08C50851
:00000001FF
