:100000000C94F0050C9437060C9437060C943706C4
:100010000C9437060C9437060C9437060C9437066C
:100020000C9437060C9437060C944E260C94222719
:100030000C9433200C9437060C9437060C94370636
:100040000C9437060C9437060C9437060C9437063C
:100050000C9437060C948A200C9437060C943706BF
:100060000C9437060C94AD070C9437060C943706A5
:100070000C9437060C9437060C9437060C9437060C
:100080000C9437060C9437060C9437060C943706FC
:100090000C9437060C9437060C9437060C943706EC
:1000A0000C9437060C9437060C9437060A0025305A
:1000B000313662003A200025303258000A722F6330
:1000C00020303132333435363738394142434445B4
:1000D000460A00290035001E001F002000210022D2
:1000E00000000024002500260027002D002E002AF5
:1000F000004C003A002B0014001A000800150017ED
:100100000000001C0018000C00120013002F00302B
:100110000031003B00390004001600070009000A06
:100120000000000B000D000E000F0033003400280B
:10013000004C003C00E1001D001B000600190005FA
:1001400000000011001000360037003800E50052B2
:100150000049003D00E000E300E2002C004C0023D9
:100160000000002C00E600E7000000E40050005111
:10017000004F000100010001000100010001000129
:100180000000000100010001000100010001000168
:100190000001000100010001000100010001000157
:1001A0000000000100010001000100010001000148
:1001B0000001000100010001000100010001000137
:1001C0000000000100010001000100010001000128
:1001D0000001000100010001000100010001000117
:1001E0000000000100010001000100010001000108
:1001F00000010001000100010001000100010001F7
:1002000000000001000100010000000100010001E8
:1002100000010001000100010001000100010001D6
:1002200000000001000100010001000100010001C7
:1002300000010001000100010001000100010001B6
:1002400000000001000100010001000100010001A7
:100250000001000100010001000100010001000196
:100260000000000100010001000100010001000187
:100270000001000100010001000100010001000176
:100280000000000100010001000100010001000167
:100290000001000100010001000100010001000156
:1002A0000000000100010001000000010001000148
:1002B0000001000100010001000100010001000136
:1002C0000000000100010001000100010001000127
:1002D0000001000100010001000100010001000116
:1002E0000000000100010001000100010001000107
:1002F00000010001000100010001000100010001F6
:1003000000000001000100010001000100010001E6
:1003100000010001000100010001000100010001D5
:1003200000000001000100010001000100010001C6
:1003300000010001000100010001000100010001B5
:1003400000000001000100010000000100010001A7
:1003500000010044454255473A2064697361626C6C
:1003600065642E0A0044454255473A20656E616235
:100370006C65642E0A0000000000000000002A2BBB
:100380002800000000000000000000000000000045
:100390000029000000002C1E3420212224342627AE
:1003A000252E362D3738271E1F20212223242526CF
:1003B0003333362E37381F0405060708090A0B0C9D
:1003C0000D0E0F101112131415161718191A1B1CE5
:1003D0001D2F3130232D350405060708090A0B0CA3
:1003E0000D0E0F101112131415161718191A1B1CC5
:1003F0001D2F3130354C00000000000000000000CF
:1004000000000000000000000000000000000000EC
:10041000000000000000000000007E0F00D4FFFF7D
:10042000FFC7000000784F6E6573686F743A2074E0
:10043000696D656F75740A004F6E6573686F743A05
:10044000206163746976653A2025640A000A0025F4
:10045000303258006B6579626F6172645F736574E6
:100460005F6C65643A20003F00433E20004C2564E9
:100470000A000A092D20537461747573202D0A68CF
:100480006F73745F6B6579626F6172645F6C6564D2
:100490007328293A20253032580A6B6579626F61DA
:1004A00072645F70726F746F636F6C3A20253032C4
:1004B000580A6B6579626F6172645F69646C653A52
:1004C00020253032580A6B65796D61705F636F6EFD
:1004D0006669672E6E6B726F3A20253032580A7447
:1004E000696D65725F72656164333228293A20252F
:1004F00030386C580A000A092D2056657273696FEE
:100500006E202D0A5649443A20307835333532284A
:1005100053695269757329205049443A2030783024
:1005200032303228556E6936363020563229205600
:1005300045523A203078323030340A4255494C44E2
:100540003A2020284F63742031362032303231294E
:100550000A4F5054494F4E533A204C55464120457E
:10056000585452414B455920434F4E534F4C452010
:10057000434F4D4D414E44204E4B524F2034303965
:10058000360A4743433A20382E342E302041565203
:100590002D4C4942433A20322E302E3020415652C3
:1005A0005F415243483A20617672350A000A092DAC
:1005B00020436F6E736F6C65202D0A4553432F7176
:1005C0003A09717569740A000A092D204D6167693D
:1005D00063202D0A443A094465627567204D6573AE
:1005E0007361676520546F67676C650A583A094DF7
:1005F0006174726978204465627567204D6F646527
:1006000020546F67676C65202D2053686F77206BCF
:1006100065797072657373657320696E206D61749E
:1006200072697820677269640A4B3A094B6579628E
:100630006F61726420446562756720546F67676CF0
:1006400065202D2053686F77206B65797072657314
:1006500073207265706F72740A4D3A094465627551
:1006600067204D6F75736520546F67676C650A5618
:100670003A0956657273696F6E0A533A0953746189
:100680007475730A433A094163746976617465202D
:10069000436F6E736F6C65204D6F64650A46312D34
:1006A0004631303A0953776974636820746F204C7F
:1006B0006179657220302D392028463130203D2067
:1006C0004C30290A302D393A095377697463682010
:1006D000746F204C6179657220302D390A47524180
:1006E00056453A0953776974636820746F204C61EA
:1006F00079657220302028616C7465726E61746552
:10070000290A423A094A756D7020746F20426F6F52
:10071000746C6F616465720A4553433A094A756D9A
:100720007020746F20426F6F746C6F61646572200B
:1007300028616C7465726E617465290A453A0950C6
:1007400072696E7420454550524F4D205365747444
:10075000696E67730A4253504143453A09436C65D9
:10076000617220454550524F4D0A4E3A094E4B5248
:100770004F20546F67676C650A006B65796D617017
:100780005F636F6E6669672E7261773A202530323B
:10079000580A2E737761705F636F6E74726F6C5F4F
:1007A000636170736C6F636B3A2025750A2E636109
:1007B00070736C6F636B5F746F5F636F6E74726F77
:1007C0006C3A2025750A2E737761705F6C63746CC8
:1007D0005F6C6775693A2025750A2E737761705FC3
:1007E0007263746C5F726775693A2025750A2E739F
:1007F0007761705F6C616C745F6C6775693A202516
:10080000750A2E737761705F72616C745F726775C1
:10081000693A2025750A2E6E6F5F6775693A202543
:10082000750A2E737761705F67726176655F6573B5
:10083000633A2025750A2E737761705F6261636B7E
:10084000736C6173685F6261636B73706163653A57
:100850002025750A2E6E6B726F3A2025750A00648A
:10086000656275675F636F6E6669672E7261773A5E
:1008700020253032580A2E656E61626C653A20255B
:10088000750A2E6D61747269783A2025750A2E6B8F
:100890006579626F6172643A2025750A2E6D6F75F5
:1008A00073653A2025750A006565636F6E66696732
:1008B0003A0A64656661756C745F6C617965723A59
:1008C0002025750A003F004E4B524F3A206F666656
:1008D0000A004E4B524F3A206F6E0A000A6D6F7538
:1008E00073653A206F66660A000A6D6F7573653A24
:1008F000206F6E0A000A6B6579626F6172643A203C
:100900006F66660A000A6B6579626F6172643A20ED
:100910006F6E0A000A6D61747269783A206F6666BC
:100920000A000A6D61747269783A206F6E0A000AD3
:1009300064656275673A206F66660A000A646562DC
:1009400075673A206F6E0A000A0A4A756D70696E03
:100950006720746F20626F6F746C6F616465722EB4
:100960002E2E2000433E2000436C656172696E6745
:1009700020454550524F4D0A00556E69636F6465BE
:1009800020696E707574206D6F64652073657420C6
:10099000746F3A2025750A00556E69636F6465208F
:1009A000696E707574206D6F646520696E6974205E
:1009B000746F3A2025750A000A002530325820004D
:1009C0006B6579626F6172645F7265706F72743AA1
:1009D000200064656C5F6B65795F6269743A2063BF
:1009E000616E27742064656C3A20253032580A0005
:1009F0006164645F6B65795F6269743A2063616EFC
:100A00002774206164643A20253032580A005B73F1
:100A10005D004B6579626F617264207374617274FA
:100A20002E0A005B575D005B535D005B525D005B0F
:100A3000445D005B435D00140355006E00690036A1
:100A4000003600300020005600320000000E035334
:100A5000006900520069007500730000000403097A
:100A60000409027B00040100A0FA0904000001034C
:100A70000101000921110100012240000705810345
:100A800008000A0904010002030000000921110105
:100A9000000122220007058203200001070503034D
:100AA00020000109040200010300000009211101D6
:100AB0000001226D000705840320000A09040300D9
:100AC0000203000000092111010001222200070594
:100AD0008503200001070505032000011201000223
:100AE00000000008525302020420010200010631F6
:100AF000FF0974A1010975150026FF0095207508EE
:100B000081020976150026FF00952075089102C024
:100B10000660FF0961A1010962150026FF0095200A
:100B2000750881020963150026FF0095207508915C
:100B300002C005010980A101850319012AB700152A
:100B40000126B700950175108100C0050C0901A1AF
:100B500001850419012AA002150126A0029501753C
:100B6000108100C005010906A1018505050719E0EE
:100B700029E715002501950875018102050719006F
:100B800029EF1500250195F075018102050819016D
:100B90002905950575019102950175039101C0051F
:100BA000010906A101050719E029E71500250195AE
:100BB0000875018102950175088101050719002951
:100BC000FF150026FF00950675088100050819012C
:100BD0002905950575019102950175039101C000E4
:100BE00011241FBECFEFDAE0DEBFCDBF04B603FE97
:100BF00027C08091780390917903A0917A03B091F6
:100C00007B038730904BA740B04BD1F41092780310
:100C10001092790310927A0310927B0314BE84B76A
:100C2000877F84BF0FB6F894A89580916000886193
:100C300080936000109260000FBEE0E0F8E3099539
:100C400011E0A0E0B1E0ECE4F3E502C005900D9204
:100C5000A438B107D9F723E0A4E8B1E001C01D92A0
:100C6000A837B207E1F70E94F0160C942E290C94D5
:100C70000000FF93EF93E0918401F091850130979C
:100C800009F00995EF91FF910895FC01859180305D
:100C900011F0EFDFFBCF0895FF27E0E230E247FFDE
:100CA0000CC0419597FF09C0EDE260957095809565
:100CB0009095611D711D811D911D27FF02C0219519
:100CC00030E350E2AA27660F771F881F991FAA1FDB
:100CD000A41710F0A41B63955A95A9F7AA3008F041
:100CE000A95FA05DAF93F39561157105810591052D
:100CF00041F7ED3211F4EF93F395F21718F43F93A7
:100D0000F395FBCF8F91B5DFFA95E1F70895E9915F
:100D1000F9918591803021F0853219F0AADFF9CF61
:100D2000089520E0E89455915532C1F3503311F401
:100D3000689455915A3348F4505390F3220F022E81
:100D4000220F220F200D250FF4CF0EF4219589914B
:100D50009991533619F3533729F1533559F1BC01A1
:100D600088279927E8945C3621F4899199916894B1
:100D70005591543639F446EF7EF077FF0DC08FEF72
:100D80009FEF0AC055374AE039F0583540E121F06D
:100D9000523642E009F00895FF93EF937DDFEF9123
:100DA000FF91B7CFFF93EF93FC0181918030B9F3AE
:100DB00060DFFBCFFF93EF9368DFF1CFDF93CF933B
:100DC000CDB7DEB72596A3DFCF91DF9108950895C3
:100DD00008950C94E80685E00E94B6160E94B708B4
:100DE0000C94A207EF92FF921F93CF93DF93CDB79E
:100DF000DEB761970FB6F894DEBF0FBECDBF83E7B5
:100E00008093CE00CE0101967C0181E1D7011D9235
:100E10008A95E9F7D7019E012E5E3F4FC70140E05A
:100E200050E0BA011091C80017FD0AC04F5F5F4F34
:100E30006F4F7F4F4131E7E25E076105710590F327
:100E40001091CE00FC011193CF01E217F30751F787
:100E50008B85803E89F426E831E0A701465F5F4F2D
:100E600011969C9111978C91F901819391939F0117
:100E700012964A175B07A1F720E045E066E871E0AB
:100E8000CB010E94B7160E94BF0880E061960FB6A2
:100E9000F894DEBF0FBECDBFDF91CF911F91FF90C1
:100EA000EF900895E82FF0E0EE0FFF1FEA57FE4F96
:100EB000808191810895CF92DF92EF92FF920F93FC
:100EC0001F93CF93DF938CEB90E00E94450686E85A
:100ED000E82E81E0F82ED0E0C0E097EBC92E90E03C
:100EE000D92E0EEA10E0DF93CF93DF92CF920E94CB
:100EF000DE0684EB90E00E944506F7018191919116
:100F00007F010E943A0A9F938F931F930F930E9431
:100F1000DE068CEA90E00E94450621968DB79EB7CA
:100F200008960FB6F8949EBF0FBE8DBFC530D10591
:100F3000D1F6DF91CF911F910F91FF90EF90DF904D
:100F4000CF900895ECECF0E01082108288E180935D
:100F5000C90086E08093CA0008958F938FB78F935E
:100F60009F93EF93FF93E091910181E08E0F909119
:100F70009001981741F09091CE00F0E0EE56FE4FB0
:100F8000908380939101FF91EF919F918F918FBFFB
:100F90008F911895519A599A849A859A8C9A8D9A1C
:100FA00008950E94E7060C94CA079C013A95211502
:100FB0003F4150F5FC01EE27F170BC0166277270CD
:100FC000AC01442754709C012227387094FF0EC056
:100FD00080E1EF2B09F480E0672B09F08062452B5C
:100FE00009F08064232B89F08068089581E0EF2B5D
:100FF00009F480E0672B09F08260452B09F08460DA
:10100000232B19F08860089580E00895CF93DF9333
:10101000EC010E94D5079E01205E31092830310580
:1010200010F0209739F40E94380B8C2FDF91CF916C
:101030000C94A60A0E945E0DF8CFCF93DF93EC01CB
:101040000E94F10ACE010E94D5079E01205E31095F
:101050002830310510F0CD2B21F4DF91CF910C9485
:101060003F0BDF91CF910C94650DCF93DF93EC0193
:101070000E940608CE01DF91CF910C941D0881E0FB
:10108000089581E008950C94410808950C94450852
:101090001F93CF93DF9300D000D00F92CDB7DEB770
:1010A00049835A836B833091920289819A813111ED
:1010B0001DC06623B9F02223A9F00E947C0E182FD0
:1010C000682F89819A810E94290E69817A81812FF6
:1010D0000F900F900F900F900F90DF91CF911F9175
:1010E0000C94AC1A0E94550E182FEFCF0E947C0E64
:1010F00069817A81EDCFFC01262F40815181628187
:10110000738184810C94480881E00895CF93DF9324
:10111000EC0160E00E947B08BE01DF91CF910C944E
:101120004608E1E0F0E0DF0102C0AA0FBB1F6A95AC
:10113000E2F7BD01DF0102C0AA0FBB1F4A95E2F72B
:101140006A2B01C0EE0F2A95EAF7962F9823961383
:1011500002C08E2B0895E0958E230895242F462FEC
:10116000682F8091B1020E9491080C94E60D0E94B4
:101170009C160E944E0A0E948C1B0C94D1070C9462
:10118000E90608950E947E0D0E94C1082FEF84E3B6
:101190009CE0215080409040E1F700C000000C949A
:1011A000AE200F931F93CF93DF938C0161E00E94D9
:1011B0007B08EC01B8010E94F318882309F446C0AB
:1011C000B801CE010E944308882309F43FC0B8014A
:1011D000CE010E943F1C8823C9F1B801CE010E94B4
:1011E000C71C882399F1B801CE010E94191D8823DC
:1011F00069F1B801CE010E943C1E882339F1F80143
:101200008281882361F0CE3DFCE5DF07B9F170F4FF
:10121000C115ECE5DE07C1F0C130DC45E9F0C801DD
:10122000DF91CF911F910F910C943F08CB358DE545
:10123000D80751F1CC35EDE5DE0719F1CA35DD45AA
:1012400071F70E940D12EBCF0E94C20880E0DF917F
:10125000CF911F910F91089590912703892F8E7F31
:1012600090FF81608093270380FF05C085E693E0AF
:101270000E944506EBCF83E593E0FACF0E949D13D1
:10128000E5CF0E940412CBCF0E941012C8CFDF928C
:10129000EF92FF920F931F93CF93DF93E82FF0E02D
:1012A000EA58FC4FD490282F26952695269530E0B5
:1012B000F901EA5EFB4F0491877010E0082E02C02E
:1012C000159507950A94E2F701701127F901EA5F75
:1012D000FB4FE490F12C082E02C0F594E7940A9499
:1012E000E2F791E0E922FF24F901EA50FC4FC491B2
:1012F000D0E002C0D595C7958A95E2F7C170DD2789
:101300000115110519F081EE0E94A60AE114F104FD
:1013100019F086EE0E94A60A8D2D0E94300BEF2850
:1013200019F086EE0E94F10A012B19F081EE0E945D
:10133000F10ACD2B51F08CE2DF91CF911F910F91EB
:10134000FF90EF90DF900C94300BDF91CF911F91C5
:101350000F91FF90EF90DF900895EF92FF920F931F
:101360001F93CF93DF93EC01162F0AE08881882327
:1013700009F454C0813009F04EC08981813099F45C
:101380007E0122E0E20EF11C8A810E94300BE7010F
:101390002196812F815050F3EFE9FFE03197F1F76B
:1013A00000C00000F7CF823041F47E0182E0E80EF9
:1013B000F11C8A810E94A60AEACF833041F47E01A3
:1013C000E2E0EE0EF11C8A810E94F10AE0CF843047
:1013D00011F02196DDCF2A81229690E080E0AE01C7
:1013E0004F5F5F4F2053330B2A30310548F0019790
:1013F00078F2EFE9FFE03197F1F700C00000F7CF96
:10140000089FB001099F700D1124C901860F971F15
:101410002981EA01E4CF0E944709BACFDF91CF9139
:101420001F910F91FF90EF90089560E00C94AD092B
:10143000982F9F709A50963018F0805D0C94470951
:10144000895AFCCF829590E09C01220F331F220F16
:10145000331F2C7C95958795959587958373282BBD
:1014600030E0C901880F991F8A7A3595279525752F
:10147000822B0895CF93DF93D92F0E94220AC82F81
:101480008D2F0E94220A9C2FDF91CF9108950895FD
:101490000C94470A81E008950C944A0A0895CF936A
:1014A000C82F0E94480A8C2FCF910C944C0ACF93DE
:1014B000DF93CDB7DEB72B970FB6F894DEBF0FBE24
:1014C000CDBF4F83588769877A878B8761110E94C8
:1014D00036121E821D8285E0FE013796DE011196CE
:1014E00001900D928A95E1F70E94C211882319F0AC
:1014F00082E00E94D7120E94A91181110E945A1203
:101500008C819D81892B89F449815A816B817C81F1
:101510008D819E810E94FB102B960FB6F894DEBF42
:101520000FBECDBFDF91CF91089589819A81892324
:101530008F3F51F3CE0101960E9484088111E4CFC0
:10154000EBCFFC01808191810C94A90ECF93C82F21
:10155000882309F444C08CEF8C0F813AC8F48C2F97
:101560000E94591881113BC06C2F8091000190910D
:1015700001010E94151F882329F08C2F0E949C11C5
:101580000E9468128C2F0E949511CF910C946812C2
:1015900080E28C0F883048F4C77081E001C0880F6A
:1015A000CA95EAF70E941612F0CFEBE5EC0FE33094
:1015B00040F4F0E0E55CFE4F808190E0CF910C9428
:1015C000D51EC85AC73158F4EC2FF0E0EE0FFF1FBC
:1015D000E35FFE4F80819181CF910C94EB1ECF9100
:1015E0000895882329F19CEF980F913A20F40E94E6
:1015F0009C110C94681290E2980F983050F4877008
:1016000091E001C0990F8A95EAF7892F0E941C1278
:10161000F0CF9BE5980F933020F490E080E00C949D
:10162000D51E885A873120F490E080E00C94EB1EA0
:1016300008951F93CF93DF93182FEB010E94A60A02
:10164000209731F4812FDF91CF911F910C94F10AF3
:101650008FE99FE00197F1F700C000002197F0CFDC
:1016600070E060E0893311F460E570E00C94190BD0
:10167000882321F00E9416120C9468120895882382
:1016800021F00E941C120C9468120895BF92CF9210
:10169000DF92EF92FF920F931F93CF93DF936C0132
:1016A000D62FC72FFC011281058102950F700E9471
:1016B000D811E82E8823A1F0E12E112389F08C2F78
:1016C000807F803429F080E28D0FE12C883040F05B
:1016D00082E00E94D7120E94D81191E0E82EE926FC
:1016E000BC2EB2949FE0B922FBE0FB1598F1EB2DE4
:1016F000F0E0E05DF64D0C94DF280C2F0F70C07FFA
:1017000011F00295007F1123A9F0002359F080E227
:101710008D0F883010F0D11109C0802F0E94161251
:101720000E9468128D2F0E94A60A14C0802F0E946A
:101730002912F6CF8D2F0E94F10A002359F080E282
:101740008D0F883010F0D1112CC0802F0E941C12F8
:101750000E9468122B2D2850330B2430310520F4C1
:101760000E946B1E0E944F0AEE2009F45EC10E9487
:10177000BE1180FD5AC1F60112820E94B8110E946A
:10178000F70DC6010E94360D0E94B811DF91CF916E
:101790001F910F91FF90EF90DF90CF90BF900C942E
:1017A000020E802F0E942F12D3CF2C2F2F70F22EDB
:1017B000C07FC03219F0F29480EFF822DD2369F087
:1017C000D13049F1112391F1002351F1F6018581C6
:1017D00080FFA8CF8F70858323C0112381F0011172
:1017E00006C00E943C128F290E94380BB3CF0130F3
:1017F000C1F70E943C128F290E944212ABCF011107
:1018000006C00E945A128F2D0E943F0BA3CF0130B9
:1018100009F4A0CFF6CF112329F0063008F09ACFB3
:101820008F2DE2CF053008F095CFEDCF002359F38F
:10183000D93349F4FFEF27EE33E0F1502040304038
:10184000E1F700C000008D2F0E94F10A83CF8C2F9A
:1018500086958695837069F0813009F07BCF8D2F56
:101860009C2F9370111102C090E080E00E94EB1E4B
:1018700071CF8D2F9C2F9370111102C090E080E0EA
:101880000E94D51E67CF8C2F837079F5111162CF1E
:101890004D2F429546954770440F440F8D2F8F7002
:1018A000042E01C0880F0A94EAF72D2F2071D4FF6F
:1018B00007C02FE030E001C0220F4A95EAF72095DB
:1018C000C695C695C370822BC23049F058F4C1301A
:1018D00019F00E94D80D3ECF0E94D30D3BCF0E943D
:1018E000DD0D38CF0E94D10D35CF8695112311F033
:1018F0008C2F8170882309F42DCF4D2F429546956A
:101900004770440F440F8D2F8F70042E01C0880F35
:101910000A94EAF72D2F2071D4FF07C02FE030E0A2
:1019200001C0220F4A95EAF72095C695C695C37067
:10193000822BC23049F058F4C13019F00E941E0EBB
:1019400009CF0E94190E06CF0E94230E03CF0E94DA
:10195000E60D00CFCF70112329F08C2F0E94F70DD8
:101960008D2F42CF8D2F0E943F0B8C2F0E94020E95
:10197000F1CED23F89F160F4D03FC9F0D13F29F1D7
:10198000112309F442C00111CDCE8C2F8F7121C0DB
:10199000D33F39F1D43FA1F7112369F1CF718C2FD7
:1019A0000E94F70D63E08C2F0E94B212D3CE112358
:1019B00041F0053008F0CECE8C2F8F710E940E0EB4
:1019C000C9CE063008F0C6CEF7CF8C2F8F71112309
:1019D00069F20E94F70DBECE8C2F8F711123C9F3CF
:1019E000C5CF112329F08C2F8F710E94EF0DB2CE3D
:1019F0000E94EC0DAFCE81E00E94D712023008F4B5
:101A0000A9CE82E00E94D712A5CE002359F0D93387
:101A100009F019CF8FEF97EEE3E081509040E0405E
:101A2000E1F70FCF8C2F8F71A1CFDF91CF911F9155
:101A30000F91FF90EF90DF90CF90BF9008950F939C
:101A40001F93CF93DF93EC01688179818A810E9493
:101A5000B30E8C010E94280E0E94D00DB801CE0159
:101A6000DF91CF911F910F910C94460BCF93DF9391
:101A7000EC018B819C81892B29F0888199818923B4
:101A80008F3F59F4DF91CF910895CE010E941F0D31
:101A9000CE01DF91CF910C948608CE010E94D1082F
:101AA0008111F3CF0E94D811882361F38A818823A2
:101AB00049F382E0DF91CF910C94D712882321F073
:101AC0000E9429120C9468120895882321F00E9424
:101AD0002F120C946812089590E080E00E94D51EA9
:101AE00090E080E00E94EB1E0E9436120E943912A4
:101AF0000C9468120E94A3110C946C0D0E94261283
:101B00000C947A0DE92FE295EF70E250EE3070F40C
:101B1000F0E0E45CF64D0C94DF28803F19F020F4EF
:101B2000883E20F481E00895843FE1F380E0089549
:101B3000883EC0F3813FD1F7F5CF93FB882780F92A
:101B40000895FC01808191810E94A90E0C94820D60
:101B5000CF93DF9300D000D00F92CDB7DEB70F90B8
:101B60000F900F900F900F90DF91CF910895CF932A
:101B7000DF9300D000D000D0CDB7DEB726960FB6E9
:101B8000F894DEBF0FBECDBFDF91CF9108950895C9
:101B90000C94C70D0E94C80D8093B2020C946C0D7A
:101BA00008950C94CA0D9091B202892B0C94CA0D21
:101BB0009091B20289230C94CA0D9091B2028927A8
:101BC0000C94CA0D0C94C70D0C94E20D0E94E40D08
:101BD0008093B1020C946C0D80E00C94E60D91E0C2
:101BE00001C0990F8A95EAF7892F0C94E60D21E040
:101BF00030E001C0220F8A95EAF78091B102822B72
:101C00000C94E60D21E030E001C0220F8A95EAF73E
:101C100020958091B10282230C94E60D21E030E002
:101C200001C0220F8A95EAF78091B10282270C94B5
:101C3000E60D9091B102892B0C94E60D9091B102C2
:101C400089230C94E60D9091B10289270C94E60D3E
:101C500008959295907F890F982F977041E001C069
:101C6000440F9A95EAF786958695869593E0899F25
:101C7000F0011124ED56FD4F30E020E070E051916D
:101C8000DF011197CB01022E02C0969587950A9429
:101C9000E2F7817081958527842385278C932F5FB8
:101CA0003F4F2330310559F708959295907F890F62
:101CB000982F977086958695869523E0829FF001F0
:101CC0001124ED56FD4F50E040E080E0219130E0DE
:101CD000092E02C0369527950A94E2F72170332722
:101CE000042E01C0220F0A94EAF7822B4F5F5F4F48
:101CF0004330510559F70895CF92DF92FF920F9329
:101D00001F93CF93DF936C010091B1028091B202D7
:101D1000082BC7E0D0E010E0FC2EC8010C2E02C05A
:101D2000959587950A94E2F780FD0CC02197A0F75E
:101D3000F12C8F2DDF91CF911F910F91FF90DF90AC
:101D4000CF900895B6018C2F0E94A315019771F3CF
:101D5000F0CFCF93DF93EC010E947C0EBE01DF91A8
:101D6000CF910C94A3151F93CF93DF93EB01909128
:101D70009202992331F0CB01DF91CF911F910C9406
:101D8000A90E882379F0CB010E947C0E182F682FB2
:101D9000CE010E94290EBE01812FDF91CF911F91AC
:101DA0000C94A315CB010E94550E182FF4CF1F934E
:101DB000CF93DF93C091B30216E08091B4028C13ED
:101DC00004C0DF91CF911F910895D0E01C9FF001D6
:101DD0001D9FF00D1124EB54FD4F40815181628114
:101DE0007381848195810E94B70D2196C770E5CFDC
:101DF0004091E5025091E6026091E7027091E8029D
:101E00008091E9029091EA020C94B70D1F93CF9351
:101E1000DF938091EA02807FA9F48091E702882312
:101E200089F08091B302C091B4026091E502709193
:101E3000E602A091E802B091E902D62FD72316E07E
:101E4000C81304C0DF91CF911F91089590E01097BF
:101E500011F0DF3F19F401968770F2CF189F9001BF
:101E6000199F300D1124F901EB54FD4F41814713A7
:101E7000F2CF40814613EFCF42814111ECCF438135
:101E800054814A1B5B0B483C510528F78091EA02BC
:101E90008F7080618093EA02F901E654FD4F8081E2
:101EA0008F708061808385EE92E00E94360DDF9115
:101EB000CF911F910C94D70EAF92BF92CF92DF9229
:101EC000EF92FF920F931F93CF93DF93CDB7DEB7BF
:101ED00061970FB6F894DEBF0FBECDBF8C0185E0D1
:101EE000F801DE011D9601900D928A95E1F7F80147
:101EF000E28085EEC82E82E0D82E6091E8027091D3
:101F0000E9026115710509F45AC19091E502209129
:101F1000E602892F82238F3F09F451C1408151810C
:101F2000A380B480F090E702F501E61BF70BFF20D9
:101F300009F4F6C08091EA02382F307FE83CF105C1
:101F400008F0AFC0311179C0FE2C251323C09413C3
:101F500021C0E1101FC08F7080618093EA020E944F
:101F6000F80EC6010E94360D8091EA02F8018583C1
:101F70008F2D61960FB6F894DEBF0FBECDBFDF91F7
:101F8000CF911F910F91FF90EF90DF90CF90BF9076
:101F9000AF900895AB2829F0842F85238F3F09F057
:101FA00027C180E0F82FF170DF2E80FF3CC08091C8
:101FB000B3022091B40236E0821315C04D875E87CC
:101FC0008D859E850E94A90E292F22952F70223083
:101FD000F0F0243018F59F70F1F0F8019581907FB2
:101FE000D1F4D12C1EC090E0389FF001399FF00D44
:101FF0001124EB54FD4F6181651306C060816413A9
:1020000003C06281E6120FC001968770D5CF9F7022
:1020100011F0882331F3805E883018F3C8010E94E4
:10202000360DFD2CA5CFEE2009F4A2CF8091EA0257
:1020300081608093EA02F12C9BCF251306C0941394
:1020400004C0F801EE2009F487C0C8010E94A10D68
:10205000882319F1EE2009F18091EA02803270F0B4
:102060002091E5023091E60238872F831986BB86DE
:10207000AA868C87CE0107960E94360D86E0F8016D
:10208000A5EEB2E001900D928A95E1F70E94060F4D
:102090000E94F80EFF24F3946BCFC8010E94360D06
:1020A000F9CF311113C07A2DB98AA88A6E2D89898A
:1020B0000E94A80D85EE92E00E94360D86E0F601A2
:1020C00011928A95E9F70E94F80EB5CF25130FC03B
:1020D00094130DC0E1100BC0F8018583C8010E9464
:1020E000360D86E0F60111928A95E9F741CFC801D5
:1020F0000E94A10D882389F2EE2079F28091EA02F4
:10210000803208F4BBCF2091E5023091E6023A8399
:1021100029831B82BD82AC828E83CE010196ACCF17
:10212000E83CF10508F03EC0FE2CEE2009F4B5CFE6
:1021300025132AC0941328C08091EA0280FD1BC099
:10214000982F907FC1F0F8018583903F31F0982F50
:10215000907F905F8F70892B8583C8010E94360D18
:1021600086E0F801A5EEB2E001900D928A95E1F7C4
:102170000E94F80EFDCE86E0F801A5EEB2E00190D7
:102180000D928A95E1F7F4CEC8010E94A10D81114C
:1021900075CF8091EA0281608093EA02C8010E94B3
:1021A000360DE6CE7A2DB98AA88A6E2D89890E94CD
:1021B000A80D86E0F60111928A95E9F7D9CFEE20B5
:1021C00009F46BCFC8010E94A10DF82E882309F4F1
:1021D00064CF86E0F801A5EEB2E001900D928A95F9
:1021E000E1F785EE92E00E94A10A0E94060FC0CF9F
:1021F00081E08E25D7CE1F93CF93DF93CDB7DEB787
:102200002C970FB6F894DEBF0FBECDBF4F83588713
:1022100069877A878B879C87CE0107960E945C0F1F
:10222000882369F08A859B85892B39F04F815885F1
:10223000842F85238F3F09F071C016E05FC086E0D0
:10224000FE013796DE01119601900D928A95E1F715
:102250008A859B85892B89F38F81988589238F3F78
:1022600061F32091B40230E0C9010196877099278B
:102270004091B3024817190671F40E947E0D109226
:10228000B4021092B30286E0E5EEF2E0DF011D92A7
:102290008A95E9F7D2CF96E0929FD001939FB00D37
:1022A0001124AB54BD4FFE01319601900D929A95C9
:1022B000E1F78093B4020E94D70EBFCF819FC00187
:1022C00011248B549D4F0E945C0F8823E9F0E0910C
:1022D000B3021E9FF0011124EB54FD4F4081518148
:1022E00062817381848195810E94B70D8091B302D0
:1022F00090E00196877099278093B3028091B30292
:102300009091B4028913DACF2C960FB6F894DEBF01
:102310000FBECDBFDF91CF911F91089569857A855A
:102320008B859C850E94B70D88CF682F8091000116
:10233000909101010C94B71F682F8091000190913A
:1023400001010C94C21F80910001909101010C9435
:10235000CD1F0E9463202091EE023091EF02821B7C
:10236000930B9C0181E0243F314008F480E0089504
:102370008091ED0285958595859508958091ED0272
:10238000877008950E9463202091EB023091EC0247
:10239000821B930B843F914048F08091ED0282FBB9
:1023A000882780F991E089278170089580E0FCCF2B
:1023B0009091ED02977081E009F480E00895CF9349
:1023C000C82F8091600382FB992790F99C17D1F068
:1023D000C0FB82F98093600380915F03909160035A
:1023E0000E941A138091270380FF0CC01F92CF9385
:1023F00088E394E09F938F930E94DE060F900F90E6
:102400000F900F90CF9108958091600382FB8827F1
:1024100080F991E089270C94DF1181E00C94DF11A1
:1024200080E00C94DF1180911303089590911303C1
:10243000892B80931303089580959091130398231B
:102440009093130308958093130308951092130338
:10245000089590911203892B80931203089580951B
:1024600090911203982390931203089510921203EF
:1024700008951092110308958091F002089508952F
:102480000C943F12CF93C82F8091600382FD10C03F
:102490008091F0028C1761F00E9463209093EF020C
:1024A0008093EE02C093F0028C2FCF910C944012D7
:1024B000CF9108958091F002882349F01092F002A4
:1024C0001092EF021092EE0280E00C9440120895F8
:1024D000E0910001F0910101809113038083E0916C
:1024E0000001F0910101808190911203892B80837A
:1024F000E0910001F0910101808190911103892BFD
:1025000080838091F002882321F10E94A911882301
:1025100071F08091270380FF08C086E294E09F93CA
:102520008F930E94DE060F900F900E945A12E09146
:102530000001F091010180819091F002892B80834C
:1025400080910001909101010E94011F81110E9460
:102550005A1280910001909101010C947A1E089505
:102560000C94AF129091600392FD16C098E0899F81
:1025700090011124622B6093ED020E94F70D0E94DE
:1025800063209093EC028093EB028091ED0285959D
:10259000859585950C94B0120C94F70D1092ED0270
:1025A0001092EC021092EB0280E00C94B012909129
:1025B000ED02809589238093ED02282F277039F44E
:1025C000282F082E000C330B9217130621F490913C
:1025D000600392FF07C08595859585950E94020E40
:1025E0000C94CE1208956FEF7FEF90E080E00C9492
:1025F000182990E080E00E94F428893E9E4F11F453
:102600000C949C1880E0089582E090E00C94EC28F3
:1026100083E090E00C94EC28CF9384E090E00E945B
:10262000EC28C82F82E290E00E94EC28982F8C2F93
:10263000CF910895CF93C92F682F84E090E00E9436
:10264000FA286C2F82E290E0CF910C94FA28AB012B
:10265000BC018FE090E00C940C29AB01BC0183E13C
:1026600090E00C940C2960E070E0CB010C942D13E9
:1026700060E070E0CB010E9427130C94331369EEE5
:102680007EEF90E080E00E94182960E082E090E018
:102690000E94FA2860E083E090E00E94FA281092FD
:1026A000B20260E084E090E00E94FA2860E082E2FA
:1026B00090E00E94FA2860E085E090E00E94FA280D
:1026C00060E086E090E00E94FA286FEF87E090E0FB
:1026D0000E94FA2840E050E0BA0188E090E00E94B1
:1026E0000C2960E08DE090E00E94FA2840E050E084
:1026F000BA0188E190E00E940C2960E087E190E057
:102700000E94FA2840E050E0BA018CE190E00E947B
:102710000C2970E060E080E290E00E94182940E01F
:1027200050E0BA0188E190E00E940C2980E00E940C
:10273000B5180E94DB180C9438130C943F13682FC3
:102740008EE090E00C94FA280E946F20609323039F
:1027500070932403809325039093260360931F03B3
:10276000709320038093210390932203089585B7EB
:10277000806885BF85B7806885BF089508950895EE
:102780000C94BE1308950C94C2130E94B7138CE9E5
:1027900092E20E94BF200E94BF130C94C01381E0FC
:1027A00008950C94CF13089508950E94D3130C94A8
:1027B000D4130E945A200E94EA180E94EB060C943F
:1027C000C313CF93C82F8091270382FF1EC080FFC1
:1027D0001CC084E594E00E9445068091270380FF99
:1027E00014C01F92CF938FE494E09F938F930E9425
:1027F000DE06809127030F900F900F900F9080FFBF
:1028000004C08DE494E00E9445068C2FCF910C9477
:102810004F0A8F929F92AF92BF92CF92DF92EF9228
:10282000FF920F931F93CF93DF93CDB7DEB72A9715
:102830000FB6F894DEBF0FBECDBF0E94F206811125
:102840000E94A41355E1852E53E0952E10E000E080
:10285000A02E802F0E9452076C01F401E190F190AC
:102860004F01E816F90609F45AC08091270381FD4B
:102870000E945B07C7018C259D25B12CEE24E394B3
:10288000F12C9C012E213F21232B09F442C00E94F0
:10289000D1138823A9F0BE82AF82CE20DF2081E051
:1028A000CD2809F480E088870E9463208160782F1A
:1028B0009A8789874E815F8168858A850E94570A39
:1028C000000F111FF801EB5EFC4F80819181E8261B
:1028D000F926F182E0820E946B1E90911403891701
:1028E000A9F10E946B1E809314032A960FB6F894E8
:1028F000DEBF0FBECDBFDF91CF911F910F91FF9033
:10290000EF90DF90CF90BF90AF909F908F900C94FE
:10291000E113B394EE0CFF1CF0E1BF12B2CF0F5FD6
:102920001F4F0530110509F093CF8FEF89838A83FC
:102930001B820E9463208160782F9D838C83498154
:102940005A816B818D810E94570AC5CF2A960FB696
:10295000F894DEBF0FBECDBFDF91CF911F910F91D5
:10296000FF90EF90DF90CF90BF90AF909F908F90AF
:102970000895CF93DF930E94A715EC01811522E5FE
:102980009207E8F5811531E5930708F0ACC0883E61
:10299000910510F5803E910570F5883A910570F427
:1029A000853A910508F078C08130910521F10097B2
:1029B00011F1049700F5D0E0C0E01DC08F3B9105F8
:1029C000D0F7C85AD0E0CC0FDD1FC25CDE4F0990B3
:1029D000D881C02DD4640FC0811540E5940708F05C
:1029E00066C0C11580E4D80708F05EC0CE019A9594
:1029F00081159F4100F7CE01DF91CF910895811598
:102A000036E5930718F5811545E5940708F083C06E
:102A1000C11584E5D80708F079C09C2F9695969546
:102A20009E0123703327C115D34508F461C0C1E06E
:102A3000D0E002C0CC0FDD1F2A95E2F730E2939F71
:102A4000C0011124C82BD92BDA68D5CFC1158AE56E
:102A5000D80778F4C11599E5D90708F066C0C11503
:102A600028E5D20708F4A7CFDC2FCC27C06FD06AA7
:102A7000C2CFCE0190568115904208F09CCF8D2F89
:102A80008F710E943E1690E0982F882788279F71AB
:102A90009C012C2BE90147C0C55AD0E0C459DE4F38
:102AA000C881D0E0D064A7CFDF70D06AA4CFE4E0C3
:102AB00096958795EA95E1F783702C2F26952695B4
:102AC000237040E2249F90011124382B8C2F8370B7
:102AD000C1E0D0E002C0CC0FDD1F8A95E2F7C22B27
:102AE000D32BDC6888CFD82FCC27C16FD06A83CF97
:102AF000C1E0D0E002C0CC0FDD1F2A95E2F720E252
:102B0000929FC0011124C82BD92BEBCFDC2FCC27EF
:102B1000C46FD06A70CF0E943E16C82FD0E0DC2F61
:102B2000CC27CC27DF71D06266CF8C2F8F700E94AC
:102B30003E1634E0D695C7953A95E1F7CF709C2FB5
:102B4000EC01D06958CF0E94AC1A0C94B9148238A9
:102B50009105B1F1B0F48133910509F475C048F4E1
:102B60008932910509F469C08A32910509F473C06C
:102B700008958533910509F459C08933910501F110
:102B80000895833E9105A9F138F4803E9105F9F04E
:102B9000823E910549F10895863E9105A9F1873E4F
:102BA0009105C9F1843E910519F52091600321FF3B
:102BB0001FC080915F0384FD14C087EE90E00895EC
:102BC00020915F032370A1F080EE90E008952091A2
:102BD0005F0320FD47C03091600330FF09C024FF30
:102BE00044C090E080E004C020915F0322FDF7CF55
:102BF000089520915F0322FD3BC03091600330FDBA
:102C0000E3CF24FFF5CFEDCF20915F0323FFF0CF7B
:102C100024FDE7CFD2CF20915F0323FD2CC030915C
:102C2000600331FFEECF84EE90E0089520915F03C2
:102C300025FFDECF89E290E0089520915F0325FF14
:102C4000D7CF85E390E0089520915F0326FFD0CF92
:102C50008AE290E0089520915F0326FFC9CF81E3C7
:102C600090E0089589E390E0089583EE90E0089560
:102C700082EE90E0089586EE90E0089590915F03D3
:102C800092FF06C0282F28712830F9F4877F8460CE
:102C900093FF06C0282F28712831F1F4877E8461C4
:102CA0002091600320FF06C0382F38713830D9F4E6
:102CB000877F816021FF06C0282F28712831D1F439
:102CC000877E816194FD877E0895282F24712430AA
:102CD000F9F68B7F8860DCCF282F2471243101F72F
:102CE0008B7E8861DDCF382F3171313019F78E7FBF
:102CF0008860E0CF282F2171213121F78E7E8861F5
:102D0000E1CF0C94F3120E94F2062FEF86E791E0D8
:102D1000215080409040E1F700C000000E94F20680
:102D200080E00E94520780FF04C00E9481160C942C
:102D3000AE2008950C9483160E94F912811102C0EE
:102D40000E949D130E940413809327030E940C137A
:102D50009093600380935F030E949A160E94081369
:102D60000E94D10D8091B1020C94E40D0895FF9260
:102D70000F931F93CF93DF93F82E092F162FD72F82
:102D8000C42F222349F081E080932A030E9463200C
:102D9000909329038093280380912A038823A1F02C
:102DA00080912803909129030E947B20059760F071
:102DB000EF2DF02FA12FBD2F90E080E0D0E08C17F9
:102DC0009D0744F010922A03DF91CF911F910F913C
:102DD000FF900895219131912D933D930196EFCF6E
:102DE0000E94DF1F0E94FE220E9417230E942D23B3
:102DF0000E94D513FBCFCF93C82F1F928F938DE6E0
:102E000094E09F938F930E94DE0681E001C0880FBB
:102E1000CA95EAF70E94D10D0F900F900F900F9076
:102E2000CF910C947E0DDF92EF92FF920F931F9340
:102E3000CF93DF93EBEFE80FEF3308F030C1F0E012
:102E4000E65BF64D0C94DF280E9408131F928F93C7
:102E500088EA98E09F938F930E94DE060E940413F5
:102E600083FB992790F91F929F9382FB992790F9F2
:102E70001F929F9381FB992790F91F929F93982F00
:102E800091701F929F931F928F938FE598E09F936D
:102E90008F930E94DE060E940C1387FB222720F9E5
:102EA0001F922F9386FB222720F91F922F9385FBD9
:102EB000222720F91F922F9384FB222720F91F92AB
:102EC0002F9383FB222720F91F922F9382FB222727
:102ED00020F91F922F9391FB222720F91F922F9305
:102EE000292F21701F922F9381FB222720F91F92F7
:102EF0002F93282F21701F922F939F938F938AE7F0
:102F000097E09F938F930E94DE068DB79EB78896B9
:102F10000FB6F8949EBF0FBE8DBF81E01CC088E63F
:102F200099E00E9445060E949D13F7CF88EC95E03A
:102F30000E944506F2CF80912703807F809327036C
:102F40008DEA95E00E94450684E699E00E944506D8
:102F500081E080932B03DF91CF911F910F91FF9020
:102F6000EF90DF90089588E499E00E9445060E9462
:102F7000C208D3CF90912703892F8E7F90FF816065
:102F80008093270380FF03C08CE399E0D1CF8FE2C9
:102F900099E00E94450680912703817F8093270353
:102FA000BCCF90912703892F8D7F91FF8260809302
:102FB000270381FF08C082E299E00E9445068091C4
:102FC00027038160EBCF84E199E0B2CF9091270392
:102FD000892F8B7F92FF84608093270382FF03C039
:102FE00085E099E0EACF85EF98E0A2CF90912703A2
:102FF000892F877F93FF88608093270383FF03C017
:1030000089EE98E0DACF8CED98E092CF86EF94E0ED
:103010008FCF0E946F20062FF72EE82ED92EC09159
:103020005F03C7FBCC27C0F910915E03D0910C0160
:103030000E946B1EDF92EF92FF920F931F92CF932D
:103040001F921F931F92DF931F928F9382E794E04A
:103050009F938F930E94DE068DB79EB70E960FB694
:10306000F8949EBF0FBE8DBF58CF0E947E0D9091E9
:103070005F03892F97FB87F9805880935F0387FF51
:1030800003C082ED98E054CF87EC98E051CF80E008
:103090000E94FB1642CF8953FBCF8D51F9CF85ECAF
:1030A00098E00E94450680E056CF80E008950C9499
:1030B0005518CF93C82F80912B03882331F081308E
:1030C00099F010922B0380E00DC00E9413128232FF
:1030D000D1F78C2F0E945518811119C08C2F0E9496
:1030E00013178170CF9108950E941312823289F3D1
:1030F0008C2F0E945718811119C0C431C9F050F4A7
:10310000CB3061F087E694E00E94450613C081E071
:1031100090E0E7CFC93261F0C833A1F78DEA95E0BE
:103120000E94450689E694E00E94450681E0D9CFD9
:1031300010922B0380E0D5CF83E290E00E94EC2830
:10314000813289F484E290E00E94EC28803159F4C5
:1031500085E290E00E94EC2891E0863109F090E051
:10316000892F8170089580E0FCCFCF93C82F6FEF37
:10317000811161E283E290E00E94FA286FEFC111B1
:1031800060E184E290E00E94FA286FEFC11166E1ED
:1031900085E290E0CF910C94FA28089586E290E0C1
:1031A0000E94EC28682F70E090E080E0089586E2AD
:1031B00090E00C94FA2880E00E94B51860E070E07E
:1031C000CB010E94D7180E94241A0E94101B81E094
:1031D0000C94B5180E94CD180E949C18811102C051
:1031E0000C94DB180895CF93FB01C281CC2309F125
:1031F0009C0122513F452031310520F582510E942A
:10320000201BC0E08C2FCF91089581E00E94F70D24
:1032100043E062E081E00E94AE08F3CF81E00E94CB
:10322000020E43E062E081E00E94AE08EBCF82E054
:10323000F6CF8031FFE59F0789F381319F45B9F3D0
:10324000C1E0E0CF8031EFE59E07F9F281319F4583
:10325000C9F682E0DBCF2FEFFC0120830895EF92C7
:10326000FF920F931F93CF93DF93EC01062FE8811A
:10327000E150E33108F05EC0F0E0E757F64D0C9402
:10328000DF28198289E08A83602FCE01DF91CF91F8
:103290001F910F91FF90EF900C943A218981823019
:1032A00069F0833071F08130D9F40E946F200E9460
:1032B000E5286A837B838C839D83E6CF0E94CE18AA
:1032C000F6CF7E0110E0812F0E945207F701928312
:1032D00083831F5FF2E0EF0EF11C1530A1F7D4CF0E
:1032E000602FCE010E942B19CFCF89818230C1F788
:1032F0006A817B818C819D810E94E5280E94D7187C
:10330000C3CF4B816A8189810E94F619982789274A
:1033100098279D838C83B8CF2C813D81322723272A
:1033200032274B816A8189810E940F1AADCF0E949A
:10333000241AAACF8FEF8883A7CF0E94B91A898356
:10334000A3CF0E94BB1A9827892798279A8389833D
:103350009BCF6B8170E089819A81AE014C5F5F4F9A
:103360009827892798270E94BE1A8ECF6B8170E01C
:1033700089819A81AE014C5F5F4F982789279827F2
:103380000E94E51A81CF0E94101B7ECF0E94E31994
:10339000D6CF6B8170E089819A81AE014C5F5F4F1F
:1033A0009827892798270E945C1A6ECF6B8170E05E
:1033B00089819A81AE014C5F5F4F982789279827B2
:1033C0000E94821A61CF84E0089590E2699FB00163
:1033D000112450E0440F551F640F751F90EA899F18
:1033E000600D711D1124CB01879608950F931F93D3
:1033F000CF93DF930E94E5198C010E94EC28C82F1F
:10340000D0E0DC2FCC27C80101960E94EC289E0159
:10341000282BC901DF91CF911F910F9108950F9330
:103420001F93CF93DF93122F032F0E94E519EC0116
:10343000602F0E94FA28612FCE010196DF91CF9173
:103440001F910F910C94FA28AF92BF92CF92DF9206
:10345000EF92FF921F93CF93DF9383EDC82E80E00E
:10346000D82ED0E07601C0E014C0F501259134914A
:10347000412F6C2F8D2F0E940F1A82E0A80EB11CD5
:103480001F5F103191F780E2E80EF11CCF5FC5306D
:1034900019F0570110E0E9CFDF5F80EAC80ED11CB8
:1034A000D43001F7DF91CF911F91FF90EF90DF9023
:1034B000CF90BF90AF900895EF92FF920F931F931C
:1034C000CF93DF93EC018A017C01E60EF71ECE015B
:1034D0008796CE15DF0539F4DF91CF911F910F91BB
:1034E000FF90EF900895C03822E0D20740F40E9488
:1034F000EC28F80180830F5F1F4F2196E8CFF80179
:103500001082F9CFCF92DF92EF92FF920F931F9329
:10351000CF93DF937C016A018C01060F171FEC012A
:10352000CE018796C017D10749F4DF91CF911F9143
:103530000F91FF90EF90DF90CF900895C03822E078
:10354000D20740F4FE01EE19FF09EC0DFD1D60816C
:103550000E94FA282196E4CF462F843038F4753043
:1035600028F4603118F4672F0C94F61990E080E08D
:10357000089580E1089589E591E00895EF92FF9222
:103580000F931F93CF93DF93EC018A017C01E60E2A
:10359000F71ECE0189559D4FCE15DF0539F4DF9119
:1035A000CF911F910F91FF90EF900895C93521E0C1
:1035B000D20740F40E94EC28F80180830F5F1F4F70
:1035C0002196E7CFF8011082F9CFCF92DF92EF92E8
:1035D000FF920F931F93CF93DF937C016A018C01BD
:1035E000060F171FEC01CE0189559D4FC017D1075B
:1035F00049F4DF91CF911F910F91FF90EF90DF90F1
:10360000CF900895C93521E0D20740F4FE01EE19AC
:10361000FF09EC0DFD1D60810E94FA282196E3CF81
:10362000CF93DF93C7EAD2E060E0CE010E94FA2890
:103630002196C11584E0D807B9F7DF91CF9108959D
:10364000DF92EF92FF920F931F93CF93DF9300D0FF
:1036500000D0CDB7DEB7F82E8FE08F1540F08FEF9A
:1036600093E00E94EC2807EA12E08823C1F00F9053
:103670000F900F900F90DF91CF911F910F91FF90BE
:10368000EF90DF900895011584E0180781F3C801D9
:103690000E94EC28811101C0FA940F5F1F4FF110B6
:1036A000F2CF19821A821B821C82DD24D394780106
:1036B0008FEFE81AF80AC8010E94EC2889831A8261
:1036C0008823A9F29FEF980F933078F48A83D982E8
:1036D0000E5F1F4FC7010E94EC288B83882339F2AD
:1036E000CE0101960E94150AE2CF8701F9CFCF9350
:1036F000DF93EC0197FF0CC0FB018281882341F02E
:103700000E94CA1BCE019F770E94241C0E94051CA8
:1037100081E0DF91CF9108958CE090E00E94EC2849
:10372000482F50E070E060E04093610350936203E3
:1037300060936303709364039091270390FF0CC020
:103740001F928F9388E999E09F938F930E94DE06E2
:103750000F900F900F900F900895609161038CE08F
:1037600090E00C94FA28809361030E94AD1B809135
:10377000270380FF0EC0809161031F928F9389E71A
:1037800099E09F938F930E94DE060F900F900F9009
:103790000F9008950E94771E86958170809366032E
:1037A00090916103913029F4882319F089E30E94F4
:1037B000300B0E941312809365030E9426128091A1
:1037C0006103813089F0882359F0823091F0843090
:1037D000B9F08FE39CE90197F1F700C0000008956C
:1037E00082EE0E94A60AF5CF88E193E00E94350898
:1037F000F0CF82EE0E94A60A87E50E94300BE9CF47
:1038000086EE0E94300B88E1F8CF80916103813011
:1038100071F0882341F0823031F0843099F080914A
:1038200065030C94231282EE0E94F10AF8CF8CE219
:103830000E94300B80916603882389F389E30E94FC
:10384000300BEDCF88E2FBCF0F931F93CF93DF9325
:103850008C01CCE0D0E0C8010C2E02C09695879573
:103860000A94E2F78F700E94180A2497CC3F8FEFDA
:10387000D80789F7DF91CF911F910F9108950F938A
:103880001F93CF93DF93EC018B01FB01828188238F
:1038900051F00E941312CE01815E9C458530910546
:1038A00010F40E94B31BB801CE01DF91CF911F919C
:1038B0000F910C94771B0F931F93CF93DF93C42F1B
:1038C000D22FFC0182818823C9F040932E030E94ED
:1038D000632090932D0380932C0380E28C0F88301B
:1038E00008F050C0C77081E001C0880FCA95EAF7A0
:1038F000DF91CF911F910F910C94380B10912E03F3
:10390000141335C080912C0390912D030E947B20CD
:10391000883C910560F5C0E2CD0F1D17B9F080E23B
:10392000810F883040F4177081E001C0880F1A952C
:10393000EAF70E943F0BC83048F481E09D2F977052
:1039400001C0880F9A95EAF70E94380B802F0E94D9
:10395000300BC830B8F4D77081E001C0880FDA9519
:10396000EAF7DF91CF911F910F910C943F0B80E20A
:103970008C0F883038F4C77081E001C0880FCA9579
:10398000EAF7EFCFDF91CF911F910F9108950F9339
:103990009C01CB01233F4CE5340759F1A8F4283DA5
:1039A000FCE53F0701F1293D4CE53407D1F1273D06
:1039B0003C4591F406E221EE41EE67ED7CE50E9484
:1039C0005B1C80E00F910895253FFCE53F07E9F07F
:1039D000B0F0263F3C45F9F0FC018281882339F1A3
:1039E00010922E03EFCF07E225EE45EE68ED7CE561
:1039F000E6CF06E221EE40EE63EF7CE5E0CF07E2A2
:103A000025EE44EE64EF7CE5DACF06E221EE42EEED
:103A100065EF7CE5D4CF07E225EE46EE66EF7CE568
:103A2000CECF08E221E045EE69ED7CE5C8CF81E02C
:103A3000C9CFCF93DF93EC01FB018281882309F486
:103A400019C1C230FCE5DF07C0F1C6319CE5D907DA
:103A500030F09E012A5F3C452930310570F50E9407
:103A60000C139093600380935F03C031ECE5DE0795
:103A700009F4CFC008F05BC0C8308CE5D80709F462
:103A8000B6C088F5C430ECE5DE0709F4A8C0C0F480
:103A9000C2308CE5D80709F49CC080915F03826036
:103AA000C330DC4509F498C080915F0390916003B6
:103AB0000E941A130E947E0D80E0DF91CF9108953D
:103AC00080915F038061C630ECE5DE0709F484C0B5
:103AD00080915F038860C730DC4508F47DC0809129
:103AE0005F03806279C0CC308CE5D80709F489C0C7
:103AF00070F480915F038C60CA30ECE5DE0709F456
:103B00006BC008F478C080915F038E7F65C0CE30B3
:103B10008CE5D80709F479C080915F038B7FCF30A3
:103B2000DC4508F459C080915F038F7E55C0CB3FC0
:103B3000ECE5DE0709F457C030F5C3318CE5D80752
:103B400009F46FC078F4C131ECE5DE0709F465C013
:103B5000C231DC4509F0A8CF0E947E0D80915F0341
:103B60008F773AC0C5318CE5D80709F462C008F4F4
:103B700076C0809160038160CA3FDC4509F094CF34
:103B80008093600391CFCF3FFCE5DF0709F44DC080
:103B900088F4809160038D7FCD3F9CE5D90781F348
:103BA000809160038E7FCE3FDC4550F380916003AF
:103BB0008360E6CFC130FDE5DF0709F459C008F4A2
:103BC00044C080E0C230DD4509F06ECF0E949F13F3
:103BD0006BCF80915F03816080935F0365CF80919D
:103BE0005F038460F9CF809160038260C9CF8091C8
:103BF0005F038064F1CF0E947E0D80915F03806837
:103C0000EBCF80915F038D7FE7CF80915F03877F4C
:103C1000E3CF80915F038F7DDFCF80915F038F7B48
:103C2000DBCF80915F03837FD7CF809160038C7F50
:103C3000A7CF80915F0382FB992790F921E092271B
:103C400090FB82F990FB83F9C7CF80916003982F96
:103C5000909591708E7F892B90FB81F991CF0E9476
:103C60007E0D90915F03892F97FB87F98058B4CF21
:103C700081E0ACCF81E021CFCF93DF93EB018631A0
:103C80009C4511F50E9413129A81992399F08A7A22
:103C900091E009F490E090932F03811109C089E22B
:103CA0000E9495110E94681280E0DF91CF910895E3
:103CB00085E3F6CF80912F03811104C089E20E9431
:103CC0009C11F0CF85E3FBCF81E0EFCF90933503DC
:103CD000809334030895E0913403F09135033097D5
:103CE00021F00190F081E02D099480E008950E9478
:103CF0006B1E0895EF92FF920F931F93CF93DF9364
:103D0000EC01E0913403F0913503309709F446C09B
:103D100080910C01882341F080915F0387FF04C0EC
:103D20008881898385E088830280F381E02DCE013C
:103D300009958091270382FF31C080FF04C080EC89
:103D400099E00E94450610E000E08AEBE82E89E049
:103D5000F82E8091270380FF0EC0FE01E00FF11FB7
:103D600080811F928F93FF92EF920E94DE060F9048
:103D70000F900F900F900F5F1F4F0830110549F7FC
:103D80008091270380FF0AC088EB99E0DF91CF91F3
:103D90001F910F91FF90EF900C944506DF91CF910A
:103DA0001F910F91FF90EF90089520913203309171
:103DB00033032817390771F090933303809332034C
:103DC000E0913403F0913503309721F00680F781BC
:103DD000E02D099408952091300330913103281784
:103DE000390771F09093310380933003E0913403ED
:103DF000F0913503309721F00084F185E02D09948E
:103E00000895FC01329680910C01882321F0809165
:103E10005F039EE187FF96E080E0915008F40895EB
:103E200021912223D1F38F5FF8CF662301F12091F6
:103E30000C012223F1F020915F0327FF1AC0462FC7
:103E40004695469546954E3190F4677021E030E0F6
:103E500002C0220F331F6A95E2F7840F911DFC0107
:103E6000828190E02823392381E0232B69F480E0CC
:103E70000895FC01329608962191261721F0E81743
:103E8000F907D1F7F4CF81E008959C01FC01329647
:103E90009FEF80E04191461751F09F3F19F4411187
:103EA00001C0982F8F5F8630A9F79F3F09F40895CE
:103EB000290F311D97FD3A95F90162830895FC01A0
:103EC000329608962191261303C0DF0111971C92A8
:103ED000E817F907B9F70895E62FE695E695E69510
:103EE000EE3170F4E80FF92FF11D677021E030E03A
:103EF00001C0220F6A95EAF78281822B828308959E
:103F00008091270380FF0CC01F926F9380EF99E090
:103F10009F938F930E94DE060F900F900F900F904B
:103F20000895E62FE695E695E695EE3178F4E80FEC
:103F3000F92FF11D677021E030E001C0220F6A9572
:103F4000EAF7209582812823228308958091270310
:103F500080FF0CC01F926F9382ED99E09F938F9327
:103F60000E94DE060F900F900F900F900895209101
:103F70000C01222329F020915F0327FD0C946C1F74
:103F80000C94451F20910C01222329F020915F03FE
:103F900027FD0C94911F0C945F1FFC0132968091B9
:103FA0000C01882351F080915F0387FF06C08EE1EA
:103FB000DF011D928A95E9F7089586E0F9CF08950B
:103FC000089508950C94E11F80916F03843049F1A6
:103FD0000E94E21F80E00E944F0A1092360388E19F
:103FE00090E020E40FB6F894A895809360000FBE8F
:103FF0002093600083B7817F846083BF83B7816033
:1040000083BF7894889583B78E7F83BF0FB6F8946B
:10401000A895809160008861809360001092600094
:104020000FBE08950895CF930E94E01F0E94F206EC
:104030000E941220C0E08C2F0E945207892B31F47D
:10404000CF5FC530C1F780E0CF91089581E0FCCF0C
:1040500008950C9428200E947E0D0E946B1E0E94E1
:104060004F0A0C9429201F921FB61F9211248F9380
:104070009F93AF93BF9380913603811113C08091BA
:10408000670390916803A0916903B0916A03419618
:10409000A11DB11D8093670390936803A0936903EA
:1040A000B0936A03BF91AF919F918F911F901FBEF4
:1040B0001F90189582E084BD93E095BD9AEF97BD5F
:1040C00080936E0008952FB7F894809167039091C4
:1040D0006803A0916903B0916A032FBF08952FB7B9
:1040E000F8946091670370916803809169039091DF
:1040F0006A032FBF08959C014FB7F894809167031E
:1041000090916803A0916903B0916A034FBF821B2D
:10411000930B089578941F921FB61F9211248F93CA
:104120009F93AF93BF938091670390916803A09191
:104130006903B0916A030196A11DB11D80936703C5
:1041400090936803A0936903B0936A03BF91AF9102
:104150009F918F911F901FBE1F90189587E797E73B
:10416000909301088093000888E19AE00FB6F894D4
:10417000A895809360000FBE90936000FFCF90934E
:10418000850180938401089580915D030895909145
:104190006F03943029F58093390370933B03609348
:1041A0003A039093E9008FEF9091E800815095FDDC
:1041B00006C095ED9A95F1F700008111F5CF809139
:1041C000E80085FF0DC050E040E063E070E089E367
:1041D00093E00E94F4238091E8008E778093E800BA
:1041E0000895BC0184E00C94C720BC0183E00C94CA
:1041F000C720CF93DF93EC0180910C018823B1F1AC
:1042000080915F0387FF32C060E284E08093E90021
:104210008FEF9091E800815095FD06C095ED9A953D
:10422000F1F700008111F5CF8091E80085FF1BC0F8
:1042300080910C0170E050E040E0811104C050E03A
:1042400040E068E070E0CE010E94F4238091E80035
:104250008E778093E80080E2FE01ADE3B3E0019049
:104260000D928A95E1F7DF91CF91089568E081E0A2
:10427000CDCF0895CF93FC01603221F580916F037B
:10428000843001F5C091E900CF702091EC00922FAD
:10429000917020FD90E8C92B82E08093E900809125
:1042A000E80080FF0CC050E040E060E270E0CF0129
:1042B0000E94F4238091E8008E778093E800CF700D
:1042C000C093E900CF91089583E39AE00E944506E8
:1042D00080916E03811109C00E94D3250E9430266F
:1042E0008091E20084608093E20008958FE29AE07A
:1042F0000E94450610926E0308958BE29AE00C949A
:10430000450687E29AE00C94450683E29AE00C9415
:104310004506209138032F5F822F62E30E94D32845
:10432000992319F02093380308951092380380914F
:104330003C038823F1F080916F038430C1F49091A5
:10434000E9009F702091EC00822F817020FD80E8B1
:10435000892B95E09093E9009091EB0090FF04C0C9
:104360009091EE0097FD08C08F708093E900109245
:104370003C0308951092F1009091E80095FDFACF6A
:104380009091E80090FFF0CF9091E8009E77909395
:10439000E800EACF42E061EC81E00E944F2542E272
:1043A00061EC84E00E944F2542E261EC82E00E94D1
:1043B0004F2542E260EC83E00E944F2542E261EC2F
:1043C00085E00C944F2580917103833009F461C01E
:1043D00030F48130D1F1823009F49DC008958A30E3
:1043E00009F489C08B3009F46FC0893009F050C0DE
:1043F00080917003813209F04BC0809174039091D9
:104400007503009719F0029709F042C08091E80007
:10441000877F8093E8008091E80082FF35C090910B
:10442000F3008091F200029729F48091F1008B7FD4
:10443000813021F48091F10080935D038091E80048
:104440008B778093E8000C94832580917003813AE8
:10445000F9F48091E800877F8093E80080917403ED
:1044600090917503892B61F460E28DE393E070E035
:104470000E9492248091E8008B778093E800089551
:1044800060E090E080E0F3CF80916F038111C3CFB3
:10449000089580917003813AD9F7809174039091C7
:1044A0007503892BA9F78091E800877F8093E80046
:1044B0008091E80080FFFCCF80910C018093F10097
:1044C0008091E8008E77BDCF80917003813201F733
:1044D0008091740390917503892BD1F68091E80047
:1044E000877F8093E8000E948325809172038093E8
:1044F0000C010C947E0D80917003813249F68091FD
:10450000E800877F8093E8000E94832580917303F1
:1045100080935E03089580917003813A09F0B8CFCB
:104520008091E800877F8093E8008091E80080FF19
:10453000FCCF80915E03C2CF9FB7F89410923C03EA
:104540009FBF90916F03943009F048C02091E9001B
:104550002F703091EC00932F917030FD90E8922BEA
:1045600025E02093E9002091EB0020FF34C020914A
:10457000EE0027FF30C020913703222321F0209145
:10458000E80025FF28C01092370326E03091E800AC
:1045900035FF14C08093F1008091E80085FD27C0AD
:1045A0008091E80080FFFCCF8091E8008E778093B7
:1045B000E8009F709093E90080E0089530916F03C8
:1045C000343049F43091EB0035FD05C0215041F401
:1045D00081E0809337039F709093E9008FEF0895F7
:1045E000EFE9FFE03197F1F700C00000CFCF8FB7C0
:1045F000F89421E020933C038FBFDBCF84B7877F03
:1046000084BF0FB6F894A89580916000886180936C
:104610006000109260000FBE80E890E00FB6F89442
:1046200080936100909361000FBE0C94C5130E94AB
:10463000D3250E943026E2EEF0E080818460808302
:1046400078940E94B8280E94D91382E091E00E94D9
:10465000661E82E19AE00C944506CF93DF93CDB7B6
:10466000DEB7A0970FB6F894DEBF0FBECDBF809126
:104670006F03853051F48EE09AE00E9445068091E8
:104680006F03853091F10E942B200E9409148091C4
:104690006F03843009F583E08093E9008091E8009E
:1046A00082FF1AC08091E80090E085FF09C050E0C9
:1046B00040E060E270E0CE0101960E94432491E068
:1046C0008091E8008B778093E800992329F060E2DD
:1046D000CE0101960E942F19A0960FB6F894DEBF66
:1046E0000FBECDBFDF91CF9108950E94E41F80914E
:1046F0006D03882321F20E941320882309F4BFCF81
:104700000E94DE230E947E0DBACF0C948723292FAE
:1047100033272330310521F168F42130310509F4C4
:1047200043C02230310509F444C090E080E030E01D
:1047300020E026C02132310551F122323105A9F79E
:104740006430710590F7FB01EE0FFF1FED58FE4F2F
:104750002081318161597E4FFB01808190E010C042
:1047600099278130910581F0009729F00297E9F6A9
:10477000E7E3FAE002C0EDE5FAE0849190E09F0102
:10478000FA01318320830895EDE4FAE0F6CF643036
:10479000710558F6660F771FFB01E558FE4F208123
:1047A000318189E090E0ECCF82E190E02CED3AE0BD
:1047B000E7CF8BE790E021E63AE0E2CF80E189BDE8
:1047C00082E189BD09B400FEFDCF8091D8008F7DC4
:1047D0008093D8008091E00082608093E000809117
:1047E000E00081FDFCCF0895AF92BF92CF92DF929F
:1047F000FF920F931F93CF93DF936C01EB018A011C
:104800000E94A225F82E811123C00115110539F04F
:10481000F80180819181C81BD90BC80ED91EB12C1B
:10482000A12C2097A9F08091E80085FD22C08091FD
:10483000E8008E778093E80001151105A1F0F801DA
:1048400080819181A80EB91EB182A08285E0F82EE8
:104850008F2DDF91CF911F910F91FF90DF90CF901F
:10486000BF90AF9008950E94A2258823D1F2F82E20
:10487000EFCFF60181916F018093F1002197FFEF57
:10488000AF1ABF0ACECFAF92BF92CF92DF92FF9204
:104890000F931F93CF93DF936C01EB018A010E946A
:1048A000A225F82E811123C00115110539F0F80158
:1048B00080819181C81BD90BC80ED91EB12CA12CA7
:1048C0002097A9F08091E80085FD22C08091E80042
:1048D0008B778093E80001151105A1F0F801808124
:1048E0009181A80EB91EB182A08285E0F82E8F2D8D
:1048F000DF91CF911F910F91FF90DF90CF90BF90EC
:10490000AF9008950E94A2258823D1F2F82EEFCF10
:104910008091F100F60181936F012197FFEFAF1AAB
:10492000BF0ACECFFC018091760390917703861762
:104930009707A0F06115710529F49091E8009E7722
:104940009093E80090E06115710551F4911108C051
:104950008091E80082FF34C080E00895BC01F2CF6E
:1049600080916F038823C1F18530C1F18091E80007
:1049700083FD30C08091E80082FDEACF8091E8009D
:1049800080FFE1CF8091F3002091F200382F611574
:10499000710519F02830310558F091E028303105C3
:1049A00009F090E02091E8002E772093E800CBCF2B
:1049B00081918093F100615071092F5F3F4FE7CFE4
:1049C00080916F03882341F0853041F08091E800A9
:1049D00083FFBECF81E0089582E0089583E00895CB
:1049E000FC01809176039091770386179707A0F0DA
:1049F0006115710529F48091E8008E778093E800B5
:104A000090E06115710551F4911108C08091E800A2
:104A100082FF35C080E00895BC01F2CF80916F0322
:104A20008823C9F18530C9F18091E80083FD31C048
:104A30008091E80082FDEACF8091E80080FFE1CF1D
:104A40008091F3002091F200382F6115710519F063
:104A50002830310558F091E02830310509F090E018
:104A60008091E8008E778093E800CBCF849180938B
:104A7000F1003196615071092F5F3F4FE6CF809171
:104A80006F03882341F0853041F08091E80083FF77
:104A9000BDCF81E0089582E0089583E00895982FC6
:104AA000973028F08F708093E90081E0089590930B
:104AB000E900242F762F50E0981731F07091EC0028
:104AC0002091ED005091F00021FD02C09F5FE8CFE2
:104AD0003091EB003E7F3093EB003091ED003D7F55
:104AE0003093ED003091EB0031603093EB00709328
:104AF000EC002093ED005093F0002091EE0027FD94
:104B0000E5CF80E008958091700387FF13C0809106
:104B1000E80082FF06C08091E8008B778093E80070
:104B200004C080916F038111F2CF089580916F03CB
:104B30008823D9F38091E80080FFF8CF8091E800C6
:104B40008E77ECCF2091E4003091E50095E6A90145
:104B50002091EC00822F817020FF06C08091E80038
:104B600080FF06C080E008952091E80022FD1AC071
:104B700080916F03882389F0853089F08091EB0064
:104B800085FD0FC02091E4003091E50042175307E6
:104B9000F9F29150E1F684E0089582E0089583E00F
:104BA000089581E008950E9441260E944926E0EE82
:104BB000F0E0808181608083E8EDF0E080818F7794
:104BC000808319BCA7EDB0E08C918E7F8C9380819F
:104BD0008F7E808310926E0308950F931F93CF935F
:104BE000DF930E9441260E944926C8EDD0E08881CB
:104BF0008F77888388818068888388818F7D888388
:104C000019BC10926F0310926B0310926D031092F7
:104C10006C0300EE10E0F80180818B7F8083888137
:104C20008160888342E060E080E00E944F25E1EEF1
:104C3000F0E080818E7F8083E2EEF0E08081816011
:104C40008083808188608083F80180818E7F80836B
:104C5000888180618883DF91CF911F910F910895A2
:104C6000E8EDF0E080818F7E8083E7EDF0E08081E9
:104C70008160808384E082BF81E080936E030C9426
:104C8000ED25E8EDF0E080818E7F80831092E200D8
:104C900008951092DA001092E10008951F920F9289
:104CA0000FB60F9211242F933F934F935F936F93FF
:104CB0007F938F939F93AF93BF93EF93FF938091D5
:104CC000E10082FF0BC08091E20082FF07C080916B
:104CD000E1008B7F8093E1000E9489218091DA00BE
:104CE00080FF19C08091D80080FF15C08091DA0044
:104CF0008E7F8093DA008091D90080FF96C080E19A
:104D000089BD82E189BD09B400FEFDCF81E08093B9
:104D10006F030E9464218091E10080FF19C080919F
:104D2000E20080FF15C08091E2008E7F8093E20058
:104D30008091E20080618093E2008091D8008062DF
:104D40008093D80019BC85E080936F030E94812175
:104D50008091E10084FF2BC08091E20084FF27C096
:104D600080E189BD82E189BD89B5982F917080FF6E
:104D7000FBCF8091D8008F7D8093D8008091E10097
:104D80008F7E8093E1008091E2008F7E8093E2002D
:104D90008091E20081608093E20080916B03882320
:104DA00009F449C084E080936F030E9485218091BB
:104DB000E10083FF29C08091E20083FF25C080913C
:104DC000E100877F8093E10082E080936F0310927F
:104DD0006B038091E1008E7F8093E1008091E2007F
:104DE0008E7F8093E2008091E20080618093E200F8
:104DF00042E060E080E00E944F258091F0008860F2
:104E00008093F0000E947D21FF91EF91BF91AF91BF
:104E10009F918F917F916F915F914F913F912F91D2
:104E20000F900FBE0F901F90189519BC10926F0332
:104E30000E94762170CF8091E30087FD93E09093EC
:104E40006F03B3CF1F920F920FB60F9211242F93BF
:104E50003F934F935F936F937F938F939F93AF9302
:104E6000BF93CF93DF93EF93FF93D091E900DF706F
:104E70008091EC00C82FC17080FDC0E81092E9005D
:104E80008091F000877F8093F00078940E946627DD
:104E90001092E9008091F00088608093F000CD2BA3
:104EA000CF70C093E900FF91EF91DF91CF91BF9157
:104EB000AF919F918F917F916F915F914F913F91B2
:104EC0002F910F900FBE0F901F9018951F93CF93A7
:104ED000DF93CDB7DEB7AA970FB6F894DEBF0FBE4B
:104EE000CDBF80E793E02091F100FC012193CF0139
:104EF000F3E088379F07B9F70E94E3218091E8002B
:104F000083FF1EC180917003909171039A3008F065
:104F100017C1E92FF0E0E456F64D0C94DF288038F5
:104F200099F0823809F00CC1809174038F7087303A
:104F300008F006C18093E9008091EB0085FB88278B
:104F400080F91092E90006C080916C0390916D0386
:104F5000911182609091E800977F9093E800809390
:104F6000F1001092F1008091E8008E77E5C088236F
:104F700009F4D3C0823009F0E3C08091720381113B
:104F8000D6C0809174038F702FEF280F263008F061
:104F9000D7C08093E9002091EB0020FFC8C0933078
:104FA00031F48091EB0080628093EB00C0C090915F
:104FB000EB0090619093EB0021E030E001C0220F04
:104FC0008A95EAF72093EA001092EA008091EB00BC
:104FD0008860EACF8111B4C0109172031F7780916D
:104FE000E3008078812B8093E3008091E800877F45
:104FF0008093E8000E9483258091E80080FFFCCF29
:105000008091E30080688093E30082E0111183E0E7
:1050100080936F0395C08058823008F091C08091D2
:105020007203909173038C3D23E09207A1F583E016
:105030008A838AE289834FB7F894DE01139620E0D1
:105040003EE051E2E32FF0E050935700E49120FF5F
:1050500003C0E295EF703F5FEF708E2F90E0EA3073
:10506000C0F0C7968D939D932F5F243159F74FBFA2
:105070008091E800877F8093E8006AE270E0CE01CB
:1050800001960E9492248091E8008B778093E8003B
:1050900057C0C096E7CF6091740370917503AE015D
:1050A0004F5F5F4F0E948523BC01892B09F448C0E4
:1050B0009091E800977F9093E80089819A810E94FF
:1050C000F024E1CF8038E1F58091E800877F80937C
:1050D000E80080916B038093F10045CF811130C0CF
:1050E00090917203923060F58091E800877F809301
:1050F000E80090936B030E94832580916B038823C3
:1051000011F084E005C08091E30087FDFACF81E0D3
:1051100080936F030E94CA2113C080917203813073
:1051200079F481E0933009F080E080936D03109270
:10513000E9008091E800877F8093E8000E94832542
:105140008091E80083FF0AC08091E800877F809308
:10515000E8008091EB0080628093EB00AA960FB686
:10516000F894DEBF0FBECDBFDF91CF911F910895A0
:10517000CF9380916F038823A1F0C091E900CF7095
:105180009091EC00892F817090FD80E8C82B1092DF
:10519000E9008091E80083FD0E946627CF70C093EC
:1051A000E900CF910895991B79E004C0991F9617E3
:1051B00008F0961B881F7A95C9F780950895EE0F21
:1051C000FF1F0590F491E02D099469279627692720
:1051D0007827872778270895F999FECF92BD81BD5A
:1051E000F89A992780B50895A8E1B0E042E050E030
:1051F0000C942029262FF999FECF92BD81BDF89AF3
:10520000019700B4021639F01FBA20BD0FB6F8940A
:10521000FA9AF99A0FBE08950396272F0E94FB2849
:105220000E94FA28252F0E94FB28242F0C94FB288B
:105230000196272F0E94FB280C94FA28DC01CB0151
:10524000FC01F999FECF06C0F2BDE1BDF89A319696
:1052500000B40D9241505040B8F70895F894FFCF34
:105260007D0B7D0BD50BD50B270CAA0BAA0BAA0B1C
:10527000430CAA0CB90CB90C8D0D8D0D960D960D25
:10528000980D960D960D960D8D0D8D0D9D0D960D0F
:10529000960D9D0DB3179B17BA1724174F184F186B
:1052A00096174F184F18E6174F18F61735184F185E
:1052B0004F184F184F1809184F184F1806184F1845
:1052C000D1174F184F184D184D184D184D184D182F
:1052D0004D184D184D184D1847184F18B3178F1704
:1052E0004F184F184F184F184F184F184F184F1886
:1052F0004F184F1847184F184F1896174F184B183C
:105300004B184B184B184B184B184B184B184B1885
:10531000471841194E19751981198C1997199A193D
:105320009A199A199A199A199D19A119A919B619B0
:10533000C319C619C919D6198F27B727A028B727A7
:0C534000A028EA270B28A02862286E286D
:10534C00F102C420F9203921F520F12001E200E915
:10535C0000EA00B500B600B700CD008301CC008A8E
:10536C000192019401210223022402250226022724
:10537C00022A02B300B4006F007000818283E20045
:10538C00E900EA00B500B600B700CD008301CC00FF
:10539C008A01920194012102230224022502260291
:1053AC0027022A02B300B4006F0070008182834090
:1053BC00226D229F0B100B320BEE0A730A8C0AAC77
:0453CC000AC50A0004
:00000001FF
