:100000000C94ED030C9434040C9434040C943404D8
:100010000C9434040C9434040C9434040C94340480
:100020000C9434040C9434040C94E4240C94A02414
:100030000C94E1250C9434040C9434040C94340492
:100040000C9434040C9434040C9434040C94340450
:100050000C9434040C94BD250C9434040C94340496
:100060000C9434040C9434040C9434040C94340430
:100070000C9434040C9434040C9434040C94340420
:100080000C9434040C9434040C9434040C94340410
:100090000C9434040C9434040C9434040C94340400
:1000A0000C9434040C9434040C94340400000000C8
:1000B0000000000000000000000000000000000040
:1000C0000000000000000000000000000000000030
:1000D0007E0F00D4FFFFFFC7000000780000000083
:1000E000000000002A2B2800000000000000000093
:1000F0000000000000000029000000002C1E342039
:10010000212224342627252E362D3738271E1F205E
:100110002122232425263333362E37381F040506A3
:100120000708090A0B0C0D0E0F10111213141516E7
:100130001718191A1B1C1D2F3130232D35040506E5
:100140000708090A0B0C0D0E0F10111213141516C7
:100150001718191A1B1C1D2F3130354C3C2D003D32
:100160003E002D3E00E9000000C9000000E800004C
:1001700000C8000000EA000000CA000000EB000018
:1001800000CB000000E2000000C2000000E0000020
:1001900000C0000000E7000000C7000000EE000003
:1001A00000CE000000AC2000003F0E0000A90000BF
:1001B00000AE000000C9030000A9030000F4000025
:1001C00000D4000000F9000000D900000053010035
:1001D0000052010000C0030000B0000000F1000068
:1001E00000D1000000B5000000C30300006422003D
:1001F0000065220000AB000000BB00000060220090
:1002000000482200001E22000029003B003D003F64
:1002100000410000004400AE0047003A003C003EB0
:100220000040004200430045004600480035001FE2
:100230000021002300250027002E002A004A001E6E
:100240000020002200240026002D00000049004B61
:10025000002B001A0015001C000C001300300000D9
:10026000004D00140008001700180012002F003184
:10027000004C004E002961160009000B000E0033EF
:1002800000000000000000040007000A000D000F3D
:10029000003400280000000000E1001D00060005F9
:1002A0000010003700E1000000520000001B0019A0
:1002B00000110036003800000000000000E200E3FA
:1002C00000000000000000000000000000510000DD
:1002D00000000000002C420000E600115050004FCA
:1002E0000029003B003D003F00410000004400AEFB
:1002F0000047003A003C003E0040004200430045F9
:10030000004600480035001F00210023002500277B
:10031000002E002A004A001E002000220024002691
:10032000002D00000049004B002B001A0015001C96
:10033000000C001300300000004D001400080017EE
:1003400000180012002F0031004C004E00296116E9
:100350000009000B000E0033000000000000000444
:100360000007000A000D000F003400280000000004
:1003700000E1001D000600050010003700E100004C
:1003800000520000001B0019001100360038000068
:1003900000000000000251E2000000000000000028
:1003A000000000000051000000000000002C42008E
:1003B00000E700105050004F00005C0100010001F8
:1003C0000001000000010001000100010001000126
:1003D0000001000100010001000100C35C010001F7
:1003E0000001000100010001000100010001000105
:1003F00000010001000100010001000000010001F6
:1004000000E05C0100028001000E8001000100009C
:1004100000010001000080048018801680010001A6
:100420000001000100010001000100500052000124
:10043000000000000000000A802A00010051004F67
:10044000000100010000000000010001000C80011B
:10045000000100A65DE500000001000000010001B0
:100460000001000100A85D00000000000001000183
:10047000000000000000000000000000000100007B
:1004800000000000000100000001000100AC00AB12
:100490000000047F3F1F643214643214783C1E1E37
:1004A000140A05000101010101010101010202021A
:1004B0000202020202020303030303030303040410
:1004C00004040404040505050505060606060607DA
:1004D0000707070708080808090909090A0A0A0B93
:1004E0000B0B0C0C0C0D0D0D0E0E0E0F0F0F101034
:1004F00011111112121313141415151616171718BB
:100500001819191A1A1B1B1C1D1D1E1E1F20202125
:100510002222232424252626272829292A2B2C2D6C
:100520002D2E2F30313232333435363738393A3B8D
:100530003C3D3E3F404142434445464748494A4C82
:100540004D4E4F50515354555658595A5B5D5E5F4E
:10055000616264656668696B6C6D6F7072737577E4
:10056000787A7B7D7E8082838587888A8C8E8F9146
:10057000939596989A9C9EA0A2A3A5A7A9ABADAF70
:10058000B1B3B5B7BABCBEC0C2C4C6C9CBCDCFD15A
:10059000D4D6D8DBDDDFE2E4E7E9EBEEF0F3F5F803
:1005A000FAFDFFFFAA7F55402223252628292A2C61
:1005B0002D2F3032333536383A3B3D3E40424345AD
:1005C00047494A4C4E5051535557595A5C5E6062E8
:1005D000646668696B6D6F71737577797B7D7F81F8
:1005E000838587898A8C8E90929496989A9C9E9FF8
:1005F000A1A3A5A7A8AAACAEAFB1B3B4B6B8B9BB16
:10060000BCBEBFC1C2C3C5C6C7C9CACBCCCDCED084
:10061000D1D2D2D3D4D5D6D7D7D8D9D9DADADBDB71
:10062000DBDCDCDCDCDCDDDDDDDDDCDCDCDCDCDB08
:10063000DBDBDADAD9D9D8D7D7D6D5D4D3D2D2D151
:10064000D0CECDCCCBCAC9C7C6C5C3C2C1BFBEBC44
:10065000BBB9B8B6B4B3B1AFAEACAAA8A7A5A3A1B5
:100660009F9E9C9A98969492908E8C8A8987858377
:10067000817F7D7B79777573716F6D6B6968666457
:1006800062605E5C5A5957555351504E4C4A494727
:10069000454342403E3D3B3A3836353332302F2DCC
:1006A0002C2A29282625232205010980A10185035A
:1006B00019012AB700150126B700950175108100B0
:1006C000C0050C0901A101850419012AA002150128
:1006D00026A002950175108100C005010906A1013F
:1006E0008506050719E029E715002501950875011C
:1006F00081020507190029EF1500250195F0750104
:1007000081020508190129059505750191029501D8
:1007100075039101C005010906A101050719E0292A
:10072000E71500250195087501810295017508817D
:10073000010507190029FF150026FF009506750819
:10074000810005081901290595057501910295019A
:1007500075039101C009023B00020100A0FA0904DF
:1007600000000103010100092111010001224000E4
:100770000705810308000A090401000103000000C5
:10078000092111010001226D000705820320000AE2
:100790001201000200000008D804A2EC01000102CE
:1007A00000010803680038003800000028036800D2
:1007B00069006E00650079006200750073006800D2
:1007C00020006B006500790062006F00610072001C
:1007D0006400730000000403090411241FBECFEF5E
:1007E000DAE0DEBFCDBF04B603FE27C080918803E8
:1007F00090918903A0918A03B0918B038730904B2D
:10080000A740B04BD1F41092880310928903109244
:100810008A0310928B0314BE84B7877F84BF0FB600
:10082000F894A89580916000886180936000109290
:1008300060000FBEE0E0F8E3099511E0A0E0B1E050
:10084000E4EAF6E502C005900D92AC3DB107D9F798
:1008500023E0ACEDB1E001C01D92A838B207E1F78A
:100860000E9408260C942C2B0C940000E8EDF0E07C
:1008700080818E7F80831092E2001092DA001092C5
:10088000E100A0EEB0E08C9181608C9380818F7745
:10089000808319BCA7EDB0E08C918E7F8C93808112
:1008A0008F7E808310924F0308952091E400309151
:1008B000E50095E6A9012091EC00822F817020FFD0
:1008C00006C08091E80080FF06C080E00895209176
:1008D000E80022FD1AC080917403882389F08530D6
:1008E00089F08091EB0085FD0FC02091E4003091EC
:1008F000E50042175307F9F29150E1F684E00895BC
:1009000082E0089583E0089581E00895EF92FF92D8
:100910000F931F93CF937C018B010E945504C82F26
:10092000811117C08091E80085FD0BC08091E8001F
:100930008E778093E8000E945504882399F3C82F8E
:1009400008C0F70181917F018093F10001501109E6
:1009500049F78C2FCF911F910F91FF90EF90089541
:100960008091760387FF13C08091E80082FF06C064
:100970008091E8008B778093E80004C08091740335
:100980008111F2CF0895809174038823D9F3809167
:10099000E80080FFF8CF8091E8008E77ECCF982FA9
:1009A0009093E900242F762F50E0891731F0709151
:1009B000EC002091ED005091F00021FD07C09F5FF9
:1009C000973071F78093E90081E008953091EB0052
:1009D0003E7F3093EB003091ED003D7F3093ED0092
:1009E0003091EB0031603093EB007093EC0020937A
:1009F000ED005093F0002091EE0027FDE0CF80E065
:100A00000895CF92DF92EF92FF920F931F93CF93AF
:100A1000DF93C8EDD0E088818F7E8883E7EDF0E03A
:100A200080818160808384E082BF81E080934F0376
:100A300088818E7F888302EE10E0F8011082109288
:100A4000DA0081EEC82ED12CF601108288818F77D2
:100A5000888388818068888388818F7D888319BC9A
:100A60001092740310927503109273031092720324
:100A700090EEE92EF12CF70180818B7F80838881B5
:100A80008160888342E060E080E00E94CF04F6014C
:100A900080818E7F8083F801808181608083808166
:100AA00088608083F70180818E7F80838881806168
:100AB0008883DF91CF911F910F91FF90EF90DF908E
:100AC000CF900895FC0180917C0390917D0386175F
:100AD0009707A0F06115710529F49091E8009E77C1
:100AE0009093E80090E06115710551F4911108C0F0
:100AF0008091E80082FF34C080E00895BC01F2CF0D
:100B0000809174038823C1F18530C1F18091E800A0
:100B100083FD30C08091E80082FDEACF8091E8003B
:100B200080FFE1CF8091F3002091F200382F611512
:100B3000710519F02830310558F091E02830310561
:100B400009F090E02091E8002E772093E800CBCFC9
:100B500081918093F100615071092F5F3F4FE7CF82
:100B600080917403882341F0853041F08091E80042
:100B700083FFBECF81E0089582E0089583E0089569
:100B80000895089508958091510308959C014FB7E9
:100B9000F8948091480390914903A0914A03B09141
:100BA0004B034FBF821B930B08952FB7F89480918E
:100BB000480390914903A0914A03B0914B032FBF82
:100BC000089520914503309146032817390771F0A5
:100BD0009093460380934503E0914303F0914403CF
:100BE000309721F00084F185E02D0994089520913B
:100BF0004103309142032817390771F09093420363
:100C000080934103E0914303F0914403309721F036
:100C10000680F781E02D09940895E0914303F09157
:100C20004403309721F00190F081E02D099480E099
:100C300008958F929F92AF92BF92EF92FF920F937F
:100C40001F93CF93DF938430B8F5811136C0909114
:100C50008000977F909380002F98A0918600B0919C
:100C60008700282F30E00E946A2923E030E040E02E
:100C700050E00E943A2989019A0180918600909162
:100C800087006CE070E00E94122960177107D8F0AD
:100C9000C80169E070E00E94122970938D00609392
:100CA0008C00DF91CF911F910F91FF90EF90BF903B
:100CB000AF909F908F90089583E09091800098600E
:100CC00090938000CACF8091860090918700E09039
:100CD0008600F0908700E0918600F0918700C6E0E2
:100CE000D0E0BE010E941229060F171F211D311DE1
:100CF0004801590185E0880C991CAA1CBB1C8A95E7
:100D0000D1F7C701BE010E9412299F0150E040E0C7
:100D1000260F371F411D511DC501B4010E943A29FC
:100D200049015A01E0918600F0918700CA01B9019A
:100D30000E94F4289B01AC01DF010E9480299B01E5
:100D4000AC01C501B4010E94F4282FE09695879567
:100D5000779567952A95D1F70091860010918700C5
:100D600030E020E0061717072807390708F095CF6D
:100D7000609186007091870090CFFA01811101C0C7
:100D8000FB01099480913203982F9E7F29F4817092
:100D900082608093320308958A34E8F38170886416
:100DA000F8CFAF92BF92DF92EF92FF920F931F9313
:100DB000CF93DF93082F162FE901E42FF0E0ED55D4
:100DC000FB4F611110C0E4915E2F4E2F4983E883E1
:100DD0005A83DF91CF911F910F91FF90EF90DF9099
:100DE000BF90AF900895E62EF12C4491D42EE42FBD
:100DF000F0E026E0829FC00111242FEF30E0B9011E
:100E00000E941229802F90E0880F991F55E5569F68
:100E1000D001579FB00D11248A1B9B0B982F990F5F
:100E2000890F5901AE18BF08AE9ED001AF9EB00D1C
:100E3000BE9EB00D11245B2F189F80011124012F3D
:100E400011275901A01AB10AAE9E8001AF9E100D64
:100E5000BE9E100D11245901A81AB108AE9CC00104
:100E6000AF9C900DBE9C900D1124892F9927281BB3
:100E7000390B2E9FC0012F9F900D3E9F900D112486
:100E8000E92F62307105A1F050F46115710509F484
:100E90009DCF6130710581F0EB2F512F97CF6430DA
:100EA000710569F080F06630710509F48FCFF4CFD9
:100EB000E42F4B2F592F8ACFE42F412F87CFEB2FD1
:100EC000542F492F83CF4B2F5D2DE12F7FCF80E013
:100ED0000895F894E82FE295EF70F0E031A1282F03
:100EE0002F7081E090E001C0880F2A95EAF7982FD3
:100EF0009095932391A392A1892B82A3789408952E
:100F00009091820392FF06C0282F28712830F9F4AF
:100F1000877F846093FF06C0282F28712831F1F461
:100F2000877E84612091830320FF06C0382F3871AB
:100F30003830D9F4877F816021FF06C0282F2871BF
:100F40002831D1F4877E816194FD877E0895282F12
:100F500024712430F9F68B7F8860DCCF282F247130
:100F6000243101F78B7E8861DDCF382F317131302C
:100F700019F78E7F8860E0CF282F2171213121F76A
:100F80008E7E8861E1CFCF93DF93EC0182389105AB
:100F9000A9F1D8F58133910509F496C048F5893255
:100FA000910509F48AC08A9709F495C0C11522E514
:100FB000D20708F0B6C0C11531E5D30708F026C145
:100FC000C83ED10508F09CC0C03ED10560F5C83AC6
:100FD000D10508F087C0C53AD10508F0EFC0C1308F
:100FE000D10509F12097F9F0C430D105E0F440C0F3
:100FF0008533910509F45AC0C997C1F680918203DF
:10100000837089F0C0EED0E00EC0833E910599F167
:1010100070F4803E910501F1823E910539F6809190
:10102000820382FD21C0CE01DF91CF910895863EDB
:10103000910561F1873E910571F1843E910509F0BA
:10104000B5CF8091830381FFEECF80918203C7EEFD
:10105000D0E084FD0DC0E7CF8091820380FD07C101
:101060009091830390FFDFCFC3EED0E084FFDBCF0E
:10107000D0E0C0E0D8CF8091820382FDFBC0909188
:10108000830390FDBFCF84FFCECFF2CF8091820348
:1010900083FDDDCFC8CF8091820383FDEEC09091A8
:1010A000830391FFF0CFC4EED0E0BDCF80918203E7
:1010B00085FFB9CFC9E2D0E0B6CF8091820385FF2A
:1010C000B2CFC5E3D0E0AFCF8091820386FFABCF34
:1010D000CAE2D0E0A8CF8091820386FFA4CFC1E30B
:1010E000D0E0A1CFCF3BD10518F6C85AD0E0CC0F45
:1010F000DD1FCE58DE4F0990D881C02DD46493CF28
:10110000C11540E5D40708F064C0C11580E4D807D4
:1011100008F05CC0CE019A9581159F4108F483CFF9
:10112000A7CFC11536E5D30718F5C11545E5D40796
:1011300008F084C0C11584E5D80708F07AC09C2F58
:10114000969596959E0123703327C115D34508F4D3
:1011500062C0C1E0D0E002C0CC0FDD1F2A95E2F7EB
:1011600030E2939FC0011124C82BD92BDA685BCFE2
:10117000C1158AE5D80778F4C11599E5D90708F0B3
:1011800068C0C11528E5D20708F472CFDC2FCC2740
:10119000C06FD06A48CFCE0190568115904208F0BA
:1011A00067CF8D2F8F710E94800790E0982F88273E
:1011B00088279F719C012C2BE90149C0C55AD0E0BA
:1011C000C159DE4FC881D0E0D0642DCFDF70D06A26
:1011D0002ACFCE01E4E096958795EA95E1F78370F2
:1011E0002C2F26952695237040E2249F90011124F0
:1011F000382B8C2F8370C1E0D0E002C0CC0FDD1FF4
:101200008A95E2F7C22BD32BDC680DCFDC2FCC27DD
:10121000C16FD06A08CFC1E0D0E002C0CC0FDD1FA3
:101220002A95E2F720E2929FC0011124C82BD92B06
:10123000EBCFDC2FCC27C46FD06AF5CE8C2F0E9469
:101240008007C82FD0E0DC2FCC27CC27DF71D062FD
:10125000EACE8C2F8F700E94800734E0D695C79518
:101260003A95E1F7CF709C2FEC01D069DCCEC9E351
:10127000D0E0D9CEC2EED0E0D6CEC6EED0E0D3CE0E
:10128000809183028111109283020895809590913C
:101290003F03982390933F030895809590914003D6
:1012A00098239093400308958091400390913F03C9
:1012B000892B90918202892B8093DE019091830289
:1012C0009923A1F0892B8093DE0180916E01882300
:1012D00041F18091820387FF24C08EE1E0EEF1E0CE
:1012E00090E0815000F591110E944009E091430384
:1012F000F09144033097E1F080916E01882359F01A
:101300008091820387FF07C08091DE018093DF0117
:1013100086E08093DE010280F381E02D8EED91E086
:10132000099486E0DBCF21912223D9F29F5FD9CFA8
:101330000895CF93DF93EC0181E0898B8091400386
:101340009F81892B8093400380913F039885892B4F
:1013500080933F030E945409EA81FB81309739F062
:101360006C897D89CE010696DF91CF910994DF913A
:10137000CF910895EF92FF920F931F93CF93DF9336
:10138000EC018A85811134C0EB80FC8087E5F81A76
:1013900026E12E9DC0012F9D900D1124DC01A45D3E
:1013A000BE4F1496ED91FC911597309731F05496FD
:1013B0006D917C918E5C9E4F099586E18E9D80019A
:1013C0008F9D100D1124045D1E4FF80187810E942E
:1013D0004D09F80180850E9446090E94540918822F
:1013E00019861B861E821D8210923E0310923D03B9
:1013F000DF91CF911F910F91FF90EF900895909101
:101400006E019923D1F09091820397FF16C0E82FC7
:10141000E695E695E695EE31E0F4F0E0E252FE4F17
:10142000282F277081E090E001C0880F2A95EAF705
:1014300080959281892382830895E0EEF1E0919175
:10144000891303C0DF0111971C9291E0E63EF90772
:10145000B1F7089590916E019923C1F090918203A4
:1014600097FF14C0E82FE695E695E695EE31F8F47F
:10147000F0E0E252FE4F877021E030E001C0220F21
:101480008A95EAF78281822B82830895A0EEB1E0EB
:10149000EFEF90E02D91821751F0EF3F19F42111F9
:1014A00001C0E92F9F5F9630A9F7EF3F09F4089537
:1014B0000E2E000CFF0BE252FE4FE6CF2091810270
:1014C0009091500256E0291302C080E0089530E068
:1014D000529FF001539FF00D1124EF5AFD4F71817F
:1014E000761306C07081781303C07281741304C030
:1014F0002F5F3F4F2770E7CF81E0089580918102F1
:1015000090915002981301C008958F5F8770FACFB1
:10151000AF92BF92CF92DF92EF92FF920F931F9301
:10152000CF93DF93C0908E02D0908F02E090900214
:10153000F090910240918402509185026091860260
:1015400070918702C42AD52AE62AF72ACFE1D0E093
:10155000082F10E029E0929F000D111D11249CE638
:10156000A92EBC2ED701C6010C2E04C0B695A79596
:10157000979587950A94D2F780FD0FC0219788F739
:10158000B12C8B2DDF91CF911F910F91FF90EF9098
:10159000DF90CF90BF90AF900895AC9EF001AD9ECC
:1015A000F00D1124E00FF11FEE0FFF1FE75FFD4F5D
:1015B000859194910E94C307019701F3E2CFCF93E5
:1015C000DF93EC010E94880AEC2FF0E099E0D99FAC
:1015D000E00DF11D11249CE6899FE00DF11D112401
:1015E000EE0FFF1FE75FFD4F85919491DF91CF9143
:1015F0000C94C30729E0929F800D1124982F9770B7
:1016000086958695869525E0829FF0011124EC5FF2
:10161000FD4F50E040E080E0219130E0092E02C013
:10162000369527950A94E2F721703327042E01C0DE
:10163000220F0A94EAF7822B4F5F5F4F4530510526
:1016400059F7089529E0929F800D1124982F9770E3
:1016500041E001C0440F9A95EAF7869586958695F4
:1016600095E0899FF0011124EC5FFD4F90E080E050
:1016700070E05191DF0111979B01082E02C0369551
:1016800027950A94E2F72170219525272423252701
:101690002C9301968530910561F70895FC018081B6
:1016A00091810E94DF0A292F2F7092959F7092508E
:1016B0009E3078F4E92FF0E0E25DF44D0C945C2963
:1016C000803F19F020F4883E20F481E00895843FA3
:1016D000E1F380E00895883EC0F3813FD1F7F5CF74
:1016E000822F869586958695089590E080E00E94E9
:1016F000F70590E080E00E94E10510923F03109210
:1017000082020C94540960938E0270938F0280932E
:101710009002909391020C94750B0F931F9341E0EC
:1017200050E060E070E004C0440F551F661F771F53
:101730008A95D2F7CB01BA01609570958095909506
:1017400000918E0210918F022091900230919102AF
:1017500060237123822393231F910F910C94830B99
:10176000909181038095892380938103282F27708E
:1017700091F4282F082E000C330B9217130659F002
:101780009091830392FD07C08595859585950E946C
:101790008D0B1092810308950F931F9341E050E049
:1017A00060E070E004C0440F551F661F771F8A95E4
:1017B000D2F780918E0290918F02A0919002B09109
:1017C00091028A019B01082B192B2A2B3B2BC90163
:1017D000B8011F910F910C94830B9091830392FD9C
:1017E00007C098E0899F9001112423602093810312
:1017F0000C94CC0B0F931F9341E050E060E070E03D
:101800008A019B0104C0000F111F221F331F8A95FC
:10181000D2F7C901B8011F910F910C94830BCF939C
:10182000DF93EC018881823031F4FB0182810E94D8
:10183000FA0B81E08B87DF91CF910895609384024A
:101840007093850280938602909387020C94750BA7
:10185000882321F00E9446090C9454090895882396
:1018600039F090913F03982B90933F030C945409C7
:101870000895882321F00E944D090C94540908957D
:10188000882339F090914003982B909340030C9457
:1018900054090895882309F44BC0823871F40E94DA
:1018A0000D0681FF45C089E30E942A0A0E9454095F
:1018B00089E30E94FF090C945409833859F40E946B
:1018C0000D0680FF35C083E50E942A0A0E94540954
:1018D00083E5EFCF843859F40E940D0682FF28C0BB
:1018E00087E40E942A0A0E94540987E4E2CF9CEF11
:1018F000980F913AF0F290E2980F983050F4877078
:1019000091E001C0990F8A95EAF7892F0E944D094D
:10191000D2CF9BE5980F933020F490E080E00C94B8
:10192000F705885A873120F490E080E00C94E105B7
:10193000089582FB992790F981FD05C05D9A911168
:1019400004C0769A08955D98FACF769808959C0120
:101950003A9521153F4150F5FC01EE27F170BC018D
:1019600066277270AC01442754709C01222738709E
:1019700094FF0EC080E1EF2B09F480E0672B09F0A3
:101980008062452B09F08064232B89F080680895DC
:1019900081E0EF2B09F480E0672B09F08260452B92
:1019A00009F08460232B19F08860089580E0089581
:1019B000CF93DF93EC010E944A0CCE010E94A70C4A
:1019C0009E01205E31092830310510F0CD2B21F425
:1019D000DF91CF910C94390CDF91CF910C94280CAE
:1019E00080934C0370934E0360934D038091740376
:1019F000843001F582E08093E9008FEF9091E80058
:101A0000815095FD06C095ED9A95F1F70000811182
:101A1000F5CF8091E80085FF0DC050E040E063E025
:101A200070E08CE493E00E9486048091E8008E7759
:101A30008093E8000895BC0184E00C94F00CBC0194
:101A400083E00C94F00CCF93DF93EC0180916E0156
:101A50008823B1F18091820387FF32C060E282E087
:101A60008093E9008FEF9091E800815095FD06C0CA
:101A700095ED9A95F1F700008111F5CF8091E8007E
:101A800085FF1BC080916E0170E050E040E0811145
:101A900004C050E040E068E070E0CE010E9486049F
:101AA0008091E8008E778093E80080E2FE01A2E555
:101AB000B3E001900D928A95E1F7DF91CF910895FF
:101AC00068E081E0CDCF81E08093E00080E2809308
:101AD000D8001092C9008FE19EE40197F1F700C091
:101AE000000087E090EBDC018093880390938903EA
:101AF000A0938A03B0938B0388E19CE00FB6F8941F
:101B0000A895809360000FBE90936000FFCFFC010A
:101B10008081813029F4FB01808191810C94D80C63
:101B200008958091320380FD0AC0EAEEF2E011824E
:101B300010821282339653E0E233F507C1F7539ACD
:101B40003BB1377F2BB128604FB7F8948AEE92E013
:101B5000FC015191CF0168E02BB9000000C057FF94
:101B60003BB9550F000000C000C000C03BB900C029
:101B70006A9591F7F3E082339F0751F74FBF8FE5E6
:101B800094E00197F1F700C000000895EF92FF92F2
:101B90000F931F93CF93DF938C01CAEED2E0F12C09
:101BA000E12CF80194816091340380913303FCE0CF
:101BB000EF16F104FCF49923F9F09E0140913503EE
:101BC0000E94D1062FEFE21AF20A239688E1E81666
:101BD000F10439F70E94910DF801848190E001969B
:101BE000817099278483DF91CF911F910F91FF908E
:101BF000EF900895992309F39E0140E0E1CF8F9281
:101C00009F92AF92BF92CF92DF92EF92FF920F938B
:101C10001F93CF93DF93EC014C81042F10E09801C8
:101C2000D8010E946A299B01AC010E9480294B01C6
:101C30005C01E0E2F0E0E01BF10BA5E5B0E0AC01F7
:101C40009B010E9480296B017C019F01DF010E94A2
:101C500062299B01AC010E948B299B01AC01280DDC
:101C6000391D4A1D5B1DC701B6010E943A29F22E9B
:101C7000822F90E039E23F15D8F143E0249F900194
:101C8000112435952795122F10959AEEC92E92E0C2
:101C9000D92E00E085E5E82EEF188E2D01FD8F2D61
:101CA0009601412F609134030E94D1060F5F53E0EB
:101CB000C50ED11C083189F70E94910D9C8181E0ED
:101CC000992319F0903219F48FEF80932B018091B2
:101CD0002B01890F8C83DF91CF911F910F91FF9082
:101CE000EF90DF90CF90BF90AF909F908F9008952E
:101CF00025E530E0A901481B590BCA019A01220FC2
:101D0000331F280F391F37FFBCCF2F5F3F4FB9CF8D
:101D10000F931F93CF93DF93CAEED2E0FE0111829F
:101D200010821282339683E0E233F807C1F710E0A5
:101D300000E08091E802082E000C990B08171907A3
:101D40008CF180912A01082E000C990B80179107C5
:101D50004CF19E014091350360913403809133032F
:101D60000E94D1060F5F1F4F23960831110509F716
:101D70000E94910D809129019091E802980F909313
:101D8000E80220912A01280F20932A01121614F448
:101D900097311CF0819580932901DF91CF911F919C
:101DA0000F910895198218821A82DCCFBF92CF92C8
:101DB000DF92EF92FF920F931F93CF93DF93FC017B
:101DC0008281DD24DA9480FD02C0DD24D3940AEE02
:101DD00012E0D0E0C0E028E1B22EF80111821082BA
:101DE000128294E0E92EF12CC12C8091E7028C0D37
:101DF00089310CF43DC06B2D0E940429892F082ED7
:101E0000000C990B8C179D0791F4809135038E9DE2
:101E1000A0018F9D500D11245595479555954795D7
:101E2000980160913403809133030E94D106CD0C58
:101E3000F1E0EF1AF108C9F621960D5F1F4FC83186
:101E4000D10559F60E94910D8091E70291E0D912D7
:101E500015C0811111C087E18093E702DF91CF9116
:101E60001F910F91FF90EF90DF90CF90BF9008955A
:101E700087FFC5CF885EC3CF8150EECF90E001963B
:101E8000BE010E942629E8CFEF92FF921F93CF93C5
:101E9000DF93EC018AEEE82E82E0F82E10E08C81D0
:101EA00097014091350360913403810F0E94D10660
:101EB000165F83E0E80EF11C103F89F70E94910D38
:101EC0009A818C8190FF08C08F5F8C83DF91CF91C6
:101ED0001F91FF90EF9008958150F7CF90913203BA
:101EE00090FF0CC0EAEEF2E0818360834283339678
:101EF00093E0E233F907C1F70C94910D08950F9325
:101F00001F93CF93DF9300D00F92CDB7DEB78C0134
:101F10008091E90281110AC09E012F5F3F4F4FEF70
:101F20006FEF0E94D1068A818093E902F8016481F3
:101F3000613069F08091E90240E0662361F040E0A1
:101F4000623011F44091E90280E060E004C06091E9
:101F5000E90240E080E00E946E0FF801848190E089
:101F6000019663E070E00E94262984830F900F9011
:101F70000F90DF91CF911F910F910895CF93DF9331
:101F800000D00F92CDB7DEB79091320390FF0AC018
:101F90009E012F5F3F4F0E94D1064B8169818A814C
:101FA0000E946E0F0F900F900F90DF91CF910895C8
:101FB000CF93DF93EC01E2E3F3E0438162818C8114
:101FC0000E94BE0F8C818F5F8C83DF91CF9108952B
:101FD000CF93DF93EC01EC81F0E0E855FA4F4491A8
:101FE000E2E3F3E0628181810E94BE0F8C818F5F0A
:101FF0008C83DF91CF910895CF93C82F882309F464
:10200000A6C08238C1F40E940D0681FDA0C089E3FC
:102010000E942A0A0E9454092FEF81EE94E0215079
:1020200080409040E1F700C0000089E30E94FF0972
:10203000CF910C9454098338A1F40E940D0680FDC1
:1020400086C083E50E942A0A0E9454092FEF81EE80
:1020500094E0215080409040E1F700C0000083E50B
:10206000E5CF8438A1F40E940D0682FD70C087E49C
:102070000E942A0A0E9454092FEF81EE94E0215019
:1020800080409040E1F700C0000087E4CFCF8CEFA4
:102090008C0F813A88F580916E01882301F180913F
:1020A000820387FF1CC0EC2FE695E695E695F0E0ED
:1020B000E252FE4F828190E04C2F477021E030E0E9
:1020C00002C0220F331F4A95E2F782239323892B04
:1020D00079F08C2F0E94FF090E94540909C0E0EE9C
:1020E000F1E08191C817A9F321E0E63EF207C9F7B4
:1020F0008C2F0E942A0A9CCF80E28C0F883068F4D3
:10210000C77021E030E001C0220FCA95EAF7809144
:102110004003822B809340038BCFEBE5EC0FE33041
:1021200040F4F0E0E159FE4F808190E0CF910C94B3
:10213000F705C85AC73158F4EC2FF0E0EE0FFF1F37
:10214000EE58FE4F80819181CF910C94E105CF91A3
:1021500008951F93CF93DF93182FD0E0C0E0893309
:1021600011F4C0E5D0E0812F0E94FC0F209731F4DC
:10217000812FDF91CF911F910C944A0C8FE99FE042
:102180000197F1F700C000002197F0CF0F931F9344
:10219000CF93DF93C62FD42F022FFC018281882397
:1021A000A1F0609380030E94D50590937F038093F4
:1021B0007E03C77081E001C0880FCA95EAF7DF91FE
:1021C000CF911F910F910C94400C80918003681364
:1021D00035C080917E0390917F030E94C605883CA4
:1021E000910560F510E21D0FCD17B9F080E28C0F5C
:1021F000883040F4C77081E001C0880FCA95EAF7C3
:102200000E94390C183048F481E09D2F977001C06E
:10221000880F9A95EAF70E94400C802F0E94A9101F
:10222000183098F4D77081E001C0880FDA95EAF78A
:10223000DF91CF911F910F910C94390CC77081E001
:1022400001C0880FCA95EAF7F3CFDF91CF911F91B4
:102250000F910895DF92EF92FF920F931F93CF9308
:10226000DF93E82FF0E0E452FF4FD490282F26951B
:102270002695269530E0F901E453FF4F04918770CD
:1022800010E0082E02C0159507950A94E2F7017038
:102290001127F901E454FF4FE490F12C082E02C0FD
:1022A000F594E7940A94E2F791E0E922FF24F9011A
:1022B000E455FF4FC491D0E002C0D595C7958A95EB
:1022C000E2F7C170DD270115110519F081EE0E94BA
:1022D000FC0FE114F10419F086EE0E94FC0F8D2D25
:1022E0000E94A910EF2819F086EE0E944A0C012BDB
:1022F00019F081EE0E944A0CCD2B51F08CE2DF9157
:10230000CF911F910F91FF90EF90DF900C94A91047
:10231000DF91CF911F910F91FF90EF90DF90089583
:102320009F92AF92BF92CF92DF92EF92FF920F9364
:102330001F93CF93DF936B017C01C7E0D0E00CE1EA
:1023400010E0992493948AE0A82EB12CD701C601FD
:10235000002E04C0B695A795979587950A94D2F755
:102360008F7021F5911007C0809139038230D1F42C
:1023700082E60E94A910219704501109CF3FDC0783
:1023800061F4DF91CF911F910F91FF90EF90DF905B
:10239000CF90BF90AF909F900895C430D105B4F610
:1023A000912CD4CF80E30E942A11E5CF909139037C
:1023B000923071F48A3050F490E00996B5010E9491
:1023C0002629875A0E94A910912CD5CF8650FACF82
:1023D00096EF980F963020F0805D0E942A11F4CF7E
:1023E000895AFBCFCF93DF93EC010E94A70C9E018B
:1023F000205E31092830310510F0209739F40E9411
:10240000400C8C2FDF91CF910C94FC0F0E942F0C6D
:10241000F8CFDB01FC018081813021F48D919C910A
:102420000C94F211823039F41396ED91FC911497CB
:1024300012968C9109940895FF920F931F93CF9356
:10244000DF938C018AE0F82EF8018491882309F447
:102450004BC0813009F044C0E8012196FE0184910F
:10246000813049F42196FE0184910E94A9108E01C9
:102470000F5F1F4FE9CF823039F4E8012296FE0149
:1024800084910E94FC0FF3CF833039F4E801229647
:10249000FE0184910E944A0CEACF843041F7E801A2
:1024A0002296FE01249190E080E0FE0131962053B7
:1024B000330B2A30310548F00197C8F2EFE9FFE00D
:1024C0003197F1F700C00000F7CFF89EA001F99E08
:1024D000500D1124C901840F951F2491EF01E5CF00
:1024E0000E942A11E801C3CFDF91CF911F910F9174
:1024F000FF90089520913803082E000C990B820F4D
:10250000911D27FD9A9562E070E00E9426298F3F79
:1025100081F080933803E09138030E2E000CFF0BFE
:10252000E652FE4F6081609339038CE090E00C949A
:10253000B32981E0EECF682F86E090E00C94B329B8
:10254000CF93C0918303C2FB992790F9981799F014
:1025500080FBC2F9C09383036091820384E090E022
:102560000E94B3296C2F82E290E00E94B32982E09E
:10257000CF910C94B00BCF910895CF9384E090E06D
:102580000E949F29C82F82E290E00E949F29982FE5
:102590008C2FCF91089560913203669570E04BE0E7
:1025A00050E08EE191E00E94122B892B19F481E01A
:1025B0008093E6020E94D5059093E0028093DF02AB
:1025C0000895CF92DF92EF92FF926B017C010E94FF
:1025D000C206B701A60188E090E0FF90EF90DF907F
:1025E000CF900C94C5295F926F927F928F929F92A9
:1025F000AF92BF92CF92DF92EF92FF920F931F9311
:10260000CF93DF9300D00F92CDB7DEB7182F762E81
:10261000042F622E9091320390FF29C0E92FE69596
:10262000AE2FB0E0AB54BE4F8C918093E5029E7FFD
:10263000923081F59E012F5F3F4F812F0E94D1067E
:102640004B8169818A810E946E0F109333037092CF
:10265000340300933503662051F06091320370918A
:10266000330380913403909135030E94E1120F905F
:102670000F900F90DF91CF911F910F91FF90EF90EE
:10268000DF90CF90BF90AF909F908F907F906F9092
:102690005F900895823019F400913503D6CF8630CB
:1026A00019F410913303D1CF8930D9F3893169F608
:1026B000E9518E2F8170582EE695F0E0ED55FA4FD6
:1026C000A590B490BB248AEEE82E82E0F82ED12C9F
:1026D000C12C98E1892E912CC601B4010E941229C7
:1026E000812F511013C0860F9701402F672D0E9434
:1026F000D106CA0CDB1C83E0E80EF11C82E3E8166D
:1027000083E0F80649F70E94910D9FCF861BECCF1E
:10271000E2E3F3E0438128E0421B08F440E021E0DB
:10272000628181810C94F312E2E3F3E0438128E0BB
:10273000420F08F44FEF21E0628181810C94F31283
:10274000E2E3F3E0628128E0621B08F460E021E04C
:10275000438181810C94F312E2E3F3E0628128E08B
:10276000620F08F46FEF21E0438181810C94F31232
:10277000E2E3F3E0818121E04381628188500C949F
:10278000F312E2E3F3E0818121E043816281885F1B
:102790000C94F31280913603882319F081508093B2
:1027A000360360913203709133038091340390912A
:1027B00035030C94E11280913603833018F48F5F57
:1027C0008093360360913203709133038091340318
:1027D000909135030C94E1129091320390FF36C032
:1027E0009170811129C0926090933203662351F059
:1027F00060913203709133038091340390913503DB
:102800000E94E11260913203669570E04BE050E067
:102810008EE191E00E94122B892BA9F01092E60222
:1028200081E08093E20220E040913503609134031F
:10283000809133030C94F312853210F09864D4CF56
:10284000880F982BD1CF0E94CB12EACF089561E078
:102850000C94EC13809132038695815009F484E244
:1028600061E00C94EC138091320386958F5F853282
:1028700008F081E061E00C94EC139091320390FF3A
:1028800007C09695981720F0961710F40C943314FF
:102890000C942714E2E3F3E083E0808311828FEF4E
:1028A00082838383148260817181828193810C94FD
:1028B000E1121092400380916E01E0EEF1E0882376
:1028C00059F08091820387FF07C08EE1DF011D92DE
:1028D0008A95E9F70C94750B86E0F8CF1F93CF9398
:1028E000DF93CDB7DEB7AA970FB6F894DEBF0FBE61
:1028F000CDBF86E793E02091F100FC012193CF0149
:10290000F3E08E379F07B9F780917703833009F49E
:1029100070C0B8F4813009F447C0823009F4B1C006
:102920008091E80083FF7EC28091760390917703C7
:102930009A3008F077C2E92FF0E0E45CF44D0C9493
:102940005C298A3009F48CC08B3009F46FC089305F
:1029500039F780917603813219F780917A0390914B
:102960007B030297E8F68091E800877F8093E80078
:102970008091E80082FF38C09091F3008091F200CE
:10298000029731F48091F100813011F0863021F40A
:102990008091F100809351038091E8008B778093C0
:1029A000E8000E94B004BCCF80917603813A09F020
:1029B000B7CF8091E800877F8093E80080917A0309
:1029C00090917B03892B61F460E282E593E070E0F3
:1029D0000E9462058091E8008B778093E800A0CF89
:1029E00060E090E080E0F3CF809174038111C0CF6C
:1029F00097CF80917603813A09F092CF80917A0344
:102A000090917B03892B09F08BCF8091E800877F21
:102A10008093E8008091E80080FFFCCF80916E01F8
:102A20008093F1008091E8008E77B9CF8091760392
:102A3000813209F075CF80917A0390917B03892BC5
:102A400009F06ECF8091E800877F8093E8000E94B4
:102A5000B0048091780380936E010E94591460CF76
:102A600080917603813209F05BCF8091E800877F07
:102A70008093E8000E94B004809179038093500312
:102A80004FCF80917603813A09F04ACF8091E800D8
:102A9000877F8093E8008091E80080FFFCCF8091E1
:102AA0005003BECF803899F0823809F0BBC18091C5
:102AB0007A038F70873008F0B5C18093E900809168
:102AC000EB0085FB882780F91092E90006C0809111
:102AD000720390917303911182609091E800977F47
:102AE0009093E8008093F1001092F1008091E8004B
:102AF0008E7794C1882309F482C1823009F092C193
:102B000080917803811185C180917A038F702FEFB6
:102B1000280F263008F086C18093E9002091EB0051
:102B200020FF77C1933031F48091EB008062809375
:102B3000EB006FC19091EB0090619093EB0021E06E
:102B400030E001C0220F8A95EAF72093EA00109244
:102B5000EA008091EB008860EACF811163C1109197
:102B600078031F778091E3008078812B8093E300C6
:102B70008091E800877F8093E8000E94B0048091F4
:102B8000E80080FFFCCF8091E30080688093E30041
:102B900082E0111183E08093740344C18058823035
:102BA00008F040C180917803909179038C3D23E037
:102BB0009207A1F583E08A838AE289834FB7F8946C
:102BC000DE01139620E03EE051E2E32FF0E0509367
:102BD0005700E49120FF03C0E295EF703F5FEF7074
:102BE0008E2F90E0EA30C0F0C7968D939D932F5FB3
:102BF000243159F74FBF8091E800877F8093E80028
:102C00006AE270E0CE0101960E9462058091E800C0
:102C10008B778093E80006C1C096E7CF40917A0396
:102C200050917B03292F33272330310509F444C009
:102C300078F52130310509F46FC08BE390E0E5E5CC
:102C4000F7E02230310509F0EDC02091E800277F40
:102C50002093E80020917C0330917D038217930735
:102C600008F49C0140E02115310509F064C04111D0
:102C700062C08091E80082FDC9CF809174038823EF
:102C800029F2853019F28091E80083FFF2CFBECFA0
:102C900021323105A9F12232310509F0C3C04115B5
:102CA000510509F443C04130510509F0BBC08DE620
:102CB00090E0E8EAF6E0C9CF992781309105C1F0AC
:102CC000009759F0029709F0ADC0E2EAF7E0E4910D
:102CD0008E2F90E0E2EAF7E007C0E6EDF7E0E4913E
:102CE0008E2F90E0E6EDF7E0009709F49BC0ADCFA2
:102CF000ECEAF7E0E4918E2F90E0ECEAF7E0F4CF15
:102D00004115510571F04130510509F08BC089E042
:102D100090E0E0E8F7E099CF82E190E0E0E9F7E0C9
:102D200094CF89E090E0E7E6F7E08FCF80E490E091
:102D3000E5E1F7E08ACF80917403882309F466CF38
:102D4000853009F463CF8091E80083FD5FCF8091E7
:102D5000E80082FD8ECF8091E80080FF84CF9091C3
:102D6000F3008091F2002115310519F088309105AA
:102D700050F041E0089709F040E08091E8008E773C
:102D80008093E80070CF44914093F1003196215038
:102D900031090196E8CF803809F044C08091E800FD
:102DA000877F8093E800809175038093F1009ECE29
:102DB000811138C0109178031230A0F58091E8009D
:102DC000877F8093E800109375030E94B00411235D
:102DD00011F084E005C08091E30087FDFACF81E027
:102DE0008093740342E061EC81E00E94CF0442E2F0
:102DF00061EC82E00E94CF048091740313C0809143
:102E00007803813079F481E0933009F080E0809399
:102E100073031092E9008091E800877F8093E800B7
:102E20000E94B0048091E80083FF0AC08091E8000E
:102E3000877F8093E8008091EB0080628093EB00B5
:102E4000AA960FB6F894DEBF0FBECDBFDF91CF912B
:102E50001F91089569EE7EEF90E080E00E94D129F5
:102E600060E082E090E00E94B32960E083E090E0BF
:102E70000E94B32910928402109285021092860259
:102E80001092870260E084E090E00E94B32960E045
:102E900082E290E00E94B32960E085E090E00E9429
:102EA000B32960E086E090E00E94B3296FEF87E0ED
:102EB00090E00E94B32940E050E0BA0188E090E041
:102EC0000E94C52960E08DE090E00E94B32940E0B7
:102ED00050E0BA0188E190E00E94C52960E087E1F6
:102EE00090E00E94B32940E050E0BA018CE190E00C
:102EF0000E94C52970E060E080E290E00E94D12944
:102F000040E050E0BA0188E190E00E94C529E2E388
:102F1000F3E080818160808386950E94271421E000
:102F200040E86FEF80E00E94F3128BE00E942714CC
:102F300040E050E0BA018FE090E00E94C52940E0F7
:102F400050E0BA0183E190E00C94C52990E080E064
:102F50000E94AD29893E9E4F51F00E942A17809110
:102F6000370384708961809337030E949B1286E047
:102F700090E00E949F2980933703803220F0877071
:102F800088618093370390913703892F817090FF78
:102F900004C0892F8695869586950C9419067F9294
:102FA0008F929F92AF92BF92CF92DF92EF92FF9259
:102FB0000F931F93CF93DF93CDB7DEB768970FB60C
:102FC000F894DEBF0FBECDBF8E010F5F1F4F88E1AB
:102FD000F80111928A95E9F7B0EACB2EB1E0DB2E29
:102FE000580188248394912CF60181916F018F3FC1
:102FF00009F446C0F894E82FE295EF70F0E021A1C3
:103000008F70A40102C0440F551F8A95E2F7CA01D0
:10301000922F982B91A392A18095892382A37894D3
:1030200000C0ECEAF1E021E030E0F12CE12C41912C
:103030004F3F09F4F3C0A42FA295AF70B0E0909673
:103040008C9190E04F7002C0959587954A95E2F774
:1030500080FDE4C0C901E82AF92A220F331F51E09C
:10306000E53BF50721F7F601319780818F3F11F09D
:103070000E94690780EA8A95F1F7F501F182E08202
:10308000F2E0AF0EB11C2CEAC21621E0D20609F024
:10309000ABCF48E150E0B80182E992E00E941F2BDB
:1030A0006C01FF24F394892B09F4F12CC114D10491
:1030B00041F088E1F801A2E9B2E001900D928A9511
:1030C000E1F710918B02112309F4F3C00E94D5059A
:1030D0002091890230918A02AC01421B530B9A0164
:1030E00090938A02809389024F3F510511F008F0B6
:1030F00098C0452B41F110928B021092880260918A
:103100008C0270918D02AB01475F5F4F6B587F4F10
:1031100090E030E0FA0139978191882339F0DF019E
:103120001197281708F480C01C92912FE417F50717
:1031300099F7AF01475F5F4F6417750759F73093F1
:103140008B0290938802CD2869F4809188028823AD
:1031500009F448C0111106C00E94D50590938A0257
:103160008093890260918C0270918D02E0908B02B5
:10317000A2E9B2E04DEA52E088248394912CE5E084
:103180007E2E0D911D91FA0181919191AF01082739
:103190001927FB0130E020E06401022E02C0CC0CB4
:1031A000DD1C0A94E2F75801AC20BD20AB2841F0A9
:1031B000B080B11005C070828C259D25EE24E3946B
:1031C00031962F5F3F4F2930310531F7675F7F4FD1
:1031D000FA01329791838083F2E0AA3ABF0789F619
:1031E000E0928B028091100190911101019609F0FB
:1031F0005CC08F2D68960FB6F894DEBF0FBECDBFB2
:10320000DF91CF911F910F91FF90EF90DF90CF90C2
:10321000BF90AF909F908F907F90089590E080E056
:103220001ACF2FEF30E067CF821B8C93312F7ECFE8
:10323000D89EF001D99EF00D1124E45DFE4FA288C6
:10324000B388A114B10419F428ECA22EB12CD89E95
:103250008001D99E100D1124045D1E4FF801868156
:103260008823C1F0858596850E94C605A816B906F3
:1032700088F4ED9C50011124F8018189811105C069
:10328000C501845D9E4F0E949909C5018E5C9E4FC9
:103290000E94BA09E3948E2D90E0209110013091A4
:1032A00011012817390724F6A4CFE12C86E1D82E86
:1032B000F2CFCD2809F449CF4FCF4F925F926F9252
:1032C0007F929F92AF92BF92CF92DF92EF92FF9246
:1032D0000F931F93CF93DF9300D000D00F92CDB701
:1032E000DEB77C01DC0113968D919C911497892B9C
:1032F00049F01C911196DC90812F8D218F3F11F0A8
:103300000C940D220F900F900F900F900F90DF9163
:10331000CF911F910F91FF90EF90DF90CF90BF90D2
:10332000AF909F907F906F905F904F9008950E9414
:10333000880A082F682F89819A810E94220BE12F29
:10334000F0E0B9E0DB9EE00DF11D11242CE6029FB8
:10335000E00DF11D1124EE0FFF1FE75FFD4F0591FA
:103360001491D70112968C9181118FC1F70182813E
:10337000063AFDE51F0709F4F7C108F076C1013EE2
:10338000110509F4C5C1D70112962C91222389F0A9
:103390000E3BBCE51B0709F45BC208F0F3C10C3B14
:1033A000FCE51F0709F40FC20D3B3CE5130709F4C8
:1033B00047C2C80197558F3F910511F008F040C0F2
:1033C00040911001509111014817590724F490932E
:1033D00011018093100136E1389F5001399FB00CE4
:1033E0001124F501E45DFE4F6F01208BD701129689
:1033F0009C918681992309F476C2128701878F5F99
:1034000086830E94D505F601968785878091830281
:10341000878380913F0390914003892B808701909F
:10342000F081E02D309741F0D60154966D917C915A
:10343000C5018E5C9E4F099510933E0300933D039A
:10344000D70112968C91882379F080914003827283
:10345000013EBCE51B0709F465C208F051C2003EFD
:10346000FCE51F0709F45AC217FFA9C2D70112963B
:103470008C91882309F4AAC068010115B0EC1B07E0
:1034800008F456C2E0ECDE1A80913F0390914003AD
:10349000892B90918302892B8272BB24B394811172
:1034A00001C0B12C0E940D06869581708B1529F004
:1034B000CC0CCD2CCC1CDD08D194E894C7F8DD24CD
:1034C000F601EE0FFF1FEE0FFF1FEB59FE4F459069
:1034D0005590659074904114510421E16206710485
:1034E00008F074C04114510431E06306710428F0FF
:1034F00080913903823009F469C00E940D068695D7
:103500008170809302020E940D06817080930102F7
:1035100080913903813039F480910202882319F0B7
:1035200089E30E94A91080914003809300021092C9
:10353000400380913903813009F401C2882309F4E2
:10354000FAC1823009F404C2843009F415C2AFE331
:10355000BCE91197F1F700C0000041145104B1E03B
:103560006B06710408F40DC280913903811109C200
:10357000E1E06E1A7108C301B201EAE09695879501
:1035800077956795EA95D1F778528F4F9F4F0E94B4
:103590009011F3E05F2266247724C301B2017452D4
:1035A0008F4F9F4F0E94901180913903813009F411
:1035B000EFC1882309F4E8C1823009F4F5C18430F1
:1035C00009F4FBC18091000280934003D701129659
:1035D0008C91882309F436C7109280030430BDE52E
:1035E0001B0708F026C20B3FECE51E0738F49801D4
:1035F00022503C452431310508F020C20E94BD1202
:10360000909383038093820300312CE5120709F421
:103610005EC308F0DAC208308CE5180709F445C328
:1036200008F0ACC20430ACE51A0709F430C308F066
:1036300092C20230ECE51E0709F423C38091820395
:10364000826003301C4509F41FC36091820310910E
:10365000830384E090E00E94B329612F82E290E02E
:103660000E94B3290E945914C5C0073A3DE51307CB
:1036700009F482C0083A9DE5190709F084CE882331
:1036800009F481CE8FE591E074C080911001909192
:103690001101019609F46ACE8CE2C82E81E0D82E81
:1036A000B12CA12C99249394809110019091110137
:1036B0008A159B050CF45ACEF6018681882309F100
:1036C000818592858017910739F480913D0390910F
:1036D0003E0380179107A9F0D6011F969C921F9771
:1036E0001C961C930E931B9751968C91811103C0CD
:1036F000C6010E949909C60106960E94BA09109255
:103700003F03BFEFAB1ABB0AE6E1CE0ED11CCCCF14
:10371000882351F082E00E94400C0E94D5059093CE
:10372000FF018093FE012FCE8091FE019091FF0159
:103730000E94C6058536910520F082E00E94390C72
:1037400022CE81EE0E94FC0F81EE0E944A0C82E0A4
:103750000E94390C82E00E94CC0B82E00E94ED0BAB
:1037600081E00E94B00B0FCE882309F40CCE82E6D4
:1037700091E00E941C1207CE882309F404CE8CE548
:1037800091E0F7CF003C8CE5180709F491C008F4EC
:103790007BC0013CACE51A0709F00BCE90913703D2
:1037A000892F8695869586958F5F8F719770843067
:1037B00008F096C0880F880F880F892B80933703F5
:1037C000809137034DC08091370387708861809363
:1037D0003703887F91E009F490E08091370390FBF4
:1037E00080F98093370383E00E94190680913703A4
:1037F0000E949B1280918103877009F483CDD701C9
:1038000012968C91882309F47DCD8091830382FDEB
:1038100079CD82E00F900F900F900F900F90DF9175
:10382000CF911F910F91FF90EF90DF90CF90BF90BD
:10383000AF909F907F906F905F904F900C94B00BE3
:103840008091370387708E7F8093370380E0CCCFE1
:1038500080913703982F987F79F0885080933703B1
:10386000887F91E009F490E08091370390FB80F924
:10387000809337030E949B1280913703869586952B
:1038800086950E941906B6CF80913703982F96959A
:1038900096959695933040F49F5F990F990F990FE5
:1038A0008770892B80933703809137038160E0CF45
:1038B0008091370380FF07C08E7F809337030E947B
:1038C0009B1280E0DECF80FD95CF8160809337032F
:1038D000813019F489E08093370380913703CACF90
:1038E000909337036DCF882309F4AACD818988236B
:1038F00009F4A6CDC5018E5C9E4F0E94BA09A0CDE9
:10390000073E2CE5120708F0AFCD6EE1600F609323
:1039100039038CE090E00E94B329A6CD811104C048
:1039200081E003C08111FCCF8FEF0E947A129CCD01
:10393000F0E8DF1AC5CD86EE0E94FC0F08CE88E1C4
:1039400093E00E94F21188E193E00E94D80CFFCD31
:1039500080910102811103C083E50E94A91082EECB
:103960000E94FC0F8FE39CE90197F1F700C0000073
:1039700087E50E94A910EBCD86EE0E94A91088E190
:10398000F8CFC301B2010ECE86EE0E944A0C1ACEC9
:103990008CE20E94A91080910202882309F412CEC1
:1039A00089E30E94A9100ECE82EE0E944A0C8091FB
:1039B0000102811107CE83E5F4CF88E2F2CF043F04
:1039C0002CE5120739F188F4093D8CE51807F1F070
:1039D0000A3D9CE5190751F1083DACE51A0709F0CD
:1039E000F5CD26E241EE61EE0DC0063FBCE51B07BA
:1039F000C9F0A0F027E245EE66EE073FFCE51F07A1
:103A000009F0E4CDC7010E94C610F4CE27E245EECE
:103A100065EEF8CF26E241EE60EEF4CF27E245EE08
:103A200064EEF0CF26E241EE62EEECCF28E241E018
:103A3000EFCF0236FDE51F0709F4E0CD0631ECE5D6
:103A40001E0709F469C18091400382720D3C2CE588
:103A5000120709F428C208F0A9C1073C9CE5190720
:103A600009F40DC208F080C1043CBCE51B0709F451
:103A7000FCC108F068C1033CFCE51F0709F4CFC195
:103A80000B352DE5120709F448C208F024C20115D0
:103A90008CE5180709F431C20F3D1C4509F43AC200
:103AA000F701828110810181882309F43AC2812FB4
:103AB000902F0E94880AD82E682F812F902F0E9465
:103AC000220BE12FF0E029E0029FE00DF11D11240F
:103AD0003CE6D39EE00DF11D1124EE0FFF1FE75FC2
:103AE000FD4F859194910E94C3078C01782ED701D8
:103AF0001296DC90129715969C9092945FE0952216
:103B0000809181038770C1F0BD2CDD20B1F0812F41
:103B1000807F803421F080E2800F883068F08091CF
:103B2000830382FD09C082E00E94B00B8091810373
:103B30008770BB24B3948111B12CA12EA2943FE0D5
:103B4000A322BBE0BA1508F455C2EA2DF0E0EA5B07
:103B5000F44D0C945C2980918203806106302CE541
:103B6000120709F491C080918203886007301C45D8
:103B700008F48AC080918203806286C00C308CE594
:103B8000180709F49CC070F4809182038C600A309D
:103B9000ACE51A0709F478C008F48BC08091820361
:103BA0008E7F72C080918203877F0E30ECE51E0706
:103BB00009F46AC0809182038B7F0F301C4508F4A2
:103BC00063C0809182038F7E5FC00D3F2CE512079A
:103BD00009F479C068F504318CE5180709F48BC045
:103BE00080F40231ACE51A0709F475C080918203B4
:103BF0008F7B03311C4508F447C080918203837F8B
:103C000043C00B3FECE51E0709F445C008F049C06E
:103C100005311C4509F019CD8091820382FB99275B
:103C200090F921E0922790FB82F990FB83F92CC058
:103C300001303DE5130709F454C088F480918303F3
:103C400083600F3F9CE5190749F1809183038D7FC5
:103C500001151D4518F1809183038C7F1FC003302F
:103C6000BDE51B0709F456C008F44EC002361D45D9
:103C700009F0EBCC90918203892F8F7E94FF8061B5
:103C800003C080918203816080938203DECC8091A7
:103C900082038460F9CF80918303816080938303E2
:103CA000D4CC809183038260F9CF809182038064B9
:103CB000EBCF0E945914809182038068E5CF8091F8
:103CC00082038D7FE1CF809183038E7FE7CF809148
:103CD00082038F7DD9CF0E945914809182038F7700
:103CE000D3CF80918303982F909591708E7F892BED
:103CF00090FB81F9D3CF0E94591490918203892FB0
:103D000097FB87F98058C0CF61E08EE090E00E9479
:103D1000B3299BCC60E0F9CF882309F497C3809145
:103D200040038A7A91E009F490E0909303028111B4
:103D300006C089E20E942A0A0E9454095BCD85E3ED
:103D4000F9CF85E388C3053C2CE5120709F492C03E
:103D500048EB53E161EC73E1063C3CE5130709F0E5
:103D60008FCE0E94BD0646CD0A3C9CE5190709F49A
:103D700090C070F4083CBCE51B0709F485C04CEA10
:103D800053E160EA73E1093CECE51E0751F378CE9C
:103D90000B3CFCE51F0709F481C04AEC53E16BEDD5
:103DA00073E10C3C2CE51207E1F26ACE023D3CE5E2
:103DB000130709F485C0B0F40F3C9CE5190709F41A
:103DC00079C008F475C0003DBCE51B0709F475C057
:103DD0006EE089E0013DECE51E0709F051CE0E943E
:103DE0003D1408CD053DFCE51F0709F46FC060F4E4
:103DF000033D3CE5130709F466C0043D8CE5180754
:103E000009F03ECE88E12EC0063D9CE5190709F475
:103E100060C00E35ADE51A0709F4ECCC31CE8091C7
:103E2000320380FF1BC08E7F809332036091320388
:103E30007091330380913403909135030E94E11215
:103E40001092E602BFEFE0E7F2E0B150E040F04050
:103E5000E1F700C000000E94910DCCCC81608093FE
:103E6000320386950E942714C5CC4AE254E163E3ED
:103E700074E177CF43E354E16AE274E172CF41EC3D
:103E800053E168EB73E16DCF40EA53E16CEA73E113
:103E900068CF48E853E164E973E163CF44E953E153
:103EA00068E873E15ECF4BED53E16AEC73E159CF03
:103EB00081E0D8CF65E082E092CF68E086E08FCFE6
:103EC00064E18FE08CCF67E185E189CF62E289E12F
:103ED00086CF83E2C7CF0C35ADE51A0701F10D356A
:103EE0001D4509F0DDCD8091830382FB882780F991
:103EF00091E089270E94A012D3CD0E945914EFEFC0
:103F0000F4E32CE0E150F0402040E1F700C0000075
:103F10000E94630D0E942A176DCC81E0EBCF80E0F8
:103F2000E9CF812F902F0E94FA0AD82ECACDE12F17
:103F3000EF70CE2E107F19F0C29420EFC222DD2048
:103F4000B9F0CC2069F080E2800F883010F0711059
:103F500009C080914003C82AC09240030E945409BE
:103F6000802F46C080913F03C82AC0923F03F6CFFE
:103F7000802F0E944A0CCC20E9F1005E8C2D083085
:103F800010F0711003C00E944D0902C00E94460942
:103F90000E9454092FC0F12FFF70CF2E107F1032D6
:103FA00019F0C29490EFC922772089F021E07216AF
:103FB00009F48CC0DD2009F496C0992009F48CC066
:103FC000F701858180FFCCCF8F70858385C02091DC
:103FD000830322FF58C0DD2009F44DC0CC2039F006
:103FE00080914003C82AC09240030E94540980E097
:103FF0000E94FC0FEA2DE850FF0B349720F40E943A
:104000000D060E94990CBB20B1F08091810380FDC8
:1040100012C0D70112961C928595859585950E94B0
:10402000CC0BC7010E945D19809181038595859510
:1040300085950E948D0B85E0F701DE0111960190B8
:104040000D928A95E1F789819A810E94FA0A9A81F4
:10405000E981F0E0B9E09B9FE00DF11D11242CE611
:10406000829FE00DF11D1124EE0FFF1FE75FFD4F52
:104070008591949147C980E00E944A0CCC2009F4B4
:10408000B9CF8C2D80CFDD20A1F0909183028C2DB3
:10409000892B911003C00E94400CACCF31E09312E9
:1040A000FACF22FDA7CF981709F4A4CF80938302FB
:1040B000A1CF911006C00E9440098C2D0E94390C9E
:1040C00099CF81E0981609F495CFF5CFDD2031F036
:1040D00095E0991508F48ECF8C2DDDCFA4E0A915BD
:1040E00008F488CFEACF992041F3F9E37F1209C0A1
:1040F0002FEF37EE83E0215030408040E1F700C0E1
:104100000000802F0E944A0C75CF812F86958695DE
:10411000837061F0813009F06DCFC8019370D110C8
:1041200002C090E080E00E94E10564CFC801937076
:10413000D11002C090E080E00E94F7055BCF812F94
:10414000837009F06DC0D11055CF802F8295869570
:104150008770880F880F602F6F70462E512C712C3E
:10416000612C082E04C0440C551C661C771C0A9454
:10417000D2F740E050E0BA0104FF0FC04FE050E03A
:1041800060E070E004C0440F551F661F771F8A95DA
:10419000D2F74095509560957095812F86958695BC
:1041A0008370823019F1A8F5009184021091850284
:1041B0002091860230918702813069F04429552987
:1041C00066297729CB01BA016023712382239323C7
:1041D0000E941E0C0FCF0429152926293729CB014F
:1041E000BA01602B712B822B932BF2CF44295529D6
:1041F0006629772900918402109185022091860218
:1042000030918702CB01BA0160277127822793275B
:10421000DFCFCB01BA016429752986299729D8CF28
:104220008695DD2011F0812F8170882309F4E2CE7C
:10423000802F829586958770880F880F602F6F700A
:10424000462E512C712C612C082E04C0440C551C98
:10425000661C771C0A94D2F740E050E0BA0104FFD4
:104260000FC04FE050E060E070E004C0440F551F05
:10427000661F771F8A95D2F7409550956095709587
:10428000812F869586958370823019F1A8F500916B
:104290008E0210918F022091900230919102813014
:1042A00069F04429552966297729CB01BA01602391
:1042B0007123822393230E94830B9CCE042915290A
:1042C00026293729CB01BA01602B712B822B932B26
:1042D000F2CF442955296629772900918E02109141
:1042E0008F022091900230919102CB01BA01602798
:1042F000712782279327DFCFCB01BA016429752963
:1043000086299729D8CF1F70DD2029F0812F0E94A0
:10431000CC0B802FC0CE802F0E94390C812F0E94A1
:104320008D0B68CE802F92EF791609F43FC0971558
:1043300070F0A0EF7A16D1F0B1EF7B1691F0DD208E
:1043400009F45BC091100CCE812F8F7133C0E3EF65
:104350007E1699F1F4EF7F12F2CF8091830382FFF2
:1043600037C0812F8F71DD20D1F224C0DD20C9F04C
:1043700024E0291508F43ECE1F7161E070E080E072
:1043800090E004C0660F771F881F991F1A95D2F717
:1043900000918E0210918F02209190023091910233
:1043A000A6CF35E0391508F425CEE6CF812F8F71E1
:1043B000D110B5CF0E94CC0B1DCEDD2029F0812F6E
:1043C0008F710E94FA0B16CE60E070E0CB0173CFC4
:1043D000DD2041F01F71812F0E94CC0B812F0E94A4
:1043E000ED0B08CE81E00E94B00B81E0891508F04A
:1043F00001CE82E00E94B00BFDCD992059F08933A7
:1044000009F07FCE9FEFA7EEB3E09150A040B040FF
:10441000E1F775CE812F8F7182CF85E0F701DE0144
:10442000119601900D928A95E1F7D70112962C9181
:1044300089819A8121110C9497190E94FA0A082FF8
:104440000C949F1906311C4509F02ACB8091030278
:10445000811177CC89E20E94FF096ECC1F93CF9324
:10446000DF9380914F02807FA9F480914C028823D2
:1044700089F080918102D091500260914A0270913E
:104480004B02A0914D02B0914E02C62FC72316E0F9
:10449000D81304C0DF91CF911F91089590E0109739
:1044A00011F0CF3F19F401968770F2CF189F900159
:1044B000199F300D1124F901EF5AFD4F4181471327
:1044C000F2CF40814613EFCF42814111ECCF4381BF
:1044D00054814A1B5B0B483C510528F780914F02E1
:1044E0008F70806180934F02F901EA5AFD4F8081FD
:1044F0008F70806180838AE492E00E945D19DF9171
:10450000CF911F910C947E0A8F929F92AF92BF928F
:10451000CF92DF92EF92FF920F931F93CF93DF938F
:10452000CDB7DEB761970FB6F894DEBF0FBECDBF33
:104530008C0185E0F801DE011D9601900D928A95AF
:10454000E1F7D8011296EC9012978AE4882E82E067
:10455000982E40914D0250914E024115510509F49B
:104560003EC190914A0220914B02892F82238F3FB6
:1045700009F435C1DC901196CC9011971396AD904B
:10458000BC901497F0904C02F501E41BF50BFF2052
:1045900009F4F9C080914F02382F307FE83CF105D3
:1045A00008F0C5C0311185C0FE2C2C1124C09D110E
:1045B00022C0E11020C08F70806180934F02C4013F
:1045C0000E945D1980914F02D80115968C938F2D12
:1045D00061960FB6F894DEBF0FBECDBFDF91CF91CD
:1045E0001F910F91FF90EF90DF90CF90BF90AF9011
:1045F0009F908F900895A114B10429F08D2D8C21E6
:104600008F3F09F00AC180E080FF14C04E2D6C2D51
:104610008D2D0E945E0A882369F08AE492E00E9450
:104620005D1986E0EAE4F2E0DF011D928A95E9F780
:10463000F12CCDCFAB2829F08D2D8C218F3F09F0A7
:10464000E9C080E0B82FB170AB2E80FF29C04E2D9D
:104650006C2D8D2D0E945E0AB82E811121C0DD8641
:10466000CE868D859E850E94DF0A292F22952F7088
:10467000223050F0243078F49F7051F0F801958189
:10468000907F31F4FB2CA3CF9F7011F08823D1F3DE
:10469000805E8830B8F3C8010E945D19BA2CF2CF51
:1046A000EE2009F494CF80914F02816080934F02F5
:1046B000BFCF2C1112C09D1110C0E1100EC0159675
:1046C0008C93C8010E945D1986E0F801AAE4B2E06B
:1046D00001900D928A95E1F77ACFC8010E944E0BA6
:1046E000882309F1EE20F9F080914F02803270F0BA
:1046F00020914A0230914B0238872F831986BB865E
:10470000AA868C87CE0107960E945D1986E0F80183
:10471000AAE4B2E001900D928A95E1F70E942E2260
:10472000FF24F39454CFC8010E945D19F9CF3323BD
:1047300009F473CF2C110FC09D110DC0E1100BC0F7
:10474000F8018583C8010E945D1986E0D4011D929D
:104750008A95E9F73CCFC8010E944E0B882319F3D4
:10476000EE2009F380914F02803280F220914A02BC
:1047700030914B023A8329831B82BD82AC828E83A7
:10478000CE010196C1CFE83CF105F8F6FE2CEE20F3
:1047900051F22C1116C09D1114C080914F0280FD62
:1047A00093CF982F907F09F48FCFF8018583903FA6
:1047B00009F487CF982F907F905F8F70892B858326
:1047C00080CFC8010E944E0B8111A0CF80914F0273
:1047D000816080934F02C8010E945D19F8CEEE20DF
:1047E00009F4A1CFC8010E944E0BF82E882309F4CA
:1047F0009ACF86E0F801AAE4B2E001900D928A9582
:10480000E1F780914A0290914B020E94DF0A0E94D8
:104810002E22DDCE81E08E2515CF81E08E25F4CECF
:104820001F93CF93DF93CDB7DEB767970FB6F8949A
:10483000DEBF0FBECDBF4B8B5C8B6D8B7E8B8F8BAA
:10484000611110923F031A8A198A85E0FE0173965E
:10485000DE011D9601900D928A95E1F786E0FE013A
:104860003D96DE01179601900D928A95E1F7CE01F3
:1048700007960E948422882389F016E080918102A5
:1048800090915002891349C067960FB6F894DEBF25
:104890000FBECDBFDF91CF911F91089586E0FE013D
:1048A0003796DE01119601900D928A95E1F78A857F
:1048B0009B85892B11F38F81988589238F3FE9F29E
:1048C0002091500230E0C9010196877099274091EC
:1048D00081024817190671F40E945914109250026F
:1048E0001092810286E0EAE4F2E0DF011D928A95EF
:1048F000E9F7C3CF96E0929FD001939FB00D1124AA
:10490000AF5ABD4FFE01319601900D929A95E1F795
:10491000809350020E947E0AB0CF819FC001112473
:104920008F5A9D4F0E948422882309F4ADCF809135
:10493000810290E0019687709927809381029ECF33
:104940001F920F920FB60F9211242F933F934F9304
:104950005F936F937F938F939F93AF93BF93CF9307
:10496000DF93EF93FF93D091E900DF708091EC002B
:10497000C82FC17080FDC0E81092E9008091F0005E
:10498000877F8093F00078940E946E141092E90063
:104990008091F00088608093F000CD2BCF70C093A1
:1049A000E900FF91EF91DF91CF91BF91AF919F917E
:1049B0008F917F916F915F914F913F912F910F90C8
:1049C0000FBE0F901F9018951F920F920FB60F9267
:1049D00011242F933F934F935F936F937F938F9304
:1049E0009F93AF93BF93EF93FF938091E10082FF7A
:1049F00009C08091E20082FF05C08091E1008B7FB9
:104A00008093E1008091DA0080FF24C08091D8007B
:104A100080FF20C08091DA008E7F8093DA00809141
:104A2000D90080FF9DC080E189BD82E189BD09B4C4
:104A300000FEFDCF81E08093740380914F038111CC
:104A400009C00E9436040E9401058091E200846042
:104A50008093E2008091E10080FF17C08091E20026
:104A600080FF13C08091E2008E7F8093E2008091EE
:104A7000E20080618093E2008091D80080628093A0
:104A8000D80019BC85E0809374038091E10084FF15
:104A90002BC08091E20084FF27C080E189BD82E1C4
:104AA00089BD89B5982F917080FFFBCF8091D80088
:104AB0008F7D8093D8008091E1008F7E8093E1000C
:104AC0008091E2008F7E8093E2008091E20081601D
:104AD0008093E20080917503882309F447C084E045
:104AE00080937403809174038091E10083FF27C059
:104AF0008091E20083FF23C08091E100877F809353
:104B0000E10082E080937403109275038091E100CC
:104B10008E7F8093E1008091E2008E7F8093E2009F
:104B20008091E20080618093E20042E060E080E0FA
:104B30000E94CF048091F00088608093F000FF9184
:104B4000EF91BF91AF919F918F917F916F915F9105
:104B50004F913F912F910F900FBE0F901F9018957E
:104B600019BC1092740310924F0374CF8091E3002C
:104B700087FD93E090937403B5CF78941F921FB68E
:104B80001F9211248F939F93AF93BF9380914803FB
:104B900090914903A0914A03B0914B030196A11D46
:104BA000B11D8093480390934903A0934A03B093A7
:104BB0004B03BF91AF919F918F911F901FBE1F908C
:104BC00018951F921FB61F9211248F939F93AF9336
:104BD000BF9380914703811113C080914803909146
:104BE0004903A0914A03B0914B034196A11DB11D09
:104BF0008093480390934903A0934A03B0934B03D7
:104C0000BF91AF919F918F911F901FBE1F901895DC
:104C1000CDB7DEB72A970FB6F894DEBF0FBECDBF73
:104C200084B7877F84BF0FB6F894A8958091600001
:104C3000886180936000109260000FBE80E890E071
:104C40000FB6F89480936100909361000FBE85B712
:104C5000806885BF85B7806885BF87E697E09093B9
:104C6000DD018093DC010E9436040E9401058091E1
:104C7000E20084608093E20078948091740388233A
:104C8000A1F01091E9001F709091EC00892F8170C4
:104C900090FD80E8182B1092E9008091E80083FDD8
:104CA0000E946E141F701093E90082E084BD93E0AF
:104CB00095BD9AEF97BD80936E0000EA11E0D80190
:104CC0008D918D018F3F11F00E946907B1E00C3A80
:104CD0001B07A9F70CEA11E0F80181918F018F3FC2
:104CE00011F00E946907F1E0053B1F07A9F788E171
:104CF000EDEAF2E0DF01282F1D922A95E9F7E2E9BB
:104D0000F2E0DF011D928A95E9F78CE690E00E94BF
:104D1000E729AC0190938D0280938C0230E020E073
:104D2000FA01E20FF31F90E011929F5F9930E1F7D3
:104D3000275F3F4F2C36310599F790E080E00E94C5
:104D4000AD29893E9E4F11F00E942A1782E090E023
:104D50000E949F298093C6020E94BD1290938303F4
:104D6000809382030E94CF17EFE3FCE93197F1F7BC
:104D700000C000000E94CF178091AD0280FF08C0E4
:104D80006FEF7FEF90E080E00E94D1290E94630DD9
:104D900083E090E00E949F29682F70E090E080E01F
:104DA0000E941E0C279A2F988AE08093800089E148
:104DB000809381008FEF9FEF909387008093860010
:104DC0000E94A6178CE090E00E949F29482F50E097
:104DD00070E060E04093390350933A0360933B03E3
:104DE00070933C03882309F4F3C0843009F0F3C0C6
:104DF00081E080933803559A6E9A0E94A61780919D
:104E0000AA02811136C090E080E00E94AD29893E5F
:104E10009E4F21F00E942A170E944A1488E090E0D9
:104E20000E94A72960933203709333038093340365
:104E3000909335036E7F71F40E944A1488E090E0ED
:104E40000E94A72960933203709333038093340345
:104E5000909335030E94C2061092E60280913203BD
:104E600080FF04C060E086950E94EC1381E080938F
:104E7000AA0282E191E0909344038093430358E1B6
:104E8000C52ED12C60E4862E9924939475ECA72E20
:104E900072E0B72E8091740300E112E1853009F4CD
:104EA000F7C00E94CF17882359F08FB7F89440912C
:104EB00048035091490360914A0370914B038FBF9F
:104EC000ADEAB2E0E7ECF2E010E000E0702F8D9187
:104ED0009D91219131912817390709F4FEC02827A7
:104EE000392760E0EE24E394F12CA9014E215F21E3
:104EF000452B09F4ECC069837A839C012E213F2164
:104F000091E0232B09F490E09B830E94D5058160FA
:104F1000782F9D838C8349815A816B818D810E947A
:104F20001024000F111FF801E953FD4F808191817A
:104F3000E826F926F182E0828091E6028823D1F109
:104F40008091E502E0913203E695E81BE093E102EF
:104F5000823009F0D9C0F0E0E156FB4FE4910E2F0A
:104F600010E0E8EEEE2EEFE0FE2E8091E2028823C4
:104F700061F01092E2020E94D5059093E0028093C6
:104F8000DF021092E4021092E3020E94D505E09144
:104F9000DF02F091E0028E1B9F0B8F3F9F4750F482
:104FA000E00FF11FF093E002E093DF028FED92E05B
:104FB000F70109950E940D069091C502891709F421
:104FC00069CF0E940D068093C5020E94990C62CFA2
:104FD0001092380310CF10923803109239030BCF80
:104FE00080917403843009F443C080E00E94190664
:104FF00080E00E94990C1092E6028091AC0281112F
:1050000016C09092AC0280913203982F91709093C9
:10501000AB028E7F809332032FEF80E792E0215026
:1050200080409040E1F700C000000E94910D109276
:1050300047030FB6F894A895C09260000FBE809207
:10504000600083B7817F846083BF83B7816083BF43
:105050007894889583B78E7F83BF0FB6F894A89510
:1050600080916000886180936000109260000FBEA4
:1050700080917303882361F00E94CF17EDEAF2E07C
:1050800081919191892B09F099C0AE16BF06C1F7A5
:1050900080917403853009F4A3CF0E9459140E94B3
:1050A000A6170E940D060E94990C1092AC028091E6
:1050B000AB02882349F080913203816080933203F0
:1050C00060E086950E94EC130E94CB12EACE6F5FDF
:1050D000EE0CFF1C693009F008CF0F5F1F4F0C303A
:1050E000110509F0F3CE8FEF8E838F8318860E940F
:1050F000D5058160782F9A8789874E815F81688581
:105100008A850E94102418CF863059F4F0E0E456C6
:10511000FB4FE4910E2F10E078EDE72E7FE0F72EA5
:1051200024CF893061F4E695F0E0E756FB4FE49137
:105130000E2F10E064E4E62E6FE0F62E16CF8F30CF
:1051400061F4E695F0E0EA56FB4FE4910E2F10E093
:1051500056EDE52E5EE0F52E08CF853159F4F0E0EE
:10516000ED56FB4FE4910E2F10E048E8E42E4EE0A0
:10517000F42EFBCE08E210E09FEFE92E9DE0F92E21
:10518000883109F4F2CE833249F4E1E9F4E0059183
:1051900014913FE7E32E3FE0F32EE7CE04EF11E05A
:1051A00026ECE22E2DE0F22E843209F4DECE00ED64
:1051B00017E081ECE82E85E0F82ED7CE09BD19BDA9
:1051C00009B400FEFDCF8091D8008F7D8093D80078
:1051D0008091E00082608093E0008091E00081FD9A
:1051E000FCCF0E94591454CFDB018F939F930E94F0
:1051F0008029BF91AF91A29F800D911DA39F900D1B
:10520000B29F900D1124089587FB082E062687FD76
:10521000819567FD61950E9493290EF4919507FC95
:1052200081950895AA1BBB1B51E107C0AA1FBB1F94
:10523000A617B70710F0A61BB70B881F991F5A9522
:10524000A9F780959095BC01CD01089597FB072E95
:1052500016F4009407D077FD09D00E94122907FCAC
:1052600005D03EF4909581959F4F08957095619576
:105270007F4F0895A1E21A2EAA1BBB1BFD010DC092
:10528000AA1FBB1FEE1FFF1FA217B307E407F507F6
:1052900020F0A21BB30BE40BF50B661F771F881FD2
:1052A000991F1A9469F760957095809590959B0168
:1052B000AC01BD01CF010895EE0FFF1F0590F491E1
:1052C000E02D09940E946A29332312F48A1B9B0B58
:1052D0000C947B29A29FB001B39FC001A39F700DC6
:1052E000811D1124911DB29F700D811D1124911DEE
:1052F00008950E946A29B7FF0895821B930B0895B1
:105300000E946A29A59F900DB49F900DA49F800DC7
:10531000911D11240895B7FF0C9480290E948029C3
:10532000821B930B0895991B79E004C0991F96176F
:1053300008F0961B881F7A95C9F780950895F9990A
:10534000FECF92BD81BDF89A992780B50895A6E158
:10535000B0E044E050E00C94D929A8E1B0E042E08C
:1053600050E00C94D929262FF999FECF92BD81BD2A
:10537000F89A019700B4021639F01FBA20BD0FB693
:10538000F894FA9AF99A0FBE08950396272F0E946F
:10539000B4290E94B329252F0E94B429242F0C94EC
:1053A000B4290196272F0E94B4290C94B329DC015B
:1053B000CB01FC01F999FECF06C0F2BDE1BDF89A20
:1053C000319600B40D9241505040B8F708950F93B4
:1053D0001F93CF93DF938230910510F482E090E029
:1053E000E0918603F091870330E020E0B0E0A0E098
:1053F000309799F42115310509F447C0281B390B62
:1054000024303105C0F58A819B816115710571F1E8
:10541000FB0193838283FE0111C04081518102818F
:10542000138148175907F8F04817590799F410974E
:1054300061F012960C93129713961C933296CF013B
:10544000DF91CF911F910F910895009386031093E0
:105450008703F4CF2115310519F04217530718F4CB
:105460009A01BD01EF01DF01F801C2CF90938703DC
:1054700080938603D0CFFE01E20FF31F81939193B7
:105480002250310939832883DACF20918403309167
:105490008503232B41F420910201309103013093C5
:1054A000850320938403209100013091010121158F
:1054B000310541F42DB73EB74091040150910501EB
:1054C000241B350B409184035091850342175307E9
:1054D00008F0B5CF241B350B2817390708F4AFCFD8
:1054E000BC016E5F7F4F2617370708F4A8CF640F03
:1054F000751F7093850360938403FA0181939193E0
:105500009ECFCF93DF930097E9F0FC01329713828F
:105510001282C0918603D0918703DE0130E020E043
:105520002097A1F420813181820F931F2091840361
:10553000309185032817390709F067C0F093850378
:10554000E0938403DF91CF910895DA01AE17BF078E
:1055500008F040C012964D915C9113979D01411542
:10556000510599F7D9011396FC93EE9312974D913B
:105570005D91A40FB51FEA17FB0779F48081918133
:105580000296840F951FD90111969C938E93828168
:10559000938113969C938E931297B0E0A0E08A813A
:1055A0009B810097B9F5FE0181919191E80FF91F58
:1055B00080918403909185038E179F0719F61097A9
:1055C00061F51092870310928603D0938503C093F0
:1055D0008403B8CFB383A28340815181840F951F88
:1055E000A817B90771F44E5F5F4F8D919C91119789
:1055F000480F591F5183408312968D919C9193833C
:1056000082832115310509F0ADCFF0938703E09334
:10561000860398CFDE01EC01C2CF13961C921E9236
:105620001297D3CFFC014150504030F00190061644
:10563000D1F73197CF010895882799270895FB0165
:10564000DC0104C08D910190801921F4415050403B
:10565000C8F7881B990B0895F894FFCF600B600B77
:10566000690B690B6B0B690B690B690B600B600BAA
:10567000700B690B690B700B52157A1512177A159E
:105680001217AD15CE151217CB16D816971F971FE8
:10569000CB1FCB1F8520FA1FFA1FFA1F9F208321E3
:0456A00092219221A0
:1056A40000008C032000AE0000FA0BAE0001FA0BE0
:1056B400FFFFC305230DC2051F0D1B0DC0050119F6
:1056C4001A1B1C1D1E1F20212201020100000000C4
:1056D40000000000000000000000000000000000C6
:1056E40000000F0C0912870D0000000000000000EC
:1056F4000000000000000B010F0C0912870D0000D0
:10570400000000000000000000000000060101810C
:105714008283E200E900EA00B500B600B700CD00DC
:105724008301CC008A019201940121022302240204
:105734002502260227022A02B300B4006F0070007B
:10574400303132339091353697349694F0F1F4F544
:10575400F6F76766920001020202020606060909CC
:10576400090909090F0F0F0F0F0F1515151819192E
:0C57740019191919191919192324000416
:00000001FF
