:100000000C94ED030C9425040C9425040C94250405
:100010000C9425040C9425040C9425040C942504BC
:100020000C9425040C9425040C9413240C94CF23D5
:100030000C9410250C9425040C9425040C94250490
:100040000C9425040C9425040C9425040C9425048C
:100050000C9425040C94EC240C9425040C94250495
:100060000C9425040C9425040C9425040C9425046C
:100070000C9425040C9425040C9425040C9425045C
:100080000C9425040C9425040C9425040C9425044C
:100090000C9425040C9425040C9425040C9425043C
:1000A0000C9425040C9425040C94250400000000F5
:1000B0000000000000000000000000000000000040
:1000C0000000000000000000000000000000000030
:1000D0007E0F00D4FFFFFFC7000000780000000083
:1000E000000000002A2B2800000000000000000093
:1000F0000000000000000029000000002C1E342039
:10010000212224342627252E362D3738271E1F205E
:100110002122232425263333362E37381F040506A3
:100120000708090A0B0C0D0E0F10111213141516E7
:100130001718191A1B1C1D2F3130232D35040506E5
:100140000708090A0B0C0D0E0F10111213141516C7
:100150001718191A1B1C1D2F3130354C3C2D003D32
:100160003E002D3E00E9000000C9000000E800004C
:1001700000C8000000EA000000CA000000EB000018
:1001800000CB000000E2000000C2000000E0000020
:1001900000C0000000E7000000C7000000EE000003
:1001A00000CE000000AC2000003F0E0000A90000BF
:1001B00000AE000000C9030000A9030000F4000025
:1001C00000D4000000F9000000D900000053010035
:1001D0000052010000C0030000B0000000F1000068
:1001E00000D1000000B5000000C30300006422003D
:1001F0000065220000AB000000BB00000060220090
:1002000000482200001E22000029003B003D003F64
:1002100000410000004400AE0047003A003C003EB0
:100220000040004200430045004600480035001FE2
:100230000021002300250027002E002A004A001E6E
:100240000020002200240026002D00000049004B61
:10025000002B001A0015001C000C001300300000D9
:10026000004D00140008001700180012002F003184
:10027000004C004E002961160009000B000E0033EF
:1002800000000000000000040007000A000D000F3D
:10029000003400286F00000000E1001D000600058A
:1002A0000010003700E1000000520000001B0019A0
:1002B00000110036003800000000000000E200E3FA
:1002C00000000000000000000000000000510000DD
:1002D00000000000002C420000E600B95D50004F15
:1002E0000029003B003D003F00410000004400AEFB
:1002F0000047003A003C003E0040004200430045F9
:10030000004600480035001F00210023002500277B
:10031000002E002A004A001E002000220024002691
:10032000002D00000049004B002B001A0015001C96
:10033000000C001300300000004D001400080017EE
:1003400000180012002F0031004C004E00296116E9
:100350000009000B000E0033000000000000000444
:100360000007000A000D000F003400280000000004
:1003700000E1001D000600050010003700E100004C
:1003800000520000001B0019001100360038000068
:1003900000000000000251E2000000000000000028
:1003A000000000000051000000000000002C0000D0
:1003B00000E700BA5D50004F00010001000100019C
:1003C0000001000000010001000100010001000126
:1003D0000001000100010001000100C35C010001F7
:1003E0000001000100010001000100010001000105
:1003F00000010001000100010001000000010001F6
:1004000000E05C0100028001000E8001000100009C
:1004100000010001000080048018801680010001A6
:1004200000005C01000100010001005000520001C9
:10043000000000000000000A802A00010051004F67
:10044000000100010000000000010001000C80011B
:10045000000100AE5DE500000001000000010001A8
:100460000001000100B05D0000000000000100017B
:10047000000000000000000000000000000100007B
:1004800000000000000100000001000100AC00AB12
:100490000000047F3F1F643214643214783C1E1E37
:1004A000140A05000101010101010101010202021A
:1004B0000202020202020303030303030303040410
:1004C00004040404040505050505060606060607DA
:1004D0000707070708080808090909090A0A0A0B93
:1004E0000B0B0C0C0C0D0D0D0E0E0E0F0F0F101034
:1004F00011111112121313141415151616171718BB
:100500001819191A1A1B1B1C1D1D1E1E1F20202125
:100510002222232424252626272829292A2B2C2D6C
:100520002D2E2F30313232333435363738393A3B8D
:100530003C3D3E3F404142434445464748494A4C82
:100540004D4E4F50515354555658595A5B5D5E5F4E
:10055000616264656668696B6C6D6F7072737577E4
:10056000787A7B7D7E8082838587888A8C8E8F9146
:10057000939596989A9C9EA0A2A3A5A7A9ABADAF70
:10058000B1B3B5B7BABCBEC0C2C4C6C9CBCDCFD15A
:10059000D4D6D8DBDDDFE2E4E7E9EBEEF0F3F5F803
:1005A000FAFDFFFFAA7F55402223252628292A2C61
:1005B0002D2F3032333536383A3B3D3E40424345AD
:1005C00047494A4C4E5051535557595A5C5E6062E8
:1005D000646668696B6D6F71737577797B7D7F81F8
:1005E000838587898A8C8E90929496989A9C9E9FF8
:1005F000A1A3A5A7A8AAACAEAFB1B3B4B6B8B9BB16
:10060000BCBEBFC1C2C3C5C6C7C9CACBCCCDCED084
:10061000D1D2D2D3D4D5D6D7D7D8D9D9DADADBDB71
:10062000DBDCDCDCDCDCDDDDDDDDDCDCDCDCDCDB08
:10063000DBDBDADAD9D9D8D7D7D6D5D4D3D2D2D151
:10064000D0CECDCCCBCAC9C7C6C5C3C2C1BFBEBC44
:10065000BBB9B8B6B4B3B1AFAEACAAA8A7A5A3A1B5
:100660009F9E9C9A98969492908E8C8A8987858377
:10067000817F7D7B79777573716F6D6B6968666457
:1006800062605E5C5A5957555351504E4C4A494727
:10069000454342403E3D3B3A3836353332302F2DCC
:1006A0002C2A29282625232205010980A10185035A
:1006B00019012AB700150126B700950175108100B0
:1006C000C0050C0901A101850419012AA002150128
:1006D00026A002950175108100C005010906A1013F
:1006E0008506050719E029E715002501950875011C
:1006F00081020507190029EF1500250195F0750104
:1007000081020508190129059505750191029501D8
:1007100075039101C005010906A101050719E0292A
:10072000E71500250195087501810295017508817D
:10073000010507190029FF150026FF009506750819
:10074000810005081901290595057501910295019A
:1007500075039101C009023B00020100A0FA0904DF
:1007600000000103010100092111010001224000E4
:1007700007058103080001090401000103000000CE
:10078000092111010001226D0007058203200001EB
:100790001201000200000008D804A2EC01000102CE
:1007A00000010803680038003800000028036800D2
:1007B00069006E00650079006200750073006800D2
:1007C00020006B006500790062006F00610072001C
:1007D0006400730000000403090411241FBECFEF5E
:1007E000DAE0DEBFCDBF04B603FE18C08091A703D8
:1007F0009091A803A091A903B091AA038730904BD0
:10080000A740B04B59F41092A7031092A80310927E
:10081000A9031092AA03E0E0F8E3099511E0A0E033
:10082000B1E0EAEEF5E502C005900D92AC3DB107EE
:10083000D9F723E0ACEDB1E001C01D92A73AB207B1
:10084000E1F70E9437250C94DD2A0C940000E8EDB6
:10085000F0E080818E7F80831092E2001092DA00B7
:100860001092E100A0EEB0E08C9181608C938081C9
:100870008F77808319BCA7EDB0E08C918E7F8C932D
:1008800080818F7E808310926E0308952091E40012
:100890003091E50095E6A9012091EC00822F81704E
:1008A00020FF06C08091E80080FF06C080E0089528
:1008B0002091E80022FD1AC080919303882389F0DB
:1008C000853089F08091EB0085FD0FC02091E40018
:1008D0003091E50042175307F9F29150E1F684E0B8
:1008E000089582E0089583E0089581E00895EF92ED
:1008F000FF920F931F93CF937C018B010E944604BC
:10090000C82F811117C08091E80085FD0BC0809130
:10091000E8008E778093E8000E944604882399F3CC
:10092000C82F08C0F70181917F018093F100015029
:10093000110949F78C2FCF911F910F91FF90EF90E4
:1009400008958091950387FF13C08091E80082FF8E
:1009500006C08091E8008B778093E80004C0809106
:1009600093038111F2CF0895809193038823D9F3E3
:100970008091E80080FFF8CF8091E8008E77ECCF7F
:10098000982F9093E900242F762F50E0891731F0AB
:100990007091EC002091ED005091F00021FD07C016
:1009A0009F5F973071F78093E90081E0089530915F
:1009B000EB003E7F3093EB003091ED003D7F3093B4
:1009C000ED003091EB0031603093EB007093EC0060
:1009D0002093ED005093F0002091EE0027FDE0CF32
:1009E00080E00895B0E0A0E0E8EFF4E00C9417296F
:1009F000C8EDD0E088818F7E8883E7EDF0E08081CC
:100A00008160808384E082BF81E080936E0388816F
:100A10008E7F888302EE10E0F80110821092DA00D7
:100A200081EEC82ED12CF601108288818F778883C1
:100A300088818068888388818F7D888319BC109223
:100A4000930310929403109292031092910390EEEC
:100A5000E92EF12CF70180818B7F80838881816072
:100A6000888342E060E080E00E94C004F60180815B
:100A70008E7F8083F801808181608083808188609F
:100A80008083F70180818E7F808388818061888365
:100A9000CDB7DEB7E8E00C943329FC0180919B03CD
:100AA00090919C0386179707A0F06115710529F4B2
:100AB0009091E8009E779093E80090E061157105B1
:100AC00051F4911108C08091E80082FF34C080E0A9
:100AD0000895BC01F2CF809193038823C1F1853042
:100AE000C1F18091E80083FD30C08091E80082FD73
:100AF000EACF8091E80080FFE1CF8091F300209160
:100B0000F200382F6115710519F02830310558F0C1
:100B100091E02830310509F090E02091E8002E772F
:100B20002093E800CBCF81918093F100615071094F
:100B30002F5F3F4FE7CF80919303882341F08530AB
:100B400041F08091E80083FFBECF81E0089582E00C
:100B5000089583E00895089508950895809170039D
:100B600008959C014FB7F8948091670390916803B2
:100B7000A0916903B0916A034FBF821B930B089544
:100B80002FB7F8948091670390916803A09169034F
:100B9000B0916A032FBF08952091640330916503DB
:100BA0002817390771F09093650380936403E091EF
:100BB0006203F0916303309721F00084F185E02D0A
:100BC0000995089520916003309161032817390732
:100BD00071F09093610380936003E0916203F09160
:100BE0006303309721F00680F781E02D0995089581
:100BF000E0916203F0916303309729F00190F08156
:100C0000E02D0995089580E008958F929F92AF920C
:100C1000BF92EF92FF920F931F93CF93DF93843095
:100C2000B8F5811136C090918000977F9093800035
:100C30002F98A0918600B0918700282F30E00E9465
:100C4000E42823E030E040E050E00E94B42889012D
:100C50009A0180918600909187006CE070E00E947C
:100C60008C2860177107D8F0C80169E070E00E9415
:100C70008C2870938D0060938C00DF91CF911F9131
:100C80000F91FF90EF90BF90AF909F908F9008953D
:100C900083E090918000986090938000CACF80910B
:100CA000860090918700E0908600F0908700E091A8
:100CB0008600F0918700C6E0D0E0BE010E948C283B
:100CC000060F171F211D311D4801590185E0880CB1
:100CD000991CAA1CBB1C8A95D1F7C701BE010E94B2
:100CE0008C289F0150E040E0260F371F411D511D09
:100CF000C501B4010E94B42849015A01E09186005F
:100D0000F0918700CA01B9010E946E289B01AC01D5
:100D1000DF010E94FA289B01AC01C501B4010E94C9
:100D20006E282FE096958795779567952A95D1F748
:100D3000009186001091870030E020E00617170729
:100D40002807390708F095CF6091860070918700D9
:100D500090CFFA01811101C0FB010995089580919E
:100D60005103982F9E7F29F48170826080935103F4
:100D700008958A34E8F381708864F8CFAF92BF9207
:100D8000DF92EF92FF920F931F93CF93DF93082F81
:100D9000162FE901E42FF0E0ED55FB4F611110C073
:100DA000E4915E2F4E2F4983E8835A83DF91CF91E0
:100DB0001F910F91FF90EF90DF90BF90AF9008953B
:100DC000E62EF12C4491D42EE42FF0E026E0829F11
:100DD000C00111242FEF30E0B9010E948C28802F30
:100DE00090E0880F991F55E5569FD001579FB00D91
:100DF00011248A1B9B0B982F990F890F5901AE184C
:100E0000BF08AE9ED001AF9EB00DBE9EB00D1124A6
:100E10005B2F189F80011124012F11275901A01A5F
:100E2000B10AAE9E8001AF9E100DBE9E100D112422
:100E30005901A81AB108AE9CC001AF9C900DBE9C90
:100E4000900D1124892F9927281B390B2E9FC00143
:100E50002F9F900D3E9F900D1124E92F6230710558
:100E6000A1F050F46115710509F49DCF6130710551
:100E700081F0EB2F512F97CF6430710569F080F02E
:100E80006630710509F48FCFF4CFE42F4B2F592F23
:100E90008ACFE42F412F87CFEB2F542F492F83CFB9
:100EA0004B2F5D2DE12F7FCF80E00895F894E82F40
:100EB000E295EF70F0E031A1282F2F7081E090E0F3
:100EC00001C0880F2A95EAF7982F9095932391A354
:100ED00092A1892B82A3789408959091A10392FF07
:100EE00006C0282F28712830F9F4877F846093FF8B
:100EF00006C0282F28712831F1F4877E8461209163
:100F0000A20320FF06C0382F38713830D9F4877F0C
:100F1000816021FF06C0282F28712831D1F4877EF7
:100F2000816194FD877E0895282F24712430F9F67D
:100F30008B7F8860DCCF282F2471243101F78B7ED2
:100F40008861DDCF382F3171313019F78E7F88609D
:100F5000E0CF282F2171213121F78E7E8861E1CFEA
:100F6000972F7C30A8F4693098F470E029E0929FC4
:100F7000600D711D1124FB019CE6899FE00DF11DA0
:100F80001124EE0FFF1FE75FFD4F859194910895A7
:100F900080E090E00895CF93DF93EC0182389105D3
:100FA000A9F1D8F58133910509F496C048F5893245
:100FB000910509F48AC08A9709F495C0C11522E504
:100FC000D20708F0B6C0C11531E5D30708F026C135
:100FD000C83ED10508F09CC0C03ED10560F5C83AB6
:100FE000D10508F087C0C53AD10508F0EFC0C1307F
:100FF000D10509F12097F9F0C430D105E0F440C0E3
:101000008533910509F45AC0C997C1F68091A103AF
:10101000837089F0C0EED0E00EC0833E910599F157
:1010200070F4803E910501F1823E910539F6809180
:10103000A10382FD21C0CE01DF91CF910895863EAC
:10104000910561F1873E910571F1843E910509F0AA
:10105000B5CF8091A20381FFEECF8091A103C7EEAF
:10106000D0E084FD0DC0E7CF8091A10380FD07C1D2
:101070009091A20390FFDFCFC3EED0E084FFDBCFDF
:10108000D0E0C0E0D8CF8091A10382FDFBC0909159
:10109000A20390FDBFCF84FFCECFF2CF8091A103FA
:1010A00083FDDDCFC8CF8091A10383FDEEC0909179
:1010B000A20391FFF0CFC4EED0E0BDCF8091A10399
:1010C00085FFB9CFC9E2D0E0B6CF8091A10385FFFB
:1010D000B2CFC5E3D0E0AFCF8091A10386FFABCF05
:1010E000CAE2D0E0A8CF8091A10386FFA4CFC1E3DC
:1010F000D0E0A1CFCF3BD10518F6C85AD0E0CC0F35
:10110000DD1FCE58DE4F0990D881C02DD46493CF17
:10111000C11540E5D40708F064C0C11580E4D807C4
:1011200008F05CC0CE019A9581159F4108F483CFE9
:10113000A7CFC11536E5D30718F5C11545E5D40786
:1011400008F084C0C11584E5D80708F07AC09C2F48
:10115000969596959E0123703327C115D34508F4C3
:1011600062C0C1E0D0E002C0CC0FDD1F2A95E2F7DB
:1011700030E2939FC0011124C82BD92BDA685BCFD2
:10118000C1158AE5D80778F4C11599E5D90708F0A3
:1011900068C0C11528E5D20708F472CFDC2FCC2730
:1011A000C06FD06A48CFCE0190568115904208F0AA
:1011B00067CF8D2F8F710E946D0790E0982F882741
:1011C00088279F719C012C2BE90149C0C55AD0E0AA
:1011D000C159DE4FC881D0E0D0642DCFDF70D06A16
:1011E0002ACFCE01E4E096958795EA95E1F78370E2
:1011F0002C2F26952695237040E2249F90011124E0
:10120000382B8C2F8370C1E0D0E002C0CC0FDD1FE3
:101210008A95E2F7C22BD32BDC680DCFDC2FCC27CD
:10122000C16FD06A08CFC1E0D0E002C0CC0FDD1F93
:101230002A95E2F720E2929FC0011124C82BD92BF6
:10124000EBCFDC2FCC27C46FD06AF5CE8C2F0E9459
:101250006D07C82FD0E0DC2FCC27CC27DF71D06200
:10126000EACE8C2F8F700E946D0734E0D695C7951B
:101270003A95E1F7CF709C2FEC01D069DCCEC9E341
:10128000D0E0D9CEC2EED0E0D6CEC6EED0E0D3CEFE
:101290008091A20281111092A202089580959091EE
:1012A0005E03982390935E030895809590915F0369
:1012B000982390935F03089590916E019923D1F044
:1012C0009091A10397FF16C0E82FE695E695E69565
:1012D000EE31E0F4F0E0E252FE4F282F277081E07B
:1012E00090E001C0880F2A95EAF7809592818923C2
:1012F00082830895E0EEF1E09191891303C0DF014C
:1013000011971C9291E0E63EF907B1F7089590918C
:101310006E019923C1F09091A10397FF14C0E82FAB
:10132000E695E695E695EE31F8F4F0E0E252FE4FF0
:10133000877021E030E001C0220F8A95EAF78281B0
:10134000822B82830895A0EEB1E0EFEF90E02D9123
:10135000821751F0EF3F19F4211101C0E92F9F5F6F
:101360009630A9F7EF3F09F408950E2E000CFF0BFD
:10137000E252FE4FE6CF209181029091500256E05A
:10138000291302C080E0089530E0529FF001539F7E
:10139000F00D1124EF5AFD4F7181761306C0708154
:1013A000781303C07281741304C02F5F3F4F2770FE
:1013B000E7CF81E0089580918102909150029813C7
:1013C00001C008958F5F8770FACFB0E0A0E0EBEE28
:1013D000F9E00C9416298C01C090C502D090C60289
:1013E000E090C702F090C8028091A3029091A402FD
:1013F000A091A502B091A602C82AD92AEA2AFB2AFE
:10140000CFE1D0E0BC2ED701C6010C2E04C0B695AA
:10141000A795979587950A94D2F780FD09C02197E3
:1014200088F7B12C8B2DCDB7DEB7E9E00C943229CB
:10143000B8018C2F0E94B0070E94CB07019779F367
:10144000F1CFCF93DF93EC010E94E509BE010E942A
:10145000B0070E94CB07DF91CF910895292F9C30D0
:1014600080F5893070F590E039E0239F800D911D63
:101470001124682F677023E0969587952A95E1F7E8
:1014800025E0289FF001299FF00D1124EC5FFD4F0E
:1014900050E040E080E0219130E0062E02C0369519
:1014A00027950A94E2F721703327042E01C0220FFA
:1014B0000A94EAF7822B4F5F5F4F4530510559F789
:1014C000089580E00895292F9C30A0F5893090F58B
:1014D00090E039E0239F800D911D1124282F277063
:1014E00041E001C0440F2A95EAF723E096958795DD
:1014F0002A95E1F725E0289FF001299FF00D11249E
:10150000EC5FFD4F30E020E070E05191DF0111977A
:10151000CB01022E02C0969587950A94E2F781705E
:1015200081958527842385278C932F5F3F4F253016
:10153000310559F70895FC01808191810E94210AAB
:1015400092959F70963091F058F4925F9F70923010
:1015500058F4803F19F030F4883E30F481E008956B
:101560009A5FF4CF843FD1F380E00895883EB0F3D2
:10157000813FD1F7F3CF82FB992790F981FD05C018
:101580005D9A911104C0769A08955D98FACF769885
:1015900008959C013A9521153F4150F5FC01EE2735
:1015A000F170BC0166277270AC01442754709C0135
:1015B0002227387094FF0EC080E1EF2B09F480E001
:1015C000672B09F08062452B09F08064232B89F09A
:1015D0008068089581E0EF2B09F480E0672B09F023
:1015E0008260452B09F08460232B19F088600895F0
:1015F00080E0089580936B0370936D0360936C0398
:1016000080919303843001F582E08093E9008FEFAD
:101610009091E800815095FD06C095ED9A95F1F7FF
:1016200000008111F5CF8091E80085FF0DC050E0EA
:1016300040E063E070E08BE693E00E9477048091E5
:10164000E8008E778093E8000895BC0184E00E9452
:10165000FA0A0895BC0183E00E94FA0A0895CF9324
:10166000DF93EC0180916E018823B1F18091A10399
:1016700087FF32C060E282E08093E9008FEF9091B3
:10168000E800815095FD06C095ED9A95F1F70000B0
:101690008111F5CF8091E80085FF1BC080916E011C
:1016A00070E050E040E0811104C050E040E068E0AC
:1016B00070E0CE010E9477048091E8008E778093DD
:1016C000E80080E2FE01A1E7B3E001900D928A9567
:1016D000E1F7DF91CF91089568E081E0CDCF81E01F
:1016E0008093E00080E28093D8001092C9008FE1DF
:1016F0009EE40197F1F700C0000087E090EBDC0169
:101700008093A7039093A803A093A903B093AA037F
:1017100088E19CE00FB6F894A895809360000FBE16
:1017200090936000FFCF8091510380FD0AC0E9E0F3
:10173000F3E0118210821282339653E0E135F5070F
:10174000C1F7539A3BB1377F2BB128604FB7F8945C
:1017500089E093E0FC015191CF0168E02BB90000D2
:1017600000C057FF3BB9550F000000C000C000C0CB
:101770003BB900C06A9591F7F3E081359F0751F7B7
:101780004FBF8FE594E00197F1F700C00000089586
:10179000EF92FF920F931F93CF93DF938C01C9E0D9
:1017A000D3E0F12CE12CF8019481609153038091F6
:1017B0005203FCE0EF16F104ECF49923E9F09E01EA
:1017C000409154030E94BE062FEFE21AF20A2396BC
:1017D00088E1E816F10439F70E94930BF80184813F
:1017E00090E00196817099278483CDB7DEB7E6E05B
:1017F0000C943529992319F39E0140E0E3CFB0E022
:10180000A0E0E5E0FCE00C941329EC014C81042FEE
:1018100010E09801D8010E94E4289B01AC010E94CD
:10182000FA284B015C01E0E2F0E0E01BF10BA5E5DA
:10183000B0E0AC019B010E94FA286B017C019F0182
:10184000DF010E94DC289B01AC010E9405299B015D
:10185000AC01280D391D4A1D5B1DC701B6010E9450
:10186000B428F22E822F90E039E23F1598F143E040
:10187000249F9001112435952795122F109599E0FA
:10188000C92E93E0D92E00E085E5E82EEF188E2DC5
:1018900001FD8F2D9601412F609153030E94BE06DA
:1018A0000F5F53E0C50ED11C083189F70E94930BDE
:1018B0009C8181E0992319F0903219F48FEF809385
:1018C0002B0180912B01890F8C83CDB7DEB7ECE023
:1018D0000C942F2925E530E0A901481B590BCA01BA
:1018E0009A01220F331F280F391F37FFC4CF2F5FF4
:1018F0003F4FC1CF0F931F93CF93DF93C9E0D3E046
:10190000FE01118210821282339683E0E135F807DE
:10191000C1F710E000E080910703082E000C990B3E
:10192000081719078CF180912A01082E000C990BD9
:10193000801791074CF19E0140915403609153032D
:10194000809152030E94BE060F5F1F4F23960831FD
:10195000110509F70E94930B8091290190910703CB
:10196000980F9093070320912A01280F20932A01B2
:10197000121614F497311CF0819580932901DF91A0
:10198000CF911F910F910895198218821A82DCCF8E
:10199000B0E0A0E0EEECFCE00C941629FC018281A2
:1019A000DD24DA9480FD02C0DD24D39409E013E045
:1019B000D0E0C0E028E1B22EF8011182108212823C
:1019C00094E0E92EF12CC12C809106038C0D893115
:1019D000C4F16B2D0E947E28892F082E000C990BD4
:1019E0008C179D0791F4809154038E9DA0018F9DCB
:1019F000500D11245595479555954795980160913F
:101A00005303809152030E94BE06CD0CF1E0EF1A01
:101A1000F108D1F621960D5F1F4FC831D10561F64F
:101A20000E94930B8091060391E0D91210C081119E
:101A30000CC087E180930603CDB7DEB7E9E00C94D4
:101A4000322987FFCACF885EC8CF8150F3CF90E09C
:101A50000196BE010E94A028EDCFEF92FF921F9346
:101A6000CF93DF93EC0189E0E82E83E0F82E10E0BD
:101A70008C8197014091540360915303810F0E9420
:101A8000BE06165F83E0E80EF11C103F89F70E9446
:101A9000930B9A818C8190FF08C08F5F8C83DF91BC
:101AA000CF911F91FF90EF9008958150F7CF9091C3
:101AB000510390FF0CC0E9E0F3E08183608342832F
:101AC000339693E0E135F907C1F70E94930B08952F
:101AD000A3E0B0E0EEE6FDE00C941B298C018091C0
:101AE000080381110AC09E012F5F3F4F4FEF6FEF38
:101AF0000E94BE068A8180930803F80164816130E8
:101B000069F08091080340E0662361F040E06230B4
:101B100011F44091080380E060E004C06091080384
:101B200040E080E00E94570DF801848190E001962A
:101B300063E070E00E94A02884832396E4E00C9484
:101B40003729A3E0B0E0E7EAFDE00C941D2990916D
:101B5000510390FF0AC09E012F5F3F4F0E94BE06B7
:101B60004B8169818A810E94570D2396E2E00C9493
:101B70003929CF93DF93EC01E1E5F3E04381628102
:101B80008C810E94A10D8C818F5F8C83DF91CF911E
:101B90000895CF93DF93EC01EC81F0E0E855FA4F24
:101BA0004491E1E5F3E0628181810E94A10D8C8185
:101BB0008F5F8C83DF91CF910895609158038CE003
:101BC00090E00E946429089520915703082E000C8C
:101BD000990B820F911D27FD9A9562E070E00E949B
:101BE000A0288F3F79F080935703E09157030E2E82
:101BF000000CFF0BE652FE4F8081809358030E9439
:101C0000DD0D089581E0EFCF682F86E090E00E941F
:101C100064290895CF9384E090E00E945029C82F52
:101C200082E290E00E945029982F8C2FCF91089546
:101C300060915103669570E04BE050E08EE191E0D9
:101C40000E94C32A892B19F481E0809305030E9426
:101C5000C0059093FF028093FE020895CF92DF9219
:101C6000EF92FF926B017C010E94AF06B701A601C3
:101C700088E090E00E947629FF90EF90DF90CF906F
:101C80000895A3E0B0E0E7E4FEE00C941029F82EFC
:101C9000762EE42E622E9091510390FF29C0E92FF9
:101CA000E695AE2FB0E0AB54BE4F8C918093040309
:101CB0009E7F923009F59E012F5F3F4F8F2D0E942E
:101CC000BE064B8169818A810E94570DF0925203B2
:101CD00070925303E0925403662051F060915103D7
:101CE0007091520380915303909154030E942E0EE1
:101CF0002396EFE00C942C29823019F4E0905403E1
:101D0000E5CF863019F4F0905203E0CF8930D9F353
:101D10008931E1F6E9518E2F8170582EE695F0E079
:101D2000ED55FA4FE4910E2F10E089E0C82E83E0C4
:101D3000D82EB12CA12C98E1892E912CC501B4018B
:101D40000E948C288F2D511013C0860F96014E2DA6
:101D5000672D0E94BE06A00EB11E83E0C80ED11CE6
:101D600081E5C81683E0D80649F70E94930BAECFF1
:101D7000861BECCFE1E5F3E0438128E0421B08F449
:101D800040E021E0628181810E94410E0895E1E5F9
:101D9000F3E0438128E0420F08F44FEF21E0628135
:101DA00081810E94410E0895E1E5F3E0628128E01F
:101DB000621B08F460E021E0438181810E94410EB2
:101DC0000895E1E5F3E0628128E0620F08F46FEF27
:101DD00021E0438181810E94410E0895E1E5F3E015
:101DE000818121E04381628188500E94410E0895E3
:101DF000E1E5F3E0818121E043816281885F0E9417
:101E0000410E089580915503882319F081508093E5
:101E10005503609151037091520380915303909147
:101E200054030E942E0E089580915503833018F4B8
:101E30008F5F80935503609151037091520380919D
:101E40005303909154030E942E0E089590915103D4
:101E500090FF2CC0917081112AC092609093510321
:101E6000662351F0609151037091520380915303A6
:101E7000909154030E942E0E60915103669570E07C
:101E80004BE050E08EE191E00E94C32A892BB1F033
:101E90001092050381E08093010320E040915403F8
:101EA00060915303809152030E94410E0895853240
:101EB00010F09864D3CF880F982BD0CF0E94180EC3
:101EC000E9CF61E00E94260F089580915103869525
:101ED000815009F484E261E00E94260F0895809108
:101EE000510386958F5F853208F081E061E00E94A2
:101EF000260F08959091510390FF08C0969598176A
:101F000028F0961718F40E946F0F08950E94610F31
:101F10000895E1E5F3E083E0808311828FEF82830F
:101F20008383148260817181828193810E942E0E4D
:101F3000089568EE7EEF90E080E00E94822960E0E4
:101F400082E090E00E94642960E083E090E00E94DB
:101F500064291092A3021092A4021092A50210927A
:101F6000A60260E084E090E00E94642964E082E2DE
:101F700090E00E94642960E085E090E00E9464297E
:101F800060E086E090E00E9464296FEF87E090E0D7
:101F90000E94642940E050E0BA0188E090E00E948D
:101FA000762960E08DE090E00E94642940E050E0F6
:101FB000BA0188E190E00E94762960E087E190E034
:101FC0000E94642940E050E0BA018CE190E00E9458
:101FD000762970E060E080E290E00E94822940E093
:101FE00050E0BA0188E190E00E947629E1E5F3E053
:101FF00080818160808386950E94610F21E040E8A6
:102000006FEF80E00E94410E8BE00E94610F40E084
:1020100050E0BA018FE090E00E94762940E050E065
:10202000BA0183E190E00E947629089590E080E073
:102030000E945E29883E9E4F51F00E94990F809128
:10204000560384708961809356030E94040E86E0D3
:1020500090E00E94502980935603803220F08770D0
:1020600088618093560390915603892F817090FF69
:1020700004C0892F8695869586950E940506089549
:10208000A8E1B0E0E6E4F0E10C9412298E010F5FC4
:102090001F4F88E1F80111928A95E9F750EAC52EA1
:1020A00051E0D52E580188248394912CF60181911A
:1020B0006F018F3F09F446C0F894E82FE295EF7066
:1020C000F0E021A18F70A40102C0440F551F8A9532
:1020D000E2F7CA01922F982B91A392A180958923B0
:1020E00082A3789400C0ECEAF1E021E030E0F12C2A
:1020F000E12C41914F3F09F4DEC0A42FA295AF70AF
:10210000B0E090968C9190E04F7002C095958795C5
:102110004A95E2F780FDCFC0C901E82AF92A220FCB
:10212000331F51E0E53BF50721F7F6013197808138
:102130008F3F11F00E94560780EA8A95F1F7F5016A
:10214000F182E082F2E0AF0EB11C4CEAC41641E02D
:10215000D40609F0ABCF48E150E0B8018DEA92E037
:102160000E94D02A6C01FF24F394892B09F4F12CEE
:10217000C114D10441F088E1F801ADEAB2E0019068
:102180000D928A95E1F71091AA02112309F49DC0DE
:102190000E94C0052091A8023091A902FC01E21B17
:1021A000F30B9F019093A9028093A802EF3FF105E2
:1021B00011F008F083C0EF2B41F11092AA021092A7
:1021C000A7026091AB027091AC02AB01475F5F4F19
:1021D0006B587F4F90E030E0FA0139978191882366
:1021E00039F0DF011197281708F46BC01C92912F6A
:1021F000E417F50799F7AF01475F5F4F4617570799
:1022000059F73093AA029093A702C114D10469F43C
:102210008091A702882309F449C0111106C00E94C9
:10222000C0059093A9028093A8026091AB027091BF
:10223000AC02E090AA02ADEAB2E04CEC52E0882495
:102240008394912C95E0792E0D911D91FA01819145
:102250009191AF0108271927FB0130E020E06401CC
:10226000022E02C0CC0CDD1C0A94E2F75801AC200F
:10227000BD20A114B10441F0B080B11005C070823E
:102280008C259D25EE24E39431962F5F3F4F293016
:10229000310529F7675F7F4FFA0132979183808379
:1022A000F2E0A53CBF0781F6E092AA028F2D689666
:1022B000EDE00C942E2990E080E02FCF2FEF30E05E
:1022C0007CCF821B8C93312F93CFC114D10409F49E
:1022D0009FCFA5CF80915F0390915E03892B809360
:1022E000DE019091A2029923A1F0892B8093DE0157
:1022F00080916E018823E1F18091A10387FF38C0AE
:102300008EE1E0EEF1E090E08150A0F591110E94A5
:10231000480940E250E062E872E08EED91E00E94F0
:10232000D02A892B21F180E2EEEDF1E0A2E8B2E0C3
:1023300001900D928A95E1F7E0916203F0916303B9
:102340003097A9F080916E01882359F08091A10304
:1023500087FF07C08091DE018093DF0186E08093D4
:10236000DE010280F381E02D8EED91E00995089564
:1023700086E0C7CF2191222339F29F5FC5CFCF934B
:10238000DF93EC0181E0898B80915F039F81892B32
:1023900080935F0380915E039885892B80935E0311
:1023A0000E946A11EA81FB81309729F06C897D894E
:1023B000CE0106960995DF91CF910895EF92FF9295
:1023C0000F931F93CF93DF93EC018A85811134C063
:1023D000EB80FC8087E5F81A26E12E9DC0012F9D39
:1023E000900D1124DC01A45DBE4F1496ED91FC917B
:1023F0001597309731F054966D917C918E5C9E4F7D
:10240000099586E18E9D80018F9D100D1124045D3C
:102410001E4FF80187810E945509F80180850E94AE
:102420004E090E946A11188219861B861E821D821F
:1024300010925D0310925C03CDB7DEB7E6E00C941A
:10244000352990E080E00E94E20590E080E00E9463
:10245000CC0510925E030E946A1108956093C50234
:102460007093C6028093C7029093C8020E94211203
:1024700008950F931F9341E050E060E070E004C0C6
:10248000440F551F661F771F8A95D2F7CB01BA01FB
:1024900060957095809590950091C5021091C60247
:1024A0002091C7023091C8026023712382239323B5
:1024B0000E942E121F910F9108959091A003809574
:1024C00089238093A003282F277091F4282F082EAA
:1024D000000C330B9217130659F09091A20392FF50
:1024E00007C08595859585950E9439121092A003A5
:1024F0000895CF93C091A203C2FB992790F9981732
:1025000091F080FBC2F9C093A2036091A10384E023
:1025100090E00E9464296C2F82E290E00E9464297E
:1025200082E00E945D12CF9108950F931F9341E0C6
:1025300050E060E070E004C0440F551F661F771F35
:102540008A95D2F78091C5029091C602A091C702E8
:10255000B091C8028A019B01082B192B2A2B3B2B17
:10256000C901B8010E942E121F910F9108959091F8
:10257000A20392FF07C098E0899F90011124236075
:102580002093A0030E94951208950F931F9341E09A
:1025900050E060E070E08A019B0104C0000F111F51
:1025A000221F331F8A95D2F7C901B8010E942E124B
:1025B0001F910F910895CF93DF93EC0188818230B2
:1025C00031F4FB0182810E94C51281E08B87DF918B
:1025D000CF9108956093A3027093A4028093A50203
:1025E0009093A6020E942112089510925F03809199
:1025F0006E01E0EEF1E0882361F08091A10387FF96
:1026000008C08EE1DF011D928A95E9F70E94211230
:10261000089586E0F7CFAAE2B0E0E1E1F3E10C949F
:102620001C2985E993E02091F100FC012193CF0161
:10263000F3E08D399F07B9F780919603833009F451
:1026400070C0B8F4813009F447C0823009F4B1C0D9
:102650008091E80083FF7EC280919503909196035C
:102660009A3008F077C2E92FF0E0E152F54D0C9472
:10267000D6288A3009F48CC08B3009F46FC08930B9
:1026800039F780919503813219F7809199039091E0
:102690009A030297E8F68091E800877F8093E8002C
:1026A0008091E80082FF38C09091F3008091F200A1
:1026B000029731F48091F100813011F0863021F4DD
:1026C0008091F100809370038091E8008B77809374
:1026D000E8000E94A104BCCF80919503813A09F0E3
:1026E000B7CF8091E800877F8093E80080919903BD
:1026F00090919A03892B61F460E281E793E070E0A6
:102700000E944D058091E8008B778093E800A0CF70
:1027100060E090E080E0F3CF809193038111C0CF1F
:1027200097CF80919503813A09F092CF80919903D8
:1027300090919A03892B09F08BCF8091E800877FD5
:102740008093E8008091E80080FFFCCF80916E01CB
:102750008093F1008091E8008E77B9CF8091950346
:10276000813209F075CF8091990390919A03892B5A
:1027700009F06ECF8091E800877F8093E8000E9487
:10278000A1048091970380936E010E94F51260CF9F
:1027900080919503813209F05BCF8091E800877FBB
:1027A0008093E8000E94A1048091980380936F03B6
:1027B0004FCF80919503813A09F04ACF8091E8008C
:1027C000877F8093E8008091E80080FFFCCF8091B4
:1027D0006F03BECF803899F0823809F0BBC1809179
:1027E00099038F70873008F0B5C18093E90080911C
:1027F000EB0085FB882780F91092E90006C08091E4
:10280000910390919203911182609091E800977FDB
:102810009093E8008093F1001092F1008091E8001D
:102820008E7794C1882309F482C1823009F092C165
:1028300080919703811185C1809199038F702FEF4B
:10284000280F263008F086C18093E9002091EB0024
:1028500020FF77C1933031F48091EB008062809348
:10286000EB006FC19091EB0090619093EB0021E041
:1028700030E001C0220F8A95EAF72093EA00109217
:10288000EA008091EB008860EACF811163C110916A
:1028900097031F778091E3008078812B8093E3007A
:1028A0008091E800877F8093E8000E94A1048091D6
:1028B000E80080FFFCCF8091E30080688093E30014
:1028C00082E0111183E08093930344C180588230E9
:1028D00008F040C180919703909198038C3D23E0CC
:1028E0009207A1F583E08A838AE289834FB7F8943F
:1028F000DE01139620E03EE051E2E32FF0E050933A
:102900005700E49120FF03C0E295EF703F5FEF7046
:102910008E2F90E0EA30C0F0C7968D939D932F5F85
:10292000243159F74FBF8091E800877F8093E800FA
:102930006AE270E0CE0101960E944D058091E800A8
:102940008B778093E80006C1C096E7CF409199034A
:1029500050919A03292F33272330310509F444C0BD
:1029600078F52130310509F46FC08BE390E0E5E59F
:10297000F7E02230310509F0EDC02091E800277F13
:102980002093E80020919B0330919C0382179307CA
:1029900008F49C0140E02115310509F064C04111A3
:1029A00062C08091E80082FDC9CF809193038823A3
:1029B00029F2853019F28091E80083FFF2CFBECF73
:1029C00021323105A9F12232310509F0C3C0411588
:1029D000510509F443C04130510509F0BBC08DE6F3
:1029E00090E0E8EAF6E0C9CF992781309105C1F07F
:1029F000009759F0029709F0ADC0E2EAF7E0E491E0
:102A00008E2F90E0E2EAF7E007C0E6EDF7E0E49110
:102A10008E2F90E0E6EDF7E0009709F49BC0ADCF74
:102A2000ECEAF7E0E4918E2F90E0ECEAF7E0F4CFE7
:102A30004115510571F04130510509F08BC089E015
:102A400090E0E0E8F7E099CF82E190E0E0E9F7E09C
:102A500094CF89E090E0E7E6F7E08FCF80E490E064
:102A6000E5E1F7E08ACF80919303882309F466CFEC
:102A7000853009F463CF8091E80083FD5FCF8091BA
:102A8000E80082FD8ECF8091E80080FF84CF909196
:102A9000F3008091F2002115310519F0883091057D
:102AA00050F041E0089709F040E08091E8008E770F
:102AB0008093E80070CF44914093F100319621500B
:102AC00031090196E8CF803809F044C08091E800D0
:102AD000877F8093E800809194038093F1009ECEDD
:102AE000811138C0109197031230A0F58091E80051
:102AF000877F8093E800109394030E94A104112320
:102B000011F084E005C08091E30087FDFACF81E0F9
:102B10008093930342E061EC81E00E94C00442E2B2
:102B200061EC82E00E94C0048091930313C0809105
:102B30009703813079F481E0933009F080E080934D
:102B400092031092E9008091E800877F8093E8006B
:102B50000E94A1048091E80083FF0AC08091E800F0
:102B6000877F8093E8008091EB0080628093EB0088
:102B7000AA96E3E00C9438290E94F5122FEF84E323
:102B80009CE0215080409040E1F700C0000088E1C7
:102B90009CE00FB6F894A895809360000FBE9093C8
:102BA0006000FFCF882321F00E944E090E946A1125
:102BB0000895882339F090915E03982B90935E03DB
:102BC0000E946A110895882321F00E9455090E94ED
:102BD0006A110895882339F090915F03982B9093A0
:102BE0005F030E946A110895882309F44DC082385A
:102BF00079F40E94F80581FF47C089E30E948709A4
:102C00000E946A1189E30E945C090E946A1108957A
:102C1000833859F40E94F80580FF36C083E50E948E
:102C200087090E946A1183E5EECF843859F40E9427
:102C3000F80582FF29C087E40E9487090E946A1173
:102C400087E4E1CF9CEF980F913AE8F290E2980F79
:102C5000983050F4877091E001C0990F8A95EAF797
:102C6000892F0E945509D1CF9BE5980F933028F406
:102C700090E080E00E94E2050895885A873120F4B0
:102C800090E080E00E94CC050895CF93DF93EC01A3
:102C90000E94F415CE010E94C90A9E01205E3109EE
:102CA0002830310510F0CD2B29F40E94E315DF9177
:102CB000CF9108950E94D215FACFFC018081813016
:102CC00029F4FB01808191810E9445160895CF93DC
:102CD000C82F8823C9F08238C9F40E94F80581FD05
:102CE00013C089E30E9487090E946A112FEF81EEC9
:102CF00094E0215080409040E1F700C0000089E35B
:102D00000E945C090E946A11CF9108958338A1F452
:102D10000E94F80580FDF8CF83E50E9487090E9494
:102D20006A112FEF81EE94E0215080409040E1F74E
:102D300000C0000083E5E4CF8438A1F40E94F805C8
:102D400082FDE2CF87E40E9487090E946A112FEF7B
:102D500081EE94E0215080409040E1F700C00000F7
:102D600087E4CECF8CEF8C0F813A88F580916E018D
:102D7000882301F18091A10387FF1CC0EC2FE69509
:102D8000E695E695F0E0E252FE4F828190E04C2F0E
:102D9000477021E030E002C0220F331F4A95E2F76E
:102DA00082239323892B79F08C2F0E945C090E9447
:102DB0006A1109C0E0EEF1E08191C817A9F321E0A2
:102DC000E63EF207C9F78C2F0E9487099BCF80E26D
:102DD0008C0F883068F4C77021E030E001C0220F0A
:102DE000CA95EAF780915F03822B80935F038ACFB5
:102DF000EBE5EC0FE33040F4F0E0E159FE4F808169
:102E000090E00E94E20580CFC85AC73108F07CCF1D
:102E1000EC2FF0E0EE0FFF1FEE58FE4F8081918106
:102E20000E94CC0571CF1F93CF93DF93182FD0E072
:102E3000C0E0893311F4C0E5D0E0812F0E9467160D
:102E4000209739F4812F0E94F415DF91CF911F91C3
:102E500008958FE99FE00197F1F700C000002197E6
:102E6000EFCF0F931F93CF93DF93C62FD42F022F53
:102E7000FC0182818823A9F060939F030E94C00512
:102E800090939E0380939D03C77081E001C0880FDB
:102E9000CA95EAF70E94EA15DF91CF911F910F9131
:102EA000089580919F03681332C080919D03909193
:102EB0009E030E94B105883C910548F510E21D0F64
:102EC000CD17B9F080E28C0F883040F4C77081E0F4
:102ED00001C0880FCA95EAF70E94E315183048F43C
:102EE00081E09D2F977001C0880F9A95EAF70E94A4
:102EF000EA15802F0E941317183070F6D77081E002
:102F000001C0880FDA95EAF70E94E315C5CFC770B4
:102F100081E001C0880FCA95EAF7F6CFB0E0A0E0E3
:102F2000E4E9F7E10C941829E82FF0E0E452FF4FB0
:102F3000D490282F26952695269530E0F901E45364
:102F4000FF4F0491877010E0082E02C01595079579
:102F50000A94E2F701701127F901E454FF4FE4905D
:102F6000F12C082E02C0F594E7940A94E2F791E060
:102F7000E922FF24F901E455FF4FC491D0E002C0DB
:102F8000D595C7958A95E2F7C170DD270115110522
:102F900019F081EE0E946716E114F10419F086EE33
:102FA0000E9467168D2D0E941317E114F10419F089
:102FB00086EE0E94F4150115110519F081EE0E94AC
:102FC000F415CD2B19F08CE20E941317CDB7DEB7A4
:102FD000E7E00C943429B0E0A0E0E1EFF7E10C94D5
:102FE00014296B017C01C7E0D0E00CE110E09924CA
:102FF00093948AE0A82EB12CD701C601002E04C0FC
:10300000B695A795979587950A94D2F78F70E9F4AE
:10301000911007C080915803823099F482E60E9493
:103020001317219704501109CF3FDC0729F4CDB7BE
:10303000DEB7EBE00C943029C430D105ECF6912CCE
:10304000DBCF80E30E948E17ECCF90915803923033
:1030500071F48A3050F490E00996B5010E94A028DE
:10306000875A0E941317912CDCCF8650FACF96EF27
:10307000980F963020F0805D0E948E17F4CF895A09
:10308000FBCFFF920F931F93CF93DF938C018AE0C6
:10309000F82EF8018491882309F44BC0813009F09F
:1030A00044C0E8012196FE018491813049F42196C3
:1030B000FE0184910E9413178E010F5F1F4FE9CF0D
:1030C000823039F4E8012296FE0184910E9467164D
:1030D000F3CF833039F4E8012296FE0184910E94F7
:1030E000F415EACF843041F7E8012296FE012491DD
:1030F00090E080E0FE0131962053330B2A303105F9
:1031000048F00197C8F2EFE9FFE03197F1F700C00E
:103110000000F7CFF89EA001F99E500D1124C901BF
:10312000840F951F2491EF01E5CF0E948E17E801CF
:10313000C3CFCDB7DEB7E5E00C943629CF93DF934C
:10314000EC010E94C90A9E01205E31092830310538
:1031500010F0209741F40E94EA158C2F0E94671608
:10316000DF91CF9108950E94D915F7CFDB01FC01C3
:103170008081813029F48D919C910E949E18089540
:10318000823039F41396ED91FC91149712968C913C
:10319000099508954F925F926F927F929F92AF929E
:1031A000BF92CF92DF92EF92FF920F931F93CF9334
:1031B000DF9300D000D00F92CDB7DEB77C01DC01E9
:1031C00013968D919C911497892B41F08C911196B7
:1031D0009C9189238F3F11F00C9466210F900F90E2
:1031E0000F900F900F90DF91CF911F910F91FF9053
:1031F000EF90DF90CF90BF90AF909F907F906F90B7
:103200005F904F9008950E94E509182F682F8981DB
:103210009A810E94630A69817A81812F0E94B00796
:103220008C01F701828181119DC1D70112968C9189
:103230000F3ABDE51B0709F427C208F07EC1013E25
:10324000110509F4D2C10E3AFDE51F0709F414C2B5
:10325000D70112962C91222389F00E3BBCE51B0767
:1032600009F46AC208F016C20C3BFCE51F0709F41A
:1032700032C20D3B3CE5130709F456C2C80197550D
:103280008F3F910511F008F040C040911C01509112
:103290001D014817590724F490931D0180931C01C8
:1032A00036E1389F5001399FB00C1124F501E45DDF
:1032B000FE4F6F01208BD70112969C918681992336
:1032C00009F485C2128701878F5F86830E94C0053B
:1032D000F601968785878091A202878380915E039D
:1032E00090915F03892B80870190F081E02D3097CA
:1032F00041F0D60154966D917C91C5018E5C9E4F34
:10330000099510935D0300935C03D70112968C918D
:10331000882379F080915F038272013EBCE51B0730
:1033200009F472C208F060C2003EFCE51F0709F410
:1033300067C217FFB6C2D70112968C91882309F491
:10334000ACC068010115B0EC1B0708F463C2E0ECE7
:10335000DE1A80915E0390915F03892B9091A20207
:10336000892B8272BB24B394811101C0B12C0E94BD
:10337000F80586958170B81629F0CC0CCD2CCC1CA4
:10338000DD08D194E894C7F8DD24F601EE0FFF1FA5
:10339000EE0FFF1FEB59FE4F4590559065907490CE
:1033A0004114510421E16206710408F076C0411411
:1033B000510431E06306710428F080915803823093
:1033C00009F46BC00E94F805869581708093020213
:1033D0000E94F8058170809301028091580381302A
:1033E00039F480910202882319F089E30E941317AF
:1033F00080915F038093000210925F0310925E033E
:1034000080915803813009F40CC2882309F405C265
:10341000823009F40FC2843009F420C2AFE3BCE962
:103420001197F1F700C0000041145104B1E06B06A0
:10343000710408F418C280915803811114C2E1E0AC
:103440006E1A7108C301B2014AE096958795779587
:1034500067954A95D1F778528F4F9F4F0E94EB178F
:10346000F3E05F2266247724C301B20174528F4FC8
:103470009F4F0E94EB1780915803813009F4FAC1E5
:10348000882309F4F3C1823009F400C2843009F4BE
:1034900006C28091000280935F03D70112968C913F
:1034A000882309F427C710929F030430BDE51B074A
:1034B00008F031C20B3FECE51E0730F4C801825022
:1034C0009C45449708F031C20E940A0E9093A203D3
:1034D0008093A10301313CE5130709F4F7C208F01A
:1034E00074C209309CE5190709F4E2C208F03EC233
:1034F0000530BCE51B0709F4CFC208F027C2033032
:10350000FCE51F0709F4BEC208F0C2C28091A10306
:10351000816002301C4509F4B8C26091A10310918A
:10352000A20384E090E00E946429612F82E290E08F
:103530000E9464290E94F512E5C0093B2DE512079F
:1035400009F47FC00A3B3DE5130709F489C0003B3D
:103550009DE5190709F07CCE882309F479CE8FE523
:1035600091E08FC080911C0190911D01019609F49A
:103570005CCE7CE2C72E71E0D72EB12CA12C992411
:10358000939480911C0190911D018A159B050CF468
:103590004CCEF6018681882309F1818592858017BA
:1035A000910739F480915C0390915D038017910736
:1035B000A9F0D6011F969C921F971C961C930E9300
:1035C0001B9751968C91811103C0C6010E94BF11B7
:1035D000C60106960E94DE1110925E03BFEFAB1A81
:1035E000BB0AE6E1CE0ED11CCCCF882351F082E09D
:1035F0000E94EA150E94C0059093FF018093FE018E
:1036000027CE8091FE019091FF010E94B105853681
:10361000910520F082E00E94E3151ACE81EE0E940F
:10362000671681EE0E94F41582E00E94E31582E0A5
:103630000E94951282E00E94B71281E00E945D1202
:1036400007CE882309F404CE84E0809358030E94B7
:10365000DD0D80E00E94391281E00E949512F8CDC4
:10366000882309F4F5CD109258030E94DD0D81E006
:103670000E94391280E0F1CF882309F4E9CD82E677
:1036800091E00E944118E4CD882309F4E1CD8CE556
:1036900091E0F7CF003C8CE5180709F47DC008F4F1
:1036A00067C0013CACE51A0709F0E8CD90915603DC
:1036B000892F8695869586958F5F8F719770843058
:1036C00008F082C0880F880F880F892B80935603DB
:1036D0008091560339C0809156038770886180932A
:1036E0005603887F91E009F490E08091560390FBA7
:1036F00080F98093560383E00E940506809156036B
:103700000E94040E8091A003877009F467CDF70131
:103710008281882309F462CD8091A20382FF5ECD6D
:1037200082E00E945D125ACD8091560387708E7F91
:103730008093560380E0E0CF80915603982F987FC6
:1037400079F0885080935603887F91E009F490E0E7
:103750008091560390FB80F9809356030E94040EDB
:10376000809156038695869586950E940506CACF58
:1037700080915603982F969596959695933040F4A0
:103780009F5F990F990F990F8770892B809356032C
:10379000809156038160E0CF8091560380FF07C07F
:1037A0008E7F809356030E94040E80E0DECF80FD62
:1037B000A9CF816080935603813019F489E080930A
:1037C000560380915603CACF9093560381CF882326
:1037D00009F49BCD8189882309F497CDC5018E5CBE
:1037E0009E4F0E94DE1191CD073E2CE5120708F096
:1037F000A0CD8EE1800F809358030E94DD0D99CDFE
:10380000811104C081E003C08111FCCF8FEF0E94C1
:10381000E40D8FCDF0E8DF1AB8CD86EE0E94671672
:10382000FDCD88E193E00E949E1888E193E00E941C
:103830004516F4CD80910102811103C083E50E94F9
:10384000131782EE0E9467168FE39CE90197F1F748
:1038500000C0000087E50E941317E0CD86EE0E94AD
:10386000131788E1F8CFC301B20103CE86EE0E94A0
:10387000F4150FCE8CE20E94131780910202882368
:1038800009F407CE89E30E94131703CE82EE0E944B
:10389000F415809101028111FCCD83E5F4CF88E21B
:1038A000F2CF043F2CE5120739F188F4093D8CE58D
:1038B0001807F1F00A3D9CE5190751F1083DACE508
:1038C0001A0709F0EACD26E241EE61EE0DC0063F8F
:1038D000BCE51B07C9F0A0F027E245EE66EE073F06
:1038E000FCE51F0709F0D9CDC7010E9431170ACFA7
:1038F00027E245EE65EEF8CF26E241EE60EEF4CF2A
:1039000027E245EE64EEF0CF26E241EE62EEECCF28
:1039100028E241E0EFCF0236FDE51F0709F4D4CDE0
:10392000063A2DE5120709F4CFCD06318CE51807CC
:1039300009F028C280915F038A7A91E009F490E04F
:10394000909303028111ECC089E2EBC007308CE553
:10395000180709F4A9C08091A103806108301C45B3
:1039600008F493C08091A10380648FC08091A1036B
:103970008B7F0D30ACE51A0709F487C098F480916D
:10398000A1038E7F0B30ECE51E0709F47EC0809109
:10399000A1038C600C301C4508F477C08091A10312
:1039A0008D7F73C08091A1038F7E0F302CE51207AD
:1039B00009F46BC08091A103877F00311C4508F496
:1039C00064C08091A1038F7D60C00E3F8CE5180715
:1039D00009F478C050F50531ACE51A0709F480C048
:1039E00098F48091A103837F0331ECE51E0709F46D
:1039F0004CC008F46FC00E94F5129091A103892F6A
:103A000097FB87F9805841C00C3F2CE5120709F459
:103A100047C008F053C00B3F1C4509F07ECD809194
:103A2000A20381608093A20378CD02309DE519073F
:103A300009F462C0B8F48091A2038C7F0115BDE542
:103A40001B0781F38091A203836001301D4550F371
:103A50008091A203982F909591708E7F892B90FB77
:103A600081F9E0CF0236FDE51F0709F44BC0063AA5
:103A70002DE5120709F44DC003301D4509F04DCD69
:103A800060E03BC08091A10382608093A10345CD9B
:103A90008091A1038460F9CF8091A1038860F5CF64
:103AA0008091A2038260BECF8091A1038062EDCF9E
:103AB0000E94F5128091A1038068E7CF8091A20354
:103AC0008E7FB0CF8091A2038D7FACCF8091A10378
:103AD0008F7BDBCF0E94F5128091A1038F77D5CF2A
:103AE0008091A10382FB992790F921E0922790FB16
:103AF00082F990FB83F9C9CF61E08EE090E00E94EB
:103B000064290BCD9091A103892F8F7E94FF806152
:103B1000BCCF9091A103892F8E7F90FF8160B5CF9C
:103B200085E30E9487090E946A11ECCD85E30E941B
:103B30005C09F9CF80915F0382720D3C9CE5190707
:103B400009F408C108F08CC0073CBCE51B0709F468
:103B5000EDC008F065C0043CFCE51F0709F4DCC0BB
:103B600008F04EC0033C1C4509F4B2C0D7011296C0
:103B70008C9112970D911C91882309F439C1C801C9
:103B80000E94E509D82E682FC8010E94630AB80177
:103B90008D2D0E94B0070E94CB078C01782EF70173
:103BA000D280958092943FE093228091A003877009
:103BB000C1F0BD2CDD20B1F0812F807F803421F059
:103BC00080E2800F883068F08091A20382FF09C0F4
:103BD00082E00E945D128091A0038770BB24B394A1
:103BE0008111B12CA12EA2942FE0A222FBE0FA15A4
:103BF00008F469C1EA2DF0E0E751F54D0C94D628A0
:103C0000053C9CE5190709F48CC04EEE5EE068EFB8
:103C10007EE0063C1C4509F0A9CF0E94A90672CDA2
:103C20000A3CBCE51B0709F48BC068F4083CFCE5C2
:103C30001F0709F480C041EE5EE064ED7EE0093CC0
:103C40001C4559F393CF0B3C3CE5130709F47DC0A9
:103C500042E05FE064E17FE00C3C1C45F1F286CF7E
:103C6000023DACE51A0709F482C0A8F40F3CECE56C
:103C70001E0709F476C008F472C0003D2CE5120757
:103C800009F472C06EE089E0013D1C4509F06ECF79
:103C90000E947A0F37CD053D8CE5180709F46DC0F9
:103CA00068F4033DACE51A0709F464C088E1043DFB
:103CB0001C4509F05BCF0E94610F24CD063DECE569
:103CC0001E0709F45DC00E351D4509F41BCD4ECF0E
:103CD0008091510380FF1BC08E7F809351036091C0
:103CE00051037091520380915303909154030E94A9
:103CF0002E0E109205032FEF30E782E02150304066
:103D00008040E1F700C000000E94930BFBCC816073
:103D1000809351038695CFCF45E65FE06FE67FE065
:103D20007CCF4FE65FE065E67FE077CF48EF5EE06F
:103D30006EEE7EE072CF44ED5EE061EE7EE06DCF30
:103D40004AEB5EE067EC7EE068CF47EC5EE06AEB52
:103D50007EE063CF44E15FE062E07FE05ECF81E040
:103D6000AACF65E082E094CF68E086E091CF64E17D
:103D70008FE08ECF67E185E18BCF62E289E188CF6A
:103D800083E299CF0B359DE5190771F158F40115C0
:103D9000BCE51B0791F00F3D1C4509F0E7CE0E94E2
:103DA000990F09C00D35FDE51F07A1F0F8F0083A9D
:103DB0001D4509F0DBCE0E94BC150E94F5128FEF65
:103DC00094E3ACE081509040A040E1F700C00000D7
:103DD0000E946F0B8091A20382FB882780F991E0FB
:103DE00089270E947912C2CE81E0FBCF80E0F9CF13
:103DF000C8010E942E0AD82ECACE212F2F70C22EA3
:103E0000107F19F0C29490EFC922DD20B9F0CC20C8
:103E100069F080E2800F883010F0711009C0809145
:103E20005F03C82AC0925F030E946A11802F49C0B5
:103E300080915E03C82AC0925E03F6CF802F0E9455
:103E4000F415CC2009F43FC0005E8C2D083010F032
:103E5000711003C00E94550902C00E944E090E94C1
:103E60006A1131C0312F3F70C32E107F103219F00C
:103E7000C29480EFC8227720A1F081E0781609F47F
:103E80007EC0DD2009F488C0992009F47EC0D701E6
:103E900015968C91159780FFC9CF8F7015968C93CE
:103EA00074C02091A20322FD47C0DD20F1F1CC2097
:103EB00039F080915F03C82AC0925F030E946A11A3
:103EC00080E00E946716EA2DE850FF0B349720F43B
:103ED0000E94F8050E94BB0ABB20B1F08091A003AC
:103EE00080FD12C0D70112961C9285958595859507
:103EF0000E949512C7010E94CA188091A00385955F
:103F0000859585950E94391285E0F701DE011196AD
:103F100001900D928A95E1F709811A81C8010E94EA
:103F20002E0AB8010E94B00759C980E00E94F4151A
:103F3000CC2049F28C2D8ECFDD20A1F09091A202F1
:103F40008C2D892B911003C00E94EA15BCCFA1E0F3
:103F50009A12FACF22FFB7CF981709F4B4CF809303
:103F6000A202B1CF911006C00E9448098C2D0E9478
:103F7000E315A9CFB1E09B1609F4A5CFF5CFDD205D
:103F800031F0E5E0E91508F49ECF8C2DDDCFF4E0AB
:103F9000F91508F498CFEACF992041F3B9E37B12E1
:103FA00009C0EFEFF7EE23E0E150F0402040E1F7E9
:103FB00000C00000802F0E94F41585CF812F8695C8
:103FC0008695837061F0813009F07DCFC8019370D0
:103FD000D11002C090E080E00E94CC0574CFC801EF
:103FE0009370D11002C090E080E00E94E2056BCF98
:103FF000812F837009F06DC0D11065CF802F82951D
:1040000086958770880F880F602F6F70462E512C11
:10401000712C612C082E04C0440C551C661C771CA6
:104020000A94D2F740E050E0BA0104FF0FC04FE01D
:1040300050E060E070E004C0440F551F661F771F1A
:104040008A95D2F74095509560957095812F869509
:1040500086958370823019F1A8F50091A302109122
:10406000A4022091A5023091A602813069F0442972
:10407000552966297729CB01BA0160237123822350
:1040800093230E94EA121FCF0429152926293729D4
:10409000CB01BA01602B712B822B932BF2CF4429D9
:1040A0005529662977290091A3021091A402209135
:1040B000A5023091A602CB01BA01602771278227A1
:1040C0009327DFCFCB01BA01642975298629972967
:1040D000D8CF8695DD2011F0812F8170882309F4D7
:1040E000F2CE802F829586958770880F880F602F7B
:1040F0006F70462E512C712C612C082E04C0440C7C
:10410000551C661C771C0A94D2F740E050E0BA01B7
:1041100004FF0FC04FE050E060E070E004C0440FC7
:10412000551F661F771F8A95D2F740955095609569
:104130007095812F869586958370823019F1A8F548
:104140000091C5021091C6022091C7023091C802A9
:10415000813069F04429552966297729CB01BA01B4
:1041600060237123822393230E942E12ACCE042954
:10417000152926293729CB01BA01602B712B822BF7
:10418000932BF2CF44295529662977290091C5023E
:104190001091C6022091C7023091C802CB01BA012A
:1041A0006027712782279327DFCFCB01BA016429CB
:1041B000752986299729D8CF1F70DD2029F0812FF6
:1041C0000E949512802FC0CE802F0E94E315812F70
:1041D0000E94391278CE802F32EF731609F43FC057
:1041E000371570F090EF7916D1F0A1EF7A1691F0B3
:1041F000DD2009F45BC0911019CE812F8F7133C07F
:10420000B3EF7B1699F1E4EF7E12F2CF8091A20317
:1042100082FD37C0812F8F71DD20D1F224C0DD20D7
:10422000C9F0F4E0F91508F44ECE1F7161E070E0BA
:1042300080E090E004C0660F771F881F991F1A95D1
:10424000D2F70091C5021091C6022091C7023091A9
:10425000C802A6CF25E0291508F435CEE6CF812F78
:104260008F71D110B5CF0E9495122DCEDD2029F08F
:10427000812F8F710E94C51226CE60E070E0CB01C5
:1042800073CFDD2041F01F71812F0E949512812F85
:104290000E94B71218CE81E00E945D1231E03915FC
:1042A00008F011CE82E00E945D120DCE992059F0E7
:1042B000893309F07FCE8FEF97EEA3E081509040D5
:1042C000A040E1F775CE812F8F7182CF85E0F70195
:1042D000DE01119601900D928A95E1F7F701228196
:1042E00089819A8121110C9403190E942E0A182F9A
:1042F0000C940B190631FCE51F0709F01BCC8091CB
:104300000302811113CC89E212CC1F93CF93DF9368
:1043100080914F02807F09F049C080914C02882330
:1043200009F444C080918102D091500260914A0208
:1043300070914B02A0914D02B0914E02C62FC7233F
:1043400016E0D81799F190E0109711F0CF3F19F4CB
:1043500001968770F6CF189F9001199F300D112498
:10436000F901EF5AFD4F41814713F2CF40814613C7
:10437000EFCF42814111ECCF438154814A1B5B0B4B
:10438000483C510528F780914F028F7080618093DF
:104390004F02F901EA5AFD4F80818F70806180835E
:1043A0008AE492E00E94CA180E94DB09DF91CF9153
:1043B0001F910895A1E1B0E0E0EEF1E20C94132921
:1043C0008C0185E0F801DE011D9601900D928A9521
:1043D000E1F7D8011296EC9012978AE4882E82E0D9
:1043E000982E40914D0250914E024115510509F40D
:1043F00030C190914A0220914B02892F82238F3F36
:1044000009F427C1DC901196CC9011971396AD90CA
:10441000BC901497F0904C02F501E41BF50BFF20C3
:1044200009F4EBC080914F02382F307FE83CF10552
:1044300008F0B7C0311177C0FE2C2C1115C09D11AA
:1044400013C0E11011C08F70806180934F02C401CE
:104450000E94CA1880914F02D80115968C938F2D17
:104460006196ECE00C942F29A114B10429F08D2D54
:104470008C218F3F09F00BC180E080FF14C04E2DCE
:104480006C2D8D2D0E94BB09882369F08AE492E08F
:104490000E94CA1886E0EAE4F2E0DF011D928A95E4
:1044A000E9F7F12CDCCFA114B10429F08D2D8C217A
:1044B0008F3F09F0E9C080E0B82FB170AB2E80FFCC
:1044C00029C04E2D6C2D8D2D0E94BB09B82E811157
:1044D00021C0DD86CE868D859E850E94210A292FEA
:1044E00022952F70223050F0243078F49F7051F0D4
:1044F000F8019581907F31F4FB2CB1CF9F7011F0C2
:104500008823D1F3805E8830B8F3C8010E94CA18AE
:10451000BA2CF2CFEE2009F4A2CF80914F02816035
:1045200080934F02BECF2C1112C09D1110C0E1101C
:104530000EC015968C93C8010E94CA1886E0F80137
:10454000AAE4B2E001900D928A95E1F788CFC80104
:104550000E949B0A882309F1EE20F9F080914F0216
:10456000803270F020914A0230914B0238872F83BD
:104570001986BB86AA868C87CE0107960E94CA1828
:1045800086E0F801AAE4B2E001900D928A95E1F785
:104590000E948521FF24F39462CFC8010E94CA18AB
:1045A000F9CF332309F472CF2C110FC09D110DC028
:1045B000E1100BC0F8018583C8010E94CA1886E08B
:1045C000D4011D928A95E9F74ACFC8010E949B0A3F
:1045D000882319F3EE2009F380914F02803280F294
:1045E00020914A0230914B023A8329831B82BD827B
:1045F000AC828E83CE010196C1CFE83CF105F8F67E
:10460000FE2CEE2051F22C1116C09D1114C0809189
:104610004F0280FD93CF982F907F09F48FCFF80140
:104620008583903F09F487CF982F907F905F8F709C
:10463000892B858380CFC8010E949B0A8111A0CF5E
:1046400080914F02816080934F02C8010E94CA1876
:1046500006CFEE2009F4A1CFC8010E949B0AF82ED4
:10466000882309F49ACF86E0F801AAE4B2E0019029
:104670000D928A95E1F780914A0290914B020E9437
:10468000210A0E948521EBCE81E08E2515CF81E0A5
:104690008E25F3CEA7E1B0E0E0E5F3E20C941C290F
:1046A0004B8B5C8B6D8B7E8B8F8B611110925E03BD
:1046B0001A8A198A85E0FE017396DE011D96019023
:1046C0000D928A95E1F786E0FE013D96DE01179690
:1046D00001900D928A95E1F7CE0107960E94DA21AA
:1046E000882359F016E0809181029091500289133D
:1046F00043C06796E3E00C94382986E0FE013796C4
:10470000DE01119601900D928A95E1F78A859B85CD
:10471000892B41F38F81988589238F3F19F320914D
:10472000500230E0C90101968770992740918102BB
:104730004817190671F40E94F51210925002109257
:10474000810286E0EAE4F2E0DF011D928A95E9F752
:10475000C9CF96E0929FD001939FB00D1124AF5A1C
:10476000BD4FFE01319601900D929A95E1F780932D
:1047700050020E94DB09B6CF819FC00111248F5ADD
:104780009D4F0E94DA21882309F4B3CF80918102E2
:1047900090E001968770992780938102A4CF1F92A1
:1047A0000F920FB60F9211242F933F934F935F9365
:1047B0006F937F938F939F93AF93BF93CF93DF9329
:1047C000EF93FF93D091E900DF708091EC00C82F48
:1047D000C17080FDC0E81092E9008091F000877FF1
:1047E0008093F00078940E940B131092E90080915E
:1047F000F00088608093F000CD2BCF70C093E9006B
:10480000FF91EF91DF91CF91BF91AF919F918F91E8
:104810007F916F915F914F913F912F910F900FBEBC
:104820000F901F9018951F920F920FB60F921124A0
:104830002F933F934F935F936F937F938F939F93A8
:10484000AF93BF93EF93FF938091E10082FF09C084
:104850008091E20082FF05C08091E1008B7F809310
:10486000E1008091DA0080FF24C08091D80080FFB1
:1048700020C08091DA008E7F8093DA008091D90089
:1048800080FF9DC080E189BD82E189BD09B400FE41
:10489000FDCF81E08093930380916E03811109C065
:1048A0000E9427040E94F2048091E20084608093B9
:1048B000E2008091E10080FF17C08091E20080FF5C
:1048C00013C08091E2008E7F8093E2008091E2002D
:1048D00080618093E2008091D80080628093D8004C
:1048E00019BC85E0809393038091E10084FF2BC085
:1048F0008091E20084FF27C080E189BD82E189BD0B
:1049000089B5982F917080FFFBCF8091D8008F7D63
:104910008093D8008091E1008F7E8093E1008091A8
:10492000E2008F7E8093E2008091E20081608093BC
:10493000E20080919403882309F447C084E08093C7
:104940009303809193038091E10083FF27C08091BE
:10495000E20083FF23C08091E100877F8093E10024
:1049600082E080939303109294038091E1008E7F04
:104970008093E1008091E2008E7F8093E20080913D
:10498000E20080618093E20042E060E080E00E940B
:10499000C0048091F00088608093F000FF91EF9157
:1049A000BF91AF919F918F917F916F915F914F9147
:1049B0003F912F910F900FBE0F901F90189519BC2B
:1049C0001092930310926E0374CF8091E30087FDE1
:1049D00093E090939303B5CF78941F921FB61F92E4
:1049E00011248F939F93AF93BF938091670390910E
:1049F0006803A0916903B0916A030196A11DB11DDE
:104A00008093670390936803A0936903B0936A034C
:104A1000BF91AF919F918F911F901FBE1F901895CE
:104A20001F921FB61F9211248F939F93AF93BF9332
:104A300080916603811113C0809167039091680390
:104A4000A0916903B0916A034196A11DB11D8093A5
:104A5000670390936803A0936903B0936A03BF91BF
:104A6000AF919F918F911F901FBE1F901895CDB74A
:104A7000DEB72A970FB6F894DEBF0FBECDBF85B75D
:104A8000806885BF85B7806885BF84B7877F84BF0E
:104A90000FB6F894A89580916000886180936000BB
:104AA000109260000FBE80E890E00FB6F8948093FB
:104AB0006100909361000FBE84E597E09093DD0163
:104AC0008093DC010E9427040E94F2048091E2009E
:104AD00084608093E2007894809193038823A1F00E
:104AE0001091E9001F709091EC00892F817090FD6A
:104AF00080E8182B1092E9008091E80083FD0E9465
:104B00000B131F701093E90082E084BD93E095BD04
:104B10009AEF97BD80936E0000EA11E07CEAE72EE1
:104B200071E0F72ED8018D918D018F3F11F00E9419
:104B30005607E016F106B1F70CEA11E0F801819191
:104B40008F018F3F11F00E945607F1E0053B1F07D0
:104B5000A9F788E1ECECF2E0DF01282F1D922A95FD
:104B6000E9F7EDEAF2E0DF011D928A95E9F78CE6BC
:104B700090E00E949829AC019093AC028093AB0224
:104B800030E020E0FA01E20FF31F90E011929F5F06
:104B90009930E1F7275F3F4F2C36310599F7559A49
:104BA0006E9A90E080E00E945E29883E9E4F11F050
:104BB0000E94990F82E090E00E9450298093E402C5
:104BC0000E940A0E9093A2038093A1030E944010BA
:104BD000EFE3FCE93197F1F700C000000E944010BC
:104BE0008091CC0280FF08C06FEF7FEF90E080E003
:104BF0000E9482290E946F0B83E090E00E9450295E
:104C0000682F70E090E080E00E94EA12279A2F98C7
:104C10008AE08093800089E1809381008FEF9FEF8D
:104C200090938700809386000E9416108CE090E09D
:104C30000E945029482F50E070E060E040935803F4
:104C40005093590360935A0370935B03882309F4CC
:104C5000BFC0843009F0BFC081E0809357030E9439
:104C600016108091C902811136C090E080E00E9448
:104C70005E29883E9E4F21F00E94990F0E94890F65
:104C800088E090E00E94582960935103709352038A
:104C900080935303909354036E7F71F40E94890FA5
:104CA00088E090E00E94582960935103709352036A
:104CB00080935303909354030E94AF061092050310
:104CC0008091510380FF04C060E086950E94260F0A
:104CD00081E08093C902109258030E94DD0D80E1AB
:104CE00091E0909363038093620358E1E52EF12CE9
:104CF00060E4D62ECC24C3948091930300E112E1AA
:104D0000853009F4C6C00E944010882359F08FB73F
:104D1000F894409167035091680360916903709122
:104D20006A038FBFACECB2E0E5EEF2E010E000E029
:104D3000702F8D919D91219131912817390709F498
:104D4000CDC02827392760E0AA24A394B12CA9015B
:104D50004A215B21452B09F4BBC069837A839C01FE
:104D60002A213B2191E0232B09F490E09B830E94B0
:104D7000C0058160782F9D838C8349815A816B8126
:104D80008D810E944A23000F111FF801EB51FD4F46
:104D900080819181A826B926B182A08280911C01D0
:104DA00090911D01B12CF6E1AF2E019609F0E1C002
:104DB000809105038111E7C00E94F8059091FD02E2
:104DC000891709F499CF8093FD020E94BB0A94CF02
:104DD0001092570344CF10925703109258033FCFBD
:104DE00080919303843009F443C080E00E9405065B
:104DF00080E00E94BB0A109205038091CB028111D2
:104E000016C0C092CB0280915103982F917090935D
:104E1000CA028E7F809351032FEF80E792E02150EA
:104E200080409040E1F700C000000E94930B109278
:104E300066030FB6F894A895E09260000FBED0927A
:104E4000600083B7817F846083BF83B7816083BF45
:104E50007894889583B78E7F83BF0FB6F894A89512
:104E600080916000886180936000109260000FBEA6
:104E700080919203882369F00E944010ECECF2E0EC
:104E800081919191892B09F013C1A2E0E43EFA07C8
:104E9000B9F780919303853009F4A2CF0E94F512EF
:104EA0000E9416100E94F8050E94BB0A1092CB02C5
:104EB0008091CA02882349F08091510381608093D8
:104EC000510360E086950E94260F0E94180E1BCFAA
:104ED0006F5FAA0CBB1C693009F039CF0F5F1F4F01
:104EE0000C30110509F024CF8FEF8E838F83188645
:104EF0000E94C0058160782F9A8789874E815F81E3
:104F000068858A850E944A2349CFA89EF001A99E00
:104F1000F00D1124E45DFE4F828893888114910482
:104F200019F4A8EC8A2E912CA89E8001A99E100D40
:104F30001124045D1E4FF80186818823C9F0858500
:104F400096850E94B1058816990690F4BA9C400196
:104F50001124D80151968C91811105C0C401845D42
:104F60009E4F0E94BF11C4018E5C9E4F0E94DE11B5
:104F7000B3948B2D90E020911C0130911D012817D6
:104F800039071CF615CF80910403E0915103E69593
:104F9000E81BE0930003823089F5F0E0E156FB4F17
:104FA000E4910E2F10E0E9ECAE2EEDE0BE2E8091E4
:104FB0000103882361F0109201030E94C0059093C1
:104FC000FF028093FE0210920303109202030E94DC
:104FD000C005E091FE02F091FF028E1B9F0B8F3FF8
:104FE0009F4708F0E9CEE00FF11FF093FF02E09336
:104FF000FE028EEF92E0F5010995DECE863059F47F
:10500000F0E0E456FB4FE4910E2F10E079EBA72E71
:105010007DE0B72ECCCF893061F4E695F0E0E7561D
:10502000FB4FE4910E2F10E06DE2A62E6DE0B62E40
:10503000BECF8F3061F4E695F0E0EA56FB4FE49185
:105040000E2F10E058ECA52E5CE0B52EB0CF8531C8
:1050500059F4F0E0ED56FB4FE4910E2F10E04AE7D3
:10506000A42E4CE0B42EA3CF08E210E09FEFA92EAF
:105070009BE0B92E883109F49ACF833249F4E1E9F3
:10508000F4E00591149138E6A32E3DE0B32E8FCFC6
:1050900004EF11E028ECA22E2BE0B22E843209F4AA
:1050A00086CF00ED17E08CEAA82E85E0B82E7FCFE2
:1050B00009BD19BD09B400FEFDCF8091D8008F7DD8
:1050C0008093D8008091E00082608093E00080911E
:1050D000E00081FDFCCF0E94F512DBCEDB018F9357
:1050E0009F930E94FA28BF91AF91A29F800D911DBE
:1050F000A39F900DB29F900D1124089587FB082E59
:10510000062687FD819567FD61950E9444290EF46E
:10511000919507FC81950895AA1BBB1B51E107C01F
:10512000AA1FBB1FA617B70710F0A61BB70B881F37
:10513000991F5A95A9F780959095BC01CD010895C6
:1051400097FB072E16F4009407D077FD09D00E9434
:105150008C2807FC05D03EF4909581959F4F0895CB
:10516000709561957F4F0895A1E21A2EAA1BBB1B73
:10517000FD010DC0AA1FBB1FEE1FFF1FA217B30723
:10518000E407F50720F0A21BB30BE40BF50B661F39
:10519000771F881F991F1A9469F7609570958095FD
:1051A00090959B01AC01BD01CF010895EE0FFF1F4B
:1051B0000590F491E02D09940E94E428332312F421
:1051C0008A1B9B0B0C94F528A29FB001B39FC001D2
:1051D000A39F700D811D1124911DB29F700D811D23
:1051E0001124911D08950E94E428B7FF0895821BA1
:1051F000930B08950E94E428A59F900DB49F900DF5
:10520000A49F800D911D11240895B7FF0C94FA28D6
:105210000E94FA28821B930B08952F923F924F927F
:105220005F926F927F928F929F92AF92BF92CF9236
:10523000DF92EF92FF920F931F93CF93DF93CDB73F
:10524000DEB7CA1BDB0B0FB6F894DEBF0FBECDBFB7
:1052500009942A88398848885F846E847D848C8488
:105260009B84AA84B984C884DF80EE80FD800C8191
:105270001B81AA81B981CE0FD11D0FB6F894DEBF74
:105280000FBECDBFED010895991B79E004C0991FB1
:10529000961708F0961B881F7A95C9F78095089590
:1052A000F999FECF92BD81BDF89A992780B50895EE
:1052B000A6E1B0E044E050E00C948A29A8E1B0E017
:1052C00042E050E00C948A29262FF999FECF92BD36
:1052D00081BDF89A019700B4021639F01FBA20BDBB
:1052E0000FB6F894FA9AF99A0FBE08950396272FED
:1052F0000E9465290E946429252F0E946529242F78
:105300000C9465290196272F0E9465290C94642925
:10531000DC01CB01FC01F999FECF06C0F2BDE1BD75
:10532000F89A319600B40D9241505040B8F7089564
:105330000F931F93CF93DF938230910510F482E097
:1053400090E0E091A503F091A60330E020E0B0E00A
:10535000A0E0309799F42115310509F447C0281BC6
:10536000390B24303105C0F58A819B8161157105A7
:1053700071F1FB0193838283FE0111C04081518151
:105380000281138148175907F8F04817590799F413
:10539000109761F012960C93129713961C93329605
:1053A000CF01DF91CF911F910F9108950093A50335
:1053B0001093A603F4CF2115310519F042175307B6
:1053C00018F49A01BD01EF01DF01F801C2CF9093FB
:1053D000A6038093A503D0CFFE01E20FF31F8193B4
:1053E00091932250310939832883DACF2091A30386
:1053F0003091A403232B41F4209102013091030149
:105400003093A4032093A303209100013091010164
:105410002115310541F42DB73EB74091040150915B
:105420000501241B350B4091A3035091A40342179F
:10543000530708F0B5CF241B350B2817390708F49C
:10544000AFCFBC016E5F7F4F2617370708F4A8CF98
:10545000640F751F7093A4036093A303FA018193F3
:1054600091939ECFCF93DF930097E9F0FC013297A1
:1054700013821282C091A503D091A603DE0130E011
:1054800020E02097A1F420813181820F931F209189
:10549000A3033091A4032817390709F067C0F093DC
:1054A000A403E093A303DF91CF910895DA01AE172F
:1054B000BF0708F040C012964D915C9113979D0173
:1054C0004115510599F7D9011396FC93EE93129764
:1054D0004D915D91A40FB51FEA17FB0779F4808108
:1054E00091810296840F951FD90111969C938E93FA
:1054F0008281938113969C938E931297B0E0A0E0E3
:105500008A819B810097B9F5FE0181919191E80F05
:10551000F91F8091A3039091A4038E179F0719F69A
:10552000109761F51092A6031092A503D093A403DF
:10553000C093A303B8CFB383A28340815181840F6A
:10554000951FA817B90771F44E5F5F4F8D919C911D
:105550001197480F591F5183408312968D919C914A
:10556000938382832115310509F0ADCFF093A60313
:10557000E093A50398CFDE01EC01C2CF13961C92F5
:105580001E921297D3CFFC014150504030F0019051
:105590000616D1F73197CF010895882799270895E6
:1055A000FB01DC0104C08D910190801921F4415070
:1055B0005040C8F7881B990B0895F894FFCFEA1361
:1055C0001214AA151214AA1545146614AA15631507
:1055D0007015FD1EFD1E321F321FDE1F631F631F6D
:0A55E000631FF81FDC20EB20EB2016
:1055EA000000AB032000AE0000C512AE0001C512D8
:1055FA00AE052F0BAD052A0B250BAB05FFFF0119D5
:10560A001A1B1C1D1E1F202122010201000000007E
:10561A000000000000000000000000000000000080
:10562A000000DB12B6185D16000000000000000042
:10563A000000000000000B01DB12B6185D16000026
:10564A0000000000000000000000000006010181C7
:10565A008283E200E900EA00B500B600B700CD0097
:10566A008301CC008A0192019401210223022402BF
:10567A002502260227022A02B300B4006F00700036
:10568A00303132339091353697349694F0F1F4F5FF
:10569A00F6F7676692000102020202060606090987
:1056AA00090909090F0F0F0F0F0F151515181919E9
:0C56BA00191919191919191923240004D1
:00000001FF
