:100000000C94ED030C9434040C9434040C943404D8
:100010000C9434040C9434040C9434040C94340480
:100020000C9434040C9434040C946F240C942B24FE
:100030000C946C250C9434040C9434040C94340407
:100040000C9434040C9434040C9434040C94340450
:100050000C9434040C9448250C9434040C9434040B
:100060000C9434040C9434040C9434040C94340430
:100070000C9434040C9434040C9434040C94340420
:100080000C9434040C9434040C9434040C94340410
:100090000C9434040C9434040C9434040C94340400
:1000A0000C9434040C9434040C94340400000000C8
:1000B0000000000000000000000000000000000040
:1000C0000000000000000000000000000000000030
:1000D0007E0F00D4FFFFFFC7000000780000000083
:1000E000000000002A2B2800000000000000000093
:1000F0000000000000000029000000002C1E342039
:10010000212224342627252E362D3738271E1F205E
:100110002122232425263333362E37381F040506A3
:100120000708090A0B0C0D0E0F10111213141516E7
:100130001718191A1B1C1D2F3130232D35040506E5
:100140000708090A0B0C0D0E0F10111213141516C7
:100150001718191A1B1C1D2F3130354C3C2D003D32
:100160003E002D3E00E9000000C9000000E800004C
:1001700000C8000000EA000000CA000000EB000018
:1001800000CB000000E2000000C2000000E0000020
:1001900000C0000000E7000000C7000000EE000003
:1001A00000CE000000AC2000003F0E0000A90000BF
:1001B00000AE000000C9030000A9030000F4000025
:1001C00000D4000000F9000000D900000053010035
:1001D0000052010000C0030000B0000000F1000068
:1001E00000D1000000B5000000C30300006422003D
:1001F0000065220000AB000000BB00000060220090
:1002000000482200001E22000029003B003D003F64
:1002100000410000004400AE0047003A003C003EB0
:100220000040004200430045004600480035001FE2
:100230000021002300250027002E002A004A001E6E
:100240000020002200240026002D00000049004B61
:10025000002B001A0015001C000C001300300000D9
:10026000004D00140008001700180012002F003184
:10027000004C004E002961160009000B000E0033EF
:1002800000000000000000040007000A000D000F3D
:10029000003400280000000000E1001D00060005F9
:1002A0000010003700E1000000520000001B0019A0
:1002B00000110036003800000000000000E000E3FC
:1002C00000000000000000000000000000510000DD
:1002D00000000000002C420000E600115050004FCA
:1002E0000029003B003D003F00410000004400AEFB
:1002F0000047003A003C003E0040004200430045F9
:10030000004600480035001F00210023002500277B
:10031000002E002A004A001E002000220024002691
:10032000002D00000049004B002B001A0015001C96
:10033000000C001300300000004D001400080017EE
:1003400000180012002F0031004C004E00296116E9
:100350000009000B000E0033000000000000000444
:100360000007000A000D000F003400280000000004
:1003700000E1001D000600050010003700E100004C
:1003800000520000001B0019001100360038000068
:1003900000000000000251E2000000000000000028
:1003A000000000000051000000000000002C42008E
:1003B00000E700105050004F00005C0100010001F8
:1003C0000001000000010001000100010001000126
:1003D0000001000100010001000100C35C010001F7
:1003E0000001000100010001000100010001000105
:1003F00000010001000100010001000000010001F6
:1004000000E05C0100028001000E8001000100009C
:1004100000010001000080048018801680010001A6
:100420000001000100010001000100500052000124
:10043000000000000000000A802A00010051004F67
:10044000000100010000000000010001000C80011B
:10045000000100A65DE500000001000000010001B0
:100460000001000100A85D00000000000001000183
:10047000000000000000000000000000000100007B
:1004800000000000000100000001000100AC00AB12
:100490000000047F3F1F643214643214783C1E1E37
:1004A000140A05000101010101010101010202021A
:1004B0000202020202020303030303030303040410
:1004C00004040404040505050505060606060607DA
:1004D0000707070708080808090909090A0A0A0B93
:1004E0000B0B0C0C0C0D0D0D0E0E0E0F0F0F101034
:1004F00011111112121313141415151616171718BB
:100500001819191A1A1B1B1C1D1D1E1E1F20202125
:100510002222232424252626272829292A2B2C2D6C
:100520002D2E2F30313232333435363738393A3B8D
:100530003C3D3E3F404142434445464748494A4C82
:100540004D4E4F50515354555658595A5B5D5E5F4E
:10055000616264656668696B6C6D6F7072737577E4
:10056000787A7B7D7E8082838587888A8C8E8F9146
:10057000939596989A9C9EA0A2A3A5A7A9ABADAF70
:10058000B1B3B5B7BABCBEC0C2C4C6C9CBCDCFD15A
:10059000D4D6D8DBDDDFE2E4E7E9EBEEF0F3F5F803
:1005A000FAFDFFFFAA7F55402223252628292A2C61
:1005B0002D2F3032333536383A3B3D3E40424345AD
:1005C00047494A4C4E5051535557595A5C5E6062E8
:1005D000646668696B6D6F71737577797B7D7F81F8
:1005E000838587898A8C8E90929496989A9C9E9FF8
:1005F000A1A3A5A7A8AAACAEAFB1B3B4B6B8B9BB16
:10060000BCBEBFC1C2C3C5C6C7C9CACBCCCDCED084
:10061000D1D2D2D3D4D5D6D7D7D8D9D9DADADBDB71
:10062000DBDCDCDCDCDCDDDDDDDDDCDCDCDCDCDB08
:10063000DBDBDADAD9D9D8D7D7D6D5D4D3D2D2D151
:10064000D0CECDCCCBCAC9C7C6C5C3C2C1BFBEBC44
:10065000BBB9B8B6B4B3B1AFAEACAAA8A7A5A3A1B5
:100660009F9E9C9A98969492908E8C8A8987858377
:10067000817F7D7B79777573716F6D6B6968666457
:1006800062605E5C5A5957555351504E4C4A494727
:10069000454342403E3D3B3A3836353332302F2DCC
:1006A0002C2A29282625232205010980A10185035A
:1006B00019012AB700150126B700950175108100B0
:1006C000C0050C0901A101850419012AA002150128
:1006D00026A002950175108100C005010906A1013F
:1006E0008506050719E029E715002501950875011C
:1006F00081020507190029EF1500250195F0750104
:1007000081020508190129059505750191029501D8
:1007100075039101C005010906A101050719E0292A
:10072000E71500250195087501810295017508817D
:10073000010507190029FF150026FF009506750819
:10074000810005081901290595057501910295019A
:1007500075039101C009023B00020100A0FA0904DF
:1007600000000103010100092111010001224000E4
:100770000705810308000A090401000103000000C5
:10078000092111010001226D000705820320000AE2
:100790001201000200000008D804A2EC01000102CE
:1007A00000010803680038003800000028036800D2
:1007B00069006E00650079006200750073006800D2
:1007C00020006B006500790062006F00610072001C
:1007D0006400730000000403090411241FBECFEF5E
:1007E000DAE0DEBFCDBF04B603FE27C080917B03F5
:1007F00090917C03A0917D03B0917E038730904B54
:10080000A740B04BD1F410927B0310927C0310925E
:100810007D0310927E0314BE84B7877F84BF0FB61A
:10082000F894A89580916000886180936000109290
:1008300060000FBEE0E0F8E3099511E0A0E0B1E050
:10084000E4E3F3E502C005900D92A63DB107D9F7A8
:1008500023E0A6EDB1E001C01D92AB37B207E1F78E
:100860000E9493250C9474290C940000E8EDF0E0AC
:1008700080818E7F80831092E2001092DA001092C5
:10088000E100A0EEB0E08C9181608C9380818F7745
:10089000808319BCA7EDB0E08C918E7F8C93808112
:1008A0008F7E80831092460308952091E40030915A
:1008B000E50095E6A9012091EC00822F817020FFD0
:1008C00006C08091E80080FF06C080E00895209176
:1008D000E80022FD1AC080916B03882389F08530DF
:1008E00089F08091EB0085FD0FC02091E4003091EC
:1008F000E50042175307F9F29150E1F684E00895BC
:1009000082E0089583E0089581E00895EF92FF92D8
:100910000F931F93CF937C018B010E945504C82F26
:10092000811117C08091E80085FD0BC08091E8001F
:100930008E778093E8000E945504882399F3C82F8E
:1009400008C0F70181917F018093F10001501109E6
:1009500049F78C2FCF911F910F91FF90EF90089541
:1009600080916D0387FF13C08091E80082FF06C06D
:100970008091E8008B778093E80004C080916B033E
:100980008111F2CF089580916B038823D9F3809170
:10099000E80080FFF8CF8091E8008E77ECCF982FA9
:1009A0009093E900242F762F50E0891731F0709151
:1009B000EC002091ED005091F00021FD07C09F5FF9
:1009C000973071F78093E90081E008953091EB0052
:1009D0003E7F3093EB003091ED003D7F3093ED0092
:1009E0003091EB0031603093EB007093EC0020937A
:1009F000ED005093F0002091EE0027FDE0CF80E065
:100A00000895CF92DF92EF92FF920F931F93CF93AF
:100A1000DF93C8EDD0E088818F7E8883E7EDF0E03A
:100A200080818160808384E082BF81E0809346037F
:100A300088818E7F888302EE10E0F8011082109288
:100A4000DA0081EEC82ED12CF601108288818F77D2
:100A5000888388818068888388818F7D888319BC9A
:100A600010926B0310926C0310926A031092690348
:100A700090EEE92EF12CF70180818B7F80838881B5
:100A80008160888342E060E080E00E94CF04F6014C
:100A900080818E7F8083F801808181608083808166
:100AA00088608083F70180818E7F80838881806168
:100AB0008883DF91CF911F910F91FF90EF90DF908E
:100AC000CF900895FC018091730390917403861771
:100AD0009707A0F06115710529F49091E8009E77C1
:100AE0009093E80090E06115710551F4911108C0F0
:100AF0008091E80082FF34C080E00895BC01F2CF0D
:100B000080916B038823C1F18530C1F18091E800A9
:100B100083FD30C08091E80082FDEACF8091E8003B
:100B200080FFE1CF8091F3002091F200382F611512
:100B3000710519F02830310558F091E02830310561
:100B400009F090E02091E8002E772093E800CBCFC9
:100B500081918093F100615071092F5F3F4FE7CF82
:100B600080916B03882341F0853041F08091E8004B
:100B700083FFBECF81E0089582E0089583E0089569
:100B80000895089508958091480308959C014FB7F2
:100B9000F89480913F0390914003A0914103B0915C
:100BA00042034FBF821B930B08952FB7F894809197
:100BB0003F0390914003A0914103B09142032FBFA6
:100BC000089520913C0330913D032817390771F0B7
:100BD00090933D0380933C03E0913A03F0913B03F3
:100BE000309721F00084F185E02D0994089520913B
:100BF0003803309139032817390771F0909339037E
:100C000080933803E0913A03F0913B03309721F051
:100C10000680F781E02D09940895E0913A03F09160
:100C20003B03309721F00190F081E02D099480E0A2
:100C300008958F929F92AF92BF92EF92FF920F937F
:100C40001F93CF93DF938430B8F5811136C0909114
:100C50008000977F909380002F98A0918600B0919C
:100C60008700282F30E00E94DD2823E030E040E0BC
:100C700050E00E94AD2889019A01809186009091F0
:100C800087006CE070E00E94852860177107D8F03B
:100C9000C80169E070E00E94852870938D00609320
:100CA0008C00DF91CF911F910F91FF90EF90BF903B
:100CB000AF909F908F90089583E09091800098600E
:100CC00090938000CACF8091860090918700E09039
:100CD0008600F0908700E0918600F0918700C6E0E2
:100CE000D0E0BE010E948528060F171F211D311D6F
:100CF0004801590185E0880C991CAA1CBB1C8A95E7
:100D0000D1F7C701BE010E9485289F0150E040E055
:100D1000260F371F411D511DC501B4010E94AD288A
:100D200049015A01E0918600F0918700CA01B9019A
:100D30000E9467289B01AC01DF010E94F3289B0100
:100D4000AC01C501B4010E9467282FE096958795F4
:100D5000779567952A95D1F70091860010918700C5
:100D600030E020E0061717072807390708F095CF6D
:100D7000609186007091870090CFFA01811101C0C7
:100D8000FB01099480912903982F9E7F29F481709B
:100D900082608093290308958A34E8F3817088641F
:100DA000F8CFAF92BF92DF92EF92FF920F931F9313
:100DB000CF93DF93082F162FE901E42FF0E0ED55D4
:100DC000FB4F611110C0E4915E2F4E2F4983E883E1
:100DD0005A83DF91CF911F910F91FF90EF90DF9099
:100DE000BF90AF900895E62EF12C4491D42EE42FBD
:100DF000F0E026E0829FC00111242FEF30E0B9011E
:100E00000E948528802F90E0880F991F55E5569FF6
:100E1000D001579FB00D11248A1B9B0B982F990F5F
:100E2000890F5901AE18BF08AE9ED001AF9EB00D1C
:100E3000BE9EB00D11245B2F189F80011124012F3D
:100E400011275901A01AB10AAE9E8001AF9E100D64
:100E5000BE9E100D11245901A81AB108AE9CC00104
:100E6000AF9C900DBE9C900D1124892F9927281BB3
:100E7000390B2E9FC0012F9F900D3E9F900D112486
:100E8000E92F62307105A1F050F46115710509F484
:100E90009DCF6130710581F0EB2F512F97CF6430DA
:100EA000710569F080F06630710509F48FCFF4CFD9
:100EB000E42F4B2F592F8ACFE42F412F87CFEB2FD1
:100EC000542F492F83CF4B2F5D2DE12F7FCF80E013
:100ED0000895F894E82FE295EF70F0E031A1282F03
:100EE0002F7081E090E001C0880F2A95EAF7982FD3
:100EF0009095932391A392A1892B82A3789408952E
:100F00009091790392FF06C0282F28712830F9F4B8
:100F1000877F846093FF06C0282F28712831F1F461
:100F2000877E846120917A0320FF06C0382F3871B4
:100F30003830D9F4877F816021FF06C0282F2871BF
:100F40002831D1F4877E816194FD877E0895282F12
:100F500024712430F9F68B7F8860DCCF282F247130
:100F6000243101F78B7E8861DDCF382F317131302C
:100F700019F78E7F8860E0CF282F2171213121F76A
:100F80008E7E8861E1CFCF93DF93EC0182389105AB
:100F9000A9F1D8F58133910509F496C048F5893255
:100FA000910509F48AC08A9709F495C0C11522E514
:100FB000D20708F0B6C0C11531E5D30708F026C145
:100FC000C83ED10508F09CC0C03ED10560F5C83AC6
:100FD000D10508F087C0C53AD10508F0EFC0C1308F
:100FE000D10509F12097F9F0C430D105E0F440C0F3
:100FF0008533910509F45AC0C997C1F680917903E8
:10100000837089F0C0EED0E00EC0833E910599F167
:1010100070F4803E910501F1823E910539F6809190
:10102000790382FD21C0CE01DF91CF910895863EE4
:10103000910561F1873E910571F1843E910509F0BA
:10104000B5CF80917A0381FFEECF80917903C7EE0F
:10105000D0E084FD0DC0E7CF8091790380FD07C10A
:1010600090917A0390FFDFCFC3EED0E084FFDBCF17
:10107000D0E0C0E0D8CF8091790382FDFBC0909191
:101080007A0390FDBFCF84FFCECFF2CF809179035A
:1010900083FDDDCFC8CF8091790383FDEEC09091B1
:1010A0007A0391FFF0CFC4EED0E0BDCF80917903F9
:1010B00085FFB9CFC9E2D0E0B6CF8091790385FF33
:1010C000B2CFC5E3D0E0AFCF8091790386FFABCF3D
:1010D000CAE2D0E0A8CF8091790386FFA4CFC1E314
:1010E000D0E0A1CFCF3BD10518F6C85AD0E0CC0F45
:1010F000DD1FC459DE4F0990D881C02DD46493CF31
:10110000C11540E5D40708F064C0C11580E4D807D4
:1011100008F05CC0CE019A9581159F4108F483CFF9
:10112000A7CFC11536E5D30718F5C11545E5D40796
:1011300008F084C0C11584E5D80708F07AC09C2F58
:10114000969596959E0123703327C115D34508F4D3
:1011500062C0C1E0D0E002C0CC0FDD1F2A95E2F7EB
:1011600030E2939FC0011124C82BD92BDA685BCFE2
:10117000C1158AE5D80778F4C11599E5D90708F0B3
:1011800068C0C11528E5D20708F472CFDC2FCC2740
:10119000C06FD06A48CFCE0190568115904208F0BA
:1011A00067CF8D2F8F710E94800790E0982F88273E
:1011B00088279F719C012C2BE90149C0C55AD0E0BA
:1011C000C759DE4FC881D0E0D0642DCFDF70D06A20
:1011D0002ACFCE01E4E096958795EA95E1F78370F2
:1011E0002C2F26952695237040E2249F90011124F0
:1011F000382B8C2F8370C1E0D0E002C0CC0FDD1FF4
:101200008A95E2F7C22BD32BDC680DCFDC2FCC27DD
:10121000C16FD06A08CFC1E0D0E002C0CC0FDD1FA3
:101220002A95E2F720E2929FC0011124C82BD92B06
:10123000EBCFDC2FCC27C46FD06AF5CE8C2F0E9469
:101240008007C82FD0E0DC2FCC27CC27DF71D062FD
:10125000EACE8C2F8F700E94800734E0D695C79518
:101260003A95E1F7CF709C2FEC01D069DCCEC9E351
:10127000D0E0D9CEC2EED0E0D6CEC6EED0E0D3CE0E
:1012800080917D02811110927D0208958095909148
:1012900036039823909336030895809590913703F1
:1012A00098239093370308958091370390913603E4
:1012B000892B90917C02892B8093D80190917D029B
:1012C0009923A1F0892B8093D8018091680188230C
:1012D00041F18091790387FF24C08EE1EAEDF1E0CE
:1012E00090E0815000F591110E944009E0913A038D
:1012F000F0913B033097E1F080916801882359F029
:101300008091790387FF07C08091D8018093D9012C
:1013100086E08093D8010280F381E02D88ED91E092
:10132000099486E0DBCF21912223D9F29F5FD9CFA8
:101330000895CF93DF93EC0181E0898B809137038F
:101340009F81892B80933703809136039885892B61
:10135000809336030E945409EA81FB81309739F06B
:101360006C897D89CE010696DF91CF910994DF913A
:10137000CF910895EF92FF920F931F93CF93DF9336
:10138000EC018A85811134C0EB80FC8087E5F81A76
:1013900026E12E9DC0012F9D900D1124DC01AA5D38
:1013A000BE4F1496ED91FC911597309731F05496FD
:1013B0006D917C91845D9E4F099586E18E9D8001A3
:1013C0008F9D100D11240A5D1E4FF80187810E9428
:1013D0004D09F80180850E9446090E94540918822F
:1013E00019861B861E821D821092350310923403CB
:1013F000DF91CF911F910F91FF90EF900895909101
:1014000068019923D1F09091790397FF16C0E82FD6
:10141000E695E695E695EE31E0F4F0E0E852FE4F11
:10142000282F277081E090E001C0880F2A95EAF705
:1014300080959281892382830895EAEDF1E091916C
:10144000891303C0DF0111971C9291E0E03EF90778
:10145000B1F70895909168019923C1F090917903B3
:1014600097FF14C0E82FE695E695E695EE31F8F47F
:10147000F0E0E852FE4F877021E030E001C0220F1B
:101480008A95EAF78281822B82830895AAEDB1E0E2
:10149000EFEF90E02D91821751F0EF3F19F42111F9
:1014A00001C0E92F9F5F9630A9F7EF3F09F4089537
:1014B0000E2E000CFF0BE852FE4FE6CF20917B0270
:1014C00090914A0256E0291302C080E0089530E06E
:1014D000529FF001539FF00D1124E55BFD4F718188
:1014E000761306C07081781303C07281741304C030
:1014F0002F5F3F4F2770E7CF81E0089580917B02F7
:1015000090914A02981301C008958F5F8770FACFB7
:10151000AF92BF92CF92DF92EF92FF920F931F9301
:10152000CF93DF93C0908502D0908602E09087022F
:10153000F090880240917E0250917F02609180027B
:1015400070918102C42AD52AE62AF72ACFE1D0E099
:10155000082F10E029E0929F000D111D11249CE638
:10156000A92EBC2ED701C6010C2E04C0B695A79596
:10157000979587950A94D2F780FD0FC0219788F739
:10158000B12C8B2DDF91CF911F910F91FF90EF9098
:10159000DF90CF90BF90AF900895AC9EF001AD9ECC
:1015A000F00D1124E00FF11FEE0FFF1FE75FFD4F5D
:1015B000859194910E94C307019701F3E2CFCF93E5
:1015C000DF93EC010E94880AEC2FF0E099E0D99FAC
:1015D000E00DF11D11249CE6899FE00DF11D112401
:1015E000EE0FFF1FE75FFD4F85919491DF91CF9143
:1015F0000C94C30729E0929F800D1124982F9770B7
:1016000086958695869525E0829FF0011124E2500B
:10161000FE4F50E040E080E0219130E0092E02C012
:10162000369527950A94E2F721703327042E01C0DE
:10163000220F0A94EAF7822B4F5F5F4F4530510526
:1016400059F7089529E0929F800D1124982F9770E3
:1016500041E001C0440F9A95EAF7869586958695F4
:1016600095E0899FF0011124E250FE4F90E080E068
:1016700070E05191DF0111979B01082E02C0369551
:1016800027950A94E2F72170219525272423252701
:101690002C9301968530910561F70895FC018081B6
:1016A00091810E94DF0A292F2F7092959F7092508E
:1016B0009E3078F4E92FF0E0EA58F64D0C94CF28EC
:1016C000803F19F020F4883E20F481E00895843FA3
:1016D000E1F380E00895883EC0F3813FD1F7F5CF74
:1016E000822F869586958695089590E080E00E94E9
:1016F000F70590E080E00E94E10510923603109219
:101700007C020C9454096093850270938602809346
:101710008702909388020C94750B0F931F9341E0FE
:1017200050E060E070E004C0440F551F661F771F53
:101730008A95D2F7CB01BA01609570958095909506
:1017400000918502109186022091870230918802D3
:1017500060237123822393231F910F910C94830B99
:10176000909178038095892380937803282F2770A0
:1017700091F4282F082E000C330B9217130659F002
:1017800090917A0392FD07C08595859585950E9475
:101790008D0B1092780308950F931F9341E050E052
:1017A00060E070E004C0440F551F661F771F8A95E4
:1017B000D2F78091850290918602A0918702B09124
:1017C00088028A019B01082B192B2A2B3B2BC9016C
:1017D000B8011F910F910C94830B90917A0392FDA5
:1017E00007C098E0899F900111242360209378031B
:1017F0000C94CC0B0F931F9341E050E060E070E03D
:101800008A019B0104C0000F111F221F331F8A95FC
:10181000D2F7C901B8011F910F910C94830BCF939C
:10182000DF93EC018881823031F4FB0182810E94D8
:10183000FA0B81E08B87DF91CF91089560937E0250
:1018400070937F0280938002909381020C94750BB9
:10185000882321F00E9446090C9454090895882396
:1018600039F090913603982B909336030C945409D9
:101870000895882321F00E944D090C94540908957D
:10188000882339F090913703982B909337030C9469
:1018900054090895882309F44BC0823871F40E94DA
:1018A0000D0681FF45C089E30E942A0A0E9454095F
:1018B00089E30E94FF090C945409833859F40E946B
:1018C0000D0680FF35C083E50E942A0A0E94540954
:1018D00083E5EFCF843859F40E940D0682FF28C0BB
:1018E00087E40E942A0A0E94540987E4E2CF9CEF11
:1018F000980F913AF0F290E2980F983050F4877078
:1019000091E001C0990F8A95EAF7892F0E944D094D
:10191000D2CF9BE5980F933020F490E080E00C94B8
:10192000F705885A873120F490E080E00C94E105B7
:10193000089582FB992790F981FD05C05D9A911168
:1019400004C0769A08955D98FACF769808959C0120
:101950003A9521153F4150F5FC01EE27F170BC018D
:1019600066277270AC01442754709C01222738709E
:1019700094FF0EC080E1EF2B09F480E0672B09F0A3
:101980008062452B09F08064232B89F080680895DC
:1019900081E0EF2B09F480E0672B09F08260452B92
:1019A00009F08460232B19F08860089580E0089581
:1019B000CF93DF93EC010E944A0CCE010E94A70C4A
:1019C0009E01205E31092830310510F0CD2B21F425
:1019D000DF91CF910C94390CDF91CF910C94280CAE
:1019E00080934303709345036093440380916B039A
:1019F000843001F582E08093E9008FEF9091E80058
:101A0000815095FD06C095ED9A95F1F70000811182
:101A1000F5CF8091E80085FF0DC050E040E063E025
:101A200070E083E493E00E9486048091E8008E7762
:101A30008093E8000895BC0184E00C94F00CBC0194
:101A400083E00C94F00CCF93DF93EC01809168015C
:101A50008823B1F18091790387FF32C060E282E090
:101A60008093E9008FEF9091E800815095FD06C0CA
:101A700095ED9A95F1F700008111F5CF8091E8007E
:101A800085FF1BC08091680170E050E040E081114B
:101A900004C050E040E068E070E0CE010E9486049F
:101AA0008091E8008E778093E80080E2FE01A9E44F
:101AB000B3E001900D928A95E1F7DF91CF910895FF
:101AC00068E081E0CDCF81E08093E00080E2809308
:101AD000D8001092C9008FE19EE40197F1F700C091
:101AE000000087E090EBDC0180937B0390937C0304
:101AF000A0937D03B0937E0388E19CE00FB6F89439
:101B0000A895809360000FBE90936000FFCFFC010A
:101B10008081813029F4FB01808191810C94D80C63
:101B200008958091290380FD0AC0E1EEF2E0118260
:101B300010821282339653E0E932F507C1F7539AC7
:101B40003BB1377F2BB128604FB7F89481EE92E01C
:101B5000FC015191CF0168E02BB9000000C057FF94
:101B60003BB9550F000000C000C000C03BB900C029
:101B70006A9591F7F3E089329F0751F74FBF8FE5E0
:101B800094E00197F1F700C000000895EF92FF92F2
:101B90000F931F93CF93DF938C01C1EED2E0F12C12
:101BA000E12CF801948160912B0380912A03FCE0E1
:101BB000EF16F104FCF49923F9F09E0140912C03F7
:101BC0000E94D1062FEFE21AF20A239688E1E81666
:101BD000F10439F70E94910DF801848190E001969B
:101BE000817099278483DF91CF911F910F91FF908E
:101BF000EF900895992309F39E0140E0E1CF8F9281
:101C00009F92AF92BF92CF92DF92EF92FF920F938B
:101C10001F93CF93DF93EC014C81042F10E09801C8
:101C2000D8010E94DD289B01AC010E94F3284B01E2
:101C30005C01E0E2F0E0E01BF10BA5E5B0E0AC01F7
:101C40009B010E94F3286B017C019F01DF010E9430
:101C5000D5289B01AC010E94FE289B01AC01280DF8
:101C6000391D4A1D5B1DC701B6010E94AD28F22E29
:101C7000822F90E039E23F15D8F143E0249F900194
:101C8000112435952795122F109591EEC92E92E0CB
:101C9000D92E00E085E5E82EEF188E2D01FD8F2D61
:101CA0009601412F60912B030E94D1060F5F53E0F4
:101CB000C50ED11C083189F70E94910D9C8181E0ED
:101CC000992319F0903219F48FEF809325018091B8
:101CD0002501890F8C83DF91CF911F910F91FF9088
:101CE000EF90DF90CF90BF90AF909F908F9008952E
:101CF00025E530E0A901481B590BCA019A01220FC2
:101D0000331F280F391F37FFBCCF2F5F3F4FB9CF8D
:101D10000F931F93CF93DF93C1EED2E0FE011182A8
:101D200010821282339683E0E932F807C1F710E09F
:101D300000E08091DF02082E000C990B08171907AC
:101D40008CF180912401082E000C990B80179107CB
:101D50004CF19E0140912C0360912B0380912A034A
:101D60000E94D1060F5F1F4F23960831110509F716
:101D70000E94910D809123019091DF02980F909322
:101D8000DF0220912401280F20932401121614F45D
:101D900097311CF0819580932301DF91CF911F91A2
:101DA0000F910895198218821A82DCCFBF92CF92C8
:101DB000DF92EF92FF920F931F93CF93DF93FC017B
:101DC0008281DD24DA9480FD02C0DD24D39401EE0B
:101DD00012E0D0E0C0E028E1B22EF80111821082BA
:101DE000128294E0E92EF12CC12C8091DE028C0D40
:101DF00089310CF43DC06B2D0E947728892F082E65
:101E0000000C990B8C179D0791F480912C038E9DEB
:101E1000A0018F9D500D11245595479555954795D7
:101E2000980160912B0380912A030E94D106CD0C6A
:101E3000F1E0EF1AF108C9F621960D5F1F4FC83186
:101E4000D10559F60E94910D8091DE0291E0D912E0
:101E500015C0811111C087E18093DE02DF91CF911F
:101E60001F910F91FF90EF90DF90CF90BF9008955A
:101E700087FFC5CF885EC3CF8150EECF90E001963B
:101E8000BE010E949928E8CFEF92FF921F93CF9353
:101E9000DF93EC0181EEE82E82E0F82E10E08C81D9
:101EA000970140912C0360912B03810F0E94D10672
:101EB000165F83E0E80EF11C103F89F70E94910D38
:101EC0009A818C8190FF08C08F5F8C83DF91CF91C6
:101ED0001F91FF90EF9008958150F7CF90912903C3
:101EE00090FF0CC0E1EEF2E0818360834283339681
:101EF00093E0E932F907C1F70C94910D08950F931F
:101F00001F93CF93DF9300D00F92CDB7DEB78C0134
:101F10008091E00281110AC09E012F5F3F4F4FEF79
:101F20006FEF0E94D1068A818093E002F8016481FC
:101F3000613069F08091E00240E0662361F040E0AA
:101F4000623011F44091E00280E060E004C06091F2
:101F5000E00240E080E00E946E0FF801848190E092
:101F6000019663E070E00E94992884830F900F909F
:101F70000F90DF91CF911F910F910895CF93DF9331
:101F800000D00F92CDB7DEB79091290390FF0AC021
:101F90009E012F5F3F4F0E94D1064B8169818A814C
:101FA0000E946E0F0F900F900F90DF91CF910895C8
:101FB000CF93DF93EC01E9E2F3E0438162818C810E
:101FC0000E94BE0F8C818F5F8C83DF91CF9108952B
:101FD000CF93DF93EC01EC81F0E0E855FA4F4491A8
:101FE000E9E2F3E0628181810E94BE0F8C818F5F04
:101FF0008C83DF91CF910895CF93C82F882309F464
:10200000A6C08238C1F40E940D0681FDA0C089E3FC
:102010000E942A0A0E9454092FEF81EE94E0215079
:1020200080409040E1F700C0000089E30E94FF0972
:10203000CF910C9454098338A1F40E940D0680FDC1
:1020400086C083E50E942A0A0E9454092FEF81EE80
:1020500094E0215080409040E1F700C0000083E50B
:10206000E5CF8438A1F40E940D0682FD70C087E49C
:102070000E942A0A0E9454092FEF81EE94E0215019
:1020800080409040E1F700C0000087E4CFCF8CEFA4
:102090008C0F813A88F580916801882301F1809145
:1020A000790387FF1CC0EC2FE695E695E695F0E0F6
:1020B000E852FE4F828190E04C2F477021E030E0E3
:1020C00002C0220F331F4A95E2F782239323892B04
:1020D00079F08C2F0E94FF090E94540909C0EAED93
:1020E000F1E08191C817A9F321E0E03EF207C9F7BA
:1020F0008C2F0E942A0A9CCF80E28C0F883068F4D3
:10210000C77021E030E001C0220FCA95EAF7809144
:102110003703822B809337038BCFEBE5EC0FE33053
:1021200040F4F0E0E759FE4F808190E0CF910C94AD
:10213000F705C85AC73158F4EC2FF0E0EE0FFF1F37
:10214000E459FE4F80819181CF910C94E105CF91AC
:1021500008951F93CF93DF93182FD0E0C0E0893309
:1021600011F4C0E5D0E0812F0E94FC0F209731F4DC
:10217000812FDF91CF911F910C944A0C8FE99FE042
:102180000197F1F700C000002197F0CF0F931F9344
:10219000CF93DF93C62FD42F022FFC018281882397
:1021A000A1F0609377030E94D50590937603809306
:1021B0007503C77081E001C0880FCA95EAF7DF9107
:1021C000CF911F910F910C94400C8091770368136D
:1021D00035C080917503909176030E94C605883CB6
:1021E000910560F510E21D0FCD17B9F080E28C0F5C
:1021F000883040F4C77081E001C0880FCA95EAF7C3
:102200000E94390C183048F481E09D2F977001C06E
:10221000880F9A95EAF70E94400C802F0E94A9101F
:10222000183098F4D77081E001C0880FDA95EAF78A
:10223000DF91CF911F910F910C94390CC77081E001
:1022400001C0880FCA95EAF7F3CFDF91CF911F91B4
:102250000F910895DF92EF92FF920F931F93CF9308
:10226000DF93E82FF0E0E452FF4FD490282F26951B
:102270002695269530E0F901E453FF4F04918770CD
:1022800010E0082E02C0159507950A94E2F7017038
:102290001127F901E454FF4FE490F12C082E02C0FD
:1022A000F594E7940A94E2F791E0E922FF24F9011A
:1022B000E455FF4FC491D0E002C0D595C7958A95EB
:1022C000E2F7C170DD270115110519F081EE0E94BA
:1022D000FC0FE114F10419F086EE0E94FC0F8D2D25
:1022E0000E94A910EF2819F086EE0E944A0C012BDB
:1022F00019F081EE0E944A0CCD2B51F08CE2DF9157
:10230000CF911F910F91FF90EF90DF900C94A91047
:10231000DF91CF911F910F91FF90EF90DF90089583
:102320009F92AF92BF92CF92DF92EF92FF920F9364
:102330001F93CF93DF936B017C01C7E0D0E00CE1EA
:1023400010E0992493948AE0A82EB12CD701C601FD
:10235000002E04C0B695A795979587950A94D2F755
:102360008F7021F5911007C0809130038230D1F435
:1023700082E60E94A910219704501109CF3FDC0783
:1023800061F4DF91CF911F910F91FF90EF90DF905B
:10239000CF90BF90AF909F900895C430D105B4F610
:1023A000912CD4CF80E30E942A11E5CF9091300385
:1023B000923071F48A3050F490E00996B5010E9491
:1023C0009928875A0E94A910912CD5CF8650FACF10
:1023D00096EF980F963020F0805D0E942A11F4CF7E
:1023E000895AFBCFCF93DF93EC010E94A70C9E018B
:1023F000205E31092830310510F0209739F40E9411
:10240000400C8C2FDF91CF910C94FC0F0E942F0C6D
:10241000F8CFDB01FC018081813021F48D919C910A
:102420000C94F211823039F41396ED91FC911497CB
:1024300012968C9109940895FF920F931F93CF9356
:10244000DF938C018AE0F82EF8018491882309F447
:102450004BC0813009F044C0E8012196FE0184910F
:10246000813049F42196FE0184910E94A9108E01C9
:102470000F5F1F4FE9CF823039F4E8012296FE0149
:1024800084910E94FC0FF3CF833039F4E801229647
:10249000FE0184910E944A0CEACF843041F7E801A2
:1024A0002296FE01249190E080E0FE0131962053B7
:1024B000330B2A30310548F00197C8F2EFE9FFE00D
:1024C0003197F1F700C00000F7CFF89EA001F99E08
:1024D000500D1124C901840F951F2491EF01E5CF00
:1024E0000E942A11E801C3CFDF91CF911F910F9174
:1024F000FF90089520912F03082E000C990B820F56
:10250000911D27FD9A9562E070E00E9499288F3F07
:1025100081F080932F03E0912F030E2E000CFF0B10
:10252000EC52FE4F6081609330038CE090E00C949D
:10253000262981E0EECF682F86E090E00C942629D2
:10254000CF93C0917A03C2FB992790F9981799F01D
:1025500080FBC2F9C0937A036091790384E090E034
:102560000E9426296C2F82E290E00E94262982E0B8
:10257000CF910C94B00BCF910895CF9384E090E06D
:102580000E941229C82F82E290E00E941229982FFF
:102590008C2FCF91089560912903669570E04BE0F0
:1025A00050E088E191E00E945A29892B19F481E0DA
:1025B0008093DD020E94D5059093D7028093D602C6
:1025C0000895CF92DF92EF92FF926B017C010E94FF
:1025D000C206B701A60188E090E0FF90EF90DF907F
:1025E000CF900C9438295F926F927F928F929F9236
:1025F000AF92BF92CF92DF92EF92FF920F931F9311
:10260000CF93DF9300D00F92CDB7DEB7182F762E81
:10261000042F622E9091290390FF29C0E92FE6959F
:10262000AE2FB0E0A155BE4F8C918093DC029E7F0F
:10263000923081F59E012F5F3F4F812F0E94D1067E
:102640004B8169818A810E946E0F10932A037092D8
:102650002B0300932C03662051F0609129037091A5
:102660002A0380912B0390912C030E94E1120F907A
:102670000F900F90DF91CF911F910F91FF90EF90EE
:10268000DF90CF90BF90AF909F908F907F906F9092
:102690005F900895823019F400912C03D6CF8630D4
:1026A00019F410912A03D1CF8930D9F3893169F611
:1026B000E9518E2F8170582EE695F0E0ED55FA4FD6
:1026C000A590B490BB2481EEE82E82E0F82ED12CA8
:1026D000C12C98E1892E912CC601B4010E94852855
:1026E000812F511013C0860F9701402F672D0E9434
:1026F000D106CA0CDB1C83E0E80EF11C89E2E81667
:1027000083E0F80649F70E94910D9FCF861BECCF1E
:10271000E9E2F3E0438128E0421B08F440E021E0D5
:10272000628181810C94F312E9E2F3E0438128E0B5
:10273000420F08F44FEF21E0628181810C94F31283
:10274000E9E2F3E0628128E0621B08F460E021E046
:10275000438181810C94F312E9E2F3E0628128E085
:10276000620F08F46FEF21E0438181810C94F31232
:10277000E9E2F3E0818121E04381628188500C9499
:10278000F312E9E2F3E0818121E043816281885F15
:102790000C94F31280912D03882319F081508093BB
:1027A0002D036091290370912A0380912B0390914E
:1027B0002C030C94E11280912D03833018F48F5F69
:1027C00080932D036091290370912A0380912B033C
:1027D00090912C030C94E1129091290390FF36C044
:1027E0009170811129C0926090932903662351F062
:1027F0006091290370912A0380912B0390912C03FF
:102800000E94E11260912903669570E04BE050E070
:1028100088E191E00E945A29892BA9F01092DD02EB
:1028200081E08093D90220E040912C0360912B033A
:1028300080912A030C94F312853210F09864D4CF5F
:10284000880F982BD1CF0E94CB12EACF089561E078
:102850000C94EC13809129038695815009F484E24D
:1028600061E00C94EC138091290386958F5F85328B
:1028700008F081E061E00C94EC139091290390FF43
:1028800007C09695981720F0961710F40C943314FF
:102890000C942714E9E2F3E083E0808311828FEF48
:1028A00082838383148260817181828193810C94FD
:1028B000E1121092370380916801EAEDF1E088237C
:1028C00059F08091790387FF07C08EE1DF011D92E7
:1028D0008A95E9F70C94750B86E0F8CF1F93CF9398
:1028E000DF93CDB7DEB7AA970FB6F894DEBF0FBE61
:1028F000CDBF8DE693E02091F100FC012193CF0143
:10290000F3E085379F07B9F780916E03833009F4B0
:1029100070C0B8F4813009F447C0823009F4B1C006
:102920008091E80083FF7EC280916D0390916E03D9
:102930009A3008F077C2E92FF0E0EC57F64D0C948E
:10294000CF288A3009F48CC08B3009F46FC08930ED
:1029500039F780916D03813219F78091710390915D
:1029600072030297E8F68091E800877F8093E80081
:102970008091E80082FF38C09091F3008091F200CE
:10298000029731F48091F100813011F0863021F40A
:102990008091F100809348038091E8008B778093C9
:1029A000E8000E94B004BCCF80916D03813A09F029
:1029B000B7CF8091E800877F8093E8008091710312
:1029C00090917203892B61F460E289E493E070E0F6
:1029D0000E9462058091E8008B778093E800A0CF89
:1029E00060E090E080E0F3CF80916B038111C0CF75
:1029F00097CF80916D03813A09F092CF8091710356
:102A000090917203892B09F08BCF8091E800877F2A
:102A10008093E8008091E80080FFFCCF80916801FE
:102A20008093F1008091E8008E77B9CF80916D039B
:102A3000813209F075CF8091710390917203892BD7
:102A400009F06ECF8091E800877F8093E8000E94B4
:102A5000B00480916F03809368010E94591460CF85
:102A600080916D03813209F05BCF8091E800877F10
:102A70008093E8000E94B004809170038093470324
:102A80004FCF80916D03813A09F04ACF8091E800E1
:102A9000877F8093E8008091E80080FFFCCF8091E1
:102AA0004703BECF803899F0823809F0BBC18091CE
:102AB00071038F70873008F0B5C18093E900809171
:102AC000EB0085FB882780F91092E90006C0809111
:102AD000690390916A03911182609091E800977F59
:102AE0009093E8008093F1001092F1008091E8004B
:102AF0008E7794C1882309F482C1823009F092C193
:102B000080916F03811185C1809171038F702FEFC8
:102B1000280F263008F086C18093E9002091EB0051
:102B200020FF77C1933031F48091EB008062809375
:102B3000EB006FC19091EB0090619093EB0021E06E
:102B400030E001C0220F8A95EAF72093EA00109244
:102B5000EA008091EB008860EACF811163C1109197
:102B60006F031F778091E3008078812B8093E300CF
:102B70008091E800877F8093E8000E94B0048091F4
:102B8000E80080FFFCCF8091E30080688093E30041
:102B900082E0111183E080936B0344C1805882303E
:102BA00008F040C180916F03909170038C3D23E049
:102BB0009207A1F583E08A838AE289834FB7F8946C
:102BC000DE01139620E03EE051E2E32FF0E0509367
:102BD0005700E49120FF03C0E295EF703F5FEF7074
:102BE0008E2F90E0EA30C0F0C7968D939D932F5FB3
:102BF000243159F74FBF8091E800877F8093E80028
:102C00006AE270E0CE0101960E9462058091E800C0
:102C10008B778093E80006C1C096E7CF409171039F
:102C200050917203292F33272330310509F444C012
:102C300078F52130310509F46FC08BE390E0E5E5CC
:102C4000F7E02230310509F0EDC02091E800277F40
:102C50002093E80020917303309174038217930747
:102C600008F49C0140E02115310509F064C04111D0
:102C700062C08091E80082FDC9CF80916B038823F8
:102C800029F2853019F28091E80083FFF2CFBECFA0
:102C900021323105A9F12232310509F0C3C04115B5
:102CA000510509F443C04130510509F0BBC08DE620
:102CB00090E0E8EAF6E0C9CF992781309105C1F0AC
:102CC000009759F0029709F0ADC0E2EAF7E0E4910D
:102CD0008E2F90E0E2EAF7E007C0E6EDF7E0E4913E
:102CE0008E2F90E0E6EDF7E0009709F49BC0ADCFA2
:102CF000ECEAF7E0E4918E2F90E0ECEAF7E0F4CF15
:102D00004115510571F04130510509F08BC089E042
:102D100090E0E0E8F7E099CF82E190E0E0E9F7E0C9
:102D200094CF89E090E0E7E6F7E08FCF80E490E091
:102D3000E5E1F7E08ACF80916B03882309F466CF41
:102D4000853009F463CF8091E80083FD5FCF8091E7
:102D5000E80082FD8ECF8091E80080FF84CF9091C3
:102D6000F3008091F2002115310519F088309105AA
:102D700050F041E0089709F040E08091E8008E773C
:102D80008093E80070CF44914093F1003196215038
:102D900031090196E8CF803809F044C08091E800FD
:102DA000877F8093E80080916C038093F1009ECE32
:102DB000811138C010916F031230A0F58091E800A6
:102DC000877F8093E80010936C030E94B004112366
:102DD00011F084E005C08091E30087FDFACF81E027
:102DE00080936B0342E061EC81E00E94CF0442E2F9
:102DF00061EC82E00E94CF0480916B0313C080914C
:102E00006F03813079F481E0933009F080E08093A2
:102E10006A031092E9008091E800877F8093E800C0
:102E20000E94B0048091E80083FF0AC08091E8000E
:102E3000877F8093E8008091EB0080628093EB00B5
:102E4000AA960FB6F894DEBF0FBECDBFDF91CF912B
:102E50001F91089569EE7EEF90E080E00E94442982
:102E600060E082E090E00E94262960E083E090E04C
:102E70000E94262910927E0210927F0210928002F8
:102E80001092810260E084E090E00E94262960E0D8
:102E900082E290E00E94262960E085E090E00E94B6
:102EA000262960E086E090E00E9426296FEF87E007
:102EB00090E00E94262940E050E0BA0188E090E0CE
:102EC0000E94382960E08DE090E00E94262940E0D1
:102ED00050E0BA0188E190E00E94382960E087E183
:102EE00090E00E94262940E050E0BA018CE190E099
:102EF0000E94382970E060E080E290E00E9444295E
:102F000040E050E0BA0188E190E00E943829E9E20F
:102F1000F3E080818160808386950E94271421E000
:102F200040E86FEF80E00E94F3128BE00E942714CC
:102F300040E050E0BA018FE090E00E94382940E084
:102F400050E0BA0183E190E00C94382990E080E0F1
:102F50000E942029893E9E4F51F00E942A1780919D
:102F60002E038470896180932E030E949B1286E059
:102F700090E00E94122980932E03803220F0877007
:102F8000886180932E0390912E03892F817090FF8A
:102F900004C0892F8695869586950C9419066F92A4
:102FA0007F928F929F92AF92BF92CF92DF92EF92D9
:102FB000FF920F931F93CF93DF93CDB7DEB7689740
:102FC0000FB6F894DEBF0FBECDBF8E010F5F1F4F4F
:102FD00088E1F80111928A95E9F75AE9E52E51E066
:102FE000F52E680166246394712C7FEA872E71E0C8
:102FF000972EF70181917F018F3F09F445C0F89426
:10300000E82FE295EF70F0E021A18F70A30102C0DC
:10301000440F551F8A95E2F7CA01922F982B91A36E
:1030200092A18095892382A3789400C0E6EAF1E01A
:1030300021E030E0B12CA12C41914F3F09F463C055
:10304000A42FA295AF70B0E090968C9190E04F7055
:1030500002C0959587954A95E2F780FD54C0C90155
:10306000A82AB92A220F331F8E169F0629F7F701C7
:10307000319780818F3F11F00E94690750EA5A957D
:10308000F1F7F601B182A082F2E0CF0ED11C26EA60
:10309000E21621E0F20609F0ACCF48E150E0B801B9
:1030A00089E892E00E946729BB24B394009709F451
:1030B000B12C892B59F188E1F801A9E8B2E001901F
:1030C0000D928A95E1F781E0809384020E94D505F4
:1030D0009093830280938202809182029091830276
:1030E0000E94C6050597B0F0E9E8F2E0A4EAB2E074
:1030F000819191918D939D9342E0E13AF407C1F75C
:103100001092840207C090E080E0AACF80918402F0
:103110008111E2CF80910A0190910B01019609F093
:1031200053C08B2D68960FB6F894DEBF0FBECDBF8F
:10313000DF91CF911F910F91FF90EF90DF90CF9093
:10314000BF90AF909F908F907F906F900895E89E72
:10315000F001E99EF00D1124EA5DFE4FC288D3888C
:10316000C114D10419F428ECC22ED12CE89E8001A0
:10317000E99E100D11240A5D1E4FF80186818823F7
:10318000C1F0858596850E94C605C816D90688F4C3
:10319000FE9C60011124F8018189811105C0C601DE
:1031A0008A5D9E4F0E949909C601845D9E4F0E94D0
:1031B000BA09F3948F2D90E020910A0130910B0110
:1031C0002817390724F6ADCFF12C86E1E82EF2CF8F
:1031D0004F925F926F927F929F92AF92BF92CF92E7
:1031E000DF92EF92FF920F931F93CF93DF9300D064
:1031F00000D00F92CDB7DEB77C01DC0113968D9124
:103200009C911497892B49F01C911196DC90812F89
:103210008D218F3F11F00C9498210F900F900F90FB
:103220000F900F90DF91CF911F910F91FF90EF9032
:10323000DF90CF90BF90AF909F907F906F905F9006
:103240004F9008950E94880A082F682F89819A81DB
:103250000E94220BE12FF0E0B9E0DB9EE00DF11DB2
:1032600011242CE6029FE00DF11D1124EE0FFF1F2B
:10327000E75FFD4F05911491D70112968C91811152
:103280008FC1F7018281063AFDE51F0709F4F7C1F6
:1032900008F076C1013E110509F4C5C1D7011296A7
:1032A0002C91222389F00E3BBCE51B0709F45BC27D
:1032B00008F0F3C10C3BFCE51F0709F40FC20D3BFE
:1032C0003CE5130709F447C2C80197558F3F9105A4
:1032D00011F008F040C040910A0150910B014817CD
:1032E000590724F490930B0180930A0136E1389F2B
:1032F0005001399FB00C1124F501EA5DFE4F6F01BA
:10330000208BD70112969C918681992309F476C26D
:10331000128701878F5F86830E94D505F601968705
:10332000858780917D028783809136039091370352
:10333000892B80870190F081E02D309741F0D601F4
:1033400054966D917C91C501845D9E4F09951093B3
:10335000350300933403D70112968C91882379F0BA
:10336000809137038272013EBCE51B0709F465C2F8
:1033700008F051C2003EFCE51F0709F45AC217FFCE
:10338000A9C2D70112968C91882309F4AAC06801BA
:103390000115B0EC1B0708F456C2E0ECDE1A809170
:1033A000360390913703892B90917D02892B82728D
:1033B000BB24B394811101C0B12C0E940D068695E7
:1033C00081708B1529F0CC0CCD2CCC1CDD08D19450
:1033D000E894C7F8DD24F601EE0FFF1FEE0FFF1F84
:1033E000EB59FE4F459055906590749041145104EF
:1033F00021E16206710408F074C04114510431E007
:103400006306710428F080913003823009F469C0AA
:103410000E940D06869581708093FC010E940D0626
:1034200081708093FB0180913003813039F4809169
:10343000FC01882319F089E30E94A91080913703C9
:103440008093FA011092370380913003813009F4A0
:1034500001C2882309F4FAC1823009F404C284301D
:1034600009F415C2AFE3BCE91197F1F700C0000001
:1034700041145104B1E06B06710408F40DC280914F
:103480003003811109C2E1E06E1A7108C301B20173
:10349000EAE09695879577956795EA95D1F7785202
:1034A0008F4F9F4F0E949011F3E05F226624772494
:1034B000C301B20174528F4F9F4F0E9490118091AF
:1034C0003003813009F4EFC1882309F4E8C1823068
:1034D00009F4F5C1843009F4FBC18091FA018093AD
:1034E0003703D70112968C91882309F436C71092BE
:1034F00077030430BDE51B0708F026C20B3FECE55F
:103500001E0738F4980122503C452431310508F05B
:1035100020C20E94BD1290937A03809379030031F8
:103520002CE5120709F45EC308F0DAC208308CE516
:10353000180709F445C308F0ACC20430ACE51A071B
:1035400009F430C308F092C20230ECE51E0709F41A
:1035500023C380917903826003301C4509F41FC3A3
:103560006091790310917A0384E090E00E9426290B
:10357000612F82E290E00E9426290E945914C5C062
:10358000073A3DE5130709F482C0083A9DE519079B
:1035900009F084CE882309F481CE8FE591E074C0D0
:1035A00080910A0190910B01019609F46ACE86E29E
:1035B000C82E81E0D82EB12CA12C9924939480910F
:1035C0000A0190910B018A159B050CF45ACEF60165
:1035D0008681882309F1818592858017910739F4C6
:1035E000809134039091350380179107A9F0D6019B
:1035F0001F969C921F971C961C930E931B97519697
:103600008C91811103C0C6010E949909C6010696DA
:103610000E94BA0910923603BFEFAB1ABB0AE6E16B
:10362000CE0ED11CCCCF882351F082E00E94400CFA
:103630000E94D5059093F9018093F8012FCE8091D7
:10364000F8019091F9010E94C6058536910520F098
:1036500082E00E94390C22CE81EE0E94FC0F81EEA6
:103660000E944A0C82E00E94390C82E00E94CC0B3E
:1036700082E00E94ED0B81E00E94B00B0FCE882308
:1036800009F40CCE82E691E00E941C1207CE88233A
:1036900009F404CE8CE591E0F7CF003C8CE51807E7
:1036A00009F491C008F47BC0013CACE51A0709F0AD
:1036B0000BCE90912E03892F8695869586958F5FE8
:1036C0008F719770843008F096C0880F880F880F2C
:1036D000892B80932E0380912E034DC080912E0361
:1036E0008770886180932E03887F91E009F490E0D1
:1036F00080912E0390FB80F980932E0383E00E943B
:10370000190680912E030E949B1280917803877086
:1037100009F483CDD70112968C91882309F47DCDCD
:1037200080917A0382FD79CD82E00F900F900F9007
:103730000F900F90DF91CF911F910F91FF90EF901D
:10374000DF90CF90BF90AF909F907F906F905F90F1
:103750004F900C94B00B80912E0387708E7F8093D6
:103760002E0380E0CCCF80912E03982F987F79F0A4
:10377000885080932E03887F91E009F490E0809137
:103780002E0390FB80F980932E030E949B12809160
:103790002E038695869586950E941906B6CF809150
:1037A0002E03982F969596959695933040F49F5FAB
:1037B000990F990F990F8770892B80932E03809111
:1037C0002E038160E0CF80912E0380FF07C08E7FA3
:1037D00080932E030E949B1280E0DECF80FD95CF68
:1037E000816080932E03813019F489E080932E0349
:1037F00080912E03CACF90932E036DCF882309F4B6
:10380000AACD8189882309F4A6CDC501845D9E4F88
:103810000E94BA09A0CD073E2CE5120708F0AFCDF3
:103820006EE1600F609330038CE090E00E942629E7
:10383000A6CD811104C081E003C08111FCCF8FEFC0
:103840000E947A129CCDF0E8DF1AC5CD86EE0E9468
:10385000FC0F08CE88E193E00E94F21188E193E02A
:103860000E94D80CFFCD8091FB01811103C083E53C
:103870000E94A91082EE0E94FC0F8FE39CE9019741
:10388000F1F700C0000087E50E94A910EBCD86EE9D
:103890000E94A91088E1F8CFC301B2010ECE86EED6
:1038A0000E944A0C1ACE8CE20E94A9108091FC0161
:1038B000882309F412CE89E30E94A9100ECE82EE6D
:1038C0000E944A0C8091FB01811107CE83E5F4CF61
:1038D00088E2F2CF043F2CE5120739F188F4093D64
:1038E0008CE51807F1F00A3D9CE5190751F1083DF8
:1038F000ACE51A0709F0F5CD26E241EE61EE0DC008
:10390000063FBCE51B07C9F0A0F027E245EE66EED6
:10391000073FFCE51F0709F0E4CDC7010E94C61070
:10392000F4CE27E245EE65EEF8CF26E241EE60EEFA
:10393000F4CF27E245EE64EEF0CF26E241EE62EEF0
:10394000ECCF28E241E0EFCF0236FDE51F0709F496
:10395000E0CD0631ECE51E0709F469C1809137031B
:1039600082720D3C2CE5120709F428C208F0A9C1A7
:10397000073C9CE5190709F40DC208F080C1043C1E
:10398000BCE51B0709F4FCC108F068C1033CFCE579
:103990001F0709F4CFC10B352DE5120709F448C202
:1039A00008F024C201158CE5180709F431C20F3D57
:1039B0001C4509F43AC2F7018281108101818823F4
:1039C00009F43AC2812F902F0E94880AD82E682FBE
:1039D000812F902F0E94220BE12FF0E029E0029F1F
:1039E000E00DF11D11243CE6D39EE00DF11D1124E4
:1039F000EE0FFF1FE75FFD4F859194910E94C30773
:103A00008C01782ED7011296DC90129715969C9017
:103A100092945FE09522809178038770C1F0BD2C6D
:103A2000DD20B1F0812F807F803421F080E2800F93
:103A3000883068F080917A0382FD09C082E00E949C
:103A4000B00B809178038770BB24B3948111B12CA3
:103A5000A12EA2943FE0A322BBE0BA1508F455C200
:103A6000EA2DF0E0E257F64D0C94CF2880917903CF
:103A7000806106302CE5120709F491C0809179032A
:103A8000886007301C4508F48AC080917903806201
:103A900086C00C308CE5180709F49CC070F4809146
:103AA00079038C600A30ACE51A0709F478C008F491
:103AB0008BC0809179038E7F72C080917903877F5C
:103AC0000E30ECE51E0709F46AC0809179038B7F04
:103AD0000F301C4508F463C0809179038F7E5FC06E
:103AE0000D3F2CE5120709F479C068F504318CE527
:103AF000180709F48BC080F40231ACE51A0709F409
:103B000075C0809179038F7B03311C4508F447C051
:103B100080917903837F43C00B3FECE51E0709F4D6
:103B200045C008F049C005311C4509F019CD809108
:103B3000790382FB992790F921E0922790FB82F983
:103B400090FB83F92CC001303DE5130709F454C004
:103B500088F480917A0383600F3F9CE5190749F14F
:103B600080917A038D7F01151D4518F180917A03AC
:103B70008C7F1FC00330BDE51B0709F456C008F455
:103B80004EC002361D4509F0EBCC90917903892F88
:103B90008F7E94FF806103C0809179038160809360
:103BA0007903DECC809179038460F9CF80917A0328
:103BB000816080937A03D4CC80917A038260F9CFBC
:103BC000809179038064EBCF0E945914809179032E
:103BD0008068E5CF809179038D7FE1CF80917A0372
:103BE0008E7FE7CF809179038F7DD9CF0E945914C2
:103BF000809179038F77D3CF80917A03982F909516
:103C000091708E7F892B90FB81F9D3CF0E9459143C
:103C100090917903892F97FB87F98058C0CF61E095
:103C20008EE090E00E9426299BCC60E0F9CF8823AB
:103C300009F497C3809137038A7A91E009F490E000
:103C40009093FD01811106C089E20E942A0A0E9418
:103C500054095BCD85E3F9CF85E388C3053C2CE5AA
:103C6000120709F492C048EB53E161EC73E1063CA2
:103C70003CE5130709F08FCE0E94BD0646CD0A3CF5
:103C80009CE5190709F490C070F4083CBCE51B07DB
:103C900009F485C04CEA53E160EA73E1093CECE5C4
:103CA0001E0751F378CE0B3CFCE51F0709F481C0D9
:103CB0004AEC53E16BED73E10C3C2CE51207E1F2A9
:103CC0006ACE023D3CE5130709F485C0B0F40F3C11
:103CD0009CE5190709F479C008F475C0003DBCE5FE
:103CE0001B0709F475C06EE089E0013DECE51E0795
:103CF00009F051CE0E943D1408CD053DFCE51F079B
:103D000009F46FC060F4033D3CE5130709F466C095
:103D1000043D8CE5180709F03ECE88E12EC0063D33
:103D20009CE5190709F460C00E35ADE51A0709F4E2
:103D3000ECCC31CE8091290380FF1BC08E7F809315
:103D400029036091290370912A0380912B0390919C
:103D50002C030E94E1121092DD02BFEFE0E7F2E0D7
:103D6000B150E040F040E1F700C000000E94910D2A
:103D7000CCCC81608093290386950E942714C5CC02
:103D80004AE254E163E374E177CF43E354E16AE24A
:103D900074E172CF41EC53E168EB73E16DCF40EA1F
:103DA00053E16CEA73E168CF48E853E164E973E1F9
:103DB00063CF44E953E168E873E15ECF4BED53E133
:103DC0006AEC73E159CF81E0D8CF65E082E092CF11
:103DD00068E086E08FCF64E18FE08CCF67E185E11A
:103DE00089CF62E289E186CF83E2C7CF0C35ADE5AA
:103DF0001A0701F10D351D4509F0DDCD80917A03DB
:103E000082FB882780F991E089270E94A012D3CDF8
:103E10000E945914EFEFF4E32CE0E150F040204011
:103E2000E1F700C000000E94630D0E942A176DCCCC
:103E300081E0EBCF80E0E9CF812F902F0E94FA0A3A
:103E4000D82ECACDE12FEF70CE2E107F19F0C2947C
:103E500020EFC222DD20B9F0CC2069F080E2800F93
:103E6000883010F0711009C080913703C82AC092C1
:103E700037030E945409802F46C080913603C82A18
:103E8000C0923603F6CF802F0E944A0CCC20E9F175
:103E9000005E8C2D083010F0711003C00E944D0997
:103EA00002C00E9446090E9454092FC0F12FFF70E2
:103EB000CF2E107F103219F0C29490EFC9227720D4
:103EC00089F021E0721609F48CC0DD2009F496C057
:103ED000992009F48CC0F701858180FFCCCF8F70C9
:103EE000858385C020917A0322FF58C0DD2009F424
:103EF0004DC0CC2039F080913703C82AC0923703D7
:103F00000E94540980E00E94FC0FEA2DE850FF0B4C
:103F1000349720F40E940D060E94990CBB20B1F04A
:103F20008091780380FD12C0D70112961C9285956E
:103F3000859585950E94CC0BC7010E94E818809159
:103F400078038595859585950E948D0B85E0F70111
:103F5000DE01119601900D928A95E1F789819A818F
:103F60000E94FA0A9A81E981F0E0B9E09B9FE00D96
:103F7000F11D11242CE6829FE00DF11D1124EE0F9E
:103F8000FF1FE75FFD4F8591949147C980E00E9434
:103F90004A0CCC2009F4B9CF8C2D80CFDD20A1F0C4
:103FA00090917D028C2D892B911003C00E94400CB2
:103FB000ACCF31E09312FACF22FDA7CF981709F4C6
:103FC000A4CF80937D02A1CF911006C00E9440092A
:103FD0008C2D0E94390C99CF81E0981609F495CF69
:103FE000F5CFDD2031F095E0991508F48ECF8C2DBA
:103FF000DDCFA4E0A91508F488CFEACF992041F3DA
:10400000F9E37F1209C02FEF37EE83E021503040F3
:104010008040E1F700C00000802F0E944A0C75CF5D
:10402000812F86958695837061F0813009F06DCF80
:10403000C8019370D11002C090E080E00E94E105B9
:1040400064CFC8019370D11002C090E080E00E945C
:10405000F7055BCF812F837009F06DC0D11055CF6C
:10406000802F829586958770880F880F602F6F70DC
:10407000462E512C712C612C082E04C0440C551C6A
:10408000661C771C0A94D2F740E050E0BA0104FFA6
:104090000FC04FE050E060E070E004C0440F551FD7
:1040A000661F771F8A95D2F7409550956095709559
:1040B000812F869586958370823019F1A8F500913D
:1040C0007E0210917F022091800230918102813026
:1040D00069F04429552966297729CB01BA01602363
:1040E0007123822393230E941E0C0FCF04291529CC
:1040F00026293729CB01BA01602B712B822B932BF8
:10410000F2CF442955296629772900917E02109122
:104110007F022091800230918102CB01BA01602799
:10412000712782279327DFCFCB01BA016429752934
:1041300086299729D8CF8695DD2011F0812F8170AF
:10414000882309F4E2CE802F829586958770880FA8
:10415000880F602F6F70462E512C712C612C082E09
:1041600004C0440C551C661C771C0A94D2F740E02E
:1041700050E0BA0104FF0FC04FE050E060E070E093
:1041800004C0440F551F661F771F8A95D2F74095CC
:10419000509560957095812F8695869583708230B5
:1041A00019F1A8F5009185021091860220918702ED
:1041B00030918802813069F0442955296629772990
:1041C000CB01BA0160237123822393230E94830BC6
:1041D0009CCE0429152926293729CB01BA01602B49
:1041E000712B822B932BF2CF4429552966297729ED
:1041F00000918502109186022091870230918802F9
:10420000CB01BA016027712782279327DFCFCB012B
:10421000BA016429752986299729D8CF1F70DD2016
:1042200029F0812F0E94CC0B802FC0CE802F0E94BE
:10423000390C812F0E948D0B68CE802F92EF79165A
:1042400009F43FC0971570F0A0EF7A16D1F0B1EFE6
:104250007B1691F0DD2009F45BC091100CCE812F0C
:104260008F7133C0E3EF7E1699F1F4EF7F12F2CF36
:1042700080917A0382FF37C0812F8F71DD20D1F2C8
:1042800024C0DD20C9F024E0291508F43ECE1F71BA
:1042900061E070E080E090E004C0660F771F881F47
:1042A000991F1A95D2F700918502109186022091EC
:1042B000870230918802A6CF35E0391508F425CE63
:1042C000E6CF812F8F71D110B5CF0E94CC0B1DCEC0
:1042D000DD2029F0812F8F710E94FA0B16CE60E04D
:1042E00070E0CB0173CFDD2041F01F71812F0E9460
:1042F000CC0B812F0E94ED0B08CE81E00E94B00B09
:1043000081E0891508F001CE82E00E94B00BFDCD5E
:10431000992059F0893309F07FCE9FEFA7EEB3E0E3
:104320009150A040B040E1F775CE812F8F7182CFC0
:1043300085E0F701DE01119601900D928A95E1F773
:10434000D70112962C9189819A8121110C942219FE
:104350000E94FA0A082F0C942A1906311C4509F00C
:104360002ACB8091FD01811177CC89E20E94FF095F
:104370006ECC1F93CF93DF9380914902807FA9F485
:1043800080914602882389F080917B02D0914A0275
:104390006091440270914502A0914702B091480299
:1043A000C62FC72316E0D81304C0DF91CF911F9109
:1043B000089590E0109711F0CF3F19F4019687709F
:1043C000F2CF189F9001199F300D1124F901E55B80
:1043D000FD4F41814713F2CF40814613EFCF428119
:1043E0004111ECCF438154814A1B5B0B483C510582
:1043F00028F7809149028F70806180934902F9010A
:10440000E05BFD4F80818F708061808384E492E067
:104410000E94E818DF91CF911F910C947E0A8F9231
:104420009F92AF92BF92CF92DF92EF92FF920F9343
:104430001F93CF93DF93CDB7DEB761970FB6F89494
:10444000DEBF0FBECDBF8C0185E0F801DE011D96F9
:1044500001900D928A95E1F7D8011296EC9012978F
:1044600084E4882E82E0982E4091470250914802C1
:104470004115510509F43EC1909144022091450235
:10448000892F82238F3F09F435C1DC901196CC909F
:1044900011971396AD90BC901497F0904602F501D9
:1044A000E41BF50BFF2009F4F9C080914902382F75
:1044B000307FE83CF10508F0C5C0311185C0FE2C05
:1044C0002C1124C09D1122C0E11020C08F7080618A
:1044D00080934902C4010E94E81880914902D801E2
:1044E00015968C938F2D61960FB6F894DEBF0FBE94
:1044F000CDBFDF91CF911F910F91FF90EF90DF9093
:10450000CF90BF90AF909F908F900895A114B10469
:1045100029F08D2D8C218F3F09F00AC180E080FFAA
:1045200014C04E2D6C2D8D2D0E945E0A882369F0DB
:1045300084E492E00E94E81886E0E4E4F2E0DF011F
:104540001D928A95E9F7F12CCDCFAB2829F08D2D5E
:104550008C218F3F09F0E9C080E0B82FB170AB2EFD
:1045600080FF29C04E2D6C2D8D2D0E945E0AB82E25
:10457000811121C0DD86CE868D859E850E94DF0A51
:10458000292F22952F70223050F0243078F49F701C
:1045900051F0F8019581907F31F4FB2CA3CF9F70EF
:1045A00011F08823D1F3805E8830B8F3C8010E94EF
:1045B000E818BA2CF2CFEE2009F494CF809149028A
:1045C000816080934902BFCF2C1112C09D1110C091
:1045D000E1100EC015968C93C8010E94E81886E081
:1045E000F801A4E4B2E001900D928A95E1F77ACF48
:1045F000C8010E944E0B882309F1EE20F9F080914A
:104600004902803270F0209144023091450238878F
:104610002F831986BB86AA868C87CE0107960E94B7
:10462000E81886E0F801A4E4B2E001900D928A95C2
:10463000E1F70E94B921FF24F39454CFC8010E94EE
:10464000E818F9CF332309F473CF2C110FC09D1153
:104650000DC0E1100BC0F8018583C8010E94E81865
:1046600086E0D4011D928A95E9F73CCFC8010E94EB
:104670004E0B882319F3EE2009F380914902803212
:1046800080F220914402309145023A8329831B82B3
:10469000BD82AC828E83CE010196C1CFE83CF1058C
:1046A000F8F6FE2CEE2051F22C1116C09D1114C00C
:1046B0008091490280FD93CF982F907F09F48FCF8E
:1046C000F8018583903F09F487CF982F907F905F02
:1046D0008F70892B858380CFC8010E944E0B81117A
:1046E000A0CF80914902816080934902C8010E9455
:1046F000E818F8CEEE2009F4A1CFC8010E944E0BB5
:10470000F82E882309F49ACF86E0F801A4E4B2E0F9
:1047100001900D928A95E1F78091440290914502B3
:104720000E94DF0A0E94B921DDCE81E08E2515CFDF
:1047300081E08E25F4CE1F93CF93DF93CDB7DEB704
:1047400067970FB6F894DEBF0FBECDBF4B8B5C8B67
:104750006D8B7E8B8F8B6111109236031A8A198AAA
:1047600085E0FE017396DE011D9601900D928A95FB
:10477000E1F786E0FE013D96DE01179601900D926D
:104780008A95E1F7CE0107960E940F22882389F0CF
:1047900016E080917B0290914A02891349C0679686
:1047A0000FB6F894DEBF0FBECDBFDF91CF911F9142
:1047B000089586E0FE013796DE01119601900D9274
:1047C0008A95E1F78A859B85892B11F38F819885DE
:1047D00089238F3FE9F220914A0230E0C901019616
:1047E0008770992740917B024817190671F40E943F
:1047F000591410924A0210927B0286E0E4E4F2E03F
:10480000DF011D928A95E9F7C3CF96E0929FD00110
:10481000939FB00D1124A55BBD4FFE013196019011
:104820000D929A95E1F780934A020E947E0AB0CFDA
:10483000819FC0011124855B9D4F0E940F22882318
:1048400009F4ADCF80917B0290E0019687709927A3
:1048500080937B029ECF1F920F920FB60F9211246E
:104860002F933F934F935F936F937F938F939F9378
:10487000AF93BF93CF93DF93EF93FF93D091E90072
:10488000DF708091EC00C82FC17080FDC0E81092ED
:10489000E9008091F000877F8093F00078940E9477
:1048A0006E141092E9008091F00088608093F0000F
:1048B000CD2BCF70C093E900FF91EF91DF91CF91A5
:1048C000BF91AF919F918F917F916F915F914F9128
:1048D0003F912F910F900FBE0F901F9018951F9230
:1048E0000F920FB60F9211242F933F934F935F9324
:1048F0006F937F938F939F93AF93BF93EF93FF93A8
:104900008091E10082FF09C08091E20082FF05C032
:104910008091E1008B7F8093E1008091DA0080FF3D
:1049200024C08091D80080FF20C08091DA008E7F63
:104930008093DA008091D90080FF9DC080E189BD1D
:1049400082E189BD09B400FEFDCF81E080936B0355
:1049500080914603811109C00E9436040E9401051E
:104960008091E20084608093E2008091E10080FF0A
:1049700017C08091E20080FF13C08091E2008E7F1B
:104980008093E2008091E20080618093E200809158
:10499000D80080628093D80019BC85E080936B03B7
:1049A0008091E10084FF2BC08091E20084FF27C04A
:1049B00080E189BD82E189BD89B5982F917080FF22
:1049C000FBCF8091D8008F7D8093D8008091E1004B
:1049D0008F7E8093E1008091E2008F7E8093E200E1
:1049E0008091E20081608093E20080916C038823D3
:1049F00009F447C084E080936B0380916B0380913E
:104A0000E10083FF27C08091E20083FF23C08091F3
:104A1000E100877F8093E10082E080936B03109236
:104A20006C038091E1008E7F8093E1008091E20031
:104A30008E7F8093E2008091E20080618093E200AB
:104A400042E060E080E00E94CF048091F000886046
:104A50008093F000FF91EF91BF91AF919F918F9163
:104A60007F916F915F914F913F912F910F900FBE6A
:104A70000F901F90189519BC10926B03109246036B
:104A800074CF8091E30087FD93E090936B03B5CFE3
:104A900078941F921FB61F9211248F939F93AF9308
:104AA000BF9380913F0390914003A0914103B09147
:104AB00042030196A11DB11D80933F0390934003D3
:104AC000A0934103B0934203BF91AF919F918F9107
:104AD0001F901FBE1F9018951F921FB61F92112482
:104AE0008F939F93AF93BF9380913E03811113C027
:104AF00080913F0390914003A0914103B091420304
:104B00004196A11DB11D80933F0390934003A09354
:104B10004103B0934203BF91AF919F918F911F903A
:104B20001FBE1F901895CDB7DEB72A970FB6F89421
:104B3000DEBF0FBECDBF84B7877F84BF0FB6F894AA
:104B4000A895809160008861809360001092600059
:104B50000FBE80E890E00FB6F894809361009093C8
:104B600061000FBE85B7806885BF85B7806885BF47
:104B700087E697E09093D7018093D6010E94360490
:104B80000E9401058091E20084608093E2007894A5
:104B900080916B038823A1F01091E9001F70909120
:104BA000EC00892F817090FD80E8182B1092E900AD
:104BB0008091E80083FD0E946E141F701093E9003D
:104BC00082E084BD93E095BD9AEF97BD80936E001F
:104BD0000AE911E076EAE72E71E0F72ED8018D910F
:104BE0008D018F3F11F00E946907E016F106B1F7C1
:104BF00006EA11E0F80181918F018F3F11F00E94C8
:104C00006907F1E00F3A1F07A9F788E1E4EAF2E04B
:104C1000DF01282F1D922A95E9F7E9E8F2E0DF018C
:104C20001D928A95E9F790E080E00E942029893E54
:104C30009E4F11F00E942A1782E090E00E941229F4
:104C40008093BD020E94BD1290937A0380937903F2
:104C50000E94CF17EFE3FCE93197F1F700C00000A5
:104C60000E94CF178091A40280FF08C06FEF7FEFF2
:104C700090E080E00E9444290E94630D83E090E070
:104C80000E941229682F70E090E080E00E941E0CC4
:104C9000279A2F988AE08093800089E18093810091
:104CA0008FEF9FEF90938700809386000E94A61756
:104CB0008CE090E00E941229482F50E070E060E004
:104CC0004093300350933103609332037093330366
:104CD000882309F4EFC0843009F0EFC081E08093AD
:104CE0002F03559A6E9A0E94A6178091A1028111F6
:104CF00036C090E080E00E942029893E9E4F21F03E
:104D00000E942A170E944A1488E090E00E941A2903
:104D10006093290370932A0380932B0390932C03B1
:104D20006E7F71F40E944A1488E090E00E941A2974
:104D30006093290370932A0380932B0390932C0391
:104D40000E94C2061092DD028091290380FF04C0F8
:104D500060E086950E94EC1381E08093A1028CE0D4
:104D600091E090933B0380933A0358E1E52EF12CB8
:104D700060E4D62ECC24C39480916B0300E112E151
:104D8000853009F4F8C00E94CF17882359F08FB7F7
:104D9000F89440913F03509140036091410370911A
:104DA00042038FBFA4EAB2E0EEEBF2E010E000E0D5
:104DB000702F8D919D91219131912817390709F418
:104DC000FFC02827392760E0AA24A394B12CA501AD
:104DD00042235323452B09F4EDC069837A8395015F
:104DE0002823392391E0232B09F490E09B830E9430
:104DF000D5058160782F9D838C8349815A816B8191
:104E00008D810E949B23000F111FF801E254FD4F7A
:104E100080819181A826B926B182A0828091DD028D
:104E20008823D1F18091DC02E0912903E695E81B0B
:104E3000E093D802823009F0DAC0F0E0E156FB4F8F
:104E4000E4910E2F10E0E8EEAE2EEFE0BE2E809142
:104E5000D902882361F01092D9020E94D50590935F
:104E6000D7028093D6021092DB021092DA020E94DF
:104E7000D505E091D602F091D7028E1B9F0B8F3F94
:104E80009F4750F4E00FF11FF093D702E093D60252
:104E900086ED92E0F50109950E940D069091BC0205
:104EA000891709F469CF0E940D068093BC020E9405
:104EB000990C62CF10922F0314CF10922F031092EF
:104EC00030030FCF80916B03843009F443C080E03E
:104ED0000E94190680E00E94990C1092DD028091D8
:104EE000A302811116C0C092A30280912903982FBA
:104EF00091709093A2028E7F809329032FEF80E719
:104F000092E0215080409040E1F700C000000E94F4
:104F1000910D10923E030FB6F894A895E0926000B0
:104F20000FBED092600083B7817F846083BF83B758
:104F3000816083BF7894889583B78E7F83BF0FB6D7
:104F4000F894A89580916000886180936000109229
:104F500060000FBE80916A03882369F00E94CF171A
:104F6000E4EAF2E081919191892B09F09AC0A2E0E4
:104F7000EC3BFA07B9F780916B03853009F4A2CFB7
:104F80000E9459140E94A6170E940D060E94990CB7
:104F90001092A3028091A202882349F080912903F4
:104FA00081608093290360E086950E94EC130E9443
:104FB000CB12E9CE6F5FAA0CBB1C693009F007CF9A
:104FC0000F5F1F4F0C30110509F0F2CE8FEF8E836B
:104FD0008F8318860E94D5058160782F9A878987EC
:104FE0004E815F8168858A850E949B2317CF86301A
:104FF00059F4F0E0E456FB4FE4910E2F10E078ED09
:10500000A72E7FE0B72E23CF893061F4E695F0E03C
:10501000E756FB4FE4910E2F10E064E4A62E6FE0FC
:10502000B62E15CF8F3061F4E695F0E0EA56FB4FCF
:10503000E4910E2F10E056EDA52E5EE0B52E07CFC1
:10504000853159F4F0E0ED56FB4FE4910E2F10E05E
:1050500048E8A42E4EE0B42EFACE08E210E09FEF0E
:10506000A92E9DE0B92E883109F4F1CE833249F49E
:10507000E1E9F4E0059114913FE7A32E3FE0B32E60
:10508000E6CE04EF11E026ECA22E2DE0B22E843203
:1050900009F4DDCE00ED17E081ECA82E85E0B82EF6
:1050A000D6CE09BD19BD09B400FEFDCF8091D80050
:1050B0008F7D8093D8008091E00082608093E00033
:1050C0008091E00081FDFCCF0E94591454CFDB0198
:1050D0008F939F930E94F328BF91AF91A29F800D61
:1050E000911DA39F900DB29F900D1124089587FBF1
:1050F000082E062687FD819567FD61950E94062989
:105100000EF4919507FC81950895AA1BBB1B51E1F4
:1051100007C0AA1FBB1FA617B70710F0A61BB70B27
:10512000881F991F5A95A9F780959095BC01CD01CC
:10513000089597FB072E16F4009407D077FD09D049
:105140000E94852807FC05D03EF4909581959F4FDD
:105150000895709561957F4F0895A1E21A2EAA1BBC
:10516000BB1BFD010DC0AA1FBB1FEE1FFF1FA21717
:10517000B307E407F50720F0A21BB30BE40BF50B14
:10518000661F771F881F991F1A9469F7609570959D
:10519000809590959B01AC01BD01CF010895EE0F64
:1051A000FF1F0590F491E02D09940E94DD28332320
:1051B00012F48A1B9B0B0C94EE28A29FB001B39FA4
:1051C000C001A39F700D811D1124911DB29F700D10
:1051D000811D1124911D08950E94DD28B7FF0895B7
:1051E000821B930B08950E94DD28A59F900DB49F0C
:1051F000900DA49F800D911D11240895B7FF0C946C
:10520000F3280E94F328821B930B0895991B79E0E1
:1052100004C0991F961708F0961B881F7A95C9F746
:1052200080950895F999FECF92BD81BDF89A99278E
:1052300080B50895A6E1B0E044E050E00C944C291C
:10524000A8E1B0E042E050E00C944C29262FF999F7
:10525000FECF92BD81BDF89A019700B4021639F0D5
:105260001FBA20BD0FB6F894FA9AF99A0FBE0895A6
:105270000396272F0E9427290E942629252F0E9466
:105280002729242F0C9427290196272F0E942729AC
:105290000C942629DC01CB01FC01F999FECF06C054
:1052A000F2BDE1BDF89A319600B40D9241505040E4
:1052B000B8F70895FC014150504030F001900616B7
:1052C000D1F73197CF010895882799270895FB01D9
:1052D000DC0104C08D910190801921F441505040AF
:1052E000C8F7881B990B0895F894FFCF600B600BEB
:1052F000690B690B6B0B690B690B690B600B600B1E
:10530000700B690B690B700B52157A1512177A1511
:105310001217AD15CE151217CB16D816221F221F45
:10532000561F561F1020851F851F851F2A200E21FE
:045330001D211D21FD
:10533400AE0000FA0BAE0001FA0BFFFFC305230D0C
:10534400C2051F0D1B0DC00501191A1B1C1D1E1FB4
:1053540020212201020100000000000000000000E2
:105364000000000000000000000000000F0C091203
:10537400870D000000000000000000000000000095
:1053840005010F0C0912870D000000000000000049
:10539400000000000000000101818283E200E900B6
:1053A400EA00B500B600B700CD008301CC008A0145
:1053B40092019401210223022402250226022702DB
:1053C4002A02B300B4006F00700030313233909180
:1053D400353697349694F0F1F4F5F6F76766920053
:1053E40001020202020606060909090909090F0F4A
:1053F4000F0F0F0F1515151819191919191919194E
:0654040019192324000425
:00000001FF
