:100000000C94A7050C94DF050C94DF050C94DF0518
:100010000C94DF050C94DF050C94DF050C94DF05D0
:100020000C94DF050C94DF050C942F2B0C94EB2A19
:100030000C942C2C0C94DF050C94DF050C94DF053C
:100040000C94DF050C94DF050C94DF050C94DF05A0
:100050000C94DF050C94082C0C94DF050C94DF0540
:100060000C94DF050C94DF050C94DF050C94DF0580
:100070000C94DF050C94DF050C94DF050C94DF0570
:100080000C94DF050C94DF050C94DF050C94DF0560
:100090000C94DF050C94DF050C94DF050C94DF0550
:1000A0000C94DF050C94DF050C94DF050501098035
:1000B000A101850319012AB700150126B700950192
:1000C00075108100C0050C0901A101850419012AE0
:1000D000A002150126A002950175108100C00660DE
:1000E000FF0961A1010962150026FF00952075082E
:1000F00081020963150026FF00952075089102C052
:1001000005010906A101050719E029E715002501E8
:10011000950875018102950175088101050719008F
:1001200029FF150026FF00950675088100050819AE
:10013000012905950575019102950175039101C08D
:1001400000047F3F1F643214643214783C1E1E1476
:100150000A05FD377A585A000004E6D6B446020074
:10016000210116000000742FE5A3E0090102685D7B
:10017000003D8889C65436C3174FE4F2B9B3D36142
:10018000BE8EB06DDF31EC07BEA27BF373AD728122
:10019000B17CE6B64F3B9DA7184690203E40C51463
:1001A000776870E13ED9A16D8699AB57C27B8B858C
:1001B000C09E1D9CFF140620095CC6D5E4914BC26D
:1001C00063F8F17E6A1F695448228FF0998CE647E4
:1001D000536A1D9EEB71C47070384DD5AE4605272D
:1001E000F5C636EE2880181C8B0D98B5E2B9F53AA5
:1001F000C93A7CDAA6165433134F543801C351EC74
:10020000F23DAB9907912E35AEBB896A9E44FC1B2B
:10021000F21002CD62402FDF4AE4C8F1D49272FCA2
:100220006C3713DE84973D52C1513C2837AF2DBB4C
:10023000F1D10DED2FEF0325C2946F15701B8C26A5
:10024000155209EA2FB61BC94A63C536691BF34F1D
:10025000806BF49F77DD54950D9FD0375891FB1E2E
:10026000D79227988BE2F18049F050AF8AE573046A
:10027000E6D72FD9925386434FC2AD906B265BB41D
:10028000193924539185843C0CBF313A203292BEF7
:100290003E8506505CC3A71537B829D4D0DE336D30
:1002A00031AA479C93D0542834B2D6CEDE7B681551
:1002B0008F99ACA2E280E6297BDB3A997925EDA201
:1002C000CB9CB1C012400473E671685629A4E012B9
:1002D0009DA2D3180FC3C22C2E2F02D9C00148DE15
:1002E000BB12AE24B1903BB338B5F5F8EB3F5DFAE5
:1002F000C9A4644D2A99DF38A19FD6B44821CF778D
:10030000C27C70DD80E9F92B124BA9315834712A77
:100310000B604698E87C6154CEFAF1543E39B94CF2
:10032000AEA636B58569BFBDBC478B3DF569779EE6
:10033000516FACDA86FEAFA2A48638E0DBD5634706
:10034000FD30784619261C82E2594A65A4B29D2EDA
:10035000E9DFF60071BC997C99A3C084A249B3C1BE
:100360001404BD894CBD706143CEF45B86538C2C64
:1003700045EF68E0CF1A76F3D6A8B4D367C2E46835
:1003800037E75CD51E941650025A4DBBD87B63C626
:10039000AB02FB1A1C950CF9402347EC0E62A00837
:1003A000005064F53442FA622F1F53C73C1CCEF54F
:1003B0008FEF9BCC4EAB818AAF03DE80206EDCA238
:1003C000E63C23B2038F3463CBF1AEBBC183D90BC0
:1003D000F389A3F95806A94F0000DE00DE394F95D6
:1003E000487C0001840582120000CD0466D6B1C4A9
:1003F00067FB020000000004595A000101010101DD
:1004000001010101020202020202020202030303CD
:10041000030303030304040404040404050505059D
:10042000050606060606070707070708080808095D
:100430000909090A0A0A0B0B0B0C0C0C0D0D0D0E09
:100440000E0E0F0F0F10101111111212131314149E
:10045000151516161717181819191A1A1B1B1C1D13
:100460001D1E1E1F2020212222232424252626276C
:100470002829292A2B2C2D2D2E2F3031323233349E
:1004800035363738393A3B3C3D3E3F4041424344A4
:1004900045464748494A4C4D4E4F50515354555686
:1004A00058595A5B5D5E5F616264656668696B6C32
:1004B0006D6F7072737577787A7B7D7E80828385AD
:1004C00087888A8C8E8F91939596989A9C9EA0A2ED
:1004D000A3A5A7A9ABADAFB1B3B5B7BABCBEC0C2F7
:1004E000C4C6C9CBCDCFD1D4D6D8DBDDDFE2E4E7BB
:1004F000E9EBEEF0F3F5F8FAFDFFFFAA7F55402295
:1005000023252628292A2C2D2F3032333536383A08
:100510003B3D3E4042434547494A4C4E505153555E
:1005200057595A5C5E6062646668696B6D6F71737F
:100530007577797B7D7F81838587898A8C8E909280
:100540009496989A9C9E9FA1A3A5A7A8AAACAEAF8B
:10055000B1B3B4B6B8B9BBBCBEBFC1C2C3C5C6C7D0
:10056000C9CACBCCCDCED0D1D2D2D3D4D5D6D7D781
:10057000D8D9D9DADADBDBDBDCDCDCDCDCDDDDDDC9
:10058000DDDCDCDCDCDCDBDBDBDADAD9D9D8D7D7C5
:10059000D6D5D4D3D2D2D1D0CECDCCCBCAC9C7C672
:1005A000C5C3C2C1BFBEBCBBB9B8B6B4B3B1AFAEB0
:1005B000ACAAA8A7A5A3A19F9E9C9A989694929056
:1005C0008E8C8A89878583817F7D7B79777573712E
:1005D0006F6D6B6968666462605E5C5A595755530B
:1005E00051504E4C4A4947454342403E3D3B3A38C4
:1005F00036353332302F2D2C2A292826252322293F
:10060000003B003D003F0041000000440027004740
:10061000003A003C003E00400042004300450046D6
:1006200000480035001F0021002300250027002E70
:10063000002A004A001E0020002200240026002D6F
:10064000002A0049004B002B001A0015001C000C6A
:10065000001300300000004D0014000800170018BF
:100660000012002F0031004C004E00390016000926
:10067000000B000E003300320000000000040007F1
:10068000000A000D000F003400280000000000E107
:10069000001D000600050010003700E500000052B4
:1006A0000064001B00190011003600380001000032
:1006B000000000E000E200000000000000E600E7AB
:1006C0000000005100E300000000002C00000001C9
:1006D00051E40050004F00010001000100C35CC55F
:1006E0005C0000CA5C0100BD5C01000100C25CC688
:1006F0005CC85CC75CC95CBF5CBE5C0100010001FA
:1007000000010001000100010001000100010001E1
:1007100000010001000100010001000100A9000129
:10072000000100005C01000100010001000000ABBD
:10073000000100010001000100010001000100AE04
:1007400000AA0001000100010001000100010001F8
:100750000000000000010001000100010001000193
:100760000001000000000001000100010001000183
:100770000001000100000001000100010001000172
:100780000001000100010000000000010001000064
:100790000000000000010001000000010001000055
:1007A0000000000100000001000100010001000143
:1007B0000001000100010001000000010001000132
:1007C0000001000100010001000100010001000121
:1007D0000001000100010001000100010001000111
:1007E0000001000100010001000100010001000101
:1007F00000010001000100010001000100010001F1
:1008000000010001000000010001000100010001E1
:1008100000010001000100010001000100010001D0
:1008200000010001000100010000000000010001C2
:1008300000010001000100010001000000000001B2
:1008400000010001000100010001000100000001A1
:100850000001000100010001000100010001000091
:100860000000000100010000000000000001000184
:100870000000000100010000000000010000000174
:100880000001000100010001000100010001000160
:100890000000000100010001000100010001000151
:1008A0000001000100010001000100010001000140
:1008B0000001000100010001000100010001000130
:1008C0000001000100010001000100010001000120
:1008D0000001000100010001000100010000000111
:1008E0000001000100010001000100010001000100
:1008F00000010001000100010001000100010001F0
:1009000000000000000100010001000100010001E1
:1009100000010000000000010001000100010001D1
:1009200000010001000000010001000100010001C0
:1009300000010001000100000000000100010000B2
:1009400000000000000100010000000100010000A3
:100950000000000100000001000100010001000191
:100960000001009B032A115D1100000200020097A4
:10097000032A115D110000030001009C032A115D90
:100980001100000400020081032A115D11610805B5
:100990000001009D032A115D110000060002008382
:1009A000032A115D1100000700020099032A115D5E
:1009B000110000080001009E032A115D11000012C1
:1009C0000002009F032A115D11000013000200A124
:1009D000032A115D11000014000100A3032A115D18
:1009E000110000150000000000E707611900000970
:1009F000025B00030100A0FA0904000001030101E9
:100A000000092111010001224000070581030800AF
:100A10000109040100020300000009211101000185
:100A2000222200070582032000010705030320009E
:100A30000109040200010300000009211101000165
:100A40002232000705840320000112010002000089
:100A50000008D804A2EC0100010203011C03760087
:100A6000690061006C003A006600360034006300E3
:100A700032006200330063000000080368003800A1
:100A8000380000001403680069006E0065007900FA
:100A90006200750073006800000004030904000090
:100AA0000000000000000000000000000000000046
:100AB0000000000000000000000000000000000036
:100AC00000007E0F00D4FFFFFFC700000078000089
:100AD0000000000000002A2B280000000000000099
:100AE00000000000000000000029000000002C1E93
:100AF0003420212224342627252E362D3738271E50
:100B00001F202122232425263333362E37381F0475
:100B100005060708090A0B0C0D0E0F10111213140D
:100B200015161718191A1B1C1D2F3130232D3504CB
:100B300005060708090A0B0C0D0E0F1011121314ED
:100B400015161718191A1B1C1D2F3130354C11247E
:100B50001FBECFEFDAE0DEBFCDBF04B603FE18C084
:100B60008091D5039091D603A091D703B091D8037B
:100B70008730904BA740B04B59F41092D503109298
:100B8000D6031092D7031092D803E0E0F8E309955A
:100B900011E0A0E0B1E0E4E5FBE602C005900D92B3
:100BA000A03AB107D9F723E0A0EAB1E001C01D9255
:100BB000A53DB207E1F70E94532C0C9484350C94A8
:100BC0000000E8EDF0E080818E7F80831092E200EB
:100BD0001092DA001092E100A0EEB0E08C918160FA
:100BE0008C9380818F77808319BCA7EDB0E08C91C6
:100BF0008E7F8C9380818F7E80831092BC030895BA
:100C00002091E4003091E50095E6A9012091EC00E7
:100C1000822F817020FF06C08091E80080FF06C00F
:100C200080E008952091E80022FD1AC08091D2034F
:100C3000882389F0853089F08091EB0085FD0FC015
:100C40002091E4003091E50042175307F9F29150EA
:100C5000E1F684E0089582E0089583E0089581E05C
:100C60000895EF92FF920F931F93CF937C018B0116
:100C70000E940006C82F811117C08091E80085FDF1
:100C80000BC08091E8008E778093E8000E940006F8
:100C9000882399F3C82F08C0F70181917F018093C1
:100CA000F1000150110949F78C2FCF911F910F913D
:100CB000FF90EF900895CF93FC018091D203843090
:100CC00001F5C091E900CF702091EC00922F917056
:100CD00020FD90E8C92B82E08093E9008091E80034
:100CE00080FF0CC050E040E060E270E0CF010E9465
:100CF00031068091E8008E778093E800CF70C09332
:100D0000E900CF9108958091CA0387FF13C08091B5
:100D1000E80082FF06C08091E8008B778093E800AE
:100D200004C08091D2038111F2CF08958091D20343
:100D30008823D9F38091E80080FFF8CF8091E80004
:100D40008E77ECCF982F9093E900242F762F50E0E8
:100D5000891731F07091EC002091ED005091F00076
:100D600021FD07C09F5F973071F78093E90081E014
:100D700008953091EB003E7F3093EB003091ED0011
:100D80003D7F3093ED003091EB0031603093EB000C
:100D90007093EC002093ED005093F0002091EE0052
:100DA00027FDE0CF80E00895B0E0A0E0EAEDF6E0B6
:100DB0000C94B834C8EDD0E088818F7E8883E7ED4D
:100DC000F0E080818160808384E082BF81E0809355
:100DD000BC0388818E7F888302EE10E0F8011082C8
:100DE0001092DA0081EEC82ED12CF6011082888193
:100DF0008F77888388818068888388818F7D8883C6
:100E000019BC1092D2031092C9031092C803109219
:100E1000C70390EEE92EF12CF70180818B7F808350
:100E200088818160888342E060E080E00E94A206C1
:100E3000F60180818E7F8083F801808181608083CC
:100E4000808188608083F70180818E7F80838881A4
:100E500080618883CDB7DEB7E8E00C94D434FC0120
:100E60008091D0039091D10386179707A0F0611568
:100E7000710529F49091E8009E779093E80090E046
:100E80006115710551F4911108C08091E80082FF4D
:100E900034C080E00895BC01F2CF8091D203882352
:100EA000C1F18530C1F18091E80083FD30C08091AF
:100EB000E80082FDEACF8091E80080FFE1CF8091D9
:100EC000F3002091F200382F6115710519F02830D8
:100ED000310558F091E02830310509F090E020917B
:100EE000E8002E772093E800CBCF81918093F1002A
:100EF000615071092F5F3F4FE7CF8091D203882364
:100F000041F0853041F08091E80083FFBECF81E061
:100F1000089582E0089583E008950895089508955E
:100F20008091BE0308959C014FB7F8948091B5035A
:100F30009091B603A091B703B091B8034FBF821B45
:100F4000930B08952FB7F8948091B5039091B60351
:100F5000A091B703B091B8032FBF08952091B203B9
:100F60003091B3032817390771F09093B30380933E
:100F7000B203E091B003F091B103309721F0008407
:100F8000F185E02D099508952091AE033091AF03CE
:100F90002817390771F09093AF038093AE03E09167
:100FA000B003F091B103309721F00680F781E02D76
:100FB00009950895E091B003F091B103309729F0BD
:100FC0000190F081E02D0995089580E00895B0E04A
:100FD000A0E0EDEEF7E00C94B6348FEF9FEF4430D5
:100FE000510508F469C040915E0341FB882780F9F0
:100FF00090E0880F991F42FB002700F910E0000FD6
:10100000111F000F111F802B912B40FBCC24C0F827
:10101000D12C8C299D2943FB222720F9C22FE0E007
:10102000DE2F53E0CC0FDD1F5A95E1F78C2B9D2B63
:1010300044FBAA27A0F9B0E0E4E0AA0FBB1FEA95A1
:10104000E1F78A2B9B2B45FBEE27E0F9F0E0A5E0CA
:10105000EE0FFF1FAA95E1F78E2B9F2B46FB222751
:1010600020F930E0B6E0220F331FBA95E1F7822B6A
:10107000932B47FB222720F930E03695322F222789
:1010800037952795822B932B20915F03322F317058
:10109000F32EE82EF92A26952170B22EBB0CA82E2D
:1010A000BF28C501BB0CAA0BBB0BFB01808391833E
:1010B000A283B38390E080E0CDB7DEB7EAE00C9482
:1010C000D234809181039091820390931B0180938D
:1010D0001A010895E8EEF2E090E080E06DE17AE236
:1010E00044E45AE222E939E27783668351874087F4
:1010F000338722879587848701963E9688309105AD
:1011000099F708958F929F92AF92BF92EF92FF92BC
:101110000F931F93CF93DF938430B8F5811136C0BE
:1011200090918000977F909380002F98A0918600E7
:10113000B0918700282F30E00E94853423E030E012
:1011400040E050E00E944E3489019A01809186006F
:10115000909187006CE070E00E9426346017710760
:10116000D8F0C80169E070E00E94263470938D00C9
:1011700060938C00DF91CF911F910F91FF90EF90C2
:10118000BF90AF909F908F90089583E090918000E2
:10119000986090938000CACF8091860090918700DC
:1011A000E0908600F0908700E0918600F091870043
:1011B000C6E0D0E0BE010E942634060F171F211D95
:1011C000311D4801590185E0880C991CAA1CBB1CE3
:1011D0008A95D1F7C701BE010E9426349F0150E0D5
:1011E00040E0260F371F411D511DC501B4010E946B
:1011F0004E3449015A01E0918600F0918700CA01FE
:10120000B9010E9408349B01AC01DF010E949B34AC
:101210009B01AC01C501B4010E9408342FE09695F2
:101220008795779567952A95D1F70091860010915B
:10123000870030E020E0061717072807390708F075
:1012400095CF609186007091870090CF282F220F54
:10125000220F220F9091D5029770922B9093D50276
:10126000987F21E009F420E09091D50220FB90F9CD
:101270009093D5020E9482080895FA01811101C05D
:10128000FB01099508958091D002982F9E7F29F443
:10129000817082608093D00208958A34E8F381706F
:1012A0008864F8CFAF92BF92DF92EF92FF920F93D4
:1012B0001F93CF93DF93082F162FE901E42FF0E05F
:1012C000E650FC4F611110C0E4915E2F4E2F498310
:1012D000E8835A83DF91CF911F910F91FF90EF9098
:1012E000DF90BF90AF900895E62EF12C4491D42E5C
:1012F000E42FF0E026E0829FC00111242FEF30E0C0
:10130000B9010E942634802F90E0880F991F55E57F
:10131000569FD001579FB00D11248A1B9B0B982F0D
:10132000990F890F5901AE18BF08AE9ED001AF9E2C
:10133000B00DBE9EB00D11245B2F189F80011124AB
:10134000012F11275901A01AB10AAE9E8001AF9E4C
:10135000100DBE9E100D11245901A81AB108AE9CA3
:10136000C001AF9C900DBE9C900D1124892F992730
:10137000281B390B2E9FC0012F9F900D3E9F900D73
:101380001124E92F62307105A1F050F46115710547
:1013900009F49DCF6130710581F0EB2F512F97CF6C
:1013A0006430710569F080F06630710509F48FCF03
:1013B000F4CFE42F4B2F592F8ACFE42F412F87CF23
:1013C000EB2F542F492F83CF4B2F5D2DE12F7FCF54
:1013D00080E00895F894E82FE295EF70F0E031A1F5
:1013E000282F2F7081E090E001C0880F2A95EAF73E
:1013F000982F9095932391A392A1892B82A37894FF
:10140000089590915E0392FF06C0282F287128301E
:10141000F9F4877F846093FF06C0282F2871283154
:10142000F1F4877E846120915F0320FF06C0382F8E
:1014300038713830D9F4877F816021FF06C0282FAA
:1014400028712831D1F4877E816194FD877E0895CB
:10145000282F24712430F9F68B7F8860DCCF282F69
:101460002471243101F78B7E8861DDCF382F3171F3
:10147000313019F78E7F8860E0CF282F217121311C
:1014800021F78E7E8861E1CFCF93DF93EC01823824
:101490009105B1F108F040C08133910509F49DC078
:1014A00048F58932910509F48DC08A9709F49CC0EA
:1014B000C11522E5D20708F0BDC0C11531E5D3073B
:1014C00008F025C1C83ED10508F0A3C0C13ED10532
:1014D00088F5C83AD10508F08EC0C53AD10508F0A4
:1014E000F6C0C130D10531F1209721F1C430D105CA
:1014F00008F545C08533910509F45FC0C997C1F669
:1015000080915E03837009F037C180915F0383FF90
:1015100011C0C9E2D0E00EC0833E910599F170F48C
:10152000803E910501F1823E910511F680915E03A6
:1015300082FD21C0CE01DF91CF910895863E9105B5
:1015400061F1873E910571F1843E910509F0B0CFBC
:1015500080915F0381FFEECF80915E03C7EED0E004
:1015600084FD0DC0E7CF80915E0380FD33C0909174
:101570005F0390FFDFCFC3EED0E084FFDBCFD0E08E
:10158000C0E0D8CF80915E0382FDF3C090915F03ED
:1015900090FDF2C084FFCECFF2CF80915E0383FD39
:1015A000DDCFC8CF80915E0383FDE9C090915F03DA
:1015B00091FFF0CFC4EED0E0BDCF80915E0385FFF8
:1015C000B9CFA7CF80915E0385FDDCC080915F031A
:1015D00083FFB0CFC9E3D0E0ADCF80915E0386FF3B
:1015E000A9CFCAE2D0E0A6CF80915E0386FFA2CF4A
:1015F000C1E3D0E09FCFCF3BD10508F6C85AD0E079
:10160000CC0FDD1FC75DDE4F0990D881C02DD4649B
:1016100091CFC11540E5D40708F064C0C11580E43E
:10162000D80708F05CC0CE019A9581159F4108F457
:1016300081CFA5CFC11536E5D30718F5C11545E50E
:10164000D40708F07DC0C11584E5D80708F073C041
:101650009C2F969596959E0123703327C115D345EF
:1016600008F45AC0C1E0D0E002C0CC0FDD1F2A95BB
:10167000E2F730E2939FC0011124C82BD92BDA681E
:1016800059CFC1158AE5D80778F4C11529E5D207E5
:1016900008F061C0C11538E5D30708F470CFDC2F1E
:1016A000CC27C06FD06A46CFCE01905681159042AC
:1016B00008F065CF8D2F8F710E94010A90E0982F5E
:1016C000882788279F719C012C2BE90142C0C55AAD
:1016D000D0E0CA5DDE4FC881D0E0D0642BCFDF7090
:1016E000D06A28CF2C2F26952695237080E2289F3C
:1016F000900111248C2F8370C1E0D0E002C0CC0F88
:10170000DD1F8A95E2F7C22BD32BDD6813CFDC2FC8
:10171000CC27C16FD06A0ECFC1E0D0E002C0CC0FA1
:10172000DD1F2A95E2F720E2929FC0011124C82B09
:10173000D92BDC68FFCEDC2FCC27C46FD06AFACE61
:101740008C2F0E94010AC82FD0E0DC2FCC27CC2799
:10175000DF71D062EFCE8C2F8F700E94010A34E0CF
:10176000D695C7953A95E1F7CF709C2FEC01D069DB
:10177000E1CEC2EED0E0DECEC0EED0E0DBCEC6EEF3
:10178000D0E0D8CEC5E3D0E0D5CE80911D0288232D
:1017900031F010921D0210921C0210921B0208954B
:1017A000CF93C82F80915F0382FF0CC080911D02F0
:1017B0008C1741F00E94A20790931C0280931B0299
:1017C000C0931D02CF91089580959091D3039823E3
:1017D0009093D303089580959091600398239093FC
:1017E0006003089590916003892B809360030895AE
:1017F000109212021092110210921002089580911C
:10180000830390918403892B89F00E94A207209181
:101810001B0230911C02AC01421B530B81E0209152
:101820008303309184034217530708F480E08170EA
:101830000895E4EAF1E09191891303C0DF01119763
:101840001C9291E0EA3AF907B1F70895A4EAB1E0F1
:10185000EFEF90E02D91821751F0EF3F19F4211135
:1018600001C0E92F9F5F9630A9F7EF3F09F4089573
:101870000E2E000CFF0BEE55FE4F82830895209133
:101880000F029091DE0156E0291302C080E0089516
:1018900030E0529FF001539FF00D1124E152FE4FB2
:1018A0007181761306C07081781303C0728174133E
:1018B00004C02F5F3F4F2770E7CF81E00895452B8D
:1018C00039F0682381E06F3F09F080E0817008956E
:1018D00081E0FCCF80910F029091DE01981301C04E
:1018E00008958F5F8770FACF292F9C3078F5893063
:1018F00068F590E039E0239F800D911D1124682F39
:10190000677023E0969587952A95E1F7FC01EE0F25
:10191000FF1FE80FF91FE255FE4F50E040E080E066
:10192000219130E0062E02C0369527950A94E2F701
:1019300021703327042E01C0220F0A94EAF7822B6C
:101940004F5F5F4F4330510559F7089580E0089588
:10195000292F9C3098F5893088F590E039E0239F55
:10196000800D911D1124282F277041E001C0440FE4
:101970002A95EAF723E0969587952A95E1F7FC01E9
:10198000EE0FFF1FE80FF91FE255FE4F30E020E099
:1019900070E05191DF011197CB01022E02C09695A4
:1019A00087950A94E2F7817081958527842385279E
:1019B0008C932F5F3F4F2330310559F7089592954F
:1019C0009F70963091F058F4925F9F70923058F467
:1019D000803F19F030F4883E30F481E008959A5F3A
:1019E000F4CF843FD1F380E00895883EB0F3813F87
:1019F000D1F7F3CF82FB992790F981FD05C05D9A5D
:101A0000911104C0769A08955D98FACF769808955A
:101A10009C013A9521153F4150F5FC01EE27F170EC
:101A2000BC0166277270AC01442754709C012227C8
:101A3000387094FF0EC080E1EF2B09F480E0672B33
:101A400009F08062452B09F08064232B89F08068BF
:101A5000089581E0EF2B09F480E0672B09F08260A4
:101A6000452B09F08460232B19F08860089580E0ED
:101A700008958093B9037093BB036093BA03809178
:101A8000D2038430F9F48093E9008FEF9091E8005D
:101A9000815095FD06C095ED9A95F1F700008111F2
:101AA000F5CF8091E80085FF0DC050E040E063E095
:101AB00070E089EB93E00E9431068091E8008E7718
:101AC0008093E8000895BC0184E00E94390D0895D8
:101AD000BC0183E00E94390D0895CF93DF93EC01A0
:101AE00081E08093E9008FEF9091E800815095FDAF
:101AF00006C095ED9A95F1F700008111F5CF809120
:101B0000E80085FF14C050E040E068E070E0CE01DE
:101B10000E9431068091E8008E778093E80088E08B
:101B2000FE01AFEBB3E001900D928A95E1F7DF91F2
:101B3000CF91089581E08093E00080E28093D80007
:101B40001092C9008FE19EE40197F1F700C00000F8
:101B500087E090EBDC018093D5039093D603A093AC
:101B6000D703B093D80388E19CE00FB6F894A8950A
:101B7000809360000FBE90936000FFCF019708F440
:101B80000895EFE9FFE03197F1F700C00000F6CFCC
:101B90008091D00280FD0AC0E8E8F2E01182108254
:101BA0001282339652E0E03DF507C1F7539A3BB1FC
:101BB000377F2BB128604FB7F89488E892E0FC019A
:101BC0005191CF0168E02BB9000000C057FF3BB92D
:101BD000550F000000C000C000C03BB900C06A95AE
:101BE00091F7F2E0803D9F0751F74FBF8FE594E0FA
:101BF0000197F1F700C000000895EF92FF920F9354
:101C00001F93CF93DF938C01C8E8D2E0F12CE12C35
:101C1000F80194816091D2028091D102FCE0EF162C
:101C2000F104ECF49923E9F09E014091D3020E9463
:101C300052092FEFE21AF20A239688E1E816F1041E
:101C400039F70E94C80DF801848190E001968170F7
:101C500099278483CDB7DEB7E6E00C94D634992378
:101C600019F39E0140E0E3CFB0E0A0E0EAE3FEE03C
:101C70000C94B434EC014C81042F10E09801D8018D
:101C80000E9485349B01AC010E949B344B015C0196
:101C9000E0E2F0E0E01BF10BA5E5B0E0AC019B0158
:101CA0000E949B346B017C019F01DF010E947D3407
:101CB0009B01AC010E94A6349B01AC01280D391D8B
:101CC0004A1D5B1DC701B6010E944E34F22E822FC1
:101CD00090E039E23F1598F143E0249F90011124F0
:101CE00035952795122F109598E8C92E92E0D92E98
:101CF00000E085E5E82EEF188E2D01FD8F2D960171
:101D0000412F6091D2020E9452090F5F53E0C50E2D
:101D1000D11C083189F70E94C80D9C8181E099236C
:101D200019F0903219F48FEF809319018091190105
:101D3000890F8C83CDB7DEB7ECE00C94D03425E569
:101D400030E0A901481B590BCA019A01220F331F29
:101D5000280F391F37FFC4CF2F5F3F4FC1CF0F93DD
:101D60001F93CF93DF93C8E8D2E0FE011182108267
:101D70001282339682E0E03DF807C1F710E000E000
:101D800080918602082E000C990B081719078CF118
:101D900080911801082E000C990B801791074CF1C7
:101DA0009E014091D3026091D2028091D1020E94A3
:101DB00052090F5F1F4F23960831110509F70E9442
:101DC000C80D8091170190918602980F909386021A
:101DD00020911801280F20931801121614F497313E
:101DE0001CF0819580931701DF91CF911F910F9186
:101DF0000895198218821A82DCCFB0E0A0E0E3E0F7
:101E0000FFE00C94B734FC018281DD24DA9480FD7C
:101E100002C0DD24D39408E812E0D0E0C0E028E15D
:101E2000B22EF80111821082128294E0E92EF12C78
:101E3000C12C809185028C0D8931C4F16B2D0E94DB
:101E40001834892F082E000C990B8C179D0791F4DC
:101E50008091D3028E9DA0018F9D500D1124559528
:101E600047955595479598016091D2028091D1028E
:101E70000E945209CD0CF1E0EF1AF108D1F621963B
:101E80000D5F1F4FC831D10561F60E94C80D8091CA
:101E9000850291E0D91210C081110CC087E18093B6
:101EA0008502CDB7DEB7E9E00C94D33487FFCACF03
:101EB000885EC8CF8150F3CF90E00196BE010E94AA
:101EC0003A34EDCFEF92FF921F93CF93DF93EC0163
:101ED00088E8E82E82E0F82E10E08C81970140918E
:101EE000D3026091D202810F0E945209165F83E0F3
:101EF000E80EF11C103F89F70E94C80D9A818C8171
:101F000090FF08C08F5F8C83DF91CF911F91FF906E
:101F1000EF9008958150F7CF9091D00290FF0CC0C0
:101F2000E8E8F2E0818360834283339692E0E03D0B
:101F3000F907C1F70E94C80D0895A3E0B0E0E3EAF5
:101F4000FFE00C94BC348C018091870281110AC09F
:101F50009E012F5F3F4F4FEF6FEF0E9452098A8122
:101F600080938702F8016481613069F08091870273
:101F700040E0662361F040E0623011F44091870256
:101F800080E060E004C06091870240E080E00E9451
:101F90008C0FF801848190E0019663E070E00E946C
:101FA0003A3484832396E4E00C94D834A3E0B0E080
:101FB000ECEDFFE00C94BE349091D00290FF0AC08B
:101FC0009E012F5F3F4F0E9452094B8169818A8198
:101FD0000E948C0F2396E2E00C94DA34CF93DF93C7
:101FE000EC01E0EDF2E0438162818C810E94D60F2A
:101FF0008C818F5F8C83DF91CF910895CF93DF9396
:10200000EC01EC81F0E0E150FB4F4491E0EDF2E0B7
:10201000628181810E94D60F8C818F5F8C83DF91DA
:10202000CF9108950F931F93CF93DF9301E813E0AF
:10203000CFEAD2E0CE010E943435F80181938F01BE
:102040002196C33DF2E0DF07A9F7C9E6D9E0FE011A
:1020500085919491009711F0FC0109952C96F9E077
:10206000C93FDF07A1F7DF91CF911F910F9108952D
:102070000F931F93CF93DF93833030F56C3020F5AF
:10208000493010F5C42FD0E0CC0FDD1F22E1629F54
:10209000C00DD11D112438ED839FC00DD11D112419
:1020A000CE0187960E943435082F10E0102F0027AC
:1020B000CE0188960E9434359801282BC901DF9102
:1020C000CF911F910F91089590E080E0F8CF462FB7
:1020D00020915C0330915D03232B99F4703F39F418
:1020E000603F79F480915A0390915B0308958330A7
:1020F00040F47C3030F4693020F4672F0E943810AF
:10210000089590E080E00895CF92DF92FF920F93C0
:102110001F93CF93DF936C010091D40380911E0233
:10212000082BC7E0D0E010E0FC2EC8010C2E02C046
:10213000959587950A94E2F780FD0CC02197A0F74A
:10214000F12C8F2DDF91CF911F910F91FF90DF9098
:10215000CF900895B6018C2F0E9467100E94440A08
:10216000019761F3EECFCF93DF93EC010E948410CF
:10217000BE010E9467100E94440ADF91CF9108952A
:10218000CF93DF93EC014B815C81698188810E9450
:102190005F0C811109C0888199810E94B3100E944F
:1021A000DF0CDF91CF91089580E0FBCFA5E0B0E098
:1021B000ECEDF0E10C94BD3449835A8389819A8116
:1021C000662399F0222389F00E948410182F682F2B
:1021D00089819A810E94A80C69817A81812F0E944D
:1021E00067102596E3E00C94D9340E94740C182FE4
:1021F000F3CFFC01262F408151816281738184815C
:102200000E94D610089583E290E00E943435853113
:1022100089F484E290E00E943435813B59F485E2F0
:1022200090E00E94343591E08D3109F090E0892FE3
:102230008170089580E0FCCFCF9384E090E00E940D
:102240003435C82F82E290E00E943435982F8C2FCD
:10225000CF910895DB01FC0132962591349142170C
:10226000530758F0FC01349665917491A901CD0192
:102270000E94143590E080E008958FEF9FEF08955D
:102280000F931F93CF93DF9301E813E0CFEAD2E0DF
:10229000CE010E943435F80161918F01681719F061
:1022A000CE010E9448352196C33DF2E0DF0781F759
:1022B000DF91CF911F910F910895DA019C012E5F5C
:1022C0003F4FF90145915491F90125913491A2179D
:1022D000B30758F0FC013496859194910E9414350F
:1022E0000E94401190E080E008958FEF9FEF0895E5
:1022F000CF93DF93C3E2D3E060E0CE010E94483584
:102300002196C11584E0D807B9F7DF91CF910895E0
:102310001F93CF93DF93122F8330E0F46C30D0F40F
:102320004930C0F4C42FD0E0CC0FDD1F92E1699F8B
:10233000C00DD11D112498ED899FC00DD11D112410
:10234000632FCE0187960E944835612FCE01889673
:102350000E944835DF91CF911F910895CF93C82FE8
:102360006FEF811165E183E290E00E9448356FEFE5
:10237000C11161EB84E290E00E9448356FEFC1111A
:102380006DE185E290E00E944835CF910895682F75
:1023900086E090E00E9448350895CF93C92F682FBA
:1023A00084E090E00E9448356C2F82E290E00E9429
:1023B0004835CF9108959B01883070F49AE0899F49
:1023C000B00111246D527D4F4AE050E0C9010E94D6
:1023D000243590E080E008958FEF9FEF0895AAE004
:1023E000B0E0E5EFF1E10C94BE349C0137552F3F8E
:1023F000310509F068F4BE016F5F7F4F0E94DB1169
:10240000892B31F489859A852A96E2E00C94DA3496
:102410008091990390919A03F7CF6091D0026695CD
:1024200070E04BE050E08CE091E00E94FA34892BA0
:1024300019F481E0809384020E94A20790937E02A7
:1024400080937D020895CF92DF92EF92FF926B010D
:102450007C010E944309B701A60188E090E00E9438
:102460005A35FF90EF90DF90CF900895A3E0B0E051
:10247000ECE3F2E10C94B134F82E762EE42E622EC9
:102480009091D00290FF29C0E92FE695AE2FB0E0E1
:10249000A459BE4F8C91809383029E7F923009F5A0
:1024A0009E012F5F3F4F8F2D0E9452094B81698102
:1024B0008A810E948C0FF092D1027092D202E09237
:1024C000D302662051F06091D0027091D1028091C8
:1024D000D2029091D3020E9423122396EFE00C9433
:1024E000CD34823019F4E090D302E5CF863019F470
:1024F000F090D102E0CF8930D9F38931E1F6E9518A
:102500008E2F8170582EE695F0E0E650FB4FE49157
:102510000E2F10E088E8C82E82E0D82EB12CA12C16
:1025200098E1892E912CC501B4010E9426348F2D8B
:10253000511013C0860F96014E2D672D0E9452092F
:10254000A00EB11E83E0C80ED11C80EDC81682E03B
:10255000D80649F70E94C80DAECF861BECCFE0ED40
:10256000F2E0438128E0421B08F440E021E0628170
:1025700081810E9436120895E0EDF2E0438128E067
:10258000420F08F44FEF21E0628181810E943612F0
:102590000895E0EDF2E0628128E0621B08F460E05B
:1025A00021E0438181810E9436120895E0EDF2E03E
:1025B000628128E0620F08F46FEF21E0438181819E
:1025C0000E9436120895E0EDF2E0818121E043811E
:1025D000628188500E9436120895E0EDF2E0818118
:1025E00021E043816281885F0E94361208958091C4
:1025F000D402882319F081508093D4026091D002D4
:102600007091D1028091D2029091D3020E94231244
:1026100008958091D402833018F48F5F8093D402A0
:102620006091D0027091D1028091D2029091D30238
:102630000E94231208959091D00290FF2CC09170B7
:1026400081112AC092609093D002662351F060916C
:10265000D0027091D1028091D2029091D3020E9457
:1026600023126091D002669570E04BE050E08CE060
:1026700091E00E94FA34892BB1F01092840281E03B
:102680008093800220E04091D3026091D202809139
:10269000D1020E9436120895853210F09864D3CF8B
:1026A000880F982BD0CF0E940D12E9CF61E00E94D5
:1026B0001B1308958091D0028695815009F484E21D
:1026C00061E00E941B1308958091D00286958F5F70
:1026D000853208F081E061E00E941B13089590911B
:1026E000D00290FF08C09695981728F0961718F416
:1026F0000E94641308950E9456130895E0EDF2E0DD
:1027000083E0808311828FEF8283838314826081D0
:102710007181828193810E9423120895A8E1B0E023
:10272000E4E9F3E10C94B4348E010F5F1F4F88E1AC
:10273000F80111928A95E9F797E5E92E91E0F92ED3
:102740006801AA24A394B12CF70181917F018F3FE6
:1027500009F446C0F894E82FE295EF70F0E021A16B
:102760008F70A50102C0440F551F8A95E2F7CA0178
:10277000922F982B91A392A18095892382A378947C
:1027800000C0E3E6F1E021E030E0912C812C4191A2
:102790004F3F09F467C0A42FA295AF70B0E09096A8
:1027A0008C9190E04F7002C0959587954A95E2F71D
:1027B00080FD58C0C901882A992A220F331F51E091
:1027C000EC36F50721F7F701319780818F3F11F043
:1027D0000E94EA0980EA8A95F1F7F60191828082E7
:1027E000F2E0CF0ED11C43E6E41641E0F40609F016
:1027F000ABCF48E150E0B80182E292E00E94073599
:10280000892B99F188E1F801A2E2B2E001900D92E2
:102810008A95E1F781E0809321020E94A2079093BC
:10282000200280931F0280911F02909120020E943B
:1028300093070597F0F048E150E062E272E085E628
:1028400092E00E940735892BC9F088E1E2E2F2E0CC
:10285000A5E6B2E001900D928A95E1F781E0109231
:10286000210208C090E080E0A6CF80912102811172
:10287000DACF80E06896ECE00C94D03480E0EFCFC3
:10288000809160039091D303892B8093A201809162
:102890001D02882309F18091830390918403892B81
:1028A00029F00E94FF0B81110E94C50B8091A201AB
:1028B00090911D02892B8093A20120E084EA91E08F
:1028C000FC013191CF0131112F5FF1E08A3A9F076E
:1028D000B9F721110E94C50B48E050E063E172E0B6
:1028E00082EA91E00E940735892BA9F088E0E2EAAC
:1028F000F1E0A3E1B2E001900D928A95E1F7E09159
:10290000B003F091B103309731F00280F381E02DF4
:1029100082EA91E009950895CF93DF93EC01EA856F
:10292000FB85309719F06C857D8509958B810E9418
:10293000E40B8C810E94EB0B0E94401486E0FE01A8
:1029400011928A95E9F7DF91CF910895CF93DF93A4
:10295000EC018D8181FD15C082608D838091D30350
:102960009B81892B8093D3038C810E94F20B0E9460
:102970004014E885F985309721F06C857D85CE017E
:1029800009951092AD031092AC038D8180FD03C0B8
:10299000CE010E948C14DF91CF91089580911C018B
:1029A000877F80931C0182E00E94E40B80911C01D0
:1029B00084FF06C08F7E80931C0182E00E94F20B90
:1029C00080911C0185FF06C08F7D80931C0180E2F1
:1029D0000E94F20B0E944014089590E080E00E9453
:1029E000C40790E080E00E94AE071092D3030E94DB
:1029F000401408958093D4030E94ED1408958091AB
:102A0000D403982F9670963021F488600E94FA14AF
:102A10000895877FFBCF21E030E001C0220F8A9527
:102A2000EAF720958091D40382230E94FA14089536
:102A3000909112028095892380931202282F27708B
:102A400091F4282F082E000C330B9217130659F01F
:102A500090915F0392FF07C08595859585950E94AB
:102A60000B150E94F80B089590915F0392FB2227AB
:102A700020F9281769F080FB92F990935F03809109
:102A80005E0390915F030E94CD1182E00E941815B1
:102A9000089521E030E001C0220F8A95EAF7809185
:102AA000D403822B0E94FA14089590915F0392FF41
:102AB00010C098E0899F90011124622B609312024C
:102AC0000E9449150E94A207909311028093100260
:102AD00008950E944915089580931E020E94ED14E6
:102AE000089510926003E4EAF1E086E0DF011D92B0
:102AF0008A95E9F70E94ED140895AAE2B0E0E3E8B0
:102B0000F5E10C94BD348AEC93E02091F100DC01F6
:102B10002D93CD01B3E0823D9B07B9F78091CB03A4
:102B2000833009F472C0B8F4813009F449C08230AE
:102B300009F4B3C08091E80083FF96C28091CA0374
:102B40009091CB039A3008F08FC2E92FF0E0EA575A
:102B5000FA4C0C9470348A3009F48EC08B3009F42E
:102B600071C0893039F78091CA03813219F7809199
:102B7000CE039091CF03009711F00297D9F6809180
:102B8000E800877F8093E8008091E80082FF38C0EA
:102B90009091F3008091F200029731F48091F1005E
:102BA000813011F0863021F48091F1008093BE03D2
:102BB0008091E8008B778093E8000E948306BACF6B
:102BC0008091CA03813A09F0B5CF8091E800877FF0
:102BD0008093E8008091CE039091CF03892B61F41C
:102BE00068E08FEB93E070E00E942F078091E8008F
:102BF0008B778093E8009ECF60E090E080E0F3CF99
:102C00008091D2038111C0CF95CF8091CA03813AC0
:102C100009F090CF8091CE039091CF03892B09F0DA
:102C200089CF8091E800877F8093E8008091E80059
:102C300080FFFCCF80911D018093F1008091E8001E
:102C40008E77B9CF8091CA03813209F073CF80911A
:102C5000CE039091CF03892B09F06CCF8091E800CF
:102C6000877F8093E8000E9483068091CC03809345
:102C70001D010E9471155ECF8091CA03813209F057
:102C800059CF8091E800877F8093E8000E948306F7
:102C90008091CD038093BD034DCF8091CA03813ACB
:102CA00009F048CF8091E800877F8093E800809109
:102CB000E80080FFFCCF8091BD03BECF803899F043
:102CC000823809F0D1C18091CE038F70873008F02F
:102CD000CBC18093E9008091EB0085FB882780F9C8
:102CE0001092E90006C08091C7039091C80391112A
:102CF00082609091E800977F9093E8008093F100C4
:102D00001092F1008091E8008E77AAC1882309F41F
:102D100098C1823009F0A8C18091CC0381119BC178
:102D20008091CE038F702FEF280F263008F09CC1C2
:102D30008093E9002091EB0020FF8DC1933031F4A6
:102D40008091EB0080628093EB0085C19091EB0055
:102D500090619093EB0021E030E001C0220F8A9552
:102D6000EAF72093EA001092EA008091EB00886075
:102D7000EACF811179C11091CC031F778091E300D4
:102D80008078812B8093E3008091E800877F809397
:102D9000E8000E9483068091E80080FFFCCF8091CC
:102DA000E30080688093E30082E0111183E0809368
:102DB000D2035AC18058823008F056C12091CC030A
:102DC0003091CD032C3DE3E03E07A1F583E08A83FB
:102DD0008AE289834FB7F894DE01139620E03EE043
:102DE00051E2E32FF0E050935700E49120FF03C03D
:102DF000E295EF703F5FEF708E2F90E0EA30C0F009
:102E0000C7968D939D932F5F243159F74FBF8091C3
:102E1000E800877F8093E8006AE270E0CE010196C7
:102E20000E942F078091E8008B778093E8001CC1F7
:102E3000C096E7CF8091CE039091CF03432F5527C3
:102E40004330510509F44AC078F54130510509F481
:102E500085C08BE590E0EFEEF9E04230510509F0D6
:102E600003C12091E800277F2093E8002091D00340
:102E70003091D1038217930708F49C0140E021159B
:102E8000310509F070C041116EC08091E80082FDEB
:102E9000C9CF8091D203882329F2853019F280911D
:102EA000E80083FFF2CFBECF4132510509F447C09D
:102EB0004232510509F0D8C08330910508F0D4C0E2
:102EC000FC01EE0FFF1FEC56FE4F0190F081E02D4C
:102ED0008F569E4FDC018C9190E01DC0332721302E
:102EE0003105E9F02115310579F022303105F9F08D
:102EF0002330310509F0B8C0ECE5FAE0E4918E2FFB
:102F000090E0ECE5FAE007C0EAE9FAE0E4918E2F00
:102F100090E0EAE9FAE0009709F4A6C0A2CFE4E85D
:102F2000FAE0E4918E2F90E0E4E8FAE0F4CFEAE7EB
:102F3000FAE0E4918E2F90E0EAE7FAE0ECCF8330FC
:102F4000910508F091C0880F991FFC01E656FE4FCD
:102F50000190F081E02D89E090E083CF82E190E064
:102F6000EAE4FAE07ECF8091D203882309F45ACFB5
:102F7000853009F457CF8091E80083FD53CF8091CD
:102F8000E80082FD82CF8091E80080FF78CF9091A9
:102F9000F3008091F2002115310519F08830910578
:102FA00050F041E0089709F040E08091E8008E770A
:102FB0008093E80064CF44914093F1003196215012
:102FC00031090196E8CF803809F04EC08091E800C1
:102FD000877F8093E8008091C9038093F10092CEAF
:102FE000811142C01091CC031230F0F58091E800BD
:102FF000877F8093E8001093C9030E948306112302
:1030000011F084E005C08091E30087FDFACF81E0F4
:103010008093D20342E061EC81E00E94A20642E28A
:1030200061EC84E00E94A20642E261EC82E00E9430
:10303000A20642E260EC83E00E94A2068091D203E5
:1030400013C08091CC03813079F481E0933009F092
:1030500080E08093C8031092E9008091E800877FA8
:103060008093E8000E9483068091E80083FF0AC0F5
:103070008091E800877F8093E8008091EB00806278
:103080008093EB00AA96E3E00C94D934E1E8F3E0F6
:10309000128E138E8FEA90E09183808385E0848F77
:1030A00028E833E13383228322E330E0378B268B19
:1030B00028EC30E0318F208F158E178E168E20E58C
:1030C00030E031A320A382A30E9440110E94711519
:1030D00010925F0310925E03EFE5F3E0808184605D
:1030E000808380915E0390915F030E94CD110E94C6
:1030F00012100895AAE0B0E0E0E8F8E10C94B334CF
:10310000A0905803B090590381E090E09093590348
:10311000809358038FEFC82E85E0D82E00E076010B
:1031200010E015C0F40125913491472D612F802FB7
:103130000E94881182E0880E911C739489E07812B5
:10314000F1CF82E1E80EF11C1F5F1C3019F047013E
:10315000712CE8CF0F5F88EDC80ED11C0330F9F653
:103160000E9446181A8219821C821B821E821D82AE
:1031700018861F8288EC90E09A87898703ED12E019
:103180004AE050E0B801CE0101960E946C35065F1E
:103190001F4F033283E0180799F7B0925903A092AA
:1031A00058032A96EDE00C94CF3480E00E94AE11D3
:1031B00060E086E290E00E9448350E947A180E9402
:1031C000781181E00E94AE11089568EE7EEF90E0E4
:1031D00080E00E94663560E082E090E00E94483521
:1031E00060E083E090E00E94483510921E0260E0AB
:1031F00084E090E00E94483564E082E290E00E9422
:10320000483560E085E090E00E94483560E086E067
:1032100090E00E9448356FEF87E090E00E944835CB
:1032200040E050E0BA0188E090E00E945A3560E04A
:103230008DE090E00E94483540E050E0BA0188E11E
:1032400090E00E945A3560E087E190E00E944835A6
:1032500040E050E0BA018CE190E00E945A3570E005
:1032600060E080E290E00E94663540E050E0BA0104
:1032700088E190E00E945A3580E00E94AE110E94E1
:10328000D518E0EDF2E080818160808386950E9410
:10329000561321E040E86FEF80E00E9436128BE089
:1032A0000E94561340E050E0BA018FE090E00E9487
:1032B0005A3540E050E0BA0183E190E00E945A356F
:1032C0000895CF92DF92EF92FF928FEF9FEF4430FD
:1032D000510508F46AC0FB01C080D180E280F38010
:1032E0000E94711580915E03C0FA80F9B701A601B2
:1032F000769567955795479540FB81F9B701A601EB
:1033000022E076956795579547952A95D1F740FB2A
:1033100082F9B701A60133E07695679557954795F1
:103320003A95D1F740FB83F9B701A601E4E0769521
:10333000679557954795EA95D1F740FB84F9B70112
:10334000A601F5E07695679557954795FA95D1F7DB
:1033500040FB85F9B701A601A6E0769567955795DC
:103360004795AA95D1F740FB86F9B701A601B7E0CA
:103370007695679557954795BA95D1F740FB87F9AC
:1033800080935E0380915F03D0FA80F9D1FACC2458
:10339000C0F8C0FA81F980935F0380915E03909139
:1033A0005F030E94CD1190E080E0FF90EF90DF90EE
:1033B000CF9008950E9471152FEF84E39CE0215077
:1033C00080409040E1F700C0000088E19CE00FB62B
:1033D000F894A895809360000FBE90936000FFCF93
:1033E000882321F00E94E40B0E9440140895882352
:1033F00039F09091D303982B9093D3030E944014FB
:103400000895882321F00E94EB0B0E944014089538
:10341000882321F00E94F20B0E9440140895882313
:1034200009F44DC0823879F40E94DA0781FF47C061
:1034300089E30E94260C0E94401489E30E94190C23
:103440000E9440140895833859F40E94DA0780FFDF
:1034500036C083E50E94260C0E94401483E5EECF1F
:10346000843859F40E94DA0782FF29C087E40E9459
:10347000260C0E94401487E4E1CF9CEF980F913A0C
:10348000E8F290E2980F983050F4877091E001C014
:10349000990F8A95EAF7892F0E94EB0BD1CF9BE514
:1034A000980F933028F490E080E00E94C4070895BC
:1034B000885A873120F490E080E00E94AE0708959A
:1034C000CF93DF93EC010E940F1ACE010E94080DEA
:1034D0009E01205E31092830310510F0CD2B29F4F2
:1034E0000E94011ADF91CF9108950E94F019FACF3E
:1034F000CF93C82F8823C9F08238C9F40E94DA0715
:1035000081FD13C089E30E94260C0E9440142FEF16
:1035100087EE93E0215080409040E1F700C000002A
:1035200089E30E94190C0E944014CF9108958338BA
:10353000A1F40E94DA0780FDF8CF83E50E94260CF3
:103540000E9440142FEF81EE94E021508040904083
:10355000E1F700C0000083E5E4CF8438A1F40E94C5
:10356000DA0782FDE2CF87E40E94260C0E94401415
:103570002FEF81EE94E0215080409040E1F700C0B1
:10358000000087E4CECF8CEF8C0F813A68F4E4EA38
:10359000F1E08191C81781F121E0EA3AF207C9F719
:1035A0008C2F0E94260CBFCF80E28C0F883048F40D
:1035B000C77081E001C0880FCA95EAF70E94F20B3C
:1035C000B2CFEBE5EC0FE33040F4F0E0EA5DFE4F04
:1035D000808190E00E94C407A8CFC85AC73108F084
:1035E000A4CFEC2FF0E0EE0FFF1FE75DFE4F8081D0
:1035F00091810E94AE0799CF8C2F0E94190C0E94D6
:103600004014CECF1F93CF93DF93182FC091A10307
:10361000D091A203893321F0C0919F03D091A003E0
:10362000812F0E94781A209739F4812F0E940F1A57
:10363000DF91CF911F9108958FE99FE00197F1F7F6
:1036400000C000002197EFCFB0E0A0E0EAE2FBE18C
:103650000C94B634EC018AE0A82E2881222309F4C8
:103660008FC02130C9F599818A81913021F4229649
:103670000E94021B05C0923029F422960E94781AFB
:103680002196EBCF933021F422960E940F1AF8CFA7
:10369000943011F02196F4CF229630E020E0AE0174
:1036A0004F5F5F4F8053990B8A30910550F0215046
:1036B000310930F38FE99FE00197F1F700C0000076
:1036C000F6CFA29EB001A39E700D11249C01260F7F
:1036D000371F8981EA01E3CFE22FF0E0E253F54F93
:1036E000B490822F86958695869590E0FC01E254F1
:1036F000F54FE4902770F12C022E02C0F594E79468
:103700000A94E2F731E0E322FF24FC01E255F54F91
:10371000C490D12C022E02C0D594C7940A94E2F72B
:1037200031E0C322DD24FC01E256F54F049110E0A4
:1037300002C0159507952A95E2F701701127E1144B
:10374000F10419F081EE0E94781AC114D10419F025
:1037500086EE0E94781A8B2D0E94021BC114D104A0
:1037600019F086EE0E940F1AE114F10419F081EEAF
:103770000E940F1A0115110509F482CF8CE278CF4F
:10378000CDB7DEB7EAE00C94D234B0E0A0E0EBECC9
:10379000FBE10C94B6347C015B01C42FD22FFC01F9
:1037A00082818823A9F04093AB030E94A2079093E3
:1037B000AA038093A903C77081E001C0880FCA954E
:1037C000EAF70E94081ACDB7DEB7EAE00C94D234CB
:1037D0001091AB03141338C08091A9039091AA03F0
:1037E0000E9493076C01B701C5010E94EF11C81632
:1037F000D90650F5C0E2CD0F1D17C1F080E2810F50
:10380000883048F4177081E0012E01C0880F0A94B7
:10381000EAF70E94011AC83048F481E09D2F9770A2
:1038200001C0880F9A95EAF70E94081A802F0E941B
:10383000021BC83040F6D77081E001C0880FDA95CE
:10384000EAF70E94011ABFCFC77081E001C0880F5C
:10385000CA95EAF7F6CFCF93DF93EC010E94080DEB
:103860009E01205E31092830310510F0209741F487
:103870000E94081A8C2F0E94781ADF91CF91089528
:103880000E94F719F7CF662329F02091D303226015
:103890002093D3039C013056211540E2340720F0D9
:1038A000305E2115304108F499270E942B1C0895A1
:1038B000B0E0A0E0EEE5FCE10C94B9347C018B01B2
:1038C000D42E80911C0182FF8CC0C091A703D0919F
:1038D000A803CE15DF0521F0E114F10409F081C041
:1038E00080911C018B7F80931C0181FD73C08091AE
:1038F000A5039091A603A801481B590B81E02091D4
:103900001A0130911B014217530708F480E08170BF
:10391000F82E80911C01F0FA81F980931C01FE01C0
:1039200083E0F695E7958A95E1F7EE71FF27EF5969
:10393000FC4F20813181AE014F70552781E090E02E
:1039400002C0880F991F4A95E2F7FF2009F444C08E
:10395000822B932B918380838091600381FF08C029
:1039600080911C01806180931C0182E00E94EB0B1E
:103970008091600385FF08C080911C018062809364
:103980001C0180E20E94EB0B6F2DCE010E94431CB4
:10399000DD2031F080919C0385FF02C086FF3BC093
:1039A00080919F039091A0030E94BE0D8091A70378
:1039B0009091A8039C013056211540E2340720F075
:1039C000305E2115304108F499270E94601A0E9448
:1039D000CE141DC081E09BCF8095909582239323C8
:1039E000B9CFC701992797013056211540E2340716
:1039F00028F0305E2115304108F0C7010E94601A9E
:103A00008091A7039091A8038E159F0501F3109351
:103A1000A6030093A503CDB7DEB7E7E00C94D53439
:103A2000A4E0B0E0E6E1FDE10C94B4347C01DC01FB
:103A300013964D915C91149711966C9111978C91FE
:103A40000E945F0C8111F0C061E0C7010E94F91073
:103A50008C01F70182818823E1F08091AC03909181
:103A6000AD030097B1F00817190799F0FEE08F9F9A
:103A7000C0011124FC01E351FD4F2081246020830B
:103A800088519D4FDC010D931C930E94A614109247
:103A9000D303F7018281882309F4D6C7C801825174
:103AA0009F45409708F0C4C78FEF93E00E943435DC
:103AB0008111AAC06EEED62ED00E03E213E0D11013
:103AC00036C019821A821B821C8299249A9468013A
:103AD0002FEFC21AD20AC8010E94343589831A8294
:103AE000882309F491C0813009F07FC0580132E089
:103AF000A30EB11CC6010E943435C82E8A838823C8
:103B000009F482C0C5010E943435D82E8FEF8C0D88
:103B10008330D8F4580143E0A40EB11CDB82DD20D1
:103B200021F0CE0101960E94241B8501D0CF011502
:103B3000F4E01F0709F468C0C8010E943435811100
:103B400001C0DA940F5F1F4FBACF8BEF8C0D83301B
:103B500030F5C8010396DB825C01DD2031F35801AA
:103B600054E0A50EB11C0E9434358C838823E9F201
:103B70008B819C818130AFEF9A0710F0982F8827B6
:103B8000B6E0CB1631F0E7E0CE1631F00E940C2AF9
:103B9000CCCF0E94E629C9CF0E946D29C6CFF4E0A0
:103BA000CF12C3CF580124E0A20EB11CC801039666
:103BB0000E943435DD2041F1882331F18150990B89
:103BC000989E9001999E300D11244D2D4150550B1A
:103BD000CA01820F931F019708F4A7CFAFE9BFE096
:103BE0001197F1F700C00000F6CFCE0101960E94B8
:103BF000241B56019ACF81E00E94491503C081E041
:103C00000E940B150E94FF1480911202877061F0D0
:103C1000D70112968C91882339F080915F0382FF3F
:103C200003C082E00E9418152496ECE00C94D03476
:103C300082E0E6CF823009F045C78091E2029091A0
:103C4000E302892B09F43EC72EE02C9DC0012D9D77
:103C5000900D1124FC01E351FD4F20812E7F208324
:103C600088519D4F0E94A6142DC70F3B3CE51307BA
:103C700009F44CC0A8F1003C5CE5150709F038C711
:103C80009091D502892F8695869586958F5F8F7145
:103C90009770843008F05BC0880F880F880F892BDD
:103CA0008093D5028091D50212C083E00E9426093C
:103CB0008091D5020E94C711A7CF80E0F7CF8091F5
:103CC000D502982F987FE9F188508093D502887F9C
:103CD00091E009F490E08091D50290FB80F913C047
:103CE0008091D502982F969596959695933040F4AD
:103CF0009F5F990F990F990F8770892B8093D50239
:103D00008091D50281608093D50219C08091D5023F
:103D100080FF09C08E7F8093D5020E94C71180E08A
:103D20000E94820871CF80FD6FCF81608093D502A1
:103D3000813019F489E08093D5028091D5020E94E8
:103D4000C7118091D502869586958695E9CF909387
:103D5000D502A8CF902F812F10C7FD01858181FF4B
:103D600010C7CD010E948C140CC780911C0181608A
:103D700080931C0134C780911C018E7F80931C01AD
:103D80000E94CE142CC780911C018F7E013E11052C
:103D900031F0053E1105C9F480911C018F7D80939F
:103DA0001C0180911C0180FF29C7D70112968C91BC
:103DB0000832110528F50E31110508F072C00430E3
:103DC000110580F5811116C719C7C80190568115D4
:103DD00040E2940720F0905E8115904110F78091A9
:103DE0001C0182FF0BC780919E0381FD07C72AE556
:103DF00032E040E0B60190E080E00E94581CFEC630
:103E00000933110558F40D32110518F40B32110560
:103E1000C9F690919C0392FDD5CF08C004361105D8
:103E2000C1F3D0CF90919C0394FDCCCF882309F4AB
:103E3000A8C080911D0290916003892B8D7FB1F104
:103E40001092A8031092A70380919C0381FD2EC0BD
:103E5000F80143E0F695E7954A95E1F7EE71FF2703
:103E6000EF59FC4F98012F70332781E090E002C09A
:103E7000880F991F2A95E2F78095909520813181CE
:103E8000822393239183808360E0C8010E94431CB6
:103E900080911D028D7F0E94D00B82E00E94181538
:103EA000B3CE90919C0393FD8DCFC0CF86E0F701F8
:103EB000AAE5B2E001900D928A95E1F710925C02BA
:103EC00010925E0210925D028091A7039091A80368
:103ED00008171907D1F520919C0325FF36C03091B2
:103EE0001C0131FF02C026FF30C02091A503309194
:103EF000A6035601A21AB30AB7010E94EF11A81631
:103F0000B90618F58091600381FF08C080911C01FB
:103F1000806180931C0182E00E94EB0B8091600322
:103F200085FF08C080911C01806280931C0180E2A3
:103F30000E94EB0B60911C01669561708091A70354
:103F40009091A8030E94431C5FCE80911D02909126
:103F50006003982B20911C0191FB21F920931C01F7
:103F60008D7F0E94D00B1093A8030093A703D092DB
:103F7000A603C092A50380911C01846080931C015C
:103F80008CCF970140E0B601C8010E94581C3CCE7E
:103F9000053F4CE5140709F463C008F45BC0063F15
:103FA0008CE5180709F462C0D70112963C913323BF
:103FB00009F444C61092AB030330BDE51B0708F0BB
:103FC00061C00A3FECE51E0730F4C80182509C45F1
:103FD000449708F062C00E941C1190935F03809385
:103FE0005E0302315CE5150709F47FC108F0CFC01C
:103FF00009309CE5190709F456C108F099C005304D
:10400000BCE51B0709F443C108F080C00330FCE5A0
:104010001F0709F434C108F036C180915E03816046
:1040200002303CE5130709F4AFC080915E03909124
:104030005F030E94CD110E947115E6CD07E225EEC7
:1040400045EE68ED7CE5F5C506E221EE40EE63EF56
:104050007CE5EFC507E225EE44EE64EF7CE5E9C5BB
:1040600006E221EE42EE65EF7CE5E3C507E225EED0
:1040700046EE66EF7CE5DDC508E221E045EE69ED40
:104080007CE5D7C5053AFDE51F0709F4A4CFC0F5C7
:1040900001364DE5140709F49ECF06315CE515079E
:1040A00009F01FC280916003982F9A7A20919B0398
:1040B00020FF04C0482F447409F090E021FF04C0A1
:1040C000482F417109F090E022FF04C0482F487842
:1040D00009F090E023FF03C0827209F090E03323DF
:1040E00009F42DC181E0911101C080E08093AA0103
:1040F00089E2911185E30E94260C0E94401484CD30
:10410000C8018D5A9D45039740F665CF80915E03A7
:10411000806207304CE51407B9F180915E0380613D
:1041200008305CE5150780F180915E0380642CC047
:104130000D308CE5180709F4C0C090F480915E033F
:104140008E7F0B30ACE51A07F9F080915E038C602E
:104150000C30BCE51B07C0F080915E038D7F14C05E
:104160000F30ECE51E0709F4B8C008F4AAC000310E
:104170002CE5120709F4B5C080915E038F7B0131F5
:104180003CE5130709F051CF80935E034ECF0F3FFC
:104190004CE5140709F4B3C0A8F50A3F8CE51807ED
:1041A00009F479C0C0F40431ACE51A0709F4B5C0CC
:1041B00008F4A1C00531ECE51E0709F036CF809167
:1041C0005E0382FB992790F921E0922790FB82F908
:1041D00090FB83F9D9CF0C3FFCE51F0709F475C0AC
:1041E00008F45DC00D3F3CE5130709F472C08091EF
:1041F0005F0383600E3F4CE5140709F016CF8093F0
:104200005F0313CF01365DE5150709F491C090F403
:1042100001309DE5190709F489C008F474C060E015
:104220000230BDE51B0709F000CF8EE090E00E9450
:104230004835FBCE0D3AEDE51E07E9F060F49091AC
:104240005E03892F8E7F90FF8160053A2DE512076E
:1042500009F49ACFEACE0E3A3DE5130751F10F3A31
:104260004DE5140709F0E1CE90915F03892F877F18
:1042700093FF8860C4CF80915F038860C0CF809136
:104280005E03826081CF80915E0384607DCF8091E8
:104290005E03886079CF80915F038160B0CF8091A9
:1042A0005F038260ACCF0E94711580915E038068CD
:1042B0006BCF80915F03877FA2CF80915E038B7F5E
:1042C00063CF80915E03877F5FCF80915F038E7F96
:1042D00096CF80915F038D7F92CF80915E038F7E1A
:1042E00053CF80915E038F7D4FCF0E9471158091D7
:1042F0005E038F7749CF80915E03837F45CF8091A6
:104300005F038C7F7CCF80915F03982F9095917095
:104310008E7F892B90FB81F972CF0E94711590914D
:104320005E03892F97FB87F980582ECF61E07DCF00
:1043300090915E03892F8F7E94FF806125CF8091BD
:10434000AA01811104C089E20E94190CD6CE85E32E
:10435000FBCF043C4CE5140709F492C0053C5CE536
:10436000150709F08DC443EE52E16DEE72E114C001
:10437000093C9CE5190709F492C088F4073CBCE5A8
:104380001B0709F487C046ED52E169EC72E1083C75
:10439000ECE51E0709F074C40E943D0935CC0A3CC7
:1043A000FCE51F0709F480C047EF52E169E073E1C3
:1043B0000B3C2CE5120781F363C4013D3CE5130778
:1043C00009F484C0B0F40E3C5CE5150709F478C02C
:1043D00008F474C00F3C9CE5190709F474C06EE042
:1043E00089E0003DACE51A0709F04AC40E946F134A
:1043F0000BCC043DBCE51B0709F46EC070F4023D14
:10440000FCE51F0709F465C088E1033D2CE51207B0
:1044100009F036C40E945613F7CB053D3CE513075F
:1044200009F45DC00D35100709F4EECB29C4809165
:10443000D00280FF1BC08E7F8093D0026091D0029B
:104440007091D1028091D2029091D3020E942312E6
:10445000109284025FEF80E792E0515080409040DC
:10446000E1F700C000000E94C80DCECB81608093B0
:10447000D0028695CFCF4AE553E164E673E18CCF55
:1044800044E653E16AE573E187CF4DEE52E163EE16
:1044900072E182CF49EC52E166ED72E17DCF4FEAE5
:1044A00052E16CEB72E178CF4CEB52E16FEA72E1D2
:1044B00073CF49E053E167EF72E16ECF81E0AACF9D
:1044C00065E082E093CF68E086E090CF64E18FE022
:1044D0008DCF67E185E18ACF62E289E187CF83E210
:1044E00099CF0A35ADE51A0771F158F40115ECE5DD
:1044F0001E0791F00E3D1C4509F0C2C30E94E5184D
:1045000009C00C352DE51207A1F0F8F0073A1D455A
:1045100009F0B6C30E94DA190E9471155FEF84E3B7
:104520009CE0515080409040E1F700C000000E94A4
:104530009A0D80915F0382FB882780F991E089279B
:104540000E9434159DC381E0FBCF80E0F9CFC80104
:104550000E94740CD82EA3C3E12FEF70BE2E812FC2
:10456000807F19F0B29490EFB922CC20A9F0BB2043
:1045700059F080E2800F883010F0811007C08B2D39
:104580000E94F20B0E944014802F5BC08091D303E5
:10459000B82AB092D303F6CF802F0E940F1ABB2007
:1045A00009F451C080E2800F883010F0811004C0FF
:1045B0008B2D0E94EB0B03C08B2D0E94E40B0E94FD
:1045C000401441C0F12FFF70BF2E812F807F8032B9
:1045D00019F0B29480EFB822882029F121E08216E8
:1045E00009F4AFC0CC2009F4B8C0DD2009F480C0C4
:1045F00020E0D7014C9111965C91119712966C9125
:10460000129713967C91139714968C910E94D61052
:1046100080919E0381FDB8CFF701858180FFB4CFE3
:104620008F70858365C080915F0382FD41C0CC207F
:10463000C9F1BB2029F08B2D0E94F20B0E9440147F
:1046400080E00E94781A292D2850330B2430310540
:1046500020F40E94DA070E94FA0CC8010E94DF0CC5
:104660008111C0C11092AD011092AC01AA20A9F035
:104670008091120280FD11C0F70112828595859507
:1046800085950E944915C7010E94101D8091120254
:104690008595859585950E940B1560E0C7010E9460
:1046A000F910C2CA80E00E940F1ABB2061F280CFCD
:1046B000CC2011F1D11004C080911D028B2919C0AA
:1046C00031E0D31206C080911D028B290E94D00BCD
:1046D000BACF80919D03823078F3D812EDCF0E943B
:1046E000C50B9091AB018B2D892B89138093AB0166
:1046F0008B2D0E94081AA7CFD11003C00E94C50BB2
:1047000017C080919D0341E0D41216C0823008F496
:104710009ACF809160038B2109F495CF0E94C50B3D
:104720009091AB018B2D8095892389138093AB01E8
:104730008B2D0E94011A87CF823000F3D812DECF72
:1047400082CF8091A303CC2021F08D1508F47BCF7C
:10475000CFCFD81608F077CFEBCFDD2049F3F9E3C0
:104760008F1238C18091A1039091A2030E94BE0DC7
:10477000802F0E940F1A67CF812F869586958370B0
:1047800061F0813009F05FCFC8019370C11002C0A1
:1047900090E080E00E94AE0756CFC8019370C11030
:1047A00002C090E080E00E94C4074DCF812F83704B
:1047B00091F5C11048CF402F429546954770440F60
:1047C000440F802F8F70042E01C0880F0A94EAF7DF
:1047D000202F207104FF07C02FE030E001C0220F1E
:1047E0004A95EAF72095312F369536953370323059
:1047F00069F050F440911E02313029F0822B84235D
:104800000E946C1520CF842B822BFACF282B80910D
:104810001E028227F5CF8695CC2011F0812F817062
:10482000882309F410CF402F429546954770440FD6
:10483000440F802F8F70042E01C0880F0A94EAF76E
:10484000202F207104FF07C02FE030E001C0220FAD
:104850004A95EAF72095312F3695369533703230E8
:1048600069F050F44091D403313029F0822B842335
:104870000E94FA14E8CE842B822BFACF282B809149
:10488000D4038227F5CF212F2F70B22ECC2029F010
:10489000822F0E944915802F2CCF802F0E94011A51
:1048A0008B2D0E940B15CFCE802F32EF8316B1F1E6
:1048B000381570F040EF8416D1F051EF851691F065
:1048C000CC2009F482C0D1105FCE812F8F712AC015
:1048D00093EF891651F1A4EF8A12F2CF80915F0312
:1048E00082FD2FC0812F8F71CC20D9F21BC0809107
:1048F000A303CC2079F0D81608F0A5CE212F2F7174
:1049000081E090E001C0880F2A95EAF79091D403E6
:104910008927AECF8D1508F496CEF0CF812F8F71F9
:10492000C110BFCF0E9449158ECE80E0CC2009F483
:104930009FCF81E0912F9F7101C0880F9A95EAF770
:1049400097CF80919D03823040F1CC20D1F090919F
:1049500012029770943041F40E94F80B812F8F71EE
:104960000E940B15A12C6FCED816E0F7B12FBF71A6
:10497000BB2E8B2F0E94491563E08B2D0E9455158D
:10498000F1CFD81630F00E94F80B64E0812F8F71C0
:10499000F5CF81E00E941815E5CFCC2059F0E12F2A
:1049A000EF71BE2E8E2F0E94491563E08B2D0E9461
:1049B000551549CE81E00E941815F1E0FD1508F06B
:1049C00042CE82E00E9418153ECEDD2041F08933B0
:1049D00009F4C8CE80919F039091A003C7CE812F88
:1049E0008F715FCFCC2019F0D1103CCE3FCED110CB
:1049F00039CE20E0D7014C9111965C911197129617
:104A00006C91129713967C91139714968C910E9437
:104A1000D61080919E0383FF25CE8091AC019091AA
:104A2000AD01029709F01ECE802F0E94021B1ACE04
:104A30000031FFE51F0709F4DEC801312FE5120739
:104A400009F040C082E0D8C800313FE5130709F4FF
:104A5000D6C801314FE5140709F4EAC86801E7E553
:104A6000DE1AFFEFCF16D10409F060F56EED72E0AB
:104A70008C2D0E94DB11892B29F58EE08C9DF00195
:104A80008D9DF00D1124E851FD4F8281813009F098
:104A9000D1C88091DE029091DF02892B99F080913C
:104AA000E0029091E102892B69F08091E2029091FD
:104AB000E3022091E4023091E502822B932B892BB3
:104AC00009F4C2C8D70112968C91882389F00D3B56
:104AD000BCE51B0709F4F3C808F0C7C80B3BFCE5AD
:104AE0001F0709F4E2C80C3B2CE5120709F4E5C8DE
:104AF000980137552F3F310511F008F042C0580199
:104B0000BB249EE0099FF0011124DF01A851BD4F95
:104B10006D01E351FD4F908180FB90F990838823D4
:104B200009F41BC90E94A20790935902809358026E
:104B3000F60182818F5F82838091D303909160031D
:104B4000892B838380911D0284830680F781E02D69
:104B5000309731F0D6011C966D917C91C601099574
:104B60008EE08A9DF0018B9DF00D1124E851FD4FE0
:104B7000858181FFEFC890E080E09093AC03809343
:104B8000AD0380919C0380FF39C00E94A2076C0195
:104B9000D70112968C91882309F4F5C880911C01E5
:104BA00082FF08C02AE532E040E0B60190E080E0F4
:104BB0000E94581C0B31BCE51B0709F4D6C80C3108
:104BC000ECE51E0709F4D7C890911C01892F8E7F50
:104BD00090FF81600A31FCE51F0709F4CFC8C801C6
:104BE0009056811520E2920728F0905E8115904141
:104BF00008F0D7C81092A8031092A703033FBCE5A2
:104C00001B0709F421CA08F0C3C9083DFCE51F07CA
:104C100009F414CA093D2CE5120709F42DCA073D11
:104C20003CE5130709F0C0C906E221EE41EE67ED4D
:104C30007CE5C7010E94C51B0C94041E06315CE58F
:104C4000150709F42FCA8091600382720C3C9CE521
:104C5000190709F42ECC08F0B0CB063CBCE51B07C5
:104C600009F413CC08F084CB033CFCE51F0709F4DE
:104C700002CC08F06ECB023C3CE5130709F4D7CB1D
:104C8000F701828100811181882309F460CCC80179
:104C90000E948410D82E682FC8010E94A80CB80169
:104CA0008D2D0E9467100E94440A8C01882ED70126
:104CB0001296CC9012971596DC90D2943FE0D322B6
:104CC000809112028770C1F0AC2CCC20B1F0812F02
:104CD000807F803421F080E2800F883068F08091FE
:104CE0005F0382FF09C082E00E94181580911202C2
:104CF0008770AA24A3948111A12C912E92942FE065
:104D00009222BBE0B91508F49ECCE92DF0E0E05703
:104D1000FA4C0C947034B0E0A0E0E1E9F6E20C94B7
:104D2000B7348091DD01807F09F052C08091DA01B3
:104D3000882309F44DC0C0910F0286E0B82E8091FF
:104D4000DE018C1709F444C0F090D801E090D9013D
:104D5000C090DB01D090DC01A6016E2D8F2D0E944A
:104D60005F0CD0E0811139C0BC9E8001BD9E100D4A
:104D70001124F801E152FE4F81818E112EC08081F5
:104D80008F112BC08281811128C0E380F480EC1840
:104D9000FD0860E088ED91E00E94F91068ED71E097
:104DA0000E94EF11E816F906C0F48091DD018F70C2
:104DB00080618093DD01F801EC51FE4F80818F709E
:104DC0008061808388ED91E00E94101D0E946A0C32
:104DD000CDB7DEB7E9E00C94D3342196C770AFCFDE
:104DE000A1E1B0E0E6EFF6E20C94B1348C0185E08D
:104DF000F801DE011D9601900D928A95E1F7D80128
:104E00005C9011966C9011971296EC9012971396F5
:104E1000CD90DC9060E088ED91E00E94F91088ED83
:104E2000A82E81E0B82E8090DB019090DC01A401D7
:104E30006091D9018091D8010E945F0C811175C1E8
:104E4000F090DA01F601E819F9094F0160E0FF205E
:104E500009F421C1C5010E94F910B5010E94EF11AA
:104E60007090DD018816990608F0D7C04091DB01EB
:104E70005091DC01B090D801A090D901872D807F9E
:104E80006A2D09F082C08B2D0E945F0CFE2C8111CF
:104E90001DC0D80111968C9111978A1117C08C9161
:104EA0008B1114C0E11012C0872D8F708061809328
:104EB000DD0188ED91E00E94101D8091DD01F80177
:104EC00085838F2D6196EFE00C94CD34A601662D7D
:104ED000852D0E945F0CD82E81E08E25D11080E0B8
:104EE00080FF18C04E2D662D852D0E943F0C882313
:104EF00089F080919E0380FF0DC088ED91E00E94B3
:104F0000101D86E0E8EDF1E0DF011D928A95E9F7DA
:104F1000F12CD7CF81E08E25D11080E0B82FB17071
:104F2000CB2E80FF29C04E2D662D852D0E943F0C73
:104F3000D82E811121C05D866E868D859E850E944A
:104F4000B310292F22952F70223050F0243078F49E
:104F50009F7051F0F8019581907F31F4FD2CB1CF15
:104F60009F7011F08823D1F3805E8830B8F3C801B8
:104F70000E94101DDC2CF2CFEE2009F4A2CF80910C
:104F8000DD0181608093DD01C3CF8B2D0E945F0C1A
:104F9000811119C0D80111968C9111978A1113C0F3
:104FA0008C918B1110C0E1100EC015967C92C80137
:104FB0000E94101D86E0F801A8EDB1E001900D926D
:104FC0008A95E1F77ECFC8010E94C010882309F1BD
:104FD000EE20F9F08091DD01803270F02091D8014F
:104FE0003091D90138872F831986DB86CA868C8752
:104FF000CE0107960E94101D86E0F801A8EDB1E0F1
:1050000001900D928A95E1F70E948B26FF24F3947C
:1050100058CFC8010E94101DF9CF872D807F09F459
:105020006CCF9090D8018090D9014091DB015091D4
:10503000DC01682D892D0E945F0C811113C0F801DD
:10504000818188110FC0808189110CC0E1100AC0D4
:105050007582C8010E94101D86E0D5011D928A95B7
:10506000E9F72FCFC8010E94C010882391F2EE20EB
:1050700081F28091DD01803208F4BECF2091D80109
:105080003091D9013A8329831B82DD82CC828E83C1
:10509000CE010196AFCF88ED91E00E94F91068ED46
:1050A00071E00E94EF1188169906B0F6FE2CEE20F2
:1050B00009F4AFCFE090D801D090D9014091DB0145
:1050C0005091DC016D2D8E2D0E945F0C81111FC04F
:1050D000F80181818D111BC080818E1118C08091D3
:1050E0009E0382FD67CF9091DD0190FD63CF907F9D
:1050F00009F460CF8091DD018583903F09F457CF9B
:10510000982F907F905F8F70892B858350CFC80137
:105110000E94C010811170CF8091DD018160809369
:10512000DD01C8010E94101DCCCEEE2009F471CF24
:10513000C8010E94C010F82E882309F46ACF86E0C7
:10514000F801A8EDB1E001900D928A95E1F7809108
:10515000D8019091D9010E94B3100E948B26B1CE44
:10516000A7E1B0E0E6EBF8E20C94BD34942F4B8B52
:10517000252F5C8B6D8B7E8B8F8B4E895F89622F89
:10518000892F0E945F0C811109C08091AC01909120
:10519000AD0101969093AD018093AC018D89811191
:1051A0001092D3031A8A198A85E0FE017396DE01F4
:1051B0001D9601900D928A95E1F780915F0382FF21
:1051C0001EC08091830390918403892BC1F00E94BB
:1051D000A2072091100230911102821B930B2091A3
:1051E0008303309184038217930720F08091120289
:1051F00082FF6FC00E94FF0B81110E94C50B86E0E9
:10520000FE013D96DE01179601900D928A95E1F719
:10521000CE0107960E94F026811111C086E0FE01A2
:105220003796DE01119601900D928A95E1F74A8535
:105230005B8568858F810E945F0C882359F016E09A
:1052400080910F029091DE01891331C06796E3E0EF
:105250000C94D9342091DE0130E0C90101968770A9
:10526000992740910F024817190699F096E0929FEE
:10527000D001939FB00D1124A152BE4FFE01319673
:1052800001900D929A95E1F78093DE010E946A0CDD
:10529000D6CF0E9471151092DE0110920F0286E0A7
:1052A000E8EDF1E0DF011D928A95E9F7C8CF819F13
:1052B000C001112481529E4F0E94F026882331F2B2
:1052C00080910F0290E001968770992780930F02DA
:1052D000B7CF82E00E9418158DCFA5E0B0E0E3E7DC
:1052E000F9E20C94BE3490935B0380935A038115CA
:1052F00020E2920730F40E94601A2596E2E00C94B6
:10530000DA3480EF89838A831B820E94A20781603E
:10531000782F9D838C8349815A816B818D810E9476
:10532000B028EBCF0F931F93CF93DF938C01EB014A
:105330006EED72E08C2F0E94DB11892BA1F480911D
:105340009F039091A0030E94BE0DDD27CA52DD4F3E
:105350008881F801128218828330F1F048F481309C
:1053600059F0823081F0DF91CF911F910F91089514
:105370008430B9F08530B9F78091DE029091DF0278
:10538000009789F306C08091E0029091E1020097B6
:1053900099F30E946D29E7CF8091E2029091E30298
:1053A000F6CF8091E4029091E502009791F7209169
:1053B000DE023091DF028091E0029091E10221153E
:1053C0003105F1F2009729F7C901E3CFA5E0B0E07C
:1053D000ECEEF9E20C94BE3490935B0380935A0395
:1053E000811520E2920730F40E942B1C2596E2E002
:1053F0000C94DA3480EF89838A8381E08B830E9466
:10540000A2078160782F9D838C8349815A816B81AB
:105410008D810E94B028EACFCF93DF93EC010E94E8
:10542000E62980919F039091A0030E94BE0DCE01BA
:105430000E946D29DF91CF9108950F931F93CF9311
:10544000DF938C01862F6EED72E00E94DB11892BB9
:10545000B1F4C091DE02D091DF02209781F0F80113
:105460008281833051F4CE010E940C2ACE010E9429
:105470000C2ACE010E940C2A02C08430D0F7DF91A2
:10548000CF911F910F9108950F931F93CF93DF93A7
:105490008C01EB016EED72E08C2F0E94DB11892BE9
:1054A00009F05CC0FE01FF27D80112968C9112977B
:1054B000EA52FD4F8130B9F415969C9192FF02C0DB
:1054C00080830AC090FFFCCF82E080838091E0025D
:1054D0009091E1020097B9F48091DE029091DF0291
:1054E0000097E1F110C08230B9F515968C9182FDDC
:1054F00028C080FD0BC083E080838091E202909100
:10550000E302009701F10E94E62928C084E080832D
:105510008091E4029091E5020097A9F78091DE0264
:105520009091DF020097F9F00E940C2A8091E0022E
:105530009091E102009739F78091DE029091DF02AD
:10554000E2CF85E080838091DE029091DF020097B8
:1055500029F00E940C2AF0CF86E08083DF91CF9162
:105560001F910F9108958091E0029091E102B8CFD0
:1055700090E080E00E944235883E9E4F19F40E94E0
:105580000311089580E008950E94B82A81110AC08D
:105590000E94E5188091D502847089618093D502BC
:1055A0000E94C71186E090E00E9434358093D502B6
:1055B000803220F0877088618093D5029091D50267
:1055C000892F817090FF04C0892F869586958695D6
:1055D0000E94820808951F920F920FB60F92112415
:1055E0002F933F934F935F936F937F938F939F93EB
:1055F000AF93BF93CF93DF93EF93FF93D091E900E5
:10560000DF708091EC00C82FC17080FDC0E810925F
:10561000E9008091F000877F8093F00078940E94E9
:105620007D151092E9008091F00088608093F00071
:10563000CD2BCF70C093E900FF91EF91DF91CF9117
:10564000BF91AF919F918F917F916F915F914F919A
:105650003F912F910F900FBE0F901F9018951F92A2
:105660000F920FB60F9211242F933F934F935F9396
:105670006F937F938F939F93AF93BF93EF93FF931A
:105680008091E10082FF09C08091E20082FF05C0A5
:105690008091E1008B7F8093E1008091DA0080FFB0
:1056A00024C08091D80080FF20C08091DA008E7FD6
:1056B0008093DA008091D90080FF9DC080E189BD90
:1056C00082E189BD09B400FEFDCF81E08093D20361
:1056D0008091BC03811109C00E94E1050E94D4069B
:1056E0008091E20084608093E2008091E10080FF7D
:1056F00017C08091E20080FF13C08091E2008E7F8E
:105700008093E2008091E20080618093E2008091CA
:10571000D80080628093D80019BC85E08093D203C2
:105720008091E10084FF2BC08091E20084FF27C0BC
:1057300080E189BD82E189BD89B5982F917080FF94
:10574000FBCF8091D8008F7D8093D8008091E100BD
:105750008F7E8093E1008091E2008F7E8093E20053
:105760008091E20081608093E2008091C9038823E8
:1057700009F447C084E08093D2038091D2038091E2
:10578000E10083FF27C08091E20083FF23C0809166
:10579000E100877F8093E10082E08093D203109242
:1057A000C9038091E1008E7F8093E1008091E20047
:1057B0008E7F8093E2008091E20080618093E2001E
:1057C00042E060E080E00E94A2068091F0008860E4
:1057D0008093F000FF91EF91BF91AF919F918F91D6
:1057E0007F916F915F914F913F912F910F900FBEDD
:1057F0000F901F90189519BC1092D2031092BC0301
:1058000074CF8091E30087FD93E09093D203B5CFEE
:1058100078941F921FB61F9211248F939F93AF937A
:10582000BF938091B5039091B603A091B703B09157
:10583000B8030196A11DB11D8093B5039093B603E3
:10584000A093B703B093B803BF91AF919F918F918D
:105850001F901FBE1F9018951F921FB61F921124F4
:105860008F939F93AF93BF938091B403811113C023
:105870008091B5039091B603A091B703B091B8039E
:105880004196A11DB11D8093B5039093B603A093DB
:10589000B703B093B803BF91AF919F918F911F90C1
:1058A0001FBE1F901895CDB7DEB7EA970FB6F894D4
:1058B000DEBF0FBECDBF85B7806885BF85B7806866
:1058C00085BF84B7877F84BF0FB6F894A895809171
:1058D0006000886180936000109260000FBE80E8D5
:1058E00090E00FB6F89480936100909361000FBE32
:1058F00088EE99E09093A1018093A0010E946A082C
:105900000E9412100E94E1050E94D4068091E200DC
:1059100084608093E20078948091D2038823A1F080
:105920001091E9001F709091EC00892F817090FD1B
:1059300080E8182B1092E9008091E80083FD0E9416
:105940007D151F701093E90082E084BD93E095BD42
:105950009AEF97BD80936E000E940311811102C0DF
:105960000E94D51807E511E0A3E6EA2EA1E0FA2E81
:10597000D8018D918D018F3F11F00E94EA09E01648
:10598000F106B1F703E611E0F80181918F018F3F35
:1059900011F00E94EA09F1E00C361F07A9F788E12F
:1059A000E5E6F2E0DF01282F1D922A95E9F7E2E211
:1059B000F2E0DF011D928A95E9F7559A6E9A0E94EE
:1059C000B82A811102C00E94E51882E090E00E948E
:1059D000343580933F020E941C1190935F038093A3
:1059E0005E030E948E13EFE3FCE93197F1F700C0EC
:1059F00000000E948E138091650280FF08C06FEF47
:105A00007FEF90E080E00E9466350E949A0D83E06F
:105A100090E00E9434350E946C15279A2F988AE0F6
:105A20008093800089E1809381008FEF9FEF9093B6
:105A30008700809386000E94C42A0E94C42A809115
:105A40003A02811133C00E94B82A811104C00E9419
:105A5000E5180E947E1388E090E00E943C35609338
:105A6000D0027093D1028093D2029093D3026E7FC2
:105A700071F40E947E1388E090E00E943C356093B0
:105A8000D0027093D1028093D2029093D3020E94ED
:105A90004309109284028091D00280FF04C060E02C
:105AA00086950E941B1381E080933A0280E091E08A
:105AB0009093B1038093B0032E01FBE24F0E511C73
:105AC0008091D203FF24F39400E112E1853009F4C0
:105AD000BEC00E948E13F0E4AF2EF2E0BF2E05E6AA
