:100000000C9481020C94B9020C94B9020C94B902BC
:100010000C94B9020C94B9020C94B9020C94B90274
:100020000C94B9020C94B9020C94971E0C946B1F9B
:100030000C94AA190C94B9020C94B9020C94B9024C
:100040000C94B9020C94B9020C94B9020C94B90244
:100050000C94B9020C94311A0C94B9020C94B902A4
:100060000C94B9020C94B9020C94B9020C94B90224
:100070000C94B9020C94B9020C94B9020C94B90214
:100080000C94FB040C94B9020C94B9020C94B902C0
:100090000C94B9020C94B9020C94B9020C94B902F4
:1000A0000C94B9020C94B9020C94B90229003A00DC
:1000B0003B003C003D003E003F004000410042004C
:1000C000430044004500000046004700480035005A
:1000D0001E001F0020002100220023002400250014
:1000E000260027002D002E002A0049004A004B0060
:1000F0002B0014001A000800150017001C0018003F
:100100000C00120013002F00300031004C004D0095
:100110004E00390004001600070009000A000B0019
:100120000D000E000F003300340028002A000000EC
:1001300000000000E10000001D001B000600190087
:10014000050011001000360037003800E5000100FE
:10015000000052000000E000E300E20000000000A8
:1001600000002C00000000000000E600E700650031
:10017000E400500051004F000100010001000100A7
:100180000100010001000100010001000100010067
:100190000100000001000100010001000100010058
:1001A0000100010001000100010001000100010047
:1001B0000100010001000100010001000100010037
:1001C0000100010001000100010001000100010027
:1001D0000100010001000100010001000100010017
:1001E0000100010001000100010001000100010007
:1001F00001000100010001000100000000000000FA
:1002000001000000010001000100010001000100E7
:1002100001000100010001000100010000000100D7
:1002200000000100010001000000000000000100CA
:1002300000000000000001000100010001000100B9
:1002400001000100010001000100010001000100A6
:100250000100010001000100010001000100000097
:100260000100010001000100010001000100010086
:100270000100010001000100010001000100010076
:100280000100010001000100010001000100010066
:100290000100010001000100010001000100010056
:1002A0000100010001000100010001000100010046
:1002B0000100010001000100010001000100010036
:1002C000010001000100000000000000010000002A
:1002D0000100010001000100010001000100010016
:1002E0000100010001000100000001000000010008
:1002F00001000100000000000000010000000000FB
:1003000000000100010001000100010001000100E6
:1003100001000100010001000100010001000100D5
:1003200001000100010001000100000001000100C6
:1003300001000100010001000100010001000100B5
:1003400001000100010001000100010001000100A5
:100350000100010001000100010001000100010095
:100360000100010001000100010001000100010085
:100370000100010001000100010001000100010075
:100380000100010001000100010001000100010065
:100390000100000000000000010000000100010059
:1003A0000100010001000100010001000100010045
:1003B0000100010000000100000001000100010037
:1003C000000000000000010000000000000001002B
:1003D0000100010001000100010001000E035700AF
:1003E0005400380030002D00410000001603770053
:1003F00069006C00620061002E00740065006300FB
:10040000680000000403090409023B00020100A087
:10041000FA09040000010301010009211101000192
:1004200022400007058103080001090401000103BF
:10043000000000092111010001226D00070582035F
:10044000200001120100020000000882650A080174
:10045000000102000105010980A101850319012A9B
:10046000B700150126B700950175108100C0050C75
:100470000901A101850419012AA002150126A00283
:10048000950175108100C005010906A101850605C9
:100490000719E029E7150025019508750181020576
:1004A00007190029EF1500250195F0750181020556
:1004B00008190129059505750191029501750391AA
:1004C00001C005010906A101050719E029E715008A
:1004D00025019508750181029501750881010507BF
:1004E000190029FF150026FF0095067508810005F3
:1004F000081901290595057501910295017503916A
:1005000001C011241FBECFEFDAE0DEBFCDBF04B6BD
:1005100003FE18C08091CF049091D004A091D10423
:10052000B091D2048730904BA740B04B59F4109251
:10053000CF041092D0041092D1041092D204E0E0C3
:10054000F8E3099511E0A0E0B1E0EEEBF5E402C0BC
:1005500005900D92A03AB107D9F724E0A0EAB1E0E6
:1005600001C01D92AF3CB207E1F70E946F160C94D8
:100570009E220C940000E8E7F4E06083418324E6C7
:1005800030E042E050E0BF01880F0E946A04089505
:10059000EF92FF921F93CF93DF937B01182F110FE0
:1005A000D0E0C0E0C0937804F701EC0FFD1F80E1BC
:1005B000A9E7B4E001900D928A95E1F724E630E0D6
:1005C00041E150E068E774E0812F0E946A04609680
:1005D000C03CD10539F7DF91CF911F91FF90EF908B
:1005E0000895CF93DF93C82F45EC6EEF0E94BB02B6
:1005F00040E06DEF8C2F0E94BB02D0E040E06D2FF9
:100600008C2F0E94BB02DF5FD831C1F745EC6EEF43
:100610008C2F0E94BB0241E06DEF8C2F0E94BB0229
:10062000D0E040E06D2F8C2F0E94BB02DF5FD03CFA
:10063000C1F745EC6EEF8C2F0E94BB0243E06DEFDB
:100640008C2F0E94BB0240E06FE08C2F0E94BB0207
:1006500040E060E18C2F0E94BB024FEF61E08C2FE5
:100660000E94BB0241E060E08C2F0E94BB028FE33E
:100670009CE90197F1F700C00000DF91CF91089548
:100680008036910548F4880FE82FF0E0E850FD4FE0
:10069000608381E08093D30108951F93CF93DF930C
:1006A000182FD0E0C0E0612FCE010E9440032196B8
:1006B000C036D105C1F7DF91CF911F910895880F02
:1006C000E82FE695E695E695F0E0ED55FE4F2081A2
:1006D000382F377081E090E001C0880F3A95EAF733
:1006E000662331F0822B808381E08093A2010895FC
:1006F00080958223F8CF0F931F93CF93DF93D82F4A
:10070000C62F062F10E00D521E4FF801808188235E
:1007100099F045EC6EEF8D2F0E94BB0241E06DEF2A
:100720008D2F0E94BB02F0ECCF9FB00111246850C6
:100730007D4F8D2F0E94C802F8011082DF91CF916A
:100740001F910F9108950F931F93CF93DF93D82F8D
:100750008091A2018823C9F045EC6EEF8D2F0E9495
:10076000BB0240E06DEF8D2F0E94BB0203EA11E057
:10077000C0E0F80141918F016C2F8D2F0E94BB02C8
:10078000CF5FC831B1F71092A201DF91CF911F91D5
:100790000F9108951092B9008CE08093B8000895ED
:1007A000B0E0A0E0E6EDF3E00C946921B82EEB0197
:1007B0000E940A1A6C01EE24E394F12CC431D10595
:1007C00060F025E0E22EF12CCF3FDC0731F0CE01C6
:1007D00064E170E00E9412217B0184EAA82E94E873
:1007E000992E1092BC00A092BC000E940A1A8C01A3
:1007F0008091BC0087FF0DC08091B900887F883050
:10080000F9F08091B900887F8031D1F00FEF1FEFB0
:1008100008C0C8010E94221AE816F90648F70EEF30
:100820001FEFCF3FDC07E9F2C6010E94221AC8176A
:10083000D907B8F6C801CDB7DEB7EBE00C94852137
:10084000B092BB009092BC000E940A1A8C01809169
:10085000BC0087FF0AC08091B900887F883111F001
:100860008034A1F610E000E0E5CFC8010E94221A12
:10087000E816F90660F7D3CF0F931F93CF93DF935A
:10088000EB018093BB0084E88093BC000E940A1AAD
:100890008C018091BC0087FF11C02091B900287F96
:1008A00081E090E0283211F490E080E0919581950C
:1008B0009109DF91CF911F910F910895CF3FDC07F0
:1008C00041F3C8010E94221AC817D90710F78EEF0A
:1008D0009FEFEFCFB0E0A0E0E0E7F4E00C946C21F4
:1008E0006B018A017901B9010E94D003E6010C0D68
:1008F0001D1DC017D10711F097FF08C024E92093F0
:10090000BC00CDB7DEB7E8E00C948821B70189912F
:100910000E943C04EECFCF930E94CA0380E50E9460
:10092000F102C0E061E08C2F0E945F03CF5FC03610
:10093000C9F760E080E50E94A303CF9108958091FC
:10094000D60181110EC081E08093D6018DE08093A5
:1009500091009FB7F89423E020939900809398002A
:100960009FBF0895E1E7F0E0808182608083089571
:100970008093DF01089580E00E944D0308958091E7
:1009800007010E944D030895FF920F931F93CF9389
:10099000DF93F82E0E94E52160E670E00E94262198
:1009A000D0E0C0E08C011127F11003C00C171D0727
:1009B00031F40E94E521682FCE010E944003219668
:1009C000C036D10589F7CDB7DEB7E5E00C948B21B1
:1009D0000E94411881FF05C06FEF80E190E00E9406
:1009E00040030E94411882FF05C06FEF86E390E04C
:1009F0000E94400308951F920F920FB60F92112488
:100A00000F931F932F933F934F935F936F937F9316
:100A10008F939F93AF93BF93CF93EF93FF93809167
:100A2000D5018431B8F48F5F8093D501FF91EF91A8
:100A3000CF91BF91AF919F918F917F916F915F9176
:100A40004F913F912F911F910F910F900FBE0F90DB
:100A50001F9018958091DB019091DC01A091DD0140
:100A6000B091DE010196A11DB11D8093DB01909331
:100A7000DC01A093DD01B093DE018091D70190915C
:100A8000D801A091D901B091DA018F3F2FEF9207E1
:100A9000A207B20759F00196A11DB11D8093D7019D
:100AA0009093D801A093D901B093DA018091DF012E
:100AB000882321F08091050180FD1FC080910601EF
:100AC0008823C9F020EB34E0829FA001839F500D62
:100AD0001124052E000C660B770B81E00091D701E5
:100AE0001091D8012091D9013091DA0140175107B6
:100AF0006207730718F080E001C081E0C82FC17061
:100B000080FD13C08091080190910401809304013D
:100B1000813069F0882311F0823061F00E94BB04BB
:100B2000C11184CF0E94E80481CF80E0EDCF0E9404
:100B3000BF04F6CF81E0923009F480E00E94C40443
:100B4000EFCF47E050E069E270E085E091E00E947D
:100B50000B22089547E050E069E270E085E091E003
:100B60000E942922089560E080E50E947B03089599
:100B70008091080190E001968430910514F083E0A3
:100B800090E0809308010E94AA05089580910801D1
:100B90008150990B97FF02C090E080E0843091056E
:100BA00014F083E090E0809308010E94AA05089564
:100BB0008091090190E001968430910514F083E062
:100BC00090E0809309010E94AA050895809109018F
:100BD0008150990B97FF02C090E080E0843091052E
:100BE00014F083E090E0809309010E94AA05089523
:100BF0008091070190E008968F3F910519F014F05D
:100C00008FEF90E0809307010E94AA0508958091DC
:100C100007018850990B97FD80E0809307010E949F
:100C2000AA050895FB012581222311F11092D70115
:100C30001092D8011092D9011092DA018230FEE7A9
:100C40009F0799F150F481153EE7930741F18130F8
:100C50009E4741F121E0822F08958430FEE79F07EF
:100C600051F130F185309E47A9F70E94E6050CC08E
:100C70008230EEE79E0741F048F481152EE7920797
:100C800019F081309E4731F720E0E5CF8430EEE760
:100C90009E07D1F3C8F385309E47E9F2DBCF0E946F
:100CA000F805F2CF0E940706EFCF0E94B805ECCFFF
:100CB0000E94C605E9CF0E94D805E6CF0E94F61033
:100CC000882349F00E94A1050E948B040E949F0482
:100CD0000E94B20408950E94AA05F6CF0E94B305AF
:100CE0000E94EA1408950F931F93CF93DF93EC01B2
:100CF0008B010E941206B801CE010E94D306DF913B
:100D0000CF911F910F91089581E00E94B80408953A
:100D100080E00E94B8040895CF93C82F6FEF81112F
:100D200062E285E290E00E9439226FEFC11164E037
:100D300086E290E00E9439226FEFC11160E387E202
:100D400090E00E943922CF9108950E945E0681E0D2
:100D50000E948C060E94E91408958430B8F466302D
:100D6000A8F4413198F450E091E1699F400D511D84
:100D70001124FA0196E6899FE00DF11D1124EE0F72
:100D8000FF1FE455FF4F85919491089581E090E015
:100D900008950E94AD06089581E008950E94CC0652
:100DA000089581E008950E94CC06089508950E9458
:100DB000D6060895A6E0B0E0E0EEF6E00C947121CE
:100DC00049835A839E833091E50189819A8131114B
:100DD0001AC03E81332399F0222389F00E94B10C7E
:100DE000182F682F89819A810E948D0C69817A81E0
:100DF000812F0E94B6132696E3E00C948D210E9469
:100E00009F0C182FF3CF0E94B10C69817A81F1CF2A
:100E1000FC01262F408151816281738184819581FB
:100E20000E94DA060895CF93DF93EC0161E00E94FF
:100E30000807BE010E94CE06DF91CF910895CF939F
:100E4000DF93EC0160E00E940807BE010E94D70614
:100E5000DF91CF91089508950E94620B0E942B07A5
:100E60002FEF84E39CE0215080409040E1F700C0E8
:100E7000000008950E942C070E94551A08950E94B0
:100E80002C070E94791A08950F931F93CF93DF9335
:100E90008C0161E00E940807EC01B8010E94730612
:100EA000811106C080E0DF91CF911F910F910895CD
:100EB000B801CE010E94E6178823A1F3B801CE0144
:100EC0000E947C16882371F3B801CE010E94581746
:100ED000882341F3F8018581882361F0C330FCE762
:100EE000DF07E9F058F4C115ECE7DE07A9F0C130DF
:100EF000DC47B9F0C8010E94D106D5CFCB358CE7CD
:100F0000D807A9F0CC35ECE7DE0771F0CA35DC472D
:100F100089F70E94E710EECF0E943A07C3CF0E94E4
:100F2000EF100E943F07BECF0E94DD10E3CF0E946A
:100F3000EB10E0CF0E9484060E94C10708950E9432
:100F4000C5070E9488060895089581E008950895D0
:100F5000CF93DF93D82F0E94A507C82F882319F0BD
:100F60008D2F0E94A7078C2FDF91CF9108950895B0
:100F7000CF93C82F0E94A4078C2F0E94A807CF915F
:100F8000089580E00E94B80708950E9434180E94D6
:100F9000B8070895CF930E943418C82F8091E001BC
:100FA0008C1779F0C093E0010E94161A6093E1015A
:100FB0007093E2018093E3019093E4018C2F0E94EF
:100FC000B807CF910895ADE0B0E0E9EEF7E00C94FA
:100FD0007221488759876A877B878C879D87911103
:100FE0000E9415101F8286E0FE013896DE011196E0
:100FF00001900D928A95E1F78D8181110DC02981B3
:101000003A814B815C816D817E818F810E94480F86
:101010002D96E2E00C948E21CE0101960E941307DA
:101020008111EDCFF5CFFC012481213021F48081A5
:1010300091810E94E30C0895CF93C82F8823C9F0B3
:101040008238C9F40E94341881FD13C089E30E94DC
:10105000CD0F0E944E102FEF87EE93E0215080407D
:101060009040E1F700C0000089E30E94D50F0E9484
:101070004E10CF9108958338A1F40E94341880FD5A
:10108000F8CF83E50E94CD0F0E944E102FEF81EE26
:1010900094E0215080409040E1F700C0000083E5DB
:1010A000E4CF8438A1F40E94341882FDE2CF87E4B3
:1010B0000E94CD0F0E944E102FEF81EE94E0215040
:1010C00080409040E1F700C0000087E4CECF8CEF75
:1010D0008C0F813A90F46C2F80910C0190910D014E
:1010E0000E94BC18882329F08C2F0E94D50F0E94E3
:1010F0004E108C2F0E94CD0FBACF80E28C0F88301B
:1011000048F4C77081E001C0880FCA95EAF70E94D1
:10111000F80FADCFEBE5EC0FE33040F4F0E0E35B2C
:10112000FE4F808190E00E945E18A3CFC85ACB3159
:1011300008F09FCFEC2FF0E0EE0FFF1FE95EFE4FAF
:10114000808191810E94831894CF882309F44DC037
:10115000823879F40E94341881FF47C089E30E94E5
:10116000CD0F0E944E1089E30E94D50F0E944E10B1
:101170000895833859F40E94341880FF36C083E5FF
:101180000E94CD0F0E944E1083E5EECF843859F4B3
:101190000E94341882FF29C087E40E94CD0F0E946C
:1011A0004E1087E4E1CF9CEF980F913AE8F290E27D
:1011B000980F983050F4877091E001C0990F8A958C
:1011C000EAF7892F0E94FE0FD1CF9BE5980F93304D
:1011D00028F490E080E00E945E180895885A8B31D0
:1011E00020F490E080E00E94831808951F93CF932D
:1011F000DF93182FEB010E941C08209739F4812FF0
:101200000E94A508DF91CF911F9108958FE99FE07B
:101210000197F1F700C000002197EFCF70E060E088
:10122000893311F460E570E00E94F6080895882380
:1012300021F00E94F80F0E944E100895882321F09B
:101240000E94FE0F0E944E100895B0E0A0E0EBE275
:10125000F9E00C946B216C01D62FC72FFC0115818E
:10126000068102950F700E94EE0FE82E8823E9F0A8
:10127000E12E1123D1F08C2F807F803451F080E259
:101280008D0F8830F8F0011104C08C2F807E8032E1
:10129000C9F080918D0482FF15C082E00E94B110D8
:1012A0000E94EE0F91E0E82EE926BC2EB2949FE05A
:1012B000B922FBE0FB15B8F1EB2DF0E0E056FD4D57
:1012C0000C945C21E12CF1CF0C2F0F70C07F11F03A
:1012D0000295007F112399F0002359F080E28D0FD1
:1012E000883010F0D11107C0802F0E94F80F0E94A3
:1012F0004E108D2F5AC0802F0E940810F8CF8D2FCE
:101300000E94A508002379F080E28D0F883010F04C
:10131000D11104C0802F0E94FE0F03C0802F0E94B5
:101320000E100E944E10EB2DE850FF0B349720F466
:101330000E9434180E94B807EE2089F00E94EA0F3C
:1013400080FD0DC0F60115820E94E40F0E94EB0B98
:10135000C6010E942D0B0E94E40F0E94FB0BCDB72B
:10136000DEB7E9E00C9487212C2F2F70F22EC07F7E
:10137000C03219F0F29480EFF822DD2341F0D13031
:10138000D1F1112309F444C00023F1F0B2CF8091D0
:101390008D0482FD15C0112359F0FF2029F08F2DF7
:1013A0000E94F80F0E944E1080E00E941C08BBCFE4
:1013B00080E00E94A508FF2009F4B5CF8F2DABCFA8
:1013C000112369F0011104C08F2D0E941709ABCFC2
:1013D000013009F0A8CF8F2D0E942C10A4CF01114D
:1013E000A2CF8F2D0E941E098F2D0E9438108F2DA5
:1013F0000E941C1098CF112321F0063008F093CFE3
:10140000E3CF053008F08FCF8F2D0E941E098BCFC0
:101410000023D1F3D93349F43FEF87EE93E0315005
:1014200080409040E1F700C000008D2F0E94A50889
:101430007ACF8C2F86958695837069F0813009F07C
:1014400072CF8D2F9C2F9370111102C080E090E01D
:101450000E94831868CF8D2F9C2F9370111102C0AA
:1014600080E090E00E945E185ECF8C2F8370A1F523
:10147000111159CF4D2F429546954770440F440F97
:101480002D2F2F7030E0042E02C0220F331F0A943C
:10149000E2F790E080E0D4FF09C08FE090E002C066
:1014A000880F991F4A95E2F780959095C695C69545
:1014B000C370822B932BC23049F058F4C13019F01D
:1014C0000E94BB0B30CF0E94B20B2DCF0E94C40BE9
:1014D0002ACF0E94AF0B27CF8695112311F08C2FB6
:1014E0008170882309F41FCF4D2F42954695477090
:1014F000440F440F2D2F2F7030E0042E02C0220F16
:10150000331F0A94E2F790E080E0D4FF09C08FE037
:1015100090E002C0880F991F4A95E2F78095909558
:10152000C695C695C370822B932BC23049F058F4F0
:10153000C13019F00E94260CF6CE0E941D0CF3CE8D
:101540000E942F0CF0CE0E94D30BEDCECF70112352
:1015500029F08C2F0E94EB0B8D2F37CF8D2F0E94FF
:101560001E098C2F0E94FB0BDECED23F41F160F4AE
:10157000D03FB9F0D13F81F0112309F446C00111E9
:10158000B8CE8C2F8F711FC0D33F01F1D43FA1F78C
:1015900080918D0482FD24C08C2F8F71112311F353
:1015A00012C0112341F0053008F0BDCE8C2F8F7191
:1015B0000E940D0CB8CE063008F0B5CEF7CF8C2FB8
:1015C0008F711111CFCF0E94EB0BADCE112329F0FB
:1015D0008C2F8F710E94DF0BA6CE0E94DA0BA3CE58
:1015E000112349F0CF718C2F0E94EB0B63E08C2FFD
:1015F0000E94931098CE81E00E94B110023008F44E
:1016000092CE82E00E94B1108ECE002359F0D933E1
:1016100009F00BCFEFEFF7EE23E0E150F040204070
:10162000E1F701CF8C2F8F719DCF0F931F93CF9335
:10163000DF93EC01688179818D810E94EE0C8C0131
:101640000E94380C0E94AE0BB801CE010E94250901
:10165000DF91CF911F910F910895CF93DF93EC010C
:101660008C81882399F0CE010E944407811111C01A
:101670000E94EE0F882351F08D81882339F08091EC
:101680008D0482FF03C082E00E94B110DF91CF91F0
:101690000895CE010E94150BCE010E941F07F6CFC0
:1016A00090E080E00E945E1890E080E00E94831845
:1016B0000E9415100E944E1008950E94DD0F0E9496
:1016C000500B08950E9405100E945D0B089592959D
:1016D0009F70963091F058F4925F9F70923058F45A
:1016E000803F19F030F4883E30F481E008959A5F2D
:1016F000F4CF843FD1F380E00895883EB0F3813F7A
:10170000D1F7F3CFFC012481222339F0808191812C
:101710000E94E30C0E94670B089580E00895A6E004
:10172000B0E0E5E9FBE00C9472212696E2E00C942F
:101730008E21A7E0B0E0EFE9FBE00C947221279640
:10174000E2E00C948E2108950E94A30B08950E945C
:10175000A40B90931D0280931C02089508950E948B
:10176000A70B089520911C0230911D02822B932B10
:101770000E94A70B089520911C0230911D02822324
:1017800093230E94A70B089520911C0230911D0203
:10179000822793270E94A70B08950E94A30B089508
:1017A0000E94CD0B08950E94D00B90931B02809352
:1017B0001A02089590E080E00E94D30B089521E082
:1017C00030E0A90102C0440F551F8A95E2F7CA0113
:1017D0000E94D30B089521E030E002C0220F331F96
:1017E0008A95E2F780911A0290911B02822B932B2B
:1017F0000E94D30B089521E030E002C0220F331F76
:101800008A95E2F72095309580911A0290911B02FB
:10181000822393230E94D30B089521E030E002C07D
:10182000220F331F8A95E2F780911A0290911B02D2
:10183000822793270E94D30B089520911A0230919A
:101840001B02822B932B0E94D30B089520911A0226
:1018500030911B02822393230E94D30B0895209181
:101860001A0230911B02822793270E94D30B0895FE
:101870000895262F277091E001C0990F2A95EAF765
:1018800023E0769567952A95E1F7660F771F660F37
:10189000771FFA01E60FF71F50E040E0682F70E075
:1018A0008191DF0111979B01042E02C03695279587
:1018B0000A94E2F7217021952827292328272C93C1
:1018C0004F5F5F4F4430510559F70895A82FA77017
:1018D00023E0969587952A95E1F7880F991F880F41
:1018E000991FFB01E80FF91F50E040E080E02191D3
:1018F00030E00A2E02C0369527950A94E2F721704F
:101900003327042E01C0220F0A94EAF7822B4F5F7F
:101910005F4F4430510559F70895262F963070F4E3
:10192000813160F4682F70E081E1989F600D711D36
:10193000112446EE51E0822F0E94390C0895292F80
:10194000963068F4813158F490E066EE71E031E150
:10195000239F800D911D11240E94660C089580E044
:101960000895B0E0A0E0E7EBFCE00C946B217C0173
:1019700000911A0210911B0280911C0290911D028D
:10198000082B192BCFE0D0E0CC24C394D12CBC2E53
:10199000C6010C2E02C0880F991F0A94E2F780231B
:1019A0009123892B49F4219790F7B12C8B2DCDB73A
:1019B000DEB7E9E00C948721B7018C2F0E94C21397
:1019C000019789F3F3CFCF93DF93EC010E94B10C21
:1019D000BE010E94C213DF91CF9108951F93CF9350
:1019E000DF93EB019091E501992339F0CB010E943F
:1019F000E30CDF91CF911F910895882369F0CB010B
:101A00000E94B10C182F682FCE010E948D0CBE01D0
:101A1000812F0E94C213EDCFCB010E949F0C182F83
:101A2000F6CF1F93CF93DF93C0911E0217E08091F2
:101A30001F028C1304C0DF91CF911F910895D0E055
:101A40001C9FF0011D9FF00D1124E05EFD4F2081D1
:101A50003181428153816481758186810E94990B15
:101A60002196C770E4CF20915802309159024091DD
:101A70005A0250915B0260915C0270915D0280910C
:101A80005E020E94990B0895CF93DF9380915E02CE
:101A9000807F09F04DC080915D02882309F448C021
:101AA000E0911E0250911F02C0915902D09158023C
:101AB00060915A0270915B0247E05E17C9F18E2F68
:101AC00090E0E49FF0011124E05EFD4F2481222389
:101AD00091F1489FF001499FF00D1124DF01A05EB4
:101AE000BD4F11962C9111972C1325C02C912D13BD
:101AF00022C015962C91159721111DC012962D917B
:101B00003C91261B370B283C3105A8F480915E02DE
:101B10008F70806180935E02EA5DFD4F80818F70DF
:101B20008061808388E592E00E942D0B0E94110D58
:101B3000DF91CF910895FC013196E770BECF482F19
:101B400020911E0290911F0257E0291302C080E0ED
:101B5000089530E0529FF001539FF00D1124E05E94
:101B6000FD4F8181681306C08081481303C08581C1
:101B70008111EECF2F5F3F4F2770E7CFA4E1B0E098
:101B8000E4ECFDE00C9468218C0186E0F801DE01B4
:101B90001F9601900D928A95E1F7F8018481E58006
:101BA00098E5A92E92E0B92E90915C0291111FC088
:101BB0008823D1F0EE20A9F0C8010E94820BF82EF4
:101BC000882379F087E0F801D50101900D928A957C
:101BD000E1F7C5010E9413080E94440D0E94330DD5
:101BE0005FC0C8010E942D0BFF24F39459C0C08030
:101BF000D18082809380F0905D0220915A023091D2
:101C00005B02A401421B530BFF2009F4F9C0483CBE
:101C1000510508F0A7C0882309F442C090915902E9
:101C200080915E02282F207F09F05CC09D1116C0B4
:101C300090915802C91212C0E1104EC08F7080619D
:101C400080935E020E94330D88E592E00E942D0B86
:101C500080915E02F8018683F12C22C0E1103CC025
:101C60006D2D8C2D0E949F0D6D2D8C2D0E949F0D32
:101C7000E82E8111F1CFCF86D88A8F8598890E946E
:101C8000E30C292F22952F70243078F49F70223096
:101C9000A8F09923B9F0F8019681907F99F4FE2C71
:101CA0008F2D6496ECE00C9484212A5F2F702230F3
:101CB00068F0C8010E942D0BEF2CF1CF992311F091
:101CC000882369F3805E883050F3F3CF803F38F388
:101CD000815F833070F7E3CF80915E0281608093F3
:101CE0005E02BACF9D1113C090915802C9120FC065
:101CF000E1100DC08683C8010E942D0B87E0F8011A
:101D0000A8E5B2E001900D928A95E1F767CFC8018E
:101D10000E94820B882309F464CFEE2009F461CF7E
:101D200080915E02803288F02091580230915902F1
:101D3000398728879B868A8690915C029C871D86BE
:101D40008E87CE0108960E942D0B87E0F801A8E54A
:101D5000B2E001900D928A95E1F70E94440D0E9435
:101D6000330D42CF90915E02292F207FA1F4682D80
:101D70009A8A898AA6017A899E2D0E948F0B88E50E
:101D800092E00E942D0B87E0F50111928A95E9F708
:101D90000E94330D61CF882309F482CF80915902CC
:101DA0008D1110C080915802C8120CC0E1100AC0F9
:101DB0009683C8010E942D0B87E0F50111928A9548
:101DC000E9F76ECFC8010E94820B882309F409CF7E
:101DD000EE2009F406CF80915E02803208F4B5CF80
:101DE00020915802309159023A8329839C828B8238
:101DF00090915C029D831E828F83CE010196A3CFBA
:101E0000483C5105B8F5882309F4EECEFE2CEE20AF
:101E100009F4E7CE809159028D111EC080915802BD
:101E2000C8121AC080915E0280FD0DC0982F907F6D
:101E300051F08683903F09F45ECF982F907F905F9A
:101E40008F70892B57CF87E0F801A8E5B2E00190A9
:101E50000D928A95E1F724CFC8010E94820B81116F
:101E600074CF80915E02816080935E02C8010E94FF
:101E70002D0B16CF682D9A8A898AA6017A899E2D04
:101E80000E948F0B87E0F50111928A95E9F7A6CEA3
:101E9000AEE0B0E0EEE4FFE00C94712128873987D2
:101EA0004A875B876C877D878E87CE0108960E9464
:101EB000BE0D8823B1F06C85662341F028853985F5
:101EC0004A855B857D858E850E94990B17E0809100
:101ED0001E0290911F0289133DC02E96E3E00C94E0
:101EE0008D2187E0FE013896DE01119601900D925A
:101EF0008A95E1F78C85882349F320911F0230E011
:101F0000C90101968770992740911E02481719064A
:101F100099F097E0929FD001939FB00D1124A05E9D
:101F2000BD4FFE01319601900D929A95E1F7809395
:101F30001F020E94110DCACF0E94620B10921F0255
:101F400010921E0287E0E8E5F2E0DF011D928A951B
:101F5000E9F7BCCF819FC0011124805E9D4F0E9494
:101F6000BE0D882309F4B9CFE0911E021E9FF00137
:101F70001124E05EFD4F20813181428153816481D3
:101F8000758186810E94990B80911E0290E00196D6
:101F90008770992780931E029ACF682F80910C0139
:101FA00090910D010E943C190895682F80910C01B9
:101FB00090910D010E944A19089580910C01909111
:101FC0000D010E945819089580917F02869586958B
:101FD0008695089580917F028770089590917F0281
:101FE000977081E009F480E008958091A30208953C
:101FF0009091A302892B8093A302089580959091DC
:10200000A30298239093A30208951092A302089527
:102010009091A202892B8093A202089580959091BD
:10202000A20298239093A20208951092A20208950A
:1020300008950E941810089590918002292F282356
:1020400031F080958923809380020E9419100895B1
:1020500008950E942810089590918102292F282325
:10206000281729F0982B909381020E942910089537
:1020700090918102292F282331F080958923809324
:1020800081020E942910089580918102882329F0FD
:102090001092810280E00E9429100895CF93DF936F
:1020A000E0910C01F0910D018091A3028083E091F9
:1020B0000C01F0910D0180819091A202892B808307
:1020C00090918102992381F0E0910C01F0910D0132
:1020D0008081892B808380910C0190910D010E9459
:1020E000A81881110E944410C0910C01D0910D01DB
:1020F00040E250E06FE572E0CE010E94F521892BAD
:1021000059F080E2FE01AFE5B2E001900D928A95B0
:10211000E1F7CE010E944418DF91CF910895089510
:102120000E948F10089590918D0492FF11C098E045
:10213000899F90011124622B60937F020E94EB0B18
:1021400080917F028695869586950E9490100895CD
:102150000E94EB0B089510927F0280E00E94901085
:10216000089590917F028095892380937F02282F84
:10217000277069F4891759F090918D0492FF07C078
:102180008695869586950E94FB0B0E94AB1008955C
:1021900090918D0492FB222720F9281769F080FB8B
:1021A00092F990938D0480918C0490918D040E94FB
:1021B000101182E00E94B110089580918D0482FB7D
:1021C000882780F991E089270E94C810089581E04E
:1021D0000E94C810089580E00E94C81008956FEF13
:1021E0007FEF90E080E00E945722089590E080E029
:1021F0000E94232221E0863E9E4F09F020E0822F9C
:10220000089582E090E00E941B22089583E090E010
:102210000E941B22089584E090E00E9423220895EA
:10222000BC0184E090E00E9457220895AB01BC01FC
:102230008FE090E00E944B220895AB01BC0183E146
:1022400090E00E944B22089560E070E0CB010E9474
:102250001D11089560E070E0CB010E9416110E94EC
:1022600024110895A8E0B0E0E8E3F1E10C947221B4
:1022700066EE7EEF90E080E00E94572260E082E010
:1022800090E00E94392260E083E090E00E943922D1
:1022900010921D0210921C0260E074E184E090E054
:1022A0000E94572260E086E090E00E9439226FEFA2
:1022B00087E090E00E94392240E050E0BA0188E0D7
:1022C00090E00E944B2260E084E290E00E9439227C
:1022D00060E087E190E00E94392260E08CE090E0CD
:1022E0000E94392260E08DE090E00E94392219823C
:1022F0001A821B821C821D821E821F82188648E061
:1023000050E068E170E0CE0101960E94292240E091
:1023100050E0BA0180E290E00E944B220E942A1114
:102320002896E2E00C948E210E9432110895682FC5
:102330008EE090E00E9439220895A6E0B0E0E3EA42
:10234000F1E10C9470210E940A1A8C018091A40280
:102350009091A5028017910781F019821A820E943C
:102360000A1A682F49815A81792F80E090E00E94F3
:10237000E3071093A5020093A4022696E4E00C94D0
:102380008C210E94161A6093C2027093C30280933C
:10239000C4029093C5026093BE027093BF02809303
:1023A000C0029093C1020895089508950E94D51126
:1023B000089508950E94D911089581E008958CEA46
:1023C00094E10E942A180E94D4110E94D611089507
:1023D0000E94DD1108950E94E8110895089508955E
:1023E0000E94EE110E94EF1108950E94CB140E94EA
:1023F000B70708950E94011A0E94AE150E94F511B8
:102400000E94DA110895A8E0B0E0E9E0F2E10C944E
:1024100062210E94DD11811108C00E949D110E945D
:10242000CA072896E2E10C947E210E94C41586EA30
:1024300092E098878F837C0110E0F70141905190E2
:10244000619071907F01812F0E94EB141F5F163005
:1024500009F467C0461657066806790671F380913D
:10246000C60281FD0E94F6140E94EB11282E10E096
:1024700033243394812F0E94EB146B017C01EF8194
:10248000F8854190519061907190F887EF83C41462
:10249000D504E604F704F1F146265D2468267F247E
:1024A00000E0812C912C54018394D301C201882136
:1024B0009921AA21BB21892B8A2B8B2BE9F0222081
:1024C000D9F009831A830E940A1A9C838B833D8268
:1024D00021E0D701C60188219921AA21BB21892B9E
:1024E0008A2B8B2B09F420E049815A816B817C81F6
:1024F0008D81922F0E94E3070F5F880C991CAA1C04
:10250000BB1C013191F6EF81F8853497C082D182EE
:10251000E282F3821F5F163009F0ACCF0E94C11136
:102520007ECF461657066806790609F098CF75CF14
:102530001F93CF93DF930E94C713EC01C11580E571
:10254000D807F0F5C11580E4D80708F09CC0C03E5C
:10255000D10520F5CD3CD10508F082C0C83AD1059F
:1025600078F4C53AD10508F073C0C130D10519F12E
:10257000209709F1C430D105F0F4D0E0C0E01BC0D1
:10258000C33CD105D0F7C85AD0E0CC0FDD1FC05BEB
:10259000DE4F0990D881C02DD4640DC0C11580E2F2
:1025A000D80708F0D1C0C11581E0D80708F05AC09B
:1025B000C83ED10510F7CE01DF91CF911F9108954C
:1025C000C03682E5D80718F5C03482E5D80708F090
:1025D0006BC0C03282E5D80708F05FC0C11582E544
:1025E000D80708F497C02C2F2695269580E2289FBF
:1025F000900111248C2F8370C1E0D0E002C0CC0F79
:10260000DD1F8A95E2F7C22BD32BDD68D4CFC03A09
:1026100082E5D80760F4C03882E5D80708F459C0CD
:10262000CF71D0E0DC2FCC27C46FD06AC4CFC03CC0
:1026300082E5D80708F462C0C03E82E5D80708F0FA
:102640009CCFDC2FCC27CC27DF71C06FD06AB3CFF3
:10265000C55AD0E0CA57DE4FC881D0E0D064ABCFB6
:10266000D065A9CF8D2F0E946914182FCE0199270C
:102670000E94C713C12FD0E0DC2FCC27CC27DF71FD
:10268000C82BD92B98CFCE0199270E94C713CC27EE
:10269000DF70C82BD92BD06A8ECFCF71D0E0DC2F62
:1026A000CC27C16FD06A87CF2C2F2695269527700F
:1026B00080E2289F900111248C2F8370C1E0D0E02C
:1026C00002C0CC0FDD1F8A95E2F7C22BD32BDC684A
:1026D00072CF2C2F26952695277080E2289F900197
:1026E00011248C2F8370C1E0D0E002C0CC0FDD1F1D
:1026F0008A95E2F7C22BD32BDA685DCF8C2F8F71CE
:102700000E946914C82FD0E0DC2FCC27CC27DF71C2
:10271000D06251CF8C2F8F710E94691455E0D695ED
:10272000C7955A95E1F7CF70D0E0DC2FCC27282F42
:1027300030E084FF05C044E0220F331F4A95E1F7E3
:10274000C22BD32BD06937CF8D2F8F710E94691484
:10275000182FCE0199270E94C713C12FD0E0DC2F7C
:10276000CC27CC27DF71C82BD92BD2CF462F763080
:1027700030F4613120F4672F0E94C906089590E07B
:1027800080E008950E94B6130E949812089582383E
:102790009105B9F1B0F48133910509F47DC048F495
:1027A0008932910509F46DC08A32910509F47BC024
:1027B00008958533910509F45FC08933910509F1C6
:1027C0000895833E9105D9F138F4803E910529F1B1
:1027D000823E910579F10895863E9105D9F1873EB3
:1027E000910509F43EC0843E910541F520918D0488
:1027F00021FF24C080918C0484FD19C087EE90E0F5
:10280000089520918C04237009F05AC020918D0402
:1028100023FF14C089E290E0089520918C0420FDEC
:1028200038C030918D0430FF09C024FF43C090E0D0
:1028300080E0089520918C0422FDF7CF0895209127
:102840008C0422FD3AC030918D0430FD39C024FF44
:10285000F5CFEDCF20918C0423FFF0CF24FDE7CFFF
:10286000CDCF20918C0423FD2EC030918D0431FFFB
:10287000EECF84EE90E0089520918C0425FFDECF0A
:10288000C9CF20918C0425FD21C020918D0423FF08
:10289000D5CF89E390E0D2CF20918C0426FFCECF14
:1028A0008AE290E0089520918C0426FFC7CF81E34F
:1028B00090E0089583EE90E0089582EE90E0089510
:1028C00080EE90E0089586EE90E0089585E390E034
:1028D000089590918C0492FF06C0282F287128300B
:1028E000F9F4877F846093FF06C0282F2871283170
:1028F000F1F4877E846120918D0420FF06C0382F7B
:1029000038713830D9F4877F816021FF06C0282FC5
:1029100028712831D1F4877E816194FD877E0895E6
:10292000282F24712430F9F68B7F8860DCCF282F84
:102930002471243101F78B7E8861DDCF382F31710E
:10294000313019F78E7F8860E0CF282F2171213137
:1029500021F78E7E8861E1CF80E008950E94EF101C
:1029600008950E94C4152FEF86E791E02150804022
:102970009040E1F700C000000E94C41580E00E9472
:10298000EB1460FF04C00E94AE140E94551A089513
:102990000E94B11408950E94F610811102C00E9495
:1029A00094110E9401118093C6020E940B11909312
:1029B0008D0480938C040E94C8140E94061190E03C
:1029C0000E94AF0B80911A0290911B020E94D00BC3
:1029D00008950895089594E0899FF0011124EA551F
:1029E000FB4F60817181828193810895089580EA0F
:1029F0008A95F1F7089500C008950E94F71408958C
:102A0000F894E82FE295EF70F0E031A1282F2F70B5
:102A100081E090E001C0880F2A95EAF7982F909501
:102A2000932391A392A1892B82A378940895CF93A5
:102A3000DF93C9E8D1E089918F3F11F00E94001522
:102A400081E0CA39D807B9F7CAE9D1E089918F3F47
:102A500011F00E94001581E0C03AD807B9F7DF9164
:102A6000CF910895B0E0A0E0E8E3F5E10C94632194
:102A7000B82E092F162F69017A01C62FD0E0C7574B
:102A8000DE4F28812F3F09F459C0F894E22FE295D8
:102A9000EF70F0E031A12F7081E090E001C0880F6D
:102AA0002A95EAF7932F982B91A392A180958923D9
:102AB00082A378940E94FB148AE991E0EB2DF02F19
:102AC000BF01685E7F4F00E02601370140945094BB
:102AD00060947094DC013D90CD0181909190A19023
:102AE000B1909F0124503109BFEF3B1661F1A32D36
:102AF000A295AF70B0E090964C9150E0A32DAF70CE
:102B000002C055954795AA95E2F740FD1CC08C2858
:102B10009D28AE28BF28D9018D929D92AD92BC927E
:102B2000139701E0E617F707A9F688818F3F11F0A8
:102B30000E940015602F812F0E94FD14CDB7DEB7D3
:102B4000E1E10C947F2184209520A620B720D901B3
:102B50008D929D92AD92BC921397E4CF0E9417156F
:102B600088E1E6EAF4E0DF01982F1D929A95E9F7F3
:102B7000EEE8F4E0DF011D928A95E9F786E00E9415
:102B800020160E94A50608958F929F92AF92BF9241
:102B9000FF920F931F93CF93DF93CDB7DEB7689764
:102BA0000FB6F894DEBF0FBECDBF8E010F5F1F4F73
:102BB00088E1F80111928A95E9F7F12C812C912C8A
:102BC00054018394A50194016F2DC8010E94321510
:102BD000F394880C991CAA1CBB1CF1E1FF12F2CFE4
:102BE00048E150E0B8018EE894E00E94F52121E030
:102BF000009709F420E0892B41F088E1F801AEE864
:102C0000B4E001900D928A95E1F746E066EA74E03F
:102C10008EE894E00E942116182F0E946E06812FE4
:102C200068960FB6F894DEBF0FBECDBFDF91CF918F
:102C30001F910F91FF90BF90AF909F908F9008953C
:102C40000895CF92DF92EF92FF920F931F93CF934D
:102C50006C017B01042F222349F081E08093C9029B
:102C60000E940A1A9093C8028093C702C091C902B9
:102C7000C1110AC0C0E08C2FCF911F910F91FF901E
:102C8000EF90DF90CF9008958091C7029091C80295
:102C90000E94221A059770F384E0089F8001112496
:102CA000A801B601C7010E94F521892B41F0A801B6
:102CB000B601C7010E9402221092C902DCCFC0E017
:102CC000FBCF0E94E81B0E94FA110E94F51B089599
:102CD0000E94FA1B0E9403120E94141C08950E9475
:102CE000A3190E94CE1B0E94DF110E9461160E9450
:102CF00068160E94F011FBCFCF93DF93EC01FB012C
:102D00008581882309F4D2C09E01305723323105D2
:102D100008F0B2C00E940B1190938D0480938C0434
:102D2000FE01E150F047E232F10520F4E455FD4D9B
:102D30000C945C2180918C04816080938C0493C0FE
:102D400080918D04886080938D048DC080918C0467
:102D50008260F3CF80918C048460EFCF80918C04EB
:102D60008860EBCF80918D048160EDCF80918D04E0
:102D70008260E9CF80918C048061DFCF80918C04E8
:102D80008062DBCF80918C048064D7CF0E94620B7D
:102D900080918C048068D1CF80918C048C60CDCFE1
:102DA00080918D048360CFCF80918C048E7FC5CFBE
:102DB00080918D04877FC7CF80918C048D7FBDCF9C
:102DC00080918C048B7FB9CF80918C04877FB5CFA5
:102DD00080918D048E7FB7CF80918D048D7FB3CF8E
:102DE00080918C048F7EA9CF80918C048F7DA5CF9C
:102DF00080918C048F7BA1CF0E94620B80918C0408
:102E00008F779BCF80918C04837F97CF80918D04A7
:102E10008C7F99CF80918C0482FB992790F921E0D7
:102E2000922790FB82F990FB83F987CF80918D04E4
:102E3000982F909591708E7F892B90FB81F983CF8D
:102E400090918C04892F8F7B96FF806476CF0E94AF
:102E5000620B90918C04892F97FB87F980586DCF76
:102E600081E00E94971180918C0490918D040E94C2
:102E700010110E94620B80E0DF91CF91089580E0F5
:102E8000F0CF90918C04892F8F7E94FF806155CF75
:102E900090918C04892F8E7F90FF81604ECF90910E
:102EA0008D04892F877F93FF88604DCF81E0E4CF29
:102EB000CF93DF93EB0186319C4711F50E94F50F0C
:102EC0009D81992399F08A7A91E009F490E090939A
:102ED000CA02811109C089E20E94CD0F0E944E10E2
:102EE00080E0DF91CF91089585E3F6CF8091CA020B
:102EF000811104C089E20E94D50FF0CF85E3FBCF9A
:102F000081E0EFCF0F931F93CF93DF93C42FD22F86
:102F1000FC0185818823C9F04093CD020E940A1AE2
:102F20009093CC028093CB0280E28C0F883040F4E7
:102F3000C77081E001C0880FCA95EAF70E9417099F
:102F4000DF91CF911F910F9108951091CD0214132D
:102F500032C08091CB029091CC020E94221A883C10
:102F6000910548F5C0E2CD0F1D17B9F080E2810F41
:102F7000883040F4177081E001C0880F1A95EAF795
:102F80000E941E09C83048F481E09D2F977001C04F
:102F9000880F9A95EAF70E941709802F0E940E0960
:102FA000C83070F6D77081E001C0880FDA95EAF773
:102FB0000E941E09C5CF80E28C0F883008F6C770CA
:102FC00081E001C0880FCA95EAF7F2CF0F93DB01C9
:102FD00088519C4787309105A0F5FC01E253FD4DD7
:102FE0000C945C2106E221EE41EE6AE17CE7CD0122
:102FF0000E94821780E00F91089507E225EE45EECA
:103000006BE17CE7F4CF06E221EE40EE68E17CE77D
:10301000EECF07E225EE44EE69E17CE7E8CF06E279
:1030200021EE42EE6CE17CE7E2CF07E225EE46EED0
:103030006DE17CE7DCCF08E221E045EE6EE17CE764
:10304000D6CF15968C91882319F01092CD02D3CF4C
:1030500081E0D1CF9093A1018093A0010895909336
:10306000D3028093D2020895E091D202F091D3026C
:10307000309729F00190F081E02D0995089580E0C6
:1030800008950E9434180895E091D202F091D3027D
:10309000309799F020911601222359F020918C0449
:1030A00027FF07C0DC012C9111962C93119726E085
:1030B0002C930280F381E02D09950895A3E0B0E000
:1030C000E4E6F8E10C9472212091D0023091D10213
:1030D00028173907A1F09093D1028093D002E09194
:1030E000D202F091D302309751F023E029839B83E1
:1030F0008A830680F781E02DCE01019609952396FB
:10310000E2E00C948E21A3E0B0E0E9E8F8E10C9451
:1031100072212091CE023091CF0228173907A1F0F9
:103120009093CF028093CE02E091D202F091D3022D
:10313000309751F024E029839B838A830680F781AE
:10314000E02DCE01019609952396E2E00C948E21A4
:10315000FC01329680911601882321F080918C0425
:103160009EE187FF96E080E0915008F40895219158
:103170002223D1F38F5FF8CF662301F1209116014E
:103180002223F1F020918C0427FF1AC0462F469588
:10319000469546954E3190F4677021E030E002C0CC
:1031A000220F331F6A95E2F7840F911DFC01828183
:1031B00090E02823392381E0232B69F480E00895EF
:1031C000FC01329608962191261721F0E817F9079D
:1031D000D1F7F4CF81E008959C01FC0132969FEF76
:1031E00080E04191461751F09F3F19F4411101C011
:1031F000982F8F5F8630A9F79F3F09F40895290F14
:10320000311D97FD3A95F90162830895FC013296CC
:1032100008962191261303C0DF0111971C92E8172D
:10322000F907B9F70895E62FE695E695E695EE31AC
:1032300068F4E80FF92FF11D677021E030E001C05C
:10324000220F6A95EAF78281822B82830895E62F06
:10325000E695E695E695EE3170F4E80FF92FF11D4D
:10326000677021E030E001C0220F6A95EAF72095EF
:10327000828128232283089520911601222339F088
:1032800020918C0427FF03C00E94131908950E9407
:10329000EC18089520911601222339F020918C0416
:1032A00027FF03C00E94271908950E940619089558
:1032B000FC01329680911601882351F080918C0494
:1032C00087FF06C08EE1DF011D928A95E9F7089518
:1032D00086E0F9CF08950E946A190895811106C009
:1032E00081E08093D4020E946B19089582E0F9CFA7
:1032F00083E08093D4020E946B1908950E946E1996
:10330000089581E08093D4020E946B1908950E9471
:103310008119089508950895CF930E948A190E94F3
:10332000C4150E948B19C0E08C2F0E94EB14672BF0
:10333000682B692B31F4CF5FC630B1F780E0CF91B5
:10334000089581E0FCCF85B7806885BF85B7806828
:1033500085BF08951F921FB61F9211248F939F93CC
:10336000AF93BF938091D502811113C08091BE04A9
:103370009091BF04A091C004B091C1044196A11DD9
:10338000B11D8093BE049093BF04A093C004B0937A
:10339000C104BF91AF919F918F911F901FBE1F904D
:1033A00018958091C604843031F10E949A071092DA
:1033B000D50288E190E020E40FB6F894A8958093B8
:1033C00060000FBE2093600083B7817F846083BF5D
:1033D00083B7816083BF7894889583B78E7F83BFDE
:1033E0000FB6F894A8958091600088618093600082
:1033F000109260000FBE08950E94620B0E949F070A
:10340000089582E084BD93E095BD9AEF97BD8093C7
:103410006E0008952FB7F8948091BE049091BF0478
:10342000A091C004B091C1042FBF08952FB7F894A4
:103430006091BE047091BF048091C0049091C1045A
:103440002FBF08959C014FB7F8948091BE049091CE
:10345000BF04A091C004B091C1044FBF821B930B65
:10346000089578941F921FB61F9211248F939F93F3
:10347000AF93BF938091BE049091BF04A091C0040C
:10348000B091C1040196A11DB11D8093BE0490931B
:10349000BF04A093C004B093C104BF91AF919F91AA
:1034A0008F911F901FBE1F90189581E08093E000C0
:1034B00080E28093D8001092C9008FE19EE40197CA
:1034C000F1F700C0000087E090EBDC018093CF04AF
:1034D0009093D004A093D104B093D20488E19CE0EF
:1034E0000FB6F894A895809360000FBE909360008B
:1034F000FFCF88E19CE00FB6F894A8958093600018
:103500000FBE90936000FFCF8091F602089508955A
:103510009B01BA019091C6049430E9F48F708093B6
:10352000E9009FEF8091E800915085FD06C085ED90
:103530008A95F1F700009111F5CF8091E80085FFA1
:103540000AC050E040E0C9010E948B1C8091E80055
:103550008E778093E800089543E050E0BC0182E05C
:103560000E94881A0895CF93DF93EC018091160191
:10357000811111C048E050E0BE0181E00E94881A2C
:1035800080E2FE01A6EDB2E001900D928A95E1F78E
:10359000DF91CF91089580918C0487FF05C040E2B0
:1035A00082E050E0BE01EACF48E081E0FACF8091AE
:1035B000C504811109C00E941B1E0E94781E8091C3
:1035C000E20084608093E20008951092C50408959B
:1035D0000E94811908956091C20481E0611101C0C7
:1035E00080E00E94781908959091C60481E094309B
:1035F00009F080E06091C2040E947E19089542E0C3
:1036000061EC81E00E94971D42E261EC82E00E9441
:10361000971D9091C60481E0943009F080E060919C
:10362000C2040E946E1908958091C804833009F481
:1036300061C030F48130D1F1823009F49EC0089528
:103640008A3009F48AC08B3009F46FC0893009F0E0
:1036500050C08091C704813209F04BC08091CB04E7
:103660009091CC04029708F044C08091E800877FD5
:103670008093E8008091E80082FF37C09091F300CA
:103680008091F200029731F48091F100813011F0C5
:10369000863021F48091F1008093F6028091E80059
:1036A0008B778093E8000E94CB1D23C08091C704D4
:1036B000813AF9F48091E800877F8093E800809157
:1036C000CB049091CC04892B61F460E286ED92E00A
:1036D00070E00E94DA1C8091E8008B778093E8000C
:1036E000089560E090E080E0F3CF8091C6048111FE
:1036F000C1CF08958091C704813AD9F78091CB0456
:103700009091CC04892BA9F78091E800877F809362
:10371000E8008091E80080FFFCCF80911601809343
:10372000F1008091E8008E77BCCF8091C704813290
:1037300001F78091CB049091CC04892BD1F6809134
:10374000E800877F8093E8000E94CB1D8091C90428
:10375000809316010E94620B08958091C704813204
:1037600041F68091E800877F8093E8000E94CB1D9E
:103770008091CA048093F70208958091C704813A2A
:1037800009F0B7CF8091E800877F8093E8008091AF
:10379000E80080FFFCCF8091F702C1CF84B7877F1C
:1037A00084BF0FB6F894A8958091600088618093DB
:1037B0006000109260000FBE80E890E00FB6F894B1
:1037C00080936100909361000FBE0E948719089555
:1037D0000E941B1E0E94781EE2EEF0E08081846051
:1037E000808378940E94F72008958EE091E00E94F3
:1037F0002F1808958091C604853031F48091C60455
:10380000853019F00E94FC1908950E94D119809109
:10381000C404882399F30E948C19882379F30E94A9
:10382000751C0E94620BEACF08959A014091CD0465
:103830005091CE040E941D1C0895492F55274330F6
:10384000510519F168F44130510509F444C0423082
:10385000510509F445C090E080E050E040E025C00B
:103860004132510549F142325105A9F780E490E017
:1038700042EC54E061157105C1F08DE690E045E53C
:1038800054E06130710589F0E6CF992781309105C8
:1038900081F0009729F00297F1F6ECEDF3E002C019
:1038A000E4E0F4E0849190E0AF01F90151834083BA
:1038B0000895ECEEF3E0F6CF89E090E04AE154E0C1
:1038C0006115710591F389E090E043E354E06130C4
:1038D000710559F3C0CF82E190E043E454E0E5CFB5
:1038E0008BE390E048E054E0E0CF80E189BD82E1E5
:1038F00089BD09B400FEFDCF8091D8008F7D8093F3
:10390000D8008091E00082608093E0008091E00028
:1039100081FDFCCF0895AF92BF92CF92DF92FF92CC
:103920000F931F93CF93DF936C01EB018A010E94E9
:10393000EA1DF82E811123C00115110539F0F80197
:1039400080819181C81BD90BC80ED91EB12CA12C26
:103950002097A9F08091E80085FD22C08091E800C1
:103960008E778093E80001151105A1F0F8018081A0
:103970009181A80EB91EB182A08285E0F82E8F2D0C
:10398000DF91CF911F910F91FF90DF90CF90BF906B
:10399000AF9008950E94EA1D8823D1F2F82EEFCF50
:1039A000F60181916F018093F1002197FFEFAF1A2B
:1039B000BF0ACECFFC018091CD049091CE04861732
:1039C0009707A0F06115710529F49091E8009E77A2
:1039D0009093E80090E06115710551F4911108C0D1
:1039E0008091E80082FF34C080E00895BC01F2CFEE
:1039F0008091C6048823C1F18530C1F18091E8002F
:103A000083FD30C08091E80082FDEACF8091E8001C
:103A100080FFE1CF8091F3002091F200382F6115F3
:103A2000710519F02830310558F091E02830310542
:103A300009F090E02091E8002E772093E800CBCFAA
:103A400081918093F100615071092F5F3F4FE7CF63
:103A50008091C604882341F0853041F08091E800D0
:103A600083FFBECF81E0089582E0089583E008954A
:103A7000FC018091CD049091CE0486179707A0F0A9
:103A80006115710529F48091E8008E778093E80034
:103A900090E06115710551F4911108C08091E80022
:103AA00082FF35C080E00895BC01F2CF8091C6044A
:103AB0008823C9F18530C9F18091E80083FD31C0C8
:103AC0008091E80082FDEACF8091E80080FFE1CF9D
:103AD0008091F3002091F200382F6115710519F0E3
:103AE0002830310558F091E02830310509F090E098
:103AF0008091E8008E778093E800CBCF849180930B
:103B0000F1003196615071092F5F3F4FE6CF8091F0
:103B1000C604882341F0853041F08091E80083FF9E
:103B2000BDCF81E0089582E0089583E00895982F45
:103B3000973028F08F708093E90081E0089590938A
:103B4000E900242F762F50E0981731F07091EC00A7
:103B50002091ED005091F00021FD02C09F5FE8CF61
:103B60003091EB003E7F3093EB003091ED003D7FD4
:103B70003093ED003091EB0031603093EB007093A7
:103B8000EC002093ED005093F0002091EE0027FD13
:103B9000E5CF80E008958091C70487FF13C080912E
:103BA000E80082FF06C08091E8008B778093E800F0
:103BB00004C08091C6048111F2CF08958091C6049B
:103BC0008823D9F38091E80080FFF8CF8091E80046
:103BD0008E77ECCF2091E4003091E50095E6A901C5
:103BE0002091EC00822F817020FF06C08091E800B8
:103BF00080FF06C080E008952091E80022FD1AC0F1
:103C00008091C604882389F0853089F08091EB008B
:103C100085FD0FC02091E4003091E5004217530765
:103C2000F9F29150E1F684E0089582E0089583E08E
:103C3000089581E008950E948A1E0E94921EE0EE7F
:103C4000F0E0808181608083E8EDF0E080818F7713
:103C5000808319BCA7EDB0E08C918E7F8C9380811E
:103C60008F7E80831092C50408950F931F93CF9386
:103C7000DF930E948A1E0E94921EC8EDD0E08881C8
:103C80008F77888388818068888388818F7D888307
:103C900019BC1092C6041092C2041092C40410926F
:103CA000C30400EE10E0F80180818B7F808388815F
:103CB0008160888342E060E080E00E94971DE1EE31
:103CC000F0E080818E7F8083E2EEF0E08081816091
:103CD0008083808188608083F80180818E7F8083EB
:103CE000888180618883DF91CF911F910F91089522
:103CF000E8EDF0E080818F7E8083E7EDF0E0808169
:103D00008160808384E082BF81E08093C5040E944B
:103D1000351E0895E8EDF0E080818E7F808310925B
:103D2000E20008951092DA001092E10008951F92C7
:103D30000F920FB60F9211242F933F934F935F93DF
:103D40006F937F938F939F93AF93BF93EF93FF9363
:103D50008091E10082FF0BC08091E20082FF07C0EA
:103D60008091E1008B7F8093E1000E94F62080919A
:103D7000DA0080FF19C08091D80080FF15C08091C3
:103D8000DA008E7F8093DA008091D90080FF96C0A0
:103D900080E189BD82E189BD09B400FEFDCF81E0EB
:103DA0008093C6040E94D71A8091E10080FF19C059
:103DB0008091E20080FF15C08091E2008E7F8093A9
:103DC000E2008091E20080618093E2008091D8005F
:103DD00080628093D80019BC85E08093C6040E945D
:103DE000EB1A8091E10084FF2BC08091E20084FFF8
:103DF00027C080E189BD82E189BD89B5982F917086
:103E000080FFFBCF8091D8008F7D8093D800809178
:103E1000E1008F7E8093E1008091E2008F7E8093AD
:103E2000E2008091E20081608093E2008091C20410
:103E3000882309F449C084E08093C6040E94F41AE0
:103E40008091E10083FF29C08091E20083FF25C0BB
:103E50008091E100877F8093E10082E08093C60437
:103E60001092C2048091E1008E7F8093E1008091E6
:103E7000E2008E7F8093E2008091E2008061809377
:103E8000E20042E060E080E00E94971D8091F00037
:103E900088608093F0000E94E81AFF91EF91BF9133
:103EA000AF919F918F917F916F915F914F913F91D2
:103EB0002F910F900FBE0F901F90189519BC109264
:103EC000C6040E94E51A70CF8091E30087FD93E05D
:103ED0009093C604B3CF1F920F920FB60F92112486
:103EE0002F933F934F935F936F937F938F939F9302
:103EF000AF93BF93CF93DF93EF93FF93D091E900FC
:103F0000DF708091EC00C82FC17080FDC0E8109276
:103F1000E9008091F000877F8093F00078940E9400
:103F2000AF1F1092E9008091F00088608093F0004C
:103F3000CD2BCF70C093E900FF91EF91DF91CF912E
:103F4000BF91AF919F918F917F916F915F914F91B1
:103F50003F912F910F900FBE0F901F901895AAE2DE
:103F6000B0E0E5EBFFE10C94712187EC94E0209147
:103F7000F100FC012193CF01F4E08F3C9F07B9F7DA
:103F80000E94141B8091E80083FF1EC18091C7042A
:103F90009091C8049A3008F017C1E92FF0E0EB5275
:103FA000FD4D0C945C21803899F0823809F00CC1E9
:103FB0008091CB048F70873008F006C18093E900B0
:103FC0008091EB0085FB882780F91092E90006C0FC
:103FD0008091C3049091C404911182609091E80093
:103FE000977F9093E8008093F1001092F100809108
:103FF000E8008E77E5C0882309F4D3C0823009F049
:10400000E3C08091C9048111D6C08091CB048F7028
:104010002FEF280F263008F0D7C08093E9002091B9
:10402000EB0020FFC8C0933031F48091EB00806238
:104030008093EB00C0C09091EB0090619093EB00F7
:1040400021E030E001C0220F8A95EAF72093EA00D0
:104050001092EA008091EB008860EACF8111B4C031
:104060001091C9041F778091E3008078812B8093A1
:10407000E3008091E800877F8093E8000E94CB1DD9
:104080008091E80080FFFCCF8091E30080688093FE
:10409000E30082E0111183E08093C60495C080584C
:1040A000823008F091C08091C9049091CA048C3D7F
:1040B00023E09207A1F583E08A838AE289834FB7E0
:1040C000F894DE01139620E03EE051E2E32FF0E0A9
:1040D00050935700E49120FF03C0E295EF703F5FDB
:1040E000EF708E2F90E0EA30C0F0C7968D939D93CD
:1040F0002F5F243159F74FBF8091E800877F80936D
:10410000E8006AE270E0CE0101960E94DA1C80911C
:10411000E8008B778093E80057C0C096E7CF6091A6
:10412000CB047091CC04AE014F5F5F4F0E94151C11
:10413000BC01892B09F448C09091E800977F9093C7
:10414000E80089819A810E94381DE1CF8038E1F52D
:104150008091E800877F8093E8008091C20480937B
:10416000F10045CF811130C09091C904923060F5C3
:104170008091E800877F8093E8009093C2040E94BA
:10418000CB1D8091C204882311F084E005C080918A
:10419000E30087FDFACF81E08093C6040E94FF1AF6
:1041A00013C08091C904813079F481E0933009F023
:1041B00080E08093C4041092E9008091E800877F3A
:1041C0008093E8000E94CB1D8091E80083FF0AC025
:1041D0008091E800877F8093E8008091EB00806207
:1041E0008093EB00AA96E3E00C948D210895CF9381
:1041F0008091C6048823A1F0C091E900CF7090910E
:10420000EC00892F817090FD80E8C82B1092E900A6
:104210008091E80083FD0E94AF1FCF70C093E9003A
:10422000CF910895AA1BBB1B51E107C0AA1FBB1F5A
:10423000A617B70710F0A61BB70B881F991F5A9532
:10424000A9F780959095BC01CD01089597FB072EA5
:1042500016F4009407D077FD09D00E94122107FCC4
:1042600005D03EF4909581959F4F08957095619586
:104270007F4F0895A1E21A2EAA1BBB1BFD010DC0A2
:10428000AA1FBB1FEE1FFF1FA217B307E407F50706
:1042900020F0A21BB30BE40BF50B661F771F881FE2
:1042A000991F1A9469F760957095809590959B0178
:1042B000AC01BD01CF010895EE0FFF1F0590F491F1
:1042C000E02D09942F923F924F925F926F927F92CE
:1042D0008F929F92AF92BF92CF92DF92EF92FF9216
:1042E0000F931F93CF93DF93CDB7DEB7CA1BDB0BC2
:1042F0000FB6F894DEBF0FBECDBF09942A88398867
:1043000048885F846E847D848C849B84AA84B9846D
:10431000C884DF80EE80FD800C811B81AA81B98179
:10432000CE0FD11D0FB6F894DEBF0FBECDBFED018D
:1043300008958F929F92AF92BF92CF92DF92EF92A9
:10434000FF92CF93DF93EC01688179818A819B8111
:10435000611571058105910521F464E279ED8BE524
:1043600097E02DE133EF41E050E00E945D224901EA
:104370005A019B01AC01A7EAB1E40E947C226B01C7
:104380007C01ACEEB4EFA50194010E948A22DC010D
:10439000CB018C0D9D1DAE1DBF1DB7FF03C0019746
:1043A000A109B04888839983AA83BB839F77DF9153
:1043B000CF91FF90EF90DF90CF90BF90AF909F9004
:1043C0008F9008950E949921089580E091E00E94C5
:1043D00099210895B0E0A0E080930001909301013D
:1043E000A0930201B09303010895FB01DC0104C016
:1043F0008D910190801921F441505040C8F7881BDD
:10440000990B0895FB01DC0102C001900D9241500F
:104410005040D8F70895DC01CB01FC01F999FECF9B
:1044200006C0F2BDE1BDF89A319600B40D9241503C
:104430005040B8F70895F999FECF92BD81BDF89A22
:10444000992780B50895A8E1B0E042E050E00C94CF
:104450000D22DC01A40FB51F4150504048F0CB01A4
:10446000840F951F2E910E943A2241505040D0F760
:104470000895262FF999FECF92BD81BDF89A019734
:1044800000B4021639F01FBA20BD0FB6F894FA9A9C
:10449000F99A0FBE08950396272F0E943A220E9490
:1044A0003922252F0E943A22242F0C943A22019679
:1044B000272F0E943A220C943922052E97FB1EF4D6
:1044C00000940E94742257FD07D00E943A2107FCF5
:1044D00003D04EF40C94742250954095309521955C
:1044E0003F4F4F4F5F4F0895909580957095619520
:1044F0007F4F8F4F9F4F08950E948F22A59F900D51
:10450000B49F900DA49F800D911D11240895B7FFB5
:104510000C947C220E947C22821B930B0895A29F04
:10452000B001B39FC001A39F700D811D1124911D87
:10453000B29F700D811D1124911D0895F894FFCF35
:1045400064096409B409B409190A93099309930920
:10455000350AA60AB50AB50AD4164817DC16A616F7
:10456000AA16E016AE16E416F016BA164117BE16D5
:10457000F416C216F8162017C616FC162717CC1606
:1045800002170A17B216E816B616EC16D01606175A
:10459000161730173F17A016D8164F17031809180B
:1045A000F217FD170F1815181B18D31FFB1FE42057
:0E45B000FB1FE4202E204F20E420A620B22086
:1045BE0001000000FF0000FF010000FF8202841ACC
:1045CE00B31A871AAC1A01E200E900EA00B500B688
:1045DE0000B700CD008301CC008A01920194012125
:1045EE0002230224022502260227022A02B300B465
:1045FE00006F0070009F01CB019F02A00281828399
:10460E00E200E900EA00B500B600B700CD00830174
:10461E00CC008A0192019401210223022402250278
:10462E00260227022A02B300B4006F0070009F0119
:10463E00CB019F02A002818283F595313233939292
:10464E0067663635349796943730F1F0C6F4F6F740
:00000001FF
