:100000000C947A030C94B2030C94B2030C94B203D4
:100010000C94B2030C94B2030C94B2030C94B2038C
:100020000C94B2030C94B2030C94A5250C9479267D
:100030000C947A200C94B2030C94B2030C94B20387
:100040000C94B2030C94B2030C94B2030C94B2035C
:100050000C94B2030C941D210C94B2030C94B203C3
:100060000C94B2030C94B2030C94B2030C94B2033C
:100070000C94B2030C94B2030C94B2030C94B2032C
:100080000C94B2030C94B2030C94B2030C94B2031C
:100090000C94B2030C94B2030C94B2030C94B2030C
:1000A0000C94B2030C94B2030C94B2030102E23636
:1000B0000103E275000102E2600103E27500010242
:1000C000E2630103E263000102E2600103E2610016
:1000D0000102E2360103E261000102E2360103E2BD
:1000E00065000102E2600103E265000102E26501D0
:1000F00003E265003C2D003D3E002D3E00E900007E
:1001000000C9000000E8000000C8000000EA00008C
:1001100000CA000000EB000000CB000000E200007D
:1001200000C2000000E0000000C0000000E7000086
:1001300000C7000000EE000000CE000000AC200070
:10014000003F0E0000A9000000AE000000C903003F
:1001500000A9030000F4000000D4000000F9000032
:1001600000D90000005301000052010000C003004C
:1001700000B0000000F1000000D1000000B5000058
:1001800000C30300006422000065220000AB0000F1
:1001900000BB00000060220000482200001E220078
:1001A0000029003A003B003C003D003E003F00407B
:1001B0000041004200430044004500AE00460047B5
:1001C00000480035001E001F0020002100220023EF
:1001D0000024002500260027002D002E002A0049BB
:1001E000004A004B002B0014001A000800150017ED
:1001F000001C0018000C00120013002F0030004CEF
:10020000004C004D004E0029610400160007000953
:10021000000A000B000D000E000F00330034003107
:1002200000286F000000000000E10000001D001B1E
:1002300000060019000500110010003600370038D4
:1002400000E100E100000052000000E2000000E3D5
:10025000000000000000002C42000000000000E64A
:100260000000000000BD5D500051004F0029003A21
:10027000003B003C003D003E003F0040004100428A
:1002800000430044004500AE0046004700480035EA
:10029000001E001F00200021002200230024002552
:1002A00000260027002D002E002A0049004A004B9E
:1002B000002B0014001A000800150017001C00187D
:1002C000000C00120013002F0030004C004C004DB9
:1002D000004E00296104001600070009000A000B07
:1002E000000D000E000F0033003400310028000024
:1002F0000000000000E10000001D001B00060019C6
:1003000000050011001000360037003800E100E160
:100310000000005200000002510000E20000000056
:100320000000002C00000000000000E700000000BA
:1003300000BE5D500051004F0001000100010001AE
:1003400000010001000100010001000100010001A5
:10035000000100010001000100C35C010001000177
:100360000001000100010001000100010001000185
:1003700000010001000100010001000100E05C013A
:10038000000100008002800480010018800E8016A9
:10039000800100010001004C00005C01000100012F
:1003A000000A8001002A00010001005000510052A3
:1003B000004F0001000100010001000000000000EA
:1003C0000001000000010001000C8001000100019B
:1003D0000001000100B25DB45DE100E50000000134
:1003E000000000010000000100000000000000010A
:1003F000000000000000000100000000000100AC4F
:10040000000100AB00000101010101010101010235
:1004100002020202020202020303030303030303B4
:10042000040404040404040505050505060606067F
:1004300006070707070708080808090909090A0A3B
:100440000A0B0B0B0C0C0C0D0D0D0E0E0E0F0F0FDF
:10045000101011111112121313141415151616176A
:1004600017181819191A1A1B1B1C1D1D1E1E1F20D8
:1004700020212222232424252626272829292A2B25
:100480002C2D2D2E2F30313232333435363738394A
:100490003A3B3C3D3E3F4041424344454647484944
:1004A0004A4C4D4E4F50515354555658595A5B5D16
:1004B0005E5F616264656668696B6C6D6F707273B4
:1004C0007577787A7B7D7E8082838587888A8C8E1B
:1004D0008F91939596989A9C9EA0A2A3A5A7A9AB4D
:1004E000ADAFB1B3B5B7BABCBEC0C2C4C6C9CBCD3F
:1004F000CFD1D4D6D8DBDDDFE2E4E7E9EBEEF0F3F1
:10050000F5F8FAFDFF00000000000000002A2B288B
:1005100000000000000000000000000000000000DB
:1005200029000000002C1E342021222434262725F7
:100530002E362D3738271E1F20212223242526332F
:1005400033362E37381F0405060708090A0B0C0D31
:100550000E0F101112131415161718191A1B1C1D43
:100560002F3130232D350405060708090A0B0C0D21
:100570000E0F101112131415161718191A1B1C1D23
:100580002F3130354C00000000000000000000005A
:10059000000000000000000000000000000000005B
:1005A0000000000000000000007E0F00D4FFFFFFED
:1005B000C7000000781A0349006E00660069006EEB
:1005C00000690074007900380037002E0035000003
:1005D0000022034D006500630068006C006F007628
:1005E0000069006E002E00530074007500640069FD
:1005F000006F0000000403090409023B000201002F
:10060000A0FA090400000103010100092111010001
:1006100001224000070581030800010904010001CF
:1006200003000000092111010001226D000705826D
:100630000320000112010002000000084C4D750863
:1006400001000102000105010980A10185031901D2
:100650002AB700150126B700950175108100C00565
:100660000C0901A101850419012AA002150126A087
:1006700002950175108100C005010906A1018506DA
:10068000050719E029E71500250195087501810284
:100690000507190029EF1500250195F07501810264
:1006A0000508190129059505750191029501750344
:1006B0009101C005010906A101050719E029E71507
:1006C00000250195087501810295017508810105D4
:1006D00007190029FF150026FF00950675088100FF
:1006E0000508190129059505750191029501750304
:1006F0009101C00011241FBECFEFDAE0DEBFCDBFF5
:1007000004B603FE18C08091A0049091A104A091AA
:10071000A204B091A3048730904BA740B04B59F48A
:100720001092A0041092A1041092A2041092A304AB
:10073000E0E0F8E3099512E0A0E0B1E0EEE8F4E5CE
:1007400002C005900D92A63AB107D9F724E0A6EAB7
:10075000B2E001C01D92A03AB207E1F70E94321543
:100760000C940F2A0C940000CF93DF93769A28986C
:1007700089982D9A2F9A889AA4E3B2E04AE352E02E
:10078000C1E0D0E08D91E82FE295EF70F0E061A13B
:100790008F709E0101C0220F8A95EAF7922F9095E3
:1007A000962391A382A1822B82A34A175B0751F75C
:1007B000259A279A809A209A819A6E9ADF91CF91F2
:1007C0000895A6E0B0E0E7EEF3E00C944E288C012B
:1007D00030E020E080E0180148E1240E311C2B833A
:1007E000EFEFE20FE03128F4F0E0EF5EF54D0C940E
:1007F00048282D982F98889803C02D982F98889A6C
:10080000289A50EA5A95F1F7C12CD12C7601C3945D
:10081000022E04C0CC0CDD1CEE1CFF1C0A94D2F787
:100820004601570180949094A094B094F801A4E3F9
:10083000B2E0BA83A98390E04191519161917191A5
:10084000A981BA817D90BA83A983A72DA295AF70A3
:10085000B0E090966C90A62DB0E0BE83AD83A72D3E
:10086000AF706D807E8002C075946794AA95E2F7A0
:100870007E826D82DF0114972A0160FC47C03B0134
:100880004C285D286E287F284D925D926D927C9257
:1008900013974D905D906D907C90441555056605BD
:1008A000770509F091E0E215F30531F6EB81E150AF
:1008B000E03190F5F0E0EF5DF54D0C9448282D986F
:1008C0002F9A99CF2D982F9A9ACF2D9A93CF2D9A10
:1008D00095CF2D9AF5CF2D9AF6CF2D982F988898F1
:1008E00003C02D982F98889A899A8BCF2D982F9A8C
:1008F000F6CF2D982F9AF7CF2D9AF0CF2D9AF2CFD1
:100900002D9AF8CF2D9AF3CF76987BCF3B014820D4
:1009100059206A207B20B8CF2D9A2F9A889A03C03D
:100920002D9A2F9A88982898892B2F5F3F4F213135
:10093000310509F054CF2696E2E10C946A282D9AED
:100940002F98ECCF2D9A2F98EDCF2D98E6CF2D989C
:10095000E8CF2D98F5CF2D98F6CF2D9A2F9A889A1B
:1009600003C02D9A2F9A88988998DECF2D9A2F98B8
:10097000F6CF2D9A2F98F7CF2D98F0CF2D98F2CF54
:100980002D98F8CF2D98F3CF769ACECF80E00E94A5
:1009900075190895FB01873B2DE5920709F4A2C064
:1009A000E8F4833B2DE5920709F48DC048F4813EBD
:1009B0009105E1F1823B9D4509F474C081E0089501
:1009C0002281853B3DE5930709F485C008F474C096
:1009D00060E082EE90E0222389F36BC08B3B2DE533
:1009E000920709F49DC070F42281893B3DE593078D
:1009F00009F487C008F47EC060E085EB90E0222314
:100A0000E9F257C08D3B2DE59207F1F108F480C063
:100A10008E3B9D4599F68281882381F280E00E9479
:100A2000751981E00E941D0B80E039C08281882306
:100A300051F082E00E941D080E94DA209093A902E2
:100A40008093A802BBCF8091A8029091A9020E9436
:100A5000F2208536910520F082E00E942408AECF76
:100A600081EE0E948E0781EE0E94D20782E00E94F2
:100A7000240882E00E940D0B63E082E00E94BA0F1E
:100A800081E00E94D80F9ACF8281882309F496CF03
:100A900084E00E94751980E00E941D0B81E00E9495
:100AA0000D0B8CCF8281882309F488CF60E08AEF18
:100AB00090E00E94C61C82CF60E087EF90E0222386
:100AC00009F47CCFF6CF8281882309F477CF60E0E8
:100AD00084EF90E0EECF60E08BEE90E0222309F40B
:100AE0006DCFE7CF8281882309F468CF60E089ED7C
:100AF00090E0DFCF60E080ED90E0222309F45ECF4C
:100B0000D8CF60E087EC90E0222309F457CFD1CF13
:100B10008281882309F452CF60E08EEB90E0C9CF48
:100B20008281882309F44ACF60E08CEA90E0C1CF4B
:100B30009C013A9521153F4150F5FC01EE27F170DB
:100B4000BC0166277270AC01442754709C012227B7
:100B5000387094FF0EC080E1EF2B09F480E0672B22
:100B600009F08062452B09F08064232B89F08068AE
:100B7000089581E0EF2B09F480E0672B09F0826093
:100B8000452B09F08460232B19F08860089580E0DC
:100B90000895CF93DF93EB010E949805FE0109951C
:100BA000DF91CF910895CF93DF93EC01805E91099F
:100BB000089720F06AE57AE0209711F46DE178E07B
:100BC000CE010E94C9058C2F0E948E07DF91CF9124
:100BD0000895CF93DF93EC010E94D207CE01805E8F
:100BE0009109089720F061E67AE0209711F464E219
:100BF00078E0CE010E94C905DF91CF9108950F934F
:100C00001F93CF93DF938C01EB010E94D3052097B4
:100C100041F4C8010E94E905DF91CF911F910F9126
:100C200008958FE99FE00197F1F700C00000219738
:100C3000EECF70E060E08933910511F460E570E07B
:100C40000E94FF05089581E008950E94CA04089556
:100C500008950E9428060895A5E0B0E0E2E3F6E0DA
:100C60000C945D2849835A833091AF0289819A811F
:100C7000311119C0662399F0222389F00E94D30B09
:100C8000182F682F89819A810E94AF0B69817A8120
:100C9000812F0E94AD122596E3E00C9479280E94E2
:100CA000C10B182FF3CF0E94D30B69817A81F1CF4A
:100CB000FC01262F408151816281738184810E94D1
:100CC0002C06089581E00895CF93DF93EC0160E056
:100CD0000E945806BE010E942906DF91CF91089517
:100CE0000E94F01308950E94F413089508950E943D
:100CF0007A0A0E9476062FEF84E39CE02150804020
:100D00009040E1F700C0000008950E9477060E941D
:100D1000412108950E9477060E94652108950F934E
:100D20001F93CF93DF938C0161E00E945806EC0182
:100D3000B8010E94741EB801CE010E9425068111DF
:100D400006C080E0DF91CF911F910F910895B80107
:100D5000CE010E94951E8823A1F3B801CE010E9406
:100D6000A41A882371F3B801CE010E94BC1D882308
:100D700041F3B801CE010E94F01A882311F3B801A3
:100D8000CE010E942E1D8823E1F2B801CE010E94FF
:100D900050188823B1F2F8018281882361F0CB35A5
:100DA000FDE5DF0701F158F4C115ECE5DE0791F030
:100DB000CF3DDC4591F0C8010E942306C3CFCD355D
:100DC0008DE5D80769F090F0C83ADD45A1F70E949B
:100DD0008A06B7CF0E948506B4CF0E94CB10F7CF0A
:100DE0000E940910E8CF0E941310E5CF0E9417104F
:100DF000E2CF0E9454200E94BA160E94310781E07F
:100E00000E94381708950E94350780E00E94381725
:100E10000E945920089508950E940B07089581E0CB
:100E20000895CF93C82F0E940F07882331F0C1FF88
:100E300006C05E9AC2FF05C02C9ACF9108955E98B5
:100E4000F9CF2C98FACF569A5E98249A2C98089548
:100E5000CF93C82F0E940C078C2F0E941107CF91AF
:100E6000089580E00E94280708950E941A1F0E949A
:100E700028070895CF930E941A1FC82F8091AA02B5
:100E80008C1779F0C093AA020E94E6206093AB020F
:100E90007093AC028093AD029093AE028C2F0E94AF
:100EA0002807CF910895ABE0B0E0E9E5F7E00C94B6
:100EB0005E284F83588769877A878B8761110E94E4
:100EC000540F1E821D8285E0FE013796DE011196C9
:100ED00001900D928A95E1F78C819D81892B61F4B7
:100EE00049815A816B817C818D819E810E94770E20
:100EF0002B96E2E00C947A2889819A8189238F3F8E
:100F000079F3CE0101960E9462068111E9CFF0CFFC
:100F1000FC01808191810E94050C0895CF93C82F18
:100F20008823B9F08CEF8C0F813AA8F46C2F809154
:100F30001C0290911D020E94841F882329F08C2F8F
:100F40000E940E0F0E94750F8C2F0E94060F0E94A8
:100F5000750FCF91089580E28C0F883048F4C770E8
:100F600081E001C0880FCA95EAF70E94310FEFCFE8
:100F7000EBE5EC0FE33040F4F0E0E859FD4F808101
:100F800090E00E94441FE5CFC85AC73110F7EC2FFC
:100F9000F0E0EE0FFF1FE65CFD4F808191810E9423
:100FA0005A1FD7CF882339F19CEF980F913A28F434
:100FB0000E940E0F0E94750F089590E2980F9830CE
:100FC00050F4877091E001C0990F8A95EAF7892F54
:100FD0000E94370FEFCF9BE5980F933028F490E0F5
:100FE00080E00E94441F0895885A873120F490E0E1
:100FF00080E00E945A1F08951F93CF93DF93182F0C
:10100000EB010E948E07209739F4812F0E94D207AE
:10101000DF91CF911F9108958FE99FE00197F1F73C
:1010200000C000002197EFCF70E060E0893311F439
:1010300060E570E00E94FC070895882321F00E947B
:10104000310F0E94750F0895882321F00E94370FF9
:101050000E94750F0895B0E0A0E0E1E3F8E00C9481
:1010600057286C01D62FC72FFC011281F580F2940E
:101070009FE0F9220E94270FE82E8823B9F0E12E85
:101080001123A1F08C2F807F803421F080E28D0F1E
:101090008830D0F08091CB0382FF16C082E00E949E
:1010A000D80F0E94270F91E0E82EE926BC2EB294BB
:1010B0008FE0B822FBE0FB1508F468C0EB2DF0E0F0
:1010C000EF5CF54D0C944828E12CF0CF0C2F0F70FD
:1010D000C07F11F00295007F112399F0002359F091
:1010E00080E28D0F883010F0D11107C0802F0E9450
:1010F000310F0E94750F8D2F41C0802F0E94470F26
:10110000F8CF8D2F0E94D207002309F43FC080E260
:101110008D0F883010F0D11104C0802F0E94370F3E
:1011200003C0802F0E944D0F0E94750F2FC00C2FFF
:101130000F70C07FC03211F00295007FDD2381F077
:10114000D13009F463C0112309F46DC0FF2009F404
:1011500063C0F601858180FFCECF8F7085835CC030
:101160008091CB0382FD33C0112359F0002329F075
:10117000802F0E94310F0E94750F80E00E948E0721
:1011800005C080E00E94D2070111C7CFEB2DE850C7
:10119000FF0B349720F40E941A1F0E942807EE20AC
:1011A00089F00E94230F80FD0DC0F60112820E947B
:1011B0001D0F0E940D0BC6010E94300A0E941D0FD8
:1011C0000E941D0BCDB7DEB7E9E00C947328112304
:1011D00089F0F11006C00E94570F802B0E941D0855
:1011E000D5CF21E0F212F7CF0E94570F802B0E943B
:1011F0005E0FCCCFF11006C00E946B0F802F0E94B3
:101200002408C4CF31E0F31609F2F6CF112331F0F0
:1012100085E08F1508F4BACF802FE0CF94E09F15BA
:1012200008F4B4CFEBCFFF2049F3D93349F4FFEFF3
:1012300027EE33E0F15020403040E1F700C00000DD
:101240008D2F0E94D207A2CF8C2F86958695837012
:1012500069F0813009F09ACF8D2F9C2F9370111176
:1012600002C090E080E00E945A1F90CF8D2F9C2FEB
:101270009370111102C090E080E00E94441F86CF5D
:101280008C2F8370A1F5111181CF4D2F429546957A
:101290004770440F440F2D2F2F7030E0042E02C0F2
:1012A000220F331F0A94E2F790E080E0D4FF09C0D8
:1012B0008FE090E002C0880F991F4A95E2F7809571
:1012C0009095C695C695C370822B932BC23049F07A
:1012D00058F4C13019F00E94DB0A58CF0E94D20A9C
:1012E00055CF0E94E40A52CF0E94CF0A4FCF869575
:1012F000112311F08C2F8170882309F447CF4D2FD3
:10130000429546954770440F440F2D2F2F7030E0C3
:10131000042E02C0220F331F0A94E2F790E080E00F
:10132000D4FF09C08FE090E002C0880F991F4A9552
:10133000E2F780959095C695C695C370822B932B46
:10134000C23049F058F4C13019F00E94480B1ECF4A
:101350000E943F0B1BCF0E94510B18CF0E94F30A33
:1013600015CFCF70112329F08C2F0E940D0B8D2FDC
:1013700035CF8D2F0E9424088C2F0E941D0B06CF85
:10138000D23F51F160F4D03FB9F0D13F81F0112349
:1013900009F449C0F110AFCE8C2F8F7121C0D33F1B
:1013A00011F1D43FA1F78091CB0382FD26C08C2F91
:1013B0008F71112311F314C0112349F084E08F15AC
:1013C00008F4E4CE8C2F8F710E942F0BDFCE95E0B6
:1013D0009F1508F4DBCEF6CF8C2F8F711111CDCF76
:1013E0000E940D0BD3CE112329F08C2F8F710E94F8
:1013F000010BCCCE0E94FC0AC9CE112349F0CF715B
:101400008C2F0E940D0B63E08C2F0E94BA0FBECE72
:1014100081E00E94D80FE1E0EF1508F0B7CE82E03E
:101420000E94D80FB3CEF11000CF8C2F8F71A5CFB3
:101430000F931F93CF93DF93EC01688179818A81A9
:101440000E94100C8C010E945A0B0E94CE0AB80117
:10145000CE010E942B08DF91CF911F910F9108952B
:10146000CF93DF93EC018B819C81892B29F08881BC
:10147000998189238F3F51F4DF91CF910895CE0157
:101480000E94180ACE010E946406F6CFCE010E9487
:101490008F068111F4CF0E94270F882369F38A8178
:1014A000882351F38091CB0382FFE6CF82E00E9434
:1014B000D80FE2CF882321F00E94470F0E94750FBA
:1014C0000895882321F00E944D0F0E94750F089502
:1014D00090E080E00E94441F90E080E00E945A1F4C
:1014E0000E94540F0E94750F08950E94160F0E94CB
:1014F000680A08950E94410F0E94750A0895929506
:101500009F70963091F058F4925F9F70923058F42B
:10151000803F19F030F4883E30F481E008959A5FFE
:10152000F4CF843FD1F380E00895883EB0F3813F4B
:10153000D1F7F3CFFC0183819481892B29F080813D
:10154000918189238F3F11F480E0089580819181FA
:101550000E94050C0E947F0A0895A5E0B0E0E3EB2D
:10156000FAE00C945E282596E2E00C947A28A6E036
:10157000B0E0EDEBFAE00C945E282696E2E00C94E5
:101580007A2808950E94C10A08950E94C20A909381
:10159000E7028093E6020E94680A089508950E9477
:1015A000C50A08952091E6023091E702822B932B21
:1015B0000E94C50A08952091E6023091E702822335
:1015C00093230E94C50A08952091E6023091E70214
:1015D000822793270E94C50A08950E94C10A089590
:1015E0000E94ED0A08950E94F00A9093E50280930C
:1015F000E4020E94680A089590E080E00E94F30AE5
:10160000089521E030E0A90102C0440F551F8A95DA
:10161000E2F7CA010E94F30A089521E030E002C017
:10162000220F331F8A95E2F78091E4029091E50240
:10163000822B932B0E94F30A089521E030E002C030
:10164000220F331F8A95E2F7209530958091E402AE
:101650009091E502822393230E94F30A089521E0EA
:1016600030E002C0220F331F8A95E2F78091E40236
:101670009091E502822793270E94F30A0895209112
:10168000E4023091E502822B932B0E94F30A089525
:101690002091E4023091E502822393230E94F30A11
:1016A00008952091E4023091E502822793270E9459
:1016B000F30A08950895262F277091E001C0990F2D
:1016C0002A95EAF723E0769567952A95E1F7660F64
:1016D000771F660F771FFA01E60FF71F50E040E013
:1016E000682F70E08191DF0111979B01042E02C0E9
:1016F000369527950A94E2F721702195282729230A
:1017000028272C934F5F5F4F4430510559F70895B8
:10171000A82FA77023E0969587952A95E1F7880F63
:10172000991F880F991FFB01E80FF91F50E040E057
:1017300080E0219130E00A2E02C0369527950A9468
:10174000E2F721703327042E01C0220F0A94EAF732
:10175000822B4F5F5F4F4430510559F70895262F74
:10176000963070F4813160F4682F70E081E1989FC9
:10177000600D711D112440EB52E0822F0E945B0B23
:101780000895292F963068F4813158F490E060EB89
:1017900072E031E1239F800D911D11240E94880B7E
:1017A000089580E00895B0E0A0E0E9EDFBE00C943E
:1017B00057287C010091E4021091E5028091E60235
:1017C0009091E702082B192BCFE0D0E0CC24C394F2
:1017D000D12CBC2EC6010C2E02C0880F991F0A9472
:1017E000E2F780239123892B49F4219790F7B12CBC
:1017F0008B2DCDB7DEB7E9E00C947328B7018C2FA1
:101800000E94C812019789F3F3CFCF93DF93EC01C5
:101810000E94D30BBE010E94C812DF91CF910895A0
:101820001F93CF93DF93EB019091AF02992339F08F
:10183000CB010E94050CDF91CF911F910895882361
:1018400069F0CB010E94D30B182F682FCE010E94A4
:10185000AF0BBE01812F0E94C812EDCFCB010E94B9
:10186000C10B182FF6CF1F93CF93DF93C091E802DF
:1018700016E08091E9028C1304C0DF91CF911F9193
:101880000895D0E01C9FF0011D9FF00D1124E6513A
:10189000FD4F4081518162817381848195810E94D5
:1018A000B70A2196C770E5CF40911A0350911B03E8
:1018B00060911C0370911D0380911E0390911F0382
:1018C0000E94B70A08952091E8029091E90256E03B
:1018D000291302C080E0089530E0529FF001539F29
:1018E000F00D1124E651FD4F7181761306C0708111
:1018F000781303C07281741304C02F5F3F4F2770A9
:10190000E7CF81E008951F93CF93DF9380911F036A
:10191000807F09F049C080911C03882309F444C0EA
:101920008091E802C091E90260911A0370911B0353
:10193000A0911D03B0911E03D62FD72316E0C81720
:1019400099F190E0109711F0DF3F19F4019687703C
:10195000F6CF189F9001199F300D1124F901E6511F
:10196000FD4F41814713F2CF40814613EFCF4281B3
:101970004111ECCF438154814A1B5B0B483C51051C
:1019800028F780911F038F70806180931F03F901F6
:10199000E151FD4F80818F70806180838AE193E007
:1019A0000E94300A0E94330CDF91CF911F9108955D
:1019B000A1E1B0E0EEEDFCE00C9454288C0185E050
:1019C000F801DE011D9601900D928A95E1F7D8018C
:1019D0001296EC9012978AE1A82E83E0B82E4091DF
:1019E0001D0350911E034115510509F461C19091E9
:1019F0001A0320911B03892F82238F3F09F458C1BA
:101A0000CC901196DC90119713968D909C90149722
:101A1000F0901C03F401E41BF50BFF2009F4F6C061
:101A200080911F03382F307FE83CF10508F0B0C0EB
:101A300031117BC0FE2CD21217C09C1115C0E110D1
:101A400013C08F70806180931F030E94540CC501E6
:101A50000E94300A80911F03D80115968C938F2D18
:101A60006196ECE00C9470288114910429F08D2D7E
:101A70008C218F3F09F038C180E080FF15C04E2DCA
:101A80006D2D8C2D0E94630C882371F08AE193E008
:101A90000E94300A86E0EAE1F3E0DF011D928A95B8
:101AA000E9F70E94540C3FC08114910429F08D2D58
:101AB0008C218F3F09F015C180E0B82FB170AB2E9B
:101AC00080FF29C04E2D6D2D8C2D0E94630CB82EE9
:101AD000811121C0CD86DE868D859E850E94050CF4
:101AE000292F22952F70223050F0243078F49F70E7
:101AF00051F0F8019581907F31F4FB2CB0CF9F70AD
:101B000011F08823D1F3805E8830B8F3C8010E94B9
:101B1000300ABA2CF2CFEE2009F4A1CF80911F0336
:101B2000816080931F03F12C9ACFD21205C09C11C3
:101B300003C0EE2009F487C0C8010E949A0A8823D6
:101B400019F1EE2009F180911F03803270F020918D
:101B50001A0330911B0338872F8319869B868A8648
:101B60008C87CE0107960E94300A86E0F801AAE130
:101B7000B3E001900D928A95E1F70E94830C0E94D8
:101B8000540CFF24F3946BCFC8010E94300AF9CFA4
:101B9000311112C0782D998A888AA6016E2D898903
:101BA0000E94AD0A8AE193E00E94300A86E0F501C6
:101BB00011928A95E9F775CFD2120FC09C110DC012
:101BC000E1100BC015968C93C8010E94300A86E084
:101BD000F50111928A95E9F742CFC8010E949A0A4D
:101BE000882391F2EE2081F280911F03803208F465
:101BF000BCCF20911A0330911B033A8329831B82A7
:101C00009D828C828E83CE010196ADCFE83CF1059A
:101C100008F040C0FE2CEE2009F4B6CFD2122CC042
:101C20009C112AC080911F0380FD1DC0982F907FBA
:101C3000D1F015968C931597903F39F0982F907F9F
:101C4000905F8F70892B15968C93C8010E94300A83
:101C500086E0F801AAE1B3E001900D928A95E1F7E0
:101C60000E94540CFCCE86E0F801AAE1B3E001909A
:101C70000D928A95E1F7F3CEC8010E949A0A81116C
:101C800074CF80911F03816080931F03C8010E945D
:101C9000300AE5CE782D998A888AA6016E2D898929
:101CA0000E94AD0A86E0F50111928A95E9F7D8CF36
:101CB000EE2009F469CFC8010E949A0AF82E882301
:101CC00009F462CF86E0F801AAE1B3E001900D9239
:101CD0008A95E1F78AE193E00E9488070E94830CCD
:101CE000BFCF81E08E25E9CE81E08E25C6CEACE067
:101CF000B0E0EDE7FEE00C945D284F8358876987DC
:101D00007A878B879C87CE0107960E94D80C882300
:101D100069F08A859B85892B39F04F815885842FFE
:101D200085238F3F09F06BC016E05FC086E0FE019F
:101D30003796DE01119601900D928A95E1F78A851A
:101D40009B85892B89F38F81988589238F3F61F348
:101D50002091E90230E0C9010196877099274091EE
:101D6000E8024817190671F40E947A0A1092E902F3
:101D70001092E80286E0EAE1F3E0DF011D928A9525
:101D8000E9F7D2CF96E0929FD001939FB00D112436
:101D9000A651BD4FFE01319601900D929A95E1F743
:101DA0008093E9020E94330CBFCF819FC0011124B0
:101DB00086519D4F0E94D80C8823E9F0E091E802FB
:101DC0001E9FF0011124E651FD4F40815181628137
:101DD0007381848195810E94B70A8091E80290E026
:101DE0000196877099278093E8028091E80290918C
:101DF000E9028913DACF2C96E3E00C9479286985FF
:101E00007A858B859C850E94B70A8ECF682F80913A
:101E10001C0290911D020E9404200895682F809159
:101E20001C0290911D020E941220089580911C02B4
:101E300090911D020E942020089580914003859575
:101E400085958595089580914003877008959091B8
:101E50004003977081E009F480E008958091630366
:101E6000089590916303892B80936303089580956F
:101E70009091630398239093630308958093630381
:101E800008951092630308958091620308959091DC
:101E90006203892B80936203089580959091620379
:101EA000982390936203089510926203089580919D
:101EB0004103089508950E945A0F08959091CB030D
:101EC00092FF08C090914103981721F0809341033D
:101ED0000E945B0F089580914103882329F010929E
:101EE000410380E00E945B0F0895CF93DF93E09160
:101EF0001C02F0911D02809163038083E0911C021B
:101F0000F0911D02808190916203892B80839091D2
:101F10004103992381F0E0911C02F0911D02808120
:101F2000892B808380911C0290911D020E94701F5A
:101F300081110E946B0FC0911C02D0911D0240E2E2
:101F400050E060E273E0CE010E94B029892B59F085
:101F500080E2FE01A0E2B3E001900D928A95E1F7E4
:101F6000CE010E942A1FDF91CF91089508950E940B
:101F7000B60F08959091CB0392FF11C098E0899F0E
:101F800090011124622B609340030E940D0B8091FD
:101F900040038595859585950E94B70F08950E9409
:101FA0000D0B08951092400380E00E94B70F089532
:101FB000909140038095892380934003282F2770B8
:101FC00091F4282F082E000C330B9217130659F0AA
:101FD0009091CB0392FF07C08595859585950E94CA
:101FE0001D0B0E94D20F08959091CB0392FB2227E4
:101FF00020F9281769F080FB92F99093CB03809128
:10200000CA039091CB030E94451082E00E94D80F32
:1020100008958091CB0382FB882780F991E089277E
:102020000E94F40F089581E00E94F40F089580E06B
:102030000E94F40F08956FEF7FEF90E080E00E9420
:10204000092A089590E080E00E94D52921E0883E89
:102050009E4F09F020E0822F089582E090E00E94D8
:10206000CD29089583E090E00E94CD290895CF9373
:1020700084E090E00E94CD29C82F82E290E00E9487
:10208000CD29982F8C2FCF910895CF93C92F682FEA
:1020900084E090E00E94EB296C2F82E290E00E94A5
:1020A000EB29CF910895AB01BC018FE090E00E9435
:1020B000FD290895AB01BC0183E190E00E94FD2958
:1020C000089560E070E0CB010E945A10089560E02E
:1020D00070E0CB010E9453100E946110089568EED9
:1020E0007EEF90E080E00E94092A60E082E090E0CC
:1020F0000E94EB2960E083E090E00E94EB291092BF
:10210000E7021092E60260E084E090E00E94EB2992
:1021100064E082E290E00E94EB2960E085E090E0DC
:102120000E94EB2960E086E090E00E94EB296FEFCF
:1021300087E090E00E94EB2940E050E0BA0188E09F
:1021400090E00E94FD2960E08DE090E00E94EB2984
:1021500040E050E0BA0188E190E00E94FD2960E093
:1021600087E190E00E94EB2940E050E0BA018CE169
:1021700090E00E94FD2970E060E080E290E00E9423
:10218000092A40E050E0BA0188E190E00E94FD2970
:102190000E94671008950E946F100895682F8EE0C6
:1021A00090E00E94EB2908950E94E620609382034C
:1021B00070938303809384039093850360937E03DD
:1021C00070937F0380938003909381030895089513
:1021D00008950E94E81008950E94C604089582EBB5
:1021E00093E10E94101F0E94E7100E94E9100895D9
:1021F00081E008950E94F8100895089508950E94BE
:10220000FD100E94FE1008950E94D1130E94230722
:102210000E941A170E944E1908950E94D1200E9410
:1022200003140E9404110E94EC100895ACE0B0E089
:10223000ECE1F1E10C944E280E941B1486E693E039
:102240009C878B877C0110E0F70181909190A19091
:10225000B1907F01812F0E94F7131F5F163009F4A0
:102260006CC086169706A806B90671F3809186039E
:1022700081FD0E9402140E94FA10282E10E0812F86
:102280000E94F7136B017C01EB85FC854190519016
:1022900061907190FC87EB87C414D504E604F704C1
:1022A00009F444C046265D2468267F2400E0812C82
:1022B000912C54018394D301C20188219921AA2130
:1022C000BB21892B8A2B8B2B19F133243394D70113
:1022D000C60188219921AA21BB21892B8A2B8B2B0E
:1022E00009F4312C222079F00E831F8338860E9456
:1022F000DA208160782F9A8789874E815F8168858F
:102300008A850E945307432D602F812F0E944A1611
:102310000F5F880C991CAA1CBB1C013161F6EB8570
:10232000FC853497C082D182E282F3821F5F16302F
:1023300009F0A5CF0E94D41024C086169706A806DF
:10234000B90609F093CF0E94DA208C0180916403D2
:102350009091650308171907A1F08FEF89838A838D
:102360001B820E94DA208160782F9D838C834981B3
:102370005A816B818D810E945307109365030093EE
:1023800064030E94F01E0E94BA160E943A072C961F
:10239000E2E10C946A28CF93DF930E94CD12EC0106
:1023A000811522E59207E8F5811531E5930708F0DC
:1023B000A3C0883E910510F5803E910570F5883ADE
:1023C000910570F4853A910508F078C08130910547
:1023D00021F1009711F1049700F5D0E0C0E01DC095
:1023E0008F3B9105D0F7C85AD0E0CC0FDD1FC559FF
:1023F000DD4F0990D881C02DD4640FC0811540E510
:10240000940708F066C0C11580E4D80708F05EC0E4
:10241000CE019A9581159F4100F7CE01DF91CF91B2
:102420000895811536E5930718F5811545E594075C
:1024300008F07BC0C11584E5D80708F071C09E0183
:10244000237033279C2F96959695C115D34508F494
:1024500058C0C1E0D0E002C0CC0FDD1F2A95E2F7E2
:1024600030E2939FC0011124C82BD92BDA68D5CF55
:10247000C1158AE5D80778F4C11529E5D20708F017
:102480005EC0C11538E5D30708F4A7CFDC2FCC27F1
:10249000C06FD06AC2CFCE0190568115904208F02D
:1024A0009CCF8D2F8F710E946F1390E0982F8827FB
:1024B00088279F719C012C2BE9013FC0C55AD0E0B1
:1024C000C756DD4FC881D0E0D064A7CFDF70D06A97
:1024D000A4CF8370992721E030E002C0220F331F80
:1024E0008A95E2F7C695C69580E2C89FE00111245F
:1024F000C22BD32BDD6891CFD82FCC27C16FD06AE8
:102500008CCFC1E0D0E002C0CC0FDD1F2A95E2F7EE
:1025100020E2929FC0011124C82BD92BDC687DCF0B
:10252000DC2FCC27C46FD06A78CF0E946F13C82FDE
:10253000D0E0DC2FCC27CC27DF71D0626ECF8C2F80
:102540008F700E946F1334E0D695C7953A95E1F7E6
:10255000CF709C2FEC01D06960CF972F7630A8F414
:10256000613198F470E021E1929F600D711D11249A
:10257000FB0196E6899FE00DF11D1124EE0FFF1F70
:10258000EF55FE4F85919491089580E090E0089575
:102590000E94AD120E94CB11089582389105B9F1C5
:1025A000B0F48133910509F47DC048F48932910576
:1025B00009F46DC08A32910509F47BC00895853312
:1025C000910509F45FC08933910509F10895833EAF
:1025D0009105D9F138F4803E910529F1823E9105AB
:1025E00079F10895863E9105D9F1873E910509F468
:1025F0003EC0843E910541F52091CB0321FF24C0CC
:102600008091CA0384FD19C087EE90E0089520915F
:10261000CA03237009F05AC02091CB0323FF14C0D2
:1026200089E290E008952091CA0320FD38C03091DE
:10263000CB0330FF09C024FF43C090E080E0089541
:102640002091CA0322FDF7CF08952091CA0322FDED
:102650003AC03091CB0330FD39C024FFF5CFEDCF28
:102660002091CA0323FFF0CF24FDE7CFCDCF2091E7
:10267000CA0323FD2EC03091CB0331FFEECF84EE91
:1026800090E008952091CA0325FFDECFC9CF2091A5
:10269000CA0325FD21C02091CB0323FFD5CF89E3B9
:1026A00090E0D2CF2091CA0326FFCECF8AE290E0FD
:1026B00008952091CA0326FFC7CF81E390E00895D3
:1026C00083EE90E0089582EE90E0089580EE90E031
:1026D000089586EE90E0089585E390E00895909146
:1026E000CA0392FF06C0282F28712830F9F4877F8B
:1026F000846093FF06C0282F28712831F1F4877E6B
:1027000084612091CB0320FF06C0382F3871383008
:10271000D9F4877F816021FF06C0282F28712831D6
:10272000D1F4877E816194FD877E0895282F2471DE
:102730002430F9F68B7F8860DCCF282F2471243178
:1027400001F78B7E8861DDCF382F3171313019F779
:102750008E7F8860E0CF282F2171213121F78E7E76
:102760008861E1CF80E008950E941B1008950E94C7
:102770001B142FEF86E791E0215080409040E1F755
:1027800000C000000E941B1480E00E94F71360FF4D
:1027900004C00E94B4130E94412108950E94B713FF
:1027A00008950E942210811102C00E94CB100E9445
:1027B0002D10809386030E9437109093CB03809353
:1027C000CA030E94CE130E94321090E00E94CF0AEA
:1027D0008091E4029091E5020E94F00A0895089524
:1027E0000E94EF13089508950E94F313089594E052
:1027F000899FF0011124EC51FC4F6081718182812D
:102800009381089508950E94B403ECECF3E0A4EEE4
:10281000B3E011921192119211921D921D921D928C
:102820001D9283E0E43EF807A1F786E00E942E1493
:102830000E9470060895CF938CEC93E00E94E10310
:10284000282F46E064EE73E08CEC93E00E9449147C
:10285000C82F0E9473068C2FCF910895CF93C82F55
:1028600021E1829FC00111240E94852880938C035E
:1028700090938D039C0180E08C1302C0CF9108954A
:10288000F90191E111929150E9F78F5F2F5E3F4F6F
:10289000F3CFAAE0B0E0EFE4F4E10C944E288E838D
:1028A000F92EE62ED72E4D83122F1092870300911A
:1028B0008903002309F496C00E94DA2020918A033C
:1028C00030918B03AC01421B530B9A0190938B0305
:1028D00080938A034F3F510509F0C0F4452B91F0D6
:1028E000109289031092880380918C0340918D038C
:1028F00030E060E090E07D8079120BC06093890346
:102900003093880311117CC0102F6EC02FEF30E080
:10291000E7CFE82FF42FAF014F5E5F4F81918823FF
:1029200031F0DF011197281748F01C92302FE4177F
:10293000F507A1F78E2F4F2F9F5FDDCF821B8C9362
:10294000602FF5CFE981FA814191519161917191A7
:10295000FA83E983F10180819181A281B3816A01C7
:102960007B01C826D926EA26FB26CF82D886E986AF
:10297000FA86F80130E020E075016401022E04C0FF
:10298000CC0CDD1CEE1CFF1C0A94D2F74F8058843F
:1029900069847A844C205D206E207F20411451048C
:1029A0006104710469F0708071100AC045E04083D1
:1029B0008C259D25AE25BF2551E05B8341E04C83EE
:1029C00031962F5F3F4F21313105B1F60F5E1F4F1A
:1029D000F10181939193A193B1931F01FE81FF5F58
:1029E000FE8322C0211106C080918803882331F123
:1029F000111106C00E94DA2090938B0380938A0302
:102A000000918C0310918D03C0908903CC8240917A
:102A100087034B832E2C3D2C7E807982FA821E8286
:102A2000812C912C540183947D80CE807C108ACFA0
:102A3000DC80D0928903EB80E0928703809187034A
:102A40002A96E2E10C946A280E94FB220E940D1152
:102A50000E94082308950E940D230E9416110E94CF
:102A6000272308950E9473200E94E1220E94EF1004
:102A70000E9424150E942B150E94FF10FBCFEF929D
:102A8000FF920F931F93CF93DF93EB01E82FD111A8
:102A90000EC0442321F0F0E0EB5FFB4FE4916E2F7A
:102AA0007E2F8E2FCDB7DEB7E6E00C9476280D2F63
:102AB00010E0282F30E0442329F02B5F3B4FF90131
:102AC000249130E0F6E0CF9FC0011124EFEFF0E059
:102AD000BF010E942028AB018C2F90E0880F991F26
:102AE000A5E5A49FB001A59F700D1124861B970B2F
:102AF000982F990F980FBF01601B710B629FD00137
:102B0000639FB00D729FB00D11248B2F9D9FB0015C
:102B10001124672F7727EF01C61BD70BBE01629FD9
:102B2000E001639FD00D729FD00D11247F01E91A3F
:102B3000F108E09EB001E19E700DF09E700D112431
:102B4000672F7727E61BF70BE29F8001E39F100DAD
:102B5000F29F100D1124E12F722F4230510599F090
:102B600048F44115510569F04130510581F0EB2FD2
:102B70008D2F07C04430510569F080F04630510573
:102B8000B1F76E2F8FCFE22F7B2F812FFACFE22F5D
:102B90007D2FF7CFEB2F822F712FF3CF7B2F822F3B
:102BA000ED2FEFCF41E00E943F15089590918E03E5
:102BB000892B80938E03089546E050E06CE170E02D
:102BC0008CEF93E00E94DB2910928E0308950E94FF
:102BD000D2150895ECEFF3E085E080838091310217
:102BE00090913202A091330281839283A3838FE775
:102BF00084838FEF85830E94DC150895E091A20203
:102C0000F091A30209950895E0919E02F0919F0230
:102C100009950895B0E0A0E0E0E1F6E10C945728B2
:102C20007C01FC01C08189E0C89FC02D112419E0FE
:102C30001C0F012F1B3208F00AE26091FD03709116
:102C4000FE038091FF030E94E715D62EC72EB82EF3
:102C5000D0E0C01748F081E01A3208F080E0CDB72C
:102C6000DEB7E9E00C947328FE01EE50FE4F808140
:102C7000F7019181892331F02B2D4D2D6C2DCE0143
:102C80000E9404162196E5CFE091A002F091A102E6
:102C9000099508950E94F8100895CF93C82F809148
:102CA00022028C1335C09091FC0393702091230273
:102CB00030E081E09217130609F480E08170809380
:102CC00021028091010490912002981739F080939D
:102CD000200240E060E080E00E944416CC23D1F066
:102CE000C13011F180E090911F029F5F90931F020D
:102CF00081110CC082E080931E028091210281111B
:102D000005C0C11103C083E080931E02CF910895D6
:102D100081E0D4CF80912102882329F340E060E054
:102D200080E00E944416DECF8FE192E00E940A16F6
:102D3000DACF089508950E9499160E949A16089570
:102D400008950895CF93DF93FC01C08189E0C89F67
:102D5000C02D1124D7EFDC0FCB3208F0CAE26C2F64
:102D60008D2F0E94A0166C2F8D2F0E94A116DF912F
:102D7000CF910895CF930E94E62060938F037093C4
:102D80009003809391039093920320919303C0E06A
:102D9000211108C02091FC03C22FC37019F0C22F6B
:102DA000C695C69520911E022130B1F0222331F044
:102DB0002230F1F0233039F1CF91089510921F02A3
:102DC00060930204709303048093040490930504B9
:102DD00081E080931E02F0CF8C2F0E944D16CC23F1
:102DE00059F30E949B168FE192E00E94A216E4CF55
:102DF000C09322028091FC038370809323020E947F
:102E0000FE1583E0E6CF80918E0381110E94DC15D0
:102E10006091020470910304809104049091050470
:102E20000E940121603171058105910528F21092FF
:102E30001E02C2CFE0919C02F0919D0209950E9472
:102E40002210811104C00E94CB100E94EA1546E0B6
:102E500050E06CE170E08CEF93E00E94BD2910928D
:102E60008E038091FC038C7F11F40E94EA15089573
:102E7000CF93C82F882391F08091930381110EC0C6
:102E80000E944D16109222028091FC038370809361
:102E900023020E94FE1583E080931E02C0939303D9
:102EA000CF910895ECEFF3E0908121E09227908399
:102EB00010921E020E94D615089581E00E945217BA
:102EC0000895862F9091FC03937039F0946090934D
:102ED000FC0310921E020E94D615089561E00E9424
:102EE00061170895682F81E00E946117089581E0BD
:102EF0000E9472170895682F9091FC0396959695FD
:102F00008FEF890F09F481E00E946117089581E035
:102F10000E947B1708959091FC03937061F0809359
:102F2000FD036093FE034D3D08F04CED4093FF031D
:102F3000822F0E94D6150895ACEFB3E01196EC9164
:102F40001197F0E0282F13964C91139712966C91DD
:102F5000CF0108960E948B17089581E00E949C176C
:102F60000895ECEFF3E09181282F43816281E92FEE
:102F7000E850FF0BCF010E948B17089581E00E945B
:102F8000B1170895ECEFF3E0628120E1620F08F4DD
:102F90006FEF9181282F4381892F90E00E948B173A
:102FA000089581E00E94C2170895ECEFF3E062817A
:102FB00020E1621B08F460E09181282F4381892F72
:102FC00090E00E948B17089581E00E94D517089524
:102FD000ECEFF3E0438120E1420F08F44FEF9181E1
:102FE000282F6281892F90E00E948B17089581E03D
:102FF0000E94E8170895ECEFF3E0438120E1421BC3
:1030000008F440E09181282F6281892F90E00E948E
:103010008B17089581E00E94FB170895ECEFF3E011
:10302000248130E1230F08F42FEF24830E94D6156A
:10303000089581E00E940E180895ECEFF3E02481DA
:1030400030E1231B08F420E024830E94D615089564
:1030500081E00E941D1808950895FC01EE0FFF1FE6
:10306000E80FF91FEA5FFB4F6183408322830895D5
:10307000E6E0F4E0818360834283339694E0E438B1
:10308000F907C1F708956AE270E086E094E00E94D3
:10309000C9180895FA01811101C0FB01099508952D
:1030A0001F93CF93DF93EC01FB01128111114FC0ED
:1030B0000E942E0F8272CA3CFCE5DF0709F460C053
:1030C00030F5C63CECE5DE0709F455C060F4C43CBD
:1030D0009CE5D90709F443C008F048C0C33CDC456F
:1030E000D9F111E034C044EE57E161ED77E1C83C1D
:1030F0009CE5D907C1F14DEA57E16EEB77E1C93C98
:10310000DC4588F141ED57E164EE77E12CC0CE3C1F
:10311000FCE5DF07D1F1A0F448E258E169E178E18C
:10312000CC3CECE5DE07F9F047EF57E16AE078E1E7
:10313000CD3CDC45C0F049E158E168E278E113C0DC
:10314000C73D8CE5D80718F0CE35DD4551F6812F07
:10315000DF91CF911F9108950E945D17F8CF47E846
:1031600057E167E777E10E944A18F1CF47E757E157
:1031700067E877E1F8CF4EEB57E16DEA77E1F3CFFF
:103180004AE058E167EF77E1EECF81E00E946E17E9
:10319000DECF6A9A4EB14B7F5EB15460EFB7F894C0
:1031A0009B01220F331F260F371F280F391F2817A7
:1031B000390741F4EFBF8FE594E00197F1F700C0C4
:1031C00000000895DC016D91CD0178E05EB900004A
:1031D00000C067FF4EB9660F000000C000C000C00D
:1031E0004EB900C07A9591F7E2CF0F931F93CF931A
:1031F000DF93811520EC920718F1EC01D05C0E945E
:103200002E0F182F0E94440F182B0E94570F082FC3
:103210000E94271F102B127291E009F490E086950E
:103220008170981729F0CC0FCD2FCC1FDD0BD195D5
:10323000CE018F779927DF91CF911F910F9108953C
:103240009058F9CF97FF13C0FB012281222379F018
:103250000E94F518FC01EE0FFF1FEE0FFF1FE35059
:10326000FF4F65917591859194910E945C1A81E060
:10327000089590918504923071F48A3050F490E072
:1032800009966AE070E00E943428875A0E94140868
:1032900008958650FBCF0E94BB1C08958CE090E0FF
:1032A0000E94CD29482F50E070E060E040938504F3
:1032B000509386046093870470938804882331F0C8
:1032C000843039F481E0809394030895109294033C
:1032D00008951092940310928504089560918504D6
:1032E0008CE090E00E94EB290895809385040E9471
:1032F0006E19089520919403082E000C990B820FEB
:10330000911D27FD9A9562E070E00E9434288F3F5E
:1033100079F080939403E09194030E2E000CFF0B40
:10332000EC55FD4F8081809385040E946E190895AD
:1033300081E0EFCF0E94271F8695817080938A04D9
:103340000E94271F817080938404809185048130BE
:1033500039F480918A04882319F089E30E941408C3
:103360000E942E0F809389040E94410F0E94540FE7
:1033700080918504823021F158F48823C1F0813096
:10338000D1F08FE39CE90197F1F700C000000895A8
:10339000843051F18530A9F78BE191E00E94190644
:1033A00085E290E00E94190688E290E006C086EE71
:1033B0000E948E07E6CF88E193E00E941906E1CFD4
:1033C00080918404811103C083E50E94140882EE79
:1033D0000E948E078FE39CE90197F1F700C000007F
:1033E00087E50E941408CDCF86EE0E94140888E17C
:1033F000F8CF80918504823011F148F4882381F060
:10340000813091F0809189040E943E0F08958430AC
:10341000F9F08530B9F788E290E00E941906F2CF02
:1034200086EE0E94D207EECF8CE20E9414088091B3
:103430008A04882339F389E30E941408E3CF82EEDB
:103440000E94D207809184048111DCCF83E5F4CF00
:1034500088E2F2CFB0E0A0E0E0E3FAE10C94572874
:103460006B017C01C7E0D0E00CE110E0BB24B39419
:10347000D701C601002E04C0B695A79597958795EC
:103480000A94D2F78F70A1F4B11002C00E943919CA
:10349000219704501109CF3FDC0729F4CDB7DEB7DF
:1034A000E9E00C947328C430D10514F7B12CE0CFB7
:1034B0000E943919B12CECCFCF92DF92EF92FF929C
:1034C0006B017C01C114D10481E1E806F104A0F58F
:1034D000C114D10481E0E806F10420F08091850454
:1034E000823051F10E949A19C114D10481E0E8069A
:1034F000F10438F180918504811123C081E0E81A3C
:10350000F108C701B6012AE09695879577956795EA
:103510002A95D1F778528F4F9F4F0E942A1A83E045
:10352000D822EE24FF24C701B60174528F4F9F4F5B
:103530000E942A1A0E94F919FF90EF90DF90CF9015
:103540000895C701B601F4CF0F931F93CF93DF9374
:10355000EC018B01FB018281882389F00E942E0FF0
:103560008272C33EFCE5DF0799F190F4C13EECE5C1
:10357000DE0719F140F5C03E9CE5D907D1F0B8014E
:10358000CE010E942219DF91CF911F910F910895D2
:10359000C53EECE5DE0701F1E8F0C63E8CE5D80754
:1035A000E9F085E0C13B9DE5D90749F780938504A3
:1035B0000CC0811104C081E003C08111FCCF8FEFEA
:1035C0000E947A19DCCF109285040E946E19D7CF21
:1035D00081E0ECCF82E0EACF83E0E8CF84E0E6CF81
:1035E000CF93DF93EC01FB018281882309F464C14E
:1035F000C430FDE5DF07E0F5CB3F9CE5D90730F4AB
:103600009E0122503C4524313105D8F50E943710E7
:103610009093CB038093CA03C231ECE5DE0709F433
:103620001FC108F06EC0C9308CE5D80709F4F2C09C
:1036300008F03FC0C530ECE5DE0709F4DBC058F503
:10364000C3308CE5D80709F4CDC008F0CFC0809115
:10365000CA038160C230DC4509F4AEC08091CA0360
:103660009091CB030E9445100E947A0A80E009C025
:10367000C63AEDE5DE0751F238F4C2369DE5D907CA
:1036800029F2DF91CF9108959E012E5A3D452330B6
:103690003105B8F7BBCF8091CA038062C730FCE523
:1036A000DF0709F489C008F4B1C08091CA038064BF
:1036B00083C0CD309CE5D90709F4BAC070F480917D
:1036C000CA038E7FCB30FCE5DF0709F475C008F430
:1036D000A7C08091CA038D7F6FC0CF309CE5D9070A
:1036E00009F4B6C008F4A8C0C031FCE5DF0709F44E
:1036F000B3C0C131DC4509F0B1CF8091CA038F7BE3
:103700005BC0C1159DE5D90709F4B4C098F5CB3F5E
:10371000FCE5DF0709F472C0B8F4C4319CE5D907B1
:1037200009F4B6C008F4A2C0C531DC4509F096CF53
:103730008091CA0382FB992790F921E0922790FBA0
:1037400082F990FB83F938C0CD3F8CE5D80709F4A6
:1037500077C008F457C0CE3FECE5DE0709F474C02B
:103760008091CB038360CF3FDC4509F077CF809316
:10377000CB0374CFC2368DE5D80709F496C068F440
:10378000C230EDE5DE0709F48CC008F477C0C33021
:10379000DD4509F063CF80E085C0CE3A9DE5D907CD
:1037A000E9F068F49091CA03892F8E7F90FF8160C1
:1037B000C63ADD4509F052CF8093CA034FCFCF3AC6
:1037C0008DE5D80789F1C03BDD4509F047CF9091E1
:1037D000CB03892F877F93FF8860C9CF8091CB036C
:1037E0008860C5CF8091CA038260E6CF8091CA030A
:1037F0008460E2CF8091CA038860DECF8091CB03E2
:103800008160B5CF8091CB038260B1CF8091CA0334
:103810008061D2CF0E947A0A8091CA038068CCCF9F
:103820008091CA038C60C8CF8091CB03877F9FCFE4
:103830008091CA038B7FC0CF8091CA03877FBCCFA2
:103840008091CB038E7F93CF8091CB038D7F8FCFE1
:103850008091CA038F7EB0CF8091CA038F7DACCF99
:103860000E947A0A8091CA038F77A6CF8091CA03FB
:10387000837FA2CF8091CB038C7F79CF8091CB03C4
:10388000982F909591708E7F892B90FB81F96FCF47
:103890000E947A0A9091CA03892F97FB87F9805872
:1038A0008BCF81E00E94CE10D9CE9091CA03892F90
:1038B0008F7E94FF806180CF81E0E3CEB0E0A0E016
:1038C000E4E6FCE10C945928E82FF0E0EB5FFA4FB6
:1038D000D490282F26952695269530E0F901EB55B2
:1038E000FA4F0491877010E0082E02C015950795D5
:1038F0000A94E2F701701127F901EB56FA4FE490B0
:10390000F12C082E02C0F594E7940A94E2F791E0B6
:10391000E922FF24F901EB57FA4FC491D0E002C02D
:10392000D595C7958A95E2F7C170DD270115110578
:1039300019F081EE0E948E07E114F10419F086EE71
:103940000E948E078D2D0E941408E114F10419F0D5
:1039500086EE0E94D2070115110519F081EE0E9432
:10396000D207CD2B19F08CE20E941408CDB7DEB738
:10397000E7E00C947528982F9F709A50963020F0AD
:10398000805D0E945E1C0895895AFBCFEF92FF92E2
:103990000F931F93CF93DF938C01F62E8AE0E82ECE
:1039A000F8018491882309F454C0813009F04DC096
:1039B000E8012196FE018491813091F42196FE0167
:1039C00084910E9414088E010F5F1F4F8F2D81502C
:1039D00038F3EFE9FFE03197F1F700C00000F7CFCF
:1039E000823039F4E8012296FE0184910E948E070C
:1039F000EACF833039F4E8012296FE0184910E94D7
:103A0000D207E1CF8430F9F6E8012296FE01249135
:103A100090E080E0FE0131962053330B2A303105CF
:103A200048F0019780F2EFE9FFE03197F1F700C02D
:103A30000000F7CFE89EA001E99E500D1124C901B6
:103A4000840F951F2491EF01E5CF0E945E1CE801D1
:103A5000BACFCDB7DEB7E6E00C947628CF93DF93EC
:103A6000EB0186319C4511F50E942E0F9A81992316
:103A700099F08A7A91E009F490E09093950381118E
:103A800009C089E20E94060F0E94750F80E0DF9155
:103A9000CF91089585E3F6CF80919503811104C0FD
:103AA00089E20E940E0FF0CF85E3FBCF81E0EFCFDC
:103AB0000F931F93CF93DF93C42FD22FFC018281EA
:103AC0008823C9F0409398030E94DA2090939703CB
:103AD0008093960380E28C0F883040F4C77081E0B9
:103AE00001C0880FCA95EAF70E941D08DF91CF91A7
:103AF0001F910F91089510919803141332C0809173
:103B00009603909197030E94F220883C910548F516
:103B1000C0E2CD0F1D17B9F080E2810F883040F46C
:103B2000177081E001C0880F1A95EAF70E942408F7
:103B3000C83048F481E09D2F977001C0880F9A9596
:103B4000EAF70E941D08802F0E941408C83070F602
:103B5000D77081E001C0880FDA95EAF70E94240847
:103B6000C5CF80E28C0F883008F6C77081E001C0B5
:103B7000880FCA95EAF7F2CF0F939C01CB01243F3F
:103B80004CE5340759F1A8F4293DFCE53F0701F164
:103B90002A3D4CE53407D1F1283D3C4591F406E23D
:103BA00021EE41EE68ED7CE50E94581D80E00F910A
:103BB0000895263FFCE53F07E9F0B0F0273F3C457C
:103BC000F9F0FC018281882339F110929803EFCF3C
:103BD00007E225EE45EE69ED7CE5E6CF06E221EE53
:103BE00040EE64EF7CE5E0CF07E225EE44EE65EFC2
:103BF0007CE5DACF06E221EE42EE66EF7CE5D4CF3B
:103C000007E225EE46EE67EF7CE5CECF08E221E045
:103C100045EE6AED7CE5C8CF81E0C9CFCF93DF9355
:103C2000EC01EA85FB85309719F06C857D85099557
:103C30008B810E944D0F8C810E94370F0E94750F5F
:103C400086E0FE0111928A95E9F7DF91CF91089500
:103C5000CF93DF93EC018D8181FD12C082608D8353
:103C60008B810E94470F8C810E94310F0E94750F3B
:103C7000E885F985309721F06C857D85CE01099521
:103C800010929C0310929B038D8180FD03C0CE0196
:103C90000E940E1EDF91CF910895CF93DF93EC0128
:103CA0008A81823041F4FB01828193810E94D30595
:103CB0008D8182608D83DF91CF910895FB0180819A
:103CC00091810E94D3050895FC018281813031F4F5
:103CD000FB01808191810E94E90508958230E9F716
:103CE000FB0182819381F7CFFB0122812223E1F046
:103CF000E0919B03F0919C033097B1F0E817F9072E
:103D000099F02EE0E29FF0011124DF01A55FBE4F84
:103D10002C9124602C93EA5FFE4F91838083CF0126
:103D20000E94281E0E94540F0895EF92FF920F9355
:103D30001F93CF93DF938C0197558F3F910511F01F
:103D400008F041C07801FF248EE0089FF0011124A3
:103D5000EF01CA5FDE4FDB0112962C91E55FFE4F4B
:103D6000808120FB80F98083222399F10E94DA2050
:103D700090939A03809399038A818F5F8A830E942C
:103D80002E0F8B830E94440F9B81892B8B830E9473
:103D9000570F8C83EE81FF81309721F06C857D85F4
:103DA000CE0109958EE08E9DF0018F9DF00D1124BE
:103DB000EA5FFE4F858181FF02C010E000E01093B2
:103DC0009C0300939B0381E0CDB7DEB7E6E00C9443
:103DD00076288D8181FFF7CFCE010E940E1EF3CF92
:103DE00080919B0390919C03892BC9F0809199034A
:103DF00090919A030E94F220893C910580F0809175
:103E00009B032EE0829FC0011124FC01E55FFE4F61
:103E1000208122FD04C08A5F9E4F0E94281E0895C3
:103E20009093A7028093A60208959093A203809393
:103E3000A1030895E091A103F091A203309729F026
:103E40000190F081E02D0995089580E008950E9489
:103E50001A1F0895E091A103F091A203309799F001
:103E600020913002222359F02091CA0327FF07C076
:103E7000DC012C9111962C93119726E02C93028053
:103E8000F381E02D0995089520919F033091A003BF
:103E90002817390771F09093A00380939F03E09156
:103EA000A103F091A203309721F00680F781E02D65
:103EB0000995089520919D0330919E032817390795
:103EC00071F090939E0380939D03E091A103F09184
:103ED000A203309721F00084F185E02D0995089523
:103EE000FC01329680913002882321F08091CA0330
:103EF0009EE187FF96E080E0915008F408952191BB
:103F00002223D1F38F5FF8CF662301F12091300295
:103F10002223F1F02091CA0327FF1AC0462F4695AD
:103F2000469546954E3190F4677021E030E002C02E
:103F3000220F331F6A95E2F7840F911DFC018281E5
:103F400090E02823392381E0232B69F480E0089551
:103F5000FC01329608962191261721F0E817F907FF
:103F6000D1F7F4CF81E008959C01FC0132969FEFD8
:103F700080E04191461751F09F3F19F4411101C073
:103F8000982F8F5F8630A9F79F3F09F40895290F76
:103F9000311D97FD3A95F90162830895FC0132962F
:103FA00008962191261303C0DF0111971C92E81790
:103FB000F907B9F70895E62FE695E695E695EE310F
:103FC00068F4E80FF92FF11D677021E030E001C0BF
:103FD000220F6A95EAF78281822B82830895E62F69
:103FE000E695E695E695EE3170F4E80FF92FF11DB0
:103FF000677021E030E001C0220F6A95EAF7209552
:10400000828128232283089520913002222339F0CF
:104010002091CA0327FF03C00E94DB1F08950E945E
:10402000B41F089520913002222339F02091CA0351
:1040300027FF03C00E94EF1F08950E94CE1F08951E
:10404000FC01329680913002882351F08091CA039E
:1040500087FF06C08EE1DF011D928A95E9F708957A
:1040600086E0F9CF08950E9432200895811106C09C
:1040700081E08093A3030E943320089582E0F9CF6A
:1040800083E08093A3030E94332008950E9436208A
:10409000089581E08093A3030E94332008950E9435
:1040A00049200895089508950E9453200895089581
:1040B00008950E9452200895CF930E9457200E9495
:1040C0001B140E945820C0E08C2F0E94F713672B0E
:1040D000682B692B31F4CF5FC630B1F780E0CF9108
:1040E000089581E0FCCF85B7806885BF85B780687B
:1040F00085BF08951F921FB61F9211248F939F931F
:10410000AF93BF938091A403811113C080918B045E
:1041100090918C04A0918D04B0918E044196A11DC4
:10412000B11D80938B0490938C04A0938D04B09365
:104130008E04BF91AF919F918F911F901FBE1F90D2
:10414000189580919304843031F10E94F906109201
:10415000A40388E190E020E40FB6F894A89580933A
:1041600060000FBE2093600083B7817F846083BFAF
:1041700083B7816083BF7894889583B78E7F83BF30
:104180000FB6F894A89580916000886180936000D4
:10419000109260000FBE08950E947A0A0E940307E1
:1041A000089582E084BD93E095BD9AEF97BD80931A
:1041B0006E0008952FB7F89480918B0490918C0431
:1041C000A0918D04B0918E042FBF08952FB7F8945D
:1041D00060918B0470918C0480918D0490918E0479
:1041E0002FBF08959C014FB7F89480918B04909154
:1041F0008C04A0918D04B0918E044FBF821B930B51
:104200000895CF92DF92EF92FF922FB7F894C0906B
:104210008B04D0908C04E0908D04F0908E042FBF1E
:10422000A7019601261B370B480B590BCA01B90190
:10423000FF90EF90DF90CF90089578941F921FB673
:104240001F9211248F939F93AF93BF9380918B0400
:1042500090918C04A0918D04B0918E040196A11DC3
:10426000B11D80938B0490938C04A0938D04B09324
:104270008E04BF91AF919F918F911F901FBE1F9091
:10428000189581E08093E00080E28093D80010923E
:10429000C9008FE19EE40197F1F700C0000087E0BC
:1042A00090EBDC018093A0049093A104A093A2045E
:1042B000B093A30488E19CE00FB6F894A89580938E
:1042C00060000FBE90936000FFCF88E19CE00FB6C6
:1042D000F894A895809360000FBE90936000FFCF84
:1042E0008091C80308950895CF93DF93EC018091E6
:1042F00030028823B1F18091CA0387FF32C060E2A7
:1043000082E08093E9008FEF9091E800815095FD65
:1043100006C095ED9A95F1F700008111F5CF8091D7
:10432000E80085FF1BC08091300270E050E040E063
:10433000811104C050E040E068E070E0CE010E94CE
:1043400099238091E8008E778093E80080E2FE0157
:10435000A8EAB3E001900D928A95E1F7DF91CF9141
:10436000089568E081E0CDCF8093A5037093A70303
:104370006093A60380919304843001F582E08093DA
:10438000E9008FEF9091E800815095FD06C095ED12
:104390009A95F1F700008111F5CF8091E80085FF33
:1043A0000DC050E040E063E070E085EA93E00E94D9
:1043B00099238091E8008E778093E8000895BC01EE
:1043C00084E00E94B4210895BC0183E00E94B421DE
:1043D0000895089580919204811109C00E942925B1
:1043E0000E9486258091E20084608093E200089517
:1043F0001092920408950E944920089560918F04BC
:1044000081E0611101C080E00E94402008959091F8
:10441000930481E0943009F080E060918F040E9461
:104420004620089542E061EC81E00E94A52442E22A
:1044300061EC82E00E94A5249091930481E0943085
:1044400009F080E060918F040E94362008958091E9
:104450009504833009F461C030F48130D1F18230A9
:1044600009F49EC008958A3009F48AC08B3009F49B
:104470006FC0893009F050C080919404813209F0F6
:104480004BC08091980490919904029708F044C021
:104490008091E800877F8093E8008091E80082FFA8
:1044A00037C09091F3008091F200029731F480912F
:1044B000F100813011F0863021F48091F100809379
:1044C000C8038091E8008B778093E8000E94D9248C
:1044D00023C080919404813AF9F48091E800877FA9
:1044E0008093E8008091980490919904892B61F45D
:1044F00060E288EA93E070E00E94E8238091E8009F
:104500008B778093E800089560E090E080E0F3CF3F
:10451000809193048111C1CF089580919404813AD0
:10452000D9F78091980490919904892BA9F78091EB
:10453000E800877F8093E8008091E80080FFFCCF4F
:10454000809130028093F1008091E8008E77BCCF9B
:1045500080919404813201F780919804909199049C
:10456000892BD1F68091E800877F8093E8000E9434
:10457000D92480919604809330020E947A0A08958B
:1045800080919404813241F68091E800877F809386
:10459000E8000E94D924809197048093C90308956C
:1045A00080919404813A09F0B7CF8091E800877F29
:1045B0008093E8008091E80080FFFCCF8091C903E0
:1045C000C1CF84B7877F84BF0FB6F894A895809138
:1045D0006000886180936000109260000FBE80E8E8
:1045E00090E00FB6F89480936100909361000FBE45
:1045F0000E944F2008950E9429250E948625E2EE00
:10460000F0E080818460808378940E94052808957A
:1046100084E292E00E94151F0895809193048530F2
:1046200031F480919304853019F00E94CC200895D4
:104630000E94A12080919104882399F30E945C201C
:10464000882379F30E9483230E947A0AEACF08958F
:104650000E942B230895292F33272330310519F188
:1046600068F42130310509F444C02230310509F4E1
:1046700045C090E080E030E020E025C021323105E7
:1046800049F122323105A9F780E490E023EB36E0CE
:1046900061157105C1F08DE690E026E436E06130E9
:1046A000710589F0E6CF99278130910581F0009757
:1046B00029F00297F1F6E5EBF5E002C0E5EFF5E051
:1046C000849190E09F01FA01318320830895E1ED08
:1046D000F5E0F6CF89E090E02BE036E0611571055A
:1046E00091F389E090E024E236E06130710559F3FE
:1046F000C0CF82E190E024E336E0E5CF8BE390E0A9
:1047000029EF35E0E0CF80E189BD82E189BD09B4C0
:1047100000FEFDCF8091D8008F7D8093D8008091DE
:10472000E00082608093E0008091E00081FDFCCF9A
:104730000895AF92BF92CF92DF92FF920F931F9393
:10474000CF93DF936C01EB018A010E94F824F82ECD
:10475000811123C00115110539F0F8018081918183
:10476000C81BD90BC80ED91EB12CA12C2097A9F0BB
:104770008091E80085FD22C08091E8008E778093CB
:10478000E80001151105A1F0F80180819181A80EC2
:10479000B91EB182A08285E0F82E8F2DDF91CF91D6
:1047A0001F910F91FF90DF90CF90BF90AF90089531
:1047B0000E94F8248823D1F2F82EEFCFF6018191E0
:1047C0006F018093F1002197FFEFAF1ABF0ACECFA0
:1047D000FC0180919A0490919B0486179707A0F0A2
:1047E0006115710529F49091E8009E779093E80097
:1047F00090E06115710551F4911108C08091E800B5
:1048000082FF34C080E00895BC01F2CF8091930410
:104810008823C1F18530C1F18091E80083FD30C06B
:104820008091E80082FDEACF8091E80080FFE1CF2F
:104830008091F3002091F200382F6115710519F075
:104840002830310558F091E02830310509F090E02A
:104850002091E8002E772093E800CBCF81918093C0
:10486000F100615071092F5F3F4FE7CF80919304B2
:10487000882341F0853041F08091E80083FFBECF6E
:1048800081E0089582E0089583E00895FC0180911D
:104890009A0490919B0486179707A0F06115710503
:1048A00029F48091E8008E778093E80090E061150C
:1048B000710551F4911108C08091E80082FF35C064
:1048C00080E00895BC01F2CF809193048823C9F160
:1048D0008530C9F18091E80083FD31C08091E80006
:1048E00082FDEACF8091E80080FFE1CF8091F30064
:1048F0002091F200382F6115710519F0283031052B
:1049000058F091E02830310509F090E08091E800FE
:104910008E778093E800CBCF84918093F10031961D
:10492000615071092F5F3F4FE6CF80919304882338
:1049300041F0853041F08091E80083FFBDCF81E0F8
:10494000089582E0089583E00895982F973028F025
:104950008F708093E90081E008959093E900242FFF
:10496000762F50E0981731F07091EC002091ED0017
:104970005091F00021FD02C09F5FE8CF3091EB0025
:104980003E7F3093EB003091ED003D7F3093ED00A2
:104990003091EB0031603093EB007093EC0020938A
:1049A000ED005093F0002091EE0027FDE5CF80E070
:1049B00008958091940487FF13C08091E80082FFDE
:1049C00006C08091E8008B778093E80004C0809156
:1049D00093048111F2CF0895809193048823D9F331
:1049E0008091E80080FFF8CF8091E8008E77ECCFCF
:1049F0002091E4003091E50095E6A9012091EC00BA
:104A0000822F817020FF06C08091E80080FF06C0E1
:104A100080E008952091E80022FD1AC0809193045F
:104A2000882389F0853089F08091EB0085FD0FC0E7
:104A30002091E4003091E50042175307F9F29150BC
:104A4000E1F684E0089582E0089583E0089581E02E
:104A500008950E9498250E94A025E0EEF0E0808154
:104A600081608083E8EDF0E080818F77808319BCDE
:104A7000A7EDB0E08C918E7F8C9380818F7E8083B8
:104A80001092920408950F931F93CF93DF930E9487
:104A900098250E94A025C8EDD0E088818F77888373
:104AA00088818068888388818F7D888319BC109273
:104AB000930410928F04109291041092900400EECF
:104AC00010E0F80180818B7F8083888181608883FA
:104AD00042E060E080E00E94A524E1EEF0E0808109
:104AE0008E7F8083E2EEF0E0808181608083808130
:104AF00088608083F80180818E7F808388818061D7
:104B00008883DF91CF911F910F910895E8EDF0E038
:104B100080818F7E8083E7EDF0E0808181608083FB
:104B200084E082BF81E0809392040E94432508952F
:104B3000E8EDF0E080818E7F80831092E20008959E
:104B40001092DA001092E10008951F920F920FB6B2
:104B50000F9211242F933F934F935F936F937F9303
:104B60008F939F93AF93BF93EF93FF938091E10057
:104B700082FF0BC08091E20082FF07C08091E100BC
:104B80008B7F8093E1000E9404288091DA0080FFEF
:104B900019C08091D80080FF15C08091DA008E7F07
:104BA0008093DA008091D90080FF96C080E189BDB2
:104BB00082E189BD09B400FEFDCF81E080939304BA
:104BC0000E94EA218091E10080FF19C08091E200FB
:104BD00080FF15C08091E2008E7F8093E20080917B
:104BE000E20080618093E2008091D800806280932F
:104BF000D80019BC85E0809393040E94FE21809127
:104C0000E10084FF2BC08091E20084FF27C080E197
:104C100089BD82E189BD89B5982F917080FFFBCF56
:104C20008091D8008F7D8093D8008091E1008F7EA5
:104C30008093E1008091E2008F7E8093E20080917A
:104C4000E20081608093E20080918F04882309F460
:104C500049C084E0809393040E9407228091E10080
:104C600083FF29C08091E20083FF25C08091E1008D
:104C7000877F8093E10082E08093930410928F04F9
:104C80008091E1008E7F8093E1008091E2008E7F31
:104C90008093E2008091E20080618093E20042E034
:104CA00060E080E00E94A5248091F00088608093FD
:104CB000F0000E94FB21FF91EF91BF91AF919F9176
:104CC0008F917F916F915F914F913F912F910F90B5
:104CD0000FBE0F901F90189519BC109293040E945C
:104CE000F82170CF8091E30087FD93E090939304C7
:104CF000B3CF1F920F920FB60F9211242F933F93B1
:104D00004F935F936F937F938F939F93AF93BF93D3
:104D1000CF93DF93EF93FF93D091E900DF70809101
:104D2000EC00C82FC17080FDC0E81092E9008091AE
:104D3000F000877F8093F00078940E94BD26109247
:104D4000E9008091F00088608093F000CD2BCF7057
:104D5000C093E900FF91EF91DF91CF91BF91AF91A7
:104D60009F918F917F916F915F914F913F912F9183
:104D70000F900FBE0F901F901895AAE2B0E0E3ECE1
:104D8000F6E20C945D2884E994E02091F100FC01A6
:104D90002193CF01F4E08C399F07B9F70E942722B5
:104DA0008091E80083FF1EC1809194049091950446
:104DB0009A3008F017C1E92FF0E0E35CF54D0C9450
:104DC0004828803899F0823809F00CC18091980405
:104DD0008F70873008F006C18093E9008091EB0066
:104DE00085FB882780F91092E90006C08091900425
:104DF00090919104911182609091E800977F909337
:104E0000E8008093F1001092F1008091E8008E7725
:104E1000E5C0882309F4D3C0823009F0E3C0809153
:104E200096048111D6C0809198048F702FEF280FBF
:104E3000263008F0D7C08093E9002091EB0020FFD6
:104E4000C8C0933031F48091EB0080628093EB0016
:104E5000C0C09091EB0090619093EB0021E030E0B6
:104E600001C0220F8A95EAF72093EA001092EA0027
:104E70008091EB008860EACF8111B4C01091960454
:104E80001F778091E3008078812B8093E3008091ED
:104E9000E800877F8093E8000E94D9248091E80091
:104EA00080FFFCCF8091E30080688093E30082E084
:104EB000111183E08093930495C08058823008F0EC
:104EC00091C080919604909197048C3D23E09207C5
:104ED000A1F583E08A838AE289834FB7F894DE01E3
:104EE000139620E03EE051E2E32FF0E050935700AC
:104EF000E49120FF03C0E295EF703F5FEF708E2FCB
:104F000090E0EA30C0F0C7968D939D932F5F2431D7
:104F100059F74FBF8091E800877F8093E8006AE2ED
:104F200070E0CE0101960E94E8238091E8008B7723
:104F30008093E80057C0C096E7CF609198047091C5
:104F40009904AE014F5F5F4F0E942823BC01892B5B
:104F500009F448C09091E800977F9093E800898118
:104F60009A810E944624E1CF8038E1F58091E800E3
:104F7000877F8093E80080918F048093F10045CF74
:104F8000811130C090919604923060F58091E800D4
:104F9000877F8093E80090938F040E94D9248091AA
:104FA0008F04882311F084E005C08091E30087FD21
:104FB000FACF81E0809393040E94122213C0809163
:104FC0009604813079F481E0933009F080E0809399
:104FD00091041092E9008091E800877F8093E800B7
:104FE0000E94D9248091E80083FF0AC08091E800E4
:104FF000877F8093E8008091EB0080628093EB00D4
:10500000AA96E3E00C9479280895CF9380919304B5
:105010008823A1F0C091E900CF709091EC00892F16
:10502000817090FD80E8C82B1092E9008091E80023
:1050300083FD0E94BD26CF70C093E900CF910895F3
:10504000AA1BBB1B51E107C0AA1FBB1FA617B707AE
:1050500010F0A61BB70B881F991F5A95A9F78095CA
:105060009095BC01CD01089597FB072E16F400948E
:1050700007D077FD09D00E94202807FC05D03EF418
:10508000909581959F4F0895709561957F4F0895F4
:10509000EE0FFF1F0590F491E02D09942F923F929F
:1050A0004F925F926F927F928F929F92AF92BF9238
:1050B000CF92DF92EF92FF920F931F93CF93DF93E4
:1050C000CDB7DEB7CA1BDB0B0FB6F894DEBF0FBE41
:1050D000CDBF09942A88398848885F846E847D848E
:1050E0008C849B84AA84B984C884DF80EE80FD8090
:1050F0000C811B81AA81B981CE0FD11D0FB6F89406
:10510000DEBF0FBECDBFED0108950F931F93CF9368
:10511000DF938230910510F482E090E0E0919E04EC
:10512000F0919F0430E020E0B0E0A0E0309799F4E7
:105130002115310509F447C0281B390B24303105EE
:10514000C0F58A819B816115710571F1FB01938323
:105150008283FE0111C04081518102811381481771
:105160005907F8F04817590799F4109761F012960B
:105170000C93129713961C933296CF01DF91CF9127
:105180001F910F91089500939E0410939F04F4CFF4
:105190002115310519F04217530718F49A01BD0182
:1051A000EF01DF01F801C2CF90939F0480939E042A
:1051B000D0CFFE01E20FF31F81939193225031096A
:1051C00039832883DACF20919C0430919D04232BCE
:1051D00041F4209102013091030130939D0420930A
:1051E0009C0420910001309101012115310541F409
:1051F0002DB73EB74091040150910501241B350B9A
:1052000040919C0450919D044217530708F0B5CF7C
:10521000241B350B2817390708F4AFCFBC016E5F8C
:105220007F4F2617370708F4A8CF640F751F7093B8
:105230009D0460939C04FA01819391939ECFCF9338
:10524000DF930097E9F0FC01329713821282C0913C
:105250009E04D0919F04DE0130E020E02097A1F46D
:1052600020813181820F931F20919C0430919D04F5
:105270002817390709F067C0F0939D04E0939C0458
:10528000DF91CF910895DA01AE17BF0708F040C053
:1052900012964D915C9113979D014115510599F717
:1052A000D9011396FC93EE9312974D915D91A40F43
:1052B000B51FEA17FB0779F4808191810296840F6C
:1052C000951FD90111969C938E9382819381139699
:1052D0009C938E931297B0E0A0E08A819B81009707
:1052E000B9F5FE0181919191E80FF91F80919C041D
:1052F00090919D048E179F0719F6109761F51092F3
:105300009F0410929E04D0939D04C0939C04B8CF38
:10531000B383A28340815181840F951FA817B907D9
:1053200071F44E5F5F4F8D919C911197480F591FFB
:105330005183408312968D919C9193838283211592
:10534000310509F0ADCFF0939F04E0939E0498CF10
:10535000DE01EC01C2CF13961C921E921297D3CF9E
:10536000FB01DC0104C08D910190801921F44150B2
:105370005040C8F7881B990B0895DC01CB01FC0154
:10538000F999FECF06C0F2BDE1BDF89A319600B49E
:105390000D9241505040B8F70895F999FECF92BD53
:1053A00081BDF89A992780B50895A8E1B0E042E060
:1053B00050E00C94BF29DC01A40FB51F41505040B0
:1053C00048F0CB01840F951F2E910E94EC2941508B
:1053D0005040D0F70895262FF999FECF92BD81BD98
:1053E000F89A019700B4021639F01FBA20BD0FB623
:1053F000F894FA9AF99A0FBE08950396272F0E94FF
:10540000EC290E94EB29252F0E94EC29242F0C94D3
:10541000EC290196272F0E94EC290C94EB29F89493
:10542000FFCFFD035F0462046504670469046B0435
:105430006D047104760479047C047E048004820483
:10544000840490049F04A204A504A704A904AB0447
:10545000AD04B104B604B904BC04BE04C004C20463
:10546000C40466086608970897082409C608C60891
:10547000C6084009B109C009C009E1260927F22779
:0E5480000927F2273C275D27F227B427C02713
:10548E000000A40420000000000000000000000046
:10549E00000000000000000000004D1E5E1E641E95
:1054AE0034010000000000004D1E5E1E641E30011F
:1054BE00AE000000AE000100000102030406070862
:1054CE00090A0B0C0D0E0F1011FFFFFFFFFFFFFF60
:1054DE00FFFFFFFFFFFFFFFFFFFFFFFFFFFFFFFFCE
:1054EE00FFFFFFFFFFFFFFFFFFFFFFFFFFFFFFFFBE
:1054FE00FFFFFFFFFFFFFFFFFFFFFFFFFFFFFFFFAE
:10550E00FFFFFFFFFFFFFFFFFFFFFFFFFFFFFFFF9D
:10551E00FFFFFFFFFFFFFFFFFFFFFFFFFFFF00008B
:10552E000E001C002A0038004300460054006200A2
:10553E0070007E008C009A00A800B600C400D20055
:10554E00E000E00DC40DB60D9A0D700D540D380D22
:10555E001C0D000D00190026003300401C40384081
:10556E00544070409A40B640C440E040E033E026DC
:10557E00E019010101010101010101010101010116
:10558E0001010101010101010101010101010101FD
:10559E0001010101010101010101010142030300A9
:1055AE00FF00FFFF70217421E921E421DF21732127
:1055BE000100FFDC959294939091E200E900EA00DD
:1055CE00B500B600B700CD008301CC008A01920170
:1055DE0094012102230224022502260227022A0216
:1055EE00B300B4006F007000818283E200E900EA2C
:1055FE0000B500B600B700CD008301CC008A019241
:10560E000194012102230224022502260227022AE6
:10561E0002B300B4006F0070008182832C182D1825
:06562E00381843180004C7
:00000001FF
