:100000000C94E8030C9420040C9420040C94200419
:100010000C9420040C9420040C9420040C942004D0
:100020000C9420040C9420040C942B220C94E721B3
:100030000C9428230C9420040C9420040C94200489
:100040000C9420040C9420040C9420040C942004A0
:100050000C9420040C9404230C9420040C9420048D
:100060000C9420040C9420040C9420040C94200480
:100070000C9420040C9420040C9420040C94200470
:100080000C9420040C9420040C9420040C94200460
:100090000C9420040C9420040C9420040C94200450
:1000A0000C9420040C9420040C9420040501098075
:1000B000A101850319012AB700150126B700950192
:1000C00075108100C0050C0901A101850419012AE0
:1000D000A002150126A002950175108100C005013E
:1000E0000906A1018506050719E029E71500250184
:1000F0009508750181020507190029EF15002501F2
:1001000095F075018102050819012905950575010C
:100110009102950175039101C00660FF0961A1017B
:100120000962150026FF00952075088102096315F4
:100130000026FF00952075089102C005010906A15F
:1001400001050719E029E7150025019508750181CA
:10015000029501750881010507190029FF15002680
:10016000FF00950675088100050819012905950508
:1001700075019102950175039101C0FD377A585AB6
:10018000000004E6D6B44602002101160000007407
:100190002FE5A3E005A401B85D003D8889C654366B
:1001A000C3174FE4FC5457B62529ADCB459BD30864
:1001B000DA8ACBB4A974F882CF0E2B8DD391BBB35E
:1001C000F003680D2AC83794FA1DF6471A2F73C03A
:1001D000BE0BF07A839619BFC727B8F6EDC82A6818
:1001E0007CE8F939890ACF1A1711FC8BB83E7E8753
:1001F0001462A2D4383A6A62D120389044640B0C5D
:10020000C648C0E740166DE3C696FCBDA07AF81E4E
:1002100014270CD6D2E5E3F1751A3B6A3D49F794F1
:10022000F845C8DE78A9D1AC70D6E0FBC72FBD3148
:100230009162DACDB4B0188127E45270B50D9A1DE1
:10024000BDFDC747D687B0A5ED5FE51C1B857E05C4
:100250006E7770E79713EA2E032197826B41E88D42
:1002600023D2D12376B0A6FFB4AA7CA9CB32A57243
:1002700021A92409F61CD6266302E0EB5BCC53A728
:100280006C694DBB37CBBF39B15E8EB9E582BB4AD5
:10029000CDC2D09011FCE947B4F331BF7F348BBAA3
:1002A00031134276738FD0CFF847C14E4DDE1F2DEC
:1002B00020AAC1B8965428589C530E629CDB9527FF
:1002C000BFCC6501FB0B1F4349AD467098245C35DC
:1002D00027E8C5B166C1379DB7D2176EFD581B8E92
:1002E00004BA5C9E063620295C1145CB75E7829ADC
:1002F0007A1E9EECCCE9508E730B59F1F8263CD255
:1003000097DAEA38C7E7BFA0B32CD3ADE6AB2D1C14
:10031000AA8AB013155D24B5C63381D63539FACF14
:10032000455F3714C7DD9D69AB213D5B9B03D965F4
:10033000BB4CA26C7845F937E4BF4EEDE78B36AB8A
:1003400018197350C6EA4D83E218D825693C262A4D
:10035000C00000FD5E7C06353D5C810001D403A534
:100360000B0000E2F6BA7BB1C467FB02000000009C
:1003700004595A010001000D03300D150D00000253
:100380000002000903300D150D0000030001000EEE
:1003900003300D150D000004000200F302300D15AE
:1003A0000D8B06050001000F03300D150D00000632
:1003B000000200F502300D150D0000070002000BD1
:1003C00003300D150D0000080001001003300D155D
:1003D0000D0000120002001103300D150D00001376
:1003E0000002001303300D150D000014000100156C
:1003F00003300D150D000015000000000011067DF2
:1004000012000029003A003B003C003D003E003F46
:100410000040004100420043004400450000004607
:10042000004700480035001E001F00200021002268
:1004300000230024002500260027002D002E002A7E
:100440000049004A004B002B0014001A0008001558
:100450000017001C0018000C00120013002F0030C1
:100460000031004C004D004E00390004001600071A
:100470000009000A000B000D000E000F00330034CD
:100480000028000000000000000000E10000001D46
:10049000001B00060019000500110010003600378F
:1004A000003800E5000000000052000000E000E31A
:1004B00000E20000000000000000002C000000002E
:1004C000000000E600E700E400500051004F00018A
:1004D0000001000100010001000100010001000114
:1004E0000001000100010001000000010001000105
:1004F00000010001000100010001000100010001F4
:1005000000010001000100010001000100010001E3
:1005100000010001000100010001000100010001D3
:1005200000010001000100010001000100010001C3
:1005300000010001000100010001000100010001B3
:1005400000010001000100010001000100010000A4
:100550000000000000000001000000010001000197
:100560000001000100010001000100010001000183
:100570000000000000010000000100010001000077
:100580000000000000000001000000000000000169
:100590000001000100010001000100010001000153
:1005A0000001000100010001000100010001000143
:1005B0000001000100000001000100010001000134
:1005C0000001000100010001000100010001000123
:1005D0000001000100010001000100010001000113
:1005E0000001000100010001000100010001000103
:1005F00000010001000100010001000100010001F3
:1006000000010001000100010001000100010001E2
:1006100000010001000100010001000000000000D5
:1006200000000001000000010001000100010001C4
:1006300000010001000100010001000100000000B4
:1006400000010000000100010001000000000000A6
:100650000000000100000000000000010001000196
:100660000001000100010009025B00030100A0FA83
:100670000904000001030101000921110100012208
:10068000400007058103080001090401000203007E
:100690000000092111010001222200070582032028
:1006A0000001070503032000010904020001030003
:1006B0000000092111010001226D000705840320BB
:1006C000000112010002000000088265B0800100F4
:1006D000010203011C037600690061006C003A000E
:1006E00066003600340063003200620033006300AD
:1006F0000000100357005400380030002D00420065
:10070000430000001603770069006C00620061007E
:100710002E007400650063006800000004030904F3
:1007200000000000000000000000000000000000C9
:1007300000000000000000000000000000000000B9
:10074000000000007E0F00D4FFFFFFC7000000780C
:1007500000000000000000002A2B2800000000001C
:100760000000000000000000000000290000000060
:100770002C1E3420212224342627252E362D3738CE
:10078000271E1F202122232425263333362E3738D7
:100790001F0405060708090A0B0C0D0E0F10111295
:1007A000131415161718191A1B1C1D2F3130232D61
:1007B000350405060708090A0B0C0D0E0F1011125F
:1007C000131415161718191A1B1C1D2F3130354C10
:1007D00011241FBECFEFDAE0DEBFCDBF04B603FEAB
:1007E00018C08091990390919A03A0919B03B091B6
:1007F0009C038730904BA740B04B59F4109299035B
:1008000010929A0310929B0310929C03E0E0F8E38D
:10081000099511E0A0E0B1E0E6EDF5E502C0059034
:100820000D92A437B107D9F723E0A4E7B1E001C0E6
:100830001D92A939B207E1F70E944F230C949C2A1C
:100840000C940000482F2091970390915E0357E08D
:10085000291302C080E0089530E0529FF001539FB9
:10086000F00D1124E15AFC4F8181681306C080818C
:10087000481303C085818111EECF2F5F3F4F277052
:10088000E7CFE8EDF0E080818E7F80831092E20078
:100890001092DA001092E100A0EEB0E08C9181603D
:1008A0008C9380818F77808319BCA7EDB0E08C9109
:1008B0008E7F8C9380818F7E808310922F0308958A
:1008C0002091E4003091E50095E6A9012091EC002B
:1008D000822F817020FF06C08091E80080FF06C053
:1008E00080E008952091E80022FD1AC08091540311
:1008F000882389F0853089F08091EB0085FD0FC059
:100900002091E4003091E50042175307F9F291502D
:10091000E1F684E0089582E0089583E0089581E09F
:1009200008958091560387FF13C08091E80082FFED
:1009300006C08091E8008B778093E80004C0809126
:1009400054038111F2CF0895809154038823D9F381
:100950008091E80080FFF8CF8091E8008E77ECCF9F
:10096000982F9093E900242F762F50E0891731F0CB
:100970007091EC002091ED005091F00021FD07C036
:100980009F5F973071F78093E90081E0089530917F
:10099000EB003E7F3093EB003091ED003D7F3093D4
:1009A000ED003091EB0031603093EB007093EC0080
:1009B0002093ED005093F0002091EE0027FDE0CF52
:1009C00080E00895B0E0A0E0E8EEF4E00C94DF29C8
:1009D000C8EDD0E088818F7E8883E7EDF0E08081EC
:1009E0008160808384E082BF81E080932F038881CF
:1009F0008E7F888302EE10E0F80110821092DA00F8
:100A000081EEC82ED12CF601108288818F778883E1
:100A100088818068888388818F7D888319BC109243
:100A2000540310925503109253031092520390EE08
:100A3000E92EF12CF70180818B7F80838881816092
:100A4000888342E060E080E00E94B004F60180818B
:100A50008E7F8083F80180818160808380818860BF
:100A60008083F70180818E7F808388818061888385
:100A7000CDB7DEB7E8E00C94FB29FC0180915C0364
:100A800090915D0386179707A0F06115710529F411
:100A90009091E8009E779093E80090E061157105D1
:100AA00051F4911108C08091E80082FF34C080E0C9
:100AB0000895BC01F2CF809154038823C1F18530A1
:100AC000C1F18091E80083FD30C08091E80082FD93
:100AD000EACF8091E80080FFE1CF8091F300209180
:100AE000F200382F6115710519F02830310558F0E2
:100AF00091E02830310509F090E02091E8002E7750
:100B00002093E800CBCF81918093F100615071096F
:100B10002F5F3F4FE7CF80915403882341F085300A
:100B200041F08091E80083FFBECF81E0089582E02C
:100B3000089583E0089508958091310308959C01FC
:100B40004FB7F8948091290390912A03A0912B0329
:100B5000B0912C034FBF821B930B08952FB7F894CD
:100B60008091290390912A03A0912B03B0912C032B
:100B70002FBF0895A3E0B0E0E0ECF5E00C94E52988
:100B8000209126033091270328173907A1F090936D
:100B9000270380932603E0912403F09125033097E7
:100BA00051F024E029839B838A830680F781E02D1E
:100BB000CE01019609952396E2E00C94012AA3E068
:100BC000B0E0E5EEF5E00C94E529209122033091A8
:100BD000230328173907A1F090932303809322035E
:100BE000E0912403F0912503309751F023E029830D
:100BF0009B838A830680F781E02DCE0101960995BB
:100C00002396E2E00C94012AE0912403F09125035D
:100C1000309729F00190F081E02D0995089580E04A
:100C20000895B0E0A0E0E7E1F6E00C94DD298FEF55
:100C30009FEF4430510508F469C040912D0341FBFA
:100C4000882780F990E0880F991F42FB002700F960
:100C500010E0000F111F000F111F802B912B40FB84
:100C6000CC24C0F8D12C8C299D2943FB222720F9C4
:100C7000C22FE0E0DE2F53E0CC0FDD1F5A95E1F7E5
:100C80008C2B9D2B44FBAA27A0F9B0E0E4E0AA0F2F
:100C9000BB1FEA95E1F78A2B9B2B45FBEE27E0F97A
:100CA000F0E0A5E0EE0FFF1FAA95E1F78E2B9F2B3A
:100CB00046FB222720F930E0B6E0220F331FBA9519
:100CC000E1F7822B932B47FB222720F930E0369562
:100CD000322F222737952795822B932B20912E0395
:100CE000322F3170F32EE82EF92A26952170B22E7C
:100CF000BB0CA82EBF28C501BB0CAA0BBB0BFB016C
:100D000080839183A283B38390E080E0CDB7DEB788
:100D1000EAE00C94F9298091F3029091F402909307
:100D20000901809308010895E2E6F2E090E080E096
:100D300068E271E24FE451E22EE930E277836683A4
:100D400051874087338722879587848701963E960F
:100D50008830910599F7089580E00895F894E82F78
:100D6000E295EF70F0E031A1282F2F7081E090E044
:100D700001C0880F2A95EAF7982F9095932391A3A5
:100D800092A1892B82A37894089590912D0392FFCC
:100D900006C0282F28712830F9F4877F846093FFDC
:100DA00006C0282F28712831F1F4877E84612091B4
:100DB0002E0320FF06C0382F38713830D9F4877FD2
:100DC000816021FF06C0282F28712831D1F4877E49
:100DD000816194FD877E0895282F24712430F9F6CF
:100DE0008B7F8860DCCF282F2471243101F78B7E24
:100DF0008861DDCF382F3171313019F78E7F8860EF
:100E0000E0CF282F2171213121F78E7E8861E1CF3B
:100E100082389105B9F1B0F48133910509F47DC0B0
:100E200048F48932910509F46DC08A32910509F4BC
:100E30007BC008958533910509F45FC0893391051E
:100E400009F10895833E9105D9F138F4803E91056A
:100E500029F1823E910579F10895863E9105D9F1F7
:100E6000873E910509F43EC0843E910541F52091ED
:100E70002E0321FF24C080912D0384FD19C087EE2D
:100E800090E0089520912D03237009F05AC020911D
:100E90002E0323FF14C089E290E0089520912D03D2
:100EA00020FD38C030912E0330FF09C024FF43C01D
:100EB00090E080E0089520912D0322FDF7CF089562
:100EC00020912D0322FD3AC030912E0330FD39C010
:100ED00024FFF5CFEDCF20912D0323FFF0CF24FD8C
:100EE000E7CFCDCF20912D0323FD2EC030912E03CF
:100EF00031FFEECF84EE90E0089520912D0325FF81
:100F0000DECFC9CF20912D0325FD21C020912E03D6
:100F100023FFD5CF89E390E0D2CF20912D0326FF88
:100F2000CECF8AE290E0089520912D0326FFC7CF0F
:100F300081E390E0089583EE90E0089582EE90E0E2
:100F4000089580EE90E0089586EE90E0089585E3A0
:100F500090E008951F93CF93DF930E940807EC0160
:100F6000C11580E5D807F0F5C11580E4D80708F071
:100F70009CC0C03ED10520F5CD3CD10508F082C013
:100F8000C83AD10578F4C53AD10508F073C0C1302C
:100F9000D10519F1209709F1C430D105F0F4D0E062
:100FA000C0E01BC0C33CD105D0F7C85AD0E0CC0F7D
:100FB000DD1FC95EDE4F0990D881C02DD4640DC0FD
:100FC000C11580E2D80708F0D1C0C11581E0D8076B
:100FD00008F05AC0C83ED10510F7CE01DF91CF917D
:100FE0001F910895C03682E5D80718F5C03482E510
:100FF000D80708F06BC0C03282E5D80708F05FC0A0
:10100000C11582E5D80708F497C02C2F26952695A0
:1010100080E2289F900111248C2F8370C1E0D0E0E2
:1010200002C0CC0FDD1F8A95E2F7C22BD32BDD68FF
:10103000D4CFC03A82E5D80760F4C03882E5D8073B
:1010400008F459C0CF71D0E0DC2FCC27C46FD06A30
:10105000C4CFC03C82E5D80708F462C0C03E82E538
:10106000D80708F09CCFDC2FCC27CC27DF71C06FCE
:10107000D06AB3CFC55AD0E0CC5EDE4FC881D0E095
:10108000D064ABCFD065A9CF8D2F0E94C506182F95
:10109000CE0199270E940807C12FD0E0DC2FCC2772
:1010A000CC27DF71C82BD92B98CFCE0199270E946E
:1010B0000807CC27DF70C82BD92BD06A8ECFCF7111
:1010C000D0E0DC2FCC27C16FD06A87CF2C2F26959C
:1010D0002695277080E2289F900111248C2F837021
:1010E000C1E0D0E002C0CC0FDD1F8A95E2F7C22B31
:1010F000D32BDC6872CF2C2F26952695277080E2A3
:10110000289F900111248C2F8370C1E0D0E002C091
:10111000CC0FDD1F8A95E2F7C22BD32BDA685DCFA7
:101120008C2F8F710E94C506C82FD0E0DC2FCC27F2
:10113000CC27DF71D06251CF8C2F8F710E94C506F2
:1011400055E0D695C7955A95E1F7CF70D0E0DC2FE2
:10115000CC27282F30E084FF05C044E0220F331F46
:101160004A95E1F7C22BD32BD06937CF8D2F8F71E2
:101170000E94C506182FCE0199270E940807C12F8B
:10118000D0E0DC2FCC27CC27DF71C82BD92BD2CFD6
:101190008091ED01882331F01092ED011092EC0165
:1011A0001092EB010895CF93C82F80912E0382FFF8
:1011B0000CC08091ED018C1741F00E94AE05909318
:1011C000EC018093EB01C093ED01CF9108959091D4
:1011D000ED01292F282361F0809589238093ED016B
:1011E000882339F00E94AE059093EC018093EB01C7
:1011F000089590E080E0F8CF80959091980398232F
:1012000090939803089580959091D202982390939B
:10121000D20208959091D202892B8093D202089530
:101220001092CA011092C9011092C80108958091CC
:10123000F5029091F602892B89F00E94AE0520916B
:10124000EB013091EC01AC01421B530B81E020918A
:10125000F5023091F6024217530708F480E08170DE
:1012600008959091C701292F282321F08095892383
:101270008093C701089590910B019923D1F090912B
:101280002D0397FF16C0E82FE695E695E695EE311B
:10129000E0F4F0E0EA58FE4F282F277081E090E05C
:1012A00001C0880F2A95EAF780959281892382836D
:1012B0000895E8E7F1E09191891303C0DF011197E8
:1012C0001C9291E0EE37F907B1F7089590910B0168
:1012D0009923C1F090912D0397FF14C0E82FE69554
:1012E000E695E695EE31F8F4F0E0EA58FE4F8770A7
:1012F00021E030E001C0220F8A95EAF78281822B3B
:1013000082830895A8E7B1E0EFEF90E02D91821776
:1013100051F0EF3F19F4211101C0E92F9F5F963082
:10132000A9F7EF3F09F408950E2E000CFF0BEA58C1
:10133000FE4FE6CF8091970390915E03981301C012
:1013400008958F5F8770FACF292F963078F5813115
:1013500068F590E031E1239F800D911D1124682FE5
:10136000677023E0969587952A95E1F7FC01EE0FCB
:10137000FF1FE80FF91FE756FE4F50E040E080E006
:10138000219130E0062E02C0369527950A94E2F7A7
:1013900021703327042E01C0220F0A94EAF7822B12
:1013A0004F5F5F4F4330510559F7089580E008952E
:1013B000292F963098F5813188F590E031E1239F0F
:1013C000800D911D1124282F277041E001C0440F8A
:1013D0002A95EAF723E0969587952A95E1F7FC018F
:1013E000EE0FFF1FE80FF91FE756FE4F30E020E039
:1013F00070E05191DF011197CB01022E02C096954A
:1014000087950A94E2F78170819585278423852743
:101410008C932F5F3F4F2330310559F70895809308
:101420000C02089590910C0221E030E0F90101C016
:10143000EE0F8A95EAF7D90102C0AA0FBB1F6A9581
:10144000E2F7EA2B01C0220F4A95EAF7892F8E2393
:10145000E81305C0292B822F0E940F0A08952095BA
:101460002923F9CF21E030E001C0220F8A95EAF765
:10147000209580910C0282230E940F0A089590917A
:10148000CA01809589238093CA01282F277069F4A7
:10149000891759F090912E0392FF07C08695869583
:1014A00086950E94320A0E941009089521E030E0DA
:1014B00001C0220F8A95EAF780910C02822B0E94CC
:1014C0000F0A089590912E0392FF10C098E0899F13
:1014D00090011124622B6093CA010E94560A0E9457
:1014E000AE059093C9018093C80108950E94560AE1
:1014F000089580930B02089592959F70963091F015
:1015000058F4925F9F70923058F4803F19F030F495
:10151000883E30F481E008959A5FF4CF843FD1F3A0
:1015200080E00895883EB0F3813FD1F7F3CF9C016E
:101530003A9521153F4150F5FC01EE27F170BC01B1
:1015400066277270AC01442754709C0122273870C2
:1015500094FF0EC080E1EF2B09F480E0672B09F0C7
:101560008062452B09F08064232B89F08068089500
:1015700081E0EF2B09F480E0672B09F08260452BB6
:1015800009F08460232B19F08860089580E00895A5
:101590000F931F93CF93DF938B01EA019091540334
:1015A000943061F58093E9008FEF9091E8008150CD
:1015B00095FD06C095ED9A95F1F700008111F5CFE4
:1015C0008091E80085FF1AC00E946004811111C05B
:1015D0008091E80085FD06C08091E8008E778093B9
:1015E000E800F2CFF80181918F018093F1002197FB
:1015F00079F78091E8008E778093E800DF91CF91B2
:101600001F910F91089543E050E0BC0184E00E94D7
:10161000C80A0895CF93DF93EC0180910B018111EB
:1016200011C048E050E0BE0181E00E94C80A80E29B
:10163000FE01A2E3B3E001900D928A95E1F7DF91FC
:10164000CF91089580912D0387FF05C040E284E08B
:1016500050E0BE01EACF48E081E0FACF81E080931C
:10166000E00080E28093D8001092C9008FE19EE4F0
:101670000197F1F700C0000087E090EBDC01809358
:10168000990390939A03A0939B03B0939C0388E1E2
:101690009CE00FB6F894A895809360000FBE9093DD
:1016A0006000FFCF019708F40895EFE9FFE031975C
:1016B000F1F700C00000F6CFCF93DF93C1E0D3E095
:1016C00060E0CE010E94602A2196C11584E0D8070F
:1016D000B9F7DF91CF9108951F93CF93DF93122F26
:1016E0008330E0F46630D0F44131C0F4C42FD0E050
:1016F000CC0FDD1F92E2699FC00DD11D11249CEC1F
:10170000899FC00DD11D1124632FCE0189960E949F
:10171000602A612FCE018A960E94602ADF91CF91C4
:101720001F910895CF93C82F6FEF81116DED85E262
:1017300090E00E94602A6FEFC1116CE986E290E0B0
:101740000E94602A6FEFC1116EE287E290E00E9472
:10175000602ACF9108959B01883070F49AE0899FA8
:10176000B00111246F547D4F4AE050E0C9010E943E
:10177000322A90E080E008958FEF9FEF0895AAE06D
:10178000B0E0E5ECFBE00C94E5299C0137552F3FD8
:10179000310509F068F4BE016F5F7F4F0E94AB0B0B
:1017A000892B31F489859A852A96E2E00C94012AE6
:1017B00080910B0390910C03F7CF0F931F93CF935E
:1017C000DF93833030F5663020F5413110F5C42FBA
:1017D000D0E0CC0FDD1F22E2629FC00DD11D11248D
:1017E0003CEC839FC00DD11D1124CE0189960E942F
:1017F000422A082F10E0102F0027CE018A960E945F
:10180000422A9801282BC901DF91CF911F910F9196
:10181000089590E080E0F8CF462F20914C0230915F
:101820004D02232B99F4703F39F4603F79F4809195
:101830004E0290914F020895763040F4613130F4B9
:10184000833020F4672F0E94DD0B089590E080E044
:101850000895CF92DF92FF920F931F93CF93DF9360
:101860006C0100910C0280910B02082BC2E0D0E0C9
:1018700010E0FC2EC8010C2E02C0959587950A94A5
:10188000E2F780FD0CC02197A0F7F12C8F2DDF919E
:10189000CF911F910F91FF90DF90CF900895B601E7
:1018A0008C2F0E940C0C0E94AA07019761F3EECFC7
:1018B000CF93DF93EC010E94290CBE010E940C0C17
:1018C0000E94AA07DF91CF910895FC012481222371
:1018D00039F0808191810E94580C0E947C0A089501
:1018E00080E00895A6E0B0E0E8E7FCE00C94E4298D
:1018F00049835A8349815A819923A1F0222391F087
:10190000CA010E94290C182F682F89819A810E9490
:10191000D80969817A81812F0E940C0C2696E3E018
:101920000C94002ACA010E94A409182FF2CFFC01CE
:10193000262F4081518162817381848195810E942B
:10194000720C08950F931F93CF93DF9303EF12E070
:10195000CDE8D2E0CE010E94422AF80161918F01C8
:10196000681719F0CE010E94602A2196C13BF2E06F
:10197000DF0781F7DF91CF911F910F9108950F93AA
:101980001F93CF93DF9303EF12E0CDE8D2E0CE01B7
:101990000E94422AF80181938F012196C13BF2E017
:1019A000DF07A9F7CDE7D3E0FE0185919491009779
:1019B00011F0FC0109952C96F4E0CD30DF07A1F77A
:1019C000DF91CF911F910F91089585E290E00E94E1
:1019D000422A8D3D89F486E290E00E94422A8C39A9
:1019E00059F487E290E00E94422A91E08E3209F099
:1019F00090E0892F8170089580E0FCCF90912E03B4
:101A000092FB222720F9281779F080FB92F9909316
:101A10002E0360912D0370912E0384E090E00E94CC
:101A20007E2A82E00E943F0A0895DA019C012E5F1F
:101A30003F4FF90145915491F90125913491A21735
:101A4000B30758F0FC013496859194910E94222AA4
:101A50000E94A20C90E080E008958FEF9FEF089520
:101A6000DB01FC013296259134914217530758F05F
:101A7000FC01349665917491A901CD010E94222A3E
:101A800090E080E008958FEF9FEF089590E080E070
:101A90000E944A2A863E9E4F19F40E94E50C089542
:101AA00080E008954F925F926F927F92AF92BF92C3
:101AB000CF92DF92EF92FF920F931F93CF93DF931A
:101AC000CDB7DEB768970FB6F894DEBF0FBECDBFB7
:101AD0008E010F5F1F4F88E1F80111928A95E9F797
:101AE0009DE4E92E91E0F92E6801AA24A394B12C7B
:101AF000F70181917F018F3F09F452C0F894E82FDC
:101B0000E295EF70F0E021A18F70A50102C0440FB3
:101B1000551F8A95E2F7CA01922F982B91A392A1A3
:101B20008095892382A3789400C0E3E5F1E041E049
:101B300050E060E070E0412C512C320181918F3FE8
:101B400089F0A82FA295AF70B0E090962C9130E06C
:101B50008F7002C0359527958A95E2F7DB01CA019F
:101B600020FF03C080E090E0DC01482A592A6A2A5D
:101B70007B2A440F551F661F771F81E0E436F80764
:101B8000E9F6F701319780818F3F11F00E94AE0690
:101B9000E0EAEA95F1F7F6014082518262827382AF
:101BA000F4E0CF0ED11C43E5E41641E0F40609F061
:101BB0009FCF48E150E0B80183EF91E00E94152AE1
:101BC000892B81F188E1F801A3EFB1E001900D923A
:101BD0008A95E1F781E08093F2010E94AE0590932F
:101BE000F1018093F0018091F0019091F1010E9448
:101BF0009F050597D8F048E150E063EF71E084E37A
:101C000092E00E94152A892B39F188E1E3EFF1E097
:101C1000A4E3B2E001900D928A95E1F781E0109281
:101C2000F20105C08091F2018111DDCF80E068965C
:101C30000FB6F894DEBF0FBECDBFDF91CF911F91DD
:101C40000F91FF90EF90DF90CF90BF90AF907F907B
:101C50006F905F904F90089580E0E1CF8091D20225
:101C600090919803892B809376018091ED018823D0
:101C700019F18091F5029091F602892B29F00E94CA
:101C8000170981110E94C808809176019091ED0199
:101C9000892B8093760180910B018823E1F180915B
:101CA0002D0387FF38C08EE1E8E7F1E090E0815036
:101CB000A0F591110E94C80840E250E06BEC71E081
:101CC00086E791E00E94152A892B21F180E2E6E760
:101CD000F1E0ABECB1E001900D928A95E1F7E09173
:101CE0002403F09125033097A9F080910B018823FC
:101CF00059F080912D0387FF07C080917601809372
:101D0000770186E0809376010280F381E02D86E7FB
:101D100091E00995089586E0C7CF2191222339F2F9
:101D20009F5FC5CFCF93DF93EC01EA85FB853097AA
:101D300019F06C857D8509958B810E94FC088C814A
:101D40000E9403090E942E0E86E0FE0111928A95E0
:101D5000E9F7DF91CF910895CF93DF93EC018D8167
:101D600081FD15C082608D83809198039B81892BB2
:101D7000809398038C810E940A090E942E0EE885A8
:101D8000F985309721F06C857D85CE0109951092FB
:101D90002103109220038D8180FD03C0CE010E949B
:101DA000920EDF91CF91089580910A01877F8093F1
:101DB0000A0182E00E94FC0880910A0184FF06C0AB
:101DC0008F7E80930A0182E00E940A0980910A01B5
:101DD00085FF06C08F7D80930A0180E20E940A0978
:101DE0000E942E0E08951092D20280910B01E8E716
:101DF000F1E08823B1F080912D0387FF12C08EE1BE
:101E0000DF011D928A95E9F790E080E00E94DF05EE
:101E100090E080E00E94BA05109298030E942E0E76
:101E2000089586E0EDCFAAE2B0E0E9E1FFE00C948E
:101E3000E42986E593E02091F100DC012D93CD01AA
:101E4000B3E08E359B07B9F780915703833009F4CF
:101E500072C0B8F4813009F449C0823009F4B3C0CB
:101E60008091E80083FF96C28091560390915703BA
:101E70009A3008F08FC2E92FF0E0E256F54D0C944D
:101E8000C8298A3009F48EC08B3009F471C08930BA
:101E900039F780915603813219F780915A03909156
:101EA0005B03009711F00297D9F68091E800877FD5
:101EB0008093E8008091E80082FF38C09091F300A1
:101EC0008091F200029731F48091F100813011F09D
:101ED000863021F48091F100809331038091E800F5
:101EE0008B778093E8000E949104BACF80915603CB
:101EF000813A09F0B5CF8091E800877F8093E800B0
:101F000080915A0390915B03892B61F460E282E334
:101F100093E070E00E943D058091E8008B7780930C
:101F2000E8009ECF60E090E080E0F3CF8091540322
:101F30008111C0CF95CF80915603813A09F090CF9F
:101F400080915A0390915B03892B09F089CF80918E
:101F5000E800877F8093E8008091E80080FFFCCF55
:101F600080910B018093F1008091E8008E77B9CFCA
:101F700080915603813209F073CF80915A0390917A
:101F80005B03892B09F06CCF8091E800877F8093F9
:101F9000E8000E9491048091580380930B010E94F5
:101FA000F30E5ECF80915603813209F059CF8091B4
:101FB000E800877F8093E8000E9491048091590394
:101FC000809330034DCF80915603813A09F048CF7A
:101FD0008091E800877F8093E8008091E80080FF8F
:101FE000FCCF80913003BECF803899F0823809F061
:101FF000D1C180915A038F70873008F0CBC1809394
:10200000E9008091EB0085FB882780F91092E900B8
:1020100006C0809152039091530391118260909178
:10202000E800977F9093E8008093F1001092F10010
:102030008091E8008E77AAC1882309F498C1823084
:1020400009F0A8C18091580381119BC180915A0366
:102050008F702FEF280F263008F09CC18093E90085
:102060002091EB0020FF8DC1933031F48091EB0083
:1020700080628093EB0085C19091EB00906190931A
:10208000EB0021E030E001C0220F8A95EAF72093AF
:10209000EA001092EA008091EB008860EACF81119B
:1020A00079C1109158031F778091E3008078812BCC
:1020B0008093E3008091E800877F8093E8000E948E
:1020C00091048091E80080FFFCCF8091E30080685C
:1020D0008093E30082E0111183E0809354035AC19E
:1020E0008058823008F056C120915803309159032E
:1020F0002C3DE3E03E07A1F583E08A838AE28983F1
:102100004FB7F894DE01139620E03EE051E2E32F52
:10211000F0E050935700E49120FF03C0E295EF7088
:102120003F5FEF708E2F90E0EA30C0F0C7968D933E
:102130009D932F5F243159F74FBF8091E800877F2F
:102140008093E8006AE270E0CE0101960E943D05AE
:102150008091E8008B778093E8001CC1C096E7CFA0
:1021600080915A0390915B03432F552743305105CB
:1021700009F44AC078F54130510509F485C08BE572
:1021800090E0E7E6F6E04230510509F003C1209106
:10219000E800277F2093E80020915C0330915D03E5
:1021A0008217930708F49C0140E02115310509F0DE
:1021B00070C041116EC08091E80082FDC9CF80914E
:1021C0005403882329F2853019F28091E80083FFB7
:1021D000F2CFBECF4132510509F447C0423251051A
:1021E00009F0D8C08330910508F0D4C0FC01EE0F8F
:1021F000FF1FE959FE4F0190F081E02D8C599E4F51
:10220000DC018C9190E01DC0332721303105E9F0CD
:102210002115310579F022303105F9F023303105EF
:1022200009F0B8C0E4EDF6E0E4918E2F90E0E4ED23
:10223000F6E007C0ECE1F7E0E4918E2F90E0ECE1EE
:10224000F7E0009709F4A6C0A2CFE4E0F7E0E4913C
:102250008E2F90E0E4E0F7E0F4CFE2EFF6E0E491D7
:102260008E2F90E0E2EFF6E0ECCF8330910508F09E
:1022700091C0880F991FFC01E359FE4F0190F08136
:10228000E02D89E090E083CF82E190E0E2ECF6E09F
:102290007ECF80915403882309F45ACF853009F406
:1022A00057CF8091E80083FD53CF8091E80082FDF5
:1022B00082CF8091E80080FF78CF9091F3008091E9
:1022C000F2002115310519F08830910550F041E0F8
:1022D000089709F040E08091E8008E778093E8004D
:1022E00064CF44914093F100319621503109019619
:1022F000E8CF803809F04EC08091E800877F809356
:10230000E800809155038093F10092CE811142C084
:10231000109158031230F0F58091E800877F809388
:10232000E800109355030E949104112311F084E0FA
:1023300005C08091E30087FDFACF81E080935403CC
:1023400042E061EC81E00E94B00442E261EC84E092
:102350000E94B00442E261EC82E00E94B00442E2DA
:1023600060EC83E00E94B0048091540313C080911C
:102370005803813079F481E0933009F080E0809354
:1023800053031092E9008091E800877F8093E80072
:102390000E9491048091E80083FF0AC08091E800C8
:1023A000877F8093E8008091EB0080628093EB0050
:1023B000AA96E3E00C94002AE3EFF2E0128E138E6B
:1023C0008FEA90E09183808385E0848F28E833E171
:1023D0003383228322E330E0378B268B28EC30E0F6
:1023E000318F208F158E178E168E20E530E031A3A9
:1023F00020A382A30E94A20C0E94F30E10922E032F
:1024000010922D03EEE2F3E080818460808360917E
:102410002D0370912E0384E090E00E947E2A0E949A
:10242000BF0C0895AAE0B0E0E8E1F2E10C94DA29EB
:10243000A0901B03B0901C0381E090E090931C03DC
:1024400080931B0383E0C82E84E0D82E00E0760141
:1024500010E015C0F40125913491472D612F802F94
:102460000E946C0B82E0880E911C739481E17812BB
:10247000F1CF82E2E80EF11C1F5F163019F0470120
:10248000712CE8CF0F5F8CECC80ED11C0330F9F62D
:102490000E94DC111A8219821C821B821E821D82FC
:1024A00018861F8288EC90E09A87898701EB12E0FA
:1024B0004AE050E0B801CE0101960E94842A065FEE
:1024C0001F4F013083E0180799F7B0921C03A092C8
:1024D0001B032A96EDE00C94F62980E00E94920BF3
:1024E00060E088E290E00E94602A0E9412120E943E
:1024F0005C0B81E00E94920B0895CF92DF92EF92E5
:10250000FF928FEF9FEF4430510508F46CC0FB0140
:10251000C080D180E280F3800E94F30E80912D0371
:10252000C0FA80F9B701A60176956795579547954A
:1025300040FB81F9B701A60122E076956795579592
:1025400047952A95D1F740FB82F9B701A60133E000
:1025500076956795579547953A95D1F740FB83F95E
:10256000B701A601E4E07695679557954795EA95FA
:10257000D1F740FB84F9B701A601F5E076956795A0
:1025800057954795FA95D1F740FB85F9B701A60114
:10259000A6E07695679557954795AA95D1F740FBA4
:1025A00086F9B701A601B7E07695679557954795E7
:1025B000BA95D1F740FB87F980932D0380912E03C4
:1025C000D0FA80F9D1FACC24C0F8C0FA81F980930E
:1025D0002E0360912D0370912E0384E090E00E9401
:1025E0007E2A90E080E0FF90EF90DF90CF900895FA
:1025F0000E94F30E2FEF84E39CE021508040904036
:10260000E1F700C0000088E19CE00FB6F894A895BF
:10261000809360000FBE90936000FFCF882321F06D
:102620000E94FC080E942E0E0895882339F0909194
:102630009803982B909398030E942E0E0895882358
:1026400021F00E9403090E942E0E0895882321F094
:102650000E940A090E942E0E0895882309F44DC095
:10266000823879F40E94040681FF47C089E30E9402
:1026700066090E942E0E89E30E943B090E942E0EDD
:102680000895833859F40E94040680FF36C083E51C
:102690000E9466090E942E0E83E5EECF843859F41D
:1026A0000E94040682FF29C087E40E9466090E94F6
:1026B0002E0E87E4E1CF9CEF980F913AE8F290E27A
:1026C000980F983050F4877091E001C0990F8A9567
:1026D000EAF7892F0E940309D1CF9BE5980F933029
:1026E00028F490E080E00E94DF050895885A8B313D
:1026F00020F490E080E00E94BA050895CF93DF9324
:10270000EC010E942D13CE010E94970A9E01205ECB
:1027100031092830310510F0CD2B29F40E941F1308
:10272000DF91CF9108950E940E13FACFCF93C82F57
:102730008823C9F08238C9F40E94040681FD13C0C1
:1027400089E30E9466090E942E0E2FEF87EE93E028
:10275000215080409040E1F700C0000089E30E94D2
:102760003B090E942E0ECF9108958338A1F40E9458
:10277000040680FDF8CF83E50E9466090E942E0EB4
:102780002FEF81EE94E0215080409040E1F700C0AF
:10279000000083E5E4CF8438A1F40E94040682FDA2
:1027A000E2CF87E40E9466090E942E0E2FEF81EE91
:1027B00094E0215080409040E1F700C0000087E4A1
:1027C000CECF8CEF8C0F813A88F580910B01882356
:1027D00001F180912D0387FF1CC0EC2FE695E69553
:1027E000E695F0E0EA58FE4F828190E04C2F47706A
:1027F00021E030E002C0220F331F4A95E2F7822326
:102800009323892B79F08C2F0E943B090E942E0E76
:1028100009C0E8E7F1E08191C817A9F321E0EE379C
:10282000F207C9F78C2F0E9466099BCF80E28C0FBC
:10283000883048F4C77081E001C0880FCA95EAF774
:102840000E940A098ECFEBE5EC0FE33040F4F0E094
:10285000EC5EFE4F808190E00E94DF0584CFC85A75
:10286000CB3108F080CFEC2FF0E0EE0FFF1FE95ED8
:10287000FE4F808191810E94BA0575CF1F93CF933F
:10288000DF93182FC0911303D0911403893321F0E3
:10289000C0911103D0911203812F0E9496132097AB
:1028A00039F4812F0E942D13DF91CF911F9108954C
:1028B0008FE99FE00197F1F700C000002197EFCF6B
:1028C000B0E0A0E0E6E6F4E10C94DD29EC018AE05A
:1028D000A82E2881222309F48FC02130C9F59981BF
:1028E0008A81913021F422960E943E1405C09230D4
:1028F00029F422960E9496132196EBCF933021F46F
:1029000022960E942D13F8CF943011F02196F4CF27
:10291000229630E020E0AE014F5F5F4F8053990B6D
:102920008A30910550F02150310930F38FE99FE052
:102930000197F1F700C00000F6CFA29EB001A39E60
:10294000700D11249C01260F371F8981EA01E3CF06
:10295000E22FF0E0E05BF84FB490822F86958695E9
:10296000869590E0FC01E05CF84FE4902770F12C34
:10297000022E02C0F594E7940A94E2F731E0E322D4
:10298000FF24FC01E05DF84FC490D12C022E02C060
:10299000D594C7940A94E2F731E0C322DD24FC0108
:1029A000E05EF84F049110E002C0159507952A9556
:1029B000E2F701701127E114F10419F081EE0E9491
:1029C0009613C114D10419F086EE0E9496138B2D34
:1029D0000E943E14C114D10419F086EE0E942D13FA
:1029E000E114F10419F081EE0E942D130115110577
:1029F00009F482CF8CE278CFCDB7DEB7EAE00C9451
:102A0000F929B0E0A0E0E7E0F5E10C94DD297C01D4
:102A10005B01C42FD22FFC0185818823A9F040934C
:102A20001F030E94AE0590931E0380931D03C77081
:102A300081E001C0880FCA95EAF70E942613CDB73E
:102A4000DEB7EAE00C94F92910911F03141338C083
:102A500080911D0390911E030E949F056C01B70198
:102A6000C5010E94BF0BC816D90650F5C0E2CD0FB4
:102A70001D17C1F080E2810F883048F4177081E0A3
:102A8000012E01C0880F0A94EAF70E941F13C83074
:102A900048F481E09D2F977001C0880F9A95EAF75E
:102AA0000E942613802F0E943E14C83040F6D77033
:102AB00081E001C0880FDA95EAF70E941F13BFCFAB
:102AC000C77081E001C0880FCA95EAF7F6CFCF93AF
:102AD000DF93EC010E94970A9E01205E31092830A5
:102AE000310510F0209741F40E9426138C2F0E948C
:102AF0009613DF91CF9108950E941513F7CF6623A7
:102B000029F0209198032260209398039C01305271
:102B10002115304308F499270E9467150895B0E005
:102B2000A0E0E5E9F5E10C94DF296C018B01E42ECE
:102B300080910A0182FF87C0C0911903D0911A03C6
:102B4000CC15DD0521F0C114D10409F07CC08091C1
:102B50000A018B7F80930A0181FD6EC0809117036B
:102B600090911803A801481B590B81E0209108019E
:102B7000309109014217530708F480E08170F82E64
:102B800080910A01F0FA81F980930A01FE0183E045
:102B9000F695E7958A95E1F7EE71FF27ED52FD4F27
:102BA00020813181AE014F70552781E090E002C055
:102BB000880F991F4A95E2F7FF2009F43FC0822B46
:102BC000932B918380838091D20281FF08C08091F2
:102BD0000A01806180930A0182E00E9403098091CA
:102BE000D20285FF08C080910A01806280930A01A9
:102BF00080E20E9403096F2DCE010E947F15EE2016
:102C000031F080910E0385FF02C086FF30C08091B5
:102C10001103909112030E94520B8091190390911D
:102C20001A039C0130522115304308F499270E9461
:102C30007E130E94D40E17C081E0A0CF809590959E
:102C400082239323BECFC601905281159043A0F4F6
:102C5000C60199270E947E138091190390911A034F
:102C60008C159D0531F31093180300931703CDB70E
:102C7000DEB7E8E00C94FB29C601ECCFA4E0B0E09D
:102C8000E4E4F6E10C94DB297C01DC0114968C91E0
:102C9000882309F4EFC261E0C7010E94970C8C0100
:102CA000F7018581882309F1809120039091210308
:102CB0000097D9F008171907C1F0FEE08F9FC001F7
:102CC0001124FC01E959FD4F2081246020838E5995
:102CD0009D4FDC010D931C930E94AC0E1092980343
:102CE00061E0C7010E94970C8C01F7018581882360
:102CF00009F4B1C0980137572038310508F0ABC04E
:102D0000D02EFFE0F01708F4A5C28FEF93E00E94E9
:102D1000422A81119FC201E013E0D11036C019820E
:102D20001A821B821C8299249A9468013FEFC31A6D
:102D3000D30AC8010E94422A89831A82882309F48F
:102D400089C2813009F081C0580142E0A40EB11C53
:102D5000C6010E94422AC82E8A83882309F47AC2B7
:102D6000C5010E94422AD82E8FEF8C0D8330D8F4F3
:102D7000580153E0A50EB11CDB82DD2021F0CE010D
:102D800001960E9460148501D0CF011524E012073E
:102D900009F460C2C8010E94422A811101C0DA947C
:102DA0000F5F1F4FBACF8BEF8C0D833030F5C8010A
:102DB0000396DB825C01DD2031F35801A4E0AA0E0A
:102DC000B11C0E94422A8C838823E9F28B819C816A
:102DD0008130BFEF9B0710F0982F8827E6E0CE16D2
:102DE00031F0F7E0CF1631F00E941721CCCF0E94CE
:102DF000F220C9CF0E947920C6CF24E0C212C3CFEF
:102E0000580134E0A30EB11CC80103960E94422A67
:102E1000DD2009F41FC2882309F41CC28150990BDC
:102E2000989E9001999E300D11244D2D4150550BC7
:102E3000CA01820F931F019708F4A5CFAFE9BFE045
:102E40001197F1F700C00000F6CFCE0101960E9465
:102E50006014560198CF6801E7E5DE1A81119BC026
:102E6000FFEFCF16D10411F008F09BC068E572E0C7
:102E70008C2D0E94AB0B892B29F58EE08C9DF001E7
:102E80008D9DF00D1124EE59FD4F8281813009F0A6
:102E900067C08091580290915902892B99F08091D6
:102EA0005A0290915B02892B69F080915C029091AB
:102EB0005D0220915E0230915F02822B932B892B61
:102EC00009F458C05801BB242EE0029FF0011124E0
:102ED000AF014E595D4F6A01D70115968C91E959A2
:102EE000FD4F908180FB90F99083882309F4B0C056
:102EF0000E94AE059093270280932602D601129677
:102F00008C9112978F5F12968C93129780919803F1
:102F10009091D202892B13968C9313978091ED0197
:102F200014968C9314971696ED91FC911797309701
:102F300029F01C966D917C91C60109958EE08A9DC1
:102F4000F0018B9DF00D1124EE59FD4F858181FF1D
:102F50007CC090E080E0909320038093210321C007
:102F6000823009F0AFCF80915C0290915D02892B95
:102F700009F4A8CF2EE02C9DC0012D9D900D1124A9
:102F8000FC01E959FD4F20812E7F20838E599D4FF2
:102F90000E94AC0E97CF2FEFC216D10409F008F4AF
:102FA00091CF80910E0380FFA5C00E94AE056C01F9
:102FB000D70115968C91882309F461C080910A018C
:102FC00082FF08C028E232E040E0B60190E080E0F5
:102FD0000E948F150431BCE71B0709F44CC0053172
:102FE000ECE71E07E9F10331FCE71F0729F48091A4
:102FF0000A01816080930A01C801905281159043B3
:1030000008F04BC010921A0310921903F7012581A2
:10301000222309F440C210921F03C80190578397DE
:1030200008F039C284E090E00E944A2A90932E036F
:1030300080932D03F801E150F047E232F10508F0EA
:103040006DC1E855F54D0C94C829902F812F83CF81
:10305000F601858181FFA5CFC6010E94920EA1CF06
:1030600090910A01892F8E7F90FF816080930A01E1
:103070000E94D40EC1CF80910A018E7FF7CF80913C
:103080000A018F7E013E110531F0053E1105E9F47C
:1030900080910A018F7D80930A0180910A0180FF4F
:1030A00029C0D70115968C910832110570F50E31A3
:1030B000110508F07BC004301105C8F58823D1F054
:1030C00010921A031092190315C0C801905281156D
:1030D000904318F780910A0182FF0CC08091100381
:1030E00081FD08C028E232E040E0B60190E080E0D7
:1030F0000E948F15F801E851FC47E730F10508F010
:1031000085CFE653F54D0C94C8290933110558F4C1
:103110000D32110518F40B32110581F690910E0352
:1031200092FDCCCF08C004361105C1F3C7CF9091F2
:103130000E0394FDC3CF882309F4BCC08091ED0138
:103140009091D202892B8D7FB1F110921A031092C7
:10315000190380910E0381FD2EC0F80123E0F6953E
:10316000E7952A95E1F7EE71FF27ED52FD4F9801A3
:103170002F70332781E090E002C0880F991F2A95B5
:10318000E2F780959095208131818223932391836A
:10319000808360E0C8010E947F158091ED018D7FE2
:1031A0000E94D30882E00E943F0A54C090910E030F
:1031B00093FD84CFC0CF87E0F701A8E2B2E0019091
:1031C0000D928A95E1F710922D0210922B02109227
:1031D0002A028091190390911A030817190709F020
:1031E0004DC020910E0325FF49C030910A0131FFE7
:1031F00002C026FF43C020911703309118035601E7
:10320000A21AB30AB7010E94BF0BA816B906B0F5FF
:103210008091D20281FF08C080910A018061809371
:103220000A0182E00E9403098091D20285FF08C052
:1032300080910A01806280930A0180E20E94030962
:1032400060910A01669561708091190390911A034B
:103250000E947F158091CA01877061F0D701159691
:103260008C91882339F080912E0382FF03C082E085
:103270000E943F0A2496ECE00C94F7298091ED011E
:103280009091D202982B20910A0191FB21F9209371
:103290000A018D7F0E94D30810931A03009319032B
:1032A000D0921803C092170380910A018460809322
:1032B0000A0178CF970140E0B601C8010E948F153E
:1032C000C9CF06E221EE41EE6AE17CE7C7010E9428
:1032D0000115C0CF07E225EE45EE6BE17CE7F6CFA6
:1032E00006E221EE40EE68E17CE7F0CF07E225EE52
:1032F00044EE69E17CE7EACF06E221EE42EE6CE1C2
:103300007CE7E4CF07E225EE46EE6DE17CE7DECF19
:1033100008E221E045EE6EE17CE7D8CF80912D03F5
:10332000816080932D0395C080912E0388608093E7
:103330002E038FC080912D038260F3CF80912D03E7
:103340008460EFCF80912D038860EBCF80912E03B6
:103350008160EDCF80912E038260E9CF80912D03B3
:103360008061DFCF80912D038062DBCF80912D03C0
:103370008064D7CF0E94F30E80912D038068D1CF57
:1033800080912D038C60CDCF80912E038360CFCFB1
:1033900080912D038E7FC5CF80912E03877FC7CF6D
:1033A00080912D038D7FBDCF80912D038B7FB9CF71
:1033B00080912D03877FB5CF80912E038E7FB7CF6D
:1033C00080912E038D7FB3CF80912D038F7EA9CF67
:1033D00080912D038F7DA5CF80912D038F7BA1CF71
:1033E0000E94F30E80912D038F779BCF80912D0348
:1033F000837F97CF80912E038C7F99CF80912D036F
:1034000082FB992790F921E0922790FB82F990FBAB
:1034100083F987CF80912E03982F909591708E7F9E
:10342000892B90FB81F983CF90912D03892F8F7B7E
:1034300096FF806476CF0E94F30E90912D03892F22
:1034400097FB87F980586DCF61E08EE090E00E9495
:10345000602A60912D0370912E0384E090E00E9419
:103460007E2A0E94F30EF6CE60E0EFCF90912D03FE
:10347000892F8F7E94FF806154CF90912D03892FE7
:103480008E7F90FF81604DCF90912E03892F877F93
:1034900093FF88604CCF0631FCE71F07B9F5809198
:1034A000D202982F9A7A30910D0330FF04C0482F32
:1034B000447409F090E031FF04C0482F417109F0D5
:1034C00090E032FF04C0482F487809F090E033FFC5
:1034D00003C0827209F090E0222371F081E0911123
:1034E00001C080E08093960189E2911185E30E94FA
:1034F00066090E942E0EAECE80919601811104C005
:1035000089E20E943B09F5CF85E3FBCF07373CE713
:10351000130709F469C008374CE7140709F46FC0B2
:10352000222381F003305CE7150709F488C008F016
:103530006BC001159CE7190709F474C001301C47E2
:1035400009F483C0F701858100811181882309F482
:103550008AC0C8010E94290CD82E682FC8010E9479
:10356000D809B8018D2D0E940C0C0E94AA07D82EF4
:10357000192F882ED7011596BC9015971696CC90CA
:10358000C2949FE0C9228091CA018770F1F0AB2CF0
:10359000BB20E1F0812F807F803451F080E28D0DDF
:1035A000883098F0C11004C0812F807E803269F08D
:1035B00080912E0382FF09C082E00E943F0A809121
:1035C000CA018770AA24A3948111A12C912E9294F0
:1035D0008FE09822BBE0B91508F4C0C0E92DF0E0F7
:1035E000EF52F54D0C94C82981E0222351F00E943E
:1035F000560A43E062E081E00E94120A2BCE82E08C
:10360000F4CF0E94320AF5CF0B35BCE71B0749F116
:103610000C35ECE71E07D9F00A351C4709F092CFAC
:1036200081E01CC00E94F30E2FEF34E34CE02150E8
:1036300030404040E1F700C000000E942E0B6FEFC9
:103640007FEF90E080E00E947E2A0E94F812809135
:103650002E0382FB882780F991E089270E94FE0CC7
:1036600071CF80E0FBCFC8010E94A409D82E79CF8A
:10367000012F0F70812F807F11F00295007FBB20FA
:10368000A9F0002359F080E28D0D883010F08110F0
:1036900007C0802F0E940A090E942E0E8D2D5CC04B
:1036A00080919803082B00939803F6CF8D2D0E94EC
:1036B0002D13002309F452C080E28D0D883010F0E4
:1036C000811004C0802F0E94030903C0802F0E9434
:1036D000FC080E942E0E42C0012F0F70812F807FA8
:1036E000803211F00295007F882041F1E1E08E16D2
:1036F00009F4B5C0BB2009F4C1C0CC2009F465C0F1
:1037000020E0D7014C9111965C91119712966C9123
:10371000129713967C91139714968C911497159683
:103720009C910E94720C8091100381FDB7CFF7012C
:10373000868180FFB3CF8F70868347C080912E0330
:1037400082FD3FC0BB20B9F1002329F0802F0E94E9
:103750000A090E942E0E80E00E949613E92DE8507F
:10376000FF0B349710F40E9404068D2D912F0E94B8
:103770007C0A8111C7C11092980110929701AA206A
:10378000A9F08091CA0180FD11C0F70115828695CC
:10379000869586950E94560AC7010E943E16809122
:1037A000CA018695869586950E94320A60E0C70117
:1037B0000E94970C5FCD80E00E942D13002371F2D0
:1037C00081CFBB2091F1C11004C0802F0E9426132D
:1037D000C5CFF1E0CF1211C08090ED01802F88217C
:1037E000081709F4BBCF0E94AE059093EC018093BB
:1037F000EB0108290093ED01B1CF80910F038230D6
:1038000008F4ACCFC812AACF802F0E942613802FB5
:103810000E94E7088091C701902F9823091709F4A7
:103820009DCF082B0093C70199CFC1100AC0802FEC
:103830000E941F13802F0E94E708802F0E943109E9
:103840008DCF80910F03823008F488CF21E0C2121F
:1038500085CF8091D202802309F480CFE8CF809178
:103860001503BB2021F08C1508F478CFAECFC81615
:1038700008F074CF802F0E941F1370CFCC20D1F39B
:10388000F9E38F1237C180911303909114030E94C2
:10389000520B8D2D0E942D1361CF812F8695869519
:1038A000837069F0813009F059CF8D2D912F93707D
:1038B000B11002C080E090E00E94BA054FCF8D2D7C
:1038C000912F9370B11002C080E090E00E94DF055C
:1038D00045CF812F837091F5B11040CF4D2D42958A
:1038E00046954770440F440F8D2D8F70042E01C0F4
:1038F000880F0A94EAF72D2D2071D4FE07C02FE01F
:1039000030E001C0220F4A95EAF72095312F369515
:1039100036953370323069F050F440910B023130FB
:1039200029F0822B84230E94790A18CF842B822BC2
:10393000FACF282B80910B028227F5CF8695BB20EA
:1039400011F0812F8170882309F408CF4D2D429505
:1039500046954770440F440F8D2D8F70042E01C083
:10396000880F0A94EAF72D2D2071D4FE07C02FE0AE
:1039700030E001C0220F4A95EAF72095312F3695A5
:1039800036953370323069F050F440910C0231308A
:1039900029F0822B84230E940F0AE0CE842B822BF5
:1039A000FACF282B80910C028227F5CF012F0F70C0
:1039B000BB2029F0802F0E94560A8D2D07CF8D2D18
:1039C0000E941F13802F0E94320AC8CE8D2D22EF35
:1039D0008216B1F1281570F030EF8316D1F041EF67
:1039E000841691F0BB2009F480C0C11057CE812FFE
:1039F0008F712AC053EF851651F194EF8912F2CFDF
:103A000080912E0382FD2FC0812F8F71BB20D9F2B0
:103A10001BC080911503BB2079F0C81608F09ECE1C
:103A2000212F2F7181E090E001C0880F2A95EAF7DD
:103A300090910C028927AFCF8C1508F48FCEF0CF70
:103A4000812F8F71B110BFCF0E94560A87CE80E0C0
:103A5000BB2009F4A0CF81E0912F9F7101C0880F96
:103A60009A95EAF798CF80910F03823038F1BB2006
:103A7000C9F09091CA019770943041F40E941009E6
:103A8000812F8F710E94320AA12C68CEC816E0F7F0
:103A9000012F0F71802F0E94560A63E0802F0E9431
:103AA000620AF2CFC81630F00E94100964E0812F3C
:103AB0008F71F5CF81E00E943F0AE6CFBB2051F025
:103AC000012F0F71802F0E94560A63E0802F0E9401
:103AD000620A44CE81E00E943F0AA1E0AC1508F0E2
:103AE0003DCE82E00E943F0A39CECC2041F089339E
:103AF00009F4C9CE8091110390911203C8CE812F91
:103B00008F7161CFBB2019F0C11035CE38CEC110F6
:103B100032CE20E0D7014C9111965C91119712960C
:103B20006C91129713967C91139714968C9114971D
:103B300015969C910E94720C8091100383FF1BCEFE
:103B40008091970190919801029709F014CE8D2DE4
:103B50000E943E1410CEB0E0A0E0E1EBFDE10C9439
:103B6000E0298091C601807F09F054C08091C50191
:103B7000882309F44FC0E091970387E0D82E809105
:103B80005E038E1709F446C00E2F10E0ED9DF00184
:103B90001124E15AFC4F8481882309F440C0D09E4F
:103BA000E001D19ED00D1124FE01E15AFC4F91811C
:103BB0008091C101981333C090818091C001981306
:103BC0002EC0858181112BC0E280F3808091C201DB
:103BD0009091C301E81AF90A60E080EC91E00E943C
:103BE000970C60EC71E00E94BF0BE816F906B8F480
:103BF0008091C6018F7080618093C601CB59DC4FE4
:103C000088818F708061888380EC91E00E943E16ED
:103C10000E949A09CDB7DEB7E7E00C94FC29F801C1
:103C20003196E770ACCFA4E1B0E0E9E1FEE10C949D
:103C3000D8298C0186E0F801DE011F9601900D92D3
:103C40008A95E1F7D80114967C9014971596EC901C
:103C500080ECA82E81E0B82E8091C40181112AC089
:103C6000711003C0FF24F3941CC0EE20F9F0C801CA
:103C70000E94650CF82E8823C9F087E0F801A0ECBB
:103C8000B1E001900D928A95E1F78091C4018130F5
:103C900031F48091C0019091C1010E94580C0E94A2
:103CA000AB1D8F2D6496EFE00C94F429C8010E949F
:103CB0003E16D8CFF80150806180C280D38060E08A
:103CC00080EC91E00E94970CF090C5018091C201B8
:103CD0009091C3014601881A990A60E080EC91E056
:103CE000FF2009F4FDC00E94970C60EC71E00E9477
:103CF000BF0B8816990608F0B6C0772009F4B2CF3A
:103D00008091C601382F307F2091C101D8011196D2
:103D10009C911197311167C0291315C02091C001E2
:103D20009C91291310C0E11054C08F708061809362
:103D3000C60180EC91E00E943E168091C601F80118
:103D40008683F12CAECFE11044C0662D852D0E94F4
:103D50002204E82E882381F08091100380FFF1CFA8
:103D600080EC91E00E943E1687E0E0ECF1E0DF019C
:103D70001D928A95E9F7E5CF5F86688A8F859889D5
:103D80000E94580C292F22952F70243058F49F70D0
:103D9000223088F0992399F0F8019681907F79F488
:103DA000FE2C7FCF2A5F2F70223068F0C8010E945E
:103DB0003E16EF2CF5CF992311F0882389F3805E0E
:103DC000883070F3F3CF803F58F3815F833070F712
:103DD000E7CF8091C60181608093C6018091100376
:103DE00081FDAFCFBDCF291315C02091C0019C919B
:103DF000291310C0E1100EC016968C93C8010E94C2
:103E00003E1687E0F801A0ECB1E001900D928A9592
:103E1000E1F747CFC8010E94650C882309F446CF1B
:103E2000EE2009F443CF8091C601803288F02091C2
:103E3000C0013091C10139872887DB86CA869091FD
:103E4000C4019C871D868E87CE0108960E943E166F
:103E500087E0F801A0ECB1E001900D928A95E1F7BE
:103E60000E94AB1DFFCE8091C601982F907F09F470
:103E700077CF772009F4F6CE2091C101F801918126
:103E8000291311C02091C001908129130CC0E110A9
:103E90000AC08683C8010E943E1687E0D5011D92A4
:103EA0008A95E9F7FECEC8010E94650C882309F4C3
:103EB000FDCEEE2009F4FACE8091C601803240F2A8
:103EC0002091C0013091C1013A832983DC82CB82E9
:103ED0009091C4019D831E828F83CE010196B6CF3F
:103EE0000E94970C60EC71E00E94BF0B8816990647
:103EF00008F041C0772009F4B5CEFE2CEE2009F47D
:103F0000D5CE9091C101F8018181981326C090917E
:103F1000C0018081981321C08091C2019091C3019A
:103F2000C81AD90AF8ECCF16D10408F06ACF9091DC
:103F3000C60190FD66CF907F09F463CF8091C601E2
:103F4000D80116968C931697903F09F457CF982F67
:103F5000907F905F8F70892B4FCFC8010E94650CB6
:103F6000811176CF8091C60181608093C601C8011E
:103F70000E943E1696CE87E0F50111928A95E9F7E8
:103F800090CEABE1B0E0E7ECFFE10C94E4294E8B7E
:103F90005F8B688F798F8A8F9B8F882349F0809100
:103FA00097019091980101969093980180939701C1
:103FB0008B8D8111109298031D8A86E0FE01769602
:103FC000DE011F9601900D928A95E1F780912E03F4
:103FD00082FF1EC08091F5029091F602892BC1F0FC
:103FE0000E94AE052091C8013091C901821B930B3C
:103FF0002091F5023091F6028217930720F080910C
:10400000CA0182FF72C00E94170981110E94C8086C
:104010008B89882329F061E0CE010F960E94970CCE
:1040200087E0FE013F96DE01189601900D928A9579
:10403000E1F7CE0108960E94131E81110CC087E0A3
:10404000FE013896DE01119601900D928A95E1F7F6
:104050008C8581110BC017E08091970390915E03CE
:10406000891331C06B96E3E00C94002A20915E0323
:1040700030E0C9010196877099274091970348174E
:10408000190699F097E0929FD001939FB00D1124EB
:10409000A15ABC4FFE01319601900D929A95E1F71D
:1040A00080935E030E949A09D6CF0E94F30E10926D
:1040B0005E031092970387E0E0ECF1E0DF011D92D0
:1040C0008A95E9F7C8CF819FC0011124815A9C4F7E
:1040D0000E94131E882331F28091970390E001968D
:1040E0008770992780939703B7CF82E00E943F0A99
:1040F0008ACFA6E0B0E0EFE7F0E20C94E5299093D8
:104100004F0280934E02811520E2920730F40E9404
:104110007E132696E2E00C94012A80EF89838A833D
:104120000E94AE058160682F9C838B8349815A81F0
:104130007C8181E090E00E94C11FEBCF0F931F9321
:10414000CF93DF938C01EB0168E572E08C2F0E9426
:10415000AB0B892BA1F480911103909112030E9463
:10416000520BDD27C05BDD4F8881F8011282188277
:104170008330F1F048F4813059F0823081F0DF91E2
:10418000CF911F910F9108958430B9F08530B9F720
:104190008091580290915902009789F306C080914E
:1041A0005A0290915B02009799F30E947920E7CF21
:1041B00080915C0290915D02F6CF80915E029091B9
:1041C0005F02009791F72091580230915902809137
:1041D0005A0290915B0221153105F1F2009729F7FF
:1041E000C901E3CFA6E0B0E0E8EFF0E20C94E529E6
:1041F00090934F0280934E02811520E2920730F493
:104200000E9467152696E2E00C94012A80EF8983CC
:104210008A830E94AE058160682F9C838B834981CD
:104220005A817C8181E091E00E94C11FEBCFCF9346
:10423000DF93EC010E94F220809111039091120310
:104240000E94520BCE010E947920DF91CF910895F8
:104250000F931F93CF93DF938C01862F68E572E055
:104260000E94AB0B892BB1F4C0915802D091590236
:10427000209781F0F8018281833051F4CE010E94B1
:104280001721CE010E941721CE010E94172102C0E2
:104290008430D0F7DF91CF911F910F9108950F9344
:1042A0001F93CF93DF938C01EB0168E572E08C2FB5
:1042B0000E94AB0B892B09F05CC0FE01FF27D801DF
:1042C00012968C911297E05BFD4F8130B9F41596F0
:1042D0009C9192FF02C080830AC090FFFCCF82E0D5
:1042E000808380915A0290915B020097B9F480918B
:1042F0005802909159020097E1F110C08230B9F54F
:1043000015968C9182FD28C080FD0BC083E08083D0
:1043100080915C0290915D02009701F10E94F22071
:1043200028C084E0808380915E0290915F020097B4
:10433000A9F780915802909159020097F9F00E94D4
:10434000172180915A0290915B02009739F7809172
:10435000580290915902E2CF85E080838091580203
:1043600090915902009729F00E941721F0CF86E022
:104370008083DF91CF911F910F91089580915A0210
:1043800090915B02B8CFA6E0B0E0E9ECF1E20C94CA
:10439000E3290E94AE058C018091EE019091EF011E
:1043A0008017910781F019821A820E94AE05682F4A
:1043B00049815A81792F80E090E00E94C11F1093BB
:1043C000EF010093EE012696E4E00C94FF291F9282
:1043D0000F920FB60F9211242F933F934F935F9339
:1043E0006F937F938F939F93AF93BF93CF93DF93FD
:1043F000EF93FF93D091E900DF708091EC00C82F1C
:10440000C17080FDC0E81092E9008091F000877FC4
:104410008093F00078940E94130F1092E90080912D
:10442000F00088608093F000CD2BCF70C093E9003E
:10443000FF91EF91DF91CF91BF91AF919F918F91BC
:104440007F916F915F914F913F912F910F900FBE90
:104450000F901F9018951F920F920FB60F92112474
:104460002F933F934F935F936F937F938F939F937C
:10447000AF93BF93EF93FF938091E10082FF09C058
:104480008091E20082FF05C08091E1008B7F8093E4
:10449000E1008091DA0080FF24C08091D80080FF85
:1044A00020C08091DA008E7F8093DA008091D9005D
:1044B00080FF9DC080E189BD82E189BD09B400FE15
:1044C000FDCF81E08093540380912F03811109C0B7
:1044D0000E9441040E94E2048091E2008460809383
:1044E000E2008091E10080FF17C08091E20080FF30
:1044F00013C08091E2008E7F8093E2008091E20001
:1045000080618093E2008091D80080628093D8001F
:1045100019BC85E0809354038091E10084FF2BC097
:104520008091E20084FF27C080E189BD82E189BDDE
:1045300089B5982F917080FFFBCF8091D8008F7D37
:104540008093D8008091E1008F7E8093E10080917C
:10455000E2008F7E8093E2008091E2008160809390
:10456000E20080915503882309F447C084E08093DA
:104570005403809154038091E10083FF27C0809110
:10458000E20083FF23C08091E100877F8093E100F8
:1045900082E080935403109255038091E1008E7F56
:1045A0008093E1008091E2008E7F8093E200809111
:1045B000E20080618093E20042E060E080E00E94DF
:1045C000B0048091F00088608093F000FF91EF913B
:1045D000BF91AF919F918F917F916F915F914F911B
:1045E0003F912F910F900FBE0F901F90189519BCFF
:1045F0001092540310922F0374CF8091E30087FD33
:1046000093E090935403B5CF78941F921FB61F92F6
:1046100011248F939F93AF93BF938091290390911F
:104620002A03A0912B03B0912C030196A11DB11D6B
:104630008093290390932A03A0932B03B0932C0318
:10464000BF91AF919F918F911F901FBE1F901895A2
:104650001F921FB61F9211248F939F93AF93BF9306
:1046600080912803811113C08091290390912A031E
:10467000A0912B03B0912C034196A11DB11D8093F5
:10468000290390932A03A0932B03B0932C03BF918B
:10469000AF919F918F911F901FBE1F901895CDB71E
:1046A000DEB7EF970FB6F894DEBF0FBECDBF85B76C
:1046B000806885BF85B7806885BF84B7877F84BFE2
:1046C0000FB6F894A895809160008861809360008F
:1046D000109260000FBE80E890E00FB6F8948093CF
:1046E0006100909361000FBE8CEA96E09093750193
:1046F000809374010E9494060E94BF0C0E944104A2
:104700000E94E2048091E20084608093E200789449
:10471000809154038823A1F01091E9001F709091BB
:10472000EC00892F817090FD80E8182B1092E90031
:104730008091E80083FD0E94130F1F701093E90021
:1047400082E084BD93E095BD9AEF97BD80936E00A3
:104750000E94E50C811102C00E946D120DE411E06F
:10476000D8018D918D018F3F11F00E94AE06B1E00E
:1047700003351B07A9F703E511E0F80181918F01CB
:104780008F3F11F00E94AE06F1E004361F07A9F733
:1047900088E1E4E3F2E0DF01282F1D922A95E9F792
:1047A000E3EFF1E0DF011D928A95E9F70E94460DE3
:1047B000811167C066EE7EEF90E080E00E947E2A65
:1047C00060E082E090E00E94602A60E083E090E098
:1047D0000E94602A10920B0260E074E184E090E095
:1047E0000E947E2A60E086E090E00E94602A6FEFDF
:1047F00087E090E00E94602A40E050E0BA0188E043
:1048000090E00E94722A60E084E290E00E94602AB8
:1048100060E087E190E00E94602A60E08CE090E038
:104820000E94602A60E08DE090E00E94602A198278
:104830001A821B821C821D821E821F82188648E0FB
:1048400050E068E170E0CE0101960E94502A40E0FD
:1048500050E0BA0180E290E00E94722A80E00E945B
:10486000920B0E946D1240E050E0BA018FE090E0A0
:104870000E94722A40E050E0BA0183E190E00E9479
:10488000722A82E090E00E94422A80930D0284E026
:1048900090E00E944A2A90932E0380932D030E9459
:1048A000520DBFEFE6E7F1E0B150E040F040E1F734
:1048B00000C000000E94520D8091340280FF08C0A9
:1048C0006FEF7FEF90E080E00E947E2A0E942E0B27
:1048D00083E090E00E94422A0E94790A80E091E001
:1048E0009093250380932403FCE42F2EF2E03F2EC7
:1048F0009E01255D3F4F39AF28AF8091540300E101
:1049000012E1853009F4C1C00E94520DEEE0F2E0E0
:10491000FBAFEAAF24E332E03FAF2EAF86E292E096
:10492000D90101911191219131914D915D916D913B
:104930007D918E179F0709F4B2C00417150726074B
:10494000370779F384E392E09DAF8CAF10E0ECADD4
:10495000FDADC190D190E190F190FDAFECAFAAAD6B
:10496000BBAD8D909D90AD90BD90BBAFAAAF8C14A8
:104970009D04AE04BF04E9F18C249D24AE24BF2421
:1049800000E0412C512C32014394D501C401842113
:104990009521A621B721892B8A2B8B2BE1F00AAB1D
:1049A0001BAB0E94AE059DAB8CABB1E0BEAB91E002
:1049B000B701A6014421552166217721452B462BBD
:1049C000472B09F490E09FAB4AA95BA96CA97DA98C
:1049D0008EA90E94C11F0F5F440C551C661C771CDA
:1049E000013199F6EAADFBAD3497C082D182E28203
:1049F000F3821F5F163009F0AACF8FB7F894409169
:104A0000290350912A0360912B0370912C038FBFCF
:104A10004EC080915403843021F11092280388E124
:104A200090E0A0E40FB6F894A895809360000FBEC4
:104A3000A093600083B7817F846083BF83B7816068
:104A400083BF7894889583B78E7F83BF0FB6F89421
:104A5000A89580916000886180936000109260004A
:104A60000FBE80915303882381F00E94520DE4E32E
:104A7000F2E081919191A191B191892B8A2B8B2B9D
:104A800009F039C42E163F06A1F7809154038530F2
:104A900009F4BFCF0E94F30E0E94040635CF04171D
:104AA00015072607370709F0A3C00E94C321E0902D
:104AB0002003F0902103E114F10431F180912602EA
:104AC000909127020E949F058C0187E0E8ADF9AD27
:104AD00011928A95E9F7BE01655D7F4FC7010E947B
:104AE000BF0B8017910780F480912003FEE08F9F19
:104AF000C0011124FC01E959FD4F208122FD04C0B1
:104B00008E599D4F0E94AC0E80910E0380FF1EC0F7
:104B100080910A0182FF1AC00E94AE0520911703FE
:104B200030911803AC01421B530B209108013091C6
:104B300009014217530750F028E232E041E0BC017E
:104B40008091190390911A030E948F150E94040608
:104B500090912F02891769F080932F028FB7F894F4
:104B60004091290350912A0360912B0370912C03EB
:104B70008FBF80915403843009F0BFCE83E08093CF
:104B8000E9008091E80082FFB8CE8091E80090E0D3
:104B900085FF0BC00E94600460E2E62EF12C8E01BE
:104BA0000F5F1F4F882391F191E08091E8008B7790
:104BB0008093E800992309F4A0CE00914C02109153
:104BC0004D0289810115110579F18E3F09F0BEC0B2
:104BD0008A81833020F08550833008F0B7C0EA81A5
:104BE000EE3008F0B3C0F0E0E352F54D0C94C82964
:104BF000A4E3B2E0BDAFACAFA9CE8091F100D80183
:104C00008D938D01B1E0EB1AF10871F28091E8000B
:104C100085FDF3CF8091E8008B778093E8000E94B8
:104C20006004882399F3C0CF8C3009F4D8C070F5A4
:104C3000843009F4BBC050F4823009F46DC008F030
:104C4000A6C0813009F464C08FEF7AC3863009F4BE
:104C5000C3C008F4B6C08B30B9F780911B039091A4
:104C60001C03892B09F472C040E250E0BE016F5F63
:104C70007F4F82E00E94C80AFFEF21EE34E0F1503E
:104C800020403040E1F700C0000020CE803109F420
:104C9000D6C090F58E3009F4A8C008F4A3C0809166
:104CA0001B0390911C03892B09F450C0EC80F12C5C
:104CB0002DE1E216F10408F049C0CA80DB80DC2453
:104CC000CD24DC248E010F5F1F4FE00EF11EC601C4
:104CD0008F5F9C4F0E151F05C9F13FEFC316D1041E
:104CE00028F4D80114966C910E94602A0F5F1F4F20
:104CF000BFEFCB1ADB0AEBCF823109F4A5C008F471
:104D0000A1C0833109F4CAC08E3F09F09DCF67CF9F
:104D10001A8289E08B831AC08A81823009F42FC3FA
:104D20008330E9F0813009F08FCF2FB7F89460918C
:104D3000290370912A0380912B0390912C032FBF9C
:104D40000E94CE296B837C838D839E8340E250E05A
:104D5000BE016F5F7F4F82E00E94C80ACECD809176
:104D60001B0390911C03892B89F3FE013196AEAD94
:104D7000BFAD4D915D916D917D91BFAFAEAF62833F
:104D80005383448333962A163B0689F7DFCF8A8103
:104D9000823009F059CF6B817C818D819E810E9488
:104DA000CE2988E290E00E94602AD0CF4C816B81AE
:104DB0008A810E94DD0B9827892798279E838D83FF
:104DC000C5CF2D813E813227232732274C816B812D
:104DD0008A810E946C0BBACF0E941212B7CF80E179
:104DE0008A83B4CF1A828FEF95CFEC80F12CBDE18E
:104DF000EB16F10408F0AACFCA80DB80DC24CD24B6
:104E0000DC248E010F5F1F4FE00EF11EC6018F5F85
:104E10009C4FE016F10609F499CFEFEFCE16D104BE
:104E200058F40E94422AD80114968C93FFEFCF1AAF
:104E3000DF0A0F5F1F4FEACFF8011482F7CF0E94FD
:104E40005C0B84CF83E0CCCF0C8110E00D311105D9
:104E500008F07CCFCA80DB80DC24CD24DC24FE017A
:104E600031967F010E0F1F1FC6018996E016F106CD
:104E700009F46CCFF4E6CF16F2E0DF0660F40E948E
:104E8000422AD70114968C93FFEFCF1ADF0A2FEF37
:104E9000E21AF20AE9CFF7011482F6CFEC80F12C86
:104EA0003DE1E316F10408F051CF0A811B81102780
:104EB00001271027043642E0140708F047CF84E6A4
:104EC00092E0801B910B8E159F0508F43FCF48019F
:104ED00089E2880E911C80911B0390911C0337017D
:104EE000600E711E892BB9F5680191E0C922DD249D
:104EF00000FF0DC0C80188960E94422A9D81892723
:104F00009827892781159C4711F48FEF8D835701CE
:104F100060FE17C0B1E0AB1AB10855E0452E512C28
:104F20004C0E5D1E4A0C5B1CC4018E0D9F1D0E9421
:104F3000422AF201908181159C4719F48FEFD2012A
:104F40008C93E1E0F0E0EC0FFD1FEC0DFD1D2FEF69
:104F5000CA14DB0420F0FE0131967F011AC094814F
:104F6000858181159C4711F42483258332E0C30E8B
:104F7000D11C3296EDCF043642E0140728F4D70155
:104F800014966C910E94602ABFEFEB1AFB0A0F5F28
:104F90001F4FC80189966016710669F7D7CE88E061
:104FA000ECE0F1E0DE01919601900D928A95E1F737
:104FB00080E2FE013196DF011D928A95E9F786E0D5
:104FC000898388E0B096DE01159601900D928A954E
:104FD000E1F7BCCE88EF898381E08A831B821C8243
:104FE000B5CE8C81682F70E0762F66278B81860F77
:104FF000972F911D092E000CAA0BBB0B45E0880FC3
:10500000991FAA1FBB1F4A95D1F7AC01BD01405E95
:105010005F4F6F4F7F4F481759076A077B0708F4A8
:1050200095CE883FE1E09E07A105B10508F08ECE40
:10503000493FF1E05F076105710520F048EF51E05D
:1050400060E070E0481B590BBC0165587E4FCE01F3
:1050500001960E940C2A7ACE4AE150E06FEF70E090
:10506000CE0107960E942B2A80911B0389830A8315
:105070001B8281E08C831D821E8268CE81E090E0DD
:1050800090934D0280934C0282E390E09093330220
:10509000809332020E94AE059093310280933002D9
:1050A00055CE012BB1F1C0903402D0903502E09082
:1050B0003602F090370280913002909131020E94C6
:1050C0009F058536910570F1D701C601B695A79564
:1050D0009795879580FF26C0C0FE24C00E94AE052C
:1050E000909331028093300280913202909133028A
:1050F00001979093330280933202892B51F41092DE
:105100004D0210924C0281E090E090931C0380933A
:105110001B0380911B03898380914C028A838091B9
:105120003202F8CD82E390E0909333028093320212
:10513000F0CF10921C0310921B0308CE0B811C8130
:1051400040E250E06FEF70E0CE0101960E942B2A02
:1051500023E733E090E080E0AC014E5F5F4F4132E7
:10516000510508F0F3CDF901659174910617170701
:1051700050F4A1E0B0E0AC0FBD1F8A0F9B1FFC01F3
:1051800071836083CA01245F3F4FF4E023303F07FF
:1051900019F7DCCD2B813C8183E793E0FC0145913D
:1051A00054912417350709F4BCC00C9644E08330B1
:1051B0009407A1F749CD8B819C8103E713E0F801A7
:1051C000259134912817390709F4BCC0045F1F4F9B
:1051D000F4E003301F0799F7EE24EA94FE2CCDC0CB
:1051E0000E94DC11B3CD8B81813009F46DC088231E
:1051F00009F461C0823009F0A9CD6C818AE0FE011A
:105200003596DE01919601900D928A95E1F789A17C
:105210009AA181153CE7930741F420911B0330913B
:105220001C03232B11F490E080E09AA389A38BA1A7
:105230009CA181154CE7940741F420911B03309108
:105240001C03232B11F490E080E09CA38BA38DA181
:105250009EA18115ACE79A0741F420911B03309180
:105260001C03232B11F490E080E09EA38DA38FA15B
:1052700098A58115BCE79B0741F420911B03309151
:105280001C03232B11F490E080E098A78FA38FEFED
:10529000683068F4EAE06E9FB00111246F547D4FCE
:1052A0004AE050E0CE0181960E94842A80E0898302
:1052B0000E9494064BCD80E2FE013196DF011D92E3
:1052C0008A95E9F788E03CC08C811AE07E01B1E262
:1052D000EB0EF11CF701212F11922A95E9F7B70186
:1052E0000E94AB0B8983F701DE01129601900D92AB
:1052F0001A95E1F72BCD09BD19BD09B400FEFDCF0C
:105300008091D8008F7D8093D8008091E0008260EA
:105310008093E0008091E00081FDFCCF0E94F30EBD
:10532000B4CBFC013696259134912115310509F451
:105330008BCC4FE150E0BE016E5F7F4FF9010995C4
:10534000898304CDF80138962591349121153105D2
:1053500009F442CF4CE150E0BE016B5F7F4FC801C2
:10536000F90109957C01892B41F4F8013A96859160
:105370009491009711F0FC010995E982E7CC88E24D
:1053800090E00E94422A1B821C821D828E83DECC0A
:10539000EE0FFF1F0590F491E02D099469279627E1
:1053A000692778278727782708952F923F924F9271
:1053B0005F926F927F928F929F92AF92BF92CF92A5
:1053C000DF92EF92FF920F931F93CF93DF93CDB7AE
:1053D000DEB7CA1BDB0B0FB6F894DEBF0FBECDBF26
:1053E00009942A88398848885F846E847D848C84F7
:1053F0009B84AA84B984C884DF80EE80FD800C8100
:105400001B81AA81B981CE0FD11D0FB6F894DEBFE2
:105410000FBECDBFED010895FB01DC0102C0059078
:105420000D9241505040D8F70895FB01DC0104C0B3
:105430008D910190801921F441505040C8F7881B8C
:10544000990B0895FB01DC0102C001900D924150BF
:105450005040D8F70895DC0101C06D934150504091
:10546000E0F70895DC01CB01FC01F999FECF06C0FD
:10547000F2BDE1BDF89A319600B40D924150504012
:10548000B8F70895F999FECF92BD81BDF89A992792
:1054900080B50895A8E1B0E042E050E00C94342AD1
:1054A000DC01A40FB51F4150504048F0CB01840FE0
:1054B000951F2E910E94612A41505040D0F70895C7
:1054C000262FF999FECF92BD81BDF89A019700B4BD
:1054D000021639F01FBA20BD0FB6F894FA9AF99A5D
:1054E0000FBE08950396272F0E94612A0E94602A0A
:1054F000252F0E94612A242F0C94612A0196272FC0
:105500000E94612A0C94602ADC01CB0103C02D911A
:105510000E948F2A41505040D0F70895262FF999C4
:10552000FECF1FBA92BD81BD20BD0FB6F894FA9A86
:10553000F99A0FBE01960895F894FFCFF40F1C104E
:10554000CA111C10CA114F107010CA11791186119E
:10555000C8193D1AD0199A199E19D419A219D81927
:10556000E419AE19361AB219E819B619EC19141A59
:10557000BA19F0191B1AC019F619FE19A619DC1967
:10558000AA19E019C419FA190A1A241A341A941912
:10559000CC19441A7019761961196A197C19821983
:1055A0008819381B381B6C1B6C1B4D1CAE1BAE1BAB
:1055B000AE1B691CD61CE61CE61CCF27EA27F12788
:1055C000A626A6262C283E28512899289E28CA2897
:0655D000DB28F028F3289F
:1055D6009C050A0B9B05030BAF0001018AE71EBD64
:1055E60085316E78818283E200E900EA00B500B673
:1055F60000B700CD008301CC008A019201940121FD
:1056060002230224022502260227022A02B300B43C
:10561600006F0070009F01CB019F02A002F1F0C64F
:10562600F4F6F7F59531323393926766363534974B
:105636009694373040226D3B011901AC00790692F1
:0456460006B20600A2
:00000001FF
