:100000000C9473020C94BA020C94BA020C94BA02C7
:100010000C94BA020C94BA020C94BA020C94BA0270
:100020000C94BA020C94BA020C94DE200C94B12108
:100030000C94121C0C94BA020C94BA020C94BA02DE
:100040000C94BA020C94BA020C94BA020C94BA0240
:100050000C94BA020C947D1C0C94BA020C94BA0253
:100060000C94BA020C94BA020C94BA020C94BA0220
:100070000C94BA020C94BA020C94BA020C94BA0210
:100080000C94BA020C94BA020C94BA020C94BA0200
:100090000C94BA020C94BA020C94BA020C94BA02F0
:1000A0000C94BA020C94BA020C94BA023C2D003D96
:1000B0003E002D3E00E9000000C9000000E80000FD
:1000C00000C8000000EA000000CA000000EB0000C9
:1000D00000CB000000E2000000C2000000E00000D1
:1000E00000C0000000E7000000C7000000EE0000B4
:1000F00000CE000000AC2000003F0E0000A9000070
:1001000000AE000000C9030000A9030000F40000D5
:1001100000D4000000F9000000D9000000530100E5
:100120000052010000C0030000B0000000F1000018
:1001300000D1000000B5000000C3030000642200ED
:100140000065220000AB000000BB00000060220040
:1001500000482200001E22000029001E001F00206F
:100160000021002200230024002500260027002D66
:10017000002E0031002B0014001A00080015001793
:10018000001C0018000C00120013002F0030002A81
:1001900000296104001600070009000A000B000D89
:1001A000000E000F003300340035002800E100315C
:1001B000001D001B0006001900050011001000368C
:1001C0000037003800E1000157E200E300E30000DF
:1001D000002C0000002C4200002C0000002C00E746
:1001E000006500115029001E001F00200021002280
:1001F00000230024002500260027002D002E0031BA
:10020000002B0014001A000800150017001C00182D
:10021000000C00120013002F0030002A00E0000440
:10022000001600070009000A000B000D000E000F69
:10023000003300340035002800E10031001D001BB0
:1002400000060019000500110010003600370038C4
:1002500000E50002570251E300E20000002C00001C
:10026000002C0000002C0000002C00E700650010AE
:100270005001003A003B003C003D003E003F004082
:1002800000410042004300440045000100E05C01E1
:10029000000100008002800480010018800E80169A
:1002A000800100AC00AB004C00E0000A8001002A95
:1002B00000010001005000510052004F00010001F8
:1002C000000100010001000100010001000C80019B
:1002D00000010001000100605D5F5D615D010000E3
:1002E0005C010001000100000001000000010000AD
:1002F00000010000000100010001000100000000F9
:1003000000000000002A2B28000000000000000070
:10031000000000000000000029000000002C1E3436
:1003200020212224342627252E362D3738271E1F3C
:10033000202122232425263333362E37381F040567
:10034000060708090A0B0C0D0E0F101112131415D5
:10035000161718191A1B1C1D2F3130232D350405B3
:10036000060708090A0B0C0D0E0F101112131415B5
:10037000161718191A1B1C1D2F3130354C000000A0
:10038000000000000000000000000000000000006D
:10039000000000000000000000000000000000005D
:1003A000007E0F00D4FFFFFFC7000000781003504D
:1003B000006F006C0061007200690073000000268D
:1003C00003610069003000330020004400650073C1
:1003D00000690067006E002000530074007500641F
:1003E0000069006F0000000403090409023B0002D9
:1003F0000100A0FA09040000010301010009211114
:100400000100012240000705810308000A090401D8
:10041000000103000000092111010001226D000705
:1004200005820320000A120110010000000803A148
:10043000020001000102000105010980A1018503FC
:1004400019012AB700150126B70095017510810022
:10045000C0050C0901A101850419012AA00215019A
:1004600026A002950175108100C005010906A101B1
:100470008505050719E029E715002501950875018F
:1004800081020507190029EF1500250195F0750176
:10049000810205081901290595057501910295014B
:1004A00075039101C005010906A101050719E0299D
:1004B000E7150025019508750181029501750881F0
:1004C000010507190029FF150026FF00950675088C
:1004D000810005081901290595057501910295010D
:1004E00075039101C00011241FBECFEFDAE0DEBF1B
:1004F000CDBF04B603FE27C08091D7029091D802E9
:10050000A091D902B091DA028730904BA740B04B4E
:10051000D1F41092D7021092D8021092D902109200
:10052000DA0214BE84B7877F84BF0FB6F894A8950B
:1005300080916000886180936000109260000FBE1F
:10054000E0E0F8E3099511E0A0E0B1E0E6E1F8E4CD
:1005500002C005900D92AC3CB107D9F722E0ACEC9B
:10056000B1E001C01D92A73DB207E1F70E94201E35
:100570000C94D3230C9400009C01FB0120368DE5E4
:10058000380709F448C040F4213E310571F02F3599
:100590003D45C9F181E0089521363D45D9F7828175
:1005A0008823C1F38FEA90E033C08281882351F021
:1005B00082E00E942D100E94421C9093CF018093F4
:1005C000CE01E8CF8091CE019091CF010E946E1CA8
:1005D0008536910520F082E00E943410DBCF81EE59
:1005E0000E94360F81EE0E94BF0F82E00E943410FD
:1005F00082E00E94661763E082E00E941A1A81E09E
:100600000E94351AC7CF8281882321F282EB90E0C5
:100610000E941C05BFCF8281882309F4BBCF8CEADE
:1006200090E0F6CFCF93DF939C01FB019A95811563
:100630009F4160F5E901CC27D170D901AA27B2709A
:10064000B90166277470A9014427587034FF10C09F
:1006500080E1CD2B09F480E0AB2B09F08062672BA1
:1006600009F08064452B09F08068DF91CF910994EF
:1006700081E0CD2B09F480E0AB2B09F08260672B81
:1006800009F08460452B89F38860EFCFDF91CF912B
:100690000895CF93DF93EC01805E9109089720F0D5
:1006A00063EC72E1209711F46DE270E1CE010E94DB
:1006B00012038C2FDF91CF910C94360FCF93DF93E1
:1006C000EC010E94BF0FCE01805E9109089720F0D7
:1006D0006AEC72E1209711F464E370E1CE01DF91DE
:1006E000CF910C941203CF93DF93D82FC92F0E9480
:1006F00049038D2F9C2FDF91CF910C945E0381E0F5
:1007000008950C94BC0208950C9483031F93CF9317
:10071000DF9300D000D00F92CDB7DEB749835A8364
:100720006B833091F30189819A8131111DC0662359
:10073000B9F02223A9F00E94CD18182F682F8981C3
:100740009A810E94761869817A81812F0F900F908B
:100750000F900F900F90DF91CF911F910C943C055B
:100760000E94A418182FEFCF0E94CD1869817A81BA
:10077000EDCFFC01262F40815181628173818481FC
:100780000C948603CF93DF93D82FC92F60E00E948B
:10079000B9036D2F7C2FDF91CF910C9484030E94BD
:1007A0003F070E9403090C9478070E94670D0C9480
:1007B0007B0708950E94E3120E94D9032FEF84E380
:1007C0009CE0215080409040E1F700C000000C9474
:1007D000A11C0F931F93CF93DF938C0161E00E94C4
:1007E000B903EC01B8010E94C40CB801CE010E940B
:1007F0008103882309F441C0B801CE010E940D0D88
:100800008823D9F1B801CE010E94460A8823A9F1B4
:10081000B801CE010E94E60A882379F1B801CE0121
:100820000E943B0B882349F1B801CE010E940E0CB7
:10083000882319F1F8018281882361F0CB35FDE529
:10084000DF0721F170F4C115ECE5DE07A1F0CF3D23
:10085000DC45C9F0C801DF91CF911F910F910C9435
:100860007F03CC358DE5D807A1F0CD35DD4591F777
:100870000E947C19EFCF0E94DA0380E0DF91CF91D4
:100880001F910F9108950E94F81AF7CF0E948519C1
:10089000E1CF0E948819DECFDF92EF92FF920F9393
:1008A0001F93CF93DF93E82FF0E0E350FD4FD490F8
:1008B000282F26952695269530E0F901E356FC4F22
:1008C0000491877010E0082E02C0159507950A94D0
:1008D000E2F701701127F901E357FC4FE490F12C86
:1008E000082E02C0F594E7940A94E2F791E0E92219
:1008F000FF24F901E358FC4FC491D0E002C0D59524
:10090000C7958A95E2F7C170DD270115110519F029
:1009100081EE0E94360FE114F10419F086EE0E9478
:10092000360F8D2D0E942510EF2819F086EE0E94BB
:10093000BF0F012B19F081EE0E94BF0FCD2B51F09C
:100940008CE2DF91CF911F910F91FF90EF90DF909C
:100950000C942510DF91CF911F910F91FF90EF9094
:10096000DF900895EF92FF920F931F93CF93DF9341
:100970008C01F62E8AE0E82EF8018491882309F490
:1009800054C0813009F04DC0E8012196FE018491E8
:10099000813091F42196FE0184910E9425108E01F0
:1009A0000F5F1F4F8F2D815038F3EFE9FFE0319734
:1009B000F1F700C00000F7CF823039F4E801229649
:1009C000FE0184910E94360FEACF833039F4E801AA
:1009D0002296FE0184910E94BF0FE1CF8430F9F688
:1009E000E8012296FE01249190E080E0FE0131961C
:1009F0002053330B2A30310548F0019780F2EFE99C
:100A0000FFE03197F1F700C00000F7CFE89EA001AA
:100A1000E99E500D1124C901840F951F2491EF0107
:100A2000E5CF0E944C04E801BACFDF91CF911F912E
:100A30000F91FF90EF90089560E00C94B204982F0E
:100A40009F709A50963018F0805D0C944C04895A2F
:100A5000FCCF08950C94290581E008950C942C0591
:100A6000CF93C82F0E942A058C2FCF910C942E056E
:100A700090E080E008950895972F70E02EE0929F17
:100A8000600D711D1124FB0196E4899FE00DF11D9D
:100A90001124EE0FFF1FE75AFE4F859194910895A0
:100AA000FC01EE0FFF1FE355FC4F859194910895D3
:100AB000CF93DF930E943C050E946306EC018115F1
:100AC00021E5920708F048C0811530E5930708F04A
:100AD000AFC0803E910518F5803C910508F096C0A6
:100AE000883A910570F4853A910508F08CC0813000
:100AF000910531F10497813A910510F1D0E0C0E001
:100B00001FC08F3B9105D1F3C85AD0E0CC0FDD1F39
:100B1000C65ADE4F0990D881C02DD46411C081150A
:100B200040E3940788F4C11580E2D80708F074C048
:100B3000C83ED10528F0CE019A9581159F41F0F667
:100B4000CE01DF91CF910895811530E4930708F429
:100B500066C0DF70D06AF4CF8115964560F5C11587
:100B600085E5D80708F096C0C11594E5D907F0F4DB
:100B7000C11523E5D20708F079C0C11532E5D307C6
:100B800008F46FC0CE018370992721E030E002C0E5
:100B9000220F331F8A95E2F7C695C69540E2C49F9F
:100BA000E0011124C22BD32BDC68CACFDC2FCC2769
:100BB000C46FD06AC5CFC1158AE5D80788F4C115BE
:100BC00099E5D90708F071C0CE0198558F3F91057E
:100BD00011F008F093CFDC2FCC27C06FD06AB0CFD4
:100BE000CE0190568115904208F088CF8D2F8F71DD
:100BF0000E94FB0690E0982F882788279F719C0110
:100C00002C2BE90150C0A497D0649ACF805C910945
:100C10000E945005EC0194CFCE019F70F9CF992727
:100C2000D3FF03C0EC01D86C8BCFEC01D06C88CF24
:100C300074E0969587957A95E1F783702C2F269529
:100C40002695237040E2249F90011124382B8C2F8D
:100C50008370C1E0D0E002C0CC0FDD1F8A95E2F7BF
:100C6000A1CFDC2FCC27C16FD06A6ACFCE018370B1
:100C7000992721E030E002C0220F331F8A95E2F766
:100C8000C695C69580E2C89FE0011124C22BD32BE4
:100C9000DA6856CF8C2F0E94FB06C82FD0E0DC2FDD
:100CA000CC27CC27DF71D0624BCF8C2F8F700E9466
:100CB000FB0634E0D695C7953A95E1F7CF70DC2F67
:100CC000C82FD0693DCF803E910599F1C8F481339A
:100CD000910509F476C048F48932910509F46AC097
:100CE0008A32910509F474C0089589339105D1F0D1
:100CF00082389105B9F08533910509F454C00895FF
:100D0000843E910599F138F4823E9105F9F0833ED5
:100D1000910509F10895863E910599F1873E910567
:100D2000B9F108952091AA022370A1F080EE90E01D
:100D300008952091AA0220FD52C03091AB0230FFED
:100D400009C024FF4FC090E080E004C02091AA02B7
:100D500022FDF7CF08952091AA0222FD46C03091CE
:100D6000AB0230FDE3CF24FFF5CFEDCF2091AB02F6
:100D700021FFF0CF8091AA0284FDE5CF87EE90E0BD
:100D800008952091AA0223FFE5CF24FDDCCFF6CF02
:100D90002091AA0223FD2CC03091AB0231FFE3CF9A
:100DA00084EE90E008952091AA0225FFD3CF89E236
:100DB00090E008952091AA0225FFCCCF85E390E032
:100DC00008952091AA0226FFC5CF8AE290E00895F7
:100DD0002091AA0226FFBECF81E390E0089589E327
:100DE00090E0089583EE90E0089582EE90E00895FB
:100DF00086EE90E008959091AA0292FF06C0282FF7
:100E000028712830F9F4877F846093FF06C0282F6B
:100E100028712831F1F4877E84612091AB0220FF94
:100E200006C0382F38713830D9F4877F816021FFB0
:100E300006C0282F28712831D1F4877E816194FD66
:100E4000877E0895282F24712430F9F68B7F8860DF
:100E5000DCCF282F2471243101F78B7E8861DDCF10
:100E6000382F3171313019F78E7F8860E0CF282F0D
:100E70002171213121F78E7E8861E1CF0895CF93D2
:100E8000DF9300D000D0CDB7DEB70E94531A811196
:100E900002C00E94F81A0E945E1A809386020E9485
:100EA000661A9093AB028093AA020E943E070E94AA
:100EB000621A282F30E050E040E0CA01B9010E94D8
:100EC000B2168091590290915A02A0915B02B091A2
:100ED0005C0289839A83AB83BC83BC01CD010F90F4
:100EE0000F900F900F90DF91CF910C942E170895D3
:100EF0000C94770708950C947A07E82FF0E0EE0F32
:100F0000FF1FEA54FD4F808191810895089580EA82
:100F10008A95F1F7089500C008950C948707F89416
:100F2000E82FE295EF70F0E041A18F7021E030E012
:100F3000B90102C0660F771F8A95E2F7CB01962FA1
:100F40009095942391A392A1892B82A378940895DC
:100F50000F931F93CF93DF9381E30E948F0782E368
:100F60000E948F0783E30E948F0780EF0E948F0704
:100F700081EF0E948F07C8E8D1E006E911E089916E
:100F80000E948F070C171D07D1F71092AD02109227
:100F9000AC021092B7021092B6021092AF021092F9
:100FA000AE021092B9021092B8021092B1021092E1
:100FB000B0021092BB021092BA021092B3021092C9
:100FC000B2021092BD021092BC021092B5021092B1
:100FD000B4021092BF021092BE0285E00E94760811
:100FE000DF91CF911F910F910C94CF03AF92BF92DD
:100FF000DF92EF92FF920F931F93CF93DF93C6E997
:10100000D1E00CEA12E0D12CEE24E394F12C89918A
:10101000F894E82FE295EF70F0E021A18F70A7011E
:1010200002C0440F551F8A95E2F7CA01922F982BF0
:1010300091A392A18095892382A378940E948B0723
:10104000E8E8F1E030E020E0B12CA12C4191A42FA0
:10105000A295AF70B0E090968C9190E04F7002C076
:10106000959587954A95E2F780FD3BC0C701022E12
:1010700002C0880F991F0A94E2F7A82AB92A2F5FA5
:101080003F4F2E30310511F7FE01319780810E94CC
:101090008F070E948D07F80180819181A816B906FB
:1010A00019F1B182A08281E0D82A0E5F1F4FF1E0D2
:1010B000CB39DF0709F0ABCF2D2D45E066EB72E0B1
:1010C0008CEA92E00E9477080E94D5038D2DDF9173
:1010D000CF911F910F91FF90EF90DF90BF90AF9055
:1010E000089590E080E0C9CF80E0DECF0895FF92C0
:1010F0000F931F93CF93DF93F82E092F162FD72F1F
:10110000C42F222349F081E08093D2010E94421C27
:101110009093D1018093D0018091D2018823A1F0D6
:101120008091D0019091D1010E946E1C069760F0D1
:10113000EF2DF02FA12FBD2F90E080E0D0E08C1795
:101140009D0744F01092D201DF91CF911F910F9132
:10115000FF900895219131912D933D930196EFCF0A
:101160000F931F93CF93DF93EC01C11580ECD80749
:1011700010F1D05C0E948B19182F0E94A219182B15
:101180000E94C719082F0E94C70D102B127291E000
:1011900009F490E086958170981729F0CC0FCD2F37
:1011A000CC1FDD0BD195CE018F779927DF91CF91A1
:1011B0001F910F910895CE019058F8CFCF93DF93F0
:1011C00000D000D0CDB7DEB7FB0197FF14C022815D
:1011D000222389F00E94B008FC01EE0FFF1FEE0FE2
:1011E000FF1FEB54FF4F85919591A591B491BC01E0
:1011F000CD010E94DC0981E00F900F900F900F90BD
:10120000DF91CF9108958CE090E00E949123482FC8
:1012100050E070E060E04093C0025093C1026093E0
:10122000C2027093C302882359F0843029F01092CF
:10123000D3011092C002089581E08093D3010895F4
:101240001092D30108956091C0028CE090E00C945C
:101250009F232091D301082E000C990B820F911D22
:1012600027FD9A9562E070E00E9463238F3F71F042
:101270008093D301E091D3010E2E000CFF0BE556B5
:10128000FE4F80818093C0020C94230981E0F0CF4F
:101290000E94C70D869581708093C5029091C0020F
:1012A000913029F4882319F089E30E9425100E94C7
:1012B0008B198093C4020E949F198091C0028230D2
:1012C000A9F030F481110DC086EE0E94360F02C0E5
:1012D000843099F08FE39CE90197F1F700C000009A
:1012E000089588E193E00E947303F4CF82EE0E9498
:1012F000360F87E50E942510EDCF86EE0E9425105F
:1013000088E1F8CF8091C0028230C1F030F48111C1
:101310000AC086EE0E94BF0F02C0843089F080911F
:10132000C4020C949C198CE20E9425108091C50285
:101330008823A9F389E30E942510F1CF82EEEACF3A
:1013400088E2F9CFBF92CF92DF92EF92FF920F9394
:101350001F93CF93DF936B017C01C7E0D0E00CE1DA
:1013600010E0BB24B394D701C601002E04C0B6958B
:10137000A795979587950A94D2F78F70C9F4B11005
:1013800002C00E941F05219704501109CF3FDC07BE
:1013900051F4DF91CF911F910F91FF90EF90DF906B
:1013A000CF90BF900895C430D105ECF6B12CDBCFBF
:1013B0000E941F05B12CE7CFCF92DF92EF92FF92F0
:1013C000CF93DF9300D000D0CDB7DEB76B017C01A7
:1013D000C114D10421E1E206F10408F04CC0C114AB
:1013E000D10431E0E306F10428F08091C00282309C
:1013F00009F441C00E944809C114D10441E0E40647
:10140000F104B0F18091C002811132C051E0E51ABF
:10141000F108D701C6012AE0B695A795979587955B
:101420002A95D1F79C01AD0138524F4F5F4FCA0149
:10143000B9010E94A20933E0D322EE24FF24D70190
:10144000C6019452AF4FBF4F89839A83AB83BC834D
:10145000BC01CD010E94A2090F900F900F900F9038
:10146000DF91CF91FF90EF90DF90CF900C948209A5
:10147000C701B601EFCF0F900F900F900F90DF9143
:10148000CF91FF90EF90DF90CF9008950F931F932F
:10149000CF93DF93EC018B01FB018281882361F004
:1014A0000E948B198272C13EFCE5DF07E9F060F40F
:1014B000C03EECE5DE07A1F0B801CE01DF91CF918F
:1014C0001F910F910C94DE08CE01825E9C4505971A
:1014D00098F78C2F825E8093C0020E942309ECCF84
:1014E000811104C081E003C08111FCCF8FEF0E9405
:1014F0002909E2CF0F931F93CF93DF93C42FD22FED
:10150000FC0182818823C9F04093D6010E94421CCD
:101510009093D5018093D40180E28C0F883008F03D
:1015200050C0C77081E001C0880FCA95EAF7DF910B
:10153000CF911F910F910C942D101091D60114137F
:1015400035C08091D4019091D5010E946E1C883CD9
:10155000910560F5C0E2CD0F1D17B9F080E2810F53
:10156000883040F4177081E001C0880F1A95EAF7BF
:101570000E943410C83048F481E09D2F977001C05C
:10158000880F9A95EAF70E942D10802F0E9425104F
:10159000C830B8F4D77081E001C0880FDA95EAF757
:1015A000DF91CF911F910F910C94341080E28C0F3A
:1015B000883038F4C77081E001C0880FCA95EAF717
:1015C000EFCFDF91CF911F910F9108950F939C0161
:1015D000CB01243F4CE53407A1F190F4293DFCE513
:1015E0003F0749F12A3D4CE53407E9F1283D3C45E8
:1015F000C1F0FC0182818823E1F11092D60119C06B
:10160000263FFCE53F0719F1273F4CE5340729F158
:10161000253F3C4571F707E225EE44EE65EF7CE59A
:1016200005C006E221EE41EE68ED7CE50E947A0AF3
:1016300080E00F91089507E225EE45EE69ED7CE527
:10164000F5CF06E221EE40EE64EF7CE5EFCF06E257
:1016500021EE42EE66EF7CE5E9CF07E225EE46EEAD
:1016600067EF7CE5E3CF08E221E045EE6AED7CE53B
:10167000DDCF81E0DECFCF93DF93EC01FB018281F0
:10168000882309F4C9C0C631FCE5DF07E0F4C230A5
:101690009CE5D907F0F00E94661A9093AB02809304
:1016A000AA02C631ECE5DE0720F5C230FCE5DF0713
:1016B00098F48091AA029091AB020E94741A0E9441
:1016C000E31280E006C09E012B5F3C4529303105C6
:1016D00010F3DF91CF910895FE01E350FC45809116
:1016E000AA028160E331F10588F4EB52FC4D0C94C1
:1016F0007723CB5FDC45C930D105D8F6C851DC4D26
:10170000FE010C9477238091AA0282608093AA0242
:10171000D0CF8091AA028460F9CF8091AA0288601C
:10172000F5CF8091AB0281608093AB02C2CF8091F4
:10173000AB028260F9CF8091AA028061E7CF8091ED
:10174000AA028062E3CF8091AA028064DFCF0E9468
:10175000E3128091AA028068D9CF8091AA028C609E
:10176000D5CF8091AB028360DFCF8091AA028E7FBC
:10177000CDCF8091AA028D7FC9CF8091AA028B7FA5
:10178000C5CF8091AA02877FC1CF8091AB028E7FA7
:10179000CBCF8091AB028D7FC7CF8091AA028F7E85
:1017A000B5CF8091AA028F7DB1CF8091AA028F7BA5
:1017B000ADCF0E94E3128091AA028F77A7CF8091CC
:1017C000AA02837FA3CF8091AB028C7FADCF8091A3
:1017D000AA0282FB992790F921E0922790FB82F9D7
:1017E00090FB83F993CF8091AB02982F90959170E5
:1017F0008E7F892B90FB81F997CF0E94E312909105
:10180000AA02892F97FB87F9805880CF81E00E9438
:10181000FA1A4FCF80E0FBCF81E05BCFCF93DF930D
:10182000EB0186319C4511F50E948B199A81992311
:1018300099F08A7A91E009F490E09093D7018111B0
:1018400009C089E20E9445190E94E41980E0DF91F5
:10185000CF91089585E3F6CF8091D701811104C01F
:1018600089E20E944C19F0CF85E3FBCF81E0EFCFF6
:10187000CF93DF93EC0181E0898B8F810E948E19D9
:1018800088850E94A5190E94E419EA81FB8130979E
:1018900039F06C897D89CE010696DF91CF9109944C
:1018A000DF91CF910895CF93DF93EC01FB01888105
:1018B000823029F482810E94411781E08B87DF9179
:1018C000CF910895DB01FC018081813021F48D915D
:1018D0009C910C944903823039F41396ED91FC915C
:1018E000149712968C9109940895FB01DC018C9158
:1018F000813021F4808191810C945E030895EF92F0
:10190000FF920F931F93CF93DF93EC018A85811190
:1019100034C0EB80FC8087E5F81A26E12E9DC001DB
:101920002F9D900D1124DC01A050BF4F1496ED9116
:10193000FC911597309731F054966D917C918A5FA8
:101940009E4F099586E18E9D80018F9D100D11247B
:1019500000501F4FF80187810E949419F80180857B
:101960000E94AB190E94E419188219861B861E82F8
:101970001D821092D9011092D801DF91CF911F9151
:101980000F91FF90EF900895DF92EF92FF920F93E7
:101990001F93CF93DF938C01FB018281882391F009
:1019A00080914C018F3F71F0C0E0D1E0F12CE12C2F
:1019B000DD24D39480914C01082E000C990B8E15D8
:1019C0009F0544F4DF91CF911F910F91FF90EF900D
:1019D000DF9008958E818823D9F089859A858017B4
:1019E000910739F48091D8019091D901801791071E
:1019F00079F0DF861C870B878989811103C0CE01AE
:101A00000E94380CCE0106960E947F0C0E94B319EA
:101A1000FFEFEF1AFF0A6696CDCFEF92FF920F937A
:101A20001F93CF93DF938C01FB0197558F3F910557
:101A300009F0D0F520914C01022E000C330B281731
:101A4000390714F480934C01228136E1389F7001EC
:101A5000399FF00C1124E701C050DF4F288B928191
:101A60008E81992349F11A8709878F5F8E830E949F
:101A7000421C9E878D870E94C7198F830E948B19F5
:101A800088870E94A2199885982B9887E881F98108
:101A9000309731F06C897D89C7018A5F9E4F099527
:101AA0001093D9010093D80181E0DF91CF911F916C
:101AB0000F91FF90EF9008958823B1F389898823CF
:101AC00099F3C7018A5F9E4F0E947F0CEDCFEF9282
:101AD000FF920F931F93CF93DF9380914C0110E0FF
:101AE00006E18F3FC1F5DF91CF911F910F91FF90DC
:101AF000EF900895029FF001039FF00D1124E05034
:101B0000FF4FE288F388E114F10419F488ECE82E21
:101B1000F12C029FE001039FD00D1124C050DF4F34
:101B20008E818823B9F08D859E850E946E1CE816F3
:101B3000F90680F4109F700111248989811105C074
:101B4000C70180509F4F0E94380CC7018A5F9E4F8B
:101B50000E947F0C1F5F212F30E080914C01082EE6
:101B6000000C990B821793072CF6BDCF9093DF01E1
:101B70008093DE010895E091DE01F091DF0130975E
:101B800021F00190F081E02D099480E00895E0912A
:101B9000DE01F091DF01309711F480E008950190AB
:101BA000F081E02D09950895DC01E091DE01F091CE
:101BB000DF01309799F080915901882351F080918D
:101BC000AA0287FF06C08C9111968C93119785E02D
:101BD0008C930280F381E02DCD010994089520912A
:101BE000DC013091DD012817390771F09093DD0198
:101BF0008093DC01E091DE01F091DF01309721F06C
:101C00000680F781E02D099408952091DA01309142
:101C1000DB012817390771F09093DB018093DA011B
:101C2000E091DE01F091DF01309721F00084F18531
:101C3000E02D099408950E944E1C6093EF0170936B
:101C4000F0018093F1019093F2016093EB017093A6
:101C5000EC018093ED019093EE01089585B78068C3
:101C600085BF85B7806885BF0895089508950C9451
:101C7000350E08950C94390E0E942E0E81E59AE1DE
:101C80000E94C51C0E94360E0C94370E81E0089508
:101C90000C94460E089508950E944A0E0C944B0E23
:101CA0000E94391C0E94A8070C943A0E8F929F92B2
:101CB000AF92BF92CF92DF92EF92FF920F931F935A
:101CC000CF93DF9300D000D00F92CDB7DEB70E9444
:101CD000F60781110E941B0E51EE852E51E0952EC4
:101CE00010E000E0A02E802F0E947D077C01F4010F
:101CF000C190D1904F01C816D90609F459C08091FE
:101D0000860281FD0E948607C6018E259F25B12C83
:101D1000CC24C394D12C9C012C213D21232B09F4EC
:101D200041C00E94480E8823A9F0B982AA82EC2003
:101D3000FD2081E0EF2809F480E08B830E94421CA3
:101D40008160782F9D838C8349815A816B818D813D
:101D50000E94010F000F111FF801EF51FE4F80810B
:101D60009181C826D926D182C0820E94BB0D909154
:101D7000E0018917A1F10E94BB0D8093E0010F9053
:101D80000F900F900F900F90DF91CF911F910F91B7
:101D9000FF90EF90DF90CF90BF90AF909F908F908B
:101DA0000C943005B394CC0CDD1CFEE0BF12B3CF15
:101DB0000F5F1F4F0530110509F094CF8FEF898316
:101DC0008A831B820E94421C8160782F9D838C83B2
:101DD00049815A816B818D810E94010FC6CF0F907E
:101DE0000F900F900F900F90DF91CF911F910F9157
:101DF000FF90EF90DF90CF90BF90AF909F908F902B
:101E00000895DF92EF92FF920F931F93CF93DF938A
:101E1000CDB7DEB72B970FB6F894DEBF0FBECDBFA0
:101E20007A878B87F42E052F162FE72ED82E611177
:101E30000E94B3197E2DEC82DD824F2D502F612F31
:101E40008D2D90E02B960FB6F894DEBF0FBECDBF60
:101E5000DF91CF911F910F91FF90EF90DF900C9445
:101E60008615FC01808191810C940F19CF93C82FA6
:101E7000882309F482C08238C1F40E94BB0D81FD21
:101E80007CC089E30E9445190E94E4192FEF31EECE
:101E900084E0215030408040E1F700C0000089E339
:101EA0000E944C19CF910C94E4198338A1F40E943C
:101EB000BB0D80FD62C083E50E9445190E94E419B4
:101EC0009FEF21EE34E0915020403040E1F700C018
:101ED000000083E5E5CF8438A1F40E94BB0D82FDAC
:101EE0004CC087E40E9445190E94E4198FEF91EEDF
:101EF00024E0815090402040E1F700C0000087E4DA
:101F0000CFCF8CEF8C0F813A90F46C2F80914D01E4
:101F100090914E010E94131B882329F08C2F0E9460
:101F20004C190E94E4198C2F0E944519BBCF80E206
:101F30008C0F883048F4C77081E001C0880FCA95C3
:101F4000EAF70E948E19AECF8BE58C0F833038F400
:101F50002C2F2452330BC901CF910C94EF0DC85A8A
:101F6000C73158F4EC2FF0E0EE0FFF1FE356FE4FA1
:101F700080819181CF910C94050ECF910895882393
:101F800009F44BC0823871F40E94BB0D81FF45C03B
:101F900089E30E9445190E94E41989E30E944C19C3
:101FA0000C94E419833859F40E94BB0D80FF35C0AE
:101FB00083E50E9445190E94E41983E5EFCF843838
:101FC00059F40E94BB0D82FF28C087E40E94451986
:101FD0000E94E41987E4E2CF9CEF980F913AF0F267
:101FE00090E2980F983050F4877091E001C0990FFB
:101FF0008A95EAF7892F0E949419D2CF9BE5980F12
:10200000933020F490E080E00C94EF0D885A8731F3
:1020100020F490E080E00C94050E08951F93CF9378
:10202000DF93182FEB010E94360F209731F4812F98
:10203000DF91CF911F910C94BF0F8FE99FE0019723
:10204000F1F700C000002197F0CF70E060E0893325
:1020500011F460E570E00C940E10882321F00E94CA
:102060008E190C94E4190895882321F00E94941984
:102070000C94E4190895AF92BF92CF92DF92EF9241
:10208000FF920F931F93CF93DF9300D000D00F9256
:10209000CDB7DEB76C016D837983FC0112810581B8
:1020A00002950F700E946319E82E8823A1F0E12E9B
:1020B000112389F08981807F803429F08D81805EB1
:1020C000E12C883040F082E00E94351A0E946319AA
:1020D00091E0E82EE926A980A2949FE0A922B12CE4
:1020E000F501EF50FC4D0C94772309810F70F981B5
:1020F000F07F11F00295007F1123B1F0002361F011
:102100008D81805E883018F02D81211109C0802FCB
:102110000E948E190E94E4198D810E94360F15C00D
:10212000802F0E94A519F6CF8D810E94BF0F00233A
:1021300061F08D81805E883018F04D81411133C08F
:10214000802F0E9494190E94E41958E0A51AB10842
:1021500064E0A616B10420F40E94BB0D0E94300575
:10216000EE2009F4C1C10E945F1980FDBDC1F601D6
:1021700012820E9459190E946617C6010E949B1282
:102180000E9459190F900F900F900F900F90DF91B0
:10219000CF911F910F91FF90EF90DF90CF90BF9064
:1021A000AF900C949717802F0E94AB19CCCF598118
:1021B0005F70F52E6981607F603219F0F29480EFD4
:1021C000F8227D81772369F0713049F1112391F173
:1021D000002351F1F601858180FF9ECF8F708583AA
:1021E00023C0112381F0011106C00E94C7198F2955
:1021F0000E942D10AACF0130C1F70E94C7198F2964
:102200000E94CD19A2CF011106C00E94DA198F2DAC
:102210000E9434109ACF013009F497CFF6CF1123E2
:1022200029F0063008F091CF8F2DE2CF053008F06D
:102230008CCFEDCF002359F3FD81F93349F42FEF13
:1022400047EE53E0215040405040E1F700C000000D
:102250008D810E94BF0F79CF898186958695837085
:1022600069F0813009F071CF8D81998193701111DE
:1022700002C090E080E00E94050E67CF8D819981B9
:102280009370111102C090E080E00E94EF0D5DCFCD
:102290008981837009F050C0111157CF4D8142954B
:1022A00046954770440F440F8D818F7090E0B0E0E9
:1022B000A0E0042E04C0880F991FAA1FBB1F0A9418
:1022C000D2F76D8100E010E0980164FF0FC00FE0CD
:1022D00010E020E030E004C0000F111F221F331F68
:1022E0004A95D2F70095109520953095798176958D
:1022F000769573707D83B901A801482B592B6A2B01
:102300007B2B49835A836B837C835D8169817A81CE
:102310008B819C81523051F0533059F0513019F07B
:102320000E94DC1612CF0E94B4160FCF0E94041731
:102330000CCF0E94B21609CF8695112311F0898126
:102340008170882309F401CF4D81429546954770ED
:10235000440F440F8D818F7090E0B0E0A0E0042E18
:1023600004C0880F991FAA1FBB1F0A94D2F76D8162
:1023700000E010E0980164FF0FC00FE010E020E0E3
:1023800030E004C0000F111F221F331F4A95D2F7FF
:102390000095109520953095798176957695737096
:1023A0007D83B901A801482B592B6A2B7B2B4983CC
:1023B0005A836B837C835D8169817A818B819C8167
:1023C000523051F0533059F0513019F00E94251815
:1023D000BCCE0E94FD17B9CE0E944D18B6CE0E9409
:1023E0003017B3CE69816F706983112329F0862F6E
:1023F0000E9466178D81FCCE8D810E9434108981E8
:102400000E949717A2CE7D81723FA1F160F4703FC8
:10241000E1F0713F41F1112309F445C001117CCE77
:1024200089818F7124C08D81833F49F1843F99F761
:10243000112379F199819F719983892F0E946617E1
:1024400063E089810E941A1A80CE112341F0053081
:1024500008F07BCE89818F710E94CC1776CE063032
:1024600008F073CEF7CF89818F71112349F20E9452
:1024700066176BCE89818F711123C9F3C1CF1123E8
:1024800029F089818F710E9441175FCE0E943C170D
:102490005CCE81E00E94351A023008F456CE82E00C
:1024A0000E94351A52CE002361F0ED81E93309F024
:1024B000CFCEFFEF27EE43E0F15020404040E1F760
:1024C000C5CE89818F719CCF49814F706D81C601C6
:1024D0000E9438050E94261638CE49814F706D81C2
:1024E000C6010E943B0531CE0F900F900F900F90C8
:1024F0000F90DF91CF911F910F91FF90EF90DF90A0
:10250000CF90BF90AF9008950F931F93CF93DF9319
:10251000EC01688179818A810E941B198C010E94DB
:1025200075180E94B116B801CE01DF91CF911F91AD
:102530000F910C943B10CF93DF93EC018B819C8126
:10254000892B29F08881998189238F3F59F4DF9164
:10255000CF910895CE010E948412CE01DF91CF91D8
:102560000C94C203CE010E94E9038111F3CF0E94B3
:102570006319882361F38A81882349F382E0DF911C
:10258000CF910C94351A882321F00E94A5190C9440
:10259000E4190895882321F00E94AB190C94E419E2
:1025A000089590E080E00E94EF0D90E080E00E94AE
:1025B000050E0E94B3190E94C4190C94E4190E94DC
:1025C00053190C94D1120E949F190C94DF12282FDA
:1025D000892F82958F70903C80F48A30B0F48430DB
:1025E00020F4823090F480E008958630E1F781E0B5
:1025F000283E88F0213FB9F70EC08C3011F08F30A3
:1026000091F793FB882780F9089581E0203F39F006
:1026100018F4283E40F70895243F29F7FCCF089589
:102620000E940F190C94E712CF93DF9300D000D0D3
:102630000F92CDB7DEB70F900F900F900F900F90C5
:10264000DF91CF910895CF93DF9300D000D000D0D9
:10265000CDB7DEB726960FB6F894DEBF0FBECDBF5E
:10266000DF91CF9108951F93CF93DF93E091F40111
:1026700016E08091F5018E1304C0DF91CF911F9178
:102680000895CE2FD0E01E9FF0011124EA50FE4F96
:102690004081518162817381848195810E942313DD
:1026A000FE013196E770E5CF409126025091270256
:1026B000609128027091290280912A0290912B0248
:1026C0000C942313E091F4019091F50156E0E91385
:1026D00002C080E008952E2F30E05E9FF0011124AB
:1026E000EA50FE4F7181761306C07081781303C0E3
:1026F0007281741304C0F9013196E770E8CF81E06C
:1027000008951F93CF93DF9380912B02807FA9F4CC
:1027100080912802882389F08091F401C091F5010D
:102720006091260270912702A0912902B0912A029D
:10273000D62FD72316E0C81304C0DF91CF911F9185
:10274000089590E0109711F0DF3F19F4019687701B
:10275000F2CF189F9001199F300D1124F901EA5012
:10276000FE4F41814713F2CF40814613EFCF4281A4
:102770004111ECCF438154814A1B5B0B483C51050E
:1027800028F780912B028F70806180932B02F901D2
:10279000E550FE4F80818F708061808386E292E0F9
:1027A0000E949B12DF91CF911F910C9433138F9253
:1027B0009F92AF92BF92CF92DF92EF92FF920F93D0
:1027C0001F93CF93DF93CDB7DEB72B970FB6F89457
:1027D000DEBF0FBECDBF8C0185E0F801DE0117968C
:1027E00001900D928A95E1F7D801EC901196DC905A
:1027F00011971296CC90129786E2A82E82E0B82EFE
:102800004091290250912A024115510509F45CC1F9
:102810009091260220912702822F89238F3F09F46D
:1028200053C113968D909C901497F0902802F40158
:10283000E41BF50BFF2009F4F2C080912B02382F26
:10284000307FE83CF10508F0C4C031118CC0FC2C8D
:102850002D1126C09E1124C0C11022C08F7080612E
:1028600080932B020E945413C5010E949B128091F9
:102870002B02D80115968C938F2D2B960FB6F894BA
:10288000DEBF0FBECDBFDF91CF911F910F91FF90A3
:10289000EF90DF90CF90BF90AF909F908F90089572
:1028A0008114910429F08E2D8D218F3F09F02BC1C9
:1028B00080E080FF15C04C2D6D2D8E2D0E9462137F
:1028C000882371F086E292E00E949B1286E0E6E2A5
:1028D000F2E0DF011D928A95E9F70E94541341C08E
:1028E000892829F08E2D8D218F3F09F009C180E0C4
:1028F000B82FB170BB2E80FF2CC04C2D6D2D8E2DAE
:102900000E946213A82E811124C0EF82D8868F8185
:1029100098850E940F19292F22952F70903248F028
:10292000225F2F70223068F0C8010E949B12AB2CEE
:102930000EC09F7011F0882351F0805E883038F00F
:10294000F3CF9F70D1F3F8019581907FB1F7FA2C06
:1029500093CFCC2009F490CF80912B02816080939B
:102960002B02F12C89CF2D1105C09E1103C0CC2064
:1029700009F471C0EF82D8868F8198850E94101368
:10298000882319F1CC2009F180912B02803270F05C
:1029900020912602309127023A8329831B829D824F
:1029A0008C828E83CE0101960E949B1286E0F801F4
:1029B000A6E2B2E001900D928A95E1F70E948113A0
:1029C0000E945413FF24F39457CFC8010E949B1216
:1029D000F9CF311113C0782D9B868A864E2D5D2D3F
:1029E0006C2D8B850E94141386E292E00E949B124C
:1029F00086E0F50111928A95E9F76FCF2D11BACFD4
:102A00009E11B8CFC110B6CF15968C93C8010E9405
:102A10009B1286E0F50111928A95E9F72DCFE83CEB
:102A2000F10508F042C0FC2CCC2079F22D112CC00D
:102A30009E112AC080912B0280FD1DC0982F907F8F
:102A4000D1F015968C931597903F39F0982F907F81
:102A5000905F8F70892B15968C93C8010E949B12F2
:102A600086E0F801A6E2B2E001900D928A95E1F7C6
:102A70000E94541301CF86E0F801A6E2B2E0019073
:102A80000D928A95E1F7F8CEEF82D8868F819885EE
:102A90000E94101381118ACF80912B028160809354
:102AA0002B02C8010E949B12E7CE782D9B868A8656
:102AB0004E2D5D2D6C2D8B850E94141386E0F50143
:102AC00011928A95E9F7D4CFCC2009F47ECFEF821A
:102AD000D8868F8198850E941013F82E882309F4D8
:102AE00074CF86E0F801A6E2B2E001900D928A95DB
:102AF000E1F786E292E00E94310F0E948113B8CF85
:102B000081E08C25F5CE81E08C25D3CE1F93CF9329
:102B1000DF93CDB7DEB72C970FB6F894DEBF0FBEAC
:102B2000CDBF4F83588769877A878B879C87CE0173
:102B300007960E94D713882369F08A859B85892B85
:102B400039F04F815885842F85238F3F09F077C056
:102B500016E065C086E0FE013796DE011196019011
:102B60000D928A95E1F76A857B856115710581F380
:102B70005F814885842F85238F3F51F32091F50194
:102B800030E0C901019687709927E091F401E817B8
:102B9000190671F40E94E3121092F5011092F401EB
:102BA00086E0E6E2F2E0DF011D928A95E9F7D0CFF8
:102BB00059834A837D836C8396E0929FD001939FD3
:102BC000B00D1124AA50BE4FFE01319601900D9216
:102BD0009A95E1F78093F5010E943313B9CF819F55
:102BE000C00111248A509E4F0E94D7138823E9F018
:102BF000E091F4011E9FF0011124EA50FE4F408144
:102C0000518162817381848195810E942313809117
:102C1000F40190E00196877099278093F4018091E8
:102C2000F4019091F5018913DACF2C960FB6F89440
:102C3000DEBF0FBECDBFDF91CF911F910895698593
:102C40007A858B859C850E94231382CFEF92FF9219
:102C50000F931F93CF93DF938C01892B89F0F12C75
:102C6000EE24E394E8012196F8018491843709F475
:102C700057C0A0F4823009F43EC048F48130D1F04E
:102C8000DF91CF911F910F91FF90EF9008959CEFEE
:102C9000980F9037A8F70E94360F0AC0853709F4BD
:102CA0004CC09CE7980F903758F78F770E94BF0F62
:102CB0008E0116C00E5F1F4FFE01849190E2980FA7
:102CC000983060F48770FE2D01C0FF0F8A95EAF7F7
:102CD0008F2F0E94B6190E94E41902C00E94360F7D
:102CE0008F2D815008F4BECFEFE9FFE03197F1F767
:102CF00000C00000F6CF0E5F1F4FFE01849190E2EE
:102D0000980F983050F48770FE2D01C0FF0F8A9500
:102D1000EAF78F2F0E94BC19DECF0E94BF0FE0CFD1
:102D20000E5F1F4FFE01C491C150D0F28FE99FE0AA
:102D30000197F1F700C00000F7CF0E5F1F4FFE01B3
:102D4000F490CECF08950C94A2160E94A31660931F
:102D50005D0270935E0280935F02909360020C9418
:102D6000D11208950C94A516CF93DF9300D000D014
:102D7000CDB7DEB769837A838B839C8380915D02B4
:102D800090915E02A0915F02B091600229813A8128
:102D90004B815C81282B392B4A2B5B2B29833A836F
:102DA0004B835C83CA01B9010F900F900F900F9075
:102DB000DF91CF910C94A516CF93DF9300D000D074
:102DC000CDB7DEB769837A838B839C8380915D0264
:102DD00090915E02A0915F02B091600229813A81D8
:102DE0004B815C81282339234A235B2329833A833F
:102DF0004B835C83CA01B9010F900F900F900F9025
:102E0000DF91CF910C94A516CF93DF9300D000D023
:102E1000CDB7DEB769837A838B839C8380915D0213
:102E200090915E02A0915F02B091600229813A8187
:102E30004B815C81282739274A275B2729833A83DE
:102E40004B835C83CA01B9010F900F900F900F90D4
:102E5000DF91CF910C94A5160C94A2160C942C170C
:102E60000E942E176093590270935A0280935B025E
:102E700090935C020C94D11260E070E0CB010C9452
:102E800030170F931F93CF93DF9300D000D0CDB7AF
:102E9000DEB741E050E060E070E08A019B0104C0D1
:102EA000000F111F221F331F8A95D2F709831A833F
:102EB0002B833C83C901B8010F900F900F900F90A6
:102EC000DF91CF911F910F910C9430170F931F93A7
:102ED000CF93DF9300D000D0CDB7DEB741E050E014
:102EE00060E070E004C0440F551F661F771F8A958D
:102EF000D2F78091590290915A02A0915B02B09151
:102F00005C028A019B01082B192B2A2B3B2B09837E
:102F10001A832B833C83C901B8010F900F900F9047
:102F20000F90DF91CF911F910F910C9430170F9359
:102F30001F93CF93DF9300D000D0CDB7DEB741E031
:102F400050E060E070E004C0440F551F661F771F1B
:102F50008A95D2F740955095609570958091590269
:102F600090915A02A0915B02B0915C028A019B0190
:102F7000082319232A233B2309831A832B833C83A9
:102F8000C901B8010F900F900F900F90DF91CF9172
:102F90001F910F910C9430170F931F93CF93DF93D2
:102FA00000D000D0CDB7DEB741E050E060E070E087
:102FB00004C0440F551F661F771F8A95D2F7809172
:102FC000590290915A02A0915B02B0915C028A0171
:102FD0009B01082719272A273B2709831A832B835C
:102FE0003C83C901B8010F900F900F900F90DF91B3
:102FF000CF911F910F910C943017CF93DF9300D096
:1030000000D0CDB7DEB769837A838B839C838091B0
:10301000590290915A02A0915B02B0915C02298101
:103020003A814B815C81282B392B4A2B5B2B2983DE
:103030003A834B835C83CA01B9010F900F900F90C4
:103040000F90DF91CF910C943017CF93DF9300D086
:1030500000D0CDB7DEB769837A838B839C83809160
:10306000590290915A02A0915B02B0915C022981B1
:103070003A814B815C81282339234A235B232983AE
:103080003A834B835C83CA01B9010F900F900F9074
:103090000F90DF91CF910C943017CF93DF9300D036
:1030A00000D0CDB7DEB769837A838B839C83809110
:1030B000590290915A02A0915B02B0915C02298161
:1030C0003A814B815C81282739274A275B2729834E
:1030D0003A834B835C83CA01B9010F900F900F9024
:1030E0000F90DF91CF910C9430170895E82F2EE0C8
:1030F000929FE00D11248E2F877041E001C0440F94
:103100008A95EAF7E695E695E69585E0E89FF00171
:103110001124E45DFD4F30E020E070E05191DF01CB
:103120001197CB01022E02C0969587950A94E2F77B
:10313000817081958527842385278C932F5F3F4F4E
:103140002530310559F70895E82F2EE0929FE00DC4
:1031500011249E2F9770E695E695E69585E0E89F09
:10316000F0011124E45DFD4F50E040E080E021914A
:1031700030E0092E02C0369527950A94E2F72170B7
:103180003327042E01C0220F0A94EAF7822B4F5FE7
:103190005F4F4530510559F70895BF92CF92DF92A6
:1031A000EF92FF920F931F93CF93DF938C01C09008
:1031B0005902D0905A02E0905B02F0905C0280913C
:1031C0005D0290915E02A0915F02B0916002C82AF8
:1031D000D92AEA2AFB2ACFE1D0E0BC2ED701C601CA
:1031E0000C2E04C0B695A795979587950A94D2F7AB
:1031F00080FD0EC0219788F7B12C8B2DDF91CF91E8
:103200001F910F91FF90EF90DF90CF90BF900895A6
:10321000B8018C2F0E945805019761F3EECFCF9330
:10322000DF93D82FC92F0E94CD186D2F7C2FDF91EF
:10323000CF910C9458051F93CF93DF93162FD72F60
:103240009091F301992339F0862F972FDF91CF9139
:103250001F910C940F19882391F0862F972F0E94AD
:10326000CD18C82F682F812F9D2F0E947618612FAF
:103270007D2F8C2FDF91CF911F910C945805862FB5
:10328000972F0E94A418C82FF2CF682F80914D016C
:1032900090914E010C94971B682F80914D01909155
:1032A0004E010C94A21B80914D0190914E010C9403
:1032B000AD1B8091610285958595859508958091D6
:1032C00061028770089590916102977081E009F41E
:1032D00080E008959091AB0292FB222720F92817F5
:1032E00051F080FB92F99093AB028091AA029091E9
:1032F000AB020C94741A08958091AB0282FB88276C
:1033000080F991E089270C946A1981E00C946A197C
:1033100080E00C946A19809185020895909185024D
:10332000982B909385020895982F9095809185020F
:1033300089238093850208958093850208951092D1
:103340008502089580918402089590918402982BBB
:10335000909384020895982F9095809184028923F8
:1033600080938402089510928402089590918302BC
:10337000982B909383020895982F909580918302C3
:103380008923809383020895109283020895809187
:103390006202089508950C94CA199091AB0292FDAF
:1033A00008C090916202981721F0809362020C94F9
:1033B000CB19089580916202882329F0109262024D
:1033C00080E00C94CB190895E0914D01F0914E01ED
:1033D000809185028083E0914D01F0914E018081C2
:1033E00090918402892B8083E0914D01F0914E01F0
:1033F000808190918302892B80839091620299232E
:1034000081F0E0914D01F0914E018081892B808304
:1034100080914D0190914E010E94FF1A81110E94EE
:10342000DA1980914D0190914E010C94D40D0895BC
:103430000C94171A9091AB0292FD10C098E0899FEE
:1034400090011124622B609361020E9466178091A3
:1034500061028595859585950C94181A0C946617CC
:103460001092610280E00C94181A9091610280958C
:10347000892380936102282F277039F4282F082E82
:10348000000C330B9217130621F49091AB0292FFBC
:1034900007C08595859585950E9497170C94301ADD
:1034A000089580E0089590E080E00E9499239C01B7
:1034B00081E02A3E3E4F09F080E0089582E090E0EE
:1034C0000C94912383E090E00C949123CF9384E0BB
:1034D00090E00E949123C82F82E290E00E94912305
:1034E000982F8C2FCF910895CF93682FC92F84E008
:1034F00090E00E949F236C2F82E290E0CF910C9489
:103500009F23AB01BC018FE090E00C94B123AB0191
:10351000BC0183E190E00C94B12360E070E0CB014A
:103520000C94871A60E070E0CB010E94811A0C9421
:103530008D1A6AEE7EEF90E080E00E94BD2360E08D
:1035400082E090E00E949F2360E083E090E00E9490
:103550009F2310925D0210925E0210925F02109201
:10356000600260E084E090E00E949F2360E082E2DD
:1035700090E00E949F2360E085E090E00E949F23FE
:1035800060E086E090E00E949F236FEF87E090E08C
:103590000E949F2340E050E0BA0188E090E00E9442
:1035A000B12360E08DE090E00E949F2340E050E076
:1035B000BA0188E190E00E94B12360E087E190E0E9
:1035C0000E949F2340E050E0BA018CE190E00E940D
:1035D000B12370E060E080E290E00E94BD2340E013
:1035E00050E0BA0188E190E00E94B1230C94921A55
:1035F0000C94991A682F8EE090E00C949F23FC01A4
:10360000329680915901882321F08091AA029EE18F
:1036100087FF96E080E0915008F4089521912223DD
:10362000D1F38F5FF8CF9C01662301F1809159019E
:103630008823F1F08091AA0287FF1AC0462F469591
:1036400046954695603F90F4677081E090E002C037
:10365000880F991F6A95E2F7240F311DF901228125
:1036600030E02823392381E0232B71F480E0089592
:10367000F9013296285F3F4F8191861721F0E217BA
:10368000F307D1F7F3CF81E008959C01FC01329656
:103690008FEF90E04191461751F08F3F19F441119F
:1036A00001C0892F9F5F9630A9F78F3F09F40895D5
:1036B000280F311D87FD3A95F901628308959C0119
:1036C000FC013296285F3F4F8191861303C0DF01D2
:1036D00011971C92E217F307B9F70895E62FE695C4
:1036E000E695E695603F68F4E80FF92FF11D6770E5
:1036F00021E030E001C0220F6A95EAF78281822B37
:1037000082830895E62FE695E695E695603F70F48E
:10371000E80FF92FF11D677081E090E001C0880F7C
:103720006A95EAF780959281892382830895209192
:103730005901222329F02091AA0227FD0C946E1B27
:103740000C94451B20915901222329F02091AA02B3
:1037500027FD0C94821B0C945F1BFC013296809118
:103760005901882351F08091AA0287FF06C08EE19B
:10377000DF011D928A95E9F7089586E0F9CF089553
:1037800008950C94C01B8091CE02843049F10E94B0
:10379000C11B80E00E9430051092870288E190E012
:1037A00020E40FB6F894A895809360000FBE209394
:1037B000600083B7817F846083BF83B7816083BFEC
:1037C0007894889583B78E7F83BF0FB6F894A895B9
:1037D00080916000886180936000109260000FBE4D
:1037E00008950895CF930E94BF1B0E94F6070E9480
:1037F000F11BC0E08C2F0E947D07892B31F4CF5F35
:10380000C530C1F780E0CF91089581E0FCCF0895E5
:103810000C94071C0E94E3120E94BB0D0E9430050D
:103820000C94081C1F921FB61F9211248F939F9314
:10383000AF93BF9380918702811113C08091C6021C
:103840009091C702A091C802B091C9024196A11DF2
:10385000B11D8093C6029093C702A093C802B09393
:10386000C902BF91AF919F918F911F901FBE1F9072
:10387000189582E084BD93E095BD9AEF97BD809343
:103880006E0008952FB7F8948091C6029091C702F8
:10389000A091C802B091C9022FBF0895CF93DF93C2
:1038A00000D000D0CDB7DEB78FB7F8942091C60214
:1038B0003091C7024091C8025091C90229833A83CE
:1038C0004B835C838FBF69817A818B819C810F9050
:1038D0000F900F900F90DF91CF9108959C014FB7FB
:1038E000F8948091C6029091C702A091C802B0914D
:1038F000C9024FBF821B930B089578941F921FB685
:103900001F9211248F939F93AF93BF938091C60210
:103910009091C702A091C802B091C9020196A11D61
:10392000B11D8093C6029093C702A093C802B093C2
:10393000C902BF91AF919F918F911F901FBE1F90A1
:10394000189581E08093E00080E28093D800109287
:10395000C9008FE19EE40197F1F700C0000087E005
:1039600090EBDC018093D7029093D802A093D90208
:10397000B093DA0288E19CE00FB6F894A8958093A2
:1039800060000FBE90936000FFCF9093CD018093B5
:10399000CC0108958091A80208950895CF93DF93F4
:1039A00000D00F92CDB7DEB79091CE02943019F5CA
:1039B00089836A837B8382E08093E9008FEF909113
:1039C000E800815095FD06C095ED9A95F1F700004D
:1039D0008111F5CF8091E80085FF0DC050E040E0F7
:1039E00063E070E0CE0101960E94DB1E8091E8004A
:1039F0008E778093E8000F900F900F90DF91CF911A
:103A00000895BC0184E00C94CE1CBC0183E00C94AE
:103A1000CE1CCF93DF93D82FC92F809159018823D3
:103A2000C1F18091AA0287FF34C060E282E08093F6
:103A3000E9008FEF9091E800815095FD06C095ED6B
:103A40009A95F1F700008111F5CF8091E80085FF8C
:103A50001DC08091590170E050E040E0811104C028
:103A600050E040E068E070E08D2F9C2F0E94DB1E4C
:103A70008091E8008E778093E80080E2ED2FFC2FA4
:103A8000A8E8B2E001900D928A95E1F7DF91CF911D
:103A9000089568E081E0CBCF8091CD02811109C00B
:103AA0000E9463200E94C0208091E2008460809385
:103AB000E20008951092CD020895089508950895A2
:103AC00042E061EC81E00E94DF1F42E261EC82E0B3
:103AD0000C94DF1F8091D002893089F148F4823044
:103AE00009F49DC0833009F458C0813041F0089535
:103AF0008A3009F484C08B3009F46AC0089580913B
:103B0000CF02813A09F048C08091E800877F809316
:103B1000E8008091D3029091D402892B61F460E295
:103B200088E892E070E00E942A1F8091E8008B777D
:103B30008093E800089560E090E080E0F3CF80910A
:103B4000CF02813249F58091D3029091D40202973D
:103B500018F58091E800877F8093E8008091E80065
:103B600082FF16C09091F3008091F200029729F431
:103B70008091F1008B7F813021F48091F10080935E
:103B8000A8028091E8008B778093E8000C941320C2
:103B90008091CE028111E2CF08958091CF02813AC7
:103BA000D9F78091D3029091D402892BA9F7809103
:103BB000E800877F8093E8008091E80080FFFCCFD9
:103BC000809159018093F1008091E8008E77DCCFDD
:103BD0008091CF02813201F78091D3029091D4027B
:103BE000892BD1F68091E800877F8093E8000E94BE
:103BF00013208091D102809359010C94E31280919B
:103C0000CF02813249F68091E800877F8093E800F7
:103C10000E9413208091D2028093A902089580917E
:103C2000CF02813A09F0B8CF8091E800877F809376
:103C3000E8008091E80080FFFCCF8091A902C2CF0C
:103C400084B7877F84BF0FB6F894A89580916000F1
:103C5000886180936000109260000FBE80E890E061
:103C60000FB6F89480936100909361000FBE0E949C
:103C70003C0E0E9463200E94C0208091E20084607C
:103C80008093E20078940E9448230E94500E8FE4B3
:103C900091E00E94B60D8091CE02853099F00E948D
:103CA000560E0E944C0EF7CF0E94C31B8091CC028F
:103CB000882341F00E94F21B882321F00E94C51E38
:103CC0000E94E3128091CE02853071F30E940A1C9B
:103CD000E6CF0C946B1EFC01CB01DA012F2F3327AA
:103CE00023303105D1F070F42130310509F43EC0A4
:103CF0002230310569F48BE390E02BEE33E02D9315
:103D00003C93089521323105E9F02232310521F149
:103D100090E080E030E020E0F2CFCF019927E13061
:103D200059F08230910559F0E7EEF3E0892B81F7E5
:103D3000849190E09F01E3CFEFEBF3E0F9CFEDEA60
:103D4000F3E0F6CF892BB9F06130710509F789E00E
:103D500090E026E134E0D3CF892B91F061307105FA
:103D6000B9F68DE690E028E334E0C9CF82E190E037
:103D700026E234E0C4CF89E090E02DEF33E0BFCFFE
:103D800080E490E025EA34E0BACF80E189BD82E1A9
:103D900089BD09B400FEFDCF8091D8008F7D80934E
:103DA000D8008091E00082608093E0008091E00084
:103DB00081FDFCCF0895AF92BF92CF92DF92FF9228
:103DC0000F931F93CF93DF936C01EB018A010E9445
:103DD0003220F82E811123C00115110539F0F801A8
:103DE00080819181C81BD90BC80ED91EB12CA12C82
:103DF0002097A9F08091E80085FD22C08091E8001D
:103E00008E778093E80001151105A1F0F8018081FB
:103E10009181A80EB91EB182A08285E0F82E8F2D67
:103E2000DF91CF911F910F91FF90DF90CF90BF90C6
:103E3000AF9008950E9432208823D1F2F82EEFCF60
:103E4000F60181916F018093F1002197FFEFAF1A86
:103E5000BF0ACECFFC01CB012091D5023091D60212
:103E60002617370790F0009729F42091E8002E7765
:103E70002093E80040E0009751F4411108C0809180
:103E8000E80082FF31C080E00895C901F3CF20919E
:103E9000CE022223A9F12530A9F12091E80023FDCB
:103EA0002DC02091E80022FDEACF2091E80020FFFC
:103EB000E2CF3091F3002091F200009719F0283002
:103EC000310558F041E02830310509F040E02091FB
:103ED000E8002E772093E800CECF41914093F10087
:103EE00001972F5F3F4FE9CF8091CE02882341F0A9
:103EF000853041F08091E80083FFC1CF81E00895D3
:103F000082E0089583E00895FC01CB012091D50261
:103F10003091D6022617370790F0009729F42091A8
:103F2000E8002E772093E80040E0009751F441111B
:103F300008C08091E80082FF32C080E00895C90186
:103F4000F3CF2091CE022223B1F12530B1F120919F
:103F5000E80023FD2EC02091E80022FDEACF209149
:103F6000E80020FFE2CF3091F3002091F2000097AB
:103F700019F02830310558F041E02830310509F0BA
:103F800040E02091E8002E772093E800CECF4491C6
:103F90004093F100319601972F5F3F4FE8CF80911A
:103FA000CE02882341F0853041F08091E80083FF04
:103FB000C0CF81E0089582E0089583E00895982FAE
:103FC000973028F08F708093E90081E008959093F6
:103FD000E900242F762F50E0981731F07091EC0013
:103FE0002091ED005091F00021FD02C09F5FE8CFCD
:103FF0003091EB003E7F3093EB003091ED003D7F40
:104000003093ED003091EB0031603093EB00709312
:10401000EC002093ED005093F0002091EE0027FD7E
:10402000E5CF80E008958091CF0287FF13C0809193
:10403000E80082FF06C08091E8008B778093E8005B
:1040400004C08091CE028111F2CF08958091CE02FA
:104050008823D9F38091E80080FFF8CF8091E800B1
:104060008E77ECCF2091E4003091E50095E6A90130
:104070002091EC00822F817020FF06C08091E80023
:1040800080FF06C080E008952091E80022FD1AC05C
:104090008091CE02882389F0853089F08091EB00F1
:1040A00085FD0FC02091E4003091E50042175307D1
:1040B000F9F29150E1F684E0089582E0089583E0FA
:1040C000089581E008950E94D1200E94D920E0EE59
:1040D000F0E0808181608083E8EDF0E080818F777F
:1040E000808319BCA7EDB0E08C918E7F8C9380818A
:1040F0008F7E80831092CD0208950F931F93CF93EC
:10410000DF930E94D1200E94D920C8EDD0E08881A1
:104110008F77888388818068888388818F7D888372
:1041200019BC1092CE021092CA021092CC021092C8
:10413000CB0200EE10E0F80180818B7F80838881C4
:104140008160888342E060E080E00E94DF1FE1EE52
:10415000F0E080818E7F8083E2EEF0E080818160FC
:104160008083808188608083F80180818E7F808356
:10417000888180618883DF91CF911F910F9108958D
:10418000E8EDF0E080818F7E8083E7EDF0E08081D4
:104190008160808384E082BF81E08093CD020C94B3
:1041A0007D20E8EDF0E080818E7F80831092E20038
:1041B00008951092DA001092E10008951F920F9274
:1041C0000FB60F9211242F933F934F935F936F93EA
:1041D0007F938F939F93AF93BF93EF93FF938091C0
:1041E000E10082FF0BC08091E20082FF07C0809156
:1041F000E1008B7F8093E1000E9447238091DA00E9
:1042000080FF19C08091D80080FF15C08091DA002E
:104210008E7F8093DA008091D90080FF94C080E186
:1042200089BD82E189BD09B400FEFDCF81E08093A4
:10423000CE020E944C1D8091E10080FF19C0809148
:10424000E20080FF15C08091E2008E7F8093E20043
:104250008091E20080618093E2008091D8008062CA
:104260008093D80019BC85E08093CE020E945E1D29
:104270008091E10084FF29C08091E20084FF25C085
:1042800080E189BD82E189BD09B400FEFDCF809146
:10429000D8008F7D8093D8008091E1008F7E80933D
:1042A000E1008091E2008F7E8093E2008091E20045
:1042B00081608093E2008091CA02882309F449C09A
:1042C00084E08093CE020E945F1D8091E10083FF15
:1042D00029C08091E20083FF25C08091E100877FA3
:1042E0008093E10082E08093CE021092CA02809116
:1042F000E1008E7F8093E1008091E2008E7F8093C9
:10430000E2008091E20080618093E20042E060E0A0
:1043100080E00E94DF1F8091F00088608093F000B1
:104320000E945D1DFF91EF91BF91AF919F918F9181
:104330007F916F915F914F913F912F910F900FBEA1
:104340000F901F90189519BC1092CE020E945A1D12
:1043500072CF8091E30087FD02C081E0B2CF83E09D
:10436000B0CF1F920F920FB60F9211242F933F934D
:104370004F935F936F937F938F939F93AF93BF936D
:10438000CF93DF93EF93FF93D091E900DF7080919B
:10439000EC00C82FC17080FDC0E81092E900809148
:1043A000F000877F8093F00078940E94F5211092AE
:1043B000E9008091F00088608093F000CD2BCF70F1
:1043C000C093E900FF91EF91DF91CF91BF91AF9141
:1043D0009F918F917F916F915F914F913F912F911D
:1043E0000F900FBE0F901F9018951F93CF93DF93E0
:1043F000CDB7DEB7AA970FB6F894DEBF0FBECDBF1C
:104400008FEC92E0FC0101962091F100208322E0E4
:10441000873D9207B9F70E946A1D8091E80083FFEB
:104420001EC18091CF029091D0029A3008F017C13E
:10443000E92FF0E0EF5FFB4D0C947723803899F083
:10444000823809F00CC18091D3028F70873008F058
:1044500006C18093E9008091EB0085FB882780F9F5
:104460001092E90006C08091CB029091CC0291118C
:1044700082609091E800977F9093E8008093F1002C
:104480001092F1008091E8008E77E5C0882309F44E
:10449000D3C0823009F0E3C08091D1028111D6C02F
:1044A0008091D3028F702FEF280F263008F0D7C0ED
:1044B0008093E9002091EB0020FFC8C0933031F4D5
:1044C0008091EB0080628093EB00C0C09091EB0084
:1044D00090619093EB0021E030E001C0220F8A95BB
:1044E000EAF72093EA001092EA008091EB008860DE
:1044F000EACF8111B4C01091D1021F778091E300FF
:104500008078812B8093E3008091E800877F8093FF
:10451000E8000E9413208091E80080FFFCCF80918A
:10452000E30080688093E30082E0111183E08093D0
:10453000CE0295C08058823008F091C08091D1029F
:104540009091D2028C3D23E09207A1F583E08A830B
:104550008AE289834FB7F894DE01139620E03EE0AB
:1045600051E2E32FF0E050935700E49120FF03C0A5
:10457000E295EF703F5FEF708E2F90E0EA30C0F071
:10458000C7968D939D932F5F243159F74FBF80912C
:10459000E800877F8093E8006AE270E0CE01019630
:1045A0000E942A1F8091E8008B778093E80057C013
:1045B000C096E7CF6091D3027091D402AE014F5FF5
:1045C0005F4F0E94691EBC01892B09F448C080918D
:1045D000E800877F8093E80089819A810E94841F88
:1045E000E1CF8038E1F58091E800877F8093E80093
:1045F0008091CA028093F10045CF811130C0909123
:10460000D102923060F58091E800877F8093E800C6
:104610009093CA020E9413208091CA02882311F04D
:1046200084E005C08091E30087FDFACF81E08093AC
:10463000CE020E94601D13C08091D102813079F4B6
:1046400081E0933009F080E08093CC021092E90081
:104650008091E800877F8093E8000E94132080917A
:10466000E80083FF0AC08091E800877F8093E8001C
:104670008091EB0080628093EB00AA960FB6F894CD
:10468000DEBF0FBECDBFDF91CF911F91089508957A
:10469000CF938091CE028823A1F0C091E900CF7022
:1046A0009091EC00892F817090FD80E8C82B1092CA
:1046B000E9008091E80083FD0E94F521CF70C0934E
:1046C000E900CF91089597FB072E16F4009407D0C8
:1046D00077FD09D00E947D2307FC05D03EF490951C
:1046E00081959F4F0895709561957F4F0895EE0FC6
:1046F000FF1F0590F491E02D0994AA1BBB1B51E10B
:1047000007C0AA1FBB1FA617B70710F0A61BB70B41
:10471000881F991F5A95A9F780959095BC01CD01E6
:104720000895F999FECF92BD81BDF89A992780B579
:104730000895A8E1B0E042E050E00C94C523262F94
:10474000F999FECF92BD81BDF89A019700B4021687
:1047500039F01FBA20BD0FB6F894FA9AF99A0FBE35
:1047600008950396272F0E94A0230E949F23252FA0
:104770000E94A023242F0C94A0230196272F0E948F
:10478000A0230C949F23DC01CB01FC01F999FECFFF
:1047900006C0F2BDE1BDF89A319600B40D924150C9
:1047A0005040B8F70895F894FFCF830B890B8D0B19
:1047B0009B0B9F0BA30BA70BAD0BB50BB90BBD0B45
:1047C000C10BCD0BD10BD50BD90BDF0BFD0BE70BC1
:1047D000910B970BC50BC90BB10BE30BF30B060C3D
:1047E0000A0C75107510D710D7102C11A510A51034
:1047F000A5104811F211031203126412A510A5109E
:104800006D121E2246222F2346222F2379229A221E
:064810002F23F122FD221E
:104816000000000000000000000000000000000092
:10482600000000000000530C620C750C0000000034
:10483600000000000000000000004701530C620C5D
:10484600750C0000000000000000000000000000E1
:104856004201AE00004117AE00014117FF6302CAD4
:104866001C091DCD1C051D011D01E200E900EA0021
:10487600B500B600B700CD008301CC008A019201D5
:1048860094012102230224022502260227022A027B
:10489600B300B4006F007000F4F7F5F667663635BE
:1048A600349796949593313233F0F10004E200E99F
:1048B60000EA00B500B600B700CD008301CC008A3F
:1048C60001920194012102230224022502260227D5
:0C48D600022A02B300B4006F0070000062
:00000001FF
