:100000000C9473020C94BA020C94BA020C94BA02C7
:100010000C94BA020C94BA020C94BA020C94BA0270
:100020000C94BA020C94BA020C94C11F0C94952043
:100030000C94051B0C94BA020C94BA020C94BA02EC
:100040000C94BA020C94BA020C94BA020C94BA0240
:100050000C94BA020C945C1B0C94BA020C94BA0275
:100060000C94BA020C94BA020C94BA020C94BA0220
:100070000C94BA020C94BA020C94BA020C94BA0210
:100080000C94BA020C94BA020C94BA020C94BA0200
:100090000C94BA020C94BA020C94BA020C94BA02F0
:1000A0000C94BA020C94BA020C94BA023C2D003D96
:1000B0003E002D3E00E9000000C9000000E80000FD
:1000C00000C8000000EA000000CA000000EB0000C9
:1000D00000CB000000E2000000C2000000E00000D1
:1000E00000C0000000E7000000C7000000EE0000B4
:1000F00000CE000000AC2000003F0E0000A9000070
:1001000000AE000000C9030000A9030000F40000D5
:1001100000D4000000F9000000D9000000530100E5
:100120000052010000C0030000B0000000F1000018
:1001300000D1000000B5000000C3030000642200ED
:100140000065220000AB000000BB00000060220040
:1001500000482200001E22000029001E001F00206F
:100160000021002200230024002500260027002D66
:10017000002E0031002B0014001A00080015001793
:10018000001C0018000C00120013002F0030002A81
:1001900000296104001600070009000A000B000D89
:1001A000000E000F003300340035002800E100315C
:1001B000001D001B0006001900050011001000368C
:1001C0000037003800E1000157E200E300E30000DF
:1001D000002C0000002C4200002C0000002C00E746
:1001E000006500115029001E001F00200021002280
:1001F00000230024002500260027002D002E0031BA
:10020000002B0014001A000800150017001C00182D
:10021000000C00120013002F0030002A00E0000440
:10022000001600070009000A000B000D000E000F69
:10023000003300340035002800E10031001D001BB0
:1002400000060019000500110010003600370038C4
:1002500000E50002570251E300E20000002C00001C
:10026000002C0000002C0000002C00E700650010AE
:100270005001003A003B003C003D003E003F004082
:1002800000410042004300440045000100E05C01E1
:10029000000100008002800480010018800E80169A
:1002A000800100AC00AB004C00E0000A8001002A95
:1002B00000010001005000510052004F00010001F8
:1002C000000100010001000100010001000C80019B
:1002D00000010001000100605D5F5D615D010000E3
:1002E0005C010001000100000001000000010000AD
:1002F00000010000000100010001000100000000F9
:1003000000000000002A2B28000000000000000070
:10031000000000000000000029000000002C1E3436
:1003200020212224342627252E362D3738271E1F3C
:10033000202122232425263333362E37381F040567
:10034000060708090A0B0C0D0E0F101112131415D5
:10035000161718191A1B1C1D2F3130232D350405B3
:10036000060708090A0B0C0D0E0F101112131415B5
:10037000161718191A1B1C1D2F3130354C000000A0
:10038000000000000000000000000000000000006D
:10039000000000000000000000000000000000005D
:1003A000007E0F00D4FFFFFFC7000000781003504D
:1003B000006F006C0061007200690073000000268D
:1003C00003610069003000330020004400650073C1
:1003D00000690067006E002000530074007500641F
:1003E0000069006F0000000403090409023B0002D9
:1003F0000100A0FA09040000010301010009211114
:100400000100012240000705810308000A090401D8
:10041000000103000000092111010001226D000705
:1004200005820320000A120110010000000803A148
:10043000020001000102000105010980A1018503FC
:1004400019012AB700150126B70095017510810022
:10045000C0050C0901A101850419012AA00215019A
:1004600026A002950175108100C005010906A101B1
:100470008505050719E029E715002501950875018F
:1004800081020507190029EF1500250195F0750176
:10049000810205081901290595057501910295014B
:1004A00075039101C005010906A101050719E0299D
:1004B000E7150025019508750181029501750881F0
:1004C000010507190029FF150026FF00950675088C
:1004D000810005081901290595057501910295010D
:1004E00075039101C00011241FBECFEFDAE0DEBF1B
:1004F000CDBF04B603FE27C08091DD029091DE02DD
:10050000A091DF02B091E0028730904BA740B04B42
:10051000D1F41092DD021092DE021092DF021092EE
:10052000E00214BE84B7877F84BF0FB6F894A89505
:1005300080916000886180936000109260000FBE1F
:10054000E0E0F8E3099511E0A0E0B1E0E2ECF5E4C9
:1005500002C005900D92A23DB107D9F722E0A2EDAD
:10056000B1E001C01D92AD3DB207E1F70E94FD1C54
:100570000C94B7220C9400008F352DE5920709F4F6
:1005800043C028F4813E910581F081E008958036D2
:10059000FDE59F0739F081369D45B9F78FEA90E078
:1005A0000E940F058CEA90E031C0FB018281882314
:1005B00051F082E00E9431100E94351B9093D501CA
:1005C0008093D401E2CF8091D4019091D5010E9413
:1005D0004D1B8536910520F082E00E943810D5CF62
:1005E00081EE0E94390F81EE0E94C30F82E00E94CB
:1005F000381082E00E94DF1663E082E00E94111949
:1006000081E00E942C19C1CF82EB90E00E940F057F
:10061000BCCFCF93DF939C013A9521153F4168F5FC
:10062000EC01CC27D170DC01AA27B270AC014427C1
:1006300054709C012227387094FF11C080E1CD2BAB
:1006400009F480E0AB2B09F08062452B09F080644F
:10065000232B09F08068FB01DF91CF91099481E0A1
:10066000CD2B09F480E0AB2B09F08260452B09F01B
:100670008460232B81F38860EECFDF91CF910895C2
:10068000CF93DF93EC01805E9109089720F069E831
:1006900072E1209711F461E370E1CE010E94090339
:1006A0008C2FDF91CF910C94390FCF93DF93EC0116
:1006B0000E94C30FCE01805E9109089720F060E987
:1006C00072E1209711F468E370E1CE01DF91CF91E0
:1006D0000C940903CF93DF93EC010E944003CE01F9
:1006E000DF91CF910C94550381E008950C94BC02E6
:1006F00008950C9478031F93CF93DF9300D000D01C
:100700000F92CDB7DEB749835A836B833091F901DD
:1007100089819A8131111DC06623B9F02223A9F085
:100720000E94CF17182F682F89819A810E947B170A
:1007300069817A81812F0F900F900F900F900F9009
:10074000DF91CF911F910C942F050E94A717182FAE
:10075000EFCF0E94CF1769817A81EDCFFC01262F60
:10076000408151816281738184810C947B03CF939A
:10077000DF93EC0160E00E94AE03BE01DF91CF91F8
:100780000C9479030E9432070E94D1080C945707F9
:100790000E94640D0C945A0708950E94A9120E94A9
:1007A000CC032FEF84E39CE0215080409040E1F7A0
:1007B00000C000000C94801B0F931F93CF93DF9316
:1007C0008C0161E00E94AE03EC01B8010E94C20CF2
:1007D000B801CE010E947603882309F441C0B80114
:1007E000CE010E940A0D8823D9F1B801CE010E94E2
:1007F000F8098823A9F1B801CE010E94970A88233D
:1008000079F1B801CE010E94E90A882349F1B801C3
:10081000CE010E940C0C882319F1F80182818823F3
:1008200061F0CB35FDE5DF0721F170F4C115ECE592
:10083000DE07A1F0CF3DDC45C9F0C801DF91CF91C3
:100840001F910F910C947403CC358DE5D807A1F05E
:10085000CD35DD4591F70E947618EFCF0E94CD038C
:1008600080E0DF91CF911F910F9108950E94EF19C1
:10087000F7CF0E947F18E1CF0E948218DECFDF926F
:10088000EF92FF920F931F93CF93DF93E82FF0E047
:10089000E350FD4FD490282F26952695269530E0DD
:1008A000F901E356FC4F0491877010E0082E02C056
:1008B000159507950A94E2F701701127F901E3579E
:1008C000FC4FE490F12C082E02C0F594E7940A94B2
:1008D000E2F791E0E922FF24F901E358FC4FC491CB
:1008E000D0E002C0D595C7958A95E2F7C170DD27A3
:1008F0000115110519F081EE0E94390FE114F10480
:1009000019F086EE0E94390F8D2D0E942910EF28D4
:1009100019F086EE0E94C30F012B19F081EE0E94A0
:10092000C30FCD2B51F08CE2DF91CF911F910F912E
:10093000FF90EF90DF900C942910DF91CF911F91E1
:100940000F91FF90EF90DF900895EF92FF920F9339
:100950001F93CF93DF938C01F62E8AE0E82EF801E7
:100960008491882309F454C0813009F04DC0E80116
:100970002196FE018491813091F42196FE018491AB
:100980000E9429108E010F5F1F4F8F2D815038F369
:10099000EFE9FFE03197F1F700C00000F7CF8230B8
:1009A00039F4E8012296FE0184910E94390FEACFC2
:1009B000833039F4E8012296FE0184910E94C30F2E
:1009C000E1CF8430F9F6E8012296FE01249190E00F
:1009D00080E0FE0131962053330B2A30310548F078
:1009E000019780F2EFE9FFE03197F1F700C00000D6
:1009F000F7CFE89EA001E99E500D1124C901840F94
:100A0000951F2491EF01E5CF0E943F04E801BACF82
:100A1000DF91CF911F910F91FF90EF90089560E0CB
:100A20000C94A504982F9F709A50963018F0805D12
:100A30000C943F04895AFCCF08950C941C0581E066
:100A400008950C941F05CF93C82F0E941D058C2F6D
:100A5000CF910C94210590E080E008950895972FA0
:100A600070E02EE0929F600D711D1124FB0196E451
:100A7000899FE00DF11D1124EE0FFF1FE75AFE4F75
:100A8000859194910895FC01EE0FFF1FE355FC4FF3
:100A9000859194910895CF93DF930E942F050E9432
:100AA0005706EC01811520E5920708F041C0811539
:100AB00030E4930708F0B4C0803E910518F5803CFF
:100AC000910508F09DC0883A910570F4853A91052A
:100AD00008F08EC081309105F9F00097E9F0049795
:100AE000D8F4D0E0C0E018C08F3B9105D0F7C85AC9
:100AF000D0E0CC0FDD1FC65ADE4F0990D881C02D43
:100B0000D4640AC08115904258F4C11581E0D80719
:100B100018F4C83ED10528F7CE01DF91CF91089592
:100B2000C11590E3D90708F071C0CE019F706AC06B
:100B3000811525E5920758F5811534E5930708F0EE
:100B40009EC0811542E5940750F4C11581E5D80790
:100B500008F469C0DC2FCC27C16FD06ADDCF982F95
:100B6000969596959E0123703327C115D34508F0BD
:100B700077C0C1E0D0E002C0CC0FDD1F2A95E2F7BC
:100B800020E2929FC0011124C82BD92B67C0C11548
:100B900089E5D807A8F4C11598E5D90708F074C00D
:100BA000C11526E5D20708F09CCF8C2F0E94EE06D7
:100BB000C82FD0E0DC2FCC27CC27DF71D062ACCFA0
:100BC000C1153AE5D30708F464C0CE0190568115EB
:100BD000904208F086CF8D2F8F710E94EE0690E034
:100BE000982F882788279F719C012C2BE901E6CF3D
:100BF000C55AD0E0C857DE4FC881D0E0D0648CCF52
:100C0000805C91090E944305EC0186CFCE019927B3
:100C1000D3FF03C0EC01D86C7FCFEC01D06C7CCF4C
:100C2000DF70D06A79CFCE01E4E096958795EA959A
:100C3000E1F783702C2F26952695237090E2299F4B
:100C400090011124382B8C2F8370C1E0D0E002C0BA
:100C5000CC0FDD1F8A95E2F7C22BD32BDC685CCF6B
:100C6000C1E0D0E002C0CC0FDD1F2A95E2F730E2F0
:100C7000939FC0011124C82BD92BDA684DCFD82FF0
:100C8000CC27C46FD06A48CFDC2FCC27C06FD06A86
:100C900043CF8C2F8F700E94EE0634E0D695C79517
:100CA0003A95E1F7CF709C2FEC01D06935CF8238AF
:100CB0009105B1F1B0F48133910509F475C048F4A0
:100CC0008932910509F469C08A32910509F473C02B
:100CD00008958533910509F459C08933910501F1CF
:100CE0000895833E9105A9F138F4803E9105F9F00D
:100CF000823E910549F10895863E9105A9F1873E0E
:100D00009105C9F1843E910519F52091B10221FFA9
:100D10001FC08091B00284FD14C087EE90E008955A
:100D20002091B0022370A1F080EE90E00895209110
:100D3000B00220FD47C03091B10230FF09C024FF4E
:100D400044C090E080E004C02091B00222FDF7CFC3
:100D500008952091B00222FD3BC03091B10230FDD8
:100D6000E3CF24FFF5CFEDCF2091B00223FFF0CFEA
:100D700024FDE7CFD2CF2091B00223FD2CC03091CB
:100D8000B10231FFEECF84EE90E008952091B002E1
:100D900025FFDECF89E290E008952091B00225FF83
:100DA000D7CF85E390E008952091B00226FFD0CF01
:100DB0008AE290E008952091B00226FFC9CF81E336
:100DC00090E0089589E390E0089583EE90E008951F
:100DD00082EE90E0089586EE90E008959091B00242
:100DE00092FF06C0282F28712830F9F4877F84608D
:100DF00093FF06C0282F28712831F1F4877E846183
:100E00002091B10220FF06C0382F38713830D9F454
:100E1000877F816021FF06C0282F28712831D1F4F7
:100E2000877E816194FD877E0895282F2471243068
:100E3000F9F68B7F8860DCCF282F2471243101F7ED
:100E40008B7E8861DDCF382F3171313019F78E7F7D
:100E50008860E0CF282F2171213121F78E7E8861B3
:100E6000E1CF08950E944A19811102C00E94EF1932
:100E70000E94551980938C020E945D199093B102D3
:100E80008093B0020E9431070E945919682F70E0C8
:100E900090E080E00E947D1660915F027091600298
:100EA00080916102909162020C94B71608950C949F
:100EB000560708950C945907E82FF0E0EE0FFF1F36
:100EC000E454FD4F808191810895089580EA8A95C8
:100ED000F1F7089500C008950C946607F894E82F80
:100EE000E295EF70F0E031A1282F2F7081E090E0C3
:100EF00001C0880F2A95EAF7982F9095932391A324
:100F000092A1892B82A3789408950F931F93CF9376
:100F1000DF9381E30E946E0782E30E946E0783E302
:100F20000E946E0780EF0E946E0781EF0E946E079D
:100F3000CBE8D1E009E911E089910E946E070C1716
:100F40001D07D1F71092B3021092B2021092BD02A7
:100F50001092BC021092B5021092B4021092BF021D
:100F60001092BE021092B7021092B6021092C10205
:100F70001092C0021092B9021092B8021092C302ED
:100F80001092C2021092BB021092BA021092C502D5
:100F90001092C40285E00E945308DF91CF911F9107
:100FA0000F910C94C203AF92BF92DF92EF92FF9227
:100FB0000F931F93CF93DF93C9E9D1E002EB12E0C7
:100FC000D12CEE24E394F12C8991F894E82FE2954A
:100FD000EF70F0E021A18F70A70102C0440F551FF0
:100FE0008A95E2F7CA01922F982B91A392A180953E
:100FF000892382A378940E946A07EBE8F1E030E04D
:1010000020E0B12CA12C4191A42FA295AF70B0E0AB
:1010100090968C9190E04F7002C0959587954A9577
:10102000E2F780FD3BC0C701022E02C0880F991F66
:101030000A94E2F7A82AB92A2F5F3F4F2E303105D4
:1010400011F7FE01319780810E946E070E946C07A4
:10105000F80180819181A816B90619F1B182A082A8
:1010600081E0D82A0E5F1F4FF1E0CE39DF0709F08B
:10107000ABCF2D2D45E06CEB72E082EB92E00E944D
:1010800054080E94C8038D2DDF91CF911F910F91BD
:10109000FF90EF90DF90BF90AF90089590E080E0D8
:1010A000C9CF80E0DECF0895FF920F931F93CF93B7
:1010B000DF93F82E092F162FD72FC42F222349F0A4
:1010C00081E08093D8010E94351B9093D7018093D3
:1010D000D6018091D8018823A1F08091D60190910A
:1010E000D7010E944D1B069760F0EF2DF02FA12F26
:1010F000BD2F90E080E0D0E08C179D0744F0109267
:10110000D801DF91CF911F910F91FF900895219108
:1011100031912D933D930196EFCF0F931F93CF9372
:10112000DF93811520EC920718F1EC01D05C0E944E
:101130008518182F0E949B18182B0E94BE18082F84
:101140000E94C40D102B127291E009F490E0869574
:101150008170981729F0CC0FCD2FCC1FDD0BD195C6
:10116000CE018F779927DF91CF911F910F9108952D
:101170009058F9CF97FF13C0FB012281222379F009
:101180000E948D08FC01EE0FFF1FEE0FFF1FEB54B6
:10119000FF4F65917591859194910E94AC0981E012
:1011A00008958CE090E00E947522482F50E070E096
:1011B00060E04093C6025093C7026093C8027093E8
:1011C000C902882331F0843039F481E08093D90159
:1011D00008951092D90108951092D9011092C60273
:1011E00008956091C6028CE090E00C9483222091D7
:1011F000D901082E000C990B820F911D27FD9A959D
:1012000062E070E00E9447228F3F71F08093D90125
:10121000E091D9010E2E000CFF0BE256FE4F8081AB
:101220008093C6020C94F10881E0F0CF0E94C40DB7
:10123000869581708093CB029091C602913029F4FB
:10124000882319F089E30E9429100E948518809351
:10125000CA020E9498188091C602813089F08823C2
:1012600059F0823091F08430B9F08FE39CE9019716
:10127000F1F700C00000089586EE0E94390FF5CF07
:1012800088E193E00E946A03F0CF82EE0E94390F5A
:1012900087E50E942910E9CF86EE0E94291088E197
:1012A000F8CF8091C602813071F0882341F08230FE
:1012B000A9F08430A9F08091CA020C94951886EEAA
:1012C0000E94C30FF8CF8CE20E9429108091CB02BC
:1012D000882389F389E30E942910EDCF82EEF0CFB5
:1012E00088E2F9CFBF92CF92DF92EF92FF920F93F5
:1012F0001F93CF93DF936B017C01C7E0D0E00CE13B
:1013000010E0BB24B394D701C601002E04C0B695EB
:10131000A795979587950A94D2F78F70C9F4B11065
:1013200002C00E941205219704501109CF3FDC072B
:1013300051F4DF91CF911F910F91FF90EF90DF90CB
:10134000CF90BF900895C430D105ECF6B12CDBCF1F
:101350000E941205B12CE7CFCF92DF92EF92FF925D
:101360006B017C01C114D10481E1E806F104D8F5D8
:10137000C114D10481E0E806F10420F08091C60296
:10138000823089F10E941609C114D10481E0E80677
:10139000F10430F18091C602811122C081E0E81A87
:1013A000F108C701B6012AE096958795779567956C
:1013B0002A95D1F778528F4F9F4F0E94720983E090
:1013C000D822EE24FF24C701B60174528F4F9F4FDD
:1013D0000E947209FF90EF90DF90CF900C9451091A
:1013E000C701B601F5CFFF90EF90DF90CF90089541
:1013F0000F931F93CF93DF93EC018B01FB0182814D
:10140000882361F00E9485188272C13EFCE5DF07E7
:10141000E1F060F4C03EECE5DE0799F0B801CE01E2
:10142000DF91CF911F910F910C94BA08C73EFCE554
:10143000DF07A0F78C2F825E8093C6020E94F1081E
:10144000EDCF811104C081E003C08111FCCF8FEF8B
:101450000E94F708E3CF0F931F93CF93DF93C42F1E
:10146000D22FFC0182818823C9F04093DC010E94C5
:10147000351B9093DB018093DA0180E28C0F88307A
:1014800008F050C0C77081E001C0880FCA95EAF724
:10149000DF91CF911F910F910C9431101091DC01CD
:1014A000141335C08091DA019091DB010E944D1B2D
:1014B000883C910560F5C0E2CD0F1D17B9F080E2C0
:1014C000810F883040F4177081E001C0880F1A95B1
:1014D000EAF70E943810C83048F481E09D2F9770D9
:1014E00001C0880F9A95EAF70E943110802F0E9460
:1014F0002910C830B8F4D77081E001C0880FDA95A0
:10150000EAF7DF91CF911F910F910C94381080E290
:101510008C0F883038F4C77081E001C0880FCA95FD
:10152000EAF7EFCFDF91CF911F910F9108950F93BD
:101530009C01CB01243F4CE5340759F1A8F4293D27
:10154000FCE53F0701F12A3D4CE53407D1F1283D88
:101550003C4591F406E221EE41EE68ED7CE50E9407
:101560002B0A80E00F910895263FFCE53F07E9F044
:10157000B0F0273F3C45F9F0FC018281882339F126
:101580001092DC01EFCF07E225EE45EE69ED7CE538
:10159000E6CF06E221EE40EE64EF7CE5E0CF07E225
:1015A00025EE44EE65EF7CE5DACF06E221EE42EE71
:1015B00066EF7CE5D4CF07E225EE46EE67EF7CE5EB
:1015C000CECF08E221E045EE6AED7CE5C8CF81E0B0
:1015D000C9CFCF93DF93EC01FB018281882309F40B
:1015E00019C1C230FCE5DF07C0F1C6319CE5D9075F
:1015F00030F09E012B5F3C452930310570F50E948B
:101600005D199093B1028093B002C031ECE5DE0722
:1016100009F4CFC008F05BC0C8308CE5D80709F4E6
:10162000B6C088F5C430ECE5DE0709F4A8C0C0F404
:10163000C2308CE5D80709F49CC08091B00282606A
:10164000C330DC4509F498C08091B0029091B1029A
:101650000E946B190E94A91280E0DF91CF9108953A
:101660008091B0028061C630ECE5DE0709F484C0E9
:101670008091B0028860C730DC4508F47DC080915D
:10168000B002806279C0CC308CE5D80709F489C0FB
:1016900070F48091B0028C60CA30ECE5DE0709F48A
:1016A0006BC008F478C08091B0028E7F65C0CE30E8
:1016B0008CE5D80709F479C08091B0028B7FCF30D8
:1016C000DC4508F459C08091B0028F7E55C0CC3FF4
:1016D000ECE5DE0709F457C030F5C3318CE5D807D7
:1016E00009F46FC078F4C131ECE5DE0709F465C098
:1016F000C231DC4509F0A8CF0E94A9128091B00246
:101700008F773AC0C5318CE5D80709F462C008F478
:1017100076C08091B1028160CB3FDC4509F094CF67
:101720008093B10291CFC115FDE5DF0709F44DC0EB
:1017300088F48091B1028D7FCE3F9CE5D90781F37B
:101740008091B1028E7FCF3FDC4550F38091B10292
:101750008360E6CFC230FDE5DF0709F459C008F425
:1017600044C080E0C330DD4509F06ECF0E94F1191E
:101770006BCF8091B00281608093B00265CF809181
:10178000B0028460F9CF8091B1028260C9CF8091AC
:10179000B0028064F1CF0E94A9128091B0028068EB
:1017A000EBCF8091B0028D7FE7CF8091B002877F31
:1017B000E3CF8091B0028F7DDFCF8091B0028F7B2D
:1017C000DBCF8091B002837FD7CF8091B1028C7F35
:1017D000A7CF8091B00282FB992790F921E0922750
:1017E00090FB82F990FB83F9C7CF8091B102982FCB
:1017F000909591708E7F892B90FB81F991CF0E94FB
:10180000A9129091B002892F97FB87F98058B4CF25
:1018100081E0ACCF81E021CFCF93DF93EB01863124
:101820009C4511F50E9485189A81992399F08A7A2E
:1018300091E009F490E09093DD01811109C089E203
:101840000E943F180E94DB1880E0DF91CF9108953D
:1018500085E3F6CF8091DD01811104C089E20E9409
:101860004618F0CF85E3FBCF81E0EFCFCF93DF9336
:10187000EC0181E0898B8F810E94881888850E9405
:101880009E180E94DB18EA81FB81309739F06C8941
:101890007D89CE010696DF91CF910994DF91CF919A
:1018A0000895CF93DF93EC018881823031F4FB01FE
:1018B00082810E94CA1681E08B87DF91CF910895C3
:1018C000DB01FC018081813021F48D919C910C948D
:1018D0004003823039F41396ED91FC9114971296DF
:1018E0008C9109940895FC018081813029F4FB01D9
:1018F000808191810C9455030895EF92FF920F938C
:101900001F93CF93DF93EC018A85811134C0EB8064
:10191000FC8087E5F81A26E12E9DC0012F9D900DD1
:101920001124DC01A050BF4F1496ED91FC91159746
:10193000309731F054966D917C918A5F9E4F099556
:1019400086E18E9D80018F9D100D112400501F4F48
:10195000F80187810E948E18F80180850E94A418E2
:101960000E94DB18188219861B861E821D82109227
:10197000DF011092DE01DF91CF911F910F91FF9057
:10198000EF900895DF92EF92FF920F931F93CF9302
:10199000DF937C01FB018281882391F080914C01CF
:1019A0008F3F71F0C0E0D1E010E000E0DD24D3947F
:1019B00080914C01082E000C990B8017910744F47C
:1019C000DF91CF911F910F91FF90EF90DF900895DD
:1019D0008E818823D9F089859A858E159F0539F4E3
:1019E0008091DE019091DF018E159F0579F0DF86F1
:1019F000FC86EB868989811103C0CE010E94360CDA
:101A0000CE0106960E947D0C0E94AB180F5F1F4FFF
:101A10006696CECFEF92FF920F931F93CF93DF93F3
:101A20007C0197558F3F910509F0D8F520914C0125
:101A3000022E000C330B2817390714F480934C0145
:101A4000FB01228136E1389F8001399F100D11245E
:101A5000E801C050DF4F288B92818E81992349F194
:101A6000FA86E9868F5F8E830E94351B9E878D875D
:101A70000E94BE188F830E94851888870E949B1839
:101A80009885892B8887E881F981309731F06C89B6
:101A90007D89C8018A5F9E4F0995F092DF01E0922F
:101AA000DE0181E0DF91CF911F910F91FF90EF90C8
:101AB00008958823B1F38989882399F3C8018A5F3F
:101AC0009E4F0E947D0CEDCFEF92FF920F931F93DC
:101AD000CF93DF9380914C0110E006E18F3FC1F579
:101AE000DF91CF911F910F91FF90EF900895029F8A
:101AF000F001039FF00D1124E050FF4FE288F388BE
:101B0000E114F10419F488ECE82EF12C029FE001B5
:101B1000039FD00D1124C050DF4F8E818823B9F070
:101B20008D859E850E944D1BE816F90680F4109F56
:101B3000700111248989811105C0C70180509F4F10
:101B40000E94360CC7018A5F9E4F0E947D0C1F5F6A
:101B5000212F30E080914C01082E000C990B821748
:101B600093072CF6BDCF9093E5018093E40108958F
:101B7000E091E401F091E501309721F00190F081CE
:101B8000E02D099480E00895E091E401F091E501F1
:101B9000309711F480E008950190F081E02D0995CF
:101BA0000895E091E401F091E501309799F02091DA
:101BB0005901222359F02091B00227FF07C0DC0110
:101BC0002C9111962C93119725E02C930280F38190
:101BD000E02D099408952091E2013091E301281746
:101BE000390771F09093E3018093E201E091E40101
:101BF000F091E501309721F00680F781E02D0994FE
:101C000008952091E0013091E1012817390771F022
:101C10009093E1018093E001E091E401F091E5010E
:101C2000309721F00084F185E02D099408950E94F9
:101C3000411B6093F5017093F6018093F701909337
:101C4000F8016093F1017093F2018093F301909396
:101C5000F401089585B7806885BF85B7806885BF22
:101C60000895089508950C94310E08950C94350E3E
:101C70000E942A0E88E499E10E94A41B0E94320E61
:101C80000C94330E81E008950C94420E089508954B
:101C90000E94460E0C94470E0E942C1B0E94850742
:101CA0000C94360E8F929F92AF92BF92CF92DF929A
:101CB000EF92FF920F931F93CF93DF93CDB7DEB7D1
:101CC0002A970FB6F894DEBF0FBECDBF0E94D30790
:101CD00081110E94170E57EE852E51E0952E10E0CF
:101CE00000E0A02E802F0E945C076C01F401E190BF
:101CF000F1904F01E816F90609F45AC080918C0260
:101D000081FD0E946507C7018C259D25B12CEE241D
:101D1000E394F12C9C012E213F21232B09F442C096
:101D20000E94440E8823A9F0BE82AF82CE20DF201D
:101D300081E0CD2809F480E088870E94351B81600E
:101D4000782F9A8789874E815F8168858A850E946E
:101D5000020F000F111FF801E951FE4F80819181A0
:101D6000E826F926F182E0820E94B80D9091E60102
:101D70008917A9F10E94B80D8093E6012A960FB643
:101D8000F894DEBF0FBECDBFDF91CF911F910F91B1
:101D9000FF90EF90DF90CF90BF90AF909F908F908B
:101DA0000C942305B394EE0CFF1CFEE0BF12B2CFDF
:101DB0000F5F1F4F0530110509F093CF8FEF898317
:101DC0008A831B820E94351B8160782F9D838C83C0
:101DD00049815A816B818D810E94020FC5CF2A965D
:101DE0000FB6F894DEBF0FBECDBFDF91CF911F912C
:101DF0000F91FF90EF90DF90CF90BF90AF909F90AA
:101E00008F900895DF92EF92FF920F931F93CF93DD
:101E1000DF93CDB7DEB72B970FB6F894DEBF0FBEBA
:101E2000CDBF7A878B87F42E052F162FE72ED82E5D
:101E300061110E94AB181E821D827E2DEC82DD8214
:101E40004F2D502F612F8D2D9E812B960FB6F8941C
:101E5000DEBF0FBECDBFDF91CF911F910F91FF90DD
:101E6000EF90DF900C945B15FC01808191810C94C4
:101E70001118CF93C82F882309F483C08238C1F486
:101E80000E94B80D81FD7DC089E30E943F180E9429
:101E9000DB182FEF81EE94E0215080409040E1F775
:101EA00000C0000089E30E944618CF910C94DB1813
:101EB0008338A1F40E94B80D80FD63C083E50E94C1
:101EC0003F180E94DB182FEF81EE94E021508040F4
:101ED0009040E1F700C0000083E5E5CF8438A1F42D
:101EE0000E94B80D82FD4DC087E40E943F180E94F9
:101EF000DB182FEF81EE94E0215080409040E1F715
:101F000000C0000087E4CFCF8CEF8C0F813A90F4B3
:101F10006C2F80914D0190914E010E940A1A8823E6
:101F200029F08C2F0E9446180E94DB188C2F0E94EB
:101F30003F18BBCF80E28C0F883048F4C77081E037
:101F400001C0880FCA95EAF70E948818AECFEBE56A
:101F5000EC0FE33040F4F0E0E253FE4F808190E07C
:101F6000CF910C94EB0DC85AC73158F4EC2FF0E028
:101F7000EE0FFF1FE056FE4F80819181CF910C94B0
:101F8000010ECF910895882309F44BC0823871F473
:101F90000E94B80D81FF45C089E30E943F180E944E
:101FA000DB1889E30E9446180C94DB18833859F437
:101FB0000E94B80D80FF35C083E50E943F180E9443
:101FC000DB1883E5EFCF843859F40E94B80D82FF07
:101FD00028C087E40E943F180E94DB1887E4E2CF04
:101FE0009CEF980F913AF0F290E2980F983050F4ED
:101FF000877091E001C0990F8A95EAF7892F0E94B6
:102000008E18D2CF9BE5980F933020F490E080E0BB
:102010000C94EB0D885A873120F490E080E00C940A
:10202000010E08951F93CF93DF93182FEB010E94A9
:10203000390F209731F4812FDF91CF911F910C94AC
:10204000C30F8FE99FE00197F1F700C000002197CF
:10205000F0CF70E060E0893311F460E570E00C943B
:102060001210882321F00E9488180C94DB18089520
:10207000882321F00E948E180C94DB180895BF92DB
:10208000CF92DF92EF92FF920F931F93CF93DF9344
:102090006C01D62FC72FFC011281058102950F70AC
:1020A0000E945D18E82E8823A1F0E12E112389F00B
:1020B0008C2F807F803429F080E28D0FE12C8830D6
:1020C00040F082E00E942C190E945D1891E0E82EF9
:1020D000E926BC2EB2949FE0B922EB2DF0E0E75444
:1020E000FD4D0C945B220C2F0F70C07F11F00295F8
:1020F000007F1123A9F0002359F080E28D0F883072
:1021000010F0D11109C0802F0E9488180E94DB189E
:102110008D2F0E94390F14C0802F0E949E18F6CF79
:102120008D2F0E94C30F002359F080E28D0F88305D
:1021300010F0D1112CC0802F0E948E180E94DB1845
:102140002B2D2850330B2430310520F40E94B80D7C
:102150000E942305EE2009F493C10E94591880FDC6
:102160008FC1F60112820E9453180E94DF16C60129
:102170000E9461120E945318DF91CF911F910F911D
:10218000FF90EF90DF90CF90BF900C940017802FBE
:102190000E94A418D3CFFC2FFF70FF2EC07FC03247
:1021A00019F0F29480EFF822DD2369F0D13049F183
:1021B000112391F1002351F1F601858180FFA8CF11
:1021C0008F70858323C0112381F0011106C00E9406
:1021D000BE188F290E943110B3CF0130C1F70E9481
:1021E000BE188F290E94C418ABCF011106C00E94EF
:1021F000D1188F2D0E943810A3CF013009F4A0CF41
:10220000F6CF112329F0063008F09ACF8F2DE2CFB8
:10221000053008F095CFEDCF002359F3D93349F4B9
:10222000FFEF27EE33E0F15020403040E1F700C0EF
:1022300000008D2F0E94C30F83CF8C2F869586952B
:10224000837069F0813009F07BCF8D2F9C2F9370C4
:10225000111102C090E080E00E94010E71CF8D2F1D
:102260009C2F9370111102C090E080E00E94EB0D52
:1022700067CF8C2F837009F041C0111161CF4D2FB2
:10228000429546954770440F440F0D2F0F7010E094
:1022900030E020E0042E04C0000F111F221F331F66
:1022A0000A94D2F760E070E0CB01D4FF0FC06FE07A
:1022B00070E080E090E004C0660F771F881F991FD0
:1022C0004A95D2F76095709580959095C695C6957C
:1022D000C370602B712B822B932BC23049F058F4C2
:1022E000C13019F00E9491162BCF0E947F1628CF83
:1022F0000E94A31625CF0E947D1622CF869511231A
:1023000011F08C2F8170882309F41ACF4D2F42953C
:1023100046954770440F440F0D2F0F7010E030E0CA
:1023200020E0042E04C0000F111F221F331F0A9447
:10233000D2F760E070E0CB01D4FF0FC06FE070E037
:1023400080E090E004C0660F771F881F991F4A95B0
:10235000D2F76095709580959095C695C695C37097
:10236000602B712B822B932BC23049F058F4C13073
:1023700019F00E945617E4CE0E944417E1CE0E9445
:102380006817DECE0E94B916DBCECF70112329F07C
:102390008C2F0E94DF168D2F1DCF8D2F0E9438109D
:1023A0008C2F0E940017CCCED23F89F160F4D03F31
:1023B000C9F0D13F29F1112309F442C00111A8CE7F
:1023C0008C2F8F7121C0D33F39F1D43FA1F7112356
:1023D00069F1CF718C2F0E94DF1663E08C2F0E9471
:1023E0001119AECE112341F0053008F0A9CE8C2F83
:1023F0008F710E942317A4CE063008F0A1CEF7CF2C
:102400008C2F8F71112369F20E94DF1699CE8C2FC9
:102410008F711123C9F3C5CF112329F08C2F8F7130
:102420000E94CA168DCE0E94C5168ACE81E00E94F7
:102430002C19023008F484CE82E00E942C1980CE40
:10244000002359F0D93309F0F4CE8FEF97EEE3E093
:1024500081509040E040E1F7EACE8C2F8F71A1CF00
:102460004C2F4F706D2FC6010E942B050E94F51551
:1024700067CE4C2F4F706D2FC6010E942E0560CE87
:10248000DF91CF911F910F91FF90EF90DF90CF9050
:10249000BF9008950F931F93CF93DF93EC01688152
:1024A00079818A810E941B188C010E947A170E94F0
:1024B0007C16B801CE01DF91CF911F910F910C9442
:1024C0003F10CF93DF93EC018B819C81892B29F006
:1024D0008881998189238F3F59F4DF91CF910895A5
:1024E000CE010E944A12CE01DF91CF910C94B70326
:1024F000CE010E94DC038111F3CF0E945D18882376
:1025000061F38A81882349F382E0DF91CF910C94B3
:102510002C19882321F00E949E180C94DB18089532
:10252000882321F00E94A4180C94DB18089590E0F1
:1025300080E00E94EB0D90E080E00E94010E0E947E
:10254000AB180E94BB180C94DB180E944D180C9419
:1025500097120E9498180C94A512E92FE295EF703B
:10256000E250EE3070F4F0E0E753FD4D0C945B2246
:10257000803F19F020F4883E20F481E00895843FE4
:10258000E1F380E00895883EC0F3813FD1F7F5CFB5
:1025900093FB882780F908950E9411180C94AD12BE
:1025A000CF93DF9300D000D00F92CDB7DEB70F905E
:1025B0000F900F900F900F90DF91CF910895CF93D0
:1025C000DF9300D000D000D0CDB7DEB726960FB68F
:1025D000F894DEBF0FBECDBFDF91CF9108951F935A
:1025E000CF93DF93C091FA0116E08091FB018C1329
:1025F00004C0DF91CF911F910895D0E01C9FF0019E
:102600001D9FF00D1124E450FE4F408151816281E5
:102610007381848195810E94DF122196C770E5CF76
:1026200040912C0250912D0260912E0270912F0248
:1026300080913002909131020C94DF122091FA01C6
:102640009091FB0156E0291302C080E0089530E02C
:10265000529FF001539FF00D1124E450FE4F718101
:10266000761306C07081781303C07281741304C09E
:102670002F5F3F4F2770E7CF81E008951F93CF93DF
:10268000DF9380913102807FA9F480912E0288230C
:1026900089F08091FA01C091FB0160912C02709148
:1026A0002D02A0912F02B0913002D62FD72316E031
:1026B000C81304C0DF91CF911F91089590E0109747
:1026C00011F0DF3F19F401968770F2CF189F900147
:1026D000199F300D1124F901E450FE4F4181471339
:1026E000F2CF40814613EFCF42814111ECCF4381BD
:1026F00054814A1B5B0B483C510528F780913102FD
:102700008F70806180933102F901EF5FFD4F80810E
:102710008F70806180838CE292E00E946112DF9171
:10272000CF911F910C94EF128F929F92AF92BF9214
:10273000CF92DF92EF92FF920F931F93CF93DF938D
:10274000CDB7DEB761970FB6F894DEBF0FBECDBF31
:102750008C0185E0F801DE011D9601900D928A95AD
:10276000E1F7D801EC901196FC9011971296CC905D
:1027700012978CE2A82E82E0B82E40912F02509141
:1027800030024115510509F474C190912C02209139
:102790002D02892F82238F3F09F46BC113968D90F0
:1027A0009C901497D0902E02F401E41BF50BDD20D1
:1027B00009F40AC180913102382F307FE83CF105DD
:1027C00008F0C1C0311189C0DC2C2F1126C09E1128
:1027D00024C0C11022C08F708061809331020E949A
:1027E0001013C5010E94611280913102D801159623
:1027F0008C938D2D61960FB6F894DEBF0FBECDBFC2
:10280000DF91CF911F910F91FF90EF90DF90CF90CC
:10281000BF90AF909F908F9008958114910429F0FC
:102820008F2D8E218F3F09F043C180E080FF15C0BE
:102830004C2D6F2D8E2D0E941E13882371F08CE27B
:1028400092E00E94611286E0ECE2F2E0DF011D926C
:102850008A95E9F70E9410133EC0892829F08F2D30
:102860008E218F3F09F021C180E0B82FB170AB2ECF
:1028700080FF29C04C2D6F2D8E2D0E941E13B82E67
:10288000811121C0ED86FE868D859E850E941118DE
:10289000292F22952F70223050F0243078F49F7029
:1028A00051F0F8019581907F31F4DB2CA2CF9F701D
:1028B00011F08823D1F3805E8830B8F3C8010E94FC
:1028C0006112BA2CF2CFCC2009F493CF809131025F
:1028D000816080933102D12C8CCF2F1105C09E11C5
:1028E00003C0CC2009F48DC0ED86FE868D859E85C3
:1028F0000E94CC12882319F1CC2009F18091310279
:10290000803270F020912C0230912D0238872F8375
:1029100019869B868A868C87CE0107960E94611253
:1029200086E0F801ACE2B2E001900D928A95E1F701
:102930000E943E130E941013DD24D3945ACFC80185
:102940000E946112F9CF311112C0782D998A888ABC
:10295000A7016C2D89890E94D0128CE292E00E941E
:10296000611286E0F50111928A95E9F773CF2F1174
:102970000FC09E110DC0C1100BC015968C93C801DD
:102980000E94611286E0F50111928A95E9F731CF34
:10299000ED86FE868D859E850E94CC12882379F275
:1029A000CC2069F280913102803208F4B9CF2091B5
:1029B0002C0230912D023A8329831B829D828C82C6
:1029C0008E83CE010196AACFE83CF10508F043C002
:1029D000DC2CCC2009F4B3CF2F112CC09E112AC0BF
:1029E0008091310280FD1DC0982F907FD1F0159607
:1029F0008C931597903F39F0982F907F905F8F7050
:102A0000892B15968C93C8010E94611286E0F8010B
:102A1000ACE2B2E001900D928A95E1F70E941013AA
:102A2000E8CE86E0F801ACE2B2E001900D928A9522
:102A3000E1F7DFCEED86FE868D859E850E94CC1265
:102A400081116ECF80913102816080933102C80183
:102A50000E946112CECE782D998A888AA7016C2DAA
:102A600089890E94D01286E0F50111928A95E9F7D2
:102A7000D5CFCC2009F463CFED86FE868D859E856B
:102A80000E94CC12D82E882309F459CF86E0F80191
:102A9000ACE2B2E001900D928A95E1F78CE292E00F
:102AA0000E94340F0E943E13B9CF81E08C25DDCE09
:102AB00081E08C25BBCE1F93CF93DF93CDB7DEB7DC
:102AC0002C970FB6F894DEBF0FBECDBF4F8358874B
:102AD00069877A878B879C87CE0107960E9494131B
:102AE000882369F08A859B85892B39F04F81588529
:102AF000842F85238F3F09F071C016E05FC086E008
:102B0000FE013796DE01119601900D928A95E1F74C
:102B10008A859B85892B89F38F81988589238F3FAF
:102B200061F32091FB0130E0C9010196877099277C
:102B30004091FA014817190671F40E94A9121092E7
:102B4000FB011092FA0186E0ECE2F2E0DF011D9257
:102B50008A95E9F7D2CF96E0929FD001939FB00D6E
:102B60001124A450BE4FFE01319601900D929A950A
:102B7000E1F78093FB010E94EF12BFCF819FC0015C
:102B8000112484509E4F0E9494138823E9F0E09111
:102B9000FA011E9FF0011124E450FE4F4081518143
:102BA00062817381848195810E94DF128091FA0194
:102BB00090E00196877099278093FA018091FA013D
:102BC0009091FB018913DACF2C960FB6F894DEBFF3
:102BD0000FBECDBFDF91CF911F91089569857A8592
:102BE0008B859C850E94DF1288CFEF92FF920F9316
:102BF0001F93CF93DF938C01892B81F0F12CEE246E
:102C0000E394E8012196F8018491843770F48430CC
:102C100008F05FC08130B1F08230A1F1DF91CF9137
:102C20001F910F91FF90EF900895853709F44CC0E4
:102C300008F43DC09CE7980F903780F78F770E948B
:102C4000C30F49C00E5F1F4FFE01849190E2980FA1
:102C5000983060F48770FE2D01C0FF0F8A95EAF767
:102C60008F2F0E94AE180E94DB1802C00E94390FFD
:102C70008F2D815030F2EFE9FFE03197F1F700C07E
:102C80000000F7CF0E5F1F4FFE01849190E2980F76
:102C9000983050F48770FE2D01C0FF0F8A95EAF737
:102CA0008F2F0E94B418DFCF0E94C30FE1CF0E5FB9
:102CB0001F4FFE01C491C150D8F28FE99FE00197E8
:102CC000F1F700C00000F7CF0E5F1F4FFE01F49038
:102CD000CFCF0E94390F8E01CBCF08950C946D1683
:102CE0000E946E1660936302709364028093650283
:102CF000909366020C94971208950C9470160F939B
:102D00001F9300916302109164022091650230913B
:102D10006602602B712B822B932B1F910F910C94C9
:102D200070160F931F93009163021091640220911B
:102D300065023091660260237123822393231F91E1
:102D40000F910C9470160F931F93009163021091D2
:102D50006402209165023091660260277127822704
:102D600093271F910F910C9470160C946D160C9470
:102D7000B5160E94B71660935F027093600280934D
:102D80006102909362020C94971260E070E0CB01B4
:102D90000C94B9160F931F9341E050E060E070E08F
:102DA0008A019B0104C0000F111F221F331F8A9547
:102DB000D2F7C901B8011F910F910C94B9160F9366
:102DC0001F9341E050E060E070E004C0440F551FE5
:102DD000661F771F8A95D2F780915F0290916002FB
:102DE000A0916102B09162028A019B01082B192B0C
:102DF0002A2B3B2BC901B8011F910F910C94B916D6
:102E00000F931F9341E050E060E070E004C0440F76
:102E1000551F661F771F8A95D2F7CB01BA016095BF
:102E200070958095909500915F02109160022091BD
:102E300061023091620260237123822393231F91E8
:102E40000F910C94B9160F931F9341E050E060E08E
:102E500070E004C0440F551F661F771F8A95D2F794
:102E600080915F0290916002A0916102B091620234
:102E70008A019B01082719272A273B27C901B80186
:102E80001F910F910C94B9160F931F9300915F023D
:102E9000109160022091610230916202602B712BCF
:102EA000822B932B1F910F910C94B9160F931F93A4
:102EB00000915F02109160022091610230916202E4
:102EC00060237123822393231F910F910C94B916D1
:102ED0000F931F9300915F02109160022091610295
:102EE0003091620260277127822793271F910F91EB
:102EF0000C94B91608952EE0929F800D1124982FFE
:102F0000977041E001C0440F9A95EAF7869586953F
:102F1000869595E0899FF0011124EE5CFD4F90E0CD
:102F200080E070E05191DF0111979B01082E02C0F3
:102F3000369527950A94E2F72170219525272423B9
:102F400025272C9301968530910561F708952EE091
:102F5000929F800D1124982F97708695869586955F
:102F600025E0829FF0011124EE5CFD4F50E040E02F
:102F700080E0219130E0092E02C0369527950A9411
:102F8000E2F721703327042E01C0220F0A94EAF7DA
:102F9000822B4F5F5F4F4530510559F70895BF921F
:102FA000CF92DF92EF92FF920F931F93CF93DF9315
:102FB0008C01C0905F02D0906002E0906102F090BE
:102FC00062028091630290916402A0916502B091C7
:102FD0006602C82AD92AEA2AFB2ACFE1D0E0BC2E11
:102FE000D701C6010C2E04C0B695A7959795879575
:102FF0000A94D2F780FD0EC0219788F7B12C8B2D53
:10300000DF91CF911F910F91FF90EF90DF90CF90C4
:10301000BF900895B8018C2F0E944B05019761F372
:10302000EECFCF93DF93EC010E94CF17BE01DF916B
:10303000CF910C944B051F93CF93DF93EB019091AD
:10304000F901992331F0CB01DF91CF911F910C94BD
:103050001118882379F0CB010E94CF17182F682F01
:10306000CE010E947B17BE01812FDF91CF911F916E
:103070000C944B05CB010E94A717182FF4CF682F93
:1030800080914D0190914E010C948A1A682F809185
:103090004D0190914E010C94951A80914D019091A3
:1030A0004E010C94A01A80916702859585958595AF
:1030B00008958091670287700895909167029770D4
:1030C00081E009F480E008959091B10292FB2227FB
:1030D00020F9281751F080FB92F99093B10280916A
:1030E000B0029091B1020C946B1908958091B102D5
:1030F00082FB882780F991E089270C94641881E08D
:103100000C94641880E00C94641880918B020895EC
:1031100090918B02892B80938B02089580959091DA
:103120008B02982390938B02089580938B020895CD
:1031300010928B02089580918A02089590918A02DC
:10314000892B80938A020895809590918A02982312
:1031500090938A02089510928A02089590918902AC
:10316000892B8093890208958095909189029823F4
:1031700090938902089510928902089580916802BF
:10318000089508950C94C1189091B10292FD08C061
:1031900090916802981721F0809368020C94C218ED
:1031A000089580916802882329F01092680280E0D7
:1031B0000C94C2180895E0914D01F0914E01809158
:1031C0008B028083E0914D01F0914E0180819091BE
:1031D0008A02892B8083E0914D01F0914E0180811C
:1031E00090918902892B808390916802992381F0C4
:1031F000E0914D01F0914E018081892B8083809177
:103200004D0190914E010E94F61981110E94D11832
:1032100080914D0190914E010C94D10D08950C9424
:103220000E199091B10292FD10C098E0899F900113
:103230001124622B609367020E94DF16809167025F
:103240008595859585950C940F190C94DF16109231
:10325000670280E00C940F19909167028095892392
:1032600080936702282F277039F4282F082E000C2E
:10327000330B9217130621F49091B10292FF07C00D
:103280008595859585950E9400170C9427190895BA
:1032900080E0089590E080E00E947D2221E08A3E57
:1032A0009E4F09F020E0822F089582E090E00C9478
:1032B000752283E090E00C947522CF9384E090E037
:1032C0000E947522C82F82E290E00E947522982FFA
:1032D0008C2FCF910895CF93C92F682F84E090E071
:1032E0000E9483226C2F82E290E0CF910C94832283
:1032F000AB01BC018FE090E00C949522AB01BC01C6
:1033000083E190E00C94952260E070E0CB010C9496
:103310007E1960E070E0CB010E9478190C9484194A
:103320006AEE7EEF90E080E00E94A12260E082E001
:1033300090E00E94832260E083E090E00E9483227C
:10334000109263021092640210926502109266025B
:1033500060E084E090E00E94832260E082E290E0FE
:103360000E94832260E085E090E00E94832260E07A
:1033700086E090E00E9483226FEF87E090E00E9459
:10338000832240E050E0BA0188E090E00E9495225C
:1033900060E08DE090E00E94832240E050E0BA01BE
:1033A00088E190E00E94952260E087E190E00E9431
:1033B000832240E050E0BA018CE190E00E94952227
:1033C00070E060E080E290E00E94A12240E050E0E6
:1033D000BA0188E190E00E9495220C9489190C941E
:1033E0009019682F8EE090E00C948322FC013296B5
:1033F00080915901882321F08091B0029EE187FFDE
:1034000096E080E0915008F4089521912223D1F3B1
:103410008F5FF8CF662301F1209159012223F1F04B
:103420002091B00227FF1AC0462F46954695469533
:103430004E3190F4677021E030E002C0220F331F5C
:103440006A95E2F7840F911DFC01828190E02823A8
:10345000392381E0232B69F480E00895FC01329642
:1034600008962191261721F0E817F907D1F7F4CF34
:1034700081E008959C01FC0132969FEF80E041912C
:10348000461751F09F3F19F4411101C0982F8F5FEB
:103490008630A9F79F3F09F40895290F311D97FD44
:1034A0003A95F90162830895FC01329608962191BC
:1034B000261303C0DF0111971C92E817F907B9F72B
:1034C0000895E62FE695E695E695EE3168F4E80F67
:1034D000F92FF11D677021E030E001C0220F6A95DD
:1034E000EAF78281822B82830895E62FE695E6959E
:1034F000E695EE3170F4E80FF92FF11D677021E0C9
:1035000030E001C0220F6A95EAF7209582812823D6
:103510002283089520915901222329F02091B0029D
:1035200027FD0C94611A0C943A1A20915901222318
:1035300029F02091B00227FD0C94751A0C94541AAE
:10354000FC01329680915901882351F08091B0029C
:1035500087FF06C08EE1DF011D928A95E9F7089585
:1035600086E0F9CF089508950C94B31A8091D4029F
:10357000843049F10E94B41A80E00E942305109221
:103580008D0288E190E020E40FB6F894A89580932E
:1035900060000FBE2093600083B7817F846083BF8B
:1035A00083B7816083BF7894889583B78E7F83BF0C
:1035B0000FB6F894A89580916000886180936000B0
:1035C000109260000FBE08950895CF930E94B21A22
:1035D0000E94D3070E94E41AC0E08C2F0E945C076F
:1035E000892B31F4CF5FC530C1F780E0CF910895CA
:1035F00081E0FCCF08950C94FA1A0E94A9120E944F
:10360000B80D0E9423050C94FB1A1F921FB61F923F
:1036100011248F939F93AF93BF9380918D0281115B
:1036200013C08091CC029091CD02A091CE02B091B6
:10363000CF024196A11DB11D8093CC029093CD0283
:10364000A093CE02B093CF02BF91AF919F918F9183
:103650001F901FBE1F90189582E084BD93E095BD1A
:103660009AEF97BD80936E0008952FB7F8948091DC
:10367000CC029091CD02A091CE02B091CF022FBF8B
:1036800008952FB7F8946091CC027091CD0280918B
:10369000CE029091CF022FBF08959C014FB7F894AE
:1036A0008091CC029091CD02A091CE02B091CF0238
:1036B0004FBF821B930B089578941F921FB61F92E1
:1036C00011248F939F93AF93BF938091CC029091DD
:1036D000CD02A091CE02B091CF020196A11DB11DE5
:1036E0008093CC029093CD02A093CE02B093CF02F0
:1036F000BF91AF919F918F911F901FBE1F90189502
:1037000081E08093E00080E28093D8001092C900AD
:103710008FE19EE40197F1F700C0000087E090EB95
:10372000DC018093DD029093DE02A093DF02B09370
:10373000E00288E19CE00FB6F894A89580936000C1
:103740000FBE90936000FFCF9093D3018093D2017E
:1037500008958091AE0208950895CF93DF9300D02D
:103760000F92CDB7DEB79091D402943019F58983CA
:103770007B836A8382E08093E9008FEF9091E80079
:10378000815095FD06C095ED9A95F1F700008111E5
:10379000F5CF8091E80085FF0DC050E040E063E088
:1037A00070E0CE0101960E94B61D8091E8008E77F0
:1037B0008093E8000F900F900F90DF91CF910895C4
:1037C000BC0184E00C94AD1BBC0183E00C94AD1BE8
:1037D000CF93DF93EC01809159018823B1F180915F
:1037E000B00287FF32C060E282E08093E9008FEF91
:1037F0009091E800815095FD06C095ED9A95F1F7FE
:1038000000008111F5CF8091E80085FF1BC08091F9
:10381000590170E050E040E0811104C050E040E008
:1038200068E070E0CE010E94B61D8091E8008E77BE
:103830008093E80080E2FE01AEE8B2E001900D92D4
:103840008A95E1F7DF91CF91089568E081E0CDCFCF
:103850008091D302811109C00E94461F0E94A31FBC
:103860008091E20084608093E20008951092D30278
:10387000089508950895089542E061EC81E00E9462
:10388000C21E42E261EC82E00C94C21E8091D6021C
:10389000833009F45FC030F48130C1F1823009F423
:1038A0009BC008958A3009F487C08B3009F46DC03D
:1038B000893009F04EC08091D502813209F049C0AB
:1038C0008091D9029091DA02029708F042C080916B
:1038D000E800877F8093E8008091E80082FF35C090
:1038E0009091F3008091F200029729F48091F10009
:1038F0008B7F813021F48091F1008093AE02809122
:10390000E8008B778093E8000C94F61E8091D50236
:10391000813AF9F48091E800877F8093E8008091F4
:10392000D9029091DA02892B61F460E28EE892E08C
:1039300070E00E94051E8091E8008B778093E8007C
:10394000089560E090E080E0F3CF8091D40281118F
:10395000C3CF08958091D502813AD9F78091D902D9
:103960009091DA02892BA9F78091E800877F8093F4
:10397000E8008091E80080FFFCCF8091590180939E
:10398000F1008091E8008E77BDCF8091D502813221
:1039900001F78091D9029091DA02892BD1F68091BA
:1039A000E800877F8093E8000E94F61E8091D7028E
:1039B000809359010C94A9128091D502813249F665
:1039C0008091E800877F8093E8000E94F61E809136
:1039D000D8028093AF0208958091D502813A09F010
:1039E000B8CF8091E800877F8093E8008091E8005D
:1039F00080FFFCCF8091AF02C2CF84B7877F84BFA6
:103A00000FB6F894A895809160008861809360005B
:103A1000109260000FBE80E890E00FB6F89480939B
:103A20006100909361000FBE0E94380E0E94461FF5
:103A30000E94A31F8091E20084608093E20078944A
:103A40000E942C220E944C0E8FE491E00E94B30D44
:103A50008091D402853099F00E94520E0E94480E47
:103A6000F7CF0E94B61A8091D202882341F00E94BB
:103A7000E51A882321F00E94A01D0E94A9128091BE
:103A8000D402853071F30E94FD1AE6CF0C94481DD4
:103A9000292F33272330310519F168F421303105FE
:103AA00009F444C02230310509F445C090E080E0BB
:103AB00030E020E025C02132310549F122323105C4
:103AC000A9F780E490E025EA34E061157105C1F0C2
:103AD0008DE690E028E334E06130710589F0E6CFAF
:103AE00099278130910581F0009729F00297F1F62E
:103AF000EDEAF3E002C0E7EEF3E0849190E09F018D
:103B0000FA01318320830895EFEBF3E0F6CF89E0EB
:103B100090E02DEF33E06115710591F389E090E0BD
:103B200026E134E06130710559F3C0CF82E190E0C5
:103B300026E234E0E5CF8BE390E02BEE33E0E0CFFC
:103B400080E189BD82E189BD09B400FEFDCF80918D
:103B5000D8008F7D8093D8008091E00082608093B0
:103B6000E0008091E00081FDFCCF0895AF92BF920C
:103B7000CF92DF92FF920F931F93CF93DF936C014D
:103B8000EB018A010E94151FF82E811123C0011537
:103B9000110539F0F80180819181C81BD90BC80E3D
:103BA000D91EB12CA12C2097A9F08091E80085FDA9
:103BB00022C08091E8008E778093E80001151105FE
:103BC000A1F0F80180819181A80EB91EB182A08276
:103BD00085E0F82E8F2DDF91CF911F910F91FF90EF
:103BE000DF90CF90BF90AF9008950E94151F88235B
:103BF000D1F2F82EEFCFF60181916F018093F100A1
:103C00002197FFEFAF1ABF0ACECFFC018091DB02F4
:103C10009091DC0286179707A0F06115710529F4D1
:103C20009091E8009E779093E80090E0611571050F
:103C300051F4911108C08091E80082FF34C080E007
:103C40000895BC01F2CF8091D4028823C1F1853060
:103C5000C1F18091E80083FD30C08091E80082FDD1
:103C6000EACF8091E80080FFE1CF8091F3002091BE
:103C7000F200382F6115710519F02830310558F020
:103C800091E02830310509F090E02091E8002E778E
:103C90002093E800CBCF81918093F10061507109AE
:103CA0002F5F3F4FE7CF8091D402882341F08530CA
:103CB00041F08091E80083FFBECF81E0089582E06B
:103CC000089583E00895FC018091DB029091DC026D
:103CD00086179707A0F06115710529F48091E80017
:103CE0008E778093E80090E06115710551F4911191
:103CF00008C08091E80082FF35C080E00895BC01D3
:103D0000F2CF8091D4028823C9F18530C9F1809126
:103D1000E80083FD31C08091E80082FDEACF809108
:103D2000E80080FFE1CF8091F3002091F200382F6E
:103D30006115710519F02830310558F091E02830EF
:103D4000310509F090E08091E8008E778093E800DB
:103D5000CBCF84918093F1003196615071092F5F30
:103D60003F4FE6CF8091D402882341F0853041F067
:103D70008091E80083FFBDCF81E0089582E008953F
:103D800083E00895982F973028F08F708093E90092
:103D900081E008959093E900242F762F50E0981742
:103DA00031F07091EC002091ED005091F00021FD78
:103DB00002C09F5FE8CF3091EB003E7F3093EB0075
:103DC0003091ED003D7F3093ED003091EB0031609C
:103DD0003093EB007093EC002093ED005093F000D3
:103DE0002091EE0027FDE5CF80E008958091D50277
:103DF00087FF13C08091E80082FF06C08091E80031
:103E00008B778093E80004C08091D4028111F2CFB7
:103E100008958091D4028823D9F38091E80080FF2F
:103E2000F8CF8091E8008E77ECCF2091E4003091BC
:103E3000E50095E6A9012091EC00822F817020FF1A
:103E400006C08091E80080FF06C080E008952091C0
:103E5000E80022FD1AC08091D402882389F08530C1
:103E600089F08091EB0085FD0FC02091E400309136
:103E7000E50042175307F9F29150E1F684E0089506
:103E800082E0089583E0089581E008950E94B41FC0
:103E90000E94BC1FE0EEF0E0808181608083E8ED4D
:103EA000F0E080818F77808319BCA7EDB0E08C9122
:103EB0008E7F8C9380818F7E80831092D3020895B1
:103EC0000F931F93CF93DF930E94B41F0E94BC1FD8
:103ED000C8EDD0E088818F77888388818068888367
:103EE00088818F7D888319BC1092D4021092D002F1
:103EF0001092D2021092D10200EE10E0F8018081FF
:103F00008B7F808388818160888342E060E080E0ED
:103F10000E94C21EE1EEF0E080818E7F8083E2EE9F
:103F2000F0E0808181608083808188608083F801F7
:103F300080818E7F8083888180618883DF91CF91AB
:103F40001F910F910895E8EDF0E080818F7E8083CE
:103F5000E7EDF0E080818160808384E082BF81E0D2
:103F60008093D3020C94601FE8EDF0E080818E7F97
:103F700080831092E20008951092DA001092E1001E
:103F800008951F920F920FB60F9211242F933F9313
:103F90004F935F936F937F938F939F93AF93BF9351
:103FA000EF93FF938091E10082FF0BC08091E200CC
:103FB00082FF07C08091E1008B7F8093E1000E9427
:103FC0002B228091DA0080FF19C08091D80080FFF9
:103FD00015C08091DA008E7F8093DA008091D9003D
:103FE00080FF96C080E189BD82E189BD09B400FEF1
:103FF000FDCF81E08093D4020E94281C8091E100D3
:1040000080FF19C08091E20080FF15C08091E2001E
:104010008E7F8093E2008091E20080618093E200D5
:104020008091D80080628093D80019BC85E080938D
:10403000D4020E943A1C8091E10084FF2BC0809141
:10404000E20084FF27C080E189BD82E189BD89B596
:10405000982F917080FFFBCF8091D8008F7D809347
:10406000D8008091E1008F7E8093E1008091E20092
:104070008F7E8093E2008091E20081608093E20075
:104080008091D002882309F449C084E08093D4024F
:104090000E943B1C8091E10083FF29C08091E200D7
:1040A00083FF25C08091E100877F8093E10082E05B
:1040B0008093D4021092D0028091E1008E7F809391
:1040C000E1008091E2008E7F8093E2008091E20027
:1040D00080618093E20042E060E080E00E94C21EC6
:1040E0008091F00088608093F0000E94391CFF915D
:1040F000EF91BF91AF919F918F917F916F915F9160
:104100004F913F912F910F900FBE0F901F901895D8
:1041100019BC1092D4020E94361C70CF8091E3002B
:1041200087FD93E09093D402B3CF1F920F920FB606
:104130000F9211242F933F934F935F936F937F932D
:104140008F939F93AF93BF93CF93DF93EF93FF939F
:10415000D091E900DF708091EC00C82FC17080FD24
:10416000C0E81092E9008091F000877F8093F00012
:1041700078940E94D9201092E9008091F000886024
:104180008093F000CD2BCF70C093E900FF91EF91A9
:10419000DF91CF91BF91AF919F918F917F916F915F
:1041A0005F914F913F912F910F900FBE0F901F90F5
:1041B00018951F93CF93DF93CDB7DEB7AA970FB6AD
:1041C000F894DEBF0FBECDBF85ED92E02091F100E7
:1041D000FC012193CF01F2E08D3D9F07B9F70E94CA
:1041E000461C8091E80083FF1EC18091D50290910A
:1041F000D6029A3008F017C1E92FF0E0E952FD4DE0
:104200000C945B22803899F0823809F00CC18091BF
:10421000D9028F70873008F006C18093E900809141
:10422000EB0085FB882780F91092E90006C0809199
:10423000D1029091D202911182609091E800977F13
:104240009093E8008093F1001092F1008091E800D3
:104250008E77E5C0882309F4D3C0823009F0E3C02B
:104260008091D7028111D6C08091D9028F702FEF33
:10427000280F263008F0D7C08093E9002091EB008A
:1042800020FFC8C0933031F48091EB0080628093AE
:10429000EB00C0C09091EB0090619093EB0021E0A7
:1042A00030E001C0220F8A95EAF72093EA001092CD
:1042B000EA008091EB008860EACF8111B4C01091D0
:1042C000D7021F778091E3008078812B8093E300F1
:1042D0008091E800877F8093E8000E94F61E80911D
:1042E000E80080FFFCCF8091E30080688093E300CA
:1042F00082E0111183E08093D40295C0805882300F
:1043000008F091C08091D7029091D8028C3D23E0B3
:104310009207A1F583E08A838AE289834FB7F894F4
:10432000DE01139620E03EE051E2E32FF0E05093EF
:104330005700E49120FF03C0E295EF703F5FEF70FC
:104340008E2F90E0EA30C0F0C7968D939D932F5F3B
:10435000243159F74FBF8091E800877F8093E800B0
:104360006AE270E0CE0101960E94051E8091E8008D
:104370008B778093E80057C0C096E7CF6091D90251
:104380007091DA02AE014F5F5F4F0E94461DBC0183
:10439000892B09F448C09091E800977F9093E8003A
:1043A00089819A810E94631EE1CF8038E1F5809176
:1043B000E800877F8093E8008091D0028093F1002D
:1043C00045CF811130C09091D702923060F5809135
:1043D000E800877F8093E8009093D0020E94F61E49
:1043E0008091D002882311F084E005C08091E30021
:1043F00087FDFACF81E08093D4020E943C1C13C059
:104400008091D702813079F481E0933009F080E027
:104410008093D2021092E9008091E800877F809318
:10442000E8000E94F61E8091E80083FF0AC0809198
:10443000E800877F8093E8008091EB0080628093A2
:10444000EB00AA960FB6F894DEBF0FBECDBFDF918A
:10445000CF911F9108950895CF938091D40288231E
:10446000A1F0C091E900CF709091EC00892F81708C
:1044700090FD80E8C82B1092E9008091E80083FD50
:104480000E94D920CF70C093E900CF91089597FB87
:10449000072E16F4009407D077FD09D00E94612200
:1044A00007FC05D03EF4909581959F4F0895709537
:1044B00061957F4F0895EE0FFF1F0590F491E02D59
:1044C0000994AA1BBB1B51E107C0AA1FBB1FA6175B
:1044D000B70710F0A61BB70B881F991F5A95A9F7AD
:1044E00080959095BC01CD010895F999FECF92BDBC
:1044F00081BDF89A992780B50895A8E1B0E042E01F
:1045000050E00C94A922262FF999FECF92BD81BDCF
:10451000F89A019700B4021639F01FBA20BD0FB601
:10452000F894FA9AF99A0FBE08950396272F0E94DD
:1045300084220E948322252F0E948422242F0C94FF
:1045400084220196272F0E9484220C948322DC016E
:10455000CB01FC01F999FECF06C0F2BDE1BDF89A8E
:10456000319600B40D9241505040B8F70895F89438
:10457000FFCF73107310CB10CB101D11A010A01023
:10458000A0103911C511D411D4113012A010A010EF
:104590003912B812B812C112C112C312C112C1121B
:1045A000C112B812B812C812C112C112C812022127
:1045B0002A2113222A2113225D217E211322D521B3
:0245C000E121F7
:1045C20000000000000000000000000000000000E9
:1045D200000000000000510C600C730C0000000091
:1045E200000000000000000000004701510C600CB8
:1045F200730C00000000000000000000000000003A
:104602004201AE0000CA16AE0001CA16FF6902A935
:104612001BE81BAC1BE41BE01B01E200E900EA0003
:10462200B500B600B700CD008301CC008A0192012B
:1046320094012102230224022502260227022A02D1
:10464200B300B4006F007000818283F4F7F5F6675F
:10465200663635349796949593313233F0F10004EF
:10466200E200E900EA00B500B600B700CD00830120
:10467200CC008A0192019401210223022402250224
:10468200260227022A02B300B4006F007000818262
:024692008300A3
:00000001FF
