:100000000C9469020C94A1020C94A1020C94A1021C
:100010000C94A1020C94A1020C94A1020C94A102D4
:100020000C94A1020C94A1020C942E1F0C9402209B
:100030000C941F1A0C94A1020C94A1020C94A1021E
:100040000C94A1020C94A1020C94A1020C94A102A4
:100050000C94A1020C94A61A0C94A1020C94A10277
:100060000C94A1020C94A1020C94A1020C94A10284
:100070000C94A1020C94A1020C94A1020C94A10274
:100080000C94C5040C94A1020C94A1020C94A1023E
:100090000C94A1020C94A1020C94A1020C94A10254
:1000A0000C94A1020C94A1020C94A10229003A0024
:1000B0003B003C003D003E003F004000410042004C
:1000C00043004400450000004600000035001E00CB
:1000D0001F0020002100220023002400250026000C
:1000E00027002D002E002A002A004C002B001400AF
:1000F0001A000800150017001C0018000C00120060
:1001000013002F003000310000004B0039000400C4
:100110001600070009000A000B000D000E000F007A
:10012000330034002800000000004E00E100000011
:100130001D001B000600190005001100100036000C
:1001400037003800E500520000000000E000E30046
:10015000E2000000000000002C0000000000000091
:10016000E60001515000510000004F000100010065
:100170000100010001000100010001000100010077
:100180000100010001000000010000000100010069
:100190000100010001000100010001000100010057
:1001A0000100010001000100010001000100010047
:1001B0000100010001000100010001000100010037
:1001C0000100010001000100000001000100010028
:1001D0000100010001000100010001000100010017
:1001E000010001000100000000000100010000000A
:1001F00001000100010001000100010001000100F7
:1002000001000100010001000000000001000100E8
:1002100001000000000000000100000000000000DC
:1002200001000100010001000000010001000100C7
:1002300001000100010001000100010001000100B6
:1002400001000100010000000100000001000100A8
:100250000100010001000100010001000100010096
:100260000100010001000100010001000100010086
:100270000100010001000100010001000100010076
:100280000100010001000100000001000100010067
:100290000100010001000100010001000100010056
:1002A0000100010001000000000001000100000049
:1002B0000100010001000100010001000100010036
:1002C0000100010001000100000000000100010028
:1002D000010000000000000001000000000000001C
:1002E0000100010001000100000001000100010007
:1002F00001000100010001000100010001000100F6
:1003000001000100010000000100000001000100E7
:1003100001000100010001000100010001000100D5
:1003200001000100010001000100010001000100C5
:1003300001000100010001000100010001000100B5
:1003400001000100010001000000010001000100A6
:100350000100010001000100010001000100010095
:100360000100010001000000000001000100000088
:100370000100010001000100010001000100010075
:100380000100010001000100000000000100010067
:10039000010000000000000001000000000000005B
:1003A0000100010001000100000001000E035700E0
:1003B0005400370035002D0043000000160377007D
:1003C00069006C00620061002E007400650063002B
:1003D000680000000403090409023B00020100A0B8
:1003E000FA090400000103010100092111010001C3
:1003F00022400007058103080001090401000103F0
:10040000000000092111010001226D00070582038F
:10041000200001120100020000000882655C070153
:10042000000102000105010980A101850319012ACB
:10043000B700150126B700950175108100C0050CA5
:100440000901A101850419012AA002150126A002B3
:10045000950175108100C005010906A101850605F9
:100460000719E029E71500250195087501810205A6
:1004700007190029EF1500250195F0750181020586
:1004800008190129059505750191029501750391DA
:1004900001C005010906A101050719E029E71500BA
:1004A00025019508750181029501750881010507EF
:1004B000190029FF150026FF009506750881000523
:1004C000081901290595057501910295017503919A
:1004D00001C011241FBECFEFDAE0DEBFCDBF04B6EE
:1004E00003FE18C08091990490919A04A0919B04F6
:1004F000B0919C048730904BA740B04B59F41092B8
:10050000990410929A0410929B0410929C04E0E0CB
:10051000F8E3099511E0A0E0B1E0EAE9F6E402C0F1
:1005200005900D92A439B107D9F724E0A4E9B1E010
:1005300001C01D92A939B207E1F70E9467160C9419
:1005400035230C940000EAE5F4E06083418324E65F
:1005500030E042E050E0BF01880F0E94440408955B
:10056000EF92FF921F93CF93DF937B01182F110F10
:10057000D0E0C0E0C0935A04D701AC0FBD1FEBE53B
:10058000F4E08D91819384E0EB36F807D1F724E60F
:1005900030E041E150E06AE574E0812F0E944404BC
:1005A0006096C03CD10531F7DF91CF911F91FF904C
:1005B000EF900895CF93DF93C82F45EC6EEF0E9424
:1005C000A30240E06DEF8C2F0E94A302D0E040E038
:1005D0006D2F8C2F0E94A302DF5FD831C1F745EC4D
:1005E0006EEF8C2F0E94A30241E06DEF8C2F0E94D2
:1005F000A302D0E040E06D2F8C2F0E94A302DF5FAA
:10060000D03CC1F745EC6EEF8C2F0E94A30243E073
:100610006DEF8C2F0E94A30240E06FE08C2F0E94B0
:10062000A30240E060E18C2F0E94A3024FEF61E043
:100630008C2F0E94A30241E060E08C2F0E94A30255
:100640008FE39CE90197F1F700C00000DF91CF91A3
:1006500008958036910548F4880FE82FF0E0E652BF
:10066000FD4F608381E08093C70108951F93CF936E
:10067000DF93182FD0E0C0E0612FCE010E94290344
:100680002196C036D105C1F7DF91CF911F91089512
:10069000880FE82FE695E695E695F0E0E956FE4FDF
:1006A0002081382F377081E090E001C0880F3A95A3
:1006B000EAF7662331F0822B808381E080939601F4
:1006C000089580958223F8CFCF93C82F8091C701DA
:1006D000882379F045EC6EEF8C2F0E94A30241E055
:1006E0006DEF8C2F0E94A3026AED72E08C2F0E94A6
:1006F000B0021092C701CF9108950F931F93CF932B
:10070000DF93D82F809196018823C9F045EC6EEFD6
:100710008D2F0E94A30240E06DEF8D2F0E94A30257
:1007200007E911E0C0E0F80141918F016C2F8D2F96
:100730000E94A302CF5FC831B1F710929601DF91FA
:10074000CF911F910F9108951092B9008CE0809382
:10075000B8000895B0E0A0E0E0EBF3E00C940022D4
:10076000B82EEB010E947F1A6C01EE24E394F12C69
:10077000C431D10560F025E0E22EF12CCF3FDC073B
:1007800031F0CE0164E170E00E94A9217B0184EA8E
:10079000A82E94E8992E1092BC00A092BC000E9452
:1007A0007F1A8C018091BC0087FF0DC08091B90039
:1007B000887F8830F9F08091B900887F8031D1F04E
:1007C0000FEF1FEF08C0C8010E94971AE816F9063C
:1007D00048F70EEF1FEFCF3FDC07E9F2C6010E949A
:1007E000971AC817D907B8F6C801CDB7DEB7EBE03E
:1007F0000C941C22B092BB009092BC000E947F1A05
:100800008C018091BC0087FF0AC08091B900887F6D
:10081000883111F08034A1F610E000E0E5CFC80186
:100820000E94971AE816F90660F7D3CF0F931F932B
:10083000CF93DF93EB018093BB0084E88093BC00EF
:100840000E947F1A8C018091BC0087FF11C020910B
:10085000B900287F81E090E0283211F490E080E038
:10086000919581959109DF91CF911F910F910895F5
:10087000CF3FDC0741F3C8010E94971AC817D90778
:1008800010F78EEF9FEFEFCFB0E0A0E0EAE4F4E0E6
:100890000C9403226B018A017901B9010E94AA0319
:1008A000E6010C0D1D1DC017D10711F097FF08C000
:1008B00024E92093BC00CDB7DEB7E8E00C941F22FA
:1008C000B70189910E941604EECFCF930E94A40332
:1008D00080E50E94DA02C0E061E08C2F0E944803AC
:1008E000CF5FC036C9F760E080E50E947D03CF91FD
:1008F00008958091C90181110EC081E08093C901E2
:100900008DE0809391009FB7F89423E020939900A5
:10091000809398009FBF0895E1E7F0E080818260B6
:10092000808308958093D30108958093D201089520
:1009300080E00E9436030895809107010E943603EB
:100940000895FF920F931F93CF93DF93F82E0E9489
:100950007C2260E670E00E94BD21D0E0C0E08C0106
:100960001127F11003C00C171D0731F40E947C22DF
:10097000682FCE010E9429032196C036D10589F740
:10098000CDB7DEB7E5E00C9422221F920F920FB68E
:100990000F9211242F933F934F935F936F937F9305
:1009A0008F939F93AF93BF93EF93FF938091C80171
:1009B0008431A0F48F5F8093C801FF91EF91BF91C4
:1009C000AF919F918F917F916F915F914F913F91E7
:1009D0002F910F900FBE0F901F9018958091CE0110
:1009E0009091CF01A091D001B091D1010196A11DAC
:1009F000B11D8093CE019093CF01A093D001B0930D
:100A0000D1018091CA019091CB01A091CC01B0910C
:100A1000CD018F3F2FEF9207A207B20759F0019641
:100A2000A11DB11D8093CA019093CB01A093CC016D
:100A3000B093CD018091D301882321F080910501ED
:100A400080FD1CC020910601222381F140EB54E07F
:100A5000249FC001259F900D1124092E000CAA0B84
:100A6000BB0B4091CA015091CB016091CC017091B8
:100A7000CD0184179507A607B707C0F480E09091D1
:100A8000040180930401813039F0882311F0823011
:100A900031F00E94980491CF0E949C048ECF81E097
:100AA000923009F480E00E94A10487CF8091080170
:100AB000E6CF47E050E067E270E085E091E00E9419
:100AC000A222089547E050E067E270E085E091E0FF
:100AD0000E94C022089560E080E50E9464030895AA
:100AE0008091080190E001968430910514F083E034
:100AF00090E0809308010E946205089580910801AA
:100B00008150990B97FF02C090E080E084309105FE
:100B100014F083E090E0809308010E94620508953C
:100B20008091090190E001968430910514F083E0F2
:100B300090E0809309010E94620508958091090167
:100B40008150990B97FF02C090E080E084309105BE
:100B500014F083E090E0809309010E9462050895FB
:100B60008091070190E008968F3F910519F014F0ED
:100B70008FEF90E0809307010E94620508958091B5
:100B800007018850990B97FD80E0809307010E9430
:100B900062050895FB012281222341F01092CA01CF
:100BA0001092CB011092CC011092CD0182302FE532
:100BB000920729F148F481152FE5920799F08130C9
:100BC0009F45B9F081E0089584302FE5920719F12F
:100BD000E0F085309F45B1F78281882349F00E947B
:100BE0009E0505C08281882319F00E94B00580E02F
:100BF000089582818823E1F30E94BF05F8CF8281A6
:100C00008823B1F30E947005F2CF8281882381F39B
:100C10000E947E05ECCF8281882351F30E949005CB
:100C2000E6CF0E944D11882349F00E9459050E9489
:100C300065040E9479040E948C0408950E94620554
:100C4000F6CF0E946B050E94ED1408950F931F9339
:100C5000CF93DF93EC018B010E94CA05C0318FE571
:100C6000D80751F0C131EFE5DE07C9F0B801CE0178
:100C70000E948F06C82F0DC0F801C28181E0CC23ED
:100C800091F00E94230C43E062E081E00E94FE06A6
:100C9000C0E08C2FDF91CF911F910F910895F80143
:100CA000C28182E0ECCF0E94330C43E062E081E03D
:100CB0000E94FE06EECFCF93C82F0E9495048C2F82
:100CC0000E948F07CF91089581E00E9492040895B9
:100CD00080E00E9492040895CF93C82F6FEF811196
:100CE00063E283E290E00E94D0226FEFC11164E0E2
:100CF00084E290E00E94D0226FEFC11169E185E2A9
:100D000090E00E94D022CF9108950E94110681E0C8
:100D10000E946C060E94EC14089581E0089581E021
:100D2000089508950E9491060895A5E0B0E0EBE9CA
:100D3000F6E00C94082249835A833091D9018981C5
:100D40009A81311119C0662399F0222389F00E94FB
:100D5000E80C182F682F89819A810E94C50C69813F
:100D60007A81812F0E94AC132596E3E00C94242213
:100D70000E94D60C182FF3CF0E94E80C69817A816B
:100D8000F1CFFC01262F40815181628173818481E2
:100D90000E949506089581E00895CF93DF93EC01BA
:100DA00060E00E94C106BE010E949206DF91CF91D1
:100DB0000895E1E0F0E0DF0102C0AA0FBB1F6A95D1
:100DC000E2F7BD01DF0102C0AA0FBB1F4A95E2F79F
:100DD000AD01462B572B02C0EE0FFF1F2A95E2F7FD
:100DE0009A01282339232417350719F48E2B9F2BBA
:100DF0000895E095F0958E239F230895242F462F84
:100E0000682F80910A0290910B020E94D9060E94DD
:100E1000090C08950E94850608950E9421060895F0
:100E200008950E94900B0E9410072FEF84E39CE02E
:100E3000215080409040E1F700C0000008950E94DA
:100E400011070E94CA1A08950E9411070E94EE1A03
:100E500008950F931F93CF93DF93EC018B010E94B2
:100E60002606811106C080E0DF91CF911F910F917E
:100E70000895B801CE010E9470188823A1F3B8012B
:100E8000CE010E947416882371F3B801CE010E942E
:100E9000E217882341F3F8018281882361F0CB3582
:100EA000FDE5DF0701F158F4C115ECE5DE0791F02F
:100EB000CF3DDC4591F0C8010E948D06D5CFCD35E0
:100EC0008DE5D80769F090F0C83ADD45A1F70E949A
:100ED0002407C9CF0E941F07C6CF0E94F611F7CF83
:100EE0000E943411E8CF0E943E11E5CF0E944211CA
:100EF000E2CFCF93DF93EC0161E00E94C106BE0117
:100F00000E942907DF91CF9108950E9464060E94F4
:100F10009F0708950E94A3070E94680608950895F8
:100F200081E008950E94900708950895CF93C82FF7
:100F30000E945B068C2F0E949207CF91089580E05B
:100F40000E94960708950E94CC180E949607089563
:100F5000CF930E94CC18C82F8091D4018C1779F0C0
:100F6000C093D4010E948B1A6093D5017093D6016F
:100F70008093D7019093D8018C2F0E949607CF9130
:100F80000895ABE0B0E0E7ECF7E00C9409224F8362
:100F9000588769877A878B8761110E9453101E8258
:100FA0001D8285E0FE013796DE01119601900D92BB
:100FB0008A95E1F780916F0482FF0CC00E941610A1
:100FC000882319F082E00E9403110E94FD0F811115
:100FD0000E9481108C819D81892B61F449815A8105
:100FE0006B817C818D819E810E94540F2B96E2E063
:100FF0000C94252289819A8189238F3F79F3CE0130
:1010000001960E94CB068111E9CFF0CFFC018081CF
:1010100091810E941A0D0895CF93C82F8823C9F09B
:101020008238C9F40E94CC1881FD13C089E30E9464
:10103000E30F0E948F102FEF87EE93E02150804046
:101040009040E1F700C0000089E30E94EB0F0E948E
:101050008F10CF9108958338A1F40E94CC1880FDA1
:10106000F8CF83E50E94E30F0E948F102FEF81EEEF
:1010700094E0215080409040E1F700C0000083E5FB
:10108000E4CF8438A1F40E94CC1882FDE2CF87E43B
:101090000E94E30F0E948F102FEF81EE94E0215009
:1010A00080409040E1F700C0000087E4CECF8CEF95
:1010B0008C0F813A90F46C2F80910C0190910D016E
:1010C0000E943319882329F08C2F0E94EB0F0E9475
:1010D0008F108C2F0E94E30FBACF80E28C0F8830E4
:1010E00048F4C77081E001C0880FCA95EAF70E94F2
:1010F0003610ADCFEBE5EC0FE33040F4F0E0E75B0A
:10110000FE4F808190E00E94F318A3CFC85AC731E8
:1011100008F09FCFEC2FF0E0EE0FFF1FE55EFE4FD3
:10112000808191810E94091994CF882309F44DC0D0
:10113000823879F40E94CC1881FF47C089E30E946D
:10114000E30F0E948F1089E30E94EB0F0E948F1023
:101150000895833859F40E94CC1880FF36C083E587
:101160000E94E30F0E948F1083E5EECF843859F47C
:101170000E94CC1882FF29C087E40E94E30F0E94DE
:101180008F1087E4E1CF9CEF980F913AE8F290E25C
:10119000980F983050F4877091E001C0990F8A95AC
:1011A000EAF7892F0E943C10D1CF9BE5980F93302E
:1011B00028F490E080E00E94F3180895885A87315F
:1011C00020F490E080E00E94091908951F93CF93C6
:1011D000DF93182FEB010E940C08209739F4812F20
:1011E0000E949508DF91CF911F9108958FE99FE0AC
:1011F0000197F1F700C000002197EFCF70E060E0A9
:10120000893311F460E570E00E94E60808958823B0
:1012100021F00E9436100E948F100895882321F03B
:101220000E943C100E948F100895B0E0A0E0EBE116
:10123000F9E00C9402226C01D62FC72FFC01028129
:10124000F580F2949FE0F9220E942C10E82E88236A
:10125000B9F0E02E0023A1F08C2F807F803421F0A4
:1012600080E28D0F8830D0F080916F0482FF16C02D
:1012700082E00E9403110E942C1091E0E82EE926E2
:10128000BC2EB2948FE0B822FBE0FB1508F468C0D6
:10129000EB2DF0E0E95CFC4D0C94F321E12CF0CF58
:1012A0001C2F1F70C07F11F01295107F002399F042
:1012B000112359F080E28D0F883010F0D11107C052
:1012C000812F0E9436100E948F108D2F41C0812FD8
:1012D0000E944610F8CF8D2F0E949508112309F423
:1012E0003FC080E28D0F883010F0D11104C0812FF3
:1012F0000E943C1003C0812F0E944C100E948F104E
:101300002FC01C2F1F70C07FC03211F01295107FAC
:10131000DD2381F0D13009F482C0002309F48BC0B1
:10132000FF2009F45BC0F601858180FFCECF8F706E
:10133000858354C080916F0482FD33C0002359F02F
:10134000112329F0812F0E9436100E948F1080E017
:101350000E940C0805C080E00E9495081111C7CFBB
:10136000EB2DE850FF0B349720F40E94CC180E941C
:101370009607EE2089F00E94121080FD0DC0F60144
:1013800012820E940C100E94230CC6010E94540B72
:101390000E940C100E94330CCDB7DEB7E9E00C942C
:1013A0001E220023E9F0F11006C00E945610812B86
:1013B0000E940709D5CF21E0F21206C00E94561004
:1013C000812B0E946A10CCCF35E0F312EECF0E9441
:1013D00081100E94FA0F812B0E945D10812FE8CFAF
:1013E000F11003C00E94811011C081E0F81212C0F8
:1013F0000E943310812309F4B3CF0E9481100E9410
:10140000FA0F912F909589230E945D10812F0E94E1
:101410000E09A6CF95E0F91609F4A2CFE3CF002379
:1014200029F0E5E0EF1508F49BCFD8CFF4E0FF15E5
:1014300008F496CFEBCFFF2049F3D93349F4FFEFFF
:1014400027EE33E0F15020403040E1F700C00000CB
:101450008D2F0E94950884CF8C2F8695869583705A
:1014600069F0813009F07CCF8D2F9C2F9370011192
:1014700002C090E080E00E94091972CF8D2F9C2F4E
:101480009370011102C090E080E00E94F31868CFD1
:101490008C2F8370A1F5011163CF4D2F4295469596
:1014A0004770440F440F2D2F2F7030E0042E02C0E0
:1014B000220F331F0A94E2F790E080E0D4FF09C0C6
:1014C0008FE090E002C0880F991F4A95E2F780955F
:1014D0009095C695C695C370822B932BC23049F068
:1014E00058F4C13019F00E94F10B3ACF0E94E80B7A
:1014F00037CF0E94FA0B34CF0E94E50B31CF86958F
:10150000002311F08C2F8170882309F429CF4D2FEF
:10151000429546954770440F440F2D2F2F7030E0B1
:10152000042E02C0220F331F0A94E2F790E080E0FD
:10153000D4FF09C08FE090E002C0880F991F4A9540
:10154000E2F780959095C695C695C370822B932B34
:10155000C23049F058F4C13019F00E945E0C00CF3F
:101560000E94550CFDCE0E94670CFACE0E94090C19
:10157000F7CECF70002329F08C2F0E94230C8D2FE3
:1015800017CF8D2F0E940E098C2F0E94330CE8CEAE
:10159000D23F51F160F4D03FB9F0D13F81F0002348
:1015A00009F45AC0F11091CE8C2F8F7121C0D33F16
:1015B00011F1D43FA1F780916F0482FD26C08C2FDA
:1015C0008F71002311F314C0002349F084E08F15BC
:1015D00008F4C6CE8C2F8F710E94450CC1CE95E0C9
:1015E0009F1508F4BDCEF6CF8C2F8F710111CDCF92
:1015F0000E94230CB5CE002329F08C2F8F710E94FE
:10160000170CAECE0E94120CABCE0023C1F00E948C
:101610001210843041F40E94F9108C2F8F710E94B7
:10162000330CE12C9DCEE4E0EF15D8F3CF718C2F75
:101630000E94230C63E08C2F0E94DB10F2CFF4E0B9
:10164000FF1530F40E94F91064E08C2F8F71F4CFF5
:1016500081E00E940311E5CFFF2059F0D93309F052
:10166000F7CE2FEF37EE83E0215030408040E1F796
:10167000EDCE8C2F8F7189CF0F931F93CF93DF9374
:10168000EC01688179818A810E94250D8C010E947C
:10169000700C0E94E40BB801CE010E941509DF9185
:1016A000CF911F910F910895CF93DF93EC018B8120
:1016B0009C81892B29F08881998189238F3F51F45E
:1016C000DF91CF910895CE010E943C0BCE010E9484
:1016D000CD06F6CFCE010E9479078111F4CF0E948A
:1016E0002C10882369F38A81882351F380916F0439
:1016F00082FFE6CF82E00E940311E2CF90E080E01B
:101700000E94F31890E080E00E9409190E94531093
:101710000E948F1008950E94F30F0E947E0B08957F
:101720000E9443100E948B0B089592959F709630F3
:1017300091F058F4925F9F70923058F4803F19F006
:1017400030F4883E30F481E008959A5FF4CF843F0E
:10175000D1F380E00895883EB0F3813FD1F7F3CF15
:10176000FC0183819481892B29F0808191818923D7
:101770008F3F11F480E00895808191810E941A0DBD
:101780000E94950B0895A5E0B0E0E9ECFBE00C9415
:1017900009222596E2E00C942522A6E0B0E0E3EDD4
:1017A000FBE00C9409222696E2E00C942522089591
:1017B0000E94D70B08950E94D80B90930D0280933E
:1017C0000C020E947E0B089508950E94DB0B089581
:1017D00020910C0230910D02822B932B0E94DB0B87
:1017E000089520910C0230910D02822393230E94D0
:1017F000DB0B089520910C0230910D028227932774
:101800000E94DB0B08950E94D70B08950E94030CE1
:1018100008950E94060C90930B0280930A020E9486
:101820007E0B089590E080E00E94090C089521E06D
:1018300030E0A90102C0440F551F8A95E2F7CA01A2
:101840000E94090C089521E030E002C0220F331FEE
:101850008A95E2F780910A0290910B02822B932BDA
:101860000E94090C089521E030E002C0220F331FCE
:101870008A95E2F72095309580910A0290910B02AB
:10188000822393230E94090C089521E030E002C0D6
:10189000220F331F8A95E2F780910A0290910B0282
:1018A000822793270E94090C089520910A02309103
:1018B0000B02822B932B0E94090C089520910A029F
:1018C00030910B02822393230E94090C08952091EA
:1018D0000A0230910B02822793270E94090C089577
:1018E0000895262F277091E001C0990F2A95EAF7F5
:1018F00023E0769567952A95E1F7660F771F660FC7
:10190000771FFA01E60FF71F50E040E0682F70E004
:101910008191DF0111979B01042E02C03695279516
:101920000A94E2F7217021952827292328272C9350
:101930004F5F5F4F4430510559F70895A82FA770A6
:1019400023E0969587952A95E1F7880F991F880FD0
:10195000991FFB01E80FF91F50E040E080E0219162
:1019600030E00A2E02C0369527950A94E2F72170DE
:101970003327042E01C0220F0A94EAF7822B4F5F0F
:101980005F4F4430510559F70895262F963068F47B
:10199000803158F430E1939FB0011124680F711D1C
:1019A0004AED51E0822F0E94710C0895963070F438
:1019B000803160F440E1949F900111246AED71E060
:1019C000820F932F911D0E949E0C089580E0089530
:1019D000B0E0A0E0EEEEFCE00C9402227C0100916D
:1019E0000A0210910B0280910C0290910D02082BBB
:1019F000192BCFE0D0E0CC24C394D12CBC2EC6014F
:101A00000C2E02C0880F991F0A94E2F780239123BD
:101A1000892B49F4219790F7B12C8B2DCDB7DEB7E8
:101A2000E9E00C941E22B7018C2F0E94C813019785
:101A300089F3F3CFCF93DF93EC010E94E80CBE0152
:101A40000E94C813DF91CF9108951F93CF93DF9326
:101A5000EB019091D901992339F0CB010E941A0D25
:101A6000DF91CF911F910895882369F0CB010E94E7
:101A7000E80C182F682FCE010E94C50CBE01812FE3
:101A80000E94C813EDCFCB010E94D60C182FF6CFC1
:101A90001F93CF93DF93C0910E0216E080910F0247
:101AA0008C1304C0DF91CF911F910895D0E01C9F4B
:101AB000F0011D9FF00D1124E05FFD4F4081518129
:101AC00062817381848195810E94CD0B2196C770BC
:101AD000E5CF4091400250914102609142027091E5
:101AE000430280914402909145020E94CD0B0895DB
:101AF0001F93CF93DF9380914502807F09F049C007
:101B000080914202882309F444C080910E02C09162
:101B10000F026091400270914102A0914302B09186
:101B20004402D62FD72316E0C81799F190E01097FA
:101B300011F0DF3F19F401968770F6CF189F9001DE
:101B4000199F300D1124F901E05FFD4F41814713CA
:101B5000F2CF40814613EFCF42814111ECCF438158
:101B600054814A1B5B0B483C510528F78091450284
:101B70008F70806180934502F901EB5EFD4F80819B
:101B80008F708061808380E492E00E94540B0E94F9
:101B9000480DDF91CF911F910895A1E1B0E0E3EDF1
:101BA000FDE00C9401228C0185E0F801DE011D9618
:101BB00001900D928A95E1F7F801E28080E4C82E49
:101BC00082E0D82E60914302709144026115710544
:101BD00009F44EC19091400220914102892F822345
:101BE0008F3F09F445C140815181A380B480F090BA
:101BF0004202F501E61BF70BFF2009F4EAC08091D1
:101C00004502382F307FE83CF10508F0A3C03111C0
:101C10006DC0FE2C251316C0941314C0E11012C021
:101C20008F708061809345020E94690DC6010E94F9
:101C3000540B80914502F80185838F2D6196EAE06F
:101C40000C941D22A114B10429F0842F85238F3F09
:101C500009F027C180E0F82FF170DF2E80FF3CC033
:101C600080910E0220910F0236E0821315C04D873D
:101C70005E878D859E850E941A0D292F22952F70D3
:101C80002230F0F0243018F59F70F1F0F8019581C2
:101C9000907FD1F4D12C1EC090E0389FF001399F85
:101CA000F00D1124E05FFD4F6181651306C0608176
:101CB000641303C06281E6120FC001968770D5CF0E
:101CC0009F7011F0882331F3805E883018F3C801CB
:101CD0000E94540BFD2CB1CFEE2009F4AECF8091C1
:101CE0004502816080934502F12CA7CF251306C0E1
:101CF000941304C0F801EE2009F487C0C8010E94C3
:101D0000B00B882319F1EE2009F180914502803251
:101D100070F0209140023091410238872F8319865C
:101D2000BB86AA868C87CE0107960E94540B86E05C
:101D3000F801A0E4B2E001900D928A95E1F70E94CB
:101D4000780D0E94690DFF24F39477CFC8010E949B
:101D5000540BF9CF311113C07A2DB98AA88A6E2D90
:101D600089890E94C30B80E492E00E94540B86E0B4
:101D7000F60111928A95E9F70E94690DB5CF2513F6
:101D80000FC094130DC0E1100BC0F8018583C8018A
:101D90000E94540B86E0F60111928A95E9F74DCF27
:101DA000C8010E94B00B882389F2EE2079F280915D
:101DB0004502803208F4BBCF2091400230914102AD
:101DC0003A8329831B82BD82AC828E83CE01019629
:101DD000ACCFE83CF10508F03EC0FE2CEE2009F443
:101DE000B5CF25132AC0941328C08091450280FDE9
:101DF0001BC0982F907FC1F0F8018583903F31F090
:101E0000982F907F905F8F70892B8583C8010E94E7
:101E1000540B86E0F801A0E4B2E001900D928A959F
:101E2000E1F70E94690D09CF86E0F801A0E4B2E075
:101E300001900D928A95E1F700CFC8010E94B00B86
:101E4000811175CF80914502816080934502C80160
:101E50000E94540BF2CE7A2DB98AA88A6E2D8989F8
:101E60000E94C30B86E0F60111928A95E9F7D9CF5B
:101E7000EE2009F46BCFC8010E94B00BF82E882326
:101E800009F464CF86E0F801A0E4B2E001900D927D
:101E90008A95E1F780E492E00E9406080E94780D9E
:101EA000C0CF81E08E25D7CEACE0B0E0EAE5FFE020
:101EB0000C9408224F83588769877A878B879C8781
:101EC000CE0107960E94CD0D882369F08A859B85F7
:101ED000892B39F04F815885842F85238F3F09F056
:101EE0006BC016E05FC086E0FE013796DE011196FA
:101EF00001900D928A95E1F78A859B85892B89F35C
:101F00008F81988589238F3F61F320910F0230E004
:101F1000C90101968770992740910E02481719064A
:101F200071F40E94900B10920F0210920E0286E044
:101F3000E0E4F2E0DF011D928A95E9F7D2CF96E066
:101F4000929FD001939FB00D1124A05FBD4FFE0161
:101F5000319601900D929A95E1F780930F020E94BD
:101F6000480DBFCF819FC0011124805F9D4F0E940B
:101F7000CD0D8823E9F0E0910E021E9FF00111249F
:101F8000E05FFD4F40815181628173818481958141
:101F90000E94CD0B80910E0290E0019687709927E8
:101FA00080930E0280910E0290910F028913DACF76
:101FB0002C96E3E00C94242269857A858B859C8598
:101FC0000E94CD0B8ECF682F80910C0190910D0156
:101FD0000E94B3190895682F80910C0190910D0112
:101FE0000E94C119089580910C0190910D010E94E9
:101FF000CF19089580916B0208950E947F1A209155
:10200000690230916A02821B930B9C0181E028389F
:10201000334108F480E008958091680285958595A4
:102020008595089580916802877008950E947F1AAF
:102030002091660230916702821B930B883893418E
:1020400048F08091680282FB882780F991E0892717
:102050008170089580E0FCCF90916802977081E0D4
:1020600009F480E0089580918E02089590918E0287
:10207000892B80938E020895809590918E029823EB
:1020800090938E02089510928E02089590918D0281
:10209000892B80938D020895809590918D029823CD
:1020A00090938D02089510928D02089580916C0294
:1020B000089508950E945910089590916B02981701
:1020C00021F080936B020E945A10089508950E9497
:1020D00066100895CF93C82F80916F0482FF0FC0C0
:1020E00080916C028C1759F00E947F1A90936A02BB
:1020F00080936902C0936C028C2F0E946710CF916D
:10210000089580916C02882349F010926C0210921D
:102110006A021092690280E00E9467100895CF93CE
:10212000DF93E0910C01F0910D0180918E0280838C
:10213000E0910C01F0910D01808190918D02892B2D
:10214000808380916C028823B9F00E94FD0F811179
:102150000E948110E0910C01F0910D01808190911D
:102160006C02892B808380910C0190910D010E945B
:102170001F1981110E948110C0910C01D0910D0195
:1021800040E250E066E472E0CE010E948C22892B8E
:1021900059F080E2FE01A6E4B2E001900D928A952A
:1021A000E1F7CE010E94D918DF91CF9108950895EB
:1021B0000E94D710089590916F0492FF17C098E085
:1021C000899F90011124622B609368020E94230C66
:1021D0000E947F1A90936702809366028091680242
:1021E0008595859585950E94D81008950E94230CA9
:1021F000089510926802109267021092660280E0C1
:102200000E94D81008959091680280958923809348
:102210006802282F277091F4282F082E000C330B0A
:102220009217130659F090916F0492FF07C085959D
:10223000859585950E94330C0E94F9100895909120
:102240006F0492FB222720F9281769F080FB92F98E
:1022500090936F0480916E0490916F040E947011AE
:1022600082E00E940311089580916F0482FB882709
:1022700080F991E089270E941F11089581E00E9452
:102280001F11089580E00E941F1108956FEF7FEFE6
:1022900090E080E00E94EE22089590E080E00E94AD
:1022A000BA2221E0883E9E4F09F020E0822F089557
:1022B00082E090E00E94B222089583E090E00E94C4
:1022C000B2220895CF9384E090E00E94B222C82FFA
:1022D00082E290E00E94B222982F8C2FCF91089535
:1022E000CF93C92F682F84E090E00E94D0226C2FFA
:1022F00082E290E00E94D022CF910895AB01BC0110
:102300008FE090E00E94E2220895AB01BC0183E1DE
:1023100090E00E94E222089560E070E0CB010E940C
:102320008511089560E070E0CB010E947E110E944B
:102330008C11089568EE7EEF90E080E00E94EE221E
:1023400060E082E090E00E94D02260E083E090E0D4
:102350000E94D02210920D0210920C0260E084E0E4
:1023600090E00E94D02264E082E290E00E94D022BD
:1023700060E085E090E00E94D02260E086E090E09E
:102380000E94D0226FEF87E090E00E94D02240E0D0
:1023900050E0BA0188E090E00E94E22260E08DE027
:1023A00090E00E94D02240E050E0BA0188E190E045
:1023B0000E94E22260E087E190E00E94D02240E0AB
:1023C00050E0BA018CE190E00E94E22270E060E00F
:1023D00080E290E00E94EE2240E050E0BA0188E105
:1023E00090E00E94E2220E94921108950E949A11A8
:1023F0000895682F8EE090E00E94D02208950E94F8
:102400008B1A6093A1027093A2028093A30290930F
:10241000A40260939D0270939E0280939F0290930A
:10242000A0020895089508950E9413120895089532
:102430000E941712089582EB94E10E94C2180E9434
:1024400012120E941412089581E008950E9424122D
:102450000895089508950E9429120E942A1208954D
:102460000E94CE140E94950708950E94761A0E9439
:10247000AF150E9430120E9418120895AAE0B0E031
:10248000E4E4F2E10C94FE210E94C51521E9822EBC
:1024900022E0922E640110E0F601E190F1906F01CC
:1024A000812F0E94EE141F5F163009F449C0E81610
:1024B000F90691F38091A50281FD0E94F7140E9414
:1024C0002612782E10E0812F0E94EE147C01F40178
:1024D000A190B1904F018A159B0561F1A826BF24F8
:1024E00000E0CC24C394D12CC5018C219D21892BE3
:1024F000C1F07720B1F00E831F8321E0C7018C214A
:102500009D21892B09F420E028870E947F1A816091
:10251000782F9A8789874E815F8168858A850E9496
:10252000C1070F5FCC0CDD1C0031F1F6F4013297CE
:10253000F182E0821F5F163031F60E94FF1122C047
:10254000E816F90609F0B6CF0E947F1A8C01809137
:102550008F029091900208171907A1F08FEF8983DD
:102560008A831B820E947F1A8160782F9D838C83CF
:1025700049815A816B818D810E94C107109390021D
:1025800000938F020E94A8072A96EDE00C941A226D
:10259000CF93DF930E94CD13EC01811522E59207C2
:1025A000E8F5811531E5930708F0A5C0883E91054F
:1025B00010F5803E910570F5883A910570F4853AE2
:1025C000910508F078C08130910521F1009711F153
:1025D000049700F5D0E0C0E01DC08F3B9105D0F717
:1025E000C85AD0E0CC0FDD1FC45BDE4F0990D88104
:1025F000C02DD4640FC0811540E5940708F066C073
:10260000C11580E4D80708F05EC0CE019A95811507
:102610009F4100F7CE01DF91CF910895811536E5F6
:10262000930718F5811545E5940708F07DC0C1159D
:1026300084E5D80708F073C09C2F969596959E0167
:1026400023703327C115D34508F45AC0C1E0D0E048
:1026500002C0CC0FDD1F2A95E2F730E2939FC00144
:102660001124C82BD92BDA68D5CFC1158AE5D80734
:1026700078F4C11529E5D20708F060C0C11538E526
:10268000D30708F4A7CFDC2FCC27C06FD06AC2CF06
:10269000CE0190568115904208F09CCF8D2F8F71FE
:1026A0000E946F1490E0982F882788279F719C01C3
:1026B0002C2BE90141C0C55AD0E0C658DE4FC88175
:1026C000D0E0D064A7CFDF70D06AA4CF282F2695A2
:1026D0002695237080E2289F900111248C2F83700F
:1026E000C1E0D0E002C0CC0FDD1F8A95E2F7C22B1B
:1026F000D32BDD688FCFD82FCC27C16FD06A8ACF7C
:10270000C1E0D0E002C0CC0FDD1F2A95E2F720E245
:10271000929FC0011124C82BD92BDC687BCFDC2F02
:10272000CC27C46FD06A76CF0E946F14C82FD0E038
:10273000DC2FCC27CC27DF71D0626CCF8C2F8F7031
:102740000E946F1434E0D695C7953A95E1F7CF70A3
:102750009C2FEC01D0695ECF7630B8F46031A8F4DC
:10276000E72FF0E096E0899FE00DF11D112484E051
:10277000EE0FFF1F8A95E1F7E60FF11DEE0FFF1F29
:10278000E455FF4F85919491089580E090E008957D
:102790000E94AC130E94C812089582389105B9F1C5
:1027A000B0F48133910509F47DC048F48932910574
:1027B00009F46DC08A32910509F47BC00895853310
:1027C000910509F45FC08933910509F10895833EAD
:1027D0009105D9F138F4803E910529F1823E9105A9
:1027E00079F10895863E9105D9F1873E910509F466
:1027F0003EC0843E910541F520916F0421FF24C025
:1028000080916E0484FD19C087EE90E008952091B8
:102810006E04237009F05AC020916F0423FF14C086
:1028200089E290E0089520916E0420FD38C0309137
:102830006F0430FF09C024FF43C090E080E008959A
:1028400020916E0422FDF7CF089520916E0422FDA1
:102850003AC030916F0430FD39C024FFF5CFEDCF81
:1028600020916E0423FFF0CF24FDE7CFCDCF209140
:102870006E0423FD2EC030916F0431FFEECF84EE45
:1028800090E0089520916E0425FFDECFC9CF2091FE
:102890006E0425FD21C020916F0423FFD5CF89E36D
:1028A00090E0D2CF20916E0426FFCECF8AE290E056
:1028B000089520916E0426FFC7CF81E390E008952C
:1028C00083EE90E0089582EE90E0089580EE90E02F
:1028D000089586EE90E0089585E390E00895909144
:1028E0006E0492FF06C0282F28712830F9F4877FE4
:1028F000846093FF06C0282F28712831F1F4877E69
:10290000846120916F0420FF06C0382F3871383061
:10291000D9F4877F816021FF06C0282F28712831D4
:10292000D1F4877E816194FD877E0895282F2471DC
:102930002430F9F68B7F8860DCCF282F2471243176
:1029400001F78B7E8861DDCF382F3171313019F777
:102950008E7F8860E0CF282F2171213121F78E7E74
:102960008861E1CF80E008950E94461108950E9499
:10297000C5158FE39CE90197F1F700C000000E94A4
:10298000C51580E00E94EE1480FF04C00E94B414BC
:102990000E94CA1A08950E94B71408950E944D110A
:1029A000811102C00E94F6110E9458118093A50265
:1029B0000E94621190936F0480936E040E94CB1466
:1029C0000E945D1190E00E94E50B80910A029091B7
:1029D0000B020E94060C089508950895E82FF0E078
:1029E000EE0FFF1FE458FB4F8081918108950895F9
:1029F00080EA8A95F1F7089500C008950E94F814BE
:102A00000895F894E82FE295EF70F0E031A1282FB7
:102A10002F7081E090E001C0880F2A95EAF7982F87
:102A20009095932391A392A1892B82A378940895E2
:102A3000CF93DF93CDE7D1E089918F3F11F00E94D2
:102A4000011581E0CD38D807B9F7CDE8D1E08991FB
:102A50008F3F11F00E94011581E0C339D807B9F703
:102A6000DF91CF9108958F929F92BF92CF92DF9284
:102A7000EF92FF920F931F93CF93DF93D82EE92EFF
:102A8000F62E8A01C62FD0E0C358DE4F28812F3F93
:102A900009F453C0F894E22FE295EF70F0E031A111
:102AA0002F7081E090E001C0880F2A95EAF7932FFC
:102AB000982B91A392A18095892382A378940E9458
:102AC000FC148DE8882E81E0982EED2DFE2DBF019F
:102AD000645F7F4FE12C6801C094D094D401BD9015
:102AE0004D0181919191AF0142505109BFEFBB1649
:102AF00081F12B2D22952F7030E0D90190962C91E9
:102B000030E0BB2DBF7002C035952795BA95E2F72E
:102B100020FD1FC0802B912BDA018D939C93EE2416
:102B2000E394E617F707D1F688818F3F11F00E94F2
:102B300001156E2D8F2D0E94FE14DF91CF911F91F4
:102B40000F91FF90EF90DF90CF90BF909F908F906C
:102B500008958C219D21DA018D939C93E2CF0E94F0
:102B600018158CE0ECE7F4E0DF01982F1D929A95A0
:102B7000E9F7E0E7F4E0DF011D928A95E9F786E0E6
:102B80000E9419160E940A070895CF92DF92FF92C1
:102B90000F931F93CF93DF93CDB7DEB72C970FB66C
:102BA000F894DEBF0FBECDBF8E010F5F1F4F8CE0CC
:102BB000F80111928A95E9F7F12CCC24C394D12C19
:102BC000A6016F2DC8010E943315F394CC0CDD1CB7
:102BD000F0E1FF12F5CF4CE050E0B80180E794E05F
:102BE0000E948C2221E0009709F420E0892B41F01B
:102BF0008CE0F801A0E7B4E001900D928A95E1F72E
:102C000046E06CE774E080E794E00E941A16182F03
:102C10000E940D07812F2C960FB6F894DEBF0FBED1
:102C2000CDBFDF91CF911F910F91FF90DF90CF909B
:102C300008950895CF92DF92EF92FF921F93CF9362
:102C4000DF936C017B01C42F222349F081E0809344
:102C5000A8020E947F1A9093A7028093A602109167
:102C6000A80211110AC010E0812FDF91CF911F91AE
:102C7000FF90EF90DF90CF9008958091A602909101
:102C8000A7020E94971A059770F3D0E0CC0FDD1FC2
:102C9000AE01B601C7010E948C22892B41F0AE0122
:102CA000B601C7010E9499221092A802DDCF10E060
:102CB000FBCF0E94841C0E9435120E94911C089533
:102CC0000E94961C0E943E120E94B01C08950E9411
:102CD000181A0E946A1C0E941B120E9459160E9418
:102CE00060160E942B12FBCFCF93DF93EC01FB0108
:102CF0008281882309F464C1C430FDE5DF07E0F573
:102D0000CB3F9CE5D90730F49E0122503C4524314D
:102D10003105D8F50E94621190936F0480936E0480
:102D2000C231ECE5DE0709F41FC108F06EC0C930FE
:102D30008CE5D80709F4F2C008F03FC0C530ECE5D7
:102D4000DE0709F4DBC058F5C3308CE5D80709F479
:102D5000CDC008F0CFC080916E048160C230DC45E8
:102D600009F4AEC080916E0490916F040E947011BE
:102D70000E94900B80E009C0C63AEDE5DE0751F2F3
:102D800038F4C2369DE5D90729F2DF91CF91089535
:102D90009E012E5A3D4523303105B8F7BBCF8091B7
:102DA0006E048062C730FCE5DF0709F489C008F4CF
:102DB000B1C080916E04806483C0CD309CE5D9079A
:102DC00009F4BAC070F480916E048E7FCB30FCE5BC
:102DD000DF0709F475C008F4A7C080916E048D7FE9
:102DE0006FC0CF309CE5D90709F4B6C008F4A8C07D
:102DF000C031FCE5DF0709F4B3C0C131DC4509F09F
:102E0000B1CF80916E048F7B5BC0C1159DE5D90762
:102E100009F4B4C098F5CB3FFCE5DF0709F472C0B4
:102E2000B8F4C4319CE5D90709F4B6C008F4A2C0CF
:102E3000C531DC4509F096CF80916E0482FB99275D
:102E400090F921E0922790FB82F990FB83F938C03A
:102E5000CD3F8CE5D80709F477C008F457C0CE3FC2
:102E6000ECE5DE0709F474C080916F048360CF3F06
:102E7000DC4509F077CF80936F0474CFC2368DE5BF
:102E8000D80709F496C068F4C230EDE5DE0709F40E
:102E90008CC008F477C0C330DD4509F063CF80E013
:102EA00085C0CE3A9DE5D907E9F068F490916E04AB
:102EB000892F8E7F90FF8160C63ADD4509F052CFA1
:102EC00080936E044FCFCF3A8DE5D80789F1C03B90
:102ED000DD4509F047CF90916F04892F877F93FFDD
:102EE0008860C9CF80916F048860C5CF80916E04DF
:102EF0008260E6CF80916E048460E2CF80916E04A0
:102F00008860DECF80916F048160B5CF80916F04BF
:102F10008260B1CF80916E048061D2CF0E94900B0D
:102F200080916E048068CCCF80916E048C60C8CF95
:102F300080916F04877F9FCF80916E048B7FC0CF7D
:102F400080916E04877FBCCF80916F048E7F93CF7A
:102F500080916F048D7F8FCF80916E048F7EB0CF74
:102F600080916E048F7DACCF0E94900B80916E0497
:102F70008F77A6CF80916E04837FA2CF80916F045C
:102F80008C7F79CF80916F04982F909591708E7F70
:102F9000892B90FB81F96FCF0E94900B90916E046A
:102FA000892F97FB87F980588BCF81E00E94F91118
:102FB000D9CE90916E04892F8F7E94FF806180CF4F
:102FC00081E0E3CECF93DF93EB0186319C4511F591
:102FD0000E9433109A81992399F08A7A91E009F43A
:102FE00090E09093A902811109C089E20E94E30F49
:102FF0000E948F1080E0DF91CF91089585E3F6CF96
:103000008091A902811104C089E20E94EB0FF0CFE8
:1030100085E3FBCF81E0EFCF0F931F93CF93DF9337
:10302000C42FD22FFC0182818823C9F04093AC02C7
:103030000E947F1A9093AB028093AA0280E28C0FC9
:10304000883040F4C77081E001C0880FCA95EAF764
:103050000E940709DF91CF911F910F910895109160
:10306000AC02141332C08091AA029091AB020E946C
:10307000971A883C910548F5C0E2CD0F1D17B9F0AD
:1030800080E2810F883040F4177081E001C0880F22
:103090001A95EAF70E940E09C83048F481E09D2F86
:1030A000977001C0880F9A95EAF70E940709802F50
:1030B0000E94FE08C83070F6D77081E001C0880F0A
:1030C000DA95EAF70E940E09C5CF80E28C0F8830AE
:1030D00008F6C77081E001C0880FCA95EAF7F2CF01
:1030E0000F939C01CB01243F4CE5340759F1A8F420
:1030F000293DFCE53F0701F12A3D4CE53407D1F1BC
:10310000283D3C4591F406E221EE41EE68ED7CE578
:103110000E940C1880E00F910895263FFCE53F07C0
:10312000E9F0B0F0273F3C45F9F0FC0182818823AB
:1031300039F11092AC02EFCF07E225EE45EE69EDD2
:103140007CE5E6CF06E221EE40EE64EF7CE5E0CFE1
:1031500007E225EE44EE65EF7CE5DACF06E221EEEC
:1031600042EE66EF7CE5D4CF07E225EE46EE67EF50
:103170007CE5CECF08E221E045EE6AED7CE5C8CFE4
:1031800081E0C9CF90939501809394010895909325
:10319000B2028093B1020895E091B102F091B202BF
:1031A000309729F00190F081E02D0995089580E095
:1031B0000895E091B102F091B202309799F0209118
:1031C0001A01222359F020916E0427FF07C0DC0169
:1031D0002C9111962C93119726E02C930280F38169
:1031E000E02D099508952091AF023091B002281783
:1031F000390771F09093B0028093AF02E091B10271
:10320000F091B202309721F00680F781E02D099508
:1032100008952091AD023091AE022817390771F060
:103220009093AE028093AD02E091B102F091B202B0
:10323000309721F00084F185E02D09950895FC0177
:10324000329680911A01882321F080916E049EE1CC
:1032500087FF96E080E0915008F4089521912223A1
:10326000D1F38F5FF8CF662301F120911A01222359
:10327000F1F020916E0427FF1AC0462F469546951F
:1032800046954E3190F4677021E030E002C0220F85
:10329000331F6A95E2F7840F911DFC01828190E053
:1032A0002823392381E0232B69F480E00895FC0171
:1032B000329608962191261721F0E817F907D1F7E1
:1032C000F4CF81E008959C01FC0132969FEF80E0ED
:1032D0004191461751F09F3F19F4411101C0982FB9
:1032E0008F5F8630A9F79F3F09F40895290F311D9C
:1032F00097FD3A95F90162830895FC01329608968C
:103300002191261303C0DF0111971C92E817F907DA
:10331000B9F70895E62FE695E695E695EE3168F45F
:10332000E80FF92FF11D677021E030E001C0220F96
:103330006A95EAF78281822B82830895E62FE695CB
:10334000E695E695EE3170F4E80FF92FF11D677000
:1033500021E030E001C0220F6A95EAF720958281D2
:1033600028232283089520911A01222339F02091E5
:103370006E0427FF03C00E948A1908950E946319F2
:10338000089520911A01222339F020916E0427FF1D
:1033900003C00E949E1908950E947D190895FC01A2
:1033A000329680911A01882351F080916E0487FF34
:1033B00006C08EE1DF011D928A95E9F7089586E047
:1033C000F9CF08950E94E1190895811106C081E0A6
:1033D0008093B3020E94E219089582E0F9CF83E05E
:1033E0008093B3020E94E21908950E94E51908959E
:1033F00081E08093B3020E94E21908950E94F819B7
:10340000089508950895CF930E94011A0E94C5154A
:103410000E94021AC0E08C2F0E94EE14892B31F416
:10342000CF5FC630C1F780E0CF91089581E0FCCF37
:1034300085B7806885BF85B7806885BF08951F926E
:103440001FB61F9211248F939F93AF93BF938091C8
:10345000B402811113C08091880490918904A091D5
:103460008A04B0918B044196A11DB11D80938804FC
:1034700090938904A0938A04B0938B04BF91AF9179
:103480009F918F911F901FBE1F901895809190045F
:10349000843031F10E9485071092B40288E190E0F7
:1034A00020E40FB6F894A895809360000FBE209397
:1034B000600083B7817F846083BF83B7816083BFEF
:1034C0007894889583B78E7F83BF0FB6F894A895BC
:1034D00080916000886180936000109260000FBE50
:1034E00008950E94900B0E948A07089582E084BD8F
:1034F00093E095BD9AEF97BD80936E0008952FB726
:10350000F8948091880490918904A0918A04B091E4
:103510008B042FBF08952FB7F894609188047091A1
:10352000890480918A0490918B042FBF08959C0197
:103530004FB7F8948091880490918904A0918A04EF
:10354000B0918B044FBF821B930B089578941F9208
:103550001FB61F9211248F939F93AF93BF938091B7
:10356000880490918904A0918A04B0918B040196FB
:10357000A11DB11D8093880490938904A0938A04AF
:10358000B0938B04BF91AF919F918F911F901FBEFD
:103590001F90189581E08093E00080E28093D8002E
:1035A0001092C9008FE19EE40197F1F700C000007E
:1035B00087E090EBDC018093990490939A04A093A8
:1035C0009B04B0939C0488E19CE00FB6F894A89506
:1035D000809360000FBE90936000FFCF88E19CE075
:1035E0000FB6F894A895809360000FBE909360008A
:1035F000FFCF8091D80208950895CF93DF93EC0117
:1036000080911A018823B1F180916E0487FF32C046
:1036100060E282E08093E9008FEF9091E8008150B2
:1036200095FD06C095ED9A95F1F700008111F5CF53
:103630008091E80085FF1BC080911A0170E050E086
:1036400040E0811104C050E040E068E070E0CE014D
:103650000E94221D8091E8008E778093E80080E22E
:10366000FE01A8EBB2E001900D928A95E1F7DF919F
:10367000CF91089568E081E0CDCF8093B50270933B
:10368000B7026093B60280919004843001F582E025
:103690008093E9008FEF9091E800815095FD06C07E
:1036A00095ED9A95F1F700008111F5CF8091E80032
:1036B00085FF0DC050E040E063E070E085EB92E0F4
:1036C0000E94221D8091E8008E778093E800089583
:1036D000BC0184E00E943D1B0895BC0183E00E9470
:1036E0003D1B0895089580918F04811109C00E94A7
:1036F000B21E0E940F1F8091E20084608093E2005E
:10370000089510928F0408950E94F8190895609109
:103710008C0481E0611101C080E00E94EF190895DE
:103720009091900481E0943009F080E060918C04E5
:103730000E94F519089542E061EC81E00E942E1E7E
:1037400042E261EC82E00E942E1E9091900481E0A2
:10375000943009F080E060918C040E94E51908958E
:1037600080919204833009F461C030F48130D1F14A
:10377000823009F49EC008958A3009F48AC08B30E3
:1037800009F46FC0893009F050C0809191048132F2
:1037900009F04BC08091950490919604029708F02F
:1037A00044C08091E800877F8093E8008091E80022
:1037B00082FF37C09091F3008091F200029731F4BC
:1037C0008091F100813011F0863021F48091F10078
:1037D0008093D8028091E8008B778093E8000E9464
:1037E000621E23C080919104813AF9F48091E8002F
:1037F000877F8093E8008091950490919604892BAF
:1038000061F460E288EB92E070E00E94711D8091AB
:10381000E8008B778093E800089560E090E080E016
:10382000F3CF809190048111C1CF089580919104CC
:10383000813AD9F78091950490919604892BA9F744
:103840008091E800877F8093E8008091E80080FF06
:10385000FCCF80911A018093F1008091E8008E776F
:10386000BCCF80919104813201F7809195049091B1
:103870009604892BD1F68091E800877F8093E80039
:103880000E94621E8091930480931A010E94900B03
:10389000089580919104813241F68091E800877FFC
:1038A0008093E8000E94621E809194048093D90264
:1038B000089580919104813A09F0B7CF8091E80092
:1038C000877F8093E8008091E80080FFFCCF8091A3
:1038D000D902C1CF84B7877F84BF0FB6F894A8956B
:1038E00080916000886180936000109260000FBE3C
:1038F00080E890E00FB6F8948093610090936100A7
:103900000FBE0E94FE1908950E94B21E0E940F1F52
:10391000E2EEF0E080818460808378940E948E21C2
:1039200008958EE091E00E94C71808958091900458
:10393000853031F480919004853019F00E94711A1D
:1039400008950E94461A80918E04882399F30E945C
:10395000031A882379F30E940C1D0E94900BEACF72
:1039600008950E94B41C0895292F33272330310570
:1039700019F168F42130310509F444C022303105D1
:1039800009F445C090E080E030E020E025C021321D
:10399000310549F122323105A9F780E490E022E9AE
:1039A00034E061157105C1F08DE690E025E234E068
:1039B0006130710589F0E6CF99278130910581F05A
:1039C000009729F00297F1F6ECEAF3E002C0E4ED8B
:1039D000F3E0849190E09F01FA0131832083089500
:1039E000ECEBF3E0F6CF89E090E02AEE33E06115EE
:1039F000710591F389E090E023E034E061307105D6
:103A000059F3C0CF82E190E023E134E0E5CF8BE3CE
:103A100090E028ED33E0E0CF80E189BD82E189BD0F
:103A200009B400FEFDCF8091D8008F7D8093D8002F
:103A30008091E00082608093E0008091E00081FD51
:103A4000FCCF0895AF92BF92CF92DF92FF920F9377
:103A50001F93CF93DF936C01EB018A010E94811EBB
:103A6000F82E811123C00115110539F0F80180816C
:103A70009181C81BD90BC80ED91EB12CA12C20973F
:103A8000A9F08091E80085FD22C08091E8008E7742
:103A90008093E80001151105A1F0F8018081918162
:103AA000A80EB91EB182A08285E0F82E8F2DDF917D
:103AB000CF911F910F91FF90DF90CF90BF90AF906B
:103AC00008950E94811E8823D1F2F82EEFCFF601CF
:103AD00081916F018093F1002197FFEFAF1ABF0A28
:103AE000CECFFC0180919704909198048617970798
:103AF000A0F06115710529F49091E8009E779093EC
:103B0000E80090E06115710551F4911108C08091B1
:103B1000E80082FF34C080E00895BC01F2CF8091BC
:103B200090048823C1F18530C1F18091E80083FDC4
:103B300030C08091E80082FDEACF8091E80080FFEC
:103B4000E1CF8091F3002091F200382F61157105CB
:103B500019F02830310558F091E02830310509F08E
:103B600090E02091E8002E772093E800CBCF819160
:103B70008093F100615071092F5F3F4FE7CF809133
:103B80009004882341F0853041F08091E80083FF64
:103B9000BECF81E0089582E0089583E00895FC019E
:103BA000809197049091980486179707A0F061156B
:103BB000710529F48091E8008E778093E80090E009
:103BC0006115710551F4911108C08091E80082FFE0
:103BD00035C080E00895BC01F2CF80919004882325
:103BE000C9F18530C9F18091E80083FD31C0809131
:103BF000E80082FDEACF8091E80080FFE1CF80916C
:103C0000F3002091F200382F6115710519F028306A
:103C1000310558F091E02830310509F090E08091AD
:103C2000E8008E778093E800CBCF84918093F100F9
:103C30003196615071092F5F3F4FE6CF809190041C
:103C4000882341F0853041F08091E80083FFBDCFAB
:103C500081E0089582E0089583E00895982F9730D9
:103C600028F08F708093E90081E008959093E90037
:103C7000242F762F50E0981731F07091EC002091AE
:103C8000ED005091F00021FD02C09F5FE8CF309120
:103C9000EB003E7F3093EB003091ED003D7F3093A1
:103CA000ED003091EB0031603093EB007093EC004D
:103CB0002093ED005093F0002091EE0027FDE5CF1A
:103CC00080E008958091910487FF13C08091E800FF
:103CD00082FF06C08091E8008B778093E80004C0E3
:103CE000809190048111F2CF0895809190048823EF
:103CF000D9F38091E80080FFF8CF8091E8008E77BB
:103D0000ECCF2091E4003091E50095E6A9012091E7
:103D1000EC00822F817020FF06C08091E80080FFB8
:103D200006C080E008952091E80022FD1AC080912D
:103D30009004882389F0853089F08091EB0085FD1F
:103D40000FC02091E4003091E50042175307F9F2CB
:103D50009150E1F684E0089582E0089583E00895AB
:103D600081E008950E94211F0E94291FE0EEF0E0EB
:103D7000808181608083E8EDF0E080818F778083AF
:103D800019BCA7EDB0E08C918E7F8C9380818F7EE3
:103D9000808310928F0408950F931F93CF93DF9326
:103DA0000E94211F0E94291FC8EDD0E088818F77D3
:103DB000888388818068888388818F7D888319BC07
:103DC0001092900410928C0410928E0410928D0424
:103DD00000EE10E0F80180818B7F80838881816014
:103DE000888342E060E080E00E942E1EE1EEF0E079
:103DF00080818E7F8083E2EEF0E08081816080832D
:103E0000808188608083F80180818E7F80838881B3
:103E100080618883DF91CF911F910F910895E8ED24
:103E2000F0E080818F7E8083E7EDF0E0808181602B
:103E3000808384E082BF81E080938F040E94CC1E47
:103E40000895E8EDF0E080818E7F80831092E2009B
:103E500008951092DA001092E10008951F920F92D7
:103E60000FB60F9211242F933F934F935F936F934D
:103E70007F938F939F93AF93BF93EF93FF93809123
:103E8000E10082FF0BC08091E20082FF07C08091B9
:103E9000E1008B7F8093E1000E948D218091DA0008
:103EA00080FF19C08091D80080FF15C08091DA0092
:103EB0008E7F8093DA008091D90080FF96C080E1E8
:103EC00089BD82E189BD09B400FEFDCF81E0809308
:103ED00090040E94731B8091E10080FF19C08091C3
:103EE000E20080FF15C08091E2008E7F8093E200A7
:103EF0008091E20080618093E2008091D80080622E
:103F00008093D80019BC85E0809390040E94871BA1
:103F10008091E10084FF2BC08091E20084FF27C0E4
:103F200080E189BD82E189BD89B5982F917080FFBC
:103F3000FBCF8091D8008F7D8093D8008091E100E5
:103F40008F7E8093E1008091E2008F7E8093E2007B
:103F50008091E20081608093E20080918C0488234C
:103F600009F449C084E0809390040E94901B8091E2
:103F7000E10083FF29C08091E20083FF25C080918A
:103F8000E100877F8093E10082E0809390041092AB
:103F90008C048091E1008E7F8093E1008091E200AB
:103FA0008E7F8093E2008091E20080618093E20046
:103FB00042E060E080E00E942E1E8091F000886068
:103FC0008093F0000E94841BFF91EF91BF91AF910D
:103FD0009F918F917F916F915F914F913F912F9121
:103FE0000F900FBE0F901F90189519BC109290045F
:103FF0000E94811B70CF8091E30087FD93E0909336
:104000009004B3CF1F920F920FB60F9211242F93EB
:104010003F934F935F936F937F938F939F93AF9350
:10402000BF93CF93DF93EF93FF93D091E900DF70BD
:104030008091EC00C82FC17080FDC0E81092E900AB
:104040008091F000877F8093F00078940E94462052
:104050001092E9008091F00088608093F000CD2BF1
:10406000CF70C093E900FF91EF91DF91CF91BF91A5
:10407000AF919F918F917F916F915F914F913F9100
:104080002F910F900FBE0F901F901895AAE2B0E0ED
:10409000ECE4F0E20C94082281E994E02091F10034
:1040A000FC012193CF01F4E089399F07B9F70E9401
:1040B000B01B8091E80083FF1EC180919104909114
:1040C00092049A3008F017C1E92FF0E0ED5BFC4D47
:1040D0000C94F321803899F0823809F00CC180915A
:1040E00095048F70873008F006C18093E9008091B5
:1040F000EB0085FB882780F91092E90006C08091CB
:104100008D0490918E04911182609091E800977FC8
:104110009093E8008093F1001092F1008091E80004
:104120008E77E5C0882309F4D3C0823009F0E3C05C
:10413000809193048111D6C0809195048F702FEFE8
:10414000280F263008F0D7C08093E9002091EB00BB
:1041500020FFC8C0933031F48091EB0080628093DF
:10416000EB00C0C09091EB0090619093EB0021E0D8
:1041700030E001C0220F8A95EAF72093EA001092FE
:10418000EA008091EB008860EACF8111B4C0109101
:1041900093041F778091E3008078812B8093E30064
:1041A0008091E800877F8093E8000E94621E8091E2
:1041B000E80080FFFCCF8091E30080688093E300FB
:1041C00082E0111183E08093900495C08058823082
:1041D00008F091C080919304909194048C3D23E069
:1041E0009207A1F583E08A838AE289834FB7F89426
:1041F000DE01139620E03EE051E2E32FF0E0509321
:104200005700E49120FF03C0E295EF703F5FEF702D
:104210008E2F90E0EA30C0F0C7968D939D932F5F6C
:10422000243159F74FBF8091E800877F8093E800E1
:104230006AE270E0CE0101960E94711D8091E80053
:104240008B778093E80057C0C096E7CF60919504C4
:1042500070919604AE014F5F5F4F0E94B11CBC018C
:10426000892B09F448C09091E800977F9093E8006B
:1042700089819A810E94CF1DE1CF8038E1F580913C
:10428000E800877F8093E80080918C048093F100A0
:1042900045CF811130C090919304923060F58091A8
:1042A000E800877F8093E80090938C040E94621E50
:1042B00080918C04882311F084E005C08091E30094
:1042C00087FDFACF81E0809390040E949B1B13C06E
:1042D00080919304813079F481E0933009F080E09B
:1042E00080938E041092E9008091E800877F80938C
:1042F000E8000E94621E8091E80083FF0AC080915E
:10430000E800877F8093E8008091EB0080628093D3
:10431000EB00AA96E3E00C9424220895CF938091B9
:1043200090048823A1F0C091E900CF709091EC0037
:10433000892F817090FD80E8C82B1092E900809150
:10434000E80083FD0E944620CF70C093E900CF9122
:104350000895AA1BBB1B51E107C0AA1FBB1FA617CC
:10436000B70710F0A61BB70B881F991F5A95A9F71E
:1043700080959095BC01CD01089597FB072E16F40A
:10438000009407D077FD09D00E94A92107FC05D031
:104390003EF4909581959F4F0895709561957F4F5C
:1043A0000895A1E21A2EAA1BBB1BFD010DC0AA1F76
:1043B000BB1FEE1FFF1FA217B307E407F50720F08E
:1043C000A21BB30BE40BF50B661F771F881F991F09
:1043D0001A9469F760957095809590959B01AC0152
:1043E000BD01CF010895EE0FFF1F0590F491E02D60
:1043F00009942F923F924F925F926F927F928F9289
:104400009F92AF92BF92CF92DF92EF92FF920F9363
:104410001F93CF93DF93CDB7DEB7CA1BDB0B0FB66D
:10442000F894DEBF0FBECDBF09942A88398848882A
:104430005F846E847D848C849B84AA84B984C884C0
:10444000DF80EE80FD800C811B81AA81B981CE0FB7
:10445000D11D0FB6F894DEBF0FBECDBFED0108959C
:104460008F929F92AF92BF92CF92DF92EF92FF9284
:10447000CF93DF93EC01688179818A819B816115FB
:1044800071058105910521F464E279ED8BE597E0F2
:104490002DE133EF41E050E00E94F42249015A013E
:1044A0009B01AC01A7EAB1E40E9413236B017C01DC
:1044B000ACEEB4EFA50194010E942123DC01CB01F5
:1044C0008C0D9D1DAE1DBF1DB7FF03C00197A10937
:1044D000B04888839983AA83BB839F77DF91CF916C
:1044E000FF90EF90DF90CF90BF90AF909F908F9014
:1044F00008950E943022089580E091E00E943022C9
:104500000895B0E0A0E08093000190930101A09392
:104510000201B09303010895FB01DC0104C08D91F9
:104520000190801921F441505040C8F7881B990B25
:104530000895FB01DC0102C001900D9241505040F2
:10454000D8F70895DC01CB01FC01F999FECF06C034
:10455000F2BDE1BDF89A319600B40D924150504041
:10456000B8F70895F999FECF92BD81BDF89A9927C1
:1045700080B50895A8E1B0E042E050E00C94A42298
:10458000DC01A40FB51F4150504048F0CB01840F0F
:10459000951F2E910E94D12241505040D0F708958E
:1045A000262FF999FECF92BD81BDF89A019700B4EC
:1045B000021639F01FBA20BD0FB6F894FA9AF99A8C
:1045C0000FBE08950396272F0E94D1220E94D02269
:1045D000252F0E94D122242F0C94D1220196272F1F
:1045E0000E94D1220C94D022052E97FB1EF4009439
:1045F0000E940B2357FD07D00E94D12107FC03D056
:104600004EF40C940B2350954095309521953F4FD7
:104610004F4F5F4F089590958095709561957F4FAE
:104620008F4F9F4F08950E942623A59F900DB49F02
:10463000900DA49F800D911D11240895B7FF0C9437
:1046400013230E941323821B930B0895A29FB00192
:10465000B39FC001A39F700D811D1124911DB29FB6
:10466000700D811D1124911D0895F894FFCF5009FC
:104670005009810981092C0AB009B009B009480A1A
:10468000B90AC80AC80A6A2092207B2192207B219D
:0A469000C520E6207B213D214921D1
:10469A0001000000FF0000FF010000FF6D02F91A8F
:1046AA00FD1A721B6D1B681BFC1A01E200E900EA85
:1046BA0000B500B600B700CD008301CC008A019294
:1046CA000194012102230224022502260227022A3A
:1046DA0002B300B4006F007000818283E200E90037
:1046EA00EA00B500B600B700CD008301CC008A010C
:1046FA0092019401210223022402250226022702A2
:10470A002A02B300B4006F007000818283F59531EC
:10471A0032339392676636353497963794F1F0C6FA
:04472A00F4F6F700AA
:00000001FF
