:100000000C943C030C9474030C9474030C947403CC
:100010000C9474030C9474030C9474030C94740384
:100020000C9474030C9474030C940C250C94E0252C
:100030000C941F200C9474030C9474030C9474039C
:100040000C9474030C9474030C9474030C94740354
:100050000C9474030C94A6200C9474030C947403F5
:100060000C9474030C9474030C9474030C94740334
:100070000C9474030C9474030C9474030C94740324
:100080000C94A8050C9474030C9474030C947403DE
:100090000C9474030C9474030C9474030C94740304
:1000A0000C9474030C9474030C9474030102E236F0
:1000B0000103E275000102E2600103E27500010242
:1000C000E2630103E263000102E2600103E2610016
:1000D0000102E2360103E261000102E2360103E2BD
:1000E00065000102E2600103E265000102E26501D0
:1000F00003E265003C2D003D3E002D3E00E900007E
:1001000000C9000000E8000000C8000000EA00008C
:1001100000CA000000EB000000CB000000E200007D
:1001200000C2000000E0000000C0000000E7000086
:1001300000C7000000EE000000CE000000AC200070
:10014000003F0E0000A9000000AE000000C903003F
:1001500000A9030000F4000000D4000000F9000032
:1001600000D90000005301000052010000C003004C
:1001700000B0000000F1000000D1000000B5000058
:1001800000C30300006422000065220000AB0000F1
:1001900000BB00000060220000482200001E220078
:1001A0000029003A003B003C003D003E003F00407B
:1001B00000410042004300440045000000AE000042
:1001C0000035001E001F0020002100220023002413
:1001D000002500260027002D002E002A002A004CB2
:1001E000002B0014001A000800150017001C00184E
:1001F000000C00120013002F003000310000004BF3
:1002000000292104001600070009240A000B000D34
:10021000240E000F0033003400282F000000004E91
:1002200000E50000001D001B00060019000500117C
:10023000001000360037003800E5005200000000D2
:1002400000000FE200E3000000000000002C42006C
:100250000000000000E6004B7E5000510000004FFF
:100260000001000100010001000100010001000186
:100270000001000100010001000100000001000078
:100280000001000100010001000100010001000166
:100290000001000100010001000100010001000156
:1002A0000001000100010001000100010001000146
:1002B0000001000100010001000100010000000137
:1002C00000E0000100010001000100010001000147
:1002D0000001000100010001000100000000000118
:1002E0000001000000010001000100010001000107
:1002F00000010001000100010001000100000000F8
:1003000000E3008252E2000000000000002C000028
:100310000000000000E7004C7E0100010000000129
:1003200000010001000100010001000100010001C5
:1003300000010001000100010001000000010000B7
:1003400000010001000100010001000100010001A5
:100350000001000100010001000100010001000096
:100360007C01000100010001000100010001000109
:100370000001000100010001000100010000000176
:10038000000100010001002A00010001005000519D
:100390000052004F000100010001000000000001B8
:1003A0000001000000010001000100010001000146
:1003B000000100417E407E427E01000100000000FD
:1003C0000001000100010000000000000001000029
:1003D000000000000001000100AC0001000000ABC3
:1003E0000001000100010001000100010001000105
:1003F00000010001000100010001000000010000F7
:1004000000010001000100010001000100010001E4
:1004100000010001000100010001000100010001D4
:10042000000100010001000080028004800100182A
:10043000800E801680010001000100010000000113
:100440000001000A8001000100010001000100011B
:100450000001000100010001000100000000000196
:100460000001000000010001000C800100010001FA
:100470000001000100010001000100010000000076
:100480000001000100010000000000000001000068
:100490000000000000010001000100010000000157
:1004A0000000000000000000002A2B2800000000CF
:1004B0000000000000000000000000002900000013
:1004C000002C1E3420212224342627252E362D37B9
:1004D00038271E1F202122232425263333362E378A
:1004E000381F0405060708090A0B0C0D0E0F101122
:1004F00012131415161718191A1B1C1D2F3130232F
:100500002D350405060708090A0B0C0D0E0F1011F6
:1005100012131415161718191A1B1C1D2F313035FC
:100520004C0000000000000000000000000000007F
:1005300000000000000000000000000000000000BB
:1005400000000000007E0F00D4FFFFFFC700000086
:10055000780E0357005400370035002D004300008B
:10056000001603770069006C00620061002E0074C1
:100570000065006300680000000403090409023BF1
:1005800000020100A0FA09040000010301010009B2
:100590002111010001224000070581030800010923
:1005A0000401000103000000092111010001226D76
:1005B000000705820320000112010002000000086C
:1005C00082655C0701000102000105010980A101AB
:1005D000850319012AB700150126B700950175108A
:1005E0008100C0050C0901A101850419012AA0029E
:1005F000150126A002950175108100C005010906AC
:10060000A1018506050719E029E7150025019508D0
:10061000750181020507190029EF1500250195F0E4
:1006200075018102050819012905950575019102D9
:10063000950175039101C005010906A1010507197E
:10064000E029E715002501950875018102950175DE
:100650000881010507190029FF150026FF009506EE
:100660007508810005081901290595057501910294
:10067000950175039101C00011241FBECFEFDAE090
:10068000DEBFCDBF04B603FE18C08091EB0490918D
:10069000EC04A091ED04B091EE048730904BA7409C
:1006A000B04B59F41092EB041092EC041092ED044C
:1006B0001092EE04E0E0F8E3099511E0A0E0B1E06B
:1006C000ECEFF4E502C005900D92AA3DB107D9F711
:1006D00024E0AAEDB1E001C01D92AB3EB207E1F704
:1006E0000E940D190C94352A0C940000E2EAF4E003
:1006F0006083418324E630E042E050E0BF01880F90
:100700000E9417050895EF92FF921F93CF93DF93F6
:100710007B01182F110FD0E0C0E0C093A204D701D5
:10072000AC0FBD1FE3EAF4E08D91819384E0E33BDD
:10073000F807D1F724E630E041E150E062EA74E0E6
:10074000812F0E9417056096C03CD10531F7DF91DB
:10075000CF911F91FF90EF900895CF93DF93C82F13
:1007600045EC6EEF0E94760340E06DEF8C2F0E9407
:100770007603D0E040E06D2F8C2F0E947603DF5F80
:10078000D831C1F745EC6EEF8C2F0E94760341E023
:100790006DEF8C2F0E947603D0E040E06D2F8C2F00
:1007A0000E947603DF5FD03CC1F745EC6EEF8C2FE3
:1007B0000E94760343E06DEF8C2F0E94760340E0A9
:1007C0006FE08C2F0E94760340E060E18C2F0E9446
:1007D00076034FEF61E08C2F0E94760341E060E0EA
:1007E0008C2F0E9476038FE39CE90197F1F700C0FC
:1007F0000000DF91CF9108958036910548F4880F6D
:10080000E82FF0E0EE5DFC4F608381E080930D0205
:1008100008951F93CF93DF93182FD0E0C0E0612F8E
:10082000CE010E94FC032196C036D105C1F7DF91AD
:10083000CF911F910895880FE82FE695E695E695EC
:10084000F0E0E352FE4F2081382F377081E090E0D6
:1008500001C0880F3A95EAF7662331F0822B808336
:1008600081E08093DC01089580958223F8CFCF93B7
:10087000C82F80910D02882379F045EC6EEF8C2F04
:100880000E94760341E06DEF8C2F0E94760362E2B6
:1008900073E08C2F0E94830310920D02CF91089574
:1008A0000F931F93CF93DF93D82F8091DC01882380
:1008B000C9F045EC6EEF8D2F0E94760340E06DEF9E
:1008C0008D2F0E9476030DED11E0C0E0F8014191FB
:1008D0008F016C2F8D2F0E947603CF5FC831B1F747
:1008E0001092DC01DF91CF911F910F91089510922A
:1008F000B9008CE08093B8000895B0E0A0E0E3E890
:10090000F4E00C94DE27B82EEB010E947F206C01EE
:10091000EE24E394F12CC431D10560F025E0E22E01
:10092000F12CCF3FDC0731F0CE0164E170E00E9492
:1009300087277B0184EAA82E94E8992E1092BC00A8
:10094000A092BC000E947F208C018091BC0087FF98
:100950000DC08091B900887F8830F9F08091B9008E
:10096000887F8031D1F00FEF1FEF08C0C8010E94CF
:100970009720E816F90648F70EEF1FEFCF3FDC0788
:10098000E9F2C6010E949720C817D907B8F6C80136
:10099000CDB7DEB7EBE00C94FA27B092BB00909293
:1009A000BC000E947F208C018091BC0087FF0AC0A0
:1009B0008091B900887F883111F08034A1F610E071
:1009C00000E0E5CFC8010E949720E816F90660F71D
:1009D000D3CF0F931F93CF93DF93EB018093BB0093
:1009E00084E88093BC000E947F208C018091BC0031
:1009F00087FF11C02091B900287F81E090E0283264
:100A000011F490E080E0919581959109DF91CF916B
:100A10001F910F910895CF3FDC0741F3C8010E9459
:100A20009720C817D90710F78EEF9FEFEFCFB0E0F0
:100A3000A0E0EDE1F5E00C94E1276B018A0179017A
:100A4000B9010E947D04E6010C0D1D1DC017D107E0
:100A500011F097FF08C024E92093BC00CDB7DEB7A2
:100A6000E8E00C94FD27B70189910E94E904EECFDC
:100A7000CF930E94770480E50E94AD03C0E061E05F
:100A80008C2F0E941B04CF5FC036C9F760E080E561
:100A90000E945004CF91089580910F0281110EC0E1
:100AA00081E080930F028DE0809391009FB7F894CE
:100AB00023E020939900809398009FBF0895E1E779
:100AC000F0E0808182608083089580931802089509
:100AD00080E00E940904089580910D010E9409049C
:100AE0000895FF920F931F93CF93DF93F82E0E94E8
:100AF000852960E670E00E949B27D0E0C0E08C0171
:100B00001127F11003C00C171D0731F40E9485292D
:100B1000682FCE010E94FC032196C036D10589F7CB
:100B2000CDB7DEB7E5E00C9400280E94B81E81FF27
:100B300005C06FEF80E190E00E94FC030E94B81EA8
:100B400082FF05C06FEF87E390E00E94FC030895E9
:100B50001F920F920FB60F9211240F931F932F9392
:100B60003F934F935F936F937F938F939F93AF9335
:100B7000BF93CF93EF93FF9380910E028431B8F42B
:100B80008F5F80930E02FF91EF91CF91BF91AF9154
:100B90009F918F917F916F915F914F913F912F9195
:100BA0001F910F910F900FBE0F901F90189580917D
:100BB000140290911502A0911602B09117020196AD
:100BC000A11DB11D8093140290931502A0931602EB
:100BD000B09317028091100290911102A09112021D
:100BE000B09113028F3F2FEF9207A207B20759F07F
:100BF0000196A11DB11D8093100290931102A09344
:100C00001202B093130280911802882321F0809180
:100C10000B0180FD1FC080910C018823C9F020EBDF
:100C200034E0829FA001839F500D1124052E000CFB
:100C3000660B770B81E00091100210911102209158
:100C4000120230911302401751076207730718F020
:100C500080E001C081E0C82FC17080FD13C0809189
:100C60000E0190910A0180930A01813069F0882376
:100C700011F0823061F00E946805C11184CF0E949A
:100C8000950581CF80E0EDCF0E946C05F6CF81E025
:100C9000923009F480E00E947105EFCF47E050E008
:100CA00066E270E08BE091E00E94A229089547E09F
:100CB00050E066E270E08BE091E00E94C029089568
:100CC00060E080E50E943704089580910E0190E075
:100CD00001968430910514F083E090E080930E013A
:100CE0000E945706089580910E018150990B97FF3D
:100CF00002C090E080E08430910514F083E090E041
:100D000080930E010E945706089580910F0190E094
:100D100001968430910514F083E090E080930F01F8
:100D20000E945706089580910F018150990B97FFFB
:100D300002C090E080E08430910514F083E090E000
:100D400080930F010E945706089580910D0190E055
:100D500008968F3F910519F014F08FEF90E0809383
:100D60000D010E945706089580910D018850990B3E
:100D700097FD80E080930D010E9457060895FB01C6
:100D80002281222341F0109210021092110210923F
:100D900012021092130282302EE7920729F148F4D2
:100DA00081152EE7920799F081309E47B9F081E0D6
:100DB000089584302EE7920719F1E0F085309E47C0
:100DC000B1F78281882349F00E94930605C0828191
:100DD000882319F00E94A50680E008958281882367
:100DE000E1F30E94B406F8CF82818823B1F30E9418
:100DF0006506F2CF8281882381F30E947306ECCFCF
:100E00008281882351F30E948506E6CF0E943D131C
:100E1000882349F00E944E060E9438050E944C0526
:100E20000E945F0508950E945706F6CF0E94600653
:100E30000E94071708950F931F93CF93DF93EC0140
:100E40008B010E94BF06B801CE010E945907DF91B5
:100E5000CF911F910F91089581E00E94650508953B
:100E600080E00E9465050895CF93C82F6FEF811130
:100E700062E282E290E00E94D0296FEFC11164E04B
:100E800083E290E00E94D0296FEFC11160E384E219
:100E900090E00E94D029CF9108950E94060781E03A
:100EA0000E9434070E940617089580E00E94D81916
:100EB0000895FB0185342EE7920709F4A2C0E8F4F7
:100EC00081342EE7920709F48DC048F4813E9105E4
:100ED000E1F180349E4709F474C081E008952281D5
:100EE00083343EE7930709F485C008F474C060E0DA
:100EF00082EE90E0222389F36BC089342EE79207BB
:100F000009F49DC070F4228187343EE7930709F409
:100F100087C008F47EC060E085EB90E02223E9F210
:100F200057C08B342EE79207F1F108F480C08C345F
:100F30009E4799F68281882381F280E00E94D81929
:100F400081E00E94290E80E039C08281882351F01F
:100F500082E00E94220B0E947F2090931A028093CD
:100F60001902BBCF8091190290911A020E9497201A
:100F70008536910520F082E00E94290BAECF81EEEC
:100F80000E94270A81EE0E94B00A82E00E94290B8B
:100F900083E00E94190E63E083E00E94D51281E095
:100FA0000E94F3129ACF8281882309F496CF84E0BD
:100FB0000E94D81980E00E94290E81E00E94190E3B
:100FC0008CCF8281882309F488CF60E08AEF90E09B
:100FD0000E94601C82CF60E087EF90E0222309F43A
:100FE0007CCFF6CF8281882309F477CF60E084EF4D
:100FF00090E0EECF60E08BEE90E0222309F46DCF1D
:10100000E7CF8281882309F468CF60E089ED90E022
:10101000DFCF60E080ED90E0222309F45ECFD8CFEF
:1010200060E087EC90E0222309F457CFD1CF828192
:10103000882309F452CF60E08EEB90E0C9CF828123
:10104000882309F44ACF60E08CEA90E0C1CF843075
:10105000C8F46630B8F44031A8F4E62FF0E096E02A
:10106000899FE00DF11D112484E0EE0FFF1F8A958A
:10107000E1F7E40FF11DEE0FFF1FEF55FE4F8591D5
:101080009491089581E090E008950E9427080895C2
:101090009C013A9521153F4150F5FC01EE27F17076
:1010A000BC0166277270AC01442754709C01222752
:1010B000387094FF0EC080E1EF2B09F480E0672BBD
:1010C00009F08062452B09F08064232B89F0806849
:1010D000089581E0EF2B09F480E0672B09F082602E
:1010E000452B09F08460232B19F08860089580E077
:1010F0000895CF93DF93EB010E944808FE01099504
:10110000DF91CF910895CF93DF93EC01805E910939
:10111000089720F06AE67DE0209711F462E27BE018
:10112000CE010E9479088C2F0E94270ADF91CF916F
:101130000895CF93DF93EC010E94B00ACE01805E48
:101140009109089720F061E77DE0209711F469E2AA
:101150007BE0CE010E947908DF91CF9108950F9333
:101160001F93CF93DF938C01EB010E94830820979C
:1011700041F4C8010E949908DF91CF911F910F910E
:1011800008958FE99FE00197F1F700C000002197D3
:10119000EECF70E060E08933910511F460E570E016
:1011A0000E94AF08089581E0089508950E94D5082F
:1011B0000895A5E0B0E0EFEDF8E00C94E627498350
:1011C0005A833091200289819A81311119C0662396
:1011D00099F0222389F00E94DE0E182F682F898152
:1011E0009A810E94BB0E69817A81812F0E94D3155A
:1011F0002596E3E00C9402280E94CC0E182FF3CF22
:101200000E94DE0E69817A81F1CFFC01262F408198
:1012100051816281738184810E94D908089581E09F
:101220000895CF93DF93EC0160E00E940509BE01B1
:101230000E94D608DF91CF91089508950E948A0DEB
:101240000E941D092FEF84E39CE0215080409040D4
:10125000E1F700C0000008950E941E090E94CA2004
:1012600008950E941E090E94EE2008950F931F9377
:10127000CF93DF938C0161E00E940509EC01B80176
:101280000E94001E882329F061E0C8010E94050920
:10129000EC01B801CE010E941B07811106C080E05D
:1012A000DF91CF911F910F910895B801CE010E9457
:1012B000261E8823A1F3B801CE010E945D19882360
:1012C00071F3B801CE010E94561D882341F3B80185
:1012D000CE010E941C1B882311F3B801CE010E948D
:1012E000C81C8823E1F2F8018281882361F0C330B1
:1012F000FCE7DF07E9F058F4C115ECE7DE07A9F0D9
:10130000C130DC47B9F0C8010E94D308C9CFCB3542
:101310008CE7D807A9F0CC35ECE7DE0771F0CA35C9
:10132000DC4789F70E942E13EECF0E942C09B7CF1D
:101330000E9436130E943109B2CF0E942413E3CFDA
:101340000E943213E0CF0E942C070E94CA09089520
:101350000E94CE090E9430070895089581E0089503
:101360000895CF93DF93D82F0E94AE09C82F88230A
:1013700019F08D2F0E94B0098C2FDF91CF91089525
:101380000895CF93C82F0E94AD098C2F0E94B109F8
:10139000CF91089580E00E94C10908950E94AB1E7C
:1013A0000E94C1090895CF930E94AB1EC82F80915F
:1013B0001B028C1779F0C0931B020E948B20609354
:1013C0001C0270931D0280931E0290931F028C2FAB
:1013D0000E94C109CF910895ABE0B0E0E2EFF9E0DF
:1013E0000C94E7274F83588769877A878B87611129
:1013F0000E946F121E821D8285E0FE013796DE017B
:10140000119601900D928A95E1F78C819D81892B2F
:1014100061F449815A816B817C818D819E810E941A
:1014200091112B96E2E00C94032889819A818923FB
:101430008F3F79F3CE0101960E940F098111E9CF08
:10144000F0CFFC01808191810E94100F0895CF930D
:10145000C82F8823C9F08238C9F40E94AB1E81FDD1
:1014600013C089E30E9421120E9490122FEF87EE91
:1014700093E0215080409040E1F700C0000089E3F4
:101480000E9429120E949012CF9108958338A1F4EE
:101490000E94AB1E80FDF8CF83E50E9421120E94BE
:1014A00090122FEF81EE94E0215080409040E1F7C0
:1014B00000C0000083E5E4CF8438A1F40E94AB1E95
:1014C00082FDE2CF87E40E9421120E9490122FEF4A
:1014D00081EE94E0215080409040E1F700C0000090
:1014E00087E4CECF8CEF8C0F813A90F46C2F8091F3
:1014F0004401909145010E94331F882329F08C2FCD
:101500000E9429120E9490128C2F0E942112BACFA1
:1015100080E28C0F883048F4C77081E001C0880FEA
:10152000CA95EAF70E944C12ADCFEBE5EC0FE33021
:1015300040F4F0E0EB57FE4F808190E00E94D51E12
:10154000A3CFC85ACB3108F09FCFEC2FF0E0EE0FBD
:10155000FF1FE15BFE4F808191810E94FA1E94CFB4
:10156000882309F44DC0823879F40E94AB1E81FFB4
:1015700047C089E30E9421120E94901289E30E94D1
:1015800029120E9490120895833859F40E94AB1ECC
:1015900080FF36C083E50E9421120E94901283E5ED
:1015A000EECF843859F40E94AB1E82FF29C087E435
:1015B0000E9421120E94901287E4E1CF9CEF980FC5
:1015C000913AE8F290E2980F983050F4877091E0E9
:1015D00001C0990F8A95EAF7892F0E945212D1CF44
:1015E0009BE5980F933028F490E080E00E94D51E90
:1015F0000895885A8B3120F490E080E00E94FA1E12
:1016000008951F93CF93DF93182FEB010E94270AB1
:10161000209739F4812F0E94B00ADF91CF911F915A
:1016200008958FE99FE00197F1F700C0000021972E
:10163000EFCF70E060E0893311F460E570E00E9464
:10164000010B0895882321F00E944C120E949012F1
:101650000895882321F00E9452120E94901208954A
:10166000B0E0A0E0E6E3FBE00C94E0276C01D62FAD
:10167000C72FFC011281058102950F700E94421252
:10168000E82E8823E9F0E12E1123D1F08C2F807F02
:10169000803451F080E28D0F8830F8F0011104C0E1
:1016A0008C2F807E8032C9F08091B70482FF15C0F4
:1016B00082E00E94F3120E94421291E0E82EE92695
:1016C000BC2EB2949FE0B922FBE0FB15B8F1EB2DE4
:1016D000F0E0E95CF54D0C94D127E12CF1CF0C2F13
:1016E0000F70C07F11F00295007F112399F0002345
:1016F00059F080E28D0F883010F0D11107C0802F93
:101700000E944C120E9490128D2F5CC0802F0E946C
:101710006212F8CF8D2F0E94B00A002379F080E288
:101720008D0F883010F0D11104C0802F0E9452120A
:1017300003C0802F0E9468120E949012EB2DE85087
:10174000FF0B349720F40E94AB1E0E94C109EE20CB
:1017500089F00E943E1280FD0DC0F60112820E94A7
:1017600038120E94190EC6010E94400D0E943812C4
:101770000E94290ECDB7DEB7E9E00C94FC272C2F90
:101780002F70F22EC07FC03219F0F29480EFF82251
:10179000DD2351F0D13009F443C0112309F44BC0CB
:1017A000002309F442C0B0CF8091B70482FD15C078
:1017B000112359F0FF2029F08F2D0E944C120E9416
:1017C000901280E00E94270AB9CF80E00E94B00A00
:1017D000FF2009F4B3CF8F2DA9CF112381F0011180
:1017E00006C00E9472128F290E94220BA7CF0130DF
:1017F000C1F70E9472128F290E9479129FCF0111A6
:1018000006C00E9486128F2D0E94290B97CF0130AF
:1018100009F494CF8F2D0E94290B0E9486128ECF3F
:10182000112329F0063008F089CF8F2DDDCF053048
:1018300008F084CFE8CF002331F3D93349F43FEFE8
:1018400087EE93E0315080409040E1F700C0000007
:101850008D2F0E94B00A72CF8C2F8695869583704B
:1018600069F0813009F06ACF8D2F9C2F9370111190
:1018700002C080E090E00E94FA1E60CF8D2F9C2F66
:101880009370111102C080E090E00E94D51E56CFE7
:101890008C2F8370A1F5111151CF4D2F4295469594
:1018A0004770440F440F2D2F2F7030E0042E02C0DC
:1018B000220F331F0A94E2F790E080E0D4FF09C0C2
:1018C0008FE090E002C0880F991F4A95E2F780955B
:1018D0009095C695C695C370822B932BC23049F064
:1018E00058F4C13019F00E94E90D28CF0E94E00D94
:1018F00025CF0E94F20D22CF0E94DD0D1FCF8695CD
:10190000112311F08C2F8170882309F417CF4D2FEC
:10191000429546954770440F440F2D2F2F7030E0AD
:10192000042E02C0220F331F0A94E2F790E080E0F9
:10193000D4FF09C08FE090E002C0880F991F4A953C
:10194000E2F780959095C695C695C370822B932B30
:10195000C23049F058F4C13019F00E94540EEECE56
:101960000E944B0EEBCE0E945D0EE8CE0E94010E4F
:10197000E5CECF70112329F08C2F0E94190E8D2FE8
:1019800033CF8D2F0E94290B8C2F0E94290ED6CE8B
:10199000D23F41F160F4D03FB9F0D13F81F0112343
:1019A00009F446C00111B0CE8C2F8F711FC0D33FF8
:1019B00001F1D43FA1F78091B70482FD24C08C2FA0
:1019C0008F71112311F312C0112341F0053008F07B
:1019D000B5CE8C2F8F710E943B0EB0CE063008F032
:1019E000ADCEF7CF8C2F8F711111CFCF0E94190E72
:1019F000A5CE112329F08C2F8F710E940D0E9ECE43
:101A00000E94080E9BCE112349F0CF718C2F0E94AB
:101A1000190E63E08C2F0E94D51290CE81E00E94B7
:101A2000F312023008F48ACE82E00E94F31286CECE
:101A3000002359F0D93309F00BCFEFEFF7EE23E095
:101A4000E150F0402040E1F701CF8C2F8F719DCF06
:101A50000F931F93CF93DF93EC01688179818A8183
:101A60000E941B0F8C010E94660E0E94DC0DB801C3
:101A7000CE010E94300BDF91CF911F910F910895FD
:101A8000CF93DF93EC018B819C81892B29F0888196
:101A9000998189238F3F51F4DF91CF910895CE0131
:101AA0000E94280DCE010E941109F6CFCE010E949E
:101AB00036098111F4CF0E944212882369F38A818A
:101AC000882351F38091B70482FFE6CF82E00E9421
:101AD000F312E2CF882321F00E9462120E9490123A
:101AE0000895882321F00E9468120E9490120895A0
:101AF00090E080E00E94D51E90E080E00E94FA1EF7
:101B00000E946F120E94901208950E9431120E944A
:101B1000780D08950E945C120E94850D089592959B
:101B20009F70963091F058F4925F9F70923058F405
:101B3000803F19F030F4883E30F481E008959A5FD8
:101B4000F4CF843FD1F380E00895883EB0F3813F25
:101B5000D1F7F3CFFC0183819481892B29F0808117
:101B6000918189238F3F11F480E0089580819181D4
:101B70000E94100F0E948F0D0895A5E0B0E0E3ECE5
:101B8000FDE00C94E7272596E2E00C940328A6E0FC
:101B9000B0E0EDECFDE00C94E7272696E2E00C9433
:101BA000032808950E94D10D08950E94D20D9093AC
:101BB000540280935302089508950E94D50D08950C
:101BC0002091530230915402822B932B0E94D50D09
:101BD00008952091530230915402822393230E944E
:101BE000D50D0895209153023091540282279327F6
:101BF0000E94D50D08950E94D10D08950E94FB0DFD
:101C000008950E94FE0D9093520280935102089510
:101C100090E080E00E94010E089521E030E0A901EB
:101C200002C0440F551F8A95E2F7CA010E94010EB7
:101C3000089521E030E002C0220F331F8A95E2F7B9
:101C40008091510290915202822B932B0E94010E9F
:101C5000089521E030E002C0220F331F8A95E2F799
:101C600020953095809151029091520282239323C6
:101C70000E94010E089521E030E002C0220F331FC0
:101C80008A95E2F780915102909152028227932720
:101C90000E94010E08952091510230915202822B30
:101CA000932B0E94010E089520915102309152020F
:101CB000822393230E94010E0895209151023091B6
:101CC0005202822793270E94010E08950895262F1D
:101CD000277091E001C0990F2A95EAF723E07695E5
:101CE00067952A95E1F7660F771F660F771FFA0150
:101CF000E60FF71F50E040E0682F70E08191DF01B0
:101D000011979B01042E02C0369527950A94E2F79D
:101D1000217021952827292328272C934F5F5F4F77
:101D20004430510559F70895A82FA77023E09695E0
:101D300087952A95E1F7880F991F880F991FFB0156
:101D4000E80FF91F50E040E080E0219130E00A2EDA
:101D500002C0369527950A94E2F721703327042EA6
:101D600001C0220F0A94EAF7822B4F5F5F4F443085
:101D7000510559F70895262F963068F4803158F4AC
:101D800030E1939FB0011124680F711D41E252E0D0
:101D9000822F0E94670E0895963070F4803160F4AF
:101DA00040E1949F9001112461E272E0820F932F31
:101DB000911D0E94940E089580E00895B0E0A0E087
:101DC000E4EEFEE00C94E0277C01009151021091BA
:101DD00052028091530290915402082B192BCFE0AC
:101DE000D0E0CC24C394D12CBC2EC6010C2E02C052
:101DF000880F991F0A94E2F780239123892B49F4D5
:101E0000219790F7B12C8B2DCDB7DEB7E9E00C947C
:101E1000FC27B7018C2F0E94DF15019789F3F3CFC0
:101E2000CF93DF93EC010E94DE0EBE010E94DF150E
:101E3000DF91CF9108951F93CF93DF93EB019091A2
:101E40002002992339F0CB010E94100FDF91CF912E
:101E50001F910895882369F0CB010E94DE0E182F90
:101E6000682FCE010E94BB0EBE01812F0E94DF159C
:101E7000EDCFCB010E94CC0E182FF6CF1F93CF933E
:101E8000DF93C091550216E0809156028C1304C076
:101E9000DF91CF911F910895D0E01C9FF0011D9F0D
:101EA000F00D1124E95AFD4F408151816281738107
:101EB000848195810E94C70D2196C770E5CF40911E
:101EC0008702509188026091890270918A02809104
:101ED0008B0290918C020E94C70D089520915502AB
:101EE0009091560256E0291302C080E0089530E038
:101EF000529FF001539FF00D1124E95AFD4F71815B
:101F0000761306C07081781303C07281741304C005
:101F10002F5F3F4F2770E7CF81E008951F93CF9346
:101F2000DF9380918C02807F09F04BC08091890201
:101F3000882309F446C080915502C0915602409111
:101F400087025091880260918A0270918B02D42F8F
:101F5000D52316E0C817A9F190E061157105A9F124
:101F6000DF3F99F1189FF001199FF00D1124DF0157
:101F7000A95ABD4F11962C911197251326C02C916B
:101F8000241323C012962C91129721111EC0139670
:101F90002D913C91261B370B283C3105B0F48091E4
:101FA0008C028F70806180938C02E45AFD4F808197
:101FB0008F708061808387E892E00E94400D0E94CC
:101FC0003E0FDF91CF911F91089501968770C2CF88
:101FD000A1E1B0E0EEEEFFE00C94DD278C0185E09E
:101FE000F801DE011D9601900D928A95E1F7D80166
:101FF0001296EC90129787E8A82E82E0B82E4091B6
:102000008A0250918B024115510509F471C19091DA
:10201000870220918802892F82238F3F09F468C1AB
:10202000CC901196DC90119713968D909C901497FC
:10203000F0908902F401E41BF50BFF2009F406C1BE
:1020400080918C02382F307FE83CF10508F0C0C049
:1020500031118BC0FE2C2D1117C09C1115C0E11041
:1020600013C08F70806180938C020E945F0FC50146
:102070000E94400D80918C02D80115968C938F2D73
:102080006196ECE00C94F92781149104E9F08C2D11
:102090008D218F3FC9F081E08E2580FF17C04E2D26
:1020A0006D2D8C2D0E946E0F882381F087E892E0C1
:1020B0000E94400D86E0E7E8F2E0DF011D928A957C
:1020C000E9F70E945F0F4FC080E0E7CF81149104D1
:1020D00049F18C2D8D218F3F29F181E08E25B82F7C
:1020E000B170BB2E80FF37C04E2D6D2D8C2D0E9400
:1020F0006E0FA82E81112FC0CD86DE868D859E8520
:102100000E94100F292F22952F70243068F49F70A1
:10211000223098F09923A9F0F8019581907F89F4F5
:10212000FA2CADCF80E0DBCF2A5F2F70223068F031
:10213000C8010E94400DAB2CF3CF992311F08823E6
:1021400079F3805E883060F3F3CF803F48F3815F9E
:10215000833070F7E5CFEE2009F491CF80918C02A7
:10216000816080938C02F12C8ACF2D1105C09C11C7
:1021700003C0EE2009F487C0C8010E94AA0D88237D
:1021800019F1EE2009F180918C02803270F02091DB
:1021900087023091880238872F8319869B868A862A
:1021A0008C87CE0107960E94400D86E0F801A7E8D3
:1021B000B2E001900D928A95E1F70E948E0F0E9485
:1021C0005F0FFF24F3945BCFC8010E94400DF9CF4D
:1021D000311112C0782D998A888AA6016E2D8989BD
:1021E0000E94BD0D87E892E00E94400D86E0F50157
:1021F00011928A95E9F765CF2D110FC09C110DC082
:10220000E1100BC015968C93C8010E94400D86E02A
:10221000F50111928A95E9F732CFC8010E94AA0D03
:10222000882391F2EE2081F280918C02803208F4B2
:10223000BCCF20918702309188023A8329831B8288
:102240009D828C828E83CE010196ADCFE83CF10554
:1022500008F040C0FE2CEE2009F4B6CF2D112CC0A2
:102260009C112AC080918C0280FD1DC0982F907F08
:10227000D1F015968C931597903F39F0982F907F59
:10228000905F8F70892B15968C93C8010E94400D2A
:1022900086E0F801A7E8B2E001900D928A95E1F797
:1022A0000E945F0FECCE86E0F801A7E8B2E0019053
:1022B0000D928A95E1F7E3CEC8010E94AA0D811123
:1022C00074CF80918C02816080938C02C8010E943F
:1022D000400DD5CE782D998A888AA6016E2D8989E0
:1022E0000E94BD0D86E0F50111928A95E9F7D8CFDD
:1022F000EE2009F469CFC8010E94AA0DF82E8823A8
:1023000009F462CF86E0F801A7E8B2E001900D92EF
:102310008A95E1F787E892E00E94210A0E948E0FD9
:10232000BFCFACE0B0E0E7E9F1E10C94E6274F83E2
:10233000588769877A878B879C87CE0107960E948A
:10234000E80F8823B1F08A859B85892B39F04F816E
:102350005885842F85238F3F09F06CC016E080914B
:10236000550290915602891343C02C96E3E00C94D9
:10237000022886E0FE013796DE01119601900D924B
:102380008A95E1F78A859B85892B41F38F81988512
:1023900089238F3F19F32091560230E0C90101963D
:1023A00087709927409155024817190671F40E94C9
:1023B0008A0D109256021092550286E0E7E8F2E08C
:1023C000DF011D928A95E9F7C9CF96E0929FD0016F
:1023D000939FB00D1124A95ABD4FFE013196019073
:1023E0000D929A95E1F7809356020E943E0FB6CF68
:1023F000819FC0011124895A9D4F0E94E80F8823B4
:1024000009F4B3CFE09155021E9FF0011124E95A5F
:10241000FD4F4081518162817381848195810E9449
:10242000C70D8091550290E001968770992780939F
:10243000550295CF69857A858B859C850E94C70D4D
:102440008DCF682F80914401909145010E94B31F68
:102450000895682F80914401909145010E94C11F09
:10246000089580914401909145010E94CF1F0895E5
:102470008091AD0285958595859508958091AD02F1
:10248000877008959091AD02977081E009F480E023
:1024900008958091D00208959091D002892B809365
:1024A000D002089580959091D00298239093D00205
:1024B00008958093D00208951092D00208958091DB
:1024C000CF0208959091CF02892B8093CF02089577
:1024D00080959091CF0298239093CF020895109207
:1024E000CF0208958091AE02089508950E9475125A
:1024F00008959091B70492FF08C09091AE0298178A
:1025000021F08093AE020E94761208958091AE026F
:10251000882329F01092AE0280E00E94761208957E
:10252000CF93DF93E0914401F09145018091D00277
:102530008083E0914401F091450180819091CF0228
:10254000892B80839091AE02992381F0E091440120
:10255000F09145018081892B808380914401909185
:1025600045010E941F1F81110E948612C0914401E3
:10257000D091450140E250E06DE872E0CE010E944A
:102580009529892B59F080E2FE01ADE8B2E0019077
:102590000D928A95E1F7CE010E94BB1EDF91CF918B
:1025A000089508950E94D11208959091B70492FF62
:1025B00011C098E0899F90011124622B6093AD02B5
:1025C0000E94190E8091AD028595859585950E9492
:1025D000D21208950E94190E08951092AD0280E063
:1025E0000E94D21208959091AD0280958923809324
:1025F000AD02282F277091F4282F082E000C330BE2
:102600009217130659F09091B70492FF07C0859571
:10261000859585950E94290E0E94ED12089590914E
:10262000B70492FB222720F9281769F080FB92F962
:102630009093B7048091B6049091B7040E94571309
:1026400082E00E94F31208958091B70482FB8827EC
:1026500080F991E089270E940F13089581E00E947C
:102660000F13089580E00E940F1308956FEF7FEF1E
:1026700090E080E00E94EE29089590E080E00E94C2
:10268000BA2921E0873E9E4F09F020E0822F08956D
:1026900082E090E00E94B229089583E090E00E94D9
:1026A000B229089584E090E00E94BA290895BC01FF
:1026B00084E090E00E94EE290895AB01BC018FE018
:1026C00090E00E94E2290895AB01BC0183E190E013
:1026D0000E94E229089560E070E0CB010E9464133B
:1026E000089560E070E0CB010E945D130E946B13BF
:1026F000089567EE7EEF90E080E00E94EE2960E0B2
:1027000082E090E00E94D02960E083E090E00E94A7
:10271000D029109254021092530260E074E184E0D8
:1027200090E00E94EE2960E086E090E00E94D029CF
:102730006FEF87E090E00E94D02940E050E0BA01BE
:1027400088E090E00E94E22960E08DE090E00E9445
:10275000D02940E050E0BA0188E190E00E94E229EF
:1027600060E087E190E00E94D02940E050E0BA01AB
:102770008CE190E00E94E22970E060E080E290E06D
:102780000E94EE2940E050E0BA0188E190E00E940A
:10279000E2290E94711308950E9479130895682F09
:1027A0008EE090E00E94D0290895A5E0B0E0EBED26
:1027B000F3E10C94E5270E947F208C018091D102E7
:1027C0009091D20280179107A1F08FEF89838A83BD
:1027D0001B820E947F208160782F9D838C8349819A
:1027E0005A816B818D810E94EC091093D202009373
:1027F000D1022596E4E00C9401280E948B2060937E
:10280000E3027093E4028093E5029093E602609302
:10281000DF027093E0028093E1029093E202089558
:10282000089508950E94111408950E94550708956F
:1028300081E0089589EC96E10E94A11E0E94101487
:102840000E94121408950E94181408950E942314DF
:102850000895089508950E9429140E942A14089545
:102860000E94E8160E94C0090E94AD1908950E94B6
:1028700076200E94C9170E9430140E9415140895F2
:10288000A5E0B0E0E6E4F4E10C94DC270E94181423
:1028900081110AC00E94D5130E94811E0E94D30993
:1028A0002596EDE00C94F8270E94DF1723ED822E89
:1028B00022E0922E640110E0F601E190F1906F01A8
:1028C000812F0E9408171F5F163009F449C0E816CF
:1028D000F90691F38091E70281FD0E9411170E9491
:1028E0002614782E10E0812F0E9408177C01F40135
:1028F000A190B1904F018A159B0561F1A826BF24D4
:1029000000E0CC24C394D12CC5018C219D21892BBE
:10291000C1F07720B1F009831A8321E0C7018C212F
:102920009D21892B09F420E02B830E947F20816068
:10293000782F9D838C8349815A816B818D810E9480
:10294000EC090F5FCC0CDD1C0031F1F6F40132977D
:10295000F182E0821F5F163031F60E94FD139CCF9A
:10296000E816F90609F0B6CF95CF1F93CF93DF9302
:102970000E94E415EC01C11580E5D807F0F5C115FA
:1029800080E4D80708F09CC0C03ED10520F5CD3CBE
:10299000D10508F082C0C83AD10578F4C53AD1050E
:1029A00008F073C0C130D10519F1209709F1C43086
:1029B000D105F0F4D0E0C0E01BC0C33CD105D0F796
:1029C000C85AD0E0CC0FDD1FC857DE4F0990D88120
:1029D000C02DD4640DC0C11580E2D80708F0D1C065
:1029E000C11581E0D80708F05AC0C83ED10510F7DC
:1029F000CE01DF91CF911F910895C03682E5D807AF
:102A000018F5C03482E5D80708F06BC0C03282E503
:102A1000D80708F05FC0C11582E5D80708F497C051
:102A20002C2F2695269580E2289F900111248C2F2B
:102A30008370C1E0D0E002C0CC0FDD1F8A95E2F7C1
:102A4000C22BD32BDD68D4CFC03A82E5D80760F41F
:102A5000C03882E5D80708F459C0CF71D0E0DC2F28
:102A6000CC27C46FD06AC4CFC03C82E5D80708F435
:102A700062C0C03E82E5D80708F09CCFDC2FCC278F
:102A8000CC27DF71C06FD06AB3CFC55AD0E0C25433
:102A9000DE4FC881D0E0D064ABCFD065A9CF8D2FF9
:102AA0000E948616182FCE0199270E94E415C12F87
:102AB000D0E0DC2FCC27CC27DF71C82BD92B98CFC7
:102AC000CE0199270E94E415CC27DF70C82BD92BA3
:102AD000D06A8ECFCF71D0E0DC2FCC27C16FD06A07
:102AE00087CF2C2F26952695277080E2289F90016E
:102AF00011248C2F8370C1E0D0E002C0CC0FDD1F09
:102B00008A95E2F7C22BD32BDC6872CF2C2F269547
:102B10002695277080E2289F900111248C2F8370C6
:102B2000C1E0D0E002C0CC0FDD1F8A95E2F7C22BD6
:102B3000D32BDA685DCF8C2F8F710E948616C82F39
:102B4000D0E0DC2FCC27CC27DF71D06251CF8C2F87
:102B50008F710E94861655E0D695C7955A95E1F774
:102B6000CF70D0E0DC2FCC27282F30E084FF05C0C9
:102B700044E0220F331F4A95E1F7C22BD32BD069D3
:102B800037CF8D2F8F710E948616182FCE0199276F
:102B90000E94E415C12FD0E0DC2FCC27CC27DF71B9
:102BA000C82BD92BD2CF462F763030F4603120F4A9
:102BB000672F0E944508089590E080E008950E94E4
:102BC000D3150E94B514089582389105B9F1B0F477
:102BD0008133910509F47DC048F48932910509F4E7
:102BE0006DC08A32910509F47BC008958533910543
:102BF00009F45FC08933910509F10895833E910579
:102C0000D9F138F4803E910529F1823E910579F1A0
:102C10000895863E9105D9F1873E910509F43EC09D
:102C2000843E910541F52091B70421FF24C0809195
:102C3000B60484FD19C087EE90E008952091B60493
:102C4000237009F05AC02091B70423FF14C089E211
:102C500090E008952091B60420FD38C03091B7046B
:102C600030FF09C024FF43C090E080E00895209128
:102C7000B60422FDF7CF08952091B60422FD3AC094
:102C80003091B70430FD39C024FFF5CFEDCF20914E
:102C9000B60423FFF0CF24FDE7CFCDCF2091B604BB
:102CA00023FD2EC03091B70431FFEECF84EE90E0CB
:102CB00008952091B60425FFDECFC9CF2091B60438
:102CC00025FD21C02091B70423FFD5CF89E390E0F3
:102CD000D2CF2091B60426FFCECF8AE290E00895AD
:102CE0002091B60426FFC7CF81E390E0089583EEDC
:102CF00090E0089582EE90E0089580EE90E00895CF
:102D000086EE90E0089585E390E008959091B604F2
:102D100092FF06C0282F28712830F9F4877F84603D
:102D200093FF06C0282F28712831F1F4877E846133
:102D30002091B70420FF06C0382F38713830D9F4FD
:102D4000877F816021FF06C0282F28712831D1F4A8
:102D5000877E816194FD877E0895282F2471243019
:102D6000F9F68B7F8860DCCF282F2471243101F79E
:102D70008B7E8861DDCF382F3171313019F78E7F2E
:102D80008860E0CF282F2171213121F78E7E886164
:102D9000E1CF80E008950E94361308950E94DF1766
:102DA0002FEF86E791E0215080409040E1F700C08E
:102DB00000000E94DF1780E00E94081780FF04C017
:102DC0000E94CB160E94CA2008950E94CE16089534
:102DD0000E943D13811102C00E94CC130E9448132F
:102DE0008093E7020E9452139093B7048093B60435
:102DF0000E94E5160E944D1390E00E94DD0D809127
:102E00005102909152020E94FE0D08950895089576
:102E1000E82FF0E0EE0FFF1FEC53FB4F8081918114
:102E20000895089580EA8A95F1F7089500C00895FD
:102E30000E9412170895F894E82FE295EF70F0E0E1
:102E400031A1282F2F7081E090E001C0880F2A95D2
:102E5000EAF7982F9095932391A392A1892B82A3AF
:102E600078940895CF93DF93C1ECD1E089918F3F9F
:102E700011F00E941B1781E0C13DD807B9F7C1EDE1
:102E8000D1E089918F3F11F00E941B1781E0C73D6F
:102E9000D807B9F7DF91CF9108958F929F92BF9293
:102EA000CF92DF92EF92FF920F931F93CF93DF9316
:102EB000D82EE92EF62E8A01C62FD0E0CF53DE4F52
:102EC00028812F3F09F453C0F894E22FE295EF7068
:102ED000F0E031A12F7081E090E001C0880F2A95C9
:102EE000EAF7932F982B91A392A18095892382A32F
:102EF00078940E94161781ED882E81E0982EED2D92
:102F0000FE2DBF01645F7F4FE12C6801C094D09417
:102F1000D401BD904D0181919191AF014250510971
:102F2000BFEFBB1681F12B2D22952F7030E0D90118
:102F300090962C9130E0BB2DBF7002C0359527953F
:102F4000BA95E2F720FD1FC0802B912BDA018D93FB
:102F50009C93EE24E394E617F707D1F688818F3F20
:102F600011F00E941B176E2D8F2D0E941817DF91F4
:102F7000CF911F910F91FF90EF90DF90CF90BF9076
:102F80009F908F9008958C219D21DA018D939C93C1
:102F9000E2CF0E9432178CE0E4ECF4E0DF01982FDE
:102FA0001D929A95E9F7E8EBF4E0DF011D928A950E
:102FB000E9F786E00E9433180E944D070895CF92EA
:102FC000DF92FF920F931F93CF93DF93CDB7DEB7BE
:102FD0002C970FB6F894DEBF0FBECDBF8E010F5FEA
:102FE0001F4F8CE0F80111928A95E9F7F12CCC245F
:102FF000C394D12CA6016F2DC8010E944D17F394E4
:10300000CC0CDD1CF0E1FF12F5CF4CE050E0B80134
:1030100088EB94E00E94952921E0009709F420E0D4
:10302000892B41F08CE0F801A8EBB4E001900D92FF
:103030008A95E1F746E064EC74E088EB94E00E9446
:103040004E18182F0E941607812F2C960FB6F89451
:10305000DEBF0FBECDBFDF91CF911F910F91FF90CB
:10306000DF90CF900895CF93C82F20E1829FC001B9
:1030700011240E940E288093ED029093EE029C0191
:1030800080E08C1302C0CF910895F90190E1119274
:103090009150E9F78F5F205F3F4FF3CFB0E0A0E0A2
:1030A000E4E5F8E10C94DC27182F092FF62EE72E23
:1030B000B42EC22F1092E802D091EA02DD2309F467
:1030C00071C00E947F202091EB023091EC02AC0194
:1030D000421B530B9A019093EC028093EB024F3FFB
:1030E000510509F0B8F4452B89F01092EA021092CC
:1030F000E9028091ED024091EE0230E060E090E064
:10310000B9120BC06093EA023093E902C11158C0B2
:10311000CD2F4AC02FEF30E0E8CFE82FF42FAF01DA
:10312000405F5F4F8191882331F0DF0111972817AD
:1031300048F01C923D2FE417F507A1F78E2F4F2F73
:103140009F5FDECF821B8C936D2FF5CF6D917D91AC
:103150008081918168277927EA0130E020E08701AA
:10316000022E02C0000F111F0A94E2F76B01C02269
:10317000D122C114D10451F0D880D11007C0788277
:1031800080279127992493948824839421962F5FF4
:103190003F4F2031310519F7405F5F4F8193919385
:1031A000A39420C0211106C08091E902882301F177
:1031B000C11106C00E947F209093EC028093EB0225
:1031C0004091ED025091EE028090EA029090E80268
:1031D000EF2DFE2DA12FB02FA12CEE24E394F12C86
:1031E00095E0792EBA10B2CF8092EA029092E8026E
:1031F0008091E802CDB7DEB7EDE00C94F8270E948D
:103200005D220E9437140E946A2208950E946F2254
:103210000E9440140E94892208950E9418200E9452
:1032200043220E941A140E94FF180E9406190E944D
:103230002B14FBCF0F931F93CF93DF93EC01C1159A
:1032400080ECD80708F10E944912182F0E945F12E3
:10325000182B0E947212082F0E94B81E102B127297
:1032600091E009F490E086958170981729F0CC0FD1
:10327000CD2FCC1FDD0BD195CF77DD27CE01DF9190
:10328000CF911F910F910895DF73F8CF97FF13C06F
:10329000FB012281222379F00E941A19FC01EE0F12
:1032A000FF1FEE0FFF1FE350FF4F65917591859152
:1032B00094910E94D41A81E008950F931F93CF93A5
:1032C000DF93EC018B01FB0182818823B1F00E9426
:1032D00049128272FE01E053FC47E830F10568F4C0
:1032E000ED5BF54D0C94D127811104C081E003C042
:1032F0008111FCCF8FEF0E94E319B801CE010E942B
:103300004619DF91CF911F910F91089580E00E949F
:10331000D819F3CF81E0FBCF82E0F9CF83E0F7CF7C
:1033200084E0F5CF85E0F3CF9091D104923071F431
:103330008A3050F490E009966AE070E00E949B2782
:10334000875A0E94190B08958650FBCF0E94551C86
:10335000089508950E94A91908958CE090E00E94B4
:10336000B229482F50E070E060E04093D1045093C0
:10337000D2046093D3047093D404882351F0843032
:1033800059F481E08093EF028091D1040E94AA1940
:1033900008951092EF02F8CF1092EF021092D1042C
:1033A000F3CF6091D1048CE090E00E94D029089581
:1033B000CF93C82F8093D1040E94D1198C2F0E94E3
:1033C000AA19CF9108952091EF02082E000C990BB5
:1033D000820F911D27FD9A9562E070E00E949B2765
:1033E0008F3F99F08093EF02E091EF020E2E000CD8
:1033F000FF0BE952FE4F80818093D1040E94D119C6
:103400008091D1040E94AA19089581E0EBCF0E9417
:10341000B81E8093D0049091D104913029F481FF9B
:1034200003C089E30E94190B0E9449128093D504BE
:103430000E945C120E946F128091D104823021F1AF
:1034400058F48823C1F08130D1F08FE39CE90197D3
:10345000F1F700C000000895843051F18530A9F7DC
:103460008BE191E00E94C90885E290E00E94C908C2
:1034700088E290E006C086EE0E94270AE6CF88E147
:1034800093E00E94C908E1CF8091D00480FD03C081
:1034900083E50E94190B82EE0E94270A8FE39CE9C4
:1034A0000197F1F700C0000087E50E94190BCDCF0E
:1034B00086EE0E94190B88E1F8CF8091D10482300A
:1034C00011F148F4882381F0813091F08091D50486
:1034D0000E94591208958430F9F08530B9F788E2D6
:1034E00090E00E94C908F2CF86EE0E94B00AEECFAB
:1034F0008CE20E94190B8091D00481FFE7CF89E311
:103500000E94190BE3CF82EE0E94B00A8091D00492
:1035100080FDDCCF83E5F4CF88E2F2CF8F929F92DB
:10352000AF92BF92EF92FF920F931F93CF93DF93CF
:103530004B015C01D091D1048CE1E82EF12C07E025
:1035400010E021E0D501C4010E2C04C0B695A7956A
:10355000979587950A94D2F7C82FCF70222339F018
:10356000D43051F4CA3040F080E00E9494198C2F7E
:103570000E94941920E005C0C111F9CF0430110553
:10358000B4F30150110984E0E81AF1080F3F100765
:10359000C9F6DF91CF911F910F91FF90EF90BF90EF
:1035A000AF909F908F900895CF92DF92EF92FF920D
:1035B0006B017C01C114D10481E1E806F104A0F59E
:1035C000C114D10481E0E806F10420F08091D10417
:1035D000823051F10E94071AC114D10481E0E8063B
:1035E000F10438F18091D104811123C081E0E81AFF
:1035F000F108C701B6012AE09695879577956795FA
:103600002A95D1F778528F4F9F4F0E948E1A83E0F0
:10361000D822EE24FF24C701B60174528F4F9F4F6A
:103620000E948E1A0E945D1AFF90EF90DF90CF905B
:103630000895C701B601F4CFCF93DF93EC01FB01EE
:103640008281882309F4D2C09E013057233231058C
:1036500008F0B2C00E9452139093B7048093B6044E
:10366000FE01E150F047E232F10520F4E55BF54D53
:103670000C94D1278091B60481608093B60493C0E6
:103680008091B70488608093B7048DC08091B604A0
:103690008260F3CF8091B6048460EFCF8091B6044E
:1036A0008860EBCF8091B7048160EDCF8091B70443
:1036B0008260E9CF8091B6048061DFCF8091B6044B
:1036C0008062DBCF8091B6048064D7CF0E948A0DE0
:1036D0008091B6048068D1CF8091B6048C60CDCF44
:1036E0008091B7048360CFCF8091B6048E7FC5CF21
:1036F0008091B704877FC7CF8091B6048D7FBDCFFF
:103700008091B6048B7FB9CF8091B604877FB5CF07
:103710008091B7048E7FB7CF8091B7048D7FB3CFF0
:103720008091B6048F7EA9CF8091B6048F7DA5CFFE
:103730008091B6048F7BA1CF0E948A0D8091B60440
:103740008F779BCF8091B604837F97CF8091B7040A
:103750008C7F99CF8091B60482FB992790F921E064
:10376000922790FB82F990FB83F987CF8091B70471
:10377000982F909591708E7F892B90FB81F983CF44
:103780009091B604892F8F7B96FF806476CF0E943C
:103790008A0D9091B604892F97FB87F980586DCFD9
:1037A00081E00E94CF138091B6049091B7040E94EB
:1037B00057130E948A0D80E0DF91CF91089580E039
:1037C000F0CF9091B604892F8F7E94FF806155CF02
:1037D0009091B604892F8E7F90FF81604ECF90919B
:1037E000B704892F877F93FF88604DCF81E0E4CFB6
:1037F000B0E0A0E0EEEFFBE10C94E227E82FF0E070
:10380000EF55FB4FD490282F26952695269530E02E
:10381000F901EF5BFA4F0491877010E0082E02C0A7
:10382000159507950A94E2F701701127F901EF5CED
:10383000FA4FE490F12C082E02C0F594E7940A9414
:10384000E2F791E0E922FF24F901EF5DFA4FC4911C
:10385000D0E002C0D595C7958A95E2F7C170DD2703
:103860000115110519F081EE0E94270AE114F104F7
:1038700019F086EE0E94270A8D2D0E94190BE11483
:10388000F10419F086EE0E94B00A0115110519F035
:1038900081EE0E94B00ACD2B19F08CE20E94190B28
:1038A000CDB7DEB7E7E00C94FE27982F9F709A50B3
:1038B000963020F0805D0E94F81B0895895AFBCF56
:1038C000EF92FF920F931F93CF93DF938C01F62E0D
:1038D0008AE0E82EF8018491882309F454C08130ED
:1038E00009F04DC0E8012196FE018491813091F4E8
:1038F0002196FE0184910E94190B8E010F5F1F4FCC
:103900008F2D815038F3EFE9FFE03197F1F700C0D8
:103910000000F7CF823039F4E8012296FE0184914D
:103920000E94270AEACF833039F4E8012296FE018B
:1039300084910E94B00AE1CF8430F9F6E801229622
:10394000FE01249190E080E0FE0131962053330B7C
:103950002A30310548F0019780F2EFE9FFE0319716
:10396000F1F700C00000F7CFE89EA001E99E500DDE
:103970001124C901840F951F2491EF01E5CF0E9406
:10398000F81BE801BACFCDB7DEB7E6E00C94FF270D
:10399000CF93DF93EB0186319C4711F50E944912CA
:1039A0009A81992399F08A7A91E009F490E09093B2
:1039B000F002811109C089E20E9421120E94901236
:1039C00080E0DF91CF91089585E3F6CF8091F002FA
:1039D000811104C089E20E942912F0CF85E3FBCF58
:1039E00081E0EFCF0F931F93CF93DF93C42FD22F9C
:1039F000FC0182818823C9F04093F3020E947F205A
:103A00009093F2028093F10280E28C0F883040F4B0
:103A1000C77081E001C0880FCA95EAF70E94220BA7
:103A2000DF91CF911F910F9108951091F30214131C
:103A300032C08091F1029091F2020E949720883C5E
:103A4000910548F5C0E2CD0F1D17B9F080E2810F56
:103A5000883040F4177081E001C0880F1A95EAF7AA
:103A60000E94290BC83048F481E09D2F977001C057
:103A7000880F9A95EAF70E94220B802F0E94190B5B
:103A8000C83070F6D77081E001C0880FDA95EAF788
:103A90000E94290BC5CF80E28C0F883008F6C770D2
:103AA00081E001C0880FCA95EAF7F2CF0F93DB01DE
:103AB00088519C4787309105A0F5FC01E359F54DED
:103AC0000C94D12706E221EE41EE6AE17CE7CD01BC
:103AD0000E94F21C80E00F91089507E225EE45EE6A
:103AE0006BE17CE7F4CF06E221EE40EE68E17CE793
:103AF000EECF07E225EE44EE69E17CE7E8CF06E28F
:103B000021EE42EE6CE17CE7E2CF07E225EE46EEE5
:103B10006DE17CE7DCCF08E221E045EE6EE17CE779
:103B2000D6CF12968C91882319F01092F302D3CF3E
:103B300081E0D1CFCF93DF93EC01EA85FB8530970D
:103B400019F06C857D8509958B810E9468128C81A6
:103B50000E9452120E94901286E0FE0111928A95F4
:103B6000E9F7DF91CF910895CF93DF93EC018D8139
:103B700081FD12C082608D838B810E9462128C81D4
:103B80000E944C120E949012E885F985309721F02E
:103B90006C857D85CE0109951092F7021092F60290
:103BA0008D8180FD03C0CE010E949A1DDF91CF91CF
:103BB0000895CF93DF93EC018A81823041F4FB01B9
:103BC000828193810E9483088D8182608D83DF9141
:103BD000CF910895FB01808191810E94830808950F
:103BE000FC018281813031F4FB01808191810E944E
:103BF000990808958230E9F7FB0182819381F7CF1C
:103C0000CF93FB01C281CC23E1F0E091F602F09169
:103C1000F7023097C9F0E817F907B1F02EE0E29FFC
:103C2000F0011124DF01A95EBE4F2C9124602C937A
:103C3000EE5EFE4F91838083CF010E94B41D0E94EF
:103C40006F128C2FCF910895C0E0FBCFEF92FF92BF
:103C50000F931F93CF93DF938C0197558F3F91055F
:103C600011F008F041C07801FF248EE0089FF001B8
:103C70001124EF01CE5EDE4FDB0112962C91E95E3E
:103C8000FE4F808120FB80F98083222399F10E94DE
:103C90007F209093F5028093F4028A818F5F8A835C
:103CA0000E9449128B830E945F129B81892B8B8318
:103CB0000E9472128C83EE81FF81309721F06C8517
:103CC0007D85CE0109958EE08E9DF0018F9DF00DD2
:103CD0001124EE5EFE4F858181FF02C010E000E0FE
:103CE0001093F7020093F60281E0CDB7DEB7E6E06D
:103CF0000C94FF278D8181FFF7CFCE010E949A1D82
:103D0000F3CF8091F6029091F702892BC9F0809150
:103D1000F4029091F5020E949720893C910580F071
:103D20008091F6022EE0829FC0011124FC01E95E21
:103D3000FE4F208122FD04C08E5E9E4F0E94B41D66
:103D400008959093DB018093DA0108959093FD022A
:103D50008093FC020895E091FC02F091FD023097FF
:103D600029F00190F081E02D0995089580E00895F3
:103D70000E94AB1E0895E091FC02F091FD02309785
:103D800099F020914E01222359F02091B60427FF8B
:103D900007C0DC012C9111962C93119726E02C93EF
:103DA0000280F381E02D09950895A3E0B0E0EBEDEA
:103DB000FEE10C94E7272091FA023091FB022817CC
:103DC0003907A1F09093FB028093FA02E091FC0284
:103DD000F091FD02309751F023E029839B838A8381
:103DE0000680F781E02DCE01019609952396E2E049
:103DF0000C940328A3E0B0E0E0E0FFE10C94E72797
:103E00002091F8023091F90228173907A1F0909318
:103E1000F9028093F802E091FC02F091FD023097E4
:103E200051F024E029839B838A830680F781E02D6B
:103E3000CE01019609952396E2E00C940328FC013B
:103E4000329680914E01882321F08091B6049EE144
:103E500087FF96E080E0915008F408952191222395
:103E6000D1F38F5FF8CF662301F120914E01222319
:103E7000F1F02091B60427FF1AC0462F46954695CB
:103E800046954E3190F4677021E030E002C0220F79
:103E9000331F6A95E2F7840F911DFC01828190E047
:103EA0002823392381E0232B69F480E00895FC0165
:103EB000329608962191261721F0E817F907D1F7D5
:103EC000F4CF81E008959C01FC0132969FEF80E0E1
:103ED0004191461751F09F3F19F4411101C0982FAD
:103EE0008F5F8630A9F79F3F09F40895290F311D90
:103EF00097FD3A95F90162830895FC013296089680
:103F00002191261303C0DF0111971C92E817F907CE
:103F1000B9F70895E62FE695E695E695EE3168F453
:103F2000E80FF92FF11D677021E030E001C0220F8A
:103F30006A95EAF78281822B82830895E62FE695BF
:103F4000E695E695EE3170F4E80FF92FF11D6770F4
:103F500021E030E001C0220F6A95EAF720958281C6
:103F600028232283089520914E01222339F02091A5
:103F7000B60427FF03C00E948A1F08950E94631F92
:103F8000089520914E01222339F02091B60427FF95
:103F900003C00E949E1F08950E947D1F0895FC018A
:103FA000329680914E01882351F08091B60487FFAC
:103FB00006C08EE1DF011D928A95E9F7089586E03B
:103FC000F9CF08950E94E11F0895811106C081E094
:103FD0008093FE020E94E21F089582E0F9CF83E001
:103FE0008093FE020E94E21F08950E94E51F08953B
:103FF00081E08093FE020E94E21F08950E94F81F54
:10400000089508950895CF930E9401200E94DF171C
:104010000E940220C0E08C2F0E940817892B31F4E7
:10402000CF5FC630C1F780E0CF91089581E0FCCF2B
:1040300085B7806885BF85B7806885BF08951F9262
:104040001FB61F9211248F939F93AF93BF938091BC
:10405000FF02811113C08091D6049091D704A091E2
:10406000D804B091D9044196A11DB11D8093D60406
:104070009093D704A093D804B093D904BF91AF9183
:104080009F918F911F901FBE1F9018958091DE0405
:10409000843031F10E94A3091092FF0288E190E080
:1040A00020E40FB6F894A895809360000FBE20938B
:1040B000600083B7817F846083BF83B7816083BFE3
:1040C0007894889583B78E7F83BF0FB6F894A895B0
:1040D00080916000886180936000109260000FBE44
:1040E00008950E948A0D0E94A809089582E084BD67
:1040F00093E095BD9AEF97BD80936E0008952FB71A
:10410000F8948091D6049091D704A091D804B091EE
:10411000D9042FBF08952FB7F8946091D6047091F9
:10412000D7048091D8049091D9042FBF08959C01A1
:104130004FB7F8948091D6049091D704A091D804F9
:10414000B091D9044FBF821B930B089578941F92AE
:104150001FB61F9211248F939F93AF93BF938091AB
:10416000D6049091D704A091D804B091D9040196B7
:10417000A11DB11D8093D6049093D704A093D804B9
:10418000B093D904BF91AF919F918F911F901FBEA3
:104190001F90189581E08093E00080E28093D80022
:1041A0001092C9008FE19EE40197F1F700C0000072
:1041B00087E090EBDC018093EB049093EC04A093F8
:1041C000ED04B093EE0488E19CE00FB6F894A89556
:1041D000809360000FBE90936000FFCF88E19CE069
:1041E0000FB6F894A895809360000FBE909360007E
:1041F000FFCF80912003089508959B01BA0190910B
:10420000DE049430E9F48F708093E9009FEF809191
:10421000E800915085FD06C085ED8A95F1F7000014
:104220009111F5CF8091E80085FF0AC050E040E091
:10423000C9010E9400238091E8008E778093E800F6
:10424000089543E050E0BC0182E00E94FD20089503
:10425000CF93DF93EC0180914E01811111C048E0B2
:1042600050E0BE0181E00E94FD2080E2FE01A0E05E
:10427000B3E001900D928A95E1F7DF91CF91089517
:104280008091B60487FF05C040E282E050E0BE01A5
:10429000EACF48E081E0FACF8091DD04811109C0C6
:1042A0000E9490240E94ED248091E200846080931B
:1042B000E20008951092DD0408950E94F81F089509
:1042C0006091DA0481E0611101C080E00E94EF1F7B
:1042D00008959091DE0481E0943009F080E06091CF
:1042E000DA040E94F51F089542E061EC81E00E942B
:1042F0000C2442E261EC82E00E940C249091DE04E6
:1043000081E0943009F080E06091DA040E94E51FBA
:1043100008958091E004833009F461C030F4813065
:10432000D1F1823009F49EC008958A3009F48AC020
:104330008B3009F46FC0893009F050C08091DF04E0
:10434000813209F04BC08091E3049091E40402971C
:1043500008F044C08091E800877F8093E800809156
:10436000E80082FF37C09091F3008091F20002973D
:1043700031F48091F100813011F0863021F4809188
:10438000F100809320038091E8008B778093E80010
:104390000E94402423C08091DF04813AF9F4809187
:1043A000E800877F8093E8008091E3049091E40423
:1043B000892B61F460E280E093E070E00E944F237B
:1043C0008091E8008B778093E800089560E090E0AA
:1043D00080E0F3CF8091DE048111C1CF08958091F8
:1043E000DF04813AD9F78091E3049091E404892BAA
:1043F000A9F78091E800877F8093E8008091E8002A
:1044000080FFFCCF80914E018093F1008091E80005
:104410008E77BCCF8091DF04813201F78091E30475
:104420009091E404892BD1F68091E800877F8093F6
:10443000E8000E9440248091E10480934E010E9494
:104440008A0D08958091DF04813241F68091E80061
:10445000877F8093E8000E9440248091E20480934B
:10446000210308958091DF04813A09F0B7CF80914C
:10447000E800877F8093E8008091E80080FFFCCF10
:1044800080912103C1CF84B7877F84BF0FB6F89492
:10449000A895809160008861809360001092600010
:1044A0000FBE80E890E00FB6F8948093610090937F
:1044B00061000FBE0E94FE1F08950E9490240E947A
:1044C000ED24E2EEF0E080818460808378940E94A5
:1044D0006C27089586E491E00E94A61E08958091BD
:1044E000DE04853031F48091DE04853019F00E94BD
:1044F000712008950E9446208091DC04882399F35E
:104500000E940320882379F30E94EA220E948A0DE8
:10451000EACF08959A014091E5045091E6040E9483
:1045200092220895492F55274330510519F168F417
:104530004130510509F444C04230510509F445C0E9
:1045400090E080E050E040E025C04132510549F163
:1045500042325105A9F780E490E047E356E0611547
:104560007105C1F08DE690E04AEC55E061307105CF
:1045700089F0E6CF99278130910581F0009729F0E5
:104580000297F1F6E1E5F5E002C0E9E7F5E0849194
:1045900090E0AF01F901518340830895E1E6F5E031
:1045A000F6CF89E090E04FE855E06115710591F391
:1045B00089E090E048EA55E06130710559F3C0CFD9
:1045C00082E190E048EB55E0E5CF8BE390E04DE7EA
:1045D00055E0E0CF80E189BD82E189BD09B400FEEC
:1045E000FDCF8091D8008F7D8093D8008091E0002E
:1045F00082608093E0008091E00081FDFCCF08950F
:10460000AF92BF92CF92DF92FF920F931F93CF93FF
:10461000DF936C01EB018A010E945F24F82E811167
:1046200023C00115110539F0F80180819181C81B63
:10463000D90BC80ED91EB12CA12C2097A9F08091BE
:10464000E80085FD22C08091E8008E778093E80025
:1046500001151105A1F0F80180819181A80EB91E04
:10466000B182A08285E0F82E8F2DDF91CF911F912E
:104670000F91FF90DF90CF90BF90AF9008950E9470
:104680005F248823D1F2F82EEFCFF60181916F01DC
:104690008093F1002197FFEFAF1ABF0ACECFFC0144
:1046A0008091E5049091E60486179707A0F06115C4
:1046B000710529F49091E8009E779093E80090E0CE
:1046C0006115710551F4911108C08091E80082FFD5
:1046D00034C080E00895BC01F2CF8091DE048823CD
:1046E000C1F18530C1F18091E80083FD30C0809137
:1046F000E80082FDEACF8091E80080FFE1CF809161
:10470000F3002091F200382F6115710519F028305F
:10471000310558F091E02830310509F090E0209102
:10472000E8002E772093E800CBCF81918093F100B1
:10473000615071092F5F3F4FE7CF8091DE048823DE
:1047400041F0853041F08091E80083FFBECF81E0E9
:10475000089582E0089583E00895FC018091E504C6
:104760009091E60486179707A0F06115710529F46A
:104770008091E8008E778093E80090E061157105E4
:1047800051F4911108C08091E80082FF35C080E0AB
:104790000895BC01F2CF8091DE048823C9F18530F1
:1047A000C9F18091E80083FD31C08091E80082FD6D
:1047B000EACF8091E80080FFE1CF8091F300209163
:1047C000F200382F6115710519F02830310558F0C5
:1047D00091E02830310509F090E08091E8008E7773
:1047E0008093E800CBCF84918093F10031966150A3
:1047F00071092F5F3F4FE6CF8091DE04882341F09F
:10480000853041F08091E80083FFBDCF81E00895BD
:1048100082E0089583E00895982F973028F08F70F4
:104820008093E90081E008959093E900242F762F8A
:1048300050E0981731F07091EC002091ED0050910C
:10484000F00021FD02C09F5FE8CF3091EB003E7F7A
:104850003093EB003091ED003D7F3093ED003091CF
:10486000EB0031603093EB007093EC002093ED008F
:104870005093F0002091EE0027FDE5CF80E00895F1
:104880008091DF0487FF13C08091E80082FF06C09B
:104890008091E8008B778093E80004C08091DE046B
:1048A0008111F2CF08958091DE048823D9F380919D
:1048B000E80080FFF8CF8091E8008E77ECCF209160
:1048C000E4003091E50095E6A9012091EC00822FEB
:1048D000817020FF06C08091E80080FF06C080E064
:1048E00008952091E80022FD1AC08091DE048823FB
:1048F00089F0853089F08091EB0085FD0FC0209113
:10490000E4003091E50042175307F9F29150E1F6C7
:1049100084E0089582E0089583E0089581E0089599
:104920000E94FF240E940725E0EEF0E08081816074
:104930008083E8EDF0E080818F77808319BCA7ED5C
:10494000B0E08C918E7F8C9380818F7E80831092DB
:10495000DD0408950F931F93CF93DF930E94FF24EC
:104960000E940725C8EDD0E088818F7788838881F1
:104970008068888388818F7D888319BC1092DE04CB
:104980001092DA041092DC041092DB0400EE10E0C6
:10499000F80180818B7F808388818160888342E0F9
:1049A00060E080E00E940C24E1EEF0E080818E7FE8
:1049B0008083E2EEF0E08081816080838081886086
:1049C0008083F80180818E7F8083888180618883E5
:1049D000DF91CF911F910F910895E8EDF0E0808174
:1049E0008F7E8083E7EDF0E080818160808384E0CA
:1049F00082BF81E08093DD040E94AA240895E8ED3F
:104A0000F0E080818E7F80831092E2000895109202
:104A1000DA001092E10008951F920F920FB60F92E4
:104A200011242F933F934F935F936F937F938F93B3
:104A30009F93AF93BF93EF93FF938091E10082FF29
:104A40000BC08091E20082FF07C08091E1008B7F64
:104A50008093E1000E946B278091DA0080FF19C0EB
:104A60008091D80080FF15C08091DA008E7F8093FE
:104A7000DA008091D90080FF96C080E189BD82E193
:104A800089BD09B400FEFDCF81E08093DE040E9461
:104A90004C218091E10080FF19C08091E20080FFED
:104AA00015C08091E2008E7F8093E2008091E20049
:104AB00080618093E2008091D80080628093D8006A
:104AC00019BC85E08093DE040E9460218091E100A2
:104AD00084FF2BC08091E20084FF27C080E189BD64
:104AE00082E189BD89B5982F917080FFFBCF8091BD
:104AF000D8008F7D8093D8008091E1008F7E8093D5
:104B0000E1008091E2008F7E8093E2008091E200DC
:104B100081608093E2008091DA04882309F449C01F
:104B200084E08093DE040E9469218091E10083FF8C
:104B300029C08091E20083FF25C08091E100877F3A
:104B40008093E10082E08093DE041092DA04809189
:104B5000E1008E7F8093E1008091E2008E7F809360
:104B6000E2008091E20080618093E20042E060E038
:104B700080E00E940C248091F00088608093F00017
:104B80000E945D21FF91EF91BF91AF919F918F9115
:104B90007F916F915F914F913F912F910F900FBE39
:104BA0000F901F90189519BC1092DE040E945A2194
:104BB00070CF8091E30087FD93E09093DE04B3CF44
:104BC0001F920F920FB60F9211242F933F934F9382
:104BD0005F936F937F938F939F93AF93BF93CF9385
:104BE000DF93EF93FF93D091E900DF708091EC00A9
:104BF000C82FC17080FDC0E81092E9008091F000DC
:104C0000877F8093F00078940E9424261092E90018
:104C10008091F00088608093F000CD2BCF70C0931E
:104C2000E900FF91EF91DF91CF91BF91AF919F91FB
:104C30008F917F916F915F914F913F912F910F9045
:104C40000FBE0F901F901895AAE2B0E0EAE2F6E2DC
:104C50000C94E6278FED94E02091F100FC01219364
:104C6000CF01F4E0873E9F07B9F70E948921809128
:104C7000E80083FF1EC18091DF049091E0049A3028
:104C800008F017C1E92FF0E0EC58F54D0C94D1274E
:104C9000803899F0823809F00CC18091E3048F705C
:104CA000873008F006C18093E9008091EB0085FB16
:104CB000882780F91092E90006C08091DB0490916A
:104CC000DC04911182609091E800977F9093E80056
:104CD0008093F1001092F1008091E8008E77E5C09A
:104CE000882309F4D3C0823009F0E3C08091E10445
:104CF0008111D6C08091E3048F702FEF280F2630EA
:104D000008F0D7C08093E9002091EB0020FFC8C0D5
:104D1000933031F48091EB0080628093EB00C0C04F
:104D20009091EB0090619093EB0021E030E001C0A6
:104D3000220F8A95EAF72093EA001092EA00809108
:104D4000EB008860EACF8111B4C01091E1041F77B5
:104D50008091E3008078812B8093E3008091E800CC
:104D6000877F8093E8000E9440248091E80080FFC4
:104D7000FCCF8091E30080688093E30082E0111112
:104D800083E08093DE0495C08058823008F091C0A3
:104D90008091E1049091E2048C3D23E09207A1F51B
:104DA00083E08A838AE289834FB7F894DE01139601
:104DB00020E03EE051E2E32FF0E050935700E49111
:104DC00020FF03C0E295EF703F5FEF708E2F90E001
:104DD000EA30C0F0C7968D939D932F5F243159F729
:104DE0004FBF8091E800877F8093E8006AE270E01F
:104DF000CE0101960E944F238091E8008B7780932B
:104E0000E80057C0C096E7CF6091E3047091E404D6
:104E1000AE014F5F5F4F0E948A22BC01892B09F4CB
:104E200048C09091E800977F9093E80089819A812B
:104E30000E94AD23E1CF8038E1F58091E800877FC3
:104E40008093E8008091DA048093F10045CF8111CE
:104E500030C09091E104923060F58091E800877F46
:104E60008093E8009093DA040E9440248091DA0451
:104E7000882311F084E005C08091E30087FDFACF1C
:104E800081E08093DE040E94742113C08091E104CC
:104E9000813079F481E0933009F080E08093DC0484
:104EA0001092E9008091E800877F8093E8000E94DB
:104EB00040248091E80083FF0AC08091E800877F4A
:104EC0008093E8008091EB0080628093EB00AA96CB
:104ED000E3E00C9402280895CF938091DE048823A8
:104EE000A1F0C091E900CF709091EC00892F817002
:104EF00090FD80E8C82B1092E9008091E80083FDC6
:104F00000E942426CF70C093E900CF910895AA1B78
:104F1000BB1B51E107C0AA1FBB1FA617B70710F0A4
:104F2000A61BB70B881F991F5A95A9F780959095D6
:104F3000BC01CD01089597FB072E16F4009407D00D
:104F400077FD09D00E94872707FC05D03EF4909595
:104F500081959F4F0895709561957F4F0895A1E2C7
:104F60001A2EAA1BBB1BFD010DC0AA1FBB1FEE1FE3
:104F7000FF1FA217B307E407F50720F0A21BB30B2E
:104F8000E40BF50B661F771F881F991F1A9469F7AA
:104F900060957095809590959B01AC01BD01CF0106
:104FA0000895EE0FFF1F0590F491E02D09942F92C4
:104FB0003F924F925F926F927F928F929F92AF92A9
:104FC000BF92CF92DF92EF92FF920F931F93CF93F6
:104FD000DF93CDB7DEB7CA1BDB0B0FB6F894DEBF8D
:104FE0000FBECDBF09942A88398848885F846E84B3
:104FF0007D848C849B84AA84B984C884DF80EE80FD
:10500000FD800C811B81AA81B981CE0FD11D0FB605
:10501000F894DEBF0FBECDBFED0108950F931F932F
:10502000CF93DF938230910510F482E090E0E0911D
:10503000E904F091EA0430E020E0B0E0A0E030972D
:1050400099F42115310509F447C0281B390B243088
:105050003105C0F58A819B816115710571F1FB01F4
:1050600093838283FE0111C04081518102811381AB
:1050700048175907F8F04817590799F4109761F045
:1050800012960C93129713961C933296CF01DF91D0
:10509000CF911F910F9108950093E9041093EA04B2
:1050A000F4CF2115310519F04217530718F49A016E
:1050B000BD01EF01DF01F801C2CF9093EA048093B4
:1050C000E904D0CFFE01E20FF31F819391932250A8
:1050D000310939832883DACF2091E7043091E8043D
:1050E000232B41F420910201309103013093E80415
:1050F0002093E70420910001309101012115310531
:1051000041F42DB73EB74091040150910501241B95
:10511000350B4091E7045091E8044217530708F01B
:10512000B5CF241B350B2817390708F4AFCFBC01C6
:105130006E5F7F4F2617370708F4A8CF640F751FDF
:105140007093E8046093E704FA01819391939ECFF2
:10515000CF93DF930097E9F0FC013297138212821C
:10516000C091E904D091EA04DE0130E020E020970C
:10517000A1F420813181820F931F2091E7043091A7
:10518000E8042817390709F067C0F093E804E093B2
:10519000E704DF91CF910895DA01AE17BF0708F059
:1051A00040C012964D915C9113979D014115510598
:1051B00099F7D9011396FC93EE9312974D915D9157
:1051C000A40FB51FEA17FB0779F48081918102963D
:1051D000840F951FD90111969C938E9382819381A0
:1051E00013969C938E931297B0E0A0E08A819B81E6
:1051F0000097B9F5FE0181919191E80FF91F809117
:10520000E7049091E8048E179F0719F6109761F54F
:105210001092EA041092E904D093E804C093E704E2
:10522000B8CFB383A28340815181840F951FA81703
:10523000B90771F44E5F5F4F8D919C911197480FA4
:10524000591F5183408312968D919C919383828341
:105250002115310509F0ADCFF093EA04E093E9049C
:1052600098CFDE01EC01C2CF13961C921E921297CA
:10527000D3CF8F929F92AF92BF92CF92DF92EF9255
:10528000FF92CF93DF93EC01688179818A819B81C2
:10529000611571058105910521F464E279ED8BE5D5
:1052A00097E02DE133EF41E050E00E94F4294901FD
:1052B0005A019B01AC01A7EAB1E40E94132A6B01D9
:1052C0007C01ACEEB4EFA50194010E94212ADC011F
:1052D000CB018C0D9D1DAE1DBF1DB7FF03C00197F7
:1052E000A109B04888839983AA83BB839F77DF9104
:1052F000CF91FF90EF90DF90CF90BF90AF909F90B5
:105300008F9008950E943929089586E091E00E94C7
:1053100039290895B0E0A0E0809306019093070139
:10532000A0930801B09309010895FB01DC0104C0BA
:105330008D910190801921F441505040C8F7881B8D
:10534000990B0895DC01CB01FC01F999FECF06C051
:10535000F2BDE1BDF89A319600B40D924150504033
:10536000B8F70895F999FECF92BD81BDF89A9927B3
:1053700080B50895A8E1B0E042E050E00C94A42983
:10538000DC01A40FB51F4150504048F0CB01840F01
:10539000951F2E910E94D12941505040D0F7089579
:1053A000262FF999FECF92BD81BDF89A019700B4DE
:1053B000021639F01FBA20BD0FB6F894FA9AF99A7E
:1053C0000FBE08950396272F0E94D1290E94D0294D
:1053D000252F0E94D129242F0C94D1290196272F03
:1053E0000E94D1290C94D029052E97FB1EF400941D
:1053F0000E940B2A57FD07D00E94AF2707FC03D05D
:105400004EF40C940B2A50954095309521953F4FC2
:105410004F4F5F4F089590958095709561957F4FA0
:105420008F4F9F4F08950E94262AA59F900DB49FED
:10543000900DA49F800D911D11240895B7FF0C9429
:10544000132A0E94132A821B930B0895A29FB00176
:10545000B39FC001A39F700D811D1124911DB29FA8
:10546000700D811D1124911D0895F894FFCF6F0BCD
:105470006F0BBF0BBF0B2C0C9E0B9E0B9E0B480C97
:10548000B90CC80CC80C7419781986198A198C19AA
:105490008E1990199219741BE81B7C1B461B4A1B22
:1054A000801B4E1B841B901B5A1BE11B5E1B941B15
:1054B000621B981BC01B661B9C1BC71B6C1BA21B83
:1054C000AA1B521B881B561B8C1B701BA61BB61BD2
:1054D000D01BDF1B401B781BEF1B731D791D621D4A
:1054E0006D1D7F1D851D8B1D482670265927702632
:0C54F0005927A326C42659271B2727276D
:1054FC000000EF04200001000000FF0000FF01008D
:10550C0000FF000000000000000000000000000090
:10551C00000000000000D91DEA1DF01D4001000034
:10552C0000000000D91DEA1DF01D3C01AE0000007A
:10553C00AE000100AF02F9202821FC20212101E25C
:10554C0000E900EA00B500B600B700CD008301CC3D
:10555C00008A0192019401210223022402250226D1
:10556C000227022A02B300B4006F0070009F01CB27
:10557C00019F02A002818283E200E900EA00B500EB
:10558C00B600B700CD008301CC008A0192019401D2
:10559C002102230224022502260227022A02B3003A
:1055AC00B4006F0070009F01CB019F02A0028182AA
:1055BC0083F5953132339392676636353497963747
:0A55CC0094F1F0C6F4F6F7000400B5
:00000001FF
