:100000000C94C3020C94FB020C94FB020C94FB02B4
:100010000C94FB020C94FB020C94FB020C94FB026C
:100020000C94FB020C94FB020C9489250C945D2625
:100030000C947A200C94FB020C94FB020C94FB02AF
:100040000C94FB020C94FB020C94FB020C94FB023C
:100050000C94FB020C9401210C94FB020C94FB0207
:100060000C94FB020C94FB020C94FB020C94FB021C
:100070000C94FB020C94FB020C94FB020C94FB020C
:100080000C9422050C94FB020C94FB020C94FB02D2
:100090000C94FB020C94FB020C94FB020C94FB02EC
:1000A0000C94FB020C94FB020C94FB023C2D003DD3
:1000B0003E002D3E00E9000000C9000000E80000FD
:1000C00000C8000000EA000000CA000000EB0000C9
:1000D00000CB000000E2000000C2000000E00000D1
:1000E00000C0000000E7000000C7000000EE0000B4
:1000F00000CE000000AC2000003F0E0000A9000070
:1001000000AE000000C9030000A9030000F40000D5
:1001100000D4000000F9000000D9000000530100E5
:100120000052010000C0030000B0000000F1000018
:1001300000D1000000B5000000C3030000642200ED
:100140000065220000AB000000BB00000060220040
:1001500000482200001E22000029003A003B003C1B
:10016000003D003E003F004000410042004300448B
:100170000045000000AE00000035001E001F0020FA
:100180000021002200230024002500260027002D46
:10019000002E002A002A004C002B0014001A000830
:1001A00000150017001C0018000C00120013002F8F
:1001B000003000310000004B0029610400160007E8
:1001C0000009000A000B000D000E000F0033003480
:1001D00000286F000000004E00E10000001D001B21
:1001E0000006001900050011001000360037003825
:1001F00000E100520000000000000FE200E30000F8
:1002000000000000002C42000000000000E600B9E1
:100210005D5000510000004F00010001000100018D
:1002200000010001000100010001000100010001C6
:1002300000010000000100000001000100010001B8
:1002400000010001000100010001000100010001A6
:100250000001000100010001000100010001000196
:100260000001000100010001000100010001000186
:10027000000100010000000100E000010001000198
:100280000001000100010001000100010001000166
:100290000001000000000001000100000001000159
:1002A0000001000100010001000100010001000146
:1002B000000100010000000000E3000254E2000021
:1002C00000000000002C00000000000000E700BA61
:1002D0005D010001000000010001000100010001BA
:1002E0000001000100010001000100010001000106
:1002F00000010000000100000001000100010001F8
:1003000000010001000100010001000100010001E5
:1003100000010001000100005CE05C010001000040
:100320008002800480010018800E80168001000188
:1003300000010001000000010001000A8001002A04
:1003400000010001005000510052004F0001000167
:100350000001000000000001000100000001000198
:10036000000C800100010001000100AF5DAE5DB036
:100370005D0100010000000000010001000100001B
:10038000000000000001000000000000000100016A
:1003900000AC0001000000AB000000000000000005
:1003A000002A2B28000000000000000000000000D0
:1003B0000000000029000000002C1E34202122240F
:1003C000342627252E362D3738271E1F202122239D
:1003D0002425263333362E37381F0405060708092F
:1003E0000A0B0C0D0E0F10111213141516171819F5
:1003F0001A1B1C1D2F3130232D3504050607080953
:100400000A0B0C0D0E0F10111213141516171819D4
:100410001A1B1C1D2F3130354C000000000000005D
:1004200000000000000000000000000000000000CC
:10043000000000000000000000000000007E0F002F
:10044000D4FFFFFFC7000000782403770069006C29
:1004500000620061002E00740065006300680020E7
:100460000057005400370035002D004300000016EF
:1004700003770069006C00620061002E0074006563
:10048000006300680000000403090409023B000245
:100490000100A0FA09040000010301010009211173
:1004A0000100012240000705810308000109040141
:1004B000000103000000092111010001226D000765
:1004C000058203200001120100020000000882657D
:1004D0005C0701000102000105010980A1018503FB
:1004E00019012AB700150126B70095017510810082
:1004F000C0050C0901A101850419012AA0021501FA
:1005000026A002950175108100C005010906A10110
:100510008506050719E029E71500250195087501ED
:1005200081020507190029EF1500250195F07501D5
:1005300081020508190129059505750191029501AA
:1005400075039101C005010906A101050719E029FC
:10055000E71500250195087501810295017508814F
:10056000010507190029FF150026FF0095067508EB
:10057000810005081901290595057501910295016C
:1005800075039101C00011241FBECFEFDAE0DEBF7A
:10059000CDBF04B603FE18C08091070590910805F1
:1005A000A0910905B0910A058730904BA740B04B48
:1005B00059F410920705109208051092090510923F
:1005C0000A05E0E0F8E3099511E0A0E0B1E0E4E914
:1005D000F5E502C005900D92AA3EB107D9F725E0D6
:1005E000AAEEB1E001C01D92A730B207E1F70E9468
:1005F000AC190C94B22A0C940000EDEBF4E060838B
:10060000418324E630E042E050E0BF01880F0E94C1
:10061000A1040895EF92FF921F93CF93DF937B0184
:10062000182F110FD0E0C0E0C093BD04D701AC0F6C
:10063000BD1FEEEBF4E08D91819384E0EE3CF80772
:10064000D1F724E630E041E150E06DEB74E0812F1A
:100650000E94A1046096C03CD10531F7DF91CF9193
:100660001F91FF90EF900895CF93DF93C82F45EC33
:100670006EEF0E94FD0240E06DEF8C2F0E94FD02A4
:10068000D0E040E06D2F8C2F0E94FD02DF5FD8315B
:10069000C1F745EC6EEF8C2F0E94FD0241E06DEF3B
:1006A0008C2F0E94FD02D0E040E06D2F8C2F0E9425
:1006B000FD02DF5FD03CC1F745EC6EEF8C2F0E944E
:1006C000FD0243E06DEF8C2F0E94FD0240E06FE0E1
:1006D0008C2F0E94FD0240E060E18C2F0E94FD0201
:1006E0004FEF61E08C2F0E94FD0241E060E08C2F13
:1006F0000E94FD028FE39CE90197F1F700C0000022
:10070000DF91CF9108958036910548F4880FE82F46
:10071000F0E0E35CFC4F608381E080931D0208956C
:100720001F93CF93DF93182FD0E0C0E0612FCE014D
:100730000E9483032196C036D105C1F7DF91CF9186
:100740001F910895880FE82FE695E695E695F0E06D
:10075000E351FE4F2081382F377081E090E001C0D7
:10076000880F3A95EAF7662331F0822B808381E087
:100770008093EC01089580958223F8CFCF93C82F02
:1007800080911D02882379F045EC6EEF8C2F0E943A
:10079000FD0241E06DEF8C2F0E94FD026DE373E0DE
:1007A0008C2F0E940A0310921D02CF9108950F937F
:1007B0001F93CF93DF93D82F8091EC018823C9F04A
:1007C00045EC6EEF8D2F0E94FD0240E06DEF8D2F06
:1007D0000E94FD020DEE11E0C0E0F80141918F0191
:1007E0006C2F8D2F0E94FD02CF5FC831B1F71092A0
:1007F000EC01DF91CF911F910F9108951092B900F4
:100800008CE08093B8000895B0E0A0E0EAE0F4E066
:100810000C945B28B82EEB010E94DA206C01EE24C8
:10082000E394F12CC431D10560F025E0E22EF12CE7
:10083000CF3FDC0731F0CE0164E170E00E94042874
:100840007B0184EAA82E94E8992E1092BC00A09215
:10085000BC000E94DA208C018091BC0087FF0DC093
:100860008091B900887F883001F18091B900887F3C
:100870008031D9F00FEF1FEF09C00E94DA20801BF2
:10088000910B8E159F0540F30EEF1FEFCF3FDC0756
:10089000E1F2C6010E94F2208C179D07B0F2C80158
:1008A000CDB7DEB7EBE00C947728B092BB00909206
:1008B000BC000E94DA208C018091BC0087FF0AC036
:1008C0008091B900887F883111F0803499F610E06A
:1008D00000E0E5CF0E94DA20801B910B8E159F056A
:1008E00058F3D2CF0F931F93CF93DF93EB018093F5
:1008F000BB0084E88093BC000E94DA208C018091C8
:10090000BC0087FF11C02091B900287F81E090E0F2
:10091000283211F490E080E0919581959109DF9162
:10092000CF911F910F910895CF3FDC0741F30E94B3
:10093000DA20801B910B8C179D0708F38EEF9FEF39
:10094000EECFB0E0A0E0E7EAF4E00C945E286B01A3
:100950008A017901B9010E940404E6010C0D1D1DF4
:10096000C017D10711F097FF08C024E92093BC00FD
:10097000CDB7DEB7E8E00C947A28B70189910E94E0
:100980007204EECFCF930E94FE0380E50E943403F1
:10099000C0E061E08C2F0E94A203CF5FC036C9F790
:1009A00060E080E50E94D703CF91089580911F02F7
:1009B00081110EC081E080931F028DE08093910031
:1009C0009FB7F89423E020939900809398009FBFED
:1009D0000895E1E7F0E0808182608083089580934C
:1009E0002902089580932802089580E00E949003D0
:1009F000089580910D010E9490030895FF920F9336
:100A00001F93CF93DF93F82E0E94022A60E670E0D6
:100A10000E941828D0E0C0E08C011127F11003C01B
:100A20000C171D0731F40E94022A682FCE010E9484
:100A300083032196C036D10589F7CDB7DEB7E5E04F
:100A40000C947D281F920F920FB60F9211242F93B2
:100A50003F934F935F936F937F938F939F93AF9346
:100A6000BF93EF93FF9380911E028431A0F48F5FB8
:100A700080931E02FF91EF91BF91AF919F918F9153
:100A80007F916F915F914F913F912F910F900FBE8A
:100A90000F901F9018958091240290912502A091AB
:100AA0002602B09127020196A11DB11D8093240258
:100AB00090932502A0932602B093270280912002F2
:100AC00090912102A0912202B09123028F3F2FEF3B
:100AD0009207A207B20759F00196A11DB11D80939C
:100AE000200290932102A0932202B09323028091CE
:100AF0002902882321F080910B0180FD1CC02091E8
:100B00000C01222381F140EB54E0249FC001259F7A
:100B1000900D1124092E000CAA0BBB0B4091200252
:100B2000509121026091220270912302841795074F
:100B3000A607B707C0F480E090910A0180930A01EC
:100B4000813039F0882311F0823031F00E94F504B1
:100B500091CF0E94F9048ECF81E0923009F480E0B9
:100B60000E94FE0487CF80910E01E6CF47E050E05F
:100B700067E270E08BE091E00E941F2A089547E051
:100B800050E067E270E08BE091E00E943D2A08951A
:100B900060E080E50E94BE03089580910E0190E020
:100BA00001968430910514F083E090E080930E016B
:100BB0000E94BF05089580910E018150990B97FF07
:100BC00002C090E080E08430910514F083E090E072
:100BD00080930E010E94BF05089580910F0190E05F
:100BE00001968430910514F083E090E080930F012A
:100BF0000E94BF05089580910F018150990B97FFC6
:100C000002C090E080E08430910514F083E090E031
:100C100080930F010E94BF05089580910D0190E01F
:100C200008968F3F910519F014F08FEF90E08093B4
:100C30000D010E94BF05089580910D018850990B08
:100C400097FD80E080930D010E94BF050895FB0190
:100C50002281222341F01092200210922102109250
:100C600022021092230282302FE5920729F148F4E4
:100C700081152FE5920799F081309F45B9F081E009
:100C8000089584302FE5920719F1E0F085309F45F3
:100C9000B1F78281882349F00E94FB0505C082815B
:100CA000882319F00E940D0680E008958281882330
:100CB000E1F30E941C06F8CF82818823B1F30E94E1
:100CC000CD05F2CF8281882381F30E94DB05ECCF32
:100CD0008281882351F30E94ED05E6CF0E94C8056A
:100CE0000E94AF1708950F931F93CF93DF93EC01EA
:100CF0008B010E942706C0318FE5D80751F0C13122
:100D0000EFE5DE07C9F0B801CE010E940707C82F42
:100D10000DC0F801C28181E0CC2391F00E949C0EAD
:100D200043E062E081E00E949D08C0E08C2FDF91EB
:100D3000CF911F910F910895F801C28182E0ECCF0D
:100D40000E94BE0E43E062E081E00E949D08EECF6B
:100D5000CF93C82F0E94F2048C2F0E94110ACF91CA
:100D6000089581E00E94EF04089580E00E94EF045E
:100D7000089583E290E00E942F2A823289F484E26F
:100D800090E00E942F2A843059F485E290E00E947E
:100D90002F2A91E0803309F090E0892F8170089527
:100DA00080E0FCCF0E94B906882349F00E94B60576
:100DB0000E94C2040E94D6040E94E90408950E9481
:100DC000BF05F6CFCF93C82F6FEF811162E283E2A8
:100DD00090E00E944D2A6FEFC11164E084E290E040
:100DE0000E944D2A6FEFC11160E385E290E00E94FE
:100DF0004D2ACF9108950E94D20681E00E94E2061A
:100E00000E94AE17089580E00E94391A0895FB01F0
:100E10008F3A2DE5920709F46DC048F4813E9105A3
:100E2000C1F08E3A9D4509F45CC081E00895893B8C
:100E30002DE59207E1F18A3B2DE5920709F445C0C3
:100E4000803B9D4591F78281882379F38FEA90E07A
:100E50004EC08281882351F082E00E946B0B0E9479
:100E6000DA2090932B0280932A02DFCF80912A020E
:100E700090912B020E94F2208536910520F082E0AD
:100E80000E94720BD2CF81EE0E94700A81EE0E9406
:100E9000F90A82E00E94720B82E00E949C0E63E0DD
:100EA00082E00E94A61381E00E94C413BECF82811B
:100EB000882309F4BACF84E00E94391A80E00E94A6
:100EC000BE0E81E00E949C0EB0CF8281882309F47F
:100ED000ACCF80E00E94391A81E00E94BE0E80E013
:100EE000F1CF8281882309F4A0CF82EB90E00E94A9
:100EF000020A9BCF8281882309F497CF8CEA90E085
:100F0000F6CF9C013A9521153F4150F5FC01EE27A3
:100F1000F170BC0166277270AC01442754709C01CB
:100F20002227387094FF0EC080E1EF2B09F480E097
:100F3000672B09F08062452B09F08064232B89F030
:100F40008068089581E0EF2B09F480E0672B09F0B9
:100F50008260452B09F08460232B19F08860089586
:100F600080E00895CF93DF93EB010E948107FE019B
:100F70000995DF91CF910895CF93DF93EC01805EC7
:100F80009109089720F063EC7DE0209711F46BE65F
:100F90007BE0CE010E94B2078C2F0E94700ADF9185
:100FA000CF910895CF93DF93EC010E94F90ACE010F
:100FB000805E9109089720F06AEC7DE0209711F49B
:100FC00062E77BE0CE010E94B207DF91CF910895E6
:100FD000CF93DF93EC010E94BC07C933D10549F4DC
:100FE0002FEF87EE93E0215080409040E1F700C062
:100FF0000000CE010E94D207DF91CF91089581E0D9
:10100000089508950E9401080895A5E0B0E0EBE07E
:10101000F8E00C94632849835A8330912D0289812A
:101020009A81311119C0662399F0222389F00E9418
:10103000B70F182F682F89819A810E94940F6981B8
:101040007A81812F0E946F162596E3E00C947F2809
:101050000E94A50F182FF3CF0E94B70F69817A81E4
:10106000F1CFFC01262F40815181628173818481FF
:101070000E940508089581E00895CF93DF93EC0165
:1010800060E00E943108BE010E940208DF91CF910A
:1010900008958F929F92AF92BF92CF92DF92EF927C
:1010A000FF920F931F936B017C0181E090E0A0E021
:1010B000B0E04C015D0104C0880C991CAA1CBB1C4B
:1010C0004A95D2F7B501A4014C015D0104C0880C1A
:1010D000991CAA1CBB1C2A95D2F7482959296A29B0
:1010E0007B2904C0880F991FAA1FBB1F0A95D2F73E
:1010F0008A019B010C211D212E213F210417150778
:101100002607370789F48C299D29AE29BF29BC0100
:10111000CD011F910F91FF90EF90DF90CF90BF9086
:10112000AF909F908F90089580959095A095B095E1
:101130008C219D21AE21BF21EACF0F93382F262F7E
:1011400060916A0270916B0280916C0290916D02C5
:10115000042F432F0E9449080E94730E0F91089597
:101160000E94FB0608950E946E06089508950E944D
:10117000E30D0E94B6082FEF84E39CE021508040ED
:101180009040E1F700C0000008950E94B7080E9457
:10119000252108950E94B7080E94492108950F93C0
:1011A0001F93CF93DF938C0161E00E943108EC0123
:1011B000B8010E942C1EB801CE010E947306811155
:1011C00006C080E0DF91CF911F910F910895B80183
:1011D000CE010E94711E8823A1F3B801CE010E94A6
:1011E000521B882371F3B801CE010E94511D882340
:1011F00041F3B801CE010E94861B882311F3B80188
:10120000CE010E94C31C8823E1F2F8018281882369
:1012100061F0CB35FDE5DF0701F158F4C115ECE5D0
:10122000DE0791F0CF3DDC4591F0C8010E94FF0739
:10123000C9CFCD358DE5D80769F090F0C83ADD45C6
:10124000A1F70E94CA08BDCF0E94C508BACF0E946C
:10125000BB14F7CF0E94F513E8CF0E94FF13E5CF30
:101260000E940314E2CF0E94B1060E94210A089551
:101270000E94250A0E94B5060895B0E0A0E0E3E4CC
:10128000F9E00C945F28E82FF0E0E756FC4FD4908B
:10129000282F26952695269530E0F901E75CFB4F2F
:1012A0000491877010E0082E02C0159507950A94E6
:1012B000E2F701701127F901E75DFB4FE490F12C93
:1012C000082E02C0F594E7940A94E2F791E0E9222F
:1012D000FF24F901E75EFB4FC491D0E002C0D59531
:1012E000C7958A95E2F7C170DD270115110519F040
:1012F00081EE0E94700AE114F10419F086EE0E945A
:10130000700A8D2D0E94620BE114F10419F086EE33
:101310000E94F90A0115110519F081EE0E94F90ADF
:10132000CD2B19F08CE20E94620BCDB7DEB7E7E05F
:101330000C947B28EF92FF920F931F93CF93DF9330
:101340008C01F62E8AE0E82EF8018491882309F4B6
:1013500054C0813009F04DC0E8012196FE0184910E
:10136000813091F42196FE0184910E94620B8E01DE
:101370000F5F1F4F8F2D815038F3EFE9FFE031975A
:10138000F1F700C00000F7CF823039F4E80122966F
:10139000FE0184910E94700AEACF833039F4E8019B
:1013A0002296FE0184910E94F90AE1CF8430F9F679
:1013B000E8012296FE01249190E080E0FE01319642
:1013C0002053330B2A30310548F0019780F2EFE9C2
:1013D000FFE03197F1F700C00000F7CFE89EA001D1
:1013E000E99E500D1124C901840F951F2491EF012E
:1013F000E5CF0E943D09E801BACFCDB7DEB7E6E000
:101400000C947C2860E00E949A090895982F9F70A0
:101410009A50963020F0805D0E943D090895895AC7
:10142000FBCF089581E008950E94120A089508955F
:10143000CF93C82F0E94A8068C2F0E94140ACF9128
:10144000089580E00E94180A08950E94241F0E94B7
:10145000180A08950E94241F90912C02981721F0D9
:1014600080932C020E94180A0895ABE0B0E0EBE3F1
:10147000FAE00C9464284F83588769877A878B87B2
:1014800061110E9440131E821D8285E0FE01379685
:10149000DE01119601900D928A95E1F78C819D8174
:1014A000892B61F449815A816B817C818D819E8178
:1014B0000E9463122B96E2E00C94802889819A8125
:1014C00089238F3F79F3CE0101960E943B08811159
:1014D000E9CFF0CFFC01808191810E94F10F089546
:1014E000CF93C82F8823C9F08238C9F40E94241FE3
:1014F00081FD13C089E30E94F2120E9461132FEF55
:1015000081EE94E0215080409040E1F700C000005F
:1015100089E30E94FA120E946113CF9108958338E3
:10152000A1F40E94241F80FDF8CF83E50E94F212EF
:101530000E9461132FEF81EE94E021508040904093
:10154000E1F700C0000083E5E4CF8438A1F40E94F5
:10155000241F82FDE2CF87E40E94F2120E946113F1
:101560002FEF81EE94E0215080409040E1F700C0E1
:10157000000087E4CECF8CEF8C0F813A90F46C2F73
:1015800080915E0190915F010E948E1F882329F057
:101590008C2F0E94FA120E9461138C2F0E94F2126B
:1015A000BACF80E28C0F883048F4C77081E001C068
:1015B000880FCA95EAF70E941D13ADCFEBE5EC0F3B
:1015C000E33040F4F0E0E356FE4F808190E00E946B
:1015D0004E1FA3CFC85AC73108F09FCFEC2FF0E0C1
:1015E000EE0FFF1FE159FE4F808191810E94641F21
:1015F00094CF882309F44DC0823879F40E94241FC7
:1016000081FF47C089E30E94F2120E94611389E3BF
:101610000E94FA120E9461130895833859F40E94BF
:10162000241F80FF36C083E50E94F2120E946113DE
:1016300083E5EECF843859F40E94241F82FF29C02D
:1016400087E40E94F2120E94611387E4E1CF9CEFCD
:10165000980F913AE8F290E2980F983050F4877022
:1016600091E001C0990F8A95EAF7892F0E94231310
:10167000D1CF9BE5980F933028F490E080E00E9452
:101680004E1F0895885A873120F490E080E00E9430
:10169000641F08951F93CF93DF93182FEB010E94CF
:1016A000700A209739F4812F0E94F90ADF91CF91B7
:1016B0001F9108958FE99FE00197F1F700C00000A6
:1016C0002197EFCF70E060E0893311F460E570E0BE
:1016D0000E944A0B0895882321F00E941D130E9446
:1016E00061130895882321F00E9423130E9461133F
:1016F0000895B0E0A0E0EFE7FBE00C945D286C01FA
:10170000D62FC72FFC011281F580F2949FE0F922B9
:101710000E941313E82E8823B9F0E12E1123A1F0C3
:101720008C2F807F803421F080E28D0F8830D0F0C4
:101730008091D20482FF16C082E00E94C4130E94EE
:10174000131391E0E82EE926BC2EB2948FE0B82264
:10175000FBE0FB1508F468C0EB2DF0E0EC54F54D10
:101760000C944E28E12CF0CF0C2F0F70C07F11F09D
:101770000295007F112399F0002359F080E28D0F2C
:10178000883010F0D11107C0802F0E941D130E94D5
:1017900061138D2F41C0802F0E943313F8CF8D2FFE
:1017A0000E94F90A002309F43FC080E28D0F8830BF
:1017B00010F0D11104C0802F0E94231303C0802F8A
:1017C0000E9439130E9461132FC00C2F0F70C07F2D
:1017D000C03211F00295007FDD2381F0D13009F491
:1017E00063C0112309F46DC0FF2009F463C0F60142
:1017F000858180FFCECF8F7085835CC08091D204BD
:1018000082FD33C0112359F0002329F0802F0E945C
:101810001D130E94611380E00E94700A05C080E0E1
:101820000E94F90A0111C7CFEB2DE850FF0B349746
:1018300020F40E94241F0E94180AEE2089F00E94C2
:101840000F1380FD0DC0F60112820E9409130E9441
:101850009C0EC6010E94990D0E9409130E94BE0EA3
:10186000CDB7DEB7E9E00C947928112389F0F110A7
:1018700006C00E944313802B0E946B0BD5CF21E042
:10188000F212F7CF0E944313802B0E944A13CCCF51
:10189000F11006C00E945713802F0E94720BC4CF14
:1018A00031E0F31609F2F6CF112331F085E08F1500
:1018B00008F4BACF802FE0CF94E09F1508F4B4CF9E
:1018C000EBCFFF2049F3D93349F4FFEF27EE33E0A4
:1018D000F15020403040E1F700C000008D2F0E9401
:1018E000F90AA2CF8C2F86958695837069F0813096
:1018F00009F09ACF8D2F9C2F9370111102C090E0A8
:1019000080E00E94641F90CF8D2F9C2F9370111147
:1019100002C090E080E00E944E1F86CF8C2F837023
:1019200009F041C0111180CF4D2F42954695477067
:10193000440F440F0D2F0F7010E030E020E0042E14
:1019400004C0000F111F221F331F0A94D2F760E05A
:1019500070E0CB01D4FF0FC06FE070E080E090E05A
:1019600004C0660F771F881F991F4A95D2F76095AC
:10197000709580959095C695C695C370602B712B18
:10198000822B932BC23049F058F4C13019F00E94D9
:10199000470E4ACF0E94340E47CF0E945A0E44CFC2
:1019A0000E94310E41CF8695112311F08C2F81704A
:1019B000882309F439CF4D2F429546954770440F3F
:1019C000440F0D2F0F7010E030E020E0042E04C013
:1019D000000F111F221F331F0A94D2F760E070E03E
:1019E000CB01D4FF0FC06FE070E080E090E004C056
:1019F000660F771F881F991F4A95D2F760957095DB
:101A000080959095C695C695C370602B712B822BDF
:101A1000932BC23049F058F4C13019F00E94170FCF
:101A200003CF0E94040F00CF0E942A0FFDCE0E9418
:101A3000730EFACECF70112329F08C2F0E949C0ECA
:101A40008D2F1ACF8D2F0E94720B8C2F0E94BE0EED
:101A5000EBCED23F51F160F4D03FB9F0D13F81F0ED
:101A6000112309F449C0F11094CE8C2F8F7121C03D
:101A7000D33F11F1D43FA1F78091D20482FD26C05B
:101A80008C2F8F71112311F314C0112349F084E0BE
:101A90008F1508F4C9CE8C2F8F710E94E20EC4CE30
:101AA00095E09F1508F4C0CEF6CF8C2F8F711111E1
:101AB000CDCF0E949C0EB8CE112329F08C2F8F71B0
:101AC0000E94860EB1CE0E94800EAECE112349F048
:101AD000CF718C2F0E949C0E63E08C2F0E94A61366
:101AE000A3CE81E00E94C413E1E0EF1508F09CCE84
:101AF00082E00E94C41398CEF110E5CE8C2F8F7136
:101B0000A5CF0F931F93CF93DF93EC016881798169
:101B10008A810E94FC0F8C010E943D0F0E94300EB2
:101B2000B801CE010E94790BDF91CF911F910F91E7
:101B30000895CF93DF93EC018B819C81892B29F051
:101B40008881998189238F3F51F4DF91CF91089546
:101B5000CE010E94810DCE010E943D08F6CFCE013C
:101B60000E94CF088111F4CF0E941313882369F3D8
:101B70008A81882351F38091D20482FFE6CF82E0EC
:101B80000E94C413E2CF882321F00E9433130E94E5
:101B900061130895882321F00E9439130E94611374
:101BA000089590E080E00E944E1F90E080E00E9447
:101BB000641F0E9440130E94611308950E94021343
:101BC0000E94D10D08950E942D130E94DE0D0895EC
:101BD00092959F70963091F058F4925F9F7092307A
:101BE00058F4803F19F030F4883E30F481E00895D5
:101BF0009A5FF4CF843FD1F380E00895883EB0F33C
:101C0000813FD1F7F3CFFC01808191810E94F10FD8
:101C10000E94E80D0895A5E0B0E0E1E1FEE00C943B
:101C200064282596E2E00C948028A6E0B0E0EBE181
:101C3000FEE00C9464282696E2E00C948028089537
:101C40000E941F0E08950E94200E60936E027093F2
:101C50006F0280937002909371020E94D10D0895DB
:101C600008950E94230E08950F931F9300916E0212
:101C700010916F022091700230917102602B712BD4
:101C8000822B932B0E94230E1F910F9108950F9387
:101C90001F9300916E0210916F022091700230919B
:101CA000710260237123822393230E94230E1F91CC
:101CB0000F9108950F931F9300916E0210916F0280
:101CC000209170023091710260277127822793273B
:101CD0000E94230E1F910F9108950E941F0E0895D8
:101CE0000E946D0E08950E94700E60936A027093B8
:101CF0006B0280936C0290936D020E94D10D089547
:101D000060E070E0CB010E94730E08950F931F9363
:101D100041E050E060E070E08A019B0104C0000FE8
:101D2000111F221F331F8A95D2F7C901B8010E94E3
:101D3000730E1F910F9108950F931F9341E050E090
:101D400060E070E004C0440F551F661F771F8A953E
:101D5000D2F780916A0290916B02A0916C02B091CF
:101D60006D028A019B01082B192B2A2B3B2BC901E1
:101D7000B8010E94730E1F910F9108950F931F9346
:101D800041E050E060E070E004C0440F551F661F62
:101D9000771F8A95D2F7CB01BA016095709580952F
:101DA000909500916A0210916B0220916C02309123
:101DB0006D0260237123822393230E94730E1F916F
:101DC0000F9108950F931F9341E050E060E070E0A1
:101DD00004C0440F551F661F771F8A95D2F7809164
:101DE0006A0290916B02A0916C02B0916D028A011F
:101DF0009B01082719272A273B27C901B8010E9400
:101E0000730E1F910F9108950F931F9300916A0213
:101E100010916B0220916C0230916D02602B712B3E
:101E2000822B932B0E94730E1F910F9108950F9395
:101E30001F9300916A0210916B0220916C02309105
:101E40006D0260237123822393230E94730E1F91DE
:101E50000F9108950F931F9300916A0210916B02E6
:101E600020916C0230916D026027712782279327A1
:101E70000E94730E1F910F9108950895262F2770C9
:101E800091E001C0990F2A95EAF723E076956795CE
:101E90002A95E1F725E0269FF001279FF00D1124F8
:101EA000E40FF51F50E040E0682F70E08191DF0102
:101EB00011979B01042E02C0369527950A94E2F7EC
:101EC000217021952827292328272C934F5F5F4FC6
:101ED0004530510559F70895A82FA77023E096952E
:101EE00087952A95E1F725E0289FF001299FF00DBD
:101EF0001124E60FF71F50E040E080E0219130E030
:101F00000A2E02C0369527950A94E2F721703327EE
:101F1000042E01C0220F0A94EAF7822B4F5F5F4F15
:101F20004530510559F70895262F963068F48031D1
:101F300058F430E1939FB0011124680F711D4EE2F7
:101F400052E0822F0E943E0F0895963070F4803147
:101F500060F440E1949F900111246EE272E0820FE0
:101F6000932F911D0E946C0F089580E00895B0E0BA
:101F7000A0E0EDEBFFE00C945D288C01C0906A02BC
:101F8000D0906B02E0906C02F0906D0280916E0236
:101F900090916F02A0917002B0917102C82AD92A63
:101FA000EA2AFB2ACFE1D0E0BC2ED701C6010C2ED5
:101FB00004C0B695A795979587950A94D2F780FDAA
:101FC00009C0219788F7B12C8B2DCDB7DEB7E9E09A
:101FD0000C947928B8018C2F0E948B16019789F3F5
:101FE000F3CFCF93DF93EC010E94B70FBE010E94A5
:101FF0008B16DF91CF9108951F93CF93DF93EB0161
:1020000090912D02992339F0CB010E94F10FDF91BD
:10201000CF911F910895882369F0CB010E94B70FDB
:10202000182F682FCE010E94940FBE01812F0E94AD
:102030008B16EDCFCB010E94A50F182FF6CF1F9363
:10204000CF93DF93C091720216E0809173028C13DC
:1020500004C0DF91CF911F910895D0E01C9FF00143
:102060001D9FF00D1124EC58FD4F4081518162817C
:102070007381848195810E94150E2196C770E5CFEA
:102080004091A4025091A5026091A6027091A7020E
:102090008091A8029091A9020E94150E08952091A6
:1020A00072029091730256E0291302C080E00895F5
:1020B00030E0529FF001539FF00D1124EC58FD4F7A
:1020C0007181761306C07081781303C07281741316
:1020D00004C02F5F3F4F2770E7CF81E008951F9323
:1020E000CF93DF938091A902807F09F049C080914E
:1020F000A602882309F444C080917202C091730241
:102100006091A4027091A502A091A702B091A802CB
:10211000D62FD72316E0C81799F190E0109711F049
:10212000DF3F19F401968770F6CF189F9001199F31
:10213000300D1124F901EC58FD4F41814713F2CFC6
:1021400040814613EFCF42814111ECCF438154814E
:102150004A1B5B0B483C510528F78091A9028F7000
:1021600080618093A902F901E758FD4F80818F704B
:102170008061808384EA92E00E94990D0E941F1082
:10218000DF91CF911F910895A1E1B0E0EAECF0E179
:102190000C945A288C0185E0F801DE011D9601900F
:1021A0000D928A95E1F7D8011296EC90129784EA85
:1021B000A82E82E0B82E4091A7025091A8024115A6
:1021C000510509F461C19091A4022091A502892FC3
:1021D00082238F3F09F458C1CC901196DC9011975F
:1021E00013968D909C901497F090A602F401E41B36
:1021F000F50BFF2009F4F6C08091A902382F307F3B
:10220000E83CF10508F0B0C031117BC0FE2CD212C1
:1022100017C09C1115C0E11013C08F7080618093AE
:10222000A9020E944010C5010E94990D8091A90247
:10223000D80115968C938F2D6196ECE00C9476283E
:102240008114910429F08D2D8C218F3F09F038C124
:1022500080E080FF15C04E2D6D2D8C2D0E944F10FB
:10226000882371F084EA92E00E94990D86E0E4EA06
:10227000F2E0DF011D928A95E9F70E9440103FC00D
:102280008114910429F08D2D8C218F3F09F015C107
:1022900080E0B82FB170AB2E80FF29C04E2D6D2D80
:1022A0008C2D0E944F10B82E811121C0CD86DE8664
:1022B0008D859E850E94F10F292F22952F70223047
:1022C00050F0243078F49F7051F0F8019581907FA0
:1022D00031F4FB2CB0CF9F7011F08823D1F3805ED6
:1022E0008830B8F3C8010E94990DBA2CF2CFEE20C5
:1022F00009F4A1CF8091A90281608093A902F12CF9
:102300009ACFD21205C09C1103C0EE2009F487C0F9
:10231000C8010E94030E882319F1EE2009F1809173
:10232000A902803270F02091A4023091A502388772
:102330002F8319869B868A868C87CE0107960E94FA
:10234000990D86E0F801A4EAB2E001900D928A9519
:10235000E1F70E946F100E944010FF24F3946BCFAE
:10236000C8010E94990DF9CF311112C0782D998AB8
:10237000888AA6016E2D89890E940B0E84EA92E05C
:102380000E94990D86E0F50111928A95E9F775CFC3
:10239000D2120FC09C110DC0E1100BC015968C938A
:1023A000C8010E94990D86E0F50111928A95E9F71E
:1023B00042CFC8010E94030E882391F2EE2081F2E1
:1023C0008091A902803208F4BCCF2091A402309100
:1023D000A5023A8329831B829D828C828E83CE0143
:1023E0000196ADCFE83CF10508F040C0FE2CEE2090
:1023F00009F4B6CFD2122CC09C112AC08091A90238
:1024000080FD1DC0982F907FD1F015968C93159765
:10241000903F39F0982F907F905F8F70892B1596A1
:102420008C93C8010E94990D86E0F801A4EAB2E0FD
:1024300001900D928A95E1F70E944010FCCE86E053
:10244000F801A4EAB2E001900D928A95E1F7F3CE8B
:10245000C8010E94030E811174CF8091A90281608E
:102460008093A902C8010E94990DE5CE782D998A22
:10247000888AA6016E2D89890E940B0E86E0F501DF
:1024800011928A95E9F7D8CFEE2009F469CFC801F7
:102490000E94030EF82E882309F462CF86E0F8012B
:1024A000A4EAB2E001900D928A95E1F784EA92E005
:1024B0000E946A0A0E946F10BFCF81E08E25E9CE8C
:1024C00081E08E25C6CEACE0B0E0E9E6F2E10C9406
:1024D00063284F83588769877A878B879C87CE01CB
:1024E00007960E94C410882369F08A859B85892BF2
:1024F00039F04F815885842F85238F3F09F06BC0B9
:1025000016E05FC086E0FE013796DE01119601906D
:102510000D928A95E1F78A859B85892B89F38F81B6
:10252000988589238F3F61F32091730230E0C901C0
:10253000019687709927409172024817190671F425
:102540000E94E30D109273021092720286E0E4EA98
:10255000F2E0DF011D928A95E9F7D2CF96E0929FD3
:10256000D001939FB00D1124AC58BD4FFE013196A0
:1025700001900D929A95E1F7809373020E941F10CB
:10258000BFCF819FC00111248C589D4F0E94C41061
:102590008823E9F0E09172021E9FF0011124EC58AB
:1025A000FD4F4081518162817381848195810E94B8
:1025B000150E8091720290E00196877099278093A2
:1025C000720280917202909173028913DACF2C9675
:1025D000E3E00C947F2869857A858B859C850E9431
:1025E000150E8ECF682F80915E0190915F010E9441
:1025F0000E200895682F80915E0190915F010E94E6
:102600001C20089580915E0190915F010E942A2014
:1026100008958091CA028595859585950895809144
:10262000CA02877008959091CA02977081E009F4F8
:1026300080E008958091ED0208959091ED02892B3C
:102640008093ED02089580959091ED0298239093E8
:10265000ED0208958093ED0208951092ED02089521
:102660008091EC0208959091EC02892B8093EC020A
:10267000089580959091EC0298239093EC02089530
:102680001092EC0208958091CB02089508950E9463
:10269000461308959091D20492FF08C09091CB0206
:1026A000981721F08093CB020E94471308958091E0
:1026B000CB02882329F01092CB0280E00E944713BE
:1026C0000895CF93DF93E0915E01F0915F018091D7
:1026D000ED028083E0915E01F0915F018081909135
:1026E000EC02892B80839091CB02992381F0E091B9
:1026F0005E01F0915F018081892B808380915E0172
:1027000090915F010E947A1F81110E945713C0911E
:102710005E01D0915F0140E250E06AEA72E0CE01D2
:102720000E94122A892B59F080E2FE01AAEAB2E047
:1027300001900D928A95E1F7CE010E94341FDF913E
:10274000CF91089508950E94A21308959091D20404
:1027500092FF11C098E0899F90011124622B609331
:10276000CA020E949C0E8091CA0285958595859526
:102770000E94A31308950E949C0E08951092CA020D
:1027800080E00E94A31308959091CA028095892346
:102790008093CA02282F277091F4282F082E000C4E
:1027A000330B9217130659F09091D20492FF07C091
:1027B0008595859585950E94BE0E0E94BE1308954D
:1027C0009091D20492FB222720F9281769F080FB10
:1027D00092F99093D2048091D1049091D2040E94F6
:1027E000311482E00E94C41308958091D20482FBC8
:1027F000882780F991E089270E94E013089581E0FD
:102800000E94E013089580E00E94E01308956FEFA6
:102810007FEF90E080E00E946B2A089590E080E0D6
:102820000E94372A21E0883E9E4F09F020E0822F47
:10283000089582E090E00E942F2A089583E090E0BE
:102840000E942F2A0895CF9384E090E00E942F2ABF
:10285000C82F82E290E00E942F2A982F8C2FCF91D0
:102860000895CF93C92F682F84E090E00E944D2AED
:102870006C2F82E290E00E944D2ACF910895AB0127
:10288000BC018FE090E00E945F2A0895AB01BC017B
:1028900083E190E00E945F2A089560E070E0CB0140
:1028A0000E944614089560E070E0CB010E943F143E
:1028B0000E944D14089568EE7EEF90E080E00E9443
:1028C0006B2A60E082E090E00E944D2A60E083E0A5
:1028D00090E00E944D2A10926E0210926F021092A8
:1028E00070021092710260E084E090E00E944D2A34
:1028F00064E082E290E00E944D2A60E085E090E092
:102900000E944D2A60E086E090E00E944D2A6FEF21
:1029100087E090E00E944D2A40E050E0BA0188E054
:1029200090E00E945F2A60E08DE090E00E944D2AD6
:1029300040E050E0BA0188E190E00E945F2A60E048
:1029400087E190E00E944D2A40E050E0BA018CE11E
:1029500090E00E945F2A70E060E080E290E00E94D8
:102960006B2A40E050E0BA0188E190E00E945F2AC3
:102970000E94531408950E945B140895682F8EE0FE
:1029800090E00E944D2A08950E94E6206093FE0286
:102990007093FF0280930003909301036093FA0207
:1029A0007093FB028093FC029093FD0208950895BA
:1029B00008950E94D81408950E94030708958AE696
:1029C00097E10E941A1F0E94D7140E94D9140895FB
:1029D00081E008950E94E8140895089508950E94E2
:1029E000ED140E94EE1408950E9489170E94170AA0
:1029F0000E94121A08950E94D1200E9471180E940C
:102A0000F4140E94DC140895AAE0B0E0EAE0F5E1D5
:102A10000C9459280E948718A82E81110E94C41472
:102A20005EEE852E52E0952E10E000E0702E802F95
:102A30000E94B0176C01F401E190F1904F01E8168B
:102A4000F90609F444C08091020381FD0E94B91780
:102A5000C7018C259D25B12CEE24E394F12C9C011B
:102A60002E213F21232B69F10E94EA148823B1F023
:102A7000BE827F82CE20DF2081E0C114D10409F420
:102A800080E088870E94DA208160782F9A87898782
:102A90004E815F8168858A850E94350A000F111F6B
:102AA000F801E251FD4F80819181E826F926F182FB
:102AB000E08281E0A11001C080E02A96EDE00C9454
:102AC0007528B394EE0CFF1CF0E1BF12C8CF0F5F66
:102AD0001F4F0630110509F0A9CF8FEF89838A8334
:102AE0001B820E94DA208160782F9D838C8349812C
:102AF0005A816B818D810E94350ADBCF0E940415BB
:102B00000E94CA1E0E942A0A0895CF93DF930E9452
:102B10009016EC01811522E59207E8F5811531E563
:102B2000930708F0ACC0883E910510F5803E9105F2
:102B300070F5883A910570F4853A910508F078C0EF
:102B40008130910521F1009711F1049700F5D0E053
:102B5000C0E01DC08F3B9105D0F7C85AD0E0CC0F24
:102B6000DD1FC056DE4F0990D881C02DD4640FC040
:102B7000811540E5940708F066C0C11580E4D807C8
:102B800008F05EC0CE019A9581159F4100F7CE01F5
:102B9000DF91CF910895811536E5930718F58115DA
:102BA00045E5940708F083C0C11584E5D80708F00F
:102BB00079C09C2F969596959E0123703327C11559
:102BC000D34508F461C0C1E0D0E002C0CC0FDD1FE6
:102BD0002A95E2F730E2939FC0011124C82BD92B2C
:102BE000DA68D5CFC1158AE5D80778F4C11599E51B
:102BF000D90708F066C0C11528E5D20708F4A7CFA9
:102C0000DC2FCC27C06FD06AC2CFCE019056811581
:102C1000904208F09CCF8D2F8F710E94271790E073
:102C2000982F882788279F719C012C2BE90147C08A
:102C3000C55AD0E0C253DE4FC881D0E0D064A7CFE0
:102C4000DF70D06AA4CFE4E096958795EA95E1F726
:102C500083702C2F26952695237040E2249F9001A7
:102C60001124382B8C2F8370C1E0D0E002C0CC0F30
:102C7000DD1F8A95E2F7C22BD32BDC6888CFD82FD3
:102C8000CC27C16FD06A83CFC1E0D0E002C0CC0FA7
:102C9000DD1F2A95E2F720E2929FC0011124C82B84
:102CA000D92BEBCFDC2FCC27C46FD06A70CF0E941A
:102CB0002717C82FD0E0DC2FCC27CC27DF71D062BC
:102CC00066CF8C2F8F700E94271734E0D695C7955A
:102CD0003A95E1F7CF709C2FEC01D06958CF763050
:102CE000B8F46031A8F4E72FF0E096E0899FE00D9A
:102CF000F11D112484E0EE0FFF1F8A95E1F7E60F26
:102D0000F11DEE0FFF1FE75AFE4F85919491089534
:102D100080E090E008950E946F160E948515089546
:102D200082389105B1F1B0F48133910509F475C091
:102D300048F48932910509F469C08A32910509F491
:102D400073C008958533910509F459C089339105FD
:102D500001F10895833E9105A9F138F4803E910573
:102D6000F9F0823E910549F10895863E9105A9F159
:102D7000873E9105C9F1843E910519F52091D20451
:102D800021FF1FC08091D10484FD14C087EE90E024
:102D900008952091D1042370A1F080EE90E0089571
:102DA0002091D10420FD47C03091D20430FF09C0EA
:102DB00024FF44C090E080E004C02091D10422FDB3
:102DC000F7CF08952091D10422FD3BC03091D20469
:102DD00030FDE3CF24FFF5CFEDCF2091D10423FFC9
:102DE000F0CF24FDE7CFD2CF2091D10423FD2CC01A
:102DF0003091D20431FFEECF84EE90E0089520911F
:102E0000D10425FFDECF89E290E008952091D1041E
:102E100025FFD7CF85E390E008952091D10426FFC8
:102E2000D0CF8AE290E008952091D10426FFC9CF47
:102E300081E390E0089589E390E0089583EE90E0C7
:102E4000089582EE90E0089586EE90E008959091C6
:102E5000D10492FF06C0282F28712830F9F4877F0B
:102E6000846093FF06C0282F28712831F1F4877EF3
:102E700084612091D20420FF06C0382F3871383089
:102E8000D9F4877F816021FF06C0282F287128315F
:102E9000D1F4877E816194FD877E0895282F247167
:102EA0002430F9F68B7F8860DCCF282F2471243101
:102EB00001F78B7E8861DDCF382F3171313019F702
:102EC0008E7F8860E0CF282F2171213121F78E7EFF
:102ED0008861E1CF80E008950E94071408950E9460
:102EE00087182FEF8BE291E0215080409040E1F76E
:102EF00000C000000E94871880E00E94B01780FF89
:102F000004C00E946C170E94252108950E946F172B
:102F100008950E940E14811102C00E94BB140E94E9
:102F20001914809302030E9423149093D204809377
:102F3000D1040E9486170E941E14682F70E090E052
:102F400080E00E94310E60916A0270916B02809164
:102F50006C0290916D020E94700E0895089508957C
:102F6000E82FF0E0EE0FFF1FE152FB4F80819181CF
:102F70000895089580EA8A95F1F7089500C00895AC
:102F80000E94BA170895F894E82FE295EF70F0E0E8
:102F900031A1282F2F7081E090E001C0880F2A9581
:102FA000EAF7982F9095932391A392A1892B82A35E
:102FB00078940895CF93DF93C1EDD1E089918F3F4D
:102FC00011F00E94C31781E0C13ED807B9F7C1EEE6
:102FD000D1E089918F3F11F00E94C31781E0C73E75
:102FE000D807B9F7DF91CF9108958F929F92BF9242
:102FF000CF92DF92EF92FF920F931F93CF93DF93C5
:10300000D82EE92EF62E8A01C62FD0E0CF52DE4F01
:1030100028812F3F09F453C0F894E22FE295EF7016
:10302000F0E031A12F7081E090E001C0880F2A9577
:10303000EAF7932F982B91A392A18095892382A3DD
:1030400078940E94BE1781EE882E81E0982EED2D97
:10305000FE2DBF01645F7F4FE12C6801C094D094C6
:10306000D401BD904D0181919191AF014250510920
:10307000BFEFBB1681F12B2D22952F7030E0D901C7
:1030800090962C9130E0BB2DBF7002C035952795EE
:10309000BA95E2F720FD1FC0802B912BDA018D93AA
:1030A0009C93EE24E394E617F707D1F688818F3FCF
:1030B00011F00E94C3176E2D8F2D0E94C017DF9153
:1030C000CF911F910F91FF90EF90DF90CF90BF9025
:1030D0009F908F9008958C219D21DA018D939C9370
:1030E000E2CF0E94DA178CE0EFEDF4E0DF01982FD9
:1030F0001D929A95E9F7E3EDF4E0DF011D928A95C0
:10310000E9F786E00E94DC180E94B0080895CF928B
:10311000DF92FF920F931F93CF93DF93CDB7DEB76C
:103120002C970FB6F894DEBF0FBECDBF8E010F5F98
:103130001F4F8CE0F80111928A95E9F7F12CCC240D
:10314000C394D12CA6016F2DC8010E94F517F394EA
:10315000CC0CDD1CF0E1FF12F5CF4CE050E0B801E3
:1031600083ED94E00E94122AFF24F394009709F45F
:10317000F12C892B41F08CE0F801A3EDB4E0019033
:103180000D928A95E1F72F2D46E06FED74E083ED07
:1031900094E00E94F7180E94B3088F2D2C960FB66A
:1031A000F894DEBF0FBECDBFDF91CF911F910F917D
:1031B000FF90DF90CF900895CF93C82F20E1829F9A
:1031C000C00111240E948B28809307039093080369
:1031D0009C0180E08C1302C0CF910895F90190E129
:1031E00011929150E9F78F5F205F3F4FF3CFB0E02E
:1031F000A0E0EDEFF8E10C945A28182F092FF62ED5
:10320000E72EB42EC22FD0910403DD2309F46FC042
:103210000E94DA202091050330910603AC01421B85
:10322000530B9A0190930603809305034F3F51057A
:1032300009F0B8F4452B89F01092040310920303AF
:10324000809107034091080330E060E090E0B912FC
:103250000BC06093040330930303C11156C0CD2FFC
:1032600048C02FEF30E0E8CFE82FF42FAF01405FE8
:103270005F4F8191882331F0DF011197281748F0C3
:103280001C923D2FE417F507A1F78E2F4F2F9F5F5C
:10329000DECF821B8C936D2FF5CF6D917D91808158
:1032A000918168277927EA0130E020E08701022E2A
:1032B00002C0000F111F0A94E2F76B01C022D12255
:1032C000C114D10441F0D880D11005C08882802774
:1032D00091279924939421962F5F3F4F20313105F8
:1032E00029F7405F5F4F81939193A3941EC02111F2
:1032F00006C0809103038823E1F0C11106C00E943B
:10330000DA209093060380930503409107035091C0
:10331000080390900403EF2DFE2DA12FB02FA12CB8
:10332000EE24E394F12C9CE0892EBA10B6CF909253
:103330000403CDB7DEB7ECE00C9476280E94DF22C0
:103340000E94FB140E94EC2208950E94F1220E9428
:103350007E150E940B2308950E9473200E94C522AF
:103360000E94DF140E949E190E94A5190E94EF146A
:10337000FBCF0F931F93CF93DF93811520EC920720
:1033800018F1EC01D05C0E941A13182F0E94301320
:10339000182B0E944313082F0E94311F102B12720A
:1033A00091E009F490E086958170981729F0CC0F90
:1033B000CD2FCC1FDD0BD195CE018F779927DF91D3
:1033C000CF911F910F9108959058F9CF97FF13C097
:1033D000FB012281222379F00E94B919FC01EE0F32
:1033E000FF1FEE0FFF1FEB54FF4F65917591859105
:1033F00094910E940A1B81E008959091EC04923010
:1034000071F48A3050F490E009966AE070E00E940E
:103410001828875A0E94620B08958650FBCF0E949D
:10342000060A08958CE090E00E942F2A482F50E071
:1034300070E060E04093EC045093ED046093EE0480
:103440007093EF04882331F0843039F481E0809365
:103450000903089510920903089510920903109228
:10346000EC0408956091EC048CE090E00E944D2AF9
:1034700008958093EC040E94321A08952091090364
:10348000082E000C990B820F911D27FD9A9562E082
:1034900070E00E9418288F3F79F080930903E09133
:1034A00009030E2E000CFF0BE951FE4F8081809323
:1034B000EC040E94321A089581E0EFCF0E94311F80
:1034C000869581708093F1040E94311F81708093F2
:1034D000EB048091EC04813039F48091F10488236D
:1034E00019F089E30E94620B0E941A138093F00482
:1034F0000E942D130E9440138091EC04813089F0CA
:10350000882359F0823091F0843021F18FE39CE9D7
:103510000197F1F700C00000089586EE0E94700A3E
:10352000F5CF88E193E00E94E807F0CF8091EB04AB
:10353000811103C083E50E94620B82EE0E94700A33
:103540008FE39CE90197F1F700C0000087E50E9436
:10355000620BDCCF86EE0E94620B88E1F8CF80918F
:10356000EC04813079F0882349F08230B1F0843066
:10357000E9F08091F0040E942A13089586EE0E94DB
:10358000F90AF7CF8CE20E94620B8091F104882344
:1035900081F389E30E94620BECCF82EE0E94F90A6C
:1035A0008091EB048111E5CF83E5F4CF88E2F2CF7F
:1035B000B0E0A0E0EEEDFAE10C945D286B017C0137
:1035C000C7E0D0E00CE110E0BB24B394D701C60102
:1035D000002E04C0B695A795979587950A94D2F7C3
:1035E0008F70A1F4B11002C00E94FD192197045000
:1035F0001109CF3FDC0729F4CDB7DEB7E9E00C9421
:103600007928C430D10514F7B12CE0CF0E94FD1900
:10361000B12CECCFCF92DF92EF92FF926B017C0145
:10362000C114D10481E1E806F104A0F5C114D1046C
:1036300081E0E806F10420F08091EC04823051F141
:103640000E945E1AC114D10481E0E806F10438F149
:103650008091EC04811123C081E0E81AF108C701D0
:10366000B6012AE096958795779567952A95D1F7C3
:1036700078528F4F9F4F0E94D81A83E0D822EE24B1
:10368000FF24C701B60174528F4F9F4F0E94D81A72
:103690000E94AF1AFF90EF90DF90CF900895C7017E
:1036A000B601F4CF0F931F93CF93DF93EC018B01FF
:1036B000FB018281882361F00E941A138272C13E4D
:1036C000FCE5DF07E9F068F4C03EECE5DE07A1F0B9
:1036D000B801CE010E94E619DF91CF911F910F91A1
:1036E0000895C73EFCE5DF0798F78C2F825E809334
:1036F000EC040E94321AECCF811104C081E003C0B7
:103700008111FCCF8FEF0E943E1AE2CFCF93DF935F
:10371000EC01FB018281882309F433C1C430FDE54B
:10372000DF07C0F5CB3F9CE5D90730F49E0122505E
:103730003C4524313105B0F50E9423149093D20406
:103740008093D104C1318CE5D80709F4EEC008F0AC
:1037500069C0C930ECE5DE0709F4D5C0C8F5C5304D
:103760008CE5D80709F4C7C000F5C330ECE5DE07E7
:1037700009F4B9C008F0BBC0C230DC4509F4ADC0E3
:103780008091D1049091D2040E9431140E94E30DE3
:1037900080E008C0C236EDE5DE0771F2C63AFDE50D
:1037A000DF0751F2DF91CF9108958091D1048062BB
:1037B000C7309CE5D90709F493C08091D10480619A
:1037C000C830DC4508F48CC08091D104806488C086
:1037D0008091D1048B7FCD30FCE5DF0709F480C0F8
:1037E00098F48091D1048E7FCB309CE5D90709F401
:1037F00077C08091D1048C60CC30DC4508F470C077
:103800008091D1048D7F6CC08091D1048F7ECF30A8
:10381000FCE5DF0709F464C008F47BC08091D104A3
:103820008F7D5EC0CE3F9CE5D90709F47AC050F584
:10383000C531FCE5DF0709F486C098F48091D10416
:10384000837FC3319CE5D90709F44AC008F471C0ED
:103850000E94E30D9091D104892F97FB87F980583E
:103860003FC0CC3FFCE5DF0709F449C008F055C074
:103870008091D2048160CB3FDC4509F081CF8093F9
:10388000D2047ECFC230EDE5DE0709F468C0A8F4AB
:10389000C1158DE5D80709F452C08091D204836028
:1038A000C130DD4560F38091D204982F90959170DE
:1038B0008E7F892B90FB81F9E2CFC236EDE5DE07E2
:1038C00009F451C0C63AFDE5DF0709F453C0C3301F
:1038D000DD4509F055CF80E043C08091D10481607F
:1038E0008093D1044DCF8091D1048260F9CF809133
:1038F000D1048460F5CF8091D1048860F1CF8091AC
:10390000D2048260BCCF0E94E30D8091D104806814
:10391000E7CF8091D104877FE3CF8091D2048E7F5F
:10392000AECF8091D2048D7FAACF8091D1048F7BBE
:10393000D7CF0E94E30D8091D1048F77D1CF8091B2
:10394000D2048C7F9CCF8091D10482FB992790F97F
:1039500021E0922790FB82F990FB83F9C1CF81E0AF
:103960000E94BE140DCF9091D104892F8F7E94FFB9
:103970008061B6CF9091D104892F8E7F90FF8160B6
:10398000AFCF81E00FCFCF93DF93EB0186319C4522
:1039900011F50E941A139A81992399F08A7A91E07D
:1039A00009F490E090930A03811109C089E20E9412
:1039B000F2120E94611380E0DF91CF91089585E3B8
:1039C000F6CF80910A03811104C089E20E94FA12A5
:1039D000F0CF85E3FBCF81E0EFCF0F931F93CF9321
:1039E000DF93C42FD22FFC0182818823C9F040933A
:1039F0000D030E94DA2090930C0380930B0380E266
:103A00008C0F883040F4C77081E001C0880FCA95E0
:103A1000EAF70E946B0BDF91CF911F910F910895F0
:103A200010910D03141332C080910B0390910C037D
:103A30000E94F220883C910548F5C0E2CD0F1D1789
:103A4000B9F080E2810F883040F4177081E001C046
:103A5000880F1A95EAF70E94720BC83048F481E08B
:103A60009D2F977001C0880F9A95EAF70E946B0B03
:103A7000802F0E94620BC83070F6D77081E001C0C1
:103A8000880FDA95EAF70E94720BC5CF80E28C0F9F
:103A9000883008F6C77081E001C0880FCA95EAF740
:103AA000F2CF0F939C01CB01243F4CE5340759F131
:103AB000A8F4293DFCE53F0701F12A3D4CE5340718
:103AC000D1F1283D3C4591F406E221EE41EE68ED4E
:103AD0007CE50E94ED1C80E00F910895263FFCE5F7
:103AE0003F07E9F0B0F0273F3C45F9F0FC01828147
:103AF000882339F110920D03EFCF07E225EE45EE52
:103B000069ED7CE5E6CF06E221EE40EE64EF7CE570
:103B1000E0CF07E225EE44EE65EF7CE5DACF06E282
:103B200021EE42EE66EF7CE5D4CF07E225EE46EECD
:103B300067EF7CE5CECF08E221E045EE6AED7CE55B
:103B4000C8CF81E0C9CFCF93DF93EC0181E0898BAF
:103B50008F810E941D1388850E9433130E94611378
:103B6000EA81FB81309729F06C897D89CE01069628
:103B70000995DF91CF910895CF93DF93EC01888170
:103B8000823031F4FB0182810E94860E81E08B87B6
:103B9000DF91CF910895DB01FC018081813029F410
:103BA0008D919C910E94BC070895823039F4139640
:103BB000ED91FC91149712968C9109950895FC0152
:103BC0008081813029F4FB01808191810E94D2079C
:103BD0000895EF92FF920F931F93CF93DF93EC0121
:103BE0008A85811134C0EB80FC8087E5F81A26E1D4
:103BF0002E9DC0012F9D900D1124DC01AE5EBE4FA5
:103C00001496ED91FC911597309731F054966D9183
:103C10007C91885E9E4F099586E18E9D80018F9DE7
:103C2000100D11240E5E1E4FF80187810E94231390
:103C3000F80180850E9439130E9461131882198649
:103C40001B861E821D8210920F0310920E03CDB7A9
:103C5000DEB7E6E00C947C28B0E0A0E0E2E3FEE111
:103C60000C945F287C01FB018281882399F080916C
:103C7000600190916101019669F0C2E1D1E010E02C
:103C800000E0DD24D3948091600190916101801760
:103C900091072CF4CDB7DEB7E7E00C947B288E813A
:103CA0008823D9F089859A858E159F0539F48091EE
:103CB0000E0390910F038E159F0579F0DF86FC8629
:103CC000EB868989811103C0CE010E94A31DCE011C
:103CD00006960E94E91D0E9440130F5F1F4F6696D3
:103CE000D2CFEF92FF920F931F93CF93DF937C017C
:103CF00097558F3F910509F0E0F5209160013091D3
:103D000061012817390724F49093610180936001C1
:103D1000FB01228136E1389F8001399F100D11246B
:103D2000E801CE5EDE4F288B92818E81992339F196
:103D3000FA86E9868F5F8E830E94DA209E878D87C0
:103D40000E9443138F830E941A1388870E943013A6
:103D50009885892B8887E881F981309731F06C89C3
:103D60007D89C801885E9E4F0995F0920F03E0920D
:103D70000E0381E0CDB7DEB7E6E00C947C28882303
:103D8000C1F389898823A9F3C801885E9E4F0E94E8
:103D9000E91DEFCFEF92FF920F931F93CF93DF9325
:103DA0008091600190916101019609F040C0CDB70A
:103DB000DEB7E6E00C947C28089FF001099FF00D27
:103DC0001124EE5EFE4FE288F388E114F10419F449
:103DD00028ECE22EF12C089FE001099FD00D112460
:103DE000CE5EDE4F8E818823B9F08D859E850E9440
:103DF000F220E816F90680F4109F700111248989D9
:103E0000811105C0C7018E5E9E4F0E94A31DC70190
:103E1000885E9E4F0E94E91D1F5F812F90E02091D8
:103E20006001309161012817390734F6C0CF10E0E6
:103E300006E1F3CF9093EB018093EA01089590930C
:103E40001503809314030895E0911403F091150372
:103E5000309729F00190F081E02D0995089580E0D8
:103E600008950E94241F0895E0911403F091150312
:103E7000309799F020916E01222359F02091D104BE
:103E800027FF07C0DC012C9111962C93119726E097
:103E90002C930280F381E02D09950895209112035F
:103EA000309113032817390771F09093130380930F
:103EB0001203E0911403F0911503309721F006806E
:103EC000F781E02D09950895209110033091110399
:103ED0002817390771F09093110380931003E09134
:103EE0001403F0911503309721F00084F185E02D43
:103EF00009950895FC01329680916E01882321F086
:103F00008091D1049EE187FF96E080E0915008F413
:103F1000089521912223D1F38F5FF8CF662301F119
:103F200020916E012223F1F02091D10427FF1AC0C5
:103F3000462F4695469546954E3190F4677021E0A0
:103F400030E002C0220F331F6A95E2F7840F911D03
:103F5000FC01828190E02823392381E0232B69F43E
:103F600080E00895FC01329608962191261721F0F1
:103F7000E817F907D1F7F4CF81E008959C01FC011F
:103F800032969FEF80E04191461751F09F3F19F420
:103F9000411101C0982F8F5F8630A9F79F3F09F428
:103FA0000895290F311D97FD3A95F901628308950F
:103FB000FC01329608962191261303C0DF01119768
:103FC0001C92E817F907B9F70895E62FE695E695EC
:103FD000E695EE3168F4E80FF92FF11D677021E0E6
:103FE00030E001C0220F6A95EAF78281822B82833A
:103FF0000895E62FE695E695E695EE3170F4E80F24
:10400000F92FF11D677021E030E001C0220F6A95A1
:10401000EAF72095828128232283089520916E015A
:10402000222339F02091D10427FF03C00E94E51F0D
:1040300008950E94BE1F089520916E01222339F039
:104040002091D10427FF03C00E94F91F08950E9408
:10405000D81F0895FC01329680916E01882351F09B
:104060008091D10487FF06C08EE1DF011D928A9501
:10407000E9F7089586E0F9CF08950E943C2008955D
:10408000811106C081E0809316030E943D200895AF
:1040900082E0F9CF83E0809316030E943D200895CB
:1040A0000E944020089581E0809316030E943D20E5
:1040B00008950E945320089508950895CF930E9473
:1040C0005C200E9487180E945D20C0E08C2F0E9417
:1040D000B017892B31F4CF5FC630C1F780E0CF91A4
:1040E000089581E0FCCF85B7806885BF85B780687B
:1040F00085BF08951F921FB61F9211248F939F931F
:10410000AF93BF9380911703811113C08091F20484
:104110009091F304A091F404B091F5044196A11D8F
:10412000B11D8093F2049093F304A093F404B09330
:10413000F504BF91AF919F918F911F901FBE1F906B
:1041400018958091FA04843031F10E94330910925D
:10415000170388E190E020E40FB6F894A8958093C7
:1041600060000FBE2093600083B7817F846083BFAF
:1041700083B7816083BF7894889583B78E7F83BF30
:104180000FB6F894A89580916000886180936000D4
:10419000109260000FBE08950E94E30D0E9438093E
:1041A000089582E084BD93E095BD9AEF97BD80931A
:1041B0006E0008952FB7F8948091F2049091F30463
:1041C000A091F404B091F5042FBF08952FB7F8948F
:1041D0006091F2047091F3048091F4049091F504DD
:1041E0002FBF08959C014FB7F8948091F2049091ED
:1041F000F304A091F404B091F5044FBF821B930B1C
:10420000089578941F921FB61F9211248F939F9345
:10421000AF93BF938091F2049091F304A091F404C2
:10422000B091F5040196A11DB11D8093F204909305
:10423000F304A093F404B093F504BF91AF919F9160
:104240008F911F901FBE1F90189581E08093E00012
:1042500080E28093D8001092C9008FE19EE401971C
:10426000F1F700C0000087E090EBDC0180930705C8
:1042700090930805A0930905B0930A0588E19CE096
:104280000FB6F894A895809360000FBE90936000DD
:10429000FFCF88E19CE00FB6F894A895809360006A
:1042A0000FBE90936000FFCF80913B030895089567
:1042B000CF93DF93EC0180916E018823B1F180915F
:1042C000D10487FF32C060E282E08093E9008FEF83
:1042D0009091E800815095FD06C095ED9A95F1F713
:1042E00000008111F5CF8091E80085FF1BC080910F
:1042F0006E0170E050E040E0811104C050E040E009
:1043000068E070E0CE010E947D238091E8008E7706
:104310008093E80080E2FE01ABE1B3E001900D92F2
:104320008A95E1F7DF91CF91089568E081E0CDCFE4
:104330008093180370931A03609319038091FA0411
:10434000843001F582E08093E9008FEF9091E800DE
:10435000815095FD06C095ED9A95F1F70000811109
:10436000F5CF8091E80085FF0DC050E040E063E0AC
:1043700070E088E193E00E947D238091E8008E77D1
:104380008093E8000895BC0184E00E94982108957C
:10439000BC0183E00E949821089508958091F9045A
:1043A000811109C00E940D250E946A258091E200BA
:1043B00084608093E20008951092F90408950E94A9
:1043C000532008956091F60481E0611101C080E0FE
:1043D0000E944A2008959091FA0481E0943009F0F7
:1043E00080E06091F6040E945020089542E061EC64
:1043F00081E00E94892442E261EC82E00E948924EB
:104400009091FA0481E0943009F080E06091F60424
:104410000E94402008958091FC04833009F461C01B
:1044200030F48130D1F1823009F49EC008958A3091
:1044300009F48AC08B3009F46FC0893009F050C08C
:104440008091FB04813209F04BC08091FF04909170
:104450000005029708F044C08091E800877F8093B0
:10446000E8008091E80082FF37C09091F3008091CE
:10447000F200029731F48091F100813011F0863022
:1044800021F48091F10080933B038091E8008B77C9
:104490008093E8000E94BD2423C08091FB04813AF0
:1044A000F9F48091E800877F8093E8008091FF0411
:1044B00090910005892B61F460E28BE193E070E05C
:1044C0000E94CC238091E8008B778093E8000895C8
:1044D00060E090E080E0F3CF8091FA048111C1CFD9
:1044E00008958091FB04813AD9F78091FF0490915F
:1044F0000005892BA9F78091E800877F8093E80069
:104500008091E80080FFFCCF80916E018093F100E4
:104510008091E8008E77BCCF8091FB04813201F757
:104520008091FF0490910005892BD1F68091E800DD
:10453000877F8093E8000E94BD248091FD048093D2
:104540006E010E94E30D08958091FB04813241F6D3
:104550008091E800877F8093E8000E94BD248091CD
:10456000FE0480933C0308958091FB04813A09F096
:10457000B7CF8091E800877F8093E8008091E800C2
:1045800080FFFCCF80913C03C1CF84B7877F84BF7D
:104590000FB6F894A89580916000886180936000C0
:1045A000109260000FBE80E890E00FB6F894809300
:1045B0006100909361000FBE0E94592008950E94EF
:1045C0000D250E946A25E2EEF0E080818460808300
:1045D00078940E94E927089582E691E00E941F1FC7
:1045E00008958091FA04853031F48091FA04853081
:1045F00019F00E94CC2008950E94A1208091F80417
:10460000882399F30E945E20882379F30E94672310
:104610000E94E30DEACF08950E940F230895292FE9
:1046200033272330310519F168F42130310509F4BD
:1046300044C02230310509F445C090E080E030E00C
:1046400020E025C02132310549F122323105A9F798
:1046500080E490E025E435E061157105C1F08DE658
:1046600090E028ED34E06130710589F0E6CF9927BC
:104670008130910581F0009729F00297F1F6E9E485
:10468000F4E002C0E7E8F4E0849190E09F01FA01D1
:10469000318320830895EFE6F4E0F6CF89E090E0DF
:1046A0002DE934E06115710591F389E090E026EB86
:1046B00034E06130710559F3C0CF82E190E026EC1F
:1046C00034E0E5CF8BE390E02BE834E0E0CF80E10D
:1046D00089BD82E189BD09B400FEFDCF8091D8007B
:1046E0008F7D8093D8008091E00082608093E0000D
:1046F0008091E00081FDFCCF0895AF92BF92CF92F0
:10470000DF92FF920F931F93CF93DF936C01EB0126
:104710008A010E94DC24F82E811123C001151105A5
:1047200039F0F80180819181C81BD90BC80ED91EC0
:10473000B12CA12C2097A9F08091E80085FD22C022
:104740008091E8008E778093E80001151105A1F0B3
:10475000F80180819181A80EB91EB182A08285E006
:10476000F82E8F2DDF91CF911F910F91FF90DF9049
:10477000CF90BF90AF9008950E94DC248823D1F29F
:10478000F82EEFCFF60181916F018093F100219710
:10479000FFEFAF1ABF0ACECFFC01809101059091C7
:1047A000020586179707A0F06115710529F490910D
:1047B000E8009E779093E80090E06115710551F450
:1047C000911108C08091E80082FF34C080E0089514
:1047D000BC01F2CF8091FA048823C1F18530C1F188
:1047E0008091E80083FD30C08091E80082FDEACF2F
:1047F0008091E80080FFE1CF8091F3002091F200EA
:10480000382F6115710519F02830310558F091E005
:104810002830310509F090E02091E8002E772093B0
:10482000E800CBCF81918093F100615071092F5F37
:104830003F4FE7CF8091FA04882341F0853041F063
:104840008091E80083FFBECF81E0089582E0089563
:1048500083E00895FC01809101059091020586177F
:104860009707A0F06115710529F48091E8008E7713
:104870008093E80090E06115710551F4911108C032
:104880008091E80082FF35C080E00895BC01F2CF3E
:104890008091FA048823C9F18530C9F18091E8003C
:1048A00083FD31C08091E80082FDEACF8091E8006D
:1048B00080FFE1CF8091F3002091F200382F611545
:1048C000710519F02830310558F091E02830310594
:1048D00009F090E08091E8008E778093E800CBCFDC
:1048E00084918093F1003196615071092F5F3F4FA1
:1048F000E6CF8091FA04882341F0853041F0809121
:10490000E80083FFBDCF81E0089582E0089583E051
:104910000895982F973028F08F708093E90081E0F8
:1049200008959093E900242F762F50E0981731F0E6
:104930007091EC002091ED005091F00021FD02C03B
:104940009F5FE8CF3091EB003E7F3093EB003091DA
:10495000ED003D7F3093ED003091EB0031603093FE
:10496000EB007093EC002093ED005093F000209149
:10497000EE0027FDE5CF80E008958091FB0487FFDE
:1049800013C08091E80082FF06C08091E8008B7719
:104990008093E80004C08091FA048111F2CF089559
:1049A0008091FA048823D9F38091E80080FFF8CF42
:1049B0008091E8008E77ECCF2091E4003091E50003
:1049C00095E6A9012091EC00822F817020FF06C09E
:1049D0008091E80080FF06C080E008952091E80003
:1049E00022FD1AC08091FA04882389F0853089F06D
:1049F0008091EB0085FD0FC02091E4003091E5002F
:104A000042175307F9F29150E1F684E0089582E0ED
:104A1000089583E0089581E008950E947C250E9416
:104A20008425E0EEF0E0808181608083E8EDF0E0B5
:104A300080818F77808319BCA7EDB0E08C918E7F49
:104A40008C9380818F7E80831092F90408950F9358
:104A50001F93CF93DF930E947C250E948425C8ED8D
:104A6000D0E088818F778883888180688883888177
:104A70008F7D888319BC1092FA041092F60410926C
:104A8000F8041092F70400EE10E0F80180818B7FAB
:104A9000808388818160888342E060E080E00E94BA
:104AA0008924E1EEF0E080818E7F8083E2EEF0E009
:104AB000808181608083808188608083F80180812B
:104AC0008E7F8083888180618883DF91CF911F9161
:104AD0000F910895E8EDF0E080818F7E8083E7ED0F
:104AE000F0E080818160808384E082BF81E08093F8
:104AF000F9040E9427250895E8EDF0E080818E7F7B
:104B000080831092E20008951092DA001092E10082
:104B100008951F920F920FB60F9211242F933F9377
:104B20004F935F936F937F938F939F93AF93BF93B5
:104B3000EF93FF938091E10082FF0BC08091E20030
:104B400082FF07C08091E1008B7F8093E1000E948B
:104B5000E8278091DA0080FF19C08091D80080FF9B
:104B600015C08091DA008E7F8093DA008091D900A1
:104B700080FF96C080E189BD82E189BD09B400FE55
:104B8000FDCF81E08093FA040E94CE218091E10064
:104B900080FF19C08091E20080FF15C08091E20083
:104BA0008E7F8093E2008091E20080618093E2003A
:104BB0008091D80080628093D80019BC85E08093F2
:104BC000FA040E94E2218091E10084FF2BC08091D1
:104BD000E20084FF27C080E189BD82E189BD89B5FB
:104BE000982F917080FFFBCF8091D8008F7D8093AC
:104BF000D8008091E1008F7E8093E1008091E200F7
:104C00008F7E8093E2008091E20081608093E200D9
:104C10008091F604882309F449C084E08093FA0463
:104C20000E94EB218091E10083FF29C08091E20086
:104C300083FF25C08091E100877F8093E10082E0BF
:104C40008093FA041092F6048091E1008E7F8093A5
:104C5000E1008091E2008E7F8093E2008091E2008B
:104C600080618093E20042E060E080E00E9489245D
:104C70008091F00088608093F0000E94DF21FF9116
:104C8000EF91BF91AF919F918F917F916F915F91C4
:104C90004F913F912F910F900FBE0F901F9018953D
:104CA00019BC1092FA040E94DC2170CF8091E300BD
:104CB00087FD93E09093FA04B3CF1F920F920FB643
:104CC0000F9211242F933F934F935F936F937F9392
:104CD0008F939F93AF93BF93CF93DF93EF93FF9304
:104CE000D091E900DF708091EC00C82FC17080FD89
:104CF000C0E81092E9008091F000877F8093F00077
:104D000078940E94A1261092E9008091F0008860BA
:104D10008093F000CD2BCF70C093E900FF91EF910D
:104D2000DF91CF91BF91AF919F918F917F916F91C3
:104D30005F914F913F912F910F900FBE0F901F9059
:104D40001895AAE2B0E0E7EAF6E20C9463288BEF4C
:104D500094E02091F100FC012193CF01F5E0833034
:104D60009F07B9F70E940B228091E80083FF1EC1C4
:104D70008091FB049091FC049A3008F017C1E92F50
:104D8000F0E0E054F54D0C944E28803899F08238CC
:104D900009F00CC18091FF048F70873008F006C1C4
:104DA0008093E9008091EB0085FB882780F91092C1
:104DB000E90006C08091F7049091F8049111826097
:104DC0009091E800977F9093E8008093F100109213
:104DD000F1008091E8008E77E5C0882309F4D3C004
:104DE000823009F0E3C08091FD048111D6C080912A
:104DF000FF048F702FEF280F263008F0D7C0809364
:104E0000E9002091EB0020FFC8C0933031F480917D
:104E1000EB0080628093EB00C0C09091EB0090614A
:104E20009093EB0021E030E001C0220F8A95EAF771
:104E30002093EA001092EA008091EB008860EACFAC
:104E40008111B4C01091FD041F778091E300807838
:104E5000812B8093E3008091E800877F8093E800B6
:104E60000E94BD248091E80080FFFCCF8091E30088
:104E700080688093E30082E0111183E08093FA045C
:104E800095C08058823008F091C08091FD049091C7
:104E9000FE048C3D23E09207A1F583E08A838AE239
:104EA00089834FB7F894DE01139620E03EE051E28B
:104EB000E32FF0E050935700E49120FF03C0E29508
:104EC000EF703F5FEF708E2F90E0EA30C0F0C79632
:104ED0008D939D932F5F243159F74FBF8091E80048
:104EE000877F8093E8006AE270E0CE0101960E941D
:104EF000CC238091E8008B778093E80057C0C09660
:104F0000E7CF6091FF0470910005AE014F5F5F4FE6
:104F10000E940C23BC01892B09F448C09091E80041
:104F2000977F9093E80089819A810E942A24E1CF9B
:104F30008038E1F58091E800877F8093E8008091D8
:104F4000F6048093F10045CF811130C09091FD04AB
:104F5000923060F58091E800877F8093E80090931D
:104F6000F6040E94BD248091F604882311F084E0A9
:104F700005C08091E30087FDFACF81E08093FA04B9
:104F80000E94F62113C08091FD04813079F481E004
:104F9000933009F080E08093F8041092E90080914A
:104FA000E800877F8093E8000E94BD248091E8009C
:104FB00083FF0AC08091E800877F8093E80080919A
:104FC000EB0080628093EB00AA96E3E00C947F28CC
:104FD0000895CF938091FA048823A1F0C091E9004D
:104FE000CF709091EC00892F817090FD80E8C82BE4
:104FF0001092E9008091E80083FD0E94A126CF7005
:10500000C093E900CF910895AA1BBB1B51E107C0D3
:10501000AA1FBB1FA617B70710F0A61BB70B881F48
:10502000991F5A95A9F780959095BC01CD010895D7
:1050300097FB072E16F4009407D077FD09D00E9445
:10504000042807FC05D03EF4909581959F4F089564
:10505000709561957F4F0895A1E21A2EAA1BBB1B84
:10506000FD010DC0AA1FBB1FEE1FFF1FA217B30734
:10507000E407F50720F0A21BB30BE40BF50B661F4A
:10508000771F881F991F1A9469F76095709580950E
:1050900090959B01AC01BD01CF010895EE0FFF1F5C
:1050A0000590F491E02D09942F923F924F925F92D8
:1050B0006F927F928F929F92AF92BF92CF92DF9228
:1050C000EF92FF920F931F93CF93DF93CDB7DEB78D
:1050D000CA1BDB0B0FB6F894DEBF0FBECDBF099421
:1050E0002A88398848885F846E847D848C849B8478
:1050F000AA84B984C884DF80EE80FD800C811B8186
:10510000AA81B981CE0FD11D0FB6F894DEBF0FBEB4
:10511000CDBFED0108950F931F93CF93DF9382309E
:10512000910510F482E090E0E0910505F09106050C
:1051300030E020E0B0E0A0E0309799F4211531058F
:1051400009F447C0281B390B24303105C0F58A818A
:105150009B816115710571F1FB0193838283FE01CF
:1051600011C0408151810281138148175907F8F01D
:105170004817590799F4109761F012960C931297FB
:1051800013961C933296CF01DF91CF911F910F910F
:1051900008950093050510930605F4CF21153105F8
:1051A00019F04217530718F49A01BD01EF01DF010E
:1051B000F801C2CF9093060580930505D0CFFE017C
:1051C000E20FF31F81939193225031093983288391
:1051D000DACF2091030530910405232B41F420916F
:1051E00002013091030130930405209303052091BF
:1051F0000001309101012115310541F42DB73EB771
:105200004091040150910501241B350B4091030589
:10521000509104054217530708F0B5CF241B350BF6
:105220002817390708F4AFCFBC016E5F7F4F2617F0
:10523000370708F4A8CF640F751F709304056093B7
:105240000305FA01819391939ECFCF93DF9300974B
:10525000E9F0FC01329713821282C0910505D091CA
:105260000605DE0130E020E02097A1F420813181A5
:10527000820F931F209103053091040528173907E9
:1052800009F067C0F0930405E0930305DF91CF9127
:105290000895DA01AE17BF0708F040C012964D918D
:1052A0005C9113979D014115510599F7D90113960A
:1052B000FC93EE9312974D915D91A40FB51FEA17E1
:1052C000FB0779F4808191810296840F951FD901A3
:1052D00011969C938E938281938113969C938E93C7
:1052E0001297B0E0A0E08A819B810097B9F5FE019A
:1052F00081919191E80FF91F809103059091040528
:105300008E179F0719F6109761F5109206051092F7
:105310000505D0930405C0930305B8CFB383A283DA
:1053200040815181840F951FA817B90771F44E5F12
:105330005F4F8D919C911197480F591F5183408366
:1053400012968D919C91938382832115310509F0EA
:10535000ADCFF0930605E093050598CFDE01EC0193
:10536000C2CF13961C921E921297D3CF8F929F9208
:10537000AF92BF92CF92DF92EF92FF92CF93DF93E3
:10538000EC01688179818A819B81611571058105B4
:10539000910521F464E279ED8BE597E02DE133EF9F
:1053A00041E050E00E94712A49015A019B01AC0181
:1053B000A7EAB1E40E94902A6B017C01ACEEB4EF45
:1053C000A50194010E949E2ADC01CB018C0D9D1D3C
:1053D000AE1DBF1DB7FF03C00197A109B048888368
:1053E0009983AA83BB839F77DF91CF91FF90EF9042
:1053F000DF90CF90BF90AF909F908F9008950E94C4
:10540000B629089586E091E00E94B6290895B0E09B
:10541000A0E08093060190930701A0930801B09348
:1054200009010895FB01DC0104C08D9101908019F0
:1054300021F441505040C8F7881B990B0895DC01B6
:10544000CB01FC01F999FECF06C0F2BDE1BDF89A8F
:10545000319600B40D9241505040B8F70895F99933
:10546000FECF92BD81BDF89A992780B50895A8E135
:10547000B0E042E050E00C94212ADC01A40FB51FFB
:105480004150504048F0CB01840F951F2E910E944F
:105490004E2A41505040D0F70895262FF999FECF5B
:1054A00092BD81BDF89A019700B4021639F01FBA77
:1054B00020BD0FB6F894FA9AF99A0FBE0895039694
:1054C000272F0E944E2A0E944D2A252F0E944E2AE5
:1054D000242F0C944E2A0196272F0E944E2A0C94BA
:1054E0004D2A052E97FB1EF400940E94882A57FD32
:1054F00007D00E942C2807FC03D04EF40C94882A75
:1055000050954095309521953F4F4F4F5F4F0895EF
:1055100090958095709561957F4F8F4F9F4F08951F
:105520000E94A32AA59F900DB49F900DA49F800D6B
:10553000911D11240895B7FF0C94902A0E94902A7F
:10554000821B930B0895A29FB001B39FC001A39F3C
:10555000700D811D1124911DB29F700D811D1124AC
:10556000911D0895F894FFCFB40BB40BE50BE50B38
:10557000720C140C140C140C8E0C1A0D290D290D20
:10558000C526ED26D627ED26D62720274127D62764
:045590009827A4278D
:1055940000000B05200001000000FF0000FF0100D7
:1055A40000FF0000000000000000000000000000F8
:1055B4000000000000000000BC1DCB1DDF1D00002A
:1055C4000000000000000000000000005901BC1DA4
:1055D400CB1DDF1D000000000000000000000000E3
:1055E40000005401AE0000860EAE0001860ECC020F
:1055F400FFFF54215821CD21C821C321572101E2A5
:1056040000E900EA00B500B600B700CD008301CC84
:10561400008A019201940121022302240225022618
:105624000227022A02B300B4006F00700081828353
:10563400E200E900EA00B500B600B700CD0083013E
:10564400CC008A0192019401210223022402250242
:10565400260227022A02B300B4006F007000818280
:1056640083F595313233939267663635349796379E
:0A56740094F1F0C6F4F6F70004000C
:00000001FF
