:100000000C94C3020C94FB020C94FB020C94FB02B4
:100010000C94FB020C94FB020C94FB020C94FB026C
:100020000C94FB020C94FB020C949D250C947126FD
:100030000C94A7200C94FB020C94FB020C94FB0282
:100040000C94FB020C94FB020C94FB020C94FB023C
:100050000C94FB020C942D210C94FB020C94FB02DB
:100060000C94FB020C94FB020C94FB020C94FB021C
:100070000C94FB020C94FB020C94FB020C94FB020C
:100080000C9431050C94FB020C94FB020C94FB02C3
:100090000C94FB020C94FB020C94FB020C94FB02EC
:1000A0000C94FB020C94FB020C94FB023C2D003DD3
:1000B0003E002D3E00E9000000C9000000E80000FD
:1000C00000C8000000EA000000CA000000EB0000C9
:1000D00000CB000000E2000000C2000000E00000D1
:1000E00000C0000000E7000000C7000000EE0000B4
:1000F00000CE000000AC2000003F0E0000A9000070
:1001000000AE000000C9030000A9030000F40000D5
:1001100000D4000000F9000000D9000000530100E5
:100120000052010000C0030000B0000000F1000018
:1001300000D1000000B5000000C3030000642200ED
:100140000065220000AB000000BB00000060220040
:1001500000482200001E22000029003A003B003C1B
:10016000003D003E003F004000410042004300448B
:100170000045000000AE00000035001E001F0020FA
:100180000021002200230024002500260027002D46
:10019000002E002A002A004C002B0014001A000830
:1001A00000150017001C0018000C00120013002F8F
:1001B000003000310000004B0029610400160007E8
:1001C0000009000A000B000D000E000F0033003480
:1001D000002800000000004E00E10000001D001B90
:1001E0000006001900050011001000360037003825
:1001F00000E100520000000000E000E200E3000027
:1002000000000000002C42000000000000E600B2E8
:100210005D5000510000004F00010001000100018D
:1002200000010001000100010001000100010001C6
:1002300000010000000100000001000100010001B8
:1002400000010001000100010001000100010001A6
:100250000001000100010001000100010001000196
:100260000001000100010001000100010001000186
:10027000000100010000000100E000010001000198
:100280000001000100010001000100010001000166
:100290000001000000000001000100000001000159
:1002A0000001000100010001000100010001000146
:1002B000000100010000000000E3000254E2000021
:1002C00000000000002C00000000000000E700B368
:1002D0005D010001000000010001000100010001BA
:1002E0000001000100010001000100010001000106
:1002F00000010000000100000001000100010001F8
:1003000000010001000100010001000100010001E5
:1003100000010001000100005CE05C010001000040
:100320008002800480010018800E80168001000188
:1003300000010001000000010001000A8001002A04
:1003400000010001005000510052004F0001000167
:100350000001000000000001000100000001000198
:10036000000C800100010001000100A85DA75DA94B
:100370005D0100010000000000010001000100001B
:10038000000000000001000000000000000100016A
:1003900000AC0001000000AB000000000000000005
:1003A000002A2B28000000000000000000000000D0
:1003B0000000000029000000002C1E34202122240F
:1003C000342627252E362D3738271E1F202122239D
:1003D0002425263333362E37381F0405060708092F
:1003E0000A0B0C0D0E0F10111213141516171819F5
:1003F0001A1B1C1D2F3130232D3504050607080953
:100400000A0B0C0D0E0F10111213141516171819D4
:100410001A1B1C1D2F3130354C000000000000005D
:1004200000000000000000000000000000000000CC
:10043000000000000000000000000000007E0F002F
:10044000D4FFFFFFC7000000782403770069006C29
:1004500000620061002E00740065006300680020E7
:100460000057005400370035002D004300000016EF
:1004700003770069006C00620061002E0074006563
:10048000006300680000000403090409023B000245
:100490000100A0FA09040000010301010009211173
:1004A0000100012240000705810308000109040141
:1004B000000103000000092111010001226D000765
:1004C000058203200001120100020000000882657D
:1004D0005C0701000102000105010980A1018503FB
:1004E00019012AB700150126B70095017510810082
:1004F000C0050C0901A101850419012AA0021501FA
:1005000026A002950175108100C005010906A10110
:100510008506050719E029E71500250195087501ED
:1005200081020507190029EF1500250195F07501D5
:1005300081020508190129059505750191029501AA
:1005400075039101C005010906A101050719E029FC
:10055000E71500250195087501810295017508814F
:10056000010507190029FF150026FF0095067508EB
:10057000810005081901290595057501910295016C
:1005800075039101C00011241FBECFEFDAE0DEBF7A
:10059000CDBF04B603FE18C08091090590910A05ED
:1005A000A0910B05B0910C058730904BA740B04B44
:1005B00059F41092090510920A0510920B05109239
:1005C0000C05E0E0F8E3099511E0A0E0B1E0E4E615
:1005D000F5E502C005900D92AC3EB107D9F725E0D4
:1005E000ACEEB1E001C01D92A930B207E1F70E9464
:1005F000D8190C949A2A0C940000EFEBF4E0608375
:10060000418324E630E042E050E0BF01880F0C94C3
:10061000AC04EF92FF921F93CF93DF937B01182FCF
:10062000110FD0E0C0E0C093BF04D701AC0FBD1FD5
:10063000E0ECF4E08D91819384E0E03DF807D1F7A0
:1006400024E630E041E150E06FEB74E0812F0E943E
:10065000AC046096C03CD10531F7DF91CF911F917A
:10066000FF90EF900895CF93DF93C82F45EC6EEF86
:100670000E94FD0240E06DEF8C2F0E94FD02D0E051
:1006800040E06D2F8C2F0E94FD02DF5FD831C1F753
:1006900045EC6EEF8C2F0E94FD0241E06DEF8C2F38
:1006A0000E94FD02D0E040E06D2F8C2F0E94FD02E1
:1006B000DF5FD03CC1F745EC6EEF8C2F0E94FD024E
:1006C00043E06DEF8C2F0E94FD0240E06FE08C2F25
:1006D0000E94FD0240E060E18C2F0E94FD024FEF7E
:1006E00061E08C2F0E94FD0241E060E08C2F0E94AF
:1006F000FD028FE39CE90197F1F700C00000DF9154
:10070000CF9108958036910548F4880FE82FF0E0E6
:10071000E15CFC4F608381E080931F0208951F938A
:10072000CF93DF93182FD0E0C0E0612FCE010E945D
:1007300082032196C036D105C1F7DF91CF911F9179
:100740000895880FE82FE695E695E695F0E0E151EB
:10075000FE4F2081382F377081E090E001C0880F74
:100760003A95EAF7662331F0822B808381E080930B
:10077000EE01089580958223F8CFCF93C82F809102
:100780001F02882379F045EC6EEF8C2F0E94FD024A
:1007900041E06DEF8C2F0E94FD026FE373E08C2F20
:1007A0000E94090310921F02CF9108950F931F9387
:1007B000CF93DF93D82F8091EE018823C9F045ECC9
:1007C0006EEF8D2F0E94FD0240E06DEF8D2F0E9495
:1007D000FD020FEE11E0C0E0F80141918F016C2F96
:1007E0008D2F0E94FD02CF5FC831B1F71092EE014C
:1007F000DF91CF911F910F9108951092B9008CE075
:100800008093B80008959F92AF92BF92CF92DF92EB
:10081000EF92FF920F931F93CF93DF93B82EEB01CC
:100820000E9406216C01EE24E394F12CC431D10521
:1008300060F025E0E22EF12CCF3FDC0731F0CE0155
:1008400064E170E00E9423287B0184EAA82E94E8EA
:10085000992E1092BC00A092BC000E9406218C012F
:100860008091BC0087FF0DC08091B900887F8830DF
:1008700039F18091B900887F803111F10FEF1FEFBE
:1008800009C00E940621801B910B8E159F0540F325
:100890000EEF1FEFCF3FDC07E1F2C6010E941E21E1
:1008A0008C179D07B0F2C801DF91CF911F910F9176
:1008B000FF90EF90DF90CF90BF90AF909F90089502
:1008C000B092BB009092BC000E9406218C018091E6
:1008D000BC0087FF0AC08091B900887F883111F081
:1008E000803461F610E000E0DECF0E940621801B1C
:1008F000910B8E159F0558F3CBCF0F931F93CF937A
:10090000DF93EB018093BB0084E88093BC000E94DE
:1009100006218C018091BC0087FF11C02091B90095
:10092000287F81E090E0283211F490E080E09195FA
:1009300081959109DF91CF911F910F910895CF3F3C
:10094000DC0741F30E940621801B910B8C179D0749
:1009500008F38EEF9FEFEECFCF92DF92EF92FF92F0
:100960000F931F93CF93DF936B018A017901B90134
:100970000E940304E6010C0D1D1DC017D10761F490
:1009800024E92093BC00DF91CF911F910F91FF903C
:10099000EF90DF90CF90089597FDF2CFB701899146
:1009A0000E947D04EACFCF930E94FD0380E50E9460
:1009B0003303C0E061E08C2F0E94A103CF5FC036FB
:1009C000C9F760E080E5CF910C94D60380912102B5
:1009D00081110EC081E0809321028DE0809391000F
:1009E0009FB7F89423E020939900809398009FBFCD
:1009F0000895E1E7F0E0808182608083089580932C
:100A00002B02089580932A02089580E00C948F03AE
:100A100080910D010C948F03FF920F931F93CF933E
:100A2000DF93F82E0E94EA2960E670E00E943728E2
:100A3000D0E0C0E08C011127F11003C00C171D0796
:100A400031F40E94EA29682FCE010E948203219688
:100A5000C036D10589F7DF91CF911F910F91FF909B
:100A600008951F920F920FB60F9211242F933F9368
:100A70004F935F936F937F938F939F93AF93BF93A6
:100A8000EF93FF93809120028431A0F48F5F8093D5
:100A90002002FF91EF91BF91AF919F918F917F9134
:100AA0006F915F914F913F912F910F900FBE0F90DB
:100AB0001F9018958091260290912702A0912802FC
:100AC000B09129020196A11DB11D80932602909339
:100AD0002702A0932802B0932902809122029091CC
:100AE0002302A0912402B09125028F3F2FEF92079D
:100AF000A207B20759F00196A11DB11D80932202F1
:100B000090932302A0932402B093250280912B029C
:100B1000882321F080910B0180FD1CC020910C01E5
:100B2000222381F140EB54E0249FC001259F900DCA
:100B30001124092E000CAA0BBB0B409122025091EC
:100B40002302609124027091250284179507A6075D
:100B5000B707C0F480E090910A0180930A018130C8
:100B600039F0882311F0823031F00E94050591CFD1
:100B70000E9408058ECF81E0923009F480E00E9447
:100B80000C0587CF80910E01E6CF47E050E067E289
:100B900070E08BE091E00C94072A47E050E067E2B8
:100BA00070E08BE091E00C94252A60E080E50C94E5
:100BB000BD0380910E0190E001968430910514F000
:100BC00083E090E080930E010C94CD0580910E019E
:100BD0008150990B97FF02C090E080E0843091052E
:100BE00014F083E090E080930E010C94CD05809189
:100BF0000F0190E001968430910514F083E090E0BD
:100C000080930F010C94CD0580910F018150990BB9
:100C100097FF02C090E080E08430910514F083E0FB
:100C200090E080930F010C94CD0580910D0190E030
:100C300008968F3F910519F014F08FEF90E08093A4
:100C40000D010C94CD0580910D018850990B97FDF5
:100C500080E080930D010C94CD05FB0122812223BD
:100C600041F010922202109223021092240210925C
:100C7000250282302FE5920729F148F481152FE5EE
:100C8000920799F081309F45B9F081E00895843052
:100C90002FE5920719F1E0F085309F45B1F7828189
:100CA000882349F00E94040605C08281882319F038
:100CB0000E94150680E0089582818823E1F30E9456
:100CC0002306F8CF82818823B1F30E94D905F2CFA1
:100CD0008281882381F30E94E605ECCF82818823FC
:100CE00051F30E94F705E6CF0E94D5050C94C71773
:100CF0000F931F93CF93DF93EC018B010E942D067E
:100D0000C0318FE5D80761F0C131EFE5DE07F1F0C2
:100D1000B801CE01DF91CF911F910F910C9406077E
:100D2000F8018281882371F081E00E94A60E43E0E1
:100D300062E081E00E949C0880E0DF91CF911F91EA
:100D40000F91089581E00E94C70EF1CFF8018281D2
:100D5000882311F082E0E9CF82E0F5CFCF93C82F4E
:100D60000E9402058C2FCF910C940A0A81E00C940A
:100D7000FF0480E00C94FF0483E290E00E94172AB5
:100D8000823289F484E290E00E94172A843059F478
:100D900085E290E00E94172A91E0803309F090E00C
:100DA000892F8170089580E0FCCF0E94BC068823C3
:100DB00041F00E94C5050E94D3040E94E6040C94F1
:100DC000F9040E94CD05F7CFCF93C82F6FEF8111A3
:100DD00062E283E290E00E94352A6FEFC11164E085
:100DE00084E290E00E94352A6FEFC11160E385E252
:100DF00090E0CF910C94352A0E94D50681E00E94A4
:100E0000E4060C94C61780E00C94621AFB01883A41
:100E10002DE5920709F46DC048F4813E9105C1F0BB
:100E2000873A9D4509F45CC081E00895823B2DE539
:100E30009207E1F1833B2DE5920709F445C0893A19
:100E40009D4591F78281882379F38FEA90E04EC027
:100E50008281882351F082E00E94650B0E94062166
:100E600090932D0280932C02DFCF80912C029091E1
:100E70002D020E941E218536910520F082E00E94FD
:100E80006C0BD2CF81EE0E946D0A81EE0E94F70AB0
:100E900082E00E946C0B82E00E94A60E63E082E07A
:100EA0000E94BE1381E00E94D913BECF82818823A5
:100EB00009F4BACF84E00E94621A80E00E94C70E53
:100EC00081E00E94A60EB0CF8281882309F4ACCFC6
:100ED00080E00E94621A81E00E94C70E80E0F1CF9C
:100EE0008281882309F4A0CF82EB90E00E94FD0963
:100EF0009BCF8281882309F497CF8CEA90E0F6CFCC
:100F00009C013A9521153F4150F5FC01EE27F17007
:100F1000BC0166277270AC01442754709C012227E3
:100F2000387094FF0EC080E1EF2B09F480E0672B4E
:100F300009F08062452B09F08064232B89F08068DA
:100F4000089581E0EF2B09F480E0672B09F08260BF
:100F5000452B09F08460232B19F08860089580E008
:100F60000895CF93DF93EB010E948007FE01DF918C
:100F7000CF910994CF93DF93EC01805E910908979C
:100F800020F061ED7DE0209711F465E67BE0CE0175
:100F90000E94B1078C2FDF91CF910C946D0ACF93F3
:100FA000DF93EC010E94F70ACE01805E9109089759
:100FB00020F068ED7DE0209711F46CE67BE0CE0137
:100FC000DF91CF910C94B107CF93DF93EC010E9496
:100FD000BA07C933D10549F42FEF87EE93E02150CA
:100FE00080409040E1F700C00000CE01DF91CF913A
:100FF0000C94CF0781E0089508950C94FC071F938B
:10100000CF93DF9300D000D00F92CDB7DEB74983E6
:101010005A836B8330912F0289819A8131111DC0CF
:101020006623B9F02223A9F00E94950F182F682F8C
:1010300089819A810E94420F69817A81812F0F9064
:101040000F900F900F900F90DF91CF911F910C9404
:1010500095160E946E0F182FEFCF0E94950F698191
:101060007A81EDCFFC01262F40815181628173810D
:1010700084810C94FF0781E00895CF93DF93EC0106
:1010800060E00E943208BE01DF91CF910C94FD0711
:101090008F929F92AF92BF92CF92DF92EF92FF9288
:1010A0000F931F936B017C0181E090E0A0E0B0E022
:1010B0004C015D0104C0880C991CAA1CBB1C4A95FC
:1010C000D2F7B501A4014C015D0104C0880C991C44
:1010D000AA1CBB1C2A95D2F7482959296A297B29C1
:1010E00004C0880F991FAA1FBB1F0A95D2F78A0157
:1010F0009B010C211D212E213F21041715072607D6
:10110000370789F48C299D29AE29BF29BC01CD015F
:101110001F910F91FF90EF90DF90CF90BF90AF9015
:101120009F908F90089580959095A095B0958C2173
:101130009D21AE21BF21EACF0F93382F262F60913A
:101140006C0270916D0280916E0290916F02042F7B
:10115000432F0E9448080F910C94800E0C94FC06BB
:101160000C94740608950E94EF0D0E94B2082FEFB0
:1011700084E39CE0215080409040E1F700C00000F3
:101180000C9451210F931F93CF93DF938C0161E057
:101190000E943208EC01B8010E94661EB801CE011F
:1011A0000E947806882309F441C0B801CE010E944C
:1011B000AF1E8823D9F1B801CE010E94821B88237B
:1011C000A9F1B801CE010E94881D882379F1B801E8
:1011D000CE010E94B51B882349F1B801CE010E94BF
:1011E000F21C882319F1F8018281882361F0CB3544
:1011F000FDE5DF0721F170F4C115ECE5DE07A1F094
:10120000CF3DDC45C9F0C801DF91CF911F910F910F
:101210000C94FA07CC358DE5D807A1F0CD35DD4526
:1012200091F70E940A14EFCF0E94B30880E0DF918B
:10123000CF911F910F9108950E94C414F7CF0E947F
:101240001314E1CF0E941614DECF0E94B6060C9450
:10125000180A0E941B0A0C94B906DF92EF92FF92C3
:101260000F931F93CF93DF93E82FF0E0E756FC4FE7
:10127000D490282F26952695269530E0F901E75C35
:10128000FB4F0491877010E0082E02C0159507955A
:101290000A94E2F701701127F901E75DFB4FE49032
:1012A000F12C082E02C0F594E7940A94E2F791E03D
:1012B000E922FF24F901E75EFB4FC491D0E002C0B0
:1012C000D595C7958A95E2F7C170DD2701151105FF
:1012D00019F081EE0E946D0AE114F10419F086EE16
:1012E0000E946D0A8D2D0E945D0BEF2819F086EE8D
:1012F0000E94F70A012B19F081EE0E94F70ACD2B0C
:1013000051F08CE2DF91CF911F910F91FF90EF9000
:10131000DF900C945D0BDF91CF911F910F91FF90A7
:10132000EF90DF900895EF92FF920F931F93CF936A
:10133000DF938C01F62E8AE0E82EF8018491882351
:1013400009F454C0813009F04DC0E8012196FE0136
:101350008491813091F42196FE0184910E945D0B6D
:101360008E010F5F1F4F8F2D815038F3EFE9FFE0A3
:101370003197F1F700C00000F7CF823039F4E8016F
:101380002296FE0184910E946D0AEACF833039F4DF
:10139000E8012296FE0184910E94F70AE1CF843091
:1013A000F9F6E8012296FE01249190E080E0FE012A
:1013B00031962053330B2A30310548F0019780F2E3
:1013C000EFE9FFE03197F1F700C00000F7CFE89EAA
:1013D000A001E99E500D1124C901840F951F24918D
:1013E000EF01E5CF0E942D09E801BACFDF91CF913F
:1013F0001F910F91FF90EF90089560E00C94930976
:10140000982F9F709A50963018F0805D0C942D099B
:10141000895AFCCF089581E008950C940B0A089531
:10142000CF93C82F0E94AE068C2FCF910C940D0A3B
:1014300080E00C94100A0E94641F0C94100A0E9411
:10144000641F90912E02981721F080932E020C9425
:10145000100A0895CF93DF93CDB7DEB72B970FB661
:10146000F894DEBF0FBECDBF4F83588769877A8758
:101470008B8761110E9458131E821D8285E0FE0138
:101480003796DE01119601900D928A95E1F78C81D5
:101490009D81892B89F449815A816B817C818D8161
:1014A0009E810E9473122B960FB6F894DEBF0FBE7A
:1014B000CDBFDF91CF91089589819A8189238F3F94
:1014C00051F3CE0101960E943B088111E4CFEBCF8E
:1014D000FC01808191810C94D70FCF93C82F882372
:1014E00009F483C08238C1F40E94641F81FD7DC06D
:1014F00089E30E940D130E9478132FEF81EE94E090
:10150000215080409040E1F700C0000089E30E9434
:101510001413CF910C9478138338A1F40E94641FA4
:1015200080FD63C083E50E940D130E9478132FEFA6
:1015300081EE94E0215080409040E1F700C000002F
:1015400083E5E5CF8438A1F40E94641F82FD4DC07D
:1015500087E40E940D130E9478132FEF81EE94E030
:10156000215080409040E1F700C0000087E4CFCFD9
:101570008CEF8C0F813A90F46C2F809160019091E8
:1015800061010E94CD1F882329F08C2F0E94141323
:101590000E9478138C2F0E940D13BBCF80E28C0F1A
:1015A000883048F4C77081E001C0880FCA95EAF717
:1015B0000E943513AECFEBE5EC0FE33040F4F0E0E2
:1015C000E156FE4F808190E0CF910C948D1FC85A58
:1015D000C73158F4EC2FF0E0EE0FFF1FEF58FE4F2D
:1015E00080819181CF910C94A31FCF91089588237E
:1015F00009F44BC0823871F40E94641F81FF45C01A
:1016000089E30E940D130E94781389E30E9414134A
:101610000C947813833859F40E94641F80FF35C0FE
:1016200083E50E940D130E94781383E5EFCF843881
:1016300059F40E94641F82FF28C087E40E940D13A2
:101640000E94781387E4E2CF9CEF980F913AF0F272
:1016500090E2980F983050F4877091E001C0990F94
:101660008A95EAF7892F0E943B13D2CF9BE5980F0A
:10167000933020F490E080E00C948D1F885A8731DD
:1016800020F490E080E00C94A31F08951F93CF9363
:10169000DF93182FEB010E946D0A209731F4812F00
:1016A000DF91CF911F910C94F70A8FE99FE001978A
:1016B000F1F700C000002197F0CF70E060E08933BF
:1016C00011F460E570E00C94460B882321F00E9431
:1016D00035130C9478130895882321F00E943B134E
:1016E0000C9478130895BF92CF92DF92EF92FF92FD
:1016F0000F931F93CF93DF936C01D62FC72FFC015D
:101700001281F580F2949FE0F9220E942B13E82EBB
:101710008823B9F0E12E1123A1F08C2F807F803433
:1017200021F080E28D0F8830D0F08091D40482FDCA
:1017300016C082E00E94D9130E942B1391E0E82E7C
:10174000E926BC2EB2948FE0B822FBE0FB1508F42A
:1017500068C0EB2DF0E0E456F54D0C946D28E12CBB
:10176000F0CF0C2F0F70C07F11F00295007F112376
:1017700099F0002359F080E28D0F883010F0D111DC
:1017800007C0802F0E9435130E9478138D2F41C00F
:10179000802F0E944B13F8CF8D2F0E94F70A002351
:1017A00009F43FC080E28D0F883010F0D11104C0E1
:1017B000802F0E943B1303C0802F0E9451130E9470
:1017C00078132FC00C2F0F70C07FC03211F002951C
:1017D000007FDD2381F0D13009F469C0112309F4C1
:1017E00073C0FF2009F469C0F601858180FFCECF68
:1017F0008F70858362C08091D40482FF38C011232A
:1018000059F0002329F0802F0E9435130E9478138D
:1018100080E00E946D0A05C080E00E94F70A011175
:10182000C7CFEB2DE850FF0B349720F40E94641FC4
:101830000E94100AEE2009F467C10E94271380FD60
:1018400063C1F60112820E9421130E94A60EC601F6
:101850000E94A50D0E942113DF91CF911F910F913E
:10186000FF90EF90DF90CF90BF900C94C70E1123A4
:1018700089F0F11006C00E945B13802B0E94650B5B
:10188000D0CF21E0F212F7CF0E945B13802B0E9491
:101890006113C7CFF11006C00E946E13802F0E9403
:1018A0006C0BBFCF31E0F31609F4BBCFF5CF11239A
:1018B00031F085E08F1508F4B4CF802FDFCF94E0AE
:1018C0009F1508F4AECFEACFFF2041F3D93349F496
:1018D000FFEF27EE33E0F15020403040E1F700C049
:1018E00000008D2F0E94F70A9CCF8C2F869586953D
:1018F000837069F0813009F094CF8D2F9C2F937005
:10190000111102C090E080E00E94A31F8ACF8D2FAA
:101910009C2F9370111102C090E080E00E948D1FF7
:1019200080CF8C2F837009F041C011117ACF4D2FD9
:10193000429546954770440F440F0D2F0F7010E0ED
:1019400030E020E0042E04C0000F111F221F331FBF
:101950000A94D2F760E070E0CB01D4FF0FC06FE0D3
:1019600070E080E090E004C0660F771F881F991F29
:101970004A95D2F76095709580959095C695C695D5
:10198000C370602B712B822B932BC23049F058F41B
:10199000C13019F00E94580E44CF0E94460E41CF2C
:1019A0000E946A0E3ECF0E94440E3BCF86951123C3
:1019B00011F08C2F8170882309F433CF4D2F42957D
:1019C00046954770440F440F0D2F0F7010E030E024
:1019D00020E0042E04C0000F111F221F331F0A94A1
:1019E000D2F760E070E0CB01D4FF0FC06FE070E091
:1019F00080E090E004C0660F771F881F991F4A950A
:101A0000D2F76095709580959095C695C695C370F0
:101A1000602B712B822B932BC23049F058F4C130CC
:101A200019F00E941D0FFDCE0E940B0FFACE0E94EE
:101A30002F0FF7CE0E94800EF4CECF70112329F025
:101A40008C2F0E94A60E8D2F19CF8D2F0E946C0B0C
:101A50008C2F0E94C70EE5CED23F51F160F4D03FEB
:101A6000B9F0D13F81F0112309F449C0F1108ECEB5
:101A70008C2F8F7121C0D33F11F1D43FA1F78091FA
:101A8000D40482FF26C08C2F8F71112311F314C050
:101A9000112349F084E08F1508F4C3CE8C2F8F7189
:101AA0000E94EA0EBECE95E09F1508F4BACEF6CF9E
:101AB0008C2F8F711111CDCF0E94A60EB2CE1123A3
:101AC00029F08C2F8F710E94910EABCE0E948C0E4C
:101AD000A8CE112349F0CF718C2F0E94A60E63E08F
:101AE0008C2F0E94BE139DCE81E00E94D913E1E0AD
:101AF000EF1508F096CE82E00E94D91392CEF11035
:101B0000E5CE8C2F8F71A5CFDF91CF911F910F91D3
:101B1000FF90EF90DF90CF90BF9008950F931F93A9
:101B2000CF93DF93EC01688179818A810E94E10F74
:101B30008C010E94410F0E94430EB801CE01DF913B
:101B4000CF911F910F910C94730BCF93DF93EC0106
:101B50008B819C81892B29F08881998189238F3FF2
:101B600059F4DF91CF910895CE010E948E0DCE01E0
:101B7000DF91CF910C943D08CE010E94C2088111E3
:101B8000F3CF0E942B13882361F38A81882349F3C2
:101B90008091D40482FDE5CF82E0DF91CF910C9457
:101BA000D913882321F00E944B130C9478130895C5
:101BB000882321F00E9451130C947813089590E02B
:101BC00080E00E948D1F90E080E00E94A31F0E9491
:101BD00058130C9478130E941B130C94DF0D0E9471
:101BE00045130C94EB0D92959F70963091F058F43C
:101BF000925F9F70923058F4803F19F030F4883E25
:101C000030F481E008959A5FF4CF843FD1F380E00F
:101C10000895883EB0F3813FD1F7F3CFFC01808176
:101C200091810E94D70F0C94F30DCF93DF9300D0D6
:101C300000D00F92CDB7DEB70F900F900F900F909E
:101C40000F90DF91CF910895CF93DF9300D000D014
:101C500000D0CDB7DEB726960FB6F894DEBF0FBE24
:101C6000CDBFDF91CF91089508950C94340E0E945A
:101C7000350E60937002709371028093720290939C
:101C800073020C94DF0D08950C94370E0F931F937D
:101C900000917002109171022091720230917302D2
:101CA000602B712B822B932B1F910F910C94370E6D
:101CB0000F931F9300917002109171022091720294
:101CC0003091730260237123822393231F910F911C
:101CD0000C94370E0F931F930091700210917102B4
:101CE0002091720230917302602771278227932717
:101CF0001F910F910C94370E0C94340E0C947C0EA3
:101D00000E947E0E60936C0270936D0280936E024F
:101D100090936F020C94DF0D60E070E0CB010C94A7
:101D2000800E0F931F9341E050E060E070E08A0165
:101D30009B0104C0000F111F221F331F8A95D2F789
:101D4000C901B8011F910F910C94800E0F931F933E
:101D500041E050E060E070E004C0440F551F661F92
:101D6000771F8A95D2F780916C0290916D02A091B5
:101D70006E02B0916F028A019B01082B192B2A2B4E
:101D80003B2BC901B8011F910F910C94800E0F934A
:101D90001F9341E050E060E070E004C0440F551F25
:101DA000661F771F8A95D2F7CB01BA0160957095AF
:101DB0008095909500916C0210916D0220916E02B9
:101DC00030916F0260237123822393231F910F911F
:101DD0000C94800E0F931F9341E050E060E070E0A0
:101DE00004C0440F551F661F771F8A95D2F7809154
:101DF0006C0290916D02A0916E02B0916F028A0107
:101E00009B01082719272A273B27C901B8011F91E1
:101E10000F910C94800E0F931F9300916C02109100
:101E20006D0220916E0230916F02602B712B822B1C
:101E3000932B1F910F910C94800E0F931F93009181
:101E40006C0210916D0220916E0230916F0260233E
:101E50007123822393231F910F910C94800E0F9373
:101E60001F9300916C0210916D0220916E023091CF
:101E70006F0260277127822793271F910F910C947F
:101E8000800E08959295907F890F982F977041E06A
:101E900001C0440F9A95EAF786958695869595E058
:101EA000899FF0011124E05DFD4F30E020E070E0FB
:101EB0005191DF011197CB01022E02C096958795B3
:101EC0000A94E2F7817081958527842385278C9376
:101ED0002F5F3F4F2530310559F708959295907F38
:101EE000890F982F977086958695869525E0829F15
:101EF000F0011124E05DFD4F50E040E080E02191D1
:101F000030E0092E02C0369527950A94E2F7217039
:101F10003327042E01C0220F0A94EAF7822B4F5F69
:101F20005F4F4530510559F70895BF92CF92DF9228
:101F3000EF92FF920F931F93CF93DF938C01C0908A
:101F40006C02D0906D02E0906E02F0906F02809172
:101F5000700290917102A0917202B0917302C82A2E
:101F6000D92AEA2AFB2ACFE1D0E0BC2ED701C6014C
:101F70000C2E04C0B695A795979587950A94D2F72D
:101F800080FD0EC0219788F7B12C8B2DDF91CF916A
:101F90001F910F91FF90EF90DF90CF90BF90089529
:101FA000B8018C2F0E94AA16019761F3EECFCF9350
:101FB000DF93EC010E94950FBE01DF91CF910C944D
:101FC000AA161F93CF93DF93EB0190912F029923D1
:101FD00031F0CB01DF91CF911F910C94D70F882363
:101FE00079F0CB010E94950F182F682FCE010E9427
:101FF000420FBE01812FDF91CF911F910C94AA1641
:10200000CB010E946E0F182FF4CF1F93CF93DF9355
:10201000C091740216E0809175028C1304C0DF91A8
:10202000CF911F910895D0E01C9FF0011D9FF00DEE
:102030001124EA58FD4F408151816281738184816E
:1020400095810E94240E2196C770E5CF4091A6028B
:102050005091A7026091A8027091A9028091AA02F2
:102060009091AB020C94240E209174029091750211
:1020700056E0291302C080E0089530E0529FF0013D
:10208000539FF00D1124EA58FD4F7181761306C05D
:102090007081781303C07281741304C02F5F3F4FA7
:1020A0002770E7CF81E00895FF920F931F93CF939E
:1020B000DF938091AB02807FD1F48091A8028823C6
:1020C000B1F080917402109175026091A602709136
:1020D000A702A091A902B091AA02062F0723C091DE
:1020E0005E01D0915F0196E0F92E181306C0DF91D2
:1020F000CF911F910F91FF90089590E0109711F0EC
:102100000F3F19F401968770F0CFF89E9001F99E69
:10211000300D1124F901EA58FD4F41814713F2CFE8
:1021200040814613EFCF42814111ECCF438154816E
:102130004A1B5B0B4C175D0728F78091AB028F7031
:1021400080618093AB02F901E558FD4F80818F706B
:102150008061808386EA92E00E94A50DDF91CF9195
:102160001F910F91FF900C9405108F929F92AF9248
:10217000BF92CF92DF92EF92FF920F931F93CF9374
:10218000DF93CDB7DEB761970FB6F894DEBF0FBE11
:10219000CDBF8C0185E0F801DE011D9601900D9206
:1021A0008A95E1F7D8011296EC90129786EAA82E4C
:1021B00082E0B82E4091A9025091AA024115510522
:1021C00009F472C19091A6022091A702892F82235F
:1021D0008F3F09F469C1CC901196DC90119713964A
:1021E0008D909C901497F090A802B401641B750B1D
:1021F00040915E0150915F01FF2009F403C180917D
:10220000AB02382F307F6417750708F0BDC031115D
:1022100088C0FE2CD21225C09C1123C0E11021C021
:102220008F7080618093AB020E942610C5010E94CE
:10223000A50D8091AB02F80185838F2D61960FB6B5
:10224000F894DEBF0FBECDBFDF91CF911F910F91EC
:10225000FF90EF90DF90CF90BF90AF909F908F90C6
:1022600008958114910429F08D2D8C218F3F09F060
:1022700037C180E080FF15C04E2D6D2D8C2D0E9442
:102280003410882371F086EA92E00E94A50D86E062
:10229000E6EAF2E0DF011D928A95E9F70E94261036
:1022A0003EC0892829F08D2D8C218F3F09F015C162
:1022B00080E0B82FB170AB2E80FF29C04E2D6D2D60
:1022C0008C2D0E943410B82E811121C0CD86DE865F
:1022D0008D859E850E94D70F292F22952F70223041
:1022E00050F0243078F49F7051F0F8019581907F80
:1022F00031F4FB2CA2CF9F7011F08823D1F3805EC4
:102300008830B8F3C8010E94A50DBA2CF2CFEE2098
:1023100009F493CF8091AB0281608093AB02F12CE2
:102320008CCFD21205C09C1103C0EE2009F487C0E7
:10233000C8010E940E0E882319F1EE2009F1809148
:10234000AB02803270F02091A6023091A70238874C
:102350002F8319869B868A868C87CE0107960E94DA
:10236000A50D86E0F801A6EAB2E001900D928A95EB
:10237000E1F70E9454100E942610FF24F3945DCFD1
:10238000C8010E94A50DF9CF311112C0782D998A8C
:10239000888AA6016E2D89890E94150E86EA92E030
:1023A0000E94A50D86E0F50111928A95E9F776CF96
:1023B000D2120FC09C110DC0E1100BC015968C936A
:1023C000C8010E94A50D86E0F50111928A95E9F7F2
:1023D00034CFC8010E940E0E882391F2EE2081F2C4
:1023E0008091AB02803208F4BCCF2091A6023091DC
:1023F000A7023A8329831B829D828C828E83CE0121
:102400000196ADCF6417750708F040C0FE2CEE2092
:1024100009F4B6CFD2122CC09C112AC08091AB0215
:1024200080FD1DC0982F907FD1F015968C93159745
:10243000903F39F0982F907F905F8F70892B159681
:102440008C93C8010E94A50D86E0F801A6EAB2E0CF
:1024500001900D928A95E1F70E942610EECE86E05B
:10246000F801A6EAB2E001900D928A95E1F7E5CE77
:10247000C8010E940E0E811174CF8091AB02816061
:102480008093AB02C8010E94A50DD7CE782D998A02
:10249000888AA6016E2D89890E94150E86E0F501B5
:1024A00011928A95E9F7D8CFEE2009F469CFC801D7
:1024B0000E940E0EF82E882309F462CF86E0F80100
:1024C000A6EAB2E001900D928A95E1F786EA92E0E1
:1024D0000E94680A0E945410BFCF81E08E25E9CE89
:1024E00081E08E25C7CE1F93CF93DF93CDB7DEB7A4
:1024F0002C970FB6F894DEBF0FBECDBF4F83588721
:1025000069877A878B879C87CE0107960E94B510D2
:10251000882369F08A859B85892B39F04F815885FE
:10252000842F85238F3F09F071C016E05FC086E0DD
:10253000FE013796DE01119601900D928A95E1F722
:102540008A859B85892B89F38F81988589238F3F85
:1025500061F32091750230E0C901019687709927D7
:10256000409174024817190671F40E94EF0D109201
:1025700075021092740286E0E6EAF2E0DF011D9235
:102580008A95E9F7D2CF96E0929FD001939FB00D44
:102590001124AA58BD4FFE01319601900D929A95D3
:1025A000E1F7809375020E940510BFCF819FC001A3
:1025B00011248A589D4F0E94B5108823E9F0E091BC
:1025C00074021E9FF0011124EA58FD4F4081518191
:1025D00062817381848195810E94240E80917402AE
:1025E00090E001968770992780937402809174021D
:1025F000909175028913DACF2C960FB6F894DEBF4E
:102600000FBECDBFDF91CF911F91089569857A8567
:102610008B859C850E94240E88CF682F8091600155
:10262000909161010C944D20682F809160019091F0
:1026300061010C94582080916001909161010C948B
:1026400063208091CC02859585958595089580912C
:10265000CC02877008959091CC02977081E009F4C4
:1026600080E008958091EF0208959091EF02892B08
:102670008093EF02089580959091EF0298239093B4
:10268000EF0208958093EF0208951092EF020895EB
:102690008091EE0208959091EE02892B8093EE02D4
:1026A000089580959091EE0298239093EE020895FC
:1026B0001092EE0208958091CD02089508950C9431
:1026C0005E139091D40492FD08C09091CD029817AA
:1026D00021F08093CD020C945F1308958091CD0278
:1026E000882329F01092CD0280E00C945F130895A6
:1026F000CF93DF93E0916001F09161018091EF024F
:102700008083E0916001F091610180819091EE02FF
:10271000892B80839091CD02992381F0E091600113
:10272000F09161018081892B80838091600190917B
:1027300061010E94B91F81110E946E13C091600156
:10274000D091610140E250E06CEA72E0CE010E945B
:10275000FA29892B69F080E2FE01ACEAB2E001902F
:102760000D928A95E1F7CE01DF91CF910C94731F02
:10277000DF91CF91089508950C94BB139091D404E8
:1027800092FD10C098E0899F90011124622B609304
:10279000CC020E94A60E8091CC02859585958595E8
:1027A0000C94BC130C94A60E1092CC0280E00C94F6
:1027B000BC139091CC02809589238093CC02282F62
:1027C000277091F4282F082E000C330B9217130654
:1027D00059F09091D40492FD07C085958595859513
:1027E0000E94C70E0C94D41308959091D40492FBC8
:1027F000222720F9281769F080FB92F99093D404DE
:102800008091D3049091D4040E94401482E00C94EF
:10281000D91308958091D40482FB882780F991E030
:1028200089270C94F51381E00C94F51380E00C9447
:10283000F5136FEF7FEF90E080E00C94532A90E067
:1028400080E00E941F2A21E0893E9E4F09F020E08F
:10285000822F089582E090E00C94172A83E090E0A4
:102860000C94172ACF9384E090E00E94172AC82F77
:1028700082E290E00E94172A982F8C2FCF91089522
:10288000CF93C92F682F84E090E00E94352A6C2FE7
:1028900082E290E0CF910C94352AAB01BC018FE02D
:1028A00090E00C94472AAB01BC0183E190E00C94CA
:1028B000472A60E070E0CB010C94531460E070E0B4
:1028C000CB010E944D140C94591469EE7EEF90E0F8
:1028D00080E00E94532A60E082E090E00E94352A66
:1028E00060E083E090E00E94352A1092700210921E
:1028F0007102109272021092730260E084E090E024
:102900000E94352A60E082E290E00E94352A60E071
:1029100085E090E00E94352A60E086E090E00E9429
:10292000352A6FEF87E090E00E94352A40E050E0C2
:10293000BA0188E090E00E94472A60E08DE090E0D4
:102940000E94352A40E050E0BA0188E190E00E9400
:10295000472A60E087E190E00E94352A40E050E09D
:10296000BA018CE190E00E94472A70E060E080E2CA
:1029700090E00E94532A40E050E0BA0188E190E0E4
:102980000E94472A0C945E140C946514682F8EE004
:1029900090E00C94352A0E941221609300037093FA
:1029A000010380930203909303036093FC027093EE
:1029B000FD028093FE029093FF02089585B7806820
:1029C00085BF85B7806885BF0895089508950C94E4
:1029D000E6140C9403070E94DE1488E897E10E9435
:1029E0005A1F0E94E5140C94E71481E008950C949A
:1029F000F514089508950E94F9140C94FA140E9495
:102A0000A2170E940F0A0C943C1A0E94FD200E94FB
:102A100093180E94FF140C94E9147F928F929F9256
:102A2000AF92BF92CF92DF92EF92FF920F931F93DC
:102A3000CF93DF93CDB7DEB72A970FB6F894DEBFFA
:102A40000FBECDBF0E94A818A82E81110E94CB14E2
:102A500050EF852E52E0952E10E000E0702E802F72
:102A60000E94C8176C01F401E190F1904F01E81643
:102A7000F90609F453C08091040381FD0E94D11727
:102A8000C7018C259D25B12CEE24E394F12C9C01EB
:102A90002E213F21232BE1F10E94F7148823A9F076
:102AA000BE827F82CE20DF2081E0CD2809F480E045
:102AB00088870E9406218160782F9A8789874E81B6
:102AC0005F8168858A850E942A0A000F111FF8011C
:102AD000E051FD4F80819181E826F926F182E08264
:102AE00081E0A11001C080E02A960FB6F894DEBF05
:102AF0000FBECDBFDF91CF911F910F91FF90EF904F
:102B0000DF90CF90BF90AF909F908F907F9008956F
:102B1000B394EE0CFF1CF0E1BF12B9CF0F5F1F4F53
:102B20000630110509F09ACF8FEF89838A831B82C3
:102B30000E9406218160782F9D838C8349815A8170
:102B40006B818D810E942A0ACBCF0E940D150E94B5
:102B50000A1F0C941F0ACF93DF930E94AE16EC015C
:102B6000811522E59207E8F5811531E5930708F014
:102B7000ACC0883E910510F5803E910570F5883A0D
:102B8000910570F4853A910508F078C0813091057F
:102B900021F1009711F1049700F5D0E0C0E01DC0CD
:102BA0008F3B9105D0F7C85AD0E0CC0FDD1FCE5532
:102BB000DE4F0990D881C02DD4640FC0811540E547
:102BC000940708F066C0C11580E4D80708F05EC01D
:102BD000CE019A9581159F4100F7CE01DF91CF91EB
:102BE0000895811536E5930718F5811545E5940795
:102BF00008F083C0C11584E5D80708F079C09C2F80
:102C0000969596959E0123703327C115D34508F4F8
:102C100061C0C1E0D0E002C0CC0FDD1F2A95E2F711
:102C200030E2939FC0011124C82BD92BDA68D5CF8D
:102C3000C1158AE5D80778F4C11599E5D90708F0D8
:102C400066C0C11528E5D20708F4A7CFDC2FCC2732
:102C5000C06FD06AC2CFCE0190568115904208F065
:102C60009CCF8D2F8F710E94451790E0982F882759
:102C700088279F719C012C2BE90147C0C55AD0E0E1
:102C8000C053DE4FC881D0E0D064A7CFDF70D06AD8
:102C9000A4CFE4E096958795EA95E1F783702C2F11
:102CA00026952695237040E2249F90011124382B0D
:102CB0008C2F8370C1E0D0E002C0CC0FDD1F8A955D
:102CC000E2F7C22BD32BDC6888CFD82FCC27C16F7B
:102CD000D06A83CFC1E0D0E002C0CC0FDD1F2A95BF
:102CE000E2F720E2929FC0011124C82BD92BEBCF31
:102CF000DC2FCC27C46FD06A70CF0E944517C82F35
:102D0000D0E0DC2FCC27CC27DF71D06266CF8C2FB0
:102D10008F700E94451734E0D695C7953A95E1F734
:102D2000CF709C2FEC01D06958CFE72FF0E096E0F0
:102D3000899FE00DF11D112484E0EE0FFF1F8A959D
:102D4000E1F7E60FF11DEE0FFF1FE75AFE4F8591E9
:102D5000949108950E9495160C94AB1582389105B4
:102D6000B1F1B0F48133910509F475C048F48932AA
:102D7000910509F469C08A32910509F473C0089578
:102D80008533910509F459C08933910501F10895FE
:102D9000833E9105A9F138F4803E9105F9F0823E19
:102DA000910549F10895863E9105A9F1873E910567
:102DB000C9F1843E910519F52091D40421FF1FC06B
:102DC0008091D30484FD14C087EE90E00895209193
:102DD000D3042370A1F080EE90E008952091D304F5
:102DE00020FD47C03091D40430FF09C024FF44C007
:102DF00090E080E004C02091D30422FDF7CF089535
:102E00002091D30422FD3BC03091D40430FDE3CFA8
:102E100024FFF5CFEDCF2091D30423FFF0CF24FD85
:102E2000E7CFD2CF2091D30423FD2CC03091D4041E
:102E300031FFEECF84EE90E008952091D30425FF7A
:102E4000DECF89E290E008952091D30425FFD7CF0B
:102E500085E390E008952091D30426FFD0CF8AE245
:102E600090E008952091D30426FFC9CF81E390E03C
:102E7000089589E390E0089583EE90E0089582EE4E
:102E800090E0089586EE90E008959091D30492FF2B
:102E900006C0282F28712830F9F4877F846093FFBB
:102EA00006C0282F28712831F1F4877E8461209193
:102EB000D40420FF06C0382F38713830D9F4877F0A
:102EC000816021FF06C0282F28712831D1F4877E28
:102ED000816194FD877E0895282F24712430F9F6AE
:102EE0008B7F8860DCCF282F2471243101F78B7E03
:102EF0008861DDCF382F3171313019F78E7F8860CE
:102F0000E0CF282F2171213121F78E7E8861E1CF1A
:102F100080E008950C9419140E94A8188FE39CE98E
:102F20000197F1F700C000000E94A81880E00E94FD
:102F3000C81780FF04C00E948A170C94512108957D
:102F40000C948C170E941F14811102C00E94C4149B
:102F50000E942A14809304030E9432149093D40494
:102F60008093D3040E94A0170E942E14682F70E053
:102F700090E080E00E94440E60916C0270916D02BE
:102F800080916E0290916F020C947E0E08950895C8
:102F9000E82FF0E0EE0FFF1FEF51FB4F8081918192
:102FA0000895089580EA8A95F1F7089500C008957C
:102FB0000C94D217F894E82FE295EF70F0E031A16D
:102FC000282F2F7081E090E001C0880F2A95EAF742
:102FD000982F9095932391A392A1892B82A3789403
:102FE0000895CF93DF93C3EDD1E089918F3F11F026
:102FF0000E94DA1781E0C33ED807B9F7C3EED1E0EB
:1030000089918F3F11F00E94DA1781E0C93ED807FD
:10301000B9F7DF91CF9108958F929F92BF92CF928F
:10302000DF92EF92FF920F931F93CF93DF93D82EEF
:10303000E92EF62E8A01C62FD0E0CD52DE4F288130
:103040002F3F09F464C0F894E22FE295EF70F0E0AE
:1030500031A12F7081E090E001C0880F2A95EAF736
:10306000932F982B91A392A18095892382A3789482
:103070000E94D61783EE882E81E0982EED2DFE2D2E
:10308000BF01645F7F4FE12C6801C094D094D401EC
:10309000BD904D0181919191AF0142505109BFEF17
:1030A000BB1679F12B2D22952F7030E0D901909627
:1030B0002C9130E0BB2DBF7002C035952795BA9595
:1030C000E2F720FD1EC0802B912BDA018D939C939B
:1030D000EE24E394E617F707D1F688818F3F11F0CD
:1030E0000E94DA176E2D8F2DDF91CF911F910F91D6
:1030F000FF90EF90DF90CF90BF909F908F900C94B7
:10310000D8178C219D21DA018D939C93E3CFDF9119
:10311000CF911F910F91FF90EF90DF90CF90BF90D4
:103120009F908F9008950E94F1178CE0E1EEF4E0FB
:10313000DF01982F1D929A95E9F7E5EDF4E0DF01A4
:103140001D928A95E9F786E00E94FD180C94AE085E
:10315000CF92DF92FF920F931F93CF93DF93CDB760
:10316000DEB72C970FB6F894DEBF0FBECDBF8E0131
:103170000F5F1F4F8CE0F80111928A95E9F7F12C4F
:10318000CC24C394D12CA6016F2DC8010E940C1829
:10319000F394CC0CDD1CF0E1FF12F5CF4CE050E0D5
:1031A000B80185ED94E00E94FA29FF24F39400977A
:1031B00009F4F12C892B41F08CE0F801A5EDB4E085
:1031C00001900D928A95E1F72F2D46E061EE74E0B3
:1031D00085ED94E00E9418190E94B0088F2D2C965E
:1031E0000FB6F894DEBF0FBECDBFDF91CF911F9118
:1031F0000F91FF90DF90CF900895CF93C82F20E1DB
:10320000829FC00111240E94732880930903909328
:103210000A039C0180E08C1302C0CF910895F9014C
:1032200090E111929150E9F78F5F205F3F4FF3CF0C
:103230008F929F92AF92BF92CF92DF92EF92FF92C6
:103240000F931F93CF93DF93182F092FF62EE72E9E
:10325000B42EC22FD0910603DD2309F46EC00E9464
:1032600006212091070330910803AC01421B530B48
:103270009A0190930803809307034F3F510509F08B
:10328000B8F4452B89F01092060310920503809143
:10329000090340910A0330E060E090E0B9120BC0EE
:1032A0006093060330930503C11155C0CD2F47C06D
:1032B0002FEF30E0E8CFE82FF42FAF01405F5F4FF2
:1032C0008191882331F0DF011197281748F01C9273
:1032D0003D2FE417F507A1F78E2F4F2F9F5FDECF0D
:1032E000821B8C936D2FF5CF6D917D9180819181A3
:1032F00068277927EA0130E020E08701022E02C02A
:10330000000F111F0A94E2F76B01C022D122CD28D1
:1033100041F0D880D11005C0888280279127992458
:10332000939421962F5F3F4F2031310531F7405F55
:103330005F4F81939193A3941EC0211106C0809189
:1033400005038823E1F0C11106C00E940621909375
:103350000803809307034091090350910A0390905A
:103360000603EF2DFE2DA12FB02FA12CEE24E39408
:10337000F12C95E0892EBA10B7CF90920603DF9119
:10338000CF911F910F91FF90EF90DF90CF90BF9062
:10339000AF909F908F9008950E94F7220E9405158C
:1033A0000C9403230E9407230E94A5150C9421234B
:1033B0000E94A6200E94DE220E94EB140E94CC19DB
:1033C0000E94D2190E94FB14FBCF0F931F93CF933F
:1033D000DF93811520EC920718F1EC01D05C0E947C
:1033E0003213182F0E944813182B0E945B13082FCA
:1033F0000E94701F102B127291E009F490E08695E4
:103400008170981729F0CC0FCD2FCC1FDD0BD195F3
:10341000CE018F779927DF91CF911F910F9108955A
:103420009058F9CF97FF13C0FB012281222379F036
:103430000E94E519FC01EE0FFF1FEE0FFF1FEB547A
:10344000FF4F65917591859194910E94361B81E0A3
:1034500008959091EE04923069F48A3048F490E037
:1034600009966AE070E00E943728875A0C945D0B39
:103470008650FCCF0C94000A8CE090E00E94172A42
:10348000482F50E070E060E04093EE045093EF046A
:103490006093F0047093F104882331F0843039F4A0
:1034A00081E080930B03089510920B03089510920E
:1034B0000B031092EE0408956091EE048CE090E00E
:1034C0000C94352A8093EE040C945C1A20910B0323
:1034D000082E000C990B820F911D27FD9A9562E032
:1034E00070E00E9437288F3F71F080930B03E091CA
:1034F0000B030E2E000CFF0BE751FE4F80818093D3
:10350000EE040C945C1A81E0F0CF0E94701F869547
:1035100081708093F3040E94701F81708093ED048A
:103520008091EE04813039F48091F304882319F0FE
:1035300089E30E945D0B0E9432138093F2040E9483
:1035400045138091EE04813089F0882359F0823050
:1035500091F0843021F18FE39CE90197F1F700C0ED
:103560000000089586EE0E946D0AF5CF88E193E091
:103570000E94E407F0CF8091ED04811103C083E540
:103580000E945D0B82EE0E946D0A8FE39CE9019719
:10359000F1F700C0000087E50E945D0BDCCF86EEEE
:1035A0000E945D0B88E1F8CF8091EE04813071F0CC
:1035B000882341F08230A9F08430E1F08091F20458
:1035C0000C94421386EE0E94F70AF8CF8CE20E9418
:1035D0005D0B8091F304882389F389E30E945D0BDE
:1035E000EDCF82EE0E94F70A8091ED048111E6CFC3
:1035F00083E5F4CF88E2F2CFBF92CF92DF92EF92D1
:10360000FF920F931F93CF93DF936B017C01C7E071
:10361000D0E00CE110E0BB24B394D701C601002E2A
:1036200004C0B695A795979587950A94D2F78F70A1
:10363000C9F4B11002C00E94291A2197045011093F
:10364000CF3FDC0751F4DF91CF911F910F91FF9095
:10365000EF90DF90CF90BF900895C430D105ECF685
:10366000B12CDBCF0E94291AB12CE7CFCF92DF9289
:10367000EF92FF926B017C01C114D10481E1E80655
:10368000F104D8F5C114D10481E0E806F10420F07A
:103690008091EE04823089F10E94851AC114D10410
:1036A00081E0E806F10430F18091EE04811122C03E
:1036B00081E0E81AF108C701B6012AE096958795DE
:1036C000779567952A95D1F778528F4F9F4F0E9433
:1036D000FC1A83E0D822EE24FF24C701B6017452FD
:1036E0008F4F9F4F0E94FC1AFF90EF90DF90CF907A
:1036F0000C94D41AC701B601F5CFFF90EF90DF907C
:10370000CF9008950F931F93CF93DF93EC018B011C
:10371000FB018281882361F00E9432138272C13ED4
:10372000FCE5DF07E1F060F4C03EECE5DE0799F070
:10373000B801CE01DF91CF911F910F910C94121A15
:10374000C73EFCE5DF07A0F78C2F825E8093EE0476
:103750000E945C1AEDCF811104C081E003C0811189
:10376000FCCF8FEF0E94661AE3CFCF93DF93EC017B
:10377000FB018281882309F433C1C430FDE5DF07F2
:10378000C0F5CB3F9CE5D90730F49E0122503C4563
:1037900024313105B0F50E9432149093D404809303
:1037A000D304C1318CE5D80709F4EEC008F069C034
:1037B000C930ECE5DE0709F4D5C0C8F5C5308CE5A5
:1037C000D80709F4C7C000F5C330ECE5DE0709F4FB
:1037D000B9C008F0BBC0C230DC4509F4ADC080916F
:1037E000D3049091D4040E9440140E94EF0D80E015
:1037F00008C0C236EDE5DE0771F2C63AFDE5DF0727
:1038000051F2DF91CF9108958091D3048062C73047
:103810009CE5D90709F493C08091D3048061C83036
:10382000DC4508F48CC08091D304806488C080910A
:10383000D3048B7FCD30FCE5DF0709F480C098F41A
:103840008091D3048E7FCB309CE5D90709F477C0F3
:103850008091D3048C60CC30DC4508F470C080913A
:10386000D3048D7F6CC08091D3048F7ECF30FCE574
:10387000DF0709F464C008F47BC08091D3048F7D16
:103880005EC0CE3F9CE5D90709F47AC050F5C5313A
:10389000FCE5DF0709F486C098F48091D304837FA8
:1038A000C3319CE5D90709F44AC008F471C00E94ED
:1038B000EF0D9091D304892F97FB87F980583FC073
:1038C000CC3FFCE5DF0709F449C008F055C0809102
:1038D000D4048160CB3FDC4509F081CF8093D404D0
:1038E0007ECFC230EDE5DE0709F468C0A8F4C1154B
:1038F0008DE5D80709F452C08091D4048360C130AB
:10390000DD4560F38091D404982F909591708E7F5F
:10391000892B90FB81F9E2CFC236EDE5DE0709F491
:1039200051C0C63AFDE5DF0709F453C0C330DD4599
:1039300009F055CF80E043C08091D304816080932B
:10394000D3044DCF8091D3048260F9CF8091D3040A
:103950008460F5CF8091D3048860F1CF8091D40446
:103960008260BCCF0E94EF0D8091D3048068E7CFC6
:103970008091D304877FE3CF8091D4048E7FAECF34
:103980008091D4048D7FAACF8091D3048F7BD7CF31
:103990000E94EF0D8091D3048F77D1CF8091D40412
:1039A0008C7F9CCF8091D30482FB992790F921E0F2
:1039B000922790FB82F990FB83F9C1CF81E00E94AE
:1039C000C6140DCF9091D304892F8F7E94FF806110
:1039D000B6CF9091D304892F8E7F90FF8160AFCFB7
:1039E00081E00FCFCF93DF93EB0186319C4511F53A
:1039F0000E9432139A81992399F08A7A91E009F40E
:103A000090E090930C03811109C089E20E940D138C
:103A10000E94781380E0DF91CF91089585E3F6CF7F
:103A200080910C03811104C089E20E941413F0CF2D
:103A300085E3FBCF81E0EFCF0F931F93CF93DF930D
:103A4000C42FD22FFC0182818823C9F040930F0339
:103A50000E94062190930E0380930D0380E28C0F49
:103A6000883008F050C0C77081E001C0880FCA9547
:103A7000EAF7DF91CF911F910F910C94650B109194
:103A80000F03141335C080910D0390910E030E9413
:103A90001E21883C910560F5C0E2CD0F1D17B9F0DD
:103AA00080E2810F883040F4177081E001C0880FF8
:103AB0001A95EAF70E946C0BC83048F481E09D2FFC
:103AC000977001C0880F9A95EAF70E94650B802FC6
:103AD0000E945D0BC830B8F4D77081E001C0880F38
:103AE000DA95EAF7DF91CF911F910F910C946C0B4F
:103AF00080E28C0F883038F4C77081E001C0880FF5
:103B0000CA95EAF7EFCFDF91CF911F910F910895FA
:103B10000F939C01CB01243F4CE5340759F1A8F4E5
:103B2000293DFCE53F0701F12A3D4CE53407D1F181
:103B3000283D3C4591F406E221EE41EE68ED7CE53E
:103B40000E941C1D80E00F910895263FFCE53F0771
:103B5000E9F0B0F0273F3C45F9F0FC018281882371
:103B600039F110920F03EFCF07E225EE45EE69ED34
:103B70007CE5E6CF06E221EE40EE64EF7CE5E0CFA7
:103B800007E225EE44EE65EF7CE5DACF06E221EEB2
:103B900042EE66EF7CE5D4CF07E225EE46EE67EF16
:103BA0007CE5CECF08E221E045EE6AED7CE5C8CFAA
:103BB00081E0C9CFCF93DF93EC0181E0898B8F81C6
:103BC0000E94351388850E944B130E947813EA8166
:103BD000FB81309739F06C897D89CE010696DF91A3
:103BE000CF910994DF91CF910895CF93DF93EC01AA
:103BF0008881823031F4FB0182810E94910E81E044
:103C00008B87DF91CF910895DB01FC0180818130AA
:103C100021F48D919C910C94BA07823039F413965B
:103C2000ED91FC91149712968C9109940895FC01E2
:103C30008081813029F4FB01808191810C94CF0730
:103C40000895EF92FF920F931F93CF93DF93EC01B0
:103C50008A85811134C0EB80FC8087E5F81A26E163
:103C60002E9DC0012F9D900D1124DC01AE5EBE4F34
:103C70001496ED91FC911597309731F054966D9113
:103C80007C91885E9E4F099586E18E9D80018F9D77
:103C9000100D11240E5E1E4FF80187810E943B1308
:103CA000F80180850E9451130E94781318821986AA
:103CB0001B861E821D821092110310921003DF9149
:103CC000CF911F910F91FF90EF900895DF92EF92A7
:103CD000FF920F931F93CF93DF937C01FB018281AF
:103CE000882399F08091620190916301019669F0B7
:103CF000C2E1D1E010E000E0DD24D39480916201C4
:103D0000909163018017910744F4DF91CF911F9147
:103D10000F91FF90EF90DF9008958E818823D9F066
:103D200089859A858E159F0539F4809110039091AD
:103D300011038E159F0579F0DF86FC86EB86898955
:103D4000811103C0CE010E94DA1DCE0106960E94A9
:103D5000211E0E9458130F5F1F4F6696CFCFEF9220
:103D6000FF920F931F93CF93DF937C0197558F3F63
:103D7000910509F0E0F52091620130916301281767
:103D8000390724F49093630180936201FB0122813F
:103D900036E1389F8001399F100D1124E801CE5E75
:103DA000DE4F288B92818E81992349F1FA86E9862C
:103DB0008F5F8E830E9406219E878D870E945B13F2
:103DC0008F830E94321388870E9448139885892B1D
:103DD0008887E881F981309731F06C897D89C80145
:103DE000885E9E4F0995F0921103E092100381E0E6
:103DF000DF91CF911F910F91FF90EF90089588234D
:103E0000B1F38989882399F3C801885E9E4F0E9487
:103E1000211EEDCFEF92FF920F931F93CF93DF936D
:103E2000809162019091630110E006E10196C1F575
:103E3000DF91CF911F910F91FF90EF900895089F10
:103E4000F001099FF00D1124EE5EFE4FE288F38829
:103E5000E114F10419F428ECE22EF12C089FE001A2
:103E6000099FD00D1124CE5EDE4F8E818823B9F0DC
:103E70008D859E850E941E21E816F90680F4109F0C
:103E8000700111248989811105C0C7018E5E9E4F82
:103E90000E94DA1DC701885E9E4F0E94211E1F5F8F
:103EA000812F90E02091620130916301281739073A
:103EB00034F6BECF9093ED018093EC01089590937A
:103EC0001703809316030895E0911603F0911703EA
:103ED000309721F00190F081E02D099480E0089561
:103EE0000E94641F0895E0911603F0911703309724
:103EF00099F020917001222359F02091D30427FFDB
:103F000007C0DC012C9111962C93119726E02C937D
:103F10000280F381E02D09940895209114033091DB
:103F200015032817390771F0909315038093140334
:103F3000E0911603F0911703309721F00680F78186
:103F4000E02D09940895209112033091130328174E
:103F5000390771F09093130380931203E0911603D5
:103F6000F0911703309721F00084F185E02D09943A
:103F70000895FC01329680917001882321F0809190
:103F8000D3049EE187FF96E080E0915008F4089505
:103F900021912223D1F38F5FF8CF662301F1209185
:103FA00070012223F1F02091D30427FF1AC0462F7D
:103FB0004695469546954E3190F4677021E030E085
:103FC00002C0220F331F6A95E2F7840F911DFC0196
:103FD000828190E02823392381E0232B69F480E05B
:103FE0000895FC01329608962191261721F0E817D2
:103FF000F907D1F7F4CF81E008959C01FC013296D6
:104000009FEF80E04191461751F09F3F19F4411115
:1040100001C0982F8F5F8630A9F79F3F09F408955C
:10402000290F311D97FD3A95F90162830895FC012E
:10403000329608962191261303C0DF0111971C9236
:10404000E817F907B9F70895E62FE695E695E6959E
:10405000EE3168F4E80FF92FF11D677021E030E0D0
:1040600001C0220F6A95EAF78281822B828308952C
:10407000E62FE695E695E695EE3170F4E80FF92F18
:10408000F11D677021E030E001C0220F6A95EAF768
:104090002095828128232283089520917001222374
:1040A00029F02091D30427FD0C9424200C94FD1FAB
:1040B00020917001222329F02091D30427FD0C9434
:1040C00038200C941720FC013296809170018823CF
:1040D00051F08091D30487FF06C08EE1DF011D926D
:1040E0008A95E9F7089586E0F9CF08950C94752034
:1040F000811105C081E0809318030C94762082E042
:10410000FACF83E0809318030C9476200C947820E7
:1041100081E0809318030C9476200C9488200895F5
:104120000895CF930E948F200E94A8180E9490208B
:10413000C0E08C2F0E94C817892B31F4CF5FC630A6
:10414000C1F780E0CF91089581E0FCCF08951F92E0
:104150001FB61F9211248F939F93AF93BF938091AB
:104160001903811113C08091F4049091F504A0917A
:10417000F604B091F7044196A11DB11D8093F4049B
:104180009093F504A093F604B093F704BF91AF9118
:104190009F918F911F901FBE1F9018958091FC04D6
:1041A000843031F10E9425091092190388E190E0D2
:1041B00020E40FB6F894A895809360000FBE20937A
:1041C000600083B7817F846083BF83B7816083BFD2
:1041D0007894889583B78E7F83BF0FB6F894A8959F
:1041E00080916000886180936000109260000FBE33
:1041F00008950E94EF0D0C94290982E084BD93E09C
:1042000095BD9AEF97BD80936E0008952FB7F894EF
:104210008091F4049091F504A091F604B091F70414
:104220002FBF08952FB7F8946091F4047091F504AE
:104230008091F6049091F7042FBF08959C014FB729
:10424000F8948091F4049091F504A091F604B09153
:10425000F7044FBF821B930B089578941F921FB6EB
:104260001F9211248F939F93AF93BF938091F40477
:104270009091F504A091F604B091F7040196A11D68
:10428000B11D8093F4049093F504A093F604B093C9
:10429000F704BF91AF919F918F911F901FBE1F9008
:1042A000189581E08093E00080E28093D80010921E
:1042B000C9008FE19EE40197F1F700C0000087E09C
:1042C00090EBDC018093090590930A05A0930B0500
:1042D000B0930C0588E19CE00FB6F894A895809304
:1042E00060000FBE90936000FFCF80913D03089562
:1042F0000895CF93DF93EC01809170018823B1F191
:104300008091D30487FF32C060E282E08093E900AD
:104310008FEF9091E800815095FD06C095ED9A953C
:10432000F1F700008111F5CF8091E80085FF1BC0F7
:104330008091700170E050E040E0811104C050E0D5
:1043400040E068E070E0CE010E9492238091E80096
:104350008E778093E80080E2FE01ADE1B3E001904A
:104360000D928A95E1F7DF91CF91089568E081E0A1
:10437000CDCF80931A0370931C0360931B0380912D
:10438000FC04843001F582E08093E9008FEF909186
:10439000E800815095FD06C095ED9A95F1F7000073
:1043A0008111F5CF8091E80085FF0DC050E040E01D
:1043B00063E070E08AE193E00E9492238091E8003C
:1043C0008E778093E8000895BC0184E00C94B921B5
:1043D000BC0183E00C94B92108958091FB04811104
:1043E00009C00E9422250E947F258091E2008460FE
:1043F0008093E20008951092FB0408950C948820A5
:104400006091F80481E0611101C080E00C9481208A
:104410009091FC0481E0943009F080E06091F80410
:104420000C94862042E061EC81E00E949E2442E2EE
:1044300061EC82E00E949E249091FC0481E0943023
:1044400009F080E06091F8040C9478208091FE04DB
:10445000833009F460C030F48130C9F1823009F44E
:104460009CC008958A3009F488C08B3009F46EC06E
:10447000893009F04FC08091FD04813209F04AC0B3
:104480008091010590910205029708F043C0809148
:10449000E800877F8093E8008091E80082FF36C0C3
:1044A0009091F3008091F200029731F48091F10035
:1044B000813011F0863021F48091F10080933D032A
:1044C0008091E8008B778093E8000C94D22480914F
:1044D000FD04813AF9F48091E800877F8093E80039
:1044E0008091010590910205892B61F460E28DE1D4
:1044F00093E070E00E94E1238091E8008B77809345
:10450000E800089560E090E080E0F3CF8091FC0443
:104510008111C2CF08958091FD04813AD9F780912D
:10452000010590910205892BA9F78091E800877F0A
:104530008093E8008091E80080FFFCCF80917001BB
:104540008093F1008091E8008E77BDCF8091FD04CB
:10455000813201F78091010590910205892BD1F6F6
:104560008091E800877F8093E8000E94D2248091A8
:10457000FF04809370010C94EF0D8091FD04813253
:1045800049F68091E800877F8093E8000E94D2245A
:104590008091000580933E0308958091FD04813A47
:1045A00009F0B8CF8091E800877F8093E800809180
:1045B000E80080FFFCCF80913E03C2CF84B7877FA5
:1045C00084BF0FB6F894A8958091600088618093AD
:1045D0006000109260000FBE80E890E00FB6F89483
:1045E00080936100909361000FBE0C948D200E9417
:1045F00022250E947F25E2EEF0E0808184608083A6
:1046000078940C94082884E691E00C945F1F8091C4
:10461000FC048530A9F48091FC04853011F00C94E1
:10462000F9200E94CE208091FA048823A1F30E94F1
:104630009120882381F30E947C230E94EF0DEBCF11
:10464000089508950C942423292F3327233031050E
:1046500019F168F42130310509F444C022303105E4
:1046600009F445C090E080E030E020E025C0213230
:10467000310549F122323105A9F780E490E025E4C3
:1046800035E061157105C1F08DE690E028ED34E06C
:104690006130710589F0E6CF99278130910581F06D
:1046A000009729F00297F1F6E9E4F4E002C0E7E8A8
:1046B000F4E0849190E09F01FA0131832083089512
:1046C000EFE6F4E0F6CF89E090E02DE934E0611503
:1046D000710591F389E090E026EB34E061307105DB
:1046E00059F3C0CF82E190E026EC34E0E5CF8BE3D4
:1046F00090E02BE834E0E0CF80E189BD82E189BD24
:1047000009B400FEFDCF8091D8008F7D8093D80042
:104710008091E00082608093E0008091E00081FD64
:10472000FCCF0895AF92BF92CF92DF92FF920F938A
:104730001F93CF93DF936C01EB018A010E94F12458
:10474000F82E811123C00115110539F0F80180817F
:104750009181C81BD90BC80ED91EB12CA12C209752
:10476000A9F08091E80085FD22C08091E8008E7755
:104770008093E80001151105A1F0F8018081918175
:10478000A80EB91EB182A08285E0F82E8F2DDF9190
:10479000CF911F910F91FF90DF90CF90BF90AF907E
:1047A00008950E94F1248823D1F2F82EEFCFF6016C
:1047B00081916F018093F1002197FFEFAF1ABF0A3B
:1047C000CECFFC01809103059091040586179707D1
:1047D000A0F06115710529F49091E8009E779093FF
:1047E000E80090E06115710551F4911108C08091C5
:1047F000E80082FF34C080E00895BC01F2CF8091D0
:10480000FC048823C1F18530C1F18091E80083FD6B
:1048100030C08091E80082FDEACF8091E80080FFFF
:10482000E1CF8091F3002091F200382F61157105DE
:1048300019F02830310558F091E02830310509F0A1
:1048400090E02091E8002E772093E800CBCF819173
:104850008093F100615071092F5F3F4FE7CF809146
:10486000FC04882341F0853041F08091E80083FF0B
:10487000BECF81E0089582E0089583E00895FC01B1
:10488000809103059091040586179707A0F06115A4
:10489000710529F48091E8008E778093E80090E01C
:1048A0006115710551F4911108C08091E80082FFF3
:1048B00035C080E00895BC01F2CF8091FC048823CC
:1048C000C9F18530C9F18091E80083FD31C0809144
:1048D000E80082FDEACF8091E80080FFE1CF80917F
:1048E000F3002091F200382F6115710519F028307E
:1048F000310558F091E02830310509F090E08091C1
:10490000E8008E778093E800CBCF84918093F1000C
:104910003196615071092F5F3F4FE6CF8091FC04C3
:10492000882341F0853041F08091E80083FFBDCFBE
:1049300081E0089582E0089583E00895982F9730EC
:1049400028F08F708093E90081E008959093E9004A
:10495000242F762F50E0981731F07091EC002091C1
:10496000ED005091F00021FD02C09F5FE8CF309133
:10497000EB003E7F3093EB003091ED003D7F3093B4
:10498000ED003091EB0031603093EB007093EC0060
:104990002093ED005093F0002091EE0027FDE5CF2D
:1049A00080E008958091FD0487FF13C08091E800A6
:1049B00082FF06C08091E8008B778093E80004C0F6
:1049C0008091FC048111F2CF08958091FC0488232A
:1049D000D9F38091E80080FFF8CF8091E8008E77CE
:1049E000ECCF2091E4003091E50095E6A9012091FB
:1049F000EC00822F817020FF06C08091E80080FFCC
:104A000006C080E008952091E80022FD1AC0809140
:104A1000FC04882389F0853089F08091EB0085FDC6
:104A20000FC02091E4003091E50042175307F9F2DE
:104A30009150E1F684E0089582E0089583E00895BE
:104A400081E008950E9490250E949825E0EEF0E014
:104A5000808181608083E8EDF0E080818F778083C2
:104A600019BCA7EDB0E08C918E7F8C9380818F7EF6
:104A700080831092FB0408950F931F93CF93DF93CD
:104A80000E9490250E949825C8EDD0E088818F77FC
:104A9000888388818068888388818F7D888319BC1A
:104AA0001092FC041092F8041092FA041092F90487
:104AB00000EE10E0F80180818B7F80838881816027
:104AC000888342E060E080E00E949E24E1EEF0E016
:104AD00080818E7F8083E2EEF0E080818160808340
:104AE000808188608083F80180818E7F80838881C7
:104AF00080618883DF91CF911F910F910895E8ED38
:104B0000F0E080818F7E8083E7EDF0E0808181603E
:104B1000808384E082BF81E08093FB040C943C2579
:104B2000E8EDF0E080818E7F80831092E2000895AE
:104B30001092DA001092E10008951F920F920FB6C2
:104B40000F9211242F933F934F935F936F937F9313
:104B50008F939F93AF93BF93EF93FF938091E10067
:104B600082FF0BC08091E20082FF07C08091E100CC
:104B70008B7F8093E1000E9407288091DA0080FFFC
:104B800019C08091D80080FF15C08091DA008E7F17
:104B90008093DA008091D90080FF96C080E189BDC2
:104BA00082E189BD09B400FEFDCF81E08093FC0461
:104BB0000E94ED218091E10080FF19C08091E20008
:104BC00080FF15C08091E2008E7F8093E20080918B
:104BD000E20080618093E2008091D800806280933F
:104BE000D80019BC85E08093FC040E9400228091CB
:104BF000E10084FF2BC08091E20084FF27C080E1A8
:104C000089BD82E189BD89B5982F917080FFFBCF66
:104C10008091D8008F7D8093D8008091E1008F7EB5
:104C20008093E1008091E2008F7E8093E20080918A
:104C3000E20081608093E2008091F804882309F407
:104C400049C084E08093FC040E9408228091E10026
:104C500083FF29C08091E20083FF25C08091E1009D
:104C6000877F8093E10082E08093FC041092F80437
:104C70008091E1008E7F8093E1008091E2008E7F41
:104C80008093E2008091E20080618093E20042E044
:104C900060E080E00E949E248091F0008860809314
:104CA000F0000E94FE21FF91EF91BF91AF919F9183
:104CB0008F917F916F915F914F913F912F910F90C5
:104CC0000FBE0F901F90189519BC1092FC040E9403
:104CD000FB2170CF8091E30087FD93E09093FC046B
:104CE000B3CF1F920F920FB60F9211242F933F93C1
:104CF0004F935F936F937F938F939F93AF93BF93E4
:104D0000CF93DF93EF93FF93D091E900DF70809111
:104D1000EC00C82FC17080FDC0E81092E9008091BE
:104D2000F000877F8093F00078940E94B52610925F
:104D3000E9008091F00088608093F000CD2BCF7067
:104D4000C093E900FF91EF91DF91CF91BF91AF91B7
:104D50009F918F917F916F915F914F913F912F9193
:104D60000F900FBE0F901F9018951F93CF93DF9356
:104D7000CDB7DEB7AA970FB6F894DEBF0FBECDBF92
:104D80008DEF94E02091F100FC012193CF01F5E03B
:104D900085309F07B9F70E9426228091E80083FFA3
:104DA0001EC18091FD049091FE049A3008F017C155
:104DB000E92FF0E0E855F54D0C946D28803899F016
:104DC000823809F00CC1809101058F70873008F09E
:104DD00006C18093E9008091EB0085FB882780F96C
:104DE0001092E90006C08091F9049091FA049111A3
:104DF00082609091E800977F9093E8008093F100A3
:104E00001092F1008091E8008E77E5C0882309F4C4
:104E1000D3C0823009F0E3C08091FF048111D6C075
:104E2000809101058F702FEF280F263008F0D7C032
:104E30008093E9002091EB0020FFC8C0933031F44B
:104E40008091EB0080628093EB00C0C09091EB00FA
:104E500090619093EB0021E030E001C0220F8A9531
:104E6000EAF72093EA001092EA008091EB00886054
:104E7000EACF8111B4C01091FF041F778091E30045
:104E80008078812B8093E3008091E800877F809376
:104E9000E8000E94D2248091E80080FFFCCF80913E
:104EA000E30080688093E30082E0111183E0809347
:104EB000FC0495C08058823008F091C08091FF04B6
:104EC000909100058C3D23E09207A1F583E08A8351
:104ED0008AE289834FB7F894DE01139620E03EE022
:104EE00051E2E32FF0E050935700E49120FF03C01C
:104EF000E295EF703F5FEF708E2F90E0EA30C0F0E8
:104F0000C7968D939D932F5F243159F74FBF8091A2
:104F1000E800877F8093E8006AE270E0CE010196A6
:104F20000E94E1238091E8008B778093E80057C0CE
:104F3000C096E7CF6091010570910205AE014F5F09
:104F40005F4F0E942223BC01892B09F448C0909135
:104F5000E800977F9093E80089819A810E943F241E
:104F6000E1CF8038E1F58091E800877F8093E80009
:104F70008091F8048093F10045CF811130C0909169
:104F8000FF04923060F58091E800877F8093E8000D
:104F90009093F8040E94D2248091F804882311F0A1
:104FA00084E005C08091E30087FDFACF81E0809323
:104FB000FC040E94122213C08091FF04813079F416
:104FC00081E0933009F080E08093FA041092E900C8
:104FD0008091E800877F8093E8000E94D22480912E
:104FE000E80083FF0AC08091E800877F8093E80093
:104FF0008091EB0080628093EB00AA960FB6F89444
:10500000DEBF0FBECDBFDF91CF911F9108950895F0
:10501000CF938091FC048823A1F0C091E900CF7068
:105020009091EC00892F817090FD80E8C82B109240
:10503000E9008091E80083FD0E94B526CF70C093FF
:10504000E900CF910895AA1BBB1B51E107C0AA1F1D
:10505000BB1FA617B70710F0A61BB70B881F991F19
:105060005A95A9F780959095BC01CD01089597FBBD
:10507000072E16F4009407D077FD09D00E9423284C
:1050800007FC05D03EF4909581959F4F089570954B
:1050900061957F4F0895A1E21A2EAA1BBB1BFD014B
:1050A0000DC0AA1FBB1FEE1FFF1FA217B307E40707
:1050B000F50720F0A21BB30BE40BF50B661F771F5F
:1050C000881F991F1A9469F760957095809590953F
:1050D0009B01AC01BD01CF010895EE0FFF1F0590AC
:1050E000F491E02D09940F931F93CF93DF938230B7
:1050F000910510F482E090E0E0910705F091080539
:1051000030E020E0B0E0A0E0309799F421153105BF
:1051100009F447C0281B390B24303105C0F58A81BA
:105120009B816115710571F1FB0193838283FE01FF
:1051300011C0408151810281138148175907F8F04D
:105140004817590799F4109761F012960C9312972B
:1051500013961C933296CF01DF91CF911F910F913F
:1051600008950093070510930805F4CF2115310524
:1051700019F04217530718F49A01BD01EF01DF013E
:10518000F801C2CF9093080580930705D0CFFE01A8
:10519000E20FF31F819391932250310939832883C1
:1051A000DACF2091050530910605232B41F420919B
:1051B00002013091030130930605209305052091EB
:1051C0000001309101012115310541F42DB73EB7A1
:1051D0004091040150910501241B350B40910505B8
:1051E000509106054217530708F0B5CF241B350B25
:1051F0002817390708F4AFCFBC016E5F7F4F261721
:10520000370708F4A8CF640F751F709306056093E5
:105210000505FA01819391939ECFCF93DF93009779
:10522000E9F0FC01329713821282C0910705D091F8
:105230000805DE0130E020E02097A1F420813181D3
:10524000820F931F20910505309106052817390715
:1052500009F067C0F0930605E0930505DF91CF9153
:105260000895DA01AE17BF0708F040C012964D91BD
:105270005C9113979D014115510599F7D90113963A
:10528000FC93EE9312974D915D91A40FB51FEA1711
:10529000FB0779F4808191810296840F951FD901D3
:1052A00011969C938E938281938113969C938E93F7
:1052B0001297B0E0A0E08A819B810097B9F5FE01CA
:1052C00081919191E80FF91F809105059091060554
:1052D0008E179F0719F6109761F510920805109226
:1052E0000705D0930605C0930505B8CFB383A28305
:1052F00040815181840F951FA817B90771F44E5F43
:105300005F4F8D919C911197480F591F5183408396
:1053100012968D919C91938382832115310509F01A
:10532000ADCFF0930805E093070598CFDE01EC01BF
:10533000C2CF13961C921E921297D3CF8F929F9238
:10534000AF92BF92CF92DF92EF92FF92CF93DF9313
:10535000EC01688179818A819B81611571058105E4
:10536000910521F464E279ED8BE597E02DE133EFCF
:1053700041E050E00E94592A49015A019B01AC01C9
:10538000A7EAB1E40E94782A6B017C01ACEEB4EF8D
:10539000A50194010E94862ADC01CB018C0D9D1D84
:1053A000AE1DBF1DB7FF03C00197A109B048888398
:1053B0009983AA83BB839F77DF91CF91FF90EF9072
:1053C000DF90CF90BF90AF909F908F9008950E94F4
:1053D0009E29089586E091E00E949E290895B0E0FC
:1053E000A0E08093060190930701A0930801B09379
:1053F00009010895FB01DC0104C08D910190801921
:1054000021F441505040C8F7881B990B0895DC01E6
:10541000CB01FC01F999FECF06C0F2BDE1BDF89ABF
:10542000319600B40D9241505040B8F70895F99963
:10543000FECF92BD81BDF89A992780B50895A8E165
:10544000B0E042E050E00C94092ADC01A40FB51F43
:105450004150504048F0CB01840F951F2E910E947F
:10546000362A41505040D0F70895262FF999FECFA3
:1054700092BD81BDF89A019700B4021639F01FBAA7
:1054800020BD0FB6F894FA9AF99A0FBE08950396C4
:10549000272F0E94362A0E94352A252F0E94362A5D
:1054A000242F0C94362A0196272F0E94362A0C941A
:1054B000352A052E97FB1EF400940E94702A57FD92
:1054C00007D00E944B2807FC03D04EF40C94702A9E
:1054D00050954095309521953F4F4F4F5F4F089520
:1054E00090958095709561957F4F8F4F9F4F089550
:1054F0000E948B2AA59F900DB49F900DA49F800DB4
:10550000911D11240895B7FF0C94782A0E94782ADF
:10551000821B930B0895A29FB001B39FC001A39F6C
:10552000700D811D1124911DB29F700D811D1124DC
:10553000911D0895F894FFCFB10BB10BE20BE20B74
:10554000750C110C110C110C910C1D0D2C0D2C0D4A
:10555000DE260627EF270627EF2739275A27EF27CA
:04556000B127BD278B
:1055640000000D05200001000000FF0000FF010005
:1055740000FF000000000000000000000000000028
:105584000000000000000000F51D041E171E0000AE
:105594000000000000000000000000005901F51D9B
:1055A400041E171E000000000000000000000000A0
:1055B40000005401AE0000910EAE0001910EC8002F
:1055C400CE02FFFF75217921EC21E821E421782125
:1055D40001E200E900EA00B500B600B700CD00839F
:1055E40001CC008A019201940121022302240225A4
:1055F40002260227022A02B300B4006F0070008161
:105604008283E200E900EA00B500B600B700CD00ED
:105614008301CC008A019201940121022302240215
:105624002502260227022A02B300B4006F0070008C
:10563400818283F595313233939267663635349798
:0C564400963794F1F0C6F4F6F70004006D
:00000001FF
