:100000000C94C3020C940A030C940A030C940A0384
:100010000C940A030C940A030C940A030C940A032C
:100020000C940A030C940A030C9469240C943D2547
:100030000C94AD1F0C940A030C940A030C940A034D
:100040000C940A030C940A030C940A030C940A03FC
:100050000C940A030C9404200C940A030C940A03D5
:100060000C940A030C940A030C940A030C940A03DC
:100070000C940A030C940A030C940A030C940A03CC
:100080000C9418050C940A030C940A030C940A03AC
:100090000C940A030C940A030C940A030C940A03AC
:1000A0000C940A030C940A030C940A033C2D003DA3
:1000B0003E002D3E00E9000000C9000000E80000FD
:1000C00000C8000000EA000000CA000000EB0000C9
:1000D00000CB000000E2000000C2000000E00000D1
:1000E00000C0000000E7000000C7000000EE0000B4
:1000F00000CE000000AC2000003F0E0000A9000070
:1001000000AE000000C9030000A9030000F40000D5
:1001100000D4000000F9000000D9000000530100E5
:100120000052010000C0030000B0000000F1000018
:1001300000D1000000B5000000C3030000642200ED
:100140000065220000AB000000BB00000060220040
:1001500000482200001E22000029003A003B003C1B
:10016000003D003E003F004000410042004300448B
:100170000045000000AE00000035001E001F0020FA
:100180000021002200230024002500260027002D46
:10019000002E002A002A004C002B0014001A000830
:1001A00000150017001C0018000C00120013002F8F
:1001B000003000310000004B0029610400160007E8
:1001C0000009000A000B000D000E000F0033003480
:1001D000002800000000004E00E10000001D001B90
:1001E0000006001900050011001000360037003825
:1001F00000E100520000000000E000E200E3000027
:1002000000000000002C42000000000000E7001188
:10021000505000510000004F00010001000100019A
:1002200000010001000100010001000100010001C6
:1002300000010000000100000001000100010001B8
:1002400000010001000100010001000100010001A6
:100250000001000100010001000100010001000196
:100260000001000100010001000100010001000186
:10027000000100010000000100E000010001000198
:100280000001000100010001000100010001000166
:100290000001000000000001000100000001000159
:1002A0000001000100010001000100010001000146
:1002B00000010001000000000001000254E2000003
:1002C00000000000002C00000000000000010010F1
:1002D00050010001000000010001000100010001C7
:1002E0000001000100010001000100010001000106
:1002F00000010000000100000001000100010001F8
:1003000000010001000100010001000100010001E5
:1003100000010001000100005C010001000100007B
:100320008002800480010018800E80168001000188
:1003300000010001000000010001000A8001002A04
:1003400000010001005000510052004F0001000167
:100350000001000000000001000100000001000198
:10036000000C800100010001000100605D5F5D6123
:100370005D0100010000000000010001000100001B
:10038000000000000001000000000000000100016A
:1003900000AC0001000000AB000000000000000005
:1003A000002A2B28000000000000000000000000D0
:1003B0000000000029000000002C1E34202122240F
:1003C000342627252E362D3738271E1F202122239D
:1003D0002425263333362E37381F0405060708092F
:1003E0000A0B0C0D0E0F10111213141516171819F5
:1003F0001A1B1C1D2F3130232D3504050607080953
:100400000A0B0C0D0E0F10111213141516171819D4
:100410001A1B1C1D2F3130354C000000000000005D
:1004200000000000000000000000000000000000CC
:10043000000000000000000000000000007E0F002F
:10044000D4FFFFFFC7000000782403770069006C29
:1004500000620061002E00740065006300680020E7
:100460000057005400370035002D004300000016EF
:1004700003770069006C00620061002E0074006563
:10048000006300680000000403090409023B000245
:100490000100A0FA09040000010301010009211173
:1004A0000100012240000705810308000A09040138
:1004B000000103000000092111010001226D000765
:1004C00005820320000A1201100100000008826565
:1004D0005C0701000102000105010980A1018503FB
:1004E00019012AB700150126B70095017510810082
:1004F000C0050C0901A101850419012AA0021501FA
:1005000026A002950175108100C005010906A10110
:100510008505050719E029E71500250195087501EE
:1005200081020507190029EF1500250195F07501D5
:1005300081020508190129059505750191029501AA
:1005400075039101C005010906A101050719E029FC
:10055000E71500250195087501810295017508814F
:10056000010507190029FF150026FF0095067508EB
:10057000810005081901290595057501910295016C
:1005800075039101C00011241FBECFEFDAE0DEBF7A
:10059000CDBF04B603FE27C08091D2049091D3044E
:1005A000A091D404B091D5048730904BA740B04BB4
:1005B000D1F41092D2041092D3041092D404109269
:1005C000D50414BE84B7877F84BF0FB6F894A8956E
:1005D00080916000886180936000109260000FBE7F
:1005E000E0E0F8E3099511E0A0E0B1E0E0EBF0E530
:1005F00002C005900D92A03EB107D9F724E0A0EE0D
:10060000B1E001C01D92A23DB207E1F70E94A52111
:100610000C942E280C940000EDE8F4E060834183F4
:1006200024E630E042E050E0BF01880F0C949304D0
:10063000EF92FF921F93CF93DF937B01182F110F3F
:10064000D0E0C0E0C0938D04D701AC0FBD1FEEE831
:10065000F4E08D91819384E0EE39F807D1F724E638
:1006600030E041E150E06DE874E0812F0E94930496
:100670006096C03CD10531F7DF91CF911F91FF907B
:10068000EF900895CF93DF93C82F45EC6EEF0E9453
:100690000C0340E06DEF8C2F0E940C03D0E040E093
:1006A0006D2F8C2F0E940C03DF5FD831C1F745EC12
:1006B0006EEF8C2F0E940C0341E06DEF8C2F0E9497
:1006C0000C03D0E040E06D2F8C2F0E940C03DF5F05
:1006D000D03CC1F745EC6EEF8C2F0E940C0343E039
:1006E0006DEF8C2F0E940C034FEF61E08C2F0E9466
:1006F0000C0341E060E08C2F0E940C038FE39CE927
:100700000197F1F700C00000DF91CF910895803686
:10071000910548F4880FE82FF0E0E35FFC4F608319
:1007200081E08093130208951F93CF93DF93182FD6
:10073000D0E0C0E0612FCE010E9487032196C03631
:10074000D105C1F7DF91CF911F910895880FE82F50
:10075000E695E695E695F0E0ED51FE4F2081382FC5
:10076000377081E090E001C0880F3A95EAF7662380
:1007700031F0822B808381E08093E201089580959F
:100780008223F8CFCF93C82F80911302882379F06A
:1007900045EC6EEF8C2F0E940C0341E06DEF8C2F27
:1007A0000E940C036DE073E08C2F0E9418031092DE
:1007B0001302CF9108950F931F93CF93DF93D82FF8
:1007C0008091E2018823C9F045EC6EEF8D2F0E94E5
:1007D0000C0340E06DEF8D2F0E940C0303EE11E03F
:1007E000C0E0F80141918F016C2F8D2F0E940C0306
:1007F000CF5FC831B1F71092E201DF91CF911F9125
:100800000F9108951092B9008CE08093B80008957C
:10081000EF92FF920F931F93CF93DF93182FEB016B
:100820001092BC0084EA8093BC000E94DD1F7C0112
:100830008091BC0087FF27C08091B900887F8830F5
:1008400029F08091B900887F8031D9F51093BB00E1
:1008500084E88093BC000E94DD1F8C018091BC0065
:1008600087FF24C02091B900287F90E080E02831E4
:10087000B1F081E090E0203411F490E080E09195B7
:10088000819591090CC0CF3FDC0791F20E94DD1FDA
:100890008E199F098C179D0758F28EEF9FEFDF91FD
:1008A000CF911F910F91FF90EF900895CF3FDC07FC
:1008B000A9F20E94DD1F801B910B8C179D0770F21F
:1008C000ECCF8FEF9FEFEBCF0F931F93CF93DF937F
:1008D000EB018093BB0084E88093BC000E94DD1F85
:1008E0008C018091BC0087FF11C02091B900287F46
:1008F00081E090E0283211F490E080E091958195BC
:100900009109DF91CF911F910F910895CF3FDC079F
:1009100041F30E94DD1F801B910B8C179D0708F38C
:100920008EEF9FEFEECFCF92DF92EF92FF920F9379
:100930001F93CF93DF936B018A017901B9010E9464
:100940000804E6010C0D1D1DC017D10761F424E950
:100950002093BC00DF91CF911F910F91FF90EF90FA
:10096000DF90CF90089597FDF2CFB70189910E9453
:100970006404EACFCF930E94020480E50E94420300
:10098000C0E061E08C2F0E94A603CF5FC036C9F79C
:1009900060E080E5CF910C94DB038091150281111A
:1009A0000EC081E0809315028DE0809391009FB787
:1009B000F89423E020939900809398009FBF0895B6
:1009C000E1E7F0E0808182608083089580931F02D8
:1009D000089580931E02089580E00C949403809102
:1009E00007010C949403FF920F931F93CF93DF930F
:1009F000F82E0E94692760E670E00E940327D0E08D
:100A0000C0E08C011127F11003C00C171D0731F451
:100A10000E946927682FCE010E9487032196C03665
:100A2000D10589F7DF91CF911F910F91FF90089524
:100A30001F920F920FB60F9211242F933F934F9353
:100A40005F936F937F938F939F93AF93BF93EF9336
:100A5000FF93809114028431A0F48F5F809314027D
:100A6000FF91EF91BF91AF919F918F917F916F9186
:100A70005F914F913F912F910F900FBE0F901F905C
:100A8000189580911A0290911B02A0911C02B091BE
:100A90001D020196A11DB11D80931A0290931B02A5
:100AA000A0931C02B0931D02809116029091170230
:100AB000A0911802B09119028F3F2FEF9207A20761
:100AC000B20759F00196A11DB11D809316029093B3
:100AD0001702A0931802B093190280911F02882375
:100AE00021F08091050180FD1CC020910601222388
:100AF00081F140EB54E0249FC001259F900D11240B
:100B0000092E000CAA0BBB0B409116025091170244
:100B1000609118027091190284179507A607B7070C
:100B2000C0F480E09091040180930401813039F099
:100B3000882311F0823031F00E94EC0491CF0E94A2
:100B4000EF048ECF81E0923009F480E00E94F3043C
:100B500087CF80910801E6CF47E050E067E270E080
:100B600085E091E00C94792747E050E067E270E07F
:100B700085E091E00C94972760E080E50C94C20337
:100B80008091080190E001968430910514F083E093
:100B900090E0809308010C94B40580910801815085
:100BA000990B97FF02C090E080E08430910514F02B
:100BB00083E090E0809308010C94B40580910901D2
:100BC00090E001968430910514F083E090E08093EA
:100BD00009010C94B405809109018150990B97FF8C
:100BE00002C090E080E08430910514F083E090E052
:100BF000809309010C94B4058091070190E0089658
:100C00008F3F910519F014F08FEF90E0809307016A
:100C10000C94B405809107018850990B97FD80E0F2
:100C2000809307010C94B405FB012281222341F03B
:100C300010921602109217021092180210921902C6
:100C400082302FE5920729F148F481152FE59207AC
:100C500099F081309F45B9F081E0089584302FE507
:100C6000920719F1E0F085309F45B1F78281882322
:100C700049F00E94EB0505C08281882319F00E948B
:100C8000FC0580E0089582818823E1F30E940A0632
:100C9000F8CF82818823B1F30E94C005F2CF828110
:100CA000882381F30E94CD05ECCF8281882351F304
:100CB0000E94DE05E6CF0E94BC050C940A0C0F933F
:100CC0001F93CF93DF93EC018B010E941406C03178
:100CD0008FE5D80761F0C131EFE5DE07F1F0B8012B
:100CE000CE01DF91CF911F910F910C94EA06F8018C
:100CF0008281882371F081E00E94881B43E062E0DA
:100D000081E00E944D0880E0DF91CF911F910F910B
:100D1000089581E00E94A91BF1CFF8018281882308
:100D200011F082E0E9CF82E0F5CFCF93C82F0E9487
:100D3000E9048C2FCF910C94B90981E00C94E6045E
:100D400080E00C94E60483E290E00E9489278132DF
:100D500089F484E290E00E948927893059F485E281
:100D600090E00E94892791E0863009F090E0892F79
:100D70008170089580E0FCCF0E94A306882341F093
:100D80000E94AC050E94BA040E94CD040C94E004B9
:100D90000E94B405F7CFCF93C82F6FEF811161E2A6
:100DA00083E290E00E94A7276FEFC11169E084E21F
:100DB00090E00E94A7276FEFC11166E085E290E006
:100DC000CF910C94A7270E94BC0681E00E94CB061D
:100DD0000C94090CFB018F352DE5920709F442C0F4
:100DE00028F4813E910581F081E0089580362DE55B
:100DF000920709F440C081369D45B1F7828188236E
:100E000099F38FEA90E034C08281882351F082E028
:100E10000E94DA140E94DD1F909321028093200229
:100E2000E3CF80912002909121020E94F51F853628
:100E3000910520F082E00E94E114D6CF81EE0E945D
:100E4000E21381EE0E946C1482E00E94E11482E0C1
:100E50000E94881B63E082E00E94B91D81E00E942D
:100E6000D41DC2CF8281882309F4BECF82EB90E0EB
:100E70000E94AC09B9CF8281882309F4B5CF8CEAEE
:100E800090E0F6CFCF93DF939C013A9521153F4137
:100E900068F5EC01CC27D170DC01AA27B270AC0157
:100EA000442754709C012227387094FF11C080E1C0
:100EB000CD2B09F480E0AB2B09F08062452B09F0C3
:100EC0008064232B09F08068FB01DF91CF910994A6
:100ED00081E0CD2B09F480E0AB2B09F08260452B3B
:100EE00009F08460232B81F38860EECFDF91CF91EE
:100EF0000895CF93DF93EC01805E9109089720F06D
:100F000062E377E1209711F46AED74E1CE010E946B
:100F100042078C2FDF91CF910C94E213CF93DF9394
:100F2000EC010E946C14CE01805E9109089720F0BC
:100F300069E377E1209711F461EE74E1CE01DF916E
:100F4000CF910C944207CF93DF93EC010E94790775
:100F5000CE01DF91CF910C948E0781E00895089522
:100F60000C94AF071F93CF93DF9300D000D00F9264
:100F7000CDB7DEB749835A836B83309147028981AD
:100F80009A8131111DC06623B9F02223A9F00E9475
:100F9000771C182F682F89819A810E94241C6981EF
:100FA0007A81812F0F900F900F900F900F90DF910B
:100FB000CF911F910C94CA090E94501C182FEFCF9B
:100FC0000E94771C69817A81EDCFFC01262F408138
:100FD00051816281738184810C94B207CF93DF9336
:100FE000EC0160E00E94E507BE01DF91CF910C9417
:100FF000B0078F929F92AF92BF92CF92DF92EF9203
:10100000FF920F931F936B017C0181E090E0A0E0C1
:10101000B0E04C015D0104C0880C991CAA1CBB1CEB
:101020004A95D2F7B501A4014C015D0104C0880CBA
:10103000991CAA1CBB1C2A95D2F7482959296A2950
:101040007B2904C0880F991FAA1FBB1F0A95D2F7DE
:101050008A019B010C211D212E213F210417150718
:101060002607370789F48C299D29AE29BF29BC01A1
:10107000CD011F910F91FF90EF90DF90CF90BF9027
:10108000AF909F908F90089580959095A095B09582
:101090008C219D21AE21BF21EACF0F93382F262F1F
:1010A0006091BC027091BD028091BE029091BF021E
:1010B000042F432F0E94F9070F910C94621B0E948A
:1010C000E50B0E947A0D0C94E3060E940D120C941D
:1010D0005B0608950E9452170E9469082FEF84E36F
:1010E0009CE0215080409040E1F700C000000C944B
:1010F00028200F931F93CF93DF938C0161E00E9410
:10110000E507EC01B8010E946B11B801CE010E9405
:101110005F06882309F441C0B801CE010E94B311D3
:101120008823D9F1B801CE010E94A10E8823A9F12C
:10113000B801CE010E94400F882379F1B801CE0199
:101140000E94920F882349F1B801CE010E94B51088
:10115000882319F1F8018281882361F0CB35FDE500
:10116000DF0721F170F4C115ECE5DE07A1F0CF3DFA
:10117000DC45C9F0C801DF91CF911F910F910C940C
:10118000AD07CC358DE5D807A1F0CD35DD4591F71C
:101190000E941E1DEFCF0E946A0880E0DF91CF9170
:1011A0001F910F9108950E949D1EF7CF0E94271D49
:1011B000E1CF0E942A1DDECFDF92EF92FF920F93C4
:1011C0001F93CF93DF93E82FF0E0E756FC4FD490C6
:1011D000282F26952695269530E0F901E75CFB4FF0
:1011E0000491877010E0082E02C0159507950A94A7
:1011F000E2F701701127F901E75DFB4FE490F12C54
:10120000082E02C0F594E7940A94E2F791E0E922EF
:10121000FF24F901E75EFB4FC491D0E002C0D595F1
:10122000C7958A95E2F7C170DD270115110519F000
:1012300081EE0E94E213E114F10419F086EE0E949F
:10124000E2138D2D0E94D214EF2819F086EE0E9431
:101250006C14012B19F081EE0E946C14CD2B51F00F
:101260008CE2DF91CF911F910F91FF90EF90DF9073
:101270000C94D214DF91CF911F910F91FF90EF90BA
:10128000DF900895EF92FF920F931F93CF93DF9318
:101290008C01F62E8AE0E82EF8018491882309F467
:1012A00054C0813009F04DC0E8012196FE018491BF
:1012B000813091F42196FE0184910E94D2148E0116
:1012C0000F5F1F4F8F2D815038F3EFE9FFE031970B
:1012D000F1F700C00000F7CF823039F4E801229620
:1012E000FE0184910E94E213EACF833039F4E801D1
:1012F0002296FE0184910E946C14E1CF8430F9F6AD
:10130000E8012296FE01249190E080E0FE013196F2
:101310002053330B2A30310548F0019780F2EFE972
:10132000FFE03197F1F700C00000F7CFE89EA00181
:10133000E99E500D1124C901840F951F2491EF01DE
:10134000E5CF0E94DC08E801BACFDF91CF911F9171
:101350000F91FF90EF90089560E00C944209982F50
:101360009F709A50963018F0805D0C94DC08895A72
:10137000FCCF089581E008950C94BA09CF93C82F4B
:101380000E9495068C2FCF910C94BC0990E080E0D0
:1013900008950895E72FF0E096E0899FE00DF11D94
:1013A000112484E0EE0FFF1F8A95E1F7E60FF11D8F
:1013B000EE0FFF1FE75AFE4F859194910895FC01AF
:1013C000EE0FFF1FE75BFB4F859194910895CF933C
:1013D000DF930E94CA090E94F30AEC01811520E5FF
:1013E000920708F041C0811530E4930708F0B4C0BB
:1013F000803E910518F5803C910508F09DC0883A23
:10140000910570F4853A910508F08EC08130910500
:10141000F9F00097E9F00497D8F4D0E0C0E018C0E4
:101420008F3B9105D0F7C85AD0E0CC0FDD1FCA59C9
:10143000DE4F0990D881C02DD4640AC08115904236
:1014400058F4C11581E0D80718F4C83ED10528F733
:10145000CE01DF91CF910895C11590E3D90708F02F
:1014600071C0CE019F706AC0811525E5920758F5BD
:10147000811534E5930708F09EC0811542E5940775
:1014800050F4C11581E5D80708F469C0DC2FCC27DA
:10149000C16FD06ADDCF982F969596959E012370E7
:1014A0003327C115D34508F077C0C1E0D0E002C0B2
:1014B000CC0FDD1F2A95E2F720E2929FC001112494
:1014C000C82BD92B67C0C11589E5D807A8F4C11569
:1014D00098E5D90708F074C0C11526E5D20708F0D1
:1014E0009CCF8C2F0E948A0BC82FD0E0DC2FCC27FA
:1014F000CC27DF71D062ACCFC1153AE5D30708F431
:1015000064C0CE0190568115904208F086CF8D2F91
:101510008F710E948A0B90E0982F882788279F71EF
:101520009C012C2BE901E6CFC55AD0E0CC56DE4F0A
:10153000C881D0E0D0648CCF805C91090E94DF0923
:10154000EC0186CFCE019927D3FF03C0EC01D86C04
:101550007FCFEC01D06C7CCFDF70D06A79CFCE0129
:10156000E4E096958795EA95E1F783702C2F269510
:101570002695237090E2299F90011124382B8C2FFF
:101580008370C1E0D0E002C0CC0FDD1F8A95E2F786
:10159000C22BD32BDC685CCFC1E0D0E002C0CC0F03
:1015A000DD1F2A95E2F730E2939FC0011124C82B7A
:1015B000D92BDA684DCFD82FCC27C46FD06A48CF4B
:1015C000DC2FCC27C06FD06A43CF8C2F8F700E9446
:1015D0008A0B34E0D695C7953A95E1F7CF709C2FEA
:1015E000EC01D06935CF82389105B1F1B0F4813387
:1015F000910509F475C048F48932910509F469C070
:101600008A32910509F473C008958533910509F470
:1016100059C08933910501F10895833E9105A9F1DF
:1016200038F4803E9105F9F0823E910549F1089524
:10163000863E9105A9F1873E9105C9F1843E910549
:1016400019F52091A20421FF1FC08091A10484FDFF
:1016500014C087EE90E008952091A1042370A1F0BA
:1016600080EE90E008952091A10420FD47C03091C4
:10167000A20430FF09C024FF44C090E080E004C011
:101680002091A10422FDF7CF08952091A10422FD0D
:101690003BC03091A20430FDE3CF24FFF5CFEDCF66
:1016A0002091A10423FFF0CF24FDE7CFD2CF2091DA
:1016B000A10423FD2CC03091A20431FFEECF84EEB3
:1016C00090E008952091A10425FFDECF89E290E00B
:1016D00008952091A10425FFD7CF85E390E00895D8
:1016E0002091A10426FFD0CF8AE290E008952091B6
:1016F000A10426FFC9CF81E390E0089589E390E03B
:10170000089583EE90E0089582EE90E0089586EECD
:1017100090E008959091A10492FF06C0282F2871AF
:101720002830F9F4877F846093FF06C0282F287142
:101730002831F1F4877E84612091A20420FF06C045
:10174000382F38713830D9F4877F816021FF06C087
:10175000282F28712831D1F4877E816194FD877EFE
:101760000895282F24712430F9F68B7F8860DCCF10
:10177000282F2471243101F78B7E8861DDCF382F2B
:101780003171313019F78E7F8860E0CF282F2171B9
:10179000213121F78E7E8861E1CF0C94F21D0E94E9
:1017A000640C8FE39CE90197F1F700C000000E94F0
:1017B000640C80E00E940B0C80FF04C00E94CD0BE3
:1017C0000C94282008950C94CF0B0E94F81D8111D1
:1017D00002C00E949D1E0E94031E8093E9020E9487
:1017E0000B1E9093A2048093A1040E94E30B0E941D
:1017F000071E682F70E090E080E00E94261B609139
:10180000BC027091BD028091BE029091BF020C9407
:10181000601B08950895E82FF0E0EE0FFF1FE155DB
:10182000FB4F808191810895089580EA8A95F1F7B0
:10183000089500C008950C94150CF894E82FE295D3
:10184000EF70F0E031A1282F2F7081E090E001C00F
:10185000880F2A95EAF7982F9095932391A392A148
:10186000892B82A378940895CF93DF93C7E9D1E0C1
:1018700089910E941D0C81E0C73AD807C9F781EF12
:101880000E941D0C80EF0E941D0C86EC0E941D0C16
:1018900084EF0E941D0C86EF0E941D0C87EF0E94B2
:1018A0001D0CE3EAF4E0AFEAB4E0119211921D924C
:1018B0001D9284E0EF3AF807C1F786E00E94FC0C25
:1018C000DF91CF910C945F086F927F929F92AF92BD
:1018D000BF92CF92DF92EF92FF920F931F93CF931D
:1018E000DF9397E9E92E91E0F92E10E000E0C0E0E7
:1018F000CC24C394D12C3FEAA32E34E0B32ED701DD
:101900008D917D01F894E82FE295EF70F0E021A130
:101910008F70A60102C0440F551F8A95E2F7CA01D5
:10192000922F982B91A392A18095892382A37894DA
:101930000E94190CA601002E02C0440F551F0A94E4
:10194000E2F7BA0160957095E3EAF4E087EA682E61
:1019500081E0782ED0E021913191D3019D903D011D
:10196000892D82958F7090E0DC0190968C9190E0AB
:10197000B92DBF7002C095958795BA95E2F780FDA5
:1019800037C0C901842B952B2817390739F09F01DF
:1019900022503109D9018D939C93D1E0AE16BF0638
:1019A000D1F6F701319780810E941D0C0E941B0C1B
:1019B000CD2B0F5F1F4F0031110509F0A0CF2C2F49
:1019C00046E06FEA74E083EA94E00E94FD0C0E9416
:1019D00065088C2FDF91CF911F910F91FF90EF90B1
:1019E000DF90CF90BF90AF909F907F906F900895C1
:1019F000C90186239723C8CF0895FF920F931F93A1
:101A0000CF93DF93F82E092F162FD72FC42F222321
:101A100049F081E0809324020E94DD1F909323020D
:101A200080932202809124028823A1F080912202D7
:101A3000909123020E94F51F069760F0EF2DF02F82
:101A4000A12FBD2F90E080E0D0E08C179D0744F0DF
:101A500010922402DF91CF911F910F91FF90089572
:101A6000219131912D933D930196EFCF0F931F93C9
:101A7000CF93DF93811520EC920718F1EC01D05C35
:101A80000E942D1D182F0E94431D182B0E94661DB9
:101A9000082F0E946D12102B127291E009F490E051
:101AA00086958170981729F0CC0FCD2FCC1FDD0BB8
:101AB000D195CE018F779927DF91CF911F910F910B
:101AC00008959058F9CF97FF13C0FB01228122237C
:101AD00079F00E94360DFC01EE0FFF1FEE0FFF1F85
:101AE000EB54FF4F65917591859194910E94550E2D
:101AF00081E008958CE090E00E948927482F50E013
:101B000070E060E04093BB045093BC046093BD045C
:101B10007093BE04882331F0843039F481E08093DF
:101B20002502089510922502089510922502109220
:101B3000BB0408956091BB048CE090E00C94A7274F
:101B400020912502082E000C990B820F911D27FD74
:101B50009A9562E070E00E9403278F3F71F08093B6
:101B60002502E09125020E2E000CFF0BE355FE4FDF
:101B700080818093BB040C949A0D81E0F0CF0E9489
:101B80006D12869581708093C0049091BB04913052
:101B900029F4882319F089E30E94D2140E942D1D94
:101BA0008093BF040E94401D8091BB04813089F066
:101BB000882359F0823091F08430B9F08FE39CE9AA
:101BC0000197F1F700C00000089586EE0E94E2132D
:101BD000F5CF88E193E00E94A307F0CF82EE0E9448
:101BE000E21387E50E94D214E9CF86EE0E94D21458
:101BF00088E1F8CF8091BB04813071F0882341F0F7
:101C00008230A9F08430A9F08091BF040C943D1D6E
:101C100086EE0E946C14F8CF8CE20E94D214809160
:101C2000C004882389F389E30E94D214EDCF82EEA9
:101C3000F0CF88E2F9CFBF92CF92DF92EF92FF927E
:101C40000F931F93CF93DF936B017C01C7E0D0E02C
:101C50000CE110E0BB24B394D701C601002E04C0F0
:101C6000B695A795979587950A94D2F78F70C9F482
:101C7000B11002C00E94AF09219704501109CF3F53
:101C8000DC0751F4DF91CF911F910F91FF90EF90FE
:101C9000DF90CF90BF900895C430D105ECF6B12C01
:101CA000DBCF0E94AF09B12CE7CFCF92DF92EF924A
:101CB000FF926B017C01C114D10481E1E806F104BB
:101CC000D8F5C114D10481E0E806F10420F0809138
:101CD000BB04823089F10E94BF0DC114D10481E0A0
:101CE000E806F10430F18091BB04811122C081E04B
:101CF000E81AF108C701B6012AE09695879577950D
:101D000067952A95D1F778528F4F9F4F0E941B0EEF
:101D100083E0D822EE24FF24C701B60174528F4F0E
:101D20009F4F0E941B0EFF90EF90DF90CF900C947E
:101D3000FA0DC701B601F5CFFF90EF90DF90CF907D
:101D400008950F931F93CF93DF93EC018B01FB0159
:101D50008281882361F00E942D1D8272C13EFCE5C4
:101D6000DF07E1F060F4C03EECE5DE0799F0B80172
:101D7000CE01DF91CF911F910F910C94630DC73E5F
:101D8000FCE5DF07A0F78C2F825E8093BB040E94E6
:101D90009A0DEDCF811104C081E003C08111FCCF09
:101DA0008FEF0E94A00DE3CF0F931F93CF93DF938C
:101DB000C42FD22FFC0182818823C9F040932802CE
:101DC0000E94DD1F909327028093260280E28C0FF1
:101DD000883008F050C0C77081E001C0880FCA95F4
:101DE000EAF7DF91CF911F910F910C94DA141091C3
:101DF0002802141335C080912602909127020E9478
:101E0000F51F883C910560F5C0E2CD0F1D17B9F0B4
:101E100080E2810F883040F4177081E001C0880FA4
:101E20001A95EAF70E94E114C83048F481E09D2F2A
:101E3000977001C0880F9A95EAF70E94DA14802FF4
:101E40000E94D214C830B8F4D77081E001C0880F66
:101E5000DA95EAF7DF91CF911F910F910C94E1147D
:101E600080E28C0F883038F4C77081E001C0880FA1
:101E7000CA95EAF7EFCFDF91CF911F910F910895A7
:101E80000F939C01CB01243F4CE5340759F1A8F492
:101E9000293DFCE53F0701F12A3D4CE53407D1F12E
:101EA000283D3C4591F406E221EE41EE68ED7CE5EB
:101EB0000E94D40E80E00F910895263FFCE53F0775
:101EC000E9F0B0F0273F3C45F9F0FC01828188231E
:101ED00039F110922802EFCF07E225EE45EE69EDC9
:101EE0007CE5E6CF06E221EE40EE64EF7CE5E0CF54
:101EF00007E225EE44EE65EF7CE5DACF06E221EE5F
:101F000042EE66EF7CE5D4CF07E225EE46EE67EFC2
:101F10007CE5CECF08E221E045EE6AED7CE5C8CF56
:101F200081E0C9CFCF93DF93EC01FB01828188234D
:101F300009F419C1C230FCE5DF07C0F1C6319CE5E8
:101F4000D90730F09E012B5F3C452930310570F5F3
:101F50000E940B1E9093A2048093A104C031ECE573
:101F6000DE0709F4CFC008F05BC0C8308CE5D807A5
:101F700009F4B6C088F5C430ECE5DE0709F4A8C062
:101F8000C0F4C2308CE5D80709F49CC08091A1044C
:101F90008260C330DC4509F498C08091A10490911F
:101FA000A2040E94191E0E94521780E0DF91CF9177
:101FB00008958091A1048061C630ECE5DE0709F444
:101FC00084C08091A1048860C730DC4508F47DC0DE
:101FD0008091A104806279C0CC308CE5D80709F4E7
:101FE00089C070F48091A1048C60CA30ECE5DE07F2
:101FF00009F46BC008F478C08091A1048E7F65C09D
:10200000CE308CE5D80709F479C08091A1048B7F8C
:10201000CF30DC4508F459C08091A1048F7E55C0B3
:10202000CC3FECE5DE0709F457C030F5C3318CE551
:10203000D80709F46FC078F4C131ECE5DE0709F484
:1020400065C0C231DC4509F0A8CF0E9452178091CB
:10205000A1048F773AC0C5318CE5D80709F462C076
:1020600008F476C08091A2048160CB3FDC4509F082
:1020700094CF8093A20491CFC115FDE5DF0709F449
:102080004DC088F48091A2048D7FCE3F9CE5D90796
:1020900081F38091A2048E7FCF3FDC4550F3809185
:1020A000A2048360E6CFC230FDE5DF0709F459C022
:1020B00008F444C080E0C330DD4509F06ECF0E94D3
:1020C0009F1E6BCF8091A10481608093A10465CF96
:1020D0008091A1048460F9CF8091A2048260C9CF6D
:1020E0008091A1048064F1CF0E9452178091A104D5
:1020F0008068EBCF8091A1048D7FE7CF8091A10410
:10210000877FE3CF8091A1048F7DDFCF8091A104F1
:102110008F7BDBCF8091A104837FD7CF8091A204F6
:102120008C7FA7CF8091A10482FB992790F921E0B1
:10213000922790FB82F990FB83F9C7CF8091A2048C
:10214000982F909591708E7F892B90FB81F991CF7C
:102150000E9452179091A104892F97FB87F980580C
:10216000B4CF81E0ACCF81E021CFCF93DF93EB01FF
:1021700086319C4511F50E942D1D9A81992399F075
:102180008A7A91E009F490E090932902811109C0C4
:1021900089E20E94E71C0E94831D80E0DF91CF91BD
:1021A000089585E3F6CF80912902811104C089E268
:1021B0000E94EE1CF0CF85E3FBCF81E0EFCFCF9301
:1021C000DF93EC0181E0898B8F810E94301D88852F
:1021D0000E94461D0E94831DEA81FB81309739F0E1
:1021E0006C897D89CE010696DF91CF910994DF91AC
:1021F000CF910895CF93DF93EC018881823031F441
:10220000FB0182810E94731B81E08B87DF91CF915C
:102210000895DB01FC018081813021F48D919C9136
:102220000C947907823039F41396ED91FC91149750
:1022300012968C9109940895FC018081813029F4D3
:10224000FB01808191810C948E070895EF92FF929B
:102250000F931F93CF93DF93EC018A85811134C0D4
:10226000EB80FC8087E5F81A26E12E9DC0012F9DAA
:10227000900D1124DC01A45FBE4F1496ED91FC91EA
:102280001597309731F054966D917C918E5E9E4FEC
:10229000099586E18E9D80018F9D100D1124045FAC
:1022A0001E4FF80187810E94361DF80180850E942B
:1022B0004C1D0E94831D188219861B861E821D825A
:1022C00010922B0210922A02DF91CF911F910F9151
:1022D000FF90EF900895DF92EF92FF920F931F937C
:1022E000CF93DF937C01FB018281882391F0809161
:1022F00058018F3F71F0CCE0D1E010E000E0DD2428
:10230000D39480915801082E000C990B80179107E7
:1023100044F4DF91CF911F910F91FF90EF90DF90E8
:1023200008958E818823D9F089859A858E159F0519
:1023300039F480912A0290912B028E159F0579F035
:10234000DF86FC86EB868989811103C0CE010E945D
:10235000DF10CE0106960E9426110E94531D0F5FCA
:102360001F4F6696CECFEF92FF920F931F93CF939E
:10237000DF937C0197558F3F910509F0D8F52091A7
:102380005801022E000C330B2817390714F48093E0
:102390005801FB01228136E1389F8001399F100DE1
:1023A0001124E801C45FDE4F288B92818E8199232E
:1023B00049F1FA86E9868F5F8E830E94DD1F9E8732
:1023C0008D870E94661D8F830E942D1D88870E9425
:1023D000431D9885892B8887E881F981309731F0F2
:1023E0006C897D89C8018E5E9E4F0995F0922B0203
:1023F000E0922A0281E0DF91CF911F910F91FF902F
:10240000EF9008958823B1F38989882399F3C8014F
:102410008E5E9E4F0E942611EDCFEF92FF920F939A
:102420001F93CF93DF938091580110E006E18F3F17
:10243000C1F5DF91CF911F910F91FF90EF9008951B
:10244000029FF001039FF00D1124E45FFE4FE2882C
:10245000F388E114F10419F488ECE82EF12C029FC2
:10246000E001039FD00D1124C45FDE4F8E818823CD
:10247000B9F08D859E850E94F51FE816F90680F457
:10248000109F700111248989811105C0C701845FE3
:102490009E4F0E94DF10C7018E5E9E4F0E94261144
:1024A0001F5F212F30E080915801082E000C990BFE
:1024B000821793072CF6BDCF9093310280933002A0
:1024C0000895E0913002F0913102309721F00190AF
:1024D000F081E02D099480E00895E0913002F091C0
:1024E0003102309711F480E008950190F081E02DE1
:1024F00009950895E0913002F0913102309799F0FA
:1025000020916501222359F02091A10427FF07C0E3
:10251000DC012C9111962C93119725E02C930280CD
:10252000F381E02D0994089520912E0230912F021D
:102530002817390771F090932F0280932E02E091B3
:102540003002F0913102309721F00680F781E02DC2
:102550000994089520912C0230912D0228173907F3
:1025600071F090932D0280932C02E0913002F09153
:102570003102309721F00084F185E02D099408950F
:102580000E94E91F609343027093440280934502C6
:102590009093460260933F02709340028093410201
:1025A00090934202089585B7806885BF85B780689B
:1025B00085BF0895089508950C94DA1208950C9437
:1025C000DE120E94D31280EF9DE10E944C200E94F7
:1025D000DB120C94DC1281E008950C94EB12089548
:1025E00008950E94EF120C94F0120E94D41F0E94D2
:1025F000340C0C94DF128F929F92AF92BF92CF92C5
:10260000DF92EF92FF920F931F93CF93DF93CDB79B
:10261000DEB72A970FB6F894DEBF0FBECDBF0E947B
:10262000640C81110E94C01253E3852E52E0952E56
:1026300010E000E0A02E802F0E940B0C6C01F40132
:10264000E190F1904F01E816F90609F45AC0809123
:10265000E90281FD0E94140CC7018C259D25B12C37
:10266000EE24E394F12C9C012E213F21232B09F42D
:1026700042C00E94ED128823A9F0BE82AF82CE2014
:10268000DF2081E0CD2809F480E088870E94DD1FEB
:102690008160782F9A8789874E815F8168858A85D6
:1026A0000E94AB13000F111FF801ED5CFD4F8081FC
:1026B0009181E826F926F182E0820E9461129091D0
:1026C00032028917A9F10E946112809332022A9680
:1026D0000FB6F894DEBF0FBECDBFDF91CF911F9133
:1026E0000F91FF90EF90DF90CF90BF90AF909F90B1
:1026F0008F900C94BE09B394EE0CFF1CF0E1BF1256
:10270000B2CF0F5F1F4F0630110509F093CF8FEF47
:1027100089838A831B820E94DD1F8160782F9D83BD
:102720008C8349815A816B818D810E94AB13C5CF07
:102730002A960FB6F894DEBF0FBECDBFDF91CF91C2
:102740001F910F91FF90EF90DF90CF90BF90AF90CF
:102750009F908F900895DF92EF92FF920F931F93B7
:10276000CF93DF93CDB7DEB72B970FB6F894DEBFCC
:102770000FBECDBF7A878B87F42E052F162FE72E3D
:10278000D82E61110E94531D1E821D827E2DEC8267
:10279000DD824F2D502F612F8D2D9E812B960FB6F0
:1027A000F894DEBF0FBECDBFDF91CF911F910F9187
:1027B000FF90EF90DF900C94041AFC0180819181CE
:1027C0000C94B91CCF93C82F882309F483C0823896
:1027D000C1F40E94611281FD7DC089E30E94E71C63
:1027E0000E94831D2FEF81EE94E0215080409040A5
:1027F000E1F700C0000089E30E94EE1CCF910C9429
:10280000831D8338A1F40E94611280FD63C083E5BB
:102810000E94E71C0E94831D2FEF81EE94E021505F
:1028200080409040E1F700C0000083E5E5CF8438A8
:10283000A1F40E94611282FD4DC087E40E94E71C52
:102840000E94831D2FEF81EE94E021508040904044
:10285000E1F700C0000087E4CFCF8CEF8C0F813A06
:1028600090F46C2F8091590190915A010E94B81EEA
:10287000882329F08C2F0E94EE1C0E94831D8C2F30
:102880000E94E71CBBCF80E28C0F883048F4C770F1
:1028900081E001C0880FCA95EAF70E94301DAECFD3
:1028A000EBE5EC0FE33040F4F0E0E352FE4F8081C3
:1028B00090E0CF910C949412C85AC73158F4EC2F81
:1028C000F0E0EE0FFF1FE155FE4F80819181CF9127
:1028D0000C94AA12CF910895882309F44BC0823832
:1028E00071F40E94611281FF45C089E30E94E71CD8
:1028F0000E94831D89E30E94EE1C0C94831D833883
:1029000059F40E94611280FF35C083E50E94E71CE4
:102910000E94831D83E5EFCF843859F40E94611231
:1029200082FF28C087E40E94E71C0E94831D87E481
:10293000E2CF9CEF980F913AF0F290E2980F983026
:1029400050F4877091E001C0990F8A95EAF7892FBA
:102950000E94361DD2CF9BE5980F933020F490E073
:1029600080E00C949412885A873120F490E080E043
:102970000C94AA1208951F93CF93DF93182FEB01A5
:102980000E94E213209731F4812FDF91CF911F91A4
:102990000C946C148FE99FE00197F1F700C00000E0
:1029A0002197F0CF70E060E0893311F460E570E0CA
:1029B0000C94BB14882321F00E94301D0C94831DBD
:1029C0000895882321F00E94361D0C94831D0895DC
:1029D000BF92CF92DF92EF92FF920F931F93CF930C
:1029E000DF936C01D62FC72FFC0112810581029560
:1029F0000F700E94051DE82E8823A1F0E12E1123FF
:102A000089F08C2F807F803429F080E28D0FE12CBB
:102A1000883040F082E00E94D41D0E94051D91E0A4
:102A2000E82EE926BC2EB2949FE0B922EB2DF0E00F
:102A3000E05DF74D0C9417270C2F0F70C07F11F03D
:102A40000295007F1123A9F0002359F080E28D0F39
:102A5000883010F0D11109C0802F0E94301D0E94D3
:102A6000831D8D2F0E94E21314C0802F0E94461DEB
:102A7000F6CF8D2F0E946C14002359F080E28D0F49
:102A8000883010F0D1112CC0802F0E94361D0E947A
:102A9000831D2B2D2850330B2430310520F40E9448
:102AA00061120E94BE09EE2009F493C10E94011D2B
:102AB00080FD8FC1F60112820E94FB1C0E94881BC0
:102AC000C6010E940A170E94FB1CDF91CF911F9143
:102AD0000F91FF90EF90DF90CF90BF900C94A91BC7
:102AE000802F0E944C1DD3CFFC2FFF70FF2EC07F84
:102AF000C03219F0F29480EFF822DD2369F0D13072
:102B000049F1112391F1002351F1F601858180FFF4
:102B1000A8CF8F70858323C0112381F0011106C0D7
:102B20000E94661D8F290E94DA14B3CF0130C1F7CD
:102B30000E94661D8F290E946C1DABCF011106C03B
:102B40000E94791D8F2D0E94E114A3CF013009F45A
:102B5000A0CFF6CF112329F0063008F09ACF8F2DA1
:102B6000E2CF053008F095CFEDCF002359F3D933EC
:102B700049F4FFEF27EE33E0F15020403040E1F719
:102B800000C000008D2F0E946C1483CF8C2F86957F
:102B90008695837069F0813009F07BCF8D2F9C2F53
:102BA0009370111102C090E080E00E94AA1271CFD0
:102BB0008D2F9C2F9370111102C090E080E00E9435
:102BC000941267CF8C2F837009F041C0111161CF2F
:102BD0004D2F429546954770440F440F0D2F0F70AF
:102BE00010E030E020E0042E04C0000F111F221F6F
:102BF000331F0A94D2F760E070E0CB01D4FF0FC01E
:102C00006FE070E080E090E004C0660F771F881FDF
:102C1000991F4A95D2F76095709580959095C695C5
:102C2000C695C370602B712B822B932BC23049F059
:102C300058F4C13019F00E943A1B2BCF0E94281B78
:102C400028CF0E944C1B25CF0E94261B22CF8695A1
:102C5000112311F08C2F8170882309F41ACF4D2F86
:102C6000429546954770440F440F0D2F0F7010E0AA
:102C700030E020E0042E04C0000F111F221F331F7C
:102C80000A94D2F760E070E0CB01D4FF0FC06FE090
:102C900070E080E090E004C0660F771F881F991FE6
:102CA0004A95D2F76095709580959095C695C69592
:102CB000C370602B712B822B932BC23049F058F4D8
:102CC000C13019F00E94FF1BE4CE0E94ED1BE1CE43
:102CD0000E94111CDECE0E94621BDBCECF7011233E
:102CE00029F08C2F0E94881B8D2F1DCF8D2F0E94C5
:102CF000E1148C2F0E94A91BCCCED23F89F160F445
:102D0000D03FC9F0D13F29F1112309F442C001118C
:102D1000A8CE8C2F8F7121C0D33F39F1D43FA1F7BA
:102D2000112369F1CF718C2F0E94881B63E08C2FD7
:102D30000E94B91DAECE112341F0053008F0A9CE96
:102D40008C2F8F710E94CC1BA4CE063008F0A1CE30
:102D5000F7CF8C2F8F71112369F20E94881B99CEB7
:102D60008C2F8F711123C9F3C5CF112329F08C2F1C
:102D70008F710E94731B8DCE0E946E1B8ACE81E0E4
:102D80000E94D41D023008F484CE82E00E94D41D3B
:102D900080CE002359F0D93309F0F4CE8FEF97EEAF
:102DA000E3E081509040E040E1F7EACE8C2F8F7154
:102DB000A1CF4C2F4F706D2FC6010E94C6090E94F3
:102DC0009E1A67CE4C2F4F706D2FC6010E94C90905
:102DD00060CEDF91CF911F910F91FF90EF90DF9028
:102DE000CF90BF9008950F931F93CF93DF93EC0183
:102DF000688179818A810E94C31C8C010E94231CF6
:102E00000E94251BB801CE01DF91CF911F910F9138
:102E10000C94E814CF93DF93EC018B819C81892B78
:102E200029F08881998189238F3F59F4DF91CF91CF
:102E30000895CE010E94F316CE01DF91CF910C943C
:102E4000EE07CE010E9479088111F3CF0E94051D83
:102E5000882361F38A81882349F382E0DF91CF914F
:102E60000C94D41D882321F00E94461D0C94831DD0
:102E70000895882321F00E944C1D0C94831D089511
:102E800090E080E00E94941290E080E00E94AA12FC
:102E90000E94531D0E94631D0C94831D0E94F51C0B
:102EA0000C9440170E94401D0C944E17E92FE29598
:102EB000EF70E250EE3070F4F0E0E05CF74D0C940F
:102EC0001727803F19F020F4883E20F481E0089510
:102ED000843FE1F380E00895883EC0F3813FD1F75D
:102EE000F5CF93FB882780F908950E94B91C0C94B4
:102EF0005617CF93DF9300D000D00F92CDB7DEB737
:102F00000F900F900F900F900F90DF91CF91089539
:102F1000CF93DF9300D000D000D0CDB7DEB7269698
:102F20000FB6F894DEBF0FBECDBFDF91CF910895ED
:102F30001F93CF93DF93C091480216E0809149021E
:102F40008C1304C0DF91CF911F910895D0E01C9F96
:102F5000F0011D9FF00D1124E65BFD4F4081518172
:102F600062817381848195810E9488172196C77040
:102F7000E5CF40917A0250917B0260917C02709182
:102F80007D0280917E0290917F020C94881720919F
:102F900048029091490256E0291302C080E008954A
:102FA00030E0529FF001539FF00D1124E65BFD4F7E
:102FB0007181761306C07081781303C07281741317
:102FC00004C02F5F3F4F2770E7CF81E008951F9324
:102FD000CF93DF9380917F02807FA9F480917C0260
:102FE000882389F080914802C091490260917A0259
:102FF00070917B02A0917D02B0917E02D62FD723E3
:1030000016E0C81304C0DF91CF911F91089590E09E
:10301000109711F0DF3F19F401968770F2CF189FD7
:103020009001199F300D1124F901E65BFD4F41819C
:103030004713F2CF40814613EFCF42814111ECCFCD
:10304000438154814A1B5B0B483C510528F7809112
:103050007F028F70806180937F02F901E15BFD4FF9
:1030600080818F70806180838AE792E00E940A17D6
:10307000DF91CF911F910C9498178F929F92AF92EE
:10308000BF92CF92DF92EF92FF920F931F93CF9355
:10309000DF93CDB7DEB761970FB6F894DEBF0FBEF2
:1030A000CDBF8C0185E0F801DE011D9601900D92E7
:1030B0008A95E1F7D801EC901196FC901197129641
:1030C000CC9012978AE7A82E82E0B82E40917D021C
:1030D00050917E024115510509F474C190917A0214
:1030E00020917B02892F82238F3F09F46BC11396B5
:1030F0008D909C901497D0907C02F401E41BF50B0A
:10310000DD2009F40AC180917F02382F307FE83C2E
:10311000F10508F0C1C0311189C0DC2C2F1126C087
:103120009E1124C0C11022C08F70806180937F02E5
:103130000E94B917C5010E940A1780917F02D80129
:1031400015968C938D2D61960FB6F894DEBF0FBE49
:10315000CDBFDF91CF911F910F91FF90EF90DF9046
:10316000CF90BF90AF909F908F900895811491045D
:1031700029F08F2D8E218F3F09F043C180E080FF21
:1031800015C04C2D6F2D8E2D0E94C717882371F00E
:103190008AE792E00E940A1786E0EAE7F2E0DF01A0
:1031A0001D928A95E9F70E94B9173EC0892829F037
:1031B0008F2D8E218F3F09F021C180E0B82FB17093
:1031C000AB2E80FF29C04C2D6F2D8E2D0E94C7176E
:1031D000B82E811121C0ED86FE868D859E850E94C8
:1031E000B91C292F22952F70223050F0243078F40A
:1031F0009F7051F0F8019581907F31F4DB2CA2CFC4
:103200009F7011F08823D1F3805E8830B8F3C80135
:103210000E940A17BA2CF2CFCC2009F493CF8091E8
:103220007F02816080937F02D12C8CCF2F1105C04B
:103230009E1103C0CC2009F48DC0ED86FE868D85DD
:103240009E850E947517882319F1CC2009F1809181
:103250007F02803270F020917A0230917B023887B1
:103260002F8319869B868A868C87CE0107960E94BB
:103270000A1786E0F801AAE7B2E001900D928A955C
:10328000E1F70E94E7170E94B917DD24D3945ACFC3
:10329000C8010E940A17F9CF311112C0782D998AFE
:1032A000888AA7016C2D89890E9479178AE792E0A4
:1032B0000E940A1786E0F50111928A95E9F773CF0B
:1032C0002F110FC09E110DC0C1100BC015968C930D
:1032D000C8010E940A1786E0F50111928A95E9F764
:1032E00031CFED86FE868D859E850E9475178823D9
:1032F00079F2CC2069F280917F02803208F4B9CF54
:1033000020917A0230917B023A8329831B829D822D
:103310008C828E83CE010196AACFE83CF10508F09D
:1033200043C0DC2CCC2009F4B3CF2F112CC09E114C
:103330002AC080917F0280FD1DC0982F907FD1F020
:1033400015968C931597903F39F0982F907F905F4A
:103350008F70892B15968C93C8010E940A1786E0FE
:10336000F801AAE7B2E001900D928A95E1F70E9478
:10337000B917E8CE86E0F801AAE7B2E001900D9215
:103380008A95E1F7DFCEED86FE868D859E850E94CB
:10339000751781116ECF80917F02816080937F02CB
:1033A000C8010E940A17CECE782D998A888AA70173
:1033B0006C2D89890E94791786E0F50111928A9512
:1033C000E9F7D5CFCC2009F463CFED86FE868D8555
:1033D0009E850E947517D82E882309F459CF86E060
:1033E000F801AAE7B2E001900D928A95E1F78AE729
:1033F00092E00E94DD130E94E717B9CF81E08C258F
:10340000DDCE81E08C25BBCE1F93CF93DF93CDB76C
:10341000DEB72C970FB6F894DEBF0FBECDBF4F833B
:10342000588769877A878B879C87CE0107960E9489
:103430003D18882369F08A859B85892B39F04F8157
:103440005885842F85238F3F09F071C016E05FC037
:1034500086E0FE013796DE01119601900D928A9565
:10346000E1F78A859B85892B89F38F81988589234C
:103470008F3F61F32091490230E0C90101968770C6
:103480009927409148024817190671F40E94521773
:10349000109249021092480286E0EAE7F2E0DF016A
:1034A0001D928A95E9F7D2CF96E0929FD001939F23
:1034B000B00D1124A65BBD4FFE01319601900D9217
:1034C0009A95E1F7809349020E949817BFCF819F98
:1034D000C0011124865B9D4F0E943D188823E9F0AE
:1034E000E09148021E9FF0011124E65BFD4F4081F0
:1034F000518162817381848195810E9488178091B6
:10350000480290E001968770992780934802809145
:103510004802909149028913DACF2C960FB6F8949D
:10352000DEBF0FBECDBFDF91CF911F91089569859A
:103530007A858B859C850E94881788CFEF92FF92B1
:103540000F931F93CF93DF938C01892B81F0F12C84
:10355000EE24E394E8012196F8018491843770F415
:10356000843008F05FC08130B1F08230A1F1DF918A
:10357000CF911F910F91FF90EF900895853709F437
:103580004CC008F43DC09CE7980F903780F78F77C8
:103590000E946C1449C00E5F1F4FFE01849190E29F
:1035A000980F983060F48770FE2D01C0FF0F8A9548
:1035B000EAF78F2F0E94561D0E94831D02C00E94B1
:1035C000E2138F2D815030F2EFE9FFE03197F1F7F0
:1035D00000C00000F7CF0E5F1F4FFE01849190E204
:1035E000980F983050F48770FE2D01C0FF0F8A9518
:1035F000EAF78F2F0E945C1DDFCF0E946C14E1CF91
:103600000E5F1F4FFE01C491C150D8F28FE99FE0B9
:103610000197F1F700C00000F7CF0E5F1F4FFE01CA
:10362000F490CFCF0E94E2138E01CBCF08950C947B
:10363000161B0E94171B6093C0027093C1028093F7
:10364000C2029093C3020C94401708950C94191B66
:103650000F931F930091C0021091C1022091C202EA
:103660003091C302602B712B822B932B1F910F91F2
:103670000C94191B0F931F930091C0021091C1026B
:103680002091C2023091C3026023712382239323CD
:103690001F910F910C94191B0F931F930091C0025F
:1036A0001091C1022091C2023091C302602771279C
:1036B000822793271F910F910C94191B0C94161BB2
:1036C0000C945E1B0E94601B6093BC027093BD0251
:1036D0008093BE029093BF020C94401760E070E0AC
:1036E000CB010C94621B0F931F9341E050E060E00C
:1036F00070E08A019B0104C0000F111F221F331FBD
:103700008A95D2F7C901B8011F910F910C94621BE1
:103710000F931F9341E050E060E070E004C0440F5D
:10372000551F661F771F8A95D2F78091BC02909132
:10373000BD02A091BE02B091BF028A019B01082B7D
:10374000192B2A2B3B2BC901B8011F910F910C9407
:10375000621B0F931F9341E050E060E070E004C0F3
:10376000440F551F661F771F8A95D2F7CB01BA0108
:1037700060957095809590950091BC021091BD0266
:103780002091BE023091BF026023712382239323D4
:103790001F910F910C94621B0F931F9341E050E017
:1037A00060E070E004C0440F551F661F771F8A95C4
:1037B000D2F78091BC029091BD02A091BE02B0915F
:1037C000BF028A019B01082719272A273B27C90125
:1037D000B8011F910F910C94621B0F931F930091DE
:1037E000BC021091BD022091BE023091BF02602B3D
:1037F000712B822B932B1F910F910C94621B0F93B3
:103800001F930091BC021091BD022091BE02309125
:10381000BF0260237123822393231F910F910C9485
:10382000621B0F931F930091BC021091BD02209167
:10383000BE023091BF0260277127822793271F9114
:103840000F910C94621B08959295907F890F982F89
:10385000977041E001C0440F9A95EAF786958695E6
:10386000869595E0899FF0011124E058FD4F30E0E6
:1038700020E070E05191DF011197CB01022E02C0D0
:10388000969587950A94E2F7817081958527842320
:1038900085278C932F5F3F4F2530310559F70895C9
:1038A0009295907F890F982F97708695869586952B
:1038B00025E0829FF0011124E058FD4F50E040E0E8
:1038C00080E0219130E0092E02C0369527950A94B8
:1038D000E2F721703327042E01C0220F0A94EAF781
:1038E000822B4F5F5F4F4530510559F70895BF92C6
:1038F000CF92DF92EF92FF920F931F93CF93DF93BC
:103900008C01C090BC02D090BD02E090BE02F0904D
:10391000BF028091C0029091C102A091C202B091F9
:10392000C302C82AD92AEA2AFB2ACFE1D0E0BC2E5A
:10393000D701C6010C2E04C0B695A795979587951B
:103940000A94D2F780FD0EC0219788F7B12C8B2DF9
:10395000DF91CF911F910F91FF90EF90DF90CF906B
:10396000BF900895B8018C2F0E94E709019761F379
:10397000EECFCF93DF93EC010E94771CBE01DF9165
:10398000CF910C94E7091F93CF93DF93EB019091B4
:103990004702992331F0CB01DF91CF911F910C9415
:1039A000B91C882379F0CB010E94771C182F682F4F
:1039B000CE010E94241CBE01812FDF91CF911F9167
:1039C0000C94E709CB010E94501C182FF4CF682FEC
:1039D0008091590190915A010C94381F682F809161
:1039E000590190915A010C94431F80915901909173
:1039F0005A010C944E1F8091C4028595859585953A
:103A000008958091C402877008959091C4029770C0
:103A100081E009F480E008959091A20492FB2227AE
:103A200020F9281751F080FB92F99093A20480911D
:103A3000A1049091A2040C94191E08958091A204EF
:103A400082FB882780F991E089270C940C1D81E086
:103A50000C940C1D80E00C940C1D8091E8020895DC
:103A60009091E802892B8093E802089580959091C7
:103A7000E80298239093E80208958093E80208955D
:103A80001092E80208958091E70208959091E7026C
:103A9000892B8093E702089580959091E7029823FF
:103AA0009093E70208951092E70208959091E6023C
:103AB000892B8093E602089580959091E6029823E1
:103AC0009093E60208951092E60208958091C5024F
:103AD000089508950C94691D9091A20492FD08C068
:103AE0009091C502981721F08093C5020C946A1D2D
:103AF00008958091C502882329F01092C50280E0C4
:103B00000C946A1D0895E0915901F0915A01809139
:103B1000E8028083E0915901F0915A0180819091EF
:103B2000E702892B8083E0915901F0915A0180814D
:103B30009091E602892B80839091C502992381F0B0
:103B4000E0915901F0915A018081892B8083809105
:103B5000590190915A010E94A41E81110E94791D61
:103B60008091590190915A010C947A1208950C9405
:103B7000B61D9091A20492FD10C098E0899F90011B
:103B80001124622B6093C4020E94881B8091C4029E
:103B90008595859585950C94B71D0C94881B10927E
:103BA000C40280E00C94B71D9091C40280958923D3
:103BB0008093C402282F277039F4282F082E000C78
:103BC000330B9217130621F49091A20492FF07C0C1
:103BD0008595859585950E94A91B0C94CF1D089508
:103BE00080E008956FEF7FEF90E080E00C94C527B0
:103BF00090E080E00E94912721E08A3E9E4F09F0EC
:103C000020E0822F089582E090E00C94892783E0E1
:103C100090E00C948927CF9384E090E00E9489275C
:103C2000C82F82E290E00E948927982F8C2FCF9195
:103C30000895CF93C92F682F84E090E00E94A727B2
:103C40006C2F82E290E0CF910C94A727AB01BC01CE
:103C50008FE090E00C94B927AB01BC0183E190E0C8
:103C60000C94B92760E070E0CB010C942C1E60E04E
:103C700070E0CB010E94261E0C94321E6AEE7EEF8D
:103C800090E080E00E94C52760E082E090E00E9422
:103C9000A72760E083E090E00E94A7271092C0026F
:103CA0001092C1021092C2021092C30260E084E03E
:103CB00090E00E94A72760E082E290E00E94A727A0
:103CC00060E085E090E00E94A72760E086E090E059
:103CD0000E94A7276FEF87E090E00E94A72740E0AF
:103CE00050E0BA0188E090E00E94B92760E08DE0E2
:103CF00090E00E94A72740E050E0BA0188E190E000
:103D00000E94B92760E087E190E00E94A72740E089
:103D100050E0BA018CE190E00E94B92770E060E0C9
:103D200080E290E00E94C52740E050E0BA0188E1BF
:103D300090E00E94B9270C94371E0C943E1E682F09
:103D40008EE090E00C94A727FC01329680916501EB
:103D5000882321F08091A1049EE187FF96E080E016
:103D6000915008F4089521912223D1F38F5FF8CF69
:103D7000662301F1209165012223F1F02091A10435
:103D800027FF1AC0462F4695469546954E3190F42A
:103D9000677021E030E002C0220F331F6A95E2F71E
:103DA000840F911DFC01828190E02823392381E05A
:103DB000232B69F480E00895FC0132960896219146
:103DC000261721F0E817F907D1F7F4CF81E008951D
:103DD0009C01FC0132969FEF80E04191461751F023
:103DE0009F3F19F4411101C0982F8F5F8630A9F7CA
:103DF0009F3F09F40895290F311D97FD3A95F90168
:103E000062830895FC01329608962191261303C01F
:103E1000DF0111971C92E817F907B9F70895E62F0B
:103E2000E695E695E695EE3168F4E80FF92FF11D79
:103E3000677021E030E001C0220F6A95EAF78281C5
:103E4000822B82830895E62FE695E695E695EE317E
:103E500070F4E80FF92FF11D677021E030E001C028
:103E6000220F6A95EAF720958281282322830895FC
:103E700020916501222329F02091A10427FD0C94B3
:103E80000F1F0C94E81E20916501222329F0209138
:103E9000A10427FD0C94231F0C94021FFC013296F1
:103EA00080916501882351F08091A10487FF06C0AD
:103EB0008EE1DF011D928A95E9F7089586E0F9CF3A
:103EC00008958091C904843049F10E949D0680E0E4
:103ED0000E94BE091092EA0288E190E020E40FB649
:103EE000F894A895809360000FBE2093600083B77C
:103EF000817F846083BF83B7816083BF7894889516
:103F000083B78E7F83BF0FB6F894A8958091600029
:103F1000886180936000109260000FBE089508953C
:103F2000CF930E94601F0E94640C0E948F1FC0E00C
:103F30008C2F0E940B0C892B31F4CF5FC630C1F758
:103F400080E0CF91089581E0FCCF0E9452170E943B
:103F500061120E94BE090C94A0061F921FB61F9208
:103F600011248F939F93AF93BF938091EA028111A5
:103F700013C08091C1049091C204A091C304B09178
:103F8000C4044196A11DB11D8093C1049093C20445
:103F9000A093C304B093C404BF91AF919F918F913C
:103FA0001F901FBE1F90189582E084BD93E095BDC1
:103FB0009AEF97BD80936E0008952FB7F894809183
:103FC000C1049091C204A091C304B091C4042FBF56
:103FD00008952FB7F8946091C1047091C204809144
:103FE000C3049091C4042FBF08959C014FB7F89467
:103FF0008091C1049091C204A091C304B091C40403
:104000004FBF821B930B089578941F921FB61F9287
:1040100011248F939F93AF93BF938091C10490918C
:10402000C204A091C304B091C4040196A11DB11DA6
:104030008093C1049093C204A093C304B093C404BA
:10404000BF91AF919F918F911F901FBE1F901895A8
:1040500081E08093E00080E28093D8001092C90054
:104060008FE19EE40197F1F700C0000087E090EB3C
:10407000DC018093D2049093D304A093D404B09332
:10408000D50488E19CE00FB6F894A8958093600071
:104090000FBE90936000FFCF9093E1018093E00109
:1040A000089580910B0308950895CF93DF9300D076
:1040B0000F92CDB7DEB79091C904943019F589837A
:1040C0007B836A8382E08093E9008FEF9091E80020
:1040D000815095FD06C095ED9A95F1F7000081118C
:1040E000F5CF8091E80085FF0DC050E040E063E02F
:1040F00070E0CE0101960E945E228091E8008E77EA
:104100008093E8000F900F900F90DF91CF9108956A
:10411000BC0184E00C945520BC0183E00C94552034
:10412000CF93DF93EC01809165018823B1F18091F9
:10413000A10487FF32C060E282E08093E9008FEF44
:104140009091E800815095FD06C095ED9A95F1F7A4
:1041500000008111F5CF8091E80085FF1BC08091A0
:10416000650170E050E040E0811104C050E040E0A3
:1041700068E070E0CE010E945E228091E8008E77B8
:104180008093E80080E2FE01ABEEB2E001900D9278
:104190008A95E1F7DF91CF91089568E081E0CDCF76
:1041A0008091C804811109C00E94EE230E944B2413
:1041B0008091E20084608093E20008951092C80428
:1041C000089508950895089542E061EC81E00E9409
:1041D0006A2342E261EC82E00C946A238091CB0472
:1041E000833009F45FC030F48130C1F1823009F4CA
:1041F0009BC008958A3009F487C08B3009F46DC0E4
:10420000893009F04EC08091CA04813209F049C05A
:104210008091CE049091CF04029708F042C0809123
:10422000E800877F8093E8008091E80082FF35C036
:104230009091F3008091F200029729F48091F100AF
:104240008B7F813021F48091F10080930B0380916A
:10425000E8008B778093E8000C949E238091CA0439
:10426000813AF9F48091E800877F8093E80080919B
:10427000CE049091CF04892B61F460E28BEE92E042
:1042800070E00E94AD228091E8008B778093E80077
:10429000089560E090E080E0F3CF8091C90481113F
:1042A000C3CF08958091CA04813AD9F78091CE0492
:1042B0009091CF04892BA9F78091E800877F8093A4
:1042C000E8008091E80080FFFCCF80916501809339
:1042D000F1008091E8008E77BDCF8091CA048132D1
:1042E00001F78091CE049091CF04892BD1F6809173
:1042F000E800877F8093E8000E949E238091CC0491
:10430000809365010C9452178091CA04813249F65A
:104310008091E800877F8093E8000E949E2380912F
:10432000CD0480930C0308958091CA04813A09F06A
:10433000B8CF8091E800877F8093E8008091E80003
:1043400080FFFCCF80910C03C2CF84B7877F84BFEE
:104350000FB6F894A8958091600088618093600002
:10436000109260000FBE80E890E00FB6F894809342
:104370006100909361000FBE0E94E1120E94EE2343
:104380000E944B248091E20084608093E200789444
:104390000E94D4260E94F5128BE591E00E945C12E7
:1043A0008091C904853099F00E94FB120E94F1129D
:1043B000F7CF0E94611F8091C704882341F00E94BB
:1043C000901F882321F00E9448220E94521780915A
:1043D000C904853071F30E94A51FE6CF0C94F0212B
:1043E000292F33272330310519F168F421303105A5
:1043F00009F444C02230310509F445C090E080E062
:1044000030E020E025C02132310549F1223231056A
:10441000A9F780E490E025E435E061157105C1F06D
:104420008DE690E028ED34E06130710589F0E6CF4B
:1044300099278130910581F0009729F00297F1F6D4
:10444000E9E4F4E002C0E7E8F4E0849190E09F0141
:10445000FA01318320830895EFE6F4E0F6CF89E096
:1044600090E02DE934E06115710591F389E090E069
:1044700026EB34E06130710559F3C0CF82E190E062
:1044800026EC34E0E5CF8BE390E02BE834E0E0CF9E
:1044900080E189BD82E189BD09B400FEFDCF809134
:1044A000D8008F7D8093D8008091E0008260809357
:1044B000E0008091E00081FDFCCF0895AF92BF92B3
:1044C000CF92DF92FF920F931F93CF93DF936C01F4
:1044D000EB018A010E94BD23F82E811123C0011532
:1044E000110539F0F80180819181C81BD90BC80EE4
:1044F000D91EB12CA12C2097A9F08091E80085FD50
:1045000022C08091E8008E778093E80001151105A4
:10451000A1F0F80180819181A80EB91EB182A0821C
:1045200085E0F82E8F2DDF91CF911F910F91FF9095
:10453000DF90CF90BF90AF9008950E94BD23882355
:10454000D1F2F82EEFCFF60181916F018093F10047
:104550002197FFEFAF1ABF0ACECFFC018091D004A4
:104560009091D10486179707A0F06115710529F481
:104570009091E8009E779093E80090E061157105B6
:1045800051F4911108C08091E80082FF34C080E0AE
:104590000895BC01F2CF8091C9048823C1F1853010
:1045A000C1F18091E80083FD30C08091E80082FD78
:1045B000EACF8091E80080FFE1CF8091F300209165
:1045C000F200382F6115710519F02830310558F0C7
:1045D00091E02830310509F090E02091E8002E7735
:1045E0002093E800CBCF81918093F1006150710955
:1045F0002F5F3F4FE7CF8091C904882341F085307A
:1046000041F08091E80083FFBECF81E0089582E011
:10461000089583E00895FC018091D0049091D10425
:1046200086179707A0F06115710529F48091E800BD
:104630008E778093E80090E06115710551F4911137
:1046400008C08091E80082FF35C080E00895BC0179
:10465000F2CF8091C9048823C9F18530C9F18091D6
:10466000E80083FD31C08091E80082FDEACF8091AF
:10467000E80080FFE1CF8091F3002091F200382F15
:104680006115710519F02830310558F091E0283096
:10469000310509F090E08091E8008E778093E80082
:1046A000CBCF84918093F1003196615071092F5FD7
:1046B0003F4FE6CF8091C904882341F0853041F017
:1046C0008091E80083FFBDCF81E0089582E00895E6
:1046D00083E00895982F973028F08F708093E90039
:1046E00081E008959093E900242F762F50E09817E9
:1046F00031F07091EC002091ED005091F00021FD1F
:1047000002C09F5FE8CF3091EB003E7F3093EB001B
:104710003091ED003D7F3093ED003091EB00316042
:104720003093EB007093EC002093ED005093F00079
:104730002091EE0027FDE5CF80E008958091CA0426
:1047400087FF13C08091E80082FF06C08091E800D7
:104750008B778093E80004C08091C9048111F2CF67
:1047600008958091C9048823D9F38091E80080FFDF
:10477000F8CF8091E8008E77ECCF2091E400309163
:10478000E50095E6A9012091EC00822F817020FFC1
:1047900006C08091E80080FF06C080E00895209167
:1047A000E80022FD1AC08091C904882389F0853071
:1047B00089F08091EB0085FD0FC02091E4003091DD
:1047C000E50042175307F9F29150E1F684E00895AD
:1047D00082E0089583E0089581E008950E945C24BA
:1047E0000E946424E0EEF0E0808181608083E8ED47
:1047F000F0E080818F77808319BCA7EDB0E08C91C9
:104800008E7F8C9380818F7E80831092C804089560
:104810000F931F93CF93DF930E945C240E94642424
:10482000C8EDD0E088818F7788838881806888830D
:1048300088818F7D888319BC1092C9041092C504A9
:104840001092C7041092C60400EE10E0F8018081B7
:104850008B7F808388818160888342E060E080E094
:104860000E946A23E1EEF0E080818E7F8083E2EE99
:10487000F0E0808181608083808188608083F8019E
:1048800080818E7F8083888180618883DF91CF9152
:104890001F910F910895E8EDF0E080818F7E808375
:1048A000E7EDF0E080818160808384E082BF81E079
:1048B0008093C8040C940824E8EDF0E080818E7F9A
:1048C00080831092E20008951092DA001092E100C5
:1048D00008951F920F920FB60F9211242F933F93BA
:1048E0004F935F936F937F938F939F93AF93BF93F8
:1048F000EF93FF938091E10082FF0BC08091E20073
:1049000082FF07C08091E1008B7F8093E1000E94CD
:10491000D3268091DA0080FF19C08091D80080FFF3
:1049200015C08091DA008E7F8093DA008091D900E3
:1049300080FF96C080E189BD82E189BD09B400FE97
:10494000FDCF81E08093C9040E94D0208091E100D6
:1049500080FF19C08091E20080FF15C08091E200C5
:104960008E7F8093E2008091E20080618093E2007C
:104970008091D80080628093D80019BC85E0809334
:10498000C9040E94E2208091E10084FF2BC0809145
:10499000E20084FF27C080E189BD82E189BD89B53D
:1049A000982F917080FFFBCF8091D8008F7D8093EE
:1049B000D8008091E1008F7E8093E1008091E20039
:1049C0008F7E8093E2008091E20081608093E2001C
:1049D0008091C504882309F449C084E08093C90408
:1049E0000E94E3208091E10083FF29C08091E200D2
:1049F00083FF25C08091E100877F8093E10082E002
:104A00008093C9041092C5048091E1008E7F809349
:104A1000E1008091E2008E7F8093E2008091E200CD
:104A200080618093E20042E060E080E00E946A23BF
:104A30008091F00088608093F0000E94E120FF9157
:104A4000EF91BF91AF919F918F917F916F915F9106
:104A50004F913F912F910F900FBE0F901F9018957F
:104A600019BC1092C9040E94DE2070CF8091E3002F
:104A700087FD93E09093C904B3CF1F920F920FB6B6
:104A80000F9211242F933F934F935F936F937F93D4
:104A90008F939F93AF93BF93CF93DF93EF93FF9346
:104AA000D091E900DF708091EC00C82FC17080FDCB
:104AB000C0E81092E9008091F000877F8093F000B9
:104AC00078940E9481251092E9008091F00088601E
:104AD0008093F000CD2BCF70C093E900FF91EF9150
:104AE000DF91CF91BF91AF919F918F917F916F9106
:104AF0005F914F913F912F910F900FBE0F901F909C
:104B000018951F93CF93DF93CDB7DEB7AA970FB653
:104B1000F894DEBF0FBECDBF8AEC94E02091F10087
:104B2000FC012193CF01F4E0823D9F07B9F70E9479
:104B3000EE208091E80083FF1EC18091CA0490910D
:104B4000CB049A3008F017C1E92FF0E0E25BF74D93
:104B50000C941727803899F0823809F00CC18091A5
:104B6000CE048F70873008F006C18093E9008091F1
:104B7000EB0085FB882780F91092E90006C0809140
:104B8000C6049091C704911182609091E800977FCC
:104B90009093E8008093F1001092F1008091E8007A
:104BA0008E77E5C0882309F4D3C0823009F0E3C0D2
:104BB0008091CC048111D6C08091CE048F702FEFEC
:104BC000280F263008F0D7C08093E9002091EB0031
:104BD00020FFC8C0933031F48091EB008062809355
:104BE000EB00C0C09091EB0090619093EB0021E04E
:104BF00030E001C0220F8A95EAF72093EA00109274
:104C0000EA008091EB008860EACF8111B4C0109176
:104C1000CC041F778091E3008078812B8093E300A0
:104C20008091E800877F8093E8000E949E23809116
:104C3000E80080FFFCCF8091E30080688093E30070
:104C400082E0111183E08093C90495C080588230BE
:104C500008F091C08091CC049091CD048C3D23E06C
:104C60009207A1F583E08A838AE289834FB7F8949B
:104C7000DE01139620E03EE051E2E32FF0E0509396
:104C80005700E49120FF03C0E295EF703F5FEF70A3
:104C90008E2F90E0EA30C0F0C7968D939D932F5FE2
:104CA000243159F74FBF8091E800877F8093E80057
:104CB0006AE270E0CE0101960E94AD228091E80088
:104CC0008B778093E80057C0C096E7CF6091CE0401
:104CD0007091CF04AE014F5F5F4F0E94EE21BC0187
:104CE000892B09F448C09091E800977F9093E800E1
:104CF00089819A810E940B23E1CF8038E1F5809170
:104D0000E800877F8093E8008091C5048093F100DC
:104D100045CF811130C09091CC04923060F58091E4
:104D2000E800877F8093E8009093C5040E949E234B
:104D30008091C504882311F084E005C08091E300D0
:104D400087FDFACF81E08093C9040E94E42013C05C
:104D50008091CC04813079F481E0933009F080E0D7
:104D60008093C7041092E9008091E800877F8093C8
:104D7000E8000E949E238091E80083FF0AC0809192
:104D8000E800877F8093E8008091EB008062809349
:104D9000EB00AA960FB6F894DEBF0FBECDBFDF9131
:104DA000CF911F9108950895CF938091C9048823CE
:104DB000A1F0C091E900CF709091EC00892F817033
:104DC00090FD80E8C82B1092E9008091E80083FDF7
:104DD0000E948125CF70C093E900CF910895AA1B4E
:104DE000BB1B51E107C0AA1FBB1FA617B70710F0D6
:104DF000A61BB70B881F991F5A95A9F78095909508
:104E0000BC01CD01089597FB072E16F4009407D03E
:104E100077FD09D00E94EF2607FC05D03EF490955F
:104E200081959F4F0895709561957F4F0895EE0F7E
:104E3000FF1F0590F491E02D09948F929F92AF92FD
:104E4000BF92CF92DF92EF92FF92CF93DF93EC016C
:104E5000688179818A819B81611571058105910540
:104E600021F464E279ED8BE597E02DE133EF41E049
:104E700050E00E94CB2749015A019B01AC01A7EAEF
:104E8000B1E40E94EA276B017C01ACEEB4EFA5010E
:104E900094010E94F827DC01CB018C0D9D1DAE1DF5
:104EA000BF1DB7FF03C00197A109B048888399834C
:104EB000AA83BB839F77DF91CF91FF90EF90DF9024
:104EC000CF90BF90AF909F908F9008950E941D2724
:104ED000089580E091E00E941D270895B0E0A0E0D1
:104EE0008093000190930101A0930201B09303010C
:104EF0000895DC01CB01FC01F999FECF06C0F2BD9B
:104F0000E1BDF89A319600B40D9241505040B8F787
:104F10000895F999FECF92BD81BDF89A992780B581
:104F20000895A8E1B0E042E050E00C947B27DC015A
:104F3000A40FB51F4150504048F0CB01840F951F7E
:104F40002E910E94A82741505040D0F70895262F57
:104F5000F999FECF92BD81BDF89A019700B402166F
:104F600039F01FBA20BD0FB6F894FA9AF99A0FBE1D
:104F700008950396272F0E94A8270E94A727252F70
:104F80000E94A827242F0C94A8270196272F0E945F
:104F9000A8270C94A727052E97FB1EF400940E94C7
:104FA000E22757FD07D00E94FD2707FC03D04EF4EF
:104FB0000C94E22750954095309521953F4F4F4FE7
:104FC0005F4F089590958095709561957F4F8F4FB5
:104FD0009F4F08950E941F28A59F900DB49F900D8C
:104FE000A49F800D911D11240895B7FF0C94EA270A
:104FF0000E94EA27821B930B0895A1E21A2EAA1B96
:10500000BB1BFD010DC0AA1FBB1FEE1FFF1FA21778
:10501000B307E407F50720F0A21BB30BE40BF50B75
:10502000661F771F881F991F1A9469F760957095FE
:10503000809590959B01AC01BD01CF010895A29F81
:10504000B001B39FC001A39F700D811D1124911D5C
:10505000B29F700D811D1124911D0895F894FFCF0A
:105060001C151C1574157415C615491549154915D7
:10507000E2156E167D167D16D91649154915E216EC
:10508000611761176A176A176C176A176A176A1728
:105090006117611771176A176A177117AA25D22548
:1050A000BB26D225BB2605262626BB267D2689269D
:1050B00001000000FF0000FF010000FF00000000F1
:1050C00000000000000000000000000000000000E0
:1050D0000000FA1009111C1100000000000000007F
:1050E0000000000000005301FA1009111C1100001B
:1050F0000000000000000000000000004E01AE00B3
:1051000000731BAE0001731BFFC602512090205498
:10511000208C20882001E200E900EA00B500B600FA
:10512000B700CD008301CC008A01920194012102D5
:10513000230224022502260227022A02B300B40019
:105140006F007000818283F59531323393926766E8
:1051500036353497963794F1F0C6F4F6F70004E24A
:1051600000E900EA00B500B600B700CD008301CC2D
:10517000008A0192019401210223022402250226C1
:105180000227022A02B300B4006F007000818283FC
:00000001FF
