:100000000C943C030C9474030C9474030C947403CC
:100010000C9474030C9474030C9474030C94740384
:100020000C9474030C9474030C940A250C94DE2530
:100030000C9422200C9474030C9474030C94740399
:100040000C9474030C9474030C9474030C94740354
:100050000C9474030C94A9200C9474030C947403F2
:100060000C9474030C9474030C9474030C94740334
:100070000C9474030C9474030C9474030C94740324
:100080000C94A8050C9474030C9474030C947403DE
:100090000C9474030C9474030C9474030C94740304
:1000A0000C9474030C9474030C9474030102E236F0
:1000B0000103E275000102E2600103E27500010242
:1000C000E2630103E263000102E2600103E2610016
:1000D0000102E2360103E261000102E2360103E2BD
:1000E00065000102E2600103E265000102E26501D0
:1000F00003E265003C2D003D3E002D3E00E900007E
:1001000000C9000000E8000000C8000000EA00008C
:1001100000CA000000EB000000CB000000E200007D
:1001200000C2000000E0000000C0000000E7000086
:1001300000C7000000EE000000CE000000AC200070
:10014000003F0E0000A9000000AE000000C903003F
:1001500000A9030000F4000000D4000000F9000032
:1001600000D90000005301000052010000C003004C
:1001700000B0000000F1000000D1000000B5000058
:1001800000C30300006422000065220000AB0000F1
:1001900000BB00000060220000482200001E220078
:1001A0000029003A003B003C003D003E003F00407B
:1001B00000410042004300440045000000AE000042
:1001C0000035001E001F0020002100220023002413
:1001D000002500260027002D002E002A002A004CB2
:1001E000002B0014001A000800150017001C00184E
:1001F000000C00120013002F003000310000004BF3
:1002000000292104001600070009000A000B000D58
:10021000000E000F0033003400282F000000004EB5
:1002200000E10000001D001B000600190005001180
:10023000001000360037003800E1005200000000D6
:1002400000000FE200E3000000000000002C42006C
:100250000000000000E6000B7E5000510000004F3F
:100260000001000100010001000100010001000186
:100270000001000100010001000100000001000078
:100280000001000100010001000100010001000166
:100290000001000100010001000100010001000156
:1002A0000001000100010001000100010001000146
:1002B0000001000100010001000100010000000137
:1002C00000E0000100010001000100010001000147
:1002D0000001000100010001000100000000000118
:1002E0000001000000010001000100010001000107
:1002F00000010001000100010001000100000000F8
:1003000000E3008252E2000000000000002C000028
:100310000000000000E7000C7E0100010000000169
:1003200000010001000100010001000100010001C5
:1003300000010001000100010001000000010000B7
:1003400000010001000100010001000100010001A5
:100350000001000100010001000100010001000096
:100360007C01000100010001000100010001000109
:100370000001000100010001000100010000000176
:10038000000100010001002A00010001005000519D
:100390000052004F000100010001000000000001B8
:1003A0000001000000010001000100010001000146
:1003B000000100017E007E027E01000100000000BD
:1003C0000001000100010000000000000001000029
:1003D000000000000001000100AC0001000000ABC3
:1003E0000001000100010001000100010001000105
:1003F00000010001000100010001000000010000F7
:1004000000010001000100010001000100010001E4
:1004100000010001000100010001000100010001D4
:10042000000100010001000080028004800100182A
:10043000800E801680010001000100010000000113
:100440000001000A8001000100010001000100011B
:100450000001000100010001000100000000000196
:100460000001000000010001000C800100010001FA
:100470000001000100010001000100010000000076
:100480000001000100010000000000000001000068
:100490000000000000010001000100010000000157
:1004A0000000000000000000002A2B2800000000CF
:1004B0000000000000000000000000002900000013
:1004C000002C1E3420212224342627252E362D37B9
:1004D00038271E1F202122232425263333362E378A
:1004E000381F0405060708090A0B0C0D0E0F101122
:1004F00012131415161718191A1B1C1D2F3130232F
:100500002D350405060708090A0B0C0D0E0F1011F6
:1005100012131415161718191A1B1C1D2F313035FC
:100520004C0000000000000000000000000000007F
:1005300000000000000000000000000000000000BB
:1005400000000000007E0F00D4FFFFFFC700000086
:10055000780E0357005400370035002D004300008B
:10056000001603770069006C00620061002E0074C1
:100570000065006300680000000403090409023BF1
:1005800000020100A0FA09040000010301010009B2
:100590002111010001224000070581030800010923
:1005A0000401000103000000092111010001226D76
:1005B000000705820320000112010002000000086C
:1005C00082655C0701000102000105010980A101AB
:1005D000850319012AB700150126B700950175108A
:1005E0008100C0050C0901A101850419012AA0029E
:1005F000150126A002950175108100C005010906AC
:10060000A1018506050719E029E7150025019508D0
:10061000750181020507190029EF1500250195F0E4
:1006200075018102050819012905950575019102D9
:10063000950175039101C005010906A1010507197E
:10064000E029E715002501950875018102950175DE
:100650000881010507190029FF150026FF009506EE
:100660007508810005081901290595057501910294
:10067000950175039101C00011241FBECFEFDAE090
:10068000DEBFCDBF04B603FE18C08091E304909195
:10069000E404A091E504B091E6048730904BA740B4
:1006A000B04B59F41092E3041092E4041092E50464
:1006B0001092E604E0E0F8E3099511E0A0E0B1E073
:1006C000E8EFF4E502C005900D92A23DB107D9F71D
:1006D00024E0A2EDB1E001C01D92A33EB207E1F714
:1006E0000E9410190C94332A0C940000EAE9F4E0FB
:1006F0006083418324E630E042E050E0BF01880F90
:100700000E9417050895EF92FF921F93CF93DF93F6
:100710007B01182F110FD0E0C0E0C0939A04D701DD
:10072000AC0FBD1FEBE9F4E08D91819384E0EB3ACF
:10073000F807D1F724E630E041E150E06AE974E0DF
:10074000812F0E9417056096C03CD10531F7DF91DB
:10075000CF911F91FF90EF900895CF93DF93C82F13
:1007600045EC6EEF0E94760340E06DEF8C2F0E9407
:100770007603D0E040E06D2F8C2F0E947603DF5F80
:10078000D831C1F745EC6EEF8C2F0E94760341E023
:100790006DEF8C2F0E947603D0E040E06D2F8C2F00
:1007A0000E947603DF5FD03CC1F745EC6EEF8C2FE3
:1007B0000E94760343E06DEF8C2F0E94760340E0A9
:1007C0006FE08C2F0E94760340E060E18C2F0E9446
:1007D00076034FEF61E08C2F0E94760341E060E0EA
:1007E0008C2F0E9476038FE39CE90197F1F700C0FC
:1007F0000000DF91CF9108958036910548F4880F6D
:10080000E82FF0E0E65EFC4F608381E08093050214
:1008100008951F93CF93DF93182FD0E0C0E0612F8E
:10082000CE010E94FC032196C036D105C1F7DF91AD
:10083000CF911F910895880FE82FE695E695E695EC
:10084000F0E0EB52FE4F2081382F377081E090E0CE
:1008500001C0880F3A95EAF7662331F0822B808336
:1008600081E08093D401089580958223F8CFCF93BF
:10087000C82F80910502882379F045EC6EEF8C2F0C
:100880000E94760341E06DEF8C2F0E9476036AE1AF
:1008900073E08C2F0E94830310920502CF9108957C
:1008A0000F931F93CF93DF93D82F8091D401882388
:1008B000C9F045EC6EEF8D2F0E94760340E06DEF9E
:1008C0008D2F0E94760305ED11E0C0E0F801419103
:1008D0008F016C2F8D2F0E947603CF5FC831B1F747
:1008E0001092D401DF91CF911F910F910895109232
:1008F000B9008CE08093B8000895B0E0A0E0E3E890
:10090000F4E00C94DC27B82EEB010E9482206C01ED
:10091000EE24E394F12CC431D10560F025E0E22E01
:10092000F12CCF3FDC0731F0CE0164E170E00E9492
:1009300085277B0184EAA82E94E8992E1092BC00AA
:10094000A092BC000E9482208C018091BC0087FF95
:100950000DC08091B900887F8830F9F08091B9008E
:10096000887F8031D1F00FEF1FEF08C0C8010E94CF
:100970009A20E816F90648F70EEF1FEFCF3FDC0785
:10098000E9F2C6010E949A20C817D907B8F6C80133
:10099000CDB7DEB7EBE00C94F827B092BB00909295
:1009A000BC000E9482208C018091BC0087FF0AC09D
:1009B0008091B900887F883111F08034A1F610E071
:1009C00000E0E5CFC8010E949A20E816F90660F71A
:1009D000D3CF0F931F93CF93DF93EB018093BB0093
:1009E00084E88093BC000E9482208C018091BC002E
:1009F00087FF11C02091B900287F81E090E0283264
:100A000011F490E080E0919581959109DF91CF916B
:100A10001F910F910895CF3FDC0741F3C8010E9459
:100A20009A20C817D90710F78EEF9FEFEFCFB0E0ED
:100A3000A0E0EDE1F5E00C94DF276B018A0179017C
:100A4000B9010E947D04E6010C0D1D1DC017D107E0
:100A500011F097FF08C024E92093BC00CDB7DEB7A2
:100A6000E8E00C94FB27B70189910E94E904EECFDE
:100A7000CF930E94770480E50E94AD03C0E061E05F
:100A80008C2F0E941B04CF5FC036C9F760E080E561
:100A90000E945004CF9108958091070281110EC0E9
:100AA00081E0809307028DE0809391009FB7F894D6
:100AB00023E020939900809398009FBF0895E1E779
:100AC000F0E0808182608083089580931002089511
:100AD00080E00E940904089580910D010E9409049C
:100AE0000895FF920F931F93CF93DF93F82E0E94E8
:100AF000832960E670E00E949927D0E0C0E08C0175
:100B00001127F11003C00C171D0731F40E9483292F
:100B1000682FCE010E94FC032196C036D10589F7CB
:100B2000CDB7DEB7E5E00C94FE270E94BB1E81FF27
:100B300005C06FEF80E190E00E94FC030E94BB1EA5
:100B400082FF05C06FEF87E390E00E94FC030895E9
:100B50001F920F920FB60F9211240F931F932F9392
:100B60003F934F935F936F937F938F939F93AF9335
:100B7000BF93CF93EF93FF93809106028431B8F433
:100B80008F5F80930602FF91EF91CF91BF91AF915C
:100B90009F918F917F916F915F914F913F912F9195
:100BA0001F910F910F900FBE0F901F90189580917D
:100BB0000C0290910D02A0910E02B0910F020196CD
:100BC000A11DB11D80930C0290930D02A0930E0203
:100BD000B0930F028091080290910902A0910A023D
:100BE000B0910B028F3F2FEF9207A207B20759F087
:100BF0000196A11DB11D8093080290930902A09354
:100C00000A02B0930B0280911002882321F0809198
:100C10000B0180FD1FC080910C018823C9F020EBDF
:100C200034E0829FA001839F500D1124052E000CFB
:100C3000660B770B81E00091080210910902209168
:100C40000A0230910B02401751076207730718F030
:100C500080E001C081E0C82FC17080FD13C0809189
:100C60000E0190910A0180930A01813069F0882376
:100C700011F0823061F00E946805C11184CF0E949A
:100C8000950581CF80E0EDCF0E946C05F6CF81E025
:100C9000923009F480E00E947105EFCF47E050E008
:100CA00066E270E08BE091E00E94A029089547E0A1
:100CB00050E066E270E08BE091E00E94BE2908956A
:100CC00060E080E50E943704089580910E0190E075
:100CD00001968430910514F083E090E080930E013A
:100CE0000E945706089580910E018150990B97FF3D
:100CF00002C090E080E08430910514F083E090E041
:100D000080930E010E945706089580910F0190E094
:100D100001968430910514F083E090E080930F01F8
:100D20000E945706089580910F018150990B97FFFB
:100D300002C090E080E08430910514F083E090E000
:100D400080930F010E945706089580910D0190E055
:100D500008968F3F910519F014F08FEF90E0809383
:100D60000D010E945706089580910D018850990B3E
:100D700097FD80E080930D010E9457060895FB01C6
:100D80002281222341F0109208021092090210924F
:100D90000A0210920B0282302FE5920729F148F4E3
:100DA00081152FE5920799F081309F45B9F081E0D8
:100DB000089584302FE5920719F1E0F085309F45C2
:100DC000B1F78281882349F00E94930605C0828191
:100DD000882319F00E94A50680E008958281882367
:100DE000E1F30E94B406F8CF82818823B1F30E9418
:100DF0006506F2CF8281882381F30E947306ECCFCF
:100E00008281882351F30E948506E6CF0E948513D4
:100E1000882349F00E944E060E9438050E944C0526
:100E20000E945F0508950E945706F6CF0E94600653
:100E30000E940A1708950F931F93CF93DF93EC013D
:100E40008B010E94BF06C11587E7D80751F0C1305A
:100E5000E7E7DE07C9F0B801CE010E947D07C82F81
:100E60000DC0F801C28181E0CC2391F00E94710E87
:100E700043E062E081E00E946609C0E08C2FDF91D0
:100E8000CF911F910F910895F801C28182E0ECCFBC
:100E90000E94810E43E062E081E00E946609EECF8D
:100EA00081E00E946505089580E00E94650508952F
:100EB000CF93C82F6FEF811162E282E290E00E942F
:100EC000CE296FEFC11164E083E290E00E94CE2949
:100ED0006FEFC11160E384E290E00E94CE29CF91D0
:100EE00008950E94060781E00E9458070E94091792
:100EF000089580E00E94DB190895FB0185302EE7FC
:100F0000920709F4A2C0E8F481302EE7920709F4B1
:100F10008DC048F4813E9105E1F181159E4709F4A9
:100F200074C081E00895228183303EE7930709F47D
:100F300085C008F474C060E082EE90E0222389F35B
:100F40006BC089302EE7920709F49DC070F42281AE
:100F500087303EE7930709F487C008F47EC060E05D
:100F600085EB90E02223E9F257C08B302EE7920701
:100F7000F1F108F480C08C309E4799F68281882375
:100F800081F280E00E94DB1981E00E94810E80E006
:100F900039C08281882351F082E00E94800B0E9438
:100FA00082209093120280931102BBCF8091110294
:100FB000909112020E949A208536910520F082E0DD
:100FC0000E94870BAECF81EE0E94850A81EE0E94BF
:100FD0000E0B82E00E94870B83E00E94710E63E09B
:100FE00083E00E941D1381E00E943B139ACF82810F
:100FF000882309F496CF84E00E94DB1980E00E94E8
:10100000810E81E00E94710E8CCF8281882309F4C9
:1010100088CF60E08AEF90E00E94631C82CF60E09E
:1010200087EF90E0222309F47CCFF6CF82818823DA
:1010300009F477CF60E084EF90E0EECF60E08BEED4
:1010400090E0222309F46DCFE7CF8281882309F451
:1010500068CF60E089ED90E0DFCF60E080ED90E068
:10106000222309F45ECFD8CF60E087EC90E0222302
:1010700009F457CFD1CF8281882309F452CF60E0A1
:101080008EEB90E0C9CF8281882309F44ACF60E0DB
:101090008CEA90E0C1CF8430C8F46630B8F44031B7
:1010A000A8F4E62FF0E096E0899FE00DF11D1124F1
:1010B00084E0EE0FFF1F8A95E1F7E40FF11DEE0FBC
:1010C000FF1FEF55FE4F85919491089580E090E0C9
:1010D00008950E944B0808959C013A9521153F41BF
:1010E00050F5FC01EE27F170BC0166277270AC016F
:1010F000442754709C012227387094FF0EC080E171
:10110000EF2B09F480E0672B09F08062452B09F092
:101110008064232B89F08068089581E0EF2B09F427
:1011200080E0672B09F08260452B09F08460232B57
:1011300019F08860089580E00895CF93DF93EB0164
:101140000E946C08FE010995DF91CF910895CF931D
:10115000DF93EC01805E9109089720F062EC7DE05E
:10116000209711F460E87BE0CE010E949D088C2F4F
:101170000E94850ADF91CF910895CF93DF93EC0110
:101180000E940E0BCE01805E9109089720F069EC59
:101190007DE0209711F467E87BE0CE010E949D0876
:1011A000DF91CF9108950F931F93CF93DF938C011D
:1011B000EB010E94A708209741F4C8010E94BD08D6
:1011C000DF91CF911F910F9108958FE99FE00197D3
:1011D000F1F700C000002197EECF70E060E08933A6
:1011E000910511F460E570E00E94D308089581E054
:1011F000089508950E94F9080895A5E0B0E0E3E09D
:10120000F9E00C94E42749835A83309118028981CC
:101210009A81311119C0662399F0222389F00E9426
:10122000360F182F682F89819A810E94130F6981C8
:101230007A81812F0E94D6152596E3E00C94002830
:101240000E94240F182FF3CF0E94360F69817A81F4
:10125000F1CFFC01262F408151816281738184810D
:101260000E94FD08089581E00895CF93DF93EC017B
:1012700060E00E942909BE010E94FA08DF91CF9127
:101280000895E1E0F0E0DF0102C0AA0FBB1F6A95FC
:10129000E2F7BD01DF0102C0AA0FBB1F4A95E2F7CA
:1012A000AD01462B572B02C0EE0FFF1F2A95E2F728
:1012B0009A01282339232417350719F48E2B9F2BE5
:1012C0000895E095F0958E239F230895242F462FAF
:1012D000682F8091490290914A020E9441090E9420
:1012E000590E08950E94710708950E9416070895E7
:1012F00008950E94E20D0E9478092FEF84E39CE09C
:10130000215080409040E1F700C0000008950E9405
:1013100079090E94CD2008950E9479090E94F12048
:1013200008950F931F93CF93DF938C0161E00E9488
:101330002909EC01B8010E94031E882329F061E00D
:10134000C8010E942909EC01B801CE010E941B07C7
:10135000811106C080E0DF91CF911F910F91089518
:10136000B801CE010E94291E8823A1F3B801CE0145
:101370000E946019882371F3B801CE010E94591DA3
:10138000882341F3B801CE010E941F1B882311F36B
:10139000B801CE010E94CB1C8823E1F2F8018281C2
:1013A000882361F0C330FCE7DF07E9F058F4C1158A
:1013B000ECE7DE07A9F0C130DC47B9F0C8010E94B4
:1013C000F708C9CFCB358CE7D807A9F0CC35ECE7C7
:1013D000DE0771F0CA35DC4789F70E947613EECF3D
:1013E0000E948709B7CF0E947E130E948C09B2CF5A
:1013F0000E946C13E3CF0E947A13E0CF0E94500743
:101400000E94280A08950E942C0A0E9454070895F9
:1014100008950E94080A089581E008950895CF93E1
:10142000DF93D82F0E940C0AC82F882319F08D2F24
:101430000E940E0A8C2FDF91CF9108950895CF93CB
:10144000C82F0E94090A8C2F0E940F0ACF9108957D
:1014500080E00E941F0A08950E94AE1E0E941F0A8B
:101460000895CF930E94AE1EC82F809113028C174F
:1014700079F0C09313020E948E206093140270933F
:10148000150280931602909317028C2F0E941F0A58
:10149000CF910895ABE0B0E0E0E5FAE00C94E527E9
:1014A0004F83588769877A878B8761110E94B712AB
:1014B0001E821D8285E0FE013796DE0111960190A5
:1014C0000D928A95E1F78C819D81892B61F4498188
:1014D0005A816B817C818D819E810E94DA112B96CD
:1014E000E2E00C94012889819A8189238F3F79F366
:1014F000CE0101960E9433098111E9CFF0CFFC01A2
:10150000808191810E94680F0895CF93C82F88230E
:10151000C9F08238C9F40E94AE1E81FD13C089E370
:101520000E9469120E94D8122FEF87EE93E021509B
:1015300080409040E1F700C0000089E30E947112F2
:101540000E94D812CF9108958338A1F40E94AE1E54
:1015500080FDF8CF83E50E9469120E94D8122FEF18
:1015600081EE94E0215080409040E1F700C00000FF
:1015700083E5E4CF8438A1F40E94AE1E82FDE2CF61
:1015800087E40E9469120E94D8122FEF81EE94E046
:10159000215080409040E1F700C0000087E4CECFAA
:1015A0008CEF8C0F813A90F46C2F809144019091D4
:1015B00045010E94361F882329F08C2F0E9471124A
:1015C0000E94D8128C2F0E946912BACF80E28C0F31
:1015D000883048F4C77081E001C0880FCA95EAF7E7
:1015E0000E949412ADCFEBE5EC0FE33040F4F0E055
:1015F000EF57FE4F808190E00E94D81EA3CFC85ABB
:10160000C93108F09FCFEC2FF0E0EE0FFF1FE15B38
:10161000FE4F808191810E94FD1E94CF882309F4A2
:101620004DC0823879F40E94AE1E81FF47C089E325
:101630000E9469120E94D81289E30E9471120E94CE
:10164000D8120895833859F40E94AE1E80FF36C028
:1016500083E50E9469120E94D81283E5EECF843898
:1016600059F40E94AE1E82FF29C087E40E946912CD
:101670000E94D81287E4E1CF9CEF980F913AE8F2EC
:1016800090E2980F983050F4877091E001C0990F64
:101690008A95EAF7892F0E949A12D1CF9BE5980F7D
:1016A000933028F490E080E00E94D81E0895885A74
:1016B000893120F490E080E00E94FD1E08951F9380
:1016C000CF93DF93182FEB010E94850A209739F4FE
:1016D000812F0E940E0BDF91CF911F9108958FE90A
:1016E0009FE00197F1F700C000002197EFCF70E075
:1016F00060E0893311F460E570E00E945F0B0895AB
:10170000882321F00E9494120E94D8120895882301
:1017100021F00E949A120E94D8120895B0E0A0E031
:10172000E4E9FBE00C94DE276C01D62FC72FFC0107
:101730001281F580F2949FE0F9220E948A12E82E2D
:101740008823B9F0E12E1123A1F08C2F807F803403
:1017500021F080E28D0F8830D0F08091AF0482FFBD
:1017600016C082E00E943B130E948A1291E0E82E8C
:10177000E926BC2EB2948FE0B822FBE0FB1508F4FA
:1017800068C0EB2DF0E0EB5CF54D0C94CF27E12C1D
:10179000F0CF0C2F0F70C07F11F00295007F112346
:1017A00099F0002359F080E28D0F883010F0D111AC
:1017B00007C0802F0E9494120E94D8128D2F41C022
:1017C000802F0E94AA12F8CF8D2F0E940E0B0023AB
:1017D00009F43FC080E28D0F883010F0D11104C0B1
:1017E000802F0E949A1203C0802F0E94B0120E9484
:1017F000D8122FC00C2F0F70C07FC03211F002958D
:10180000007FDD2381F0D13009F468C0112309F491
:1018100072C0FF2009F468C0F601858180FFCECF39
:101820008F70858361C08091AF0482FD33C0112326
:1018300059F0002329F0802F0E9494120E94D812A0
:1018400080E00E94850A05C080E00E940E0B011115
:10185000C7CFEB2DE850FF0B349720F40E94AE1E4B
:101860000E941F0AEE2089F00E94861280FD0DC0A2
:10187000F60112820E9480120E94710EC6010E941F
:10188000980D0E9480120E94810ECDB7DEB7E9E06C
:101890000C94FA27112389F0F11006C00E94BA12A5
:1018A000802B0E94800BD5CF21E0F212F7CF0E944F
:1018B000BA12802B0E94C112CCCFF11006C00E9438
:1018C000CE12802F0E94870BC4CF31E0F31609F2AD
:1018D000802F0E94870B0E94CE12BBCF112331F0C4
:1018E00085E08F1508F4B5CF802FDBCF94E09F15EE
:1018F00008F4AFCFE6CFFF2021F3D93349F4FFEF4F
:1019000027EE33E0F15020403040E1F700C0000006
:101910008D2F0E940E0B9DCF8C2F86958695837000
:1019200069F0813009F095CF8D2F9C2F93701111A4
:1019300002C080E090E00E94FD1E8BCF8D2F9C2F77
:101940009370111102C080E090E00E94D81E81CFF8
:101950008C2F8370A1F511117CCF4D2F42954695A8
:101960004770440F440F2D2F2F7030E0042E02C01B
:10197000220F331F0A94E2F790E080E0D4FF09C001
:101980008FE090E002C0880F991F4A95E2F780959A
:101990009095C695C695C370822B932BC23049F0A3
:1019A00058F4C13019F00E94410E53CF0E94380EF6
:1019B00050CF0E944A0E4DCF0E94350E4ACF8695D9
:1019C000112311F08C2F8170882309F442CF4D2F01
:1019D000429546954770440F440F2D2F2F7030E0ED
:1019E000042E02C0220F331F0A94E2F790E080E039
:1019F000D4FF09C08FE090E002C0880F991F4A957C
:101A0000E2F780959095C695C695C370822B932B6F
:101A1000C23049F058F4C13019F00E94AC0E19CF11
:101A20000E94A30E16CF0E94B50E13CF0E94590E2E
:101A300010CFCF70112329F08C2F0E94710E8D2FA3
:101A400030CF8D2F0E94870B8C2F0E94810E01CFEB
:101A5000D23F51F160F4D03FB9F0D13F81F0112372
:101A600009F449C0F110AACE8C2F8F7121C0D33F49
:101A700011F1D43FA1F78091AF0482FD26C08C2FD5
:101A80008F71112311F314C0112349F084E08F15D5
:101A900008F4DFCE8C2F8F710E94930EDACE95E082
:101AA0009F1508F4D6CEF6CF8C2F8F711111CDCFA4
:101AB0000E94710ECECE112329F08C2F8F710E94BF
:101AC000650EC7CE0E94600EC4CE112349F0CF71BF
:101AD0008C2F0E94710E63E08C2F0E941D13B9CED3
:101AE00081E00E943B13E1E0EF1508F0B2CE82E006
:101AF0000E943B13AECEF11000CF8C2F8F71A5CF7B
:101B00000F931F93CF93DF93EC01688179818A81D2
:101B10000E94730F8C010E94BE0E0E94340EB80109
:101B2000CE010E948E0BDF91CF911F910F910895EE
:101B3000CF93DF93EC018B819C81892B29F08881E5
:101B4000998189238F3F51F4DF91CF910895CE0180
:101B50000E94800DCE010E943509F6CFCE010E9471
:101B600091098111F4CF0E948A12882369F38A8136
:101B7000882351F38091AF0482FFE6CF82E00E9478
:101B80003B13E2CF882321F00E94AA120E94D812B0
:101B90000895882321F00E94B0120E94D81208955F
:101BA00090E080E00E94D81E90E080E00E94FD1E40
:101BB0000E94B7120E94D81208950E9479120E94C2
:101BC000D00D08950E94A4120E94DD0D08959295F3
:101BD0009F70963091F058F4925F9F70923058F455
:101BE000803F19F030F4883E30F481E008959A5F28
:101BF000F4CF843FD1F380E00895883EB0F3813F75
:101C0000D1F7F3CFFC0183819481892B29F0808166
:101C1000918189238F3F11F480E008958081918123
:101C20000E94680F0E94E70D0895A5E0B0E0EBE187
:101C3000FEE00C94E5272596E2E00C940128A6E04E
:101C4000B0E0E5E2FEE00C94E5272696E2E00C9495
:101C5000012808950E94290E08950E942A0E90934B
:101C60004C0280934B02089508950E942D0E089512
:101C700020914B0230914C02822B932B0E942D0E0F
:101C8000089520914B0230914C02822393230E94AD
:101C90002D0E089520914B0230914C0282279327FC
:101CA0000E942D0E08950E94290E08950E94530E41
:101CB00008950E94560E90934A0280934902089517
:101CC00090E080E00E94590E089521E030E0A901E3
:101CD00002C0440F551F8A95E2F7CA010E94590EAF
:101CE000089521E030E002C0220F331F8A95E2F709
:101CF0008091490290914A02822B932B0E94590EA7
:101D0000089521E030E002C0220F331F8A95E2F7E8
:101D1000209530958091490290914A028223932325
:101D20000E94590E089521E030E002C0220F331FB7
:101D30008A95E2F78091490290914A02822793277F
:101D40000E94590E08952091490230914A02822B37
:101D5000932B0E94590E08952091490230914A0216
:101D6000822393230E94590E0895209149023091B5
:101D70004A02822793270E94590E08950895262F1C
:101D8000277091E001C0990F2A95EAF723E0769534
:101D900067952A95E1F7660F771F660F771FFA019F
:101DA000E60FF71F50E040E0682F70E08191DF01FF
:101DB00011979B01042E02C0369527950A94E2F7ED
:101DC000217021952827292328272C934F5F5F4FC7
:101DD0004430510559F70895A82FA77023E0969530
:101DE00087952A95E1F7880F991F880F991FFB01A6
:101DF000E80FF91F50E040E080E0219130E00A2E2A
:101E000002C0369527950A94E2F721703327042EF5
:101E100001C0220F0A94EAF7822B4F5F5F4F4430D4
:101E2000510559F70895262F963068F4803158F4FB
:101E300030E1939FB0011124680F711D49E152E018
:101E4000822F0E94BF0E0895963070F4803160F4A6
:101E500040E1949F9001112469E172E0820F932F79
:101E6000911D0E94EC0E089580E00895B0E0A0E07E
:101E7000ECE3FFE00C94DE277C0100914902109115
:101E80004A0280914B0290914C02082B192BCFE013
:101E9000D0E0CC24C394D12CBC2EC6010C2E02C0A1
:101EA000880F991F0A94E2F780239123892B49F424
:101EB000219790F7B12C8B2DCDB7DEB7E9E00C94CC
:101EC000FA27B7018C2F0E94E215019789F3F3CF0F
:101ED000CF93DF93EC010E94360FBE010E94E21502
:101EE000DF91CF9108951F93CF93DF93EB019091F2
:101EF0001802992339F0CB010E94680FDF91CF912E
:101F00001F910895882369F0CB010E94360F182F86
:101F1000682FCE010E94130FBE01812F0E94E2158F
:101F2000EDCFCB010E94240F182FF6CF1F93CF9334
:101F3000DF93C0914D0216E080914E028C1304C0D5
:101F4000DF91CF911F910895D0E01C9FF0011D9F5C
:101F5000F00D1124E15BFD4F40815181628173815D
:101F6000848195810E941F0E2196C770E5CF409114
:101F70007F02509180026091810270918202809173
:101F80008302909184020E941F0E089520914D02B9
:101F900090914E0256E0291302C080E0089530E08F
:101FA000529FF001539FF00D1124E15BFD4F7181B1
:101FB000761306C07081781303C07281741304C055
:101FC0002F5F3F4F2770E7CF81E008951F93CF9396
:101FD000DF9380918402807F09F049C08091810263
:101FE000882309F444C080914D02C0914E02609153
:101FF0007F0270918002A0918202B0918302D62F5D
:10200000D72316E0C81799F190E0109711F0DF3F41
:1020100019F401968770F6CF189F9001199F300D23
:102020001124F901E15BFD4F41814713F2CF40815B
:102030004613EFCF42814111ECCF438154814A1BBB
:102040005B0B483C510528F7809184028F708061BA
:1020500080938402F901EC5AFD4F80818F7080617A
:1020600080838FE792E00E94980D0E94960FDF9187
:10207000CF911F910895A1E1B0E0E1E4F0E10C946B
:10208000DB278C0185E0F801DE011D9601900D92A1
:102090008A95E1F7D8011296EC9012978FE7A82E57
:1020A00082E0B82E40918202509183024115510581
:1020B00009F461C190917F0220918002892F8223CF
:1020C0008F3F09F458C1CC901196DC90119713966C
:1020D0008D909C901497F0908102F401E41BF50B15
:1020E000FF2009F4F6C080918402382F307FE83C4D
:1020F000F10508F0B0C031117BC0FE2CD21217C020
:102100009C1115C0E11013C08F7080618093840210
:102110000E94B70FC5010E94980D80918402D801DA
:1021200015968C938F2D6196ECE00C94F727811413
:10213000910429F08D2D8C218F3F09F038C180E06A
:1021400080FF15C04E2D6D2D8C2D0E94C60F88234B
:1021500071F08FE792E00E94980D86E0EFE7F2E0E1
:10216000DF011D928A95E9F70E94B70F3FC08114E5
:10217000910429F08D2D8C218F3F09F015C180E04D
:10218000B82FB170AB2E80FF29C04E2D6D2D8C2D38
:102190000E94C60FB82E811121C0CD86DE868D85A6
:1021A0009E850E94680F292F22952F70223050F0B3
:1021B000243078F49F7051F0F8019581907F31F4CC
:1021C000FB2CB0CF9F7011F08823D1F3805E883054
:1021D000B8F3C8010E94980DBA2CF2CFEE2009F492
:1021E000A1CF80918402816080938402F12C9ACFE8
:1021F000D21205C09C1103C0EE2009F487C0C801AB
:102200000E94020E882319F1EE2009F180918402C8
:10221000803270F020917F023091800238872F83C6
:1022200019869B868A868C87CE0107960E94980D18
:1022300086E0F801AFE7B2E001900D928A95E1F7F0
:102240000E94E60F0E94B70FFF24F3946BCFC801E2
:102250000E94980DF9CF311112C0782D998A888A81
:10226000A6016E2D89890E94150E8FE792E00E94CB
:10227000980D86E0F50111928A95E9F775CFD21293
:102280000FC09C110DC0E1100BC015968C93C801B6
:102290000E94980D86E0F50111928A95E9F742CFE8
:1022A000C8010E94020E882391F2EE2081F28091F3
:1022B0008402803208F4BCCF20917F0230918002EA
:1022C0003A8329831B829D828C828E83CE01019664
:1022D000ADCFE83CF10508F040C0FE2CEE2009F43B
:1022E000B6CFD2122CC09C112AC08091840280FDEE
:1022F0001DC0982F907FD1F015968C931597903F25
:1023000039F0982F907F905F8F70892B15968C9362
:10231000C8010E94980D86E0F801AFE7B2E0019095
:102320000D928A95E1F70E94B70FFCCE86E0F80186
:10233000AFE7B2E001900D928A95E1F7F3CEC801C4
:102340000E94020E811174CF80918402816080937B
:102350008402C8010E94980DE5CE782D998A888A5A
:10236000A6016E2D89890E94150E86E0F501119255
:102370008A95E9F7D8CFEE2009F469CFC8010E9409
:10238000020EF82E882309F462CF86E0F801AFE749
:10239000B2E001900D928A95E1F78FE792E00E94FA
:1023A0007F0A0E94E60FBFCF81E08E25E9CE81E053
:1023B0008E25C6CEACE0B0E0E0EEF1E10C94E4276F
:1023C0004F83588769877A878B879C87CE010796CA
:1023D0000E943B10882369F08A859B85892B39F000
:1023E0004F815885842F85238F3F09F06BC016E0FD
:1023F0005FC086E0FE013796DE01119601900D92D6
:102400008A95E1F78A859B85892B89F38F81988549
:1024100089238F3F61F320914E0230E0C90101967C
:102420008770992740914D024817190671F40E9450
:10243000E20D10924E0210924D0286E0EFE7F2E0BC
:10244000DF011D928A95E9F7D2CF96E0929FD001E5
:10245000939FB00D1124A15BBD4FFE0131960190F9
:102460000D929A95E1F780934E020E94960FBFCF8E
:10247000819FC0011124815B9D4F0E943B108823E6
:10248000E9F0E0914D021E9FF0011124E15BFD4F48
:102490004081518162817381848195810E941F0EE8
:1024A00080914D0290E001968770992780934D02AC
:1024B00080914D0290914E028913DACF2C96E3E081
:1024C0000C94002869857A858B859C850E941F0E57
:1024D0008ECF682F80914401909145010E94B61FD4
:1024E0000895682F80914401909145010E94C41F76
:1024F000089580914401909145010E94D21F089552
:102500008091A50285958595859508958091A50270
:10251000877008959091A502977081E009F480E09A
:1025200008958091C80208959091C802892B8093E4
:10253000C802089580959091C80298239093C8028C
:1025400008958093C80208951092C802089580915A
:10255000C70208959091C702892B8093C7020895FE
:1025600080959091C70298239093C7020895109286
:10257000C70208958091A602089508950E94BD1291
:1025800008959091AF0492FF08C09091A602981709
:1025900021F08093A6020E94BE1208958091A602A7
:1025A000882329F01092A60280E00E94BE120895AE
:1025B000CF93DF93E0914401F09145018091C802EF
:1025C0008083E0914401F091450180819091C702A0
:1025D000892B80839091A602992381F0E091440198
:1025E000F09145018081892B8083809144019091F5
:1025F00045010E94221F81110E94CE12C091440108
:10260000D091450140E250E065E872E0CE010E94C1
:102610009329892B59F080E2FE01A5E8B2E00190F0
:102620000D928A95E1F7CE010E94BE1EDF91CF91F7
:10263000089508950E94191308959091AF0492FF90
:1026400011C098E0899F90011124622B6093A5022C
:102650000E94710E8091A5028595859585950E94B1
:102660001A1308950E94710E08951092A50280E039
:102670000E941A1308959091A50280958923809352
:10268000A502282F277091F4282F082E000C330B59
:102690009217130659F09091AF0492FF07C08595E9
:1026A000859585950E94810E0E943513089590911D
:1026B000AF0492FB222720F9281769F080FB92F9DA
:1026C0009093AF048091AE049091AF040E949F1349
:1026D00082E00E943B1308958091AF0482FB88271B
:1026E00080F991E089270E945713089581E00E94A4
:1026F0005713089580E00E94571308956FEF7FEFFE
:1027000090E080E00E94EC29089590E080E00E9433
:10271000B82921E0873E9E4F09F020E0822F0895DE
:1027200082E090E00E94B029089583E090E00E944A
:10273000B029089584E090E00E94B8290895BC0172
:1027400084E090E00E94EC290895AB01BC018FE089
:1027500090E00E94E0290895AB01BC0183E190E084
:102760000E94E029089560E070E0CB010E94AC1364
:10277000089560E070E0CB010E94A5130E94B3139E
:10278000089567EE7EEF90E080E00E94EC2960E023
:1027900082E090E00E94CE2960E083E090E00E9419
:1027A000CE2910924C0210924B0260E074E184E05A
:1027B00090E00E94EC2960E086E090E00E94CE2943
:1027C0006FEF87E090E00E94CE2940E050E0BA0130
:1027D00088E090E00E94E02960E08DE090E00E94B7
:1027E000CE2940E050E0BA0188E190E00E94E02963
:1027F00060E087E190E00E94CE2940E050E0BA011D
:102800008CE190E00E94E02970E060E080E290E0DE
:102810000E94EC2940E050E0BA0188E190E00E947B
:10282000E0290E94B91308950E94C1130895682FEA
:102830008EE090E00E94CE2908950E948E20609341
:10284000DB027093DC028093DD029093DE026093E2
:10285000D7027093D8028093D9029093DA02089538
:10286000089508950E94311408950E9479070895EB
:102870008CEC96E10E94A41E0E9430140E94321437
:10288000089581E008950E944114089508950895DF
:102890000E9446140E94471408950E94EB160E945D
:1028A0001E0A0E94B01908950E9479200E94CC1738
:1028B0000E944D140E9435140895AAE0B0E0E3E6AA
:1028C000F4E10C94DA270E94E2172BEC822E22E02E
:1028D000922E640110E0F601E190F1906F01812FDA
:1028E0000E940B171F5F163009F449C0E816F9065D
:1028F00091F38091DF0281FD0E9414170E9443141E
:10290000782E10E0812F0E940B177C01F401A1901A
:10291000B1904F018A159B0561F1A826BF2400E004
:10292000CC24C394D12CC5018C219D21892BC1F0CD
:102930007720B1F00E831F8321E0C7018C219D21F8
:10294000892B09F420E028870E9482208160782F5B
:102950009A8789874E815F8168858A850E944A0AA5
:102960000F5FCC0CDD1C0031F1F6F4013297F182DF
:10297000E0821F5F163031F60E941D1422C0E81657
:10298000F90609F0B6CF0E9482208C018091C9021D
:102990009091CA0208171907A1F08FEF89838A83E3
:1029A0001B820E9482208160782F9D838C834981C5
:1029B0005A816B818D810E944A0A1093CA0200934A
:1029C000C9020E94841E0E94310A2A96EDE00C94EE
:1029D000F627CF93DF930E94E715EC01811520E5E0
:1029E0009207D0F5811530E4930708F086C0803E49
:1029F000910518F58D3C910508F07DC0883A910548
:102A000070F4853A910508F06EC08130910501F1AE
:102A10000097F1F00497E0F4D0E0C0E019C0813CE9
:102A20009105D0F7C85AD0E0CC0FDD1FCC57DE4F50
:102A30000990D881C02DD4640BC08115904208F054
:102A4000A8C0C11581E0D80718F4C83ED10520F709
:102A5000CE01DF91CF910895803622E5920710F5DF
:102A6000803432E5930708F052C08032924508F076
:102A700047C0C11582E5D80708F47DC02C2F2695E4
:102A8000269540E2249F900111248C2F8370C1E091
:102A9000D0E002C0CC0FDD1F8A95E2F7C22BD32B0A
:102AA000DD68D6CF803A22E5920760F4803832E5BF
:102AB000930708F441C0CF71D0E0DC2FCC27C46F5E
:102AC000D06AC6CF803C42E5940708F449C0C03EB6
:102AD00082E5D80708F0A0CFDC2FCC27CC27DF7108
:102AE000C06FD06AB5CFC55AD0E0CA54DE4FC88196
:102AF000D0E0D064ADCFD065ABCFDF70D06AA8CFC7
:102B0000CF71D0E0DC2FCC27C16FD06AA1CF282FA6
:102B100026952695277080E2289F900111248C2FFE
:102B20008370C1E0D0E002C0CC0FDD1F8A95E2F7D0
:102B3000C22BD32BDC688CCF282F269526952770A7
:102B400040E2249F900111248370C1E0D0E002C0D4
:102B5000CC0FDD1F8A95E2F7C22BD32BDA6878CF32
:102B60008F710E948916C82FD0E0DC2FCC27CC278C
:102B7000DF71D0626DCF8C2F8F710E94891635E086
:102B8000D695C7953A95E1F7CF709C2FEC01D069A7
:102B90005FCF8D2F8F710E94891690E0982F882724
:102BA00088279F719C012C2BE901E3CF462F7630BB
:102BB00030F4603120F4672F0E946908089590E096
:102BC00080E008950E94D6150E94E9140895823885
:102BD0009105B9F1B0F48133910509F47DC048F451
:102BE0008932910509F46DC08A32910509F47BC0E0
:102BF00008958533910509F45FC08933910509F182
:102C00000895833E9105D9F138F4803E910529F16C
:102C1000823E910579F10895863E9105D9F1873E6E
:102C2000910509F43EC0843E910541F52091AF0421
:102C300021FF24C08091AE0484FD19C087EE90E08E
:102C400008952091AE04237009F05AC02091AF047A
:102C500023FF14C089E290E008952091AE0420FD86
:102C600038C03091AF0430FF09C024FF43C090E06A
:102C700080E008952091AE0422FDF7CF08952091C1
:102C8000AE0422FD3AC03091AF0430FD39C024FFBC
:102C9000F5CFEDCF2091AE0423FFF0CF24FDE7CF99
:102CA000CDCF2091AE0423FD2EC03091AF0431FF73
:102CB000EECF84EE90E008952091AE0425FFDECFA4
:102CC000C9CF2091AE0425FD21C02091AF0423FF80
:102CD000D5CF89E390E0D2CF2091AE0426FFCECFAE
:102CE0008AE290E008952091AE0426FFC7CF81E3E9
:102CF00090E0089583EE90E0089582EE90E00895CC
:102D000080EE90E0089586EE90E0089585E390E0EF
:102D100008959091AE0492FF06C0282F28712830A4
:102D2000F9F4877F846093FF06C0282F287128312B
:102D3000F1F4877E84612091AF0420FF06C0382F14
:102D400038713830D9F4877F816021FF06C0282F81
:102D500028712831D1F4877E816194FD877E0895A2
:102D6000282F24712430F9F68B7F8860DCCF282F40
:102D70002471243101F78B7E8861DDCF382F3171CA
:102D8000313019F78E7F8860E0CF282F21712131F3
:102D900021F78E7E8861E1CF80E008950E947E1346
:102DA00008950E94E2172FEF86E791E021508040BE
:102DB0009040E1F700C000000E94E21780E00E940E
:102DC0000B1780FF04C00E94CE160E94CD200895EC
:102DD0000E94D11608950E948513811102C00E949D
:102DE00014140E9490138093DF020E949A13909310
:102DF000AF048093AE040E94E8160E94951390E001
:102E00000E94350E8091490290914A020E94560E0E
:102E1000089508950895E82FF0E0EE0FFF1FE454A1
:102E2000FB4F808191810895089580EA8A95F1F79A
:102E3000089500C008950E9415170895F894E82F8A
:102E4000E295EF70F0E031A1282F2F7081E090E043
:102E500001C0880F2A95EAF7982F9095932391A3A4
:102E600092A1892B82A378940895CF93DF93C9EB25
:102E7000D1E089918F3F11F00E941E1781E0C93C7B
:102E8000D807B9F7C9ECD1E089918F3F11F00E94C2
:102E90001E1781E0CF3CD807B9F7DF91CF91089595
:102EA0008F929F92BF92CF92DF92EF92FF920F93F9
:102EB0001F93CF93DF93D82EE92EF62E8A01C62FCB
:102EC000D0E0C754DE4F28812F3F09F453C0F89457
:102ED000E22FE295EF70F0E031A12F7081E090E0F9
:102EE00001C0880F2A95EAF7932F982B91A392A1FE
:102EF0008095892382A378940E94191789EC882EE3
:102F000081E0982EED2DFE2DBF01645F7F4FE12CF7
:102F10006801C094D094D401BD904D0181919191EC
:102F2000AF0142505109BFEFBB1681F12B2D229505
:102F30002F7030E0D90190962C9130E0BB2DBF70FE
:102F400002C035952795BA95E2F720FD1FC0802B6A
:102F5000912BDA018D939C93EE24E394E617F70707
:102F6000D1F688818F3F11F00E941E176E2D8F2D94
:102F70000E941B17DF91CF911F910F91FF90EF904F
:102F8000DF90CF90BF909F908F9008958C219D21CE
:102F9000DA018D939C93E2CF0E9435178CE0ECEB25
:102FA000F4E0DF01982F1D929A95E9F7E0EBF4E049
:102FB000DF011D928A95E9F786E00E9436180E948B
:102FC00072090895CF92DF92FF920F931F93CF93D0
:102FD000DF93CDB7DEB72C970FB6F894DEBF0FBEE8
:102FE000CDBF8E010F5F1F4F8CE0F80111928A95C3
:102FF000E9F7F12CCC24C394D12CA6016F2DC80184
:103000000E945017F394CC0CDD1CF0E1FF12F5CFB9
:103010004CE050E0B80180EB94E00E94932921E05D
:10302000009709F420E0892B41F08CE0F801A0EB37
:10303000B4E001900D928A95E1F746E06CEB74E004
:1030400080EB94E00E945118182F0E947509812F7F
:103050002C960FB6F894DEBF0FBECDBFDF91CF9197
:103060001F910F91FF90DF90CF900895CF93C82FBD
:1030700020E1829FC00111240E940C288093E50268
:103080009093E6029C0180E08C1302C0CF910895DA
:10309000F90190E111929150E9F78F5F205F3F4F66
:1030A000F3CFB0E0A0E0E7E5F8E10C94DA27182FC1
:1030B000092FF62EE72EB42EC22F1092E002D091E7
:1030C000E202DD2309F471C00E9482202091E30214
:1030D0003091E402AC01421B530B9A019093E4023D
:1030E0008093E3024F3F510509F0B8F4452B89F076
:1030F0001092E2021092E1028091E5024091E60214
:1031000030E060E090E0B9120BC06093E2023093CF
:10311000E102C11158C0CD2F4AC02FEF30E0E8CFF7
:10312000E82FF42FAF01405F5F4F8191882331F08A
:10313000DF011197281748F01C923D2FE417F5077F
:10314000A1F78E2F4F2F9F5FDECF821B8C936D2FA9
:10315000F5CF6D917D918081918168277927EA0172
:1031600030E020E08701022E02C0000F111F0A94F8
:10317000E2F76B01C022D122C114D10451F0D880F2
:10318000D11007C0788280279127992493948824AE
:10319000839421962F5F3F4F2031310519F7405F0F
:1031A0005F4F81939193A39420C0211106C0809119
:1031B000E102882301F1C11106C00E948220909390
:1031C000E4028093E3024091E5025091E602809090
:1031D000E2029090E002EF2DFE2DA12FB02FA12C46
:1031E000EE24E394F12C9FE0792EBA10B2CF8092B6
:1031F000E2029092E0028091E002CDB7DEB7EDE00E
:103200000C94F6270E9460220E9454140E946D22A2
:1032100008950E9472220E945D140E948C220895DB
:103220000E941B200E9446220E9438140E9402190C
:103230000E9409190E944814FBCF0F931F93CF934C
:10324000DF93EC01C11580ECD80708F10E949112C0
:10325000182F0E94A712182B0E94BA12082F0E9442
:10326000BB1E102B127291E009F490E086958170DC
:10327000981729F0CC0FCD2FCC1FDD0BD195CF7730
:10328000DD27CE01DF91CF911F910F910895DF735C
:10329000F8CF97FF13C0FB012281222379F00E940F
:1032A0001D19FC01EE0FFF1FEE0FFF1FE350FF4F34
:1032B00065917591859194910E94D71A81E0089546
:1032C0000F931F93CF93DF93EC018B01FB0182815E
:1032D0008823B1F00E9491128272FE01E053FC47F4
:1032E000E830F10568F4EF5BF54D0C94CF278111C0
:1032F00004C081E003C08111FCCF8FEF0E94E6196A
:10330000B801CE010E944919DF91CF911F910F9111
:10331000089580E00E94DB19F3CF81E0FBCF82E0CB
:10332000F9CF83E0F7CF84E0F5CF85E0F3CF90913C
:10333000C904923071F48A3050F490E009966AE042
:1033400070E00E949927875A0E94770B0895865053
:10335000FBCF0E94581C089508950E94AC1908954F
:103360008CE090E00E94B029482F50E070E060E0CF
:103370004093C9045093CA046093CB047093CC0467
:10338000882351F0843059F481E08093E7028091E2
:10339000C9040E94AD1908951092E702F8CF109267
:1033A000E7021092C904F3CF6091C9048CE090E069
:1033B0000E94CE290895CF93C82F8093C9040E94FC
:1033C000D4198C2F0E94AD19CF9108952091E70256
:1033D000082E000C990B820F911D27FD9A9562E033
:1033E00070E00E9499278F3F99F08093E702E09167
:1033F000E7020E2E000CFF0BE153FE4F80818093FD
:10340000C9040E94D4198091C9040E94AD1908957D
:1034100081E0EBCF0E94BB1E8093C8049091C90449
:10342000913029F481FF03C089E30E94770B0E9449
:1034300091128093CD040E94A4120E94B712809131
:10344000C904823021F158F48823C1F08130D1F0D1
:103450008FE39CE90197F1F700C0000008958430E4
:1034600051F18530A9F78BE191E00E94ED0885E2EA
:1034700090E00E94ED0888E290E006C086EE0E948F
:10348000850AE6CF88E193E00E94ED08E1CF8091C4
:10349000C80480FD03C083E50E94770B82EE0E9482
:1034A000850A8FE39CE90197F1F700C0000087E5EA
:1034B0000E94770BCDCF86EE0E94770B88E1F8CF84
:1034C0008091C904823011F148F4882381F0813061
:1034D00091F08091CD040E94A11208958430F9F0FA
:1034E0008530B9F788E290E00E94ED08F2CF86EED1
:1034F0000E940E0BEECF8CE20E94770B8091C804E5
:1035000081FFE7CF89E30E94770BE3CF82EE0E9431
:103510000E0B8091C80480FDDCCF83E5F4CF88E2F8
:10352000F2CF8F929F92AF92BF92EF92FF920F9342
:103530001F93CF93DF934B015C01D091C9048CE1C1
:10354000E82EF12C07E010E021E0D501C4010E2C9B
:1035500004C0B695A795979587950A94D2F7C82F7A
:10356000CF70222339F0D43051F4CA3040F080E0DB
:103570000E9497198C2F0E94971920E005C0C11155
:10358000F9CF04301105B4F30150110984E0E81AB1
:10359000F1080F3F1007C9F6DF91CF911F910F91EE
:1035A000FF90EF90BF90AF909F908F900895CF9233
:1035B000DF92EF92FF926B017C01C114D10481E193
:1035C000E806F104A0F5C114D10481E0E806F10495
:1035D00020F08091C904823051F10E940A1AC1146E
:1035E000D10481E0E806F10438F18091C904811129
:1035F00023C081E0E81AF108C701B6012AE09695D8
:103600008795779567952A95D1F778528F4F9F4F79
:103610000E94911A83E0D822EE24FF24C701B6014C
:1036200074528F4F9F4F0E94911A0E94601AFF9010
:10363000EF90DF90CF900895C701B601F4CFCF93FC
:10364000DF93EC01FB018281882309F4D2C09E0143
:1036500030572332310508F0B2C00E949A1390937C
:10366000AF048093AE04FE01E150F047E232F10571
:1036700020F4E75BF54D0C94CF278091AE04816078
:103680008093AE0493C08091AF0488608093AF04B0
:103690008DC08091AE048260F3CF8091AE048460CF
:1036A000EFCF8091AE048860EBCF8091AF04816052
:1036B000EDCF8091AF048260E9CF8091AE0480614C
:1036C000DFCF8091AE048062DBCF8091AE04806456
:1036D000D7CF0E94E20D8091AE048068D1CF809157
:1036E000AE048C60CDCF8091AF048360CFCF80914A
:1036F000AE048E7FC5CF8091AF04877FC7CF809106
:10370000AE048D7FBDCF8091AE048B7FB9CF809109
:10371000AE04877FB5CF8091AF048E7FB7CF809105
:10372000AF048D7FB3CF8091AE048F7EA9CF8091FF
:10373000AE048F7DA5CF8091AE048F7BA1CF0E9478
:10374000E20D8091AE048F779BCF8091AE04837F92
:1037500097CF8091AF048C7F99CF8091AE0482FB8C
:10376000992790F921E0922790FB82F990FB83F949
:1037700087CF8091AF04982F909591708E7F892B81
:1037800090FB81F983CF9091AE04892F8F7B96FFB8
:10379000806476CF0E94E20D9091AE04892F97FB52
:1037A00087F980586DCF81E00E9417148091AE0494
:1037B0009091AF040E949F130E94E20D80E0DF9180
:1037C000CF91089580E0F0CF9091AE04892F8F7E45
:1037D00094FF806155CF9091AE04892F8E7F90FF2A
:1037E00081604ECF9091AF04892F877F93FF8860CF
:1037F0004DCF81E0E4CFB0E0A0E0E1E0FCE10C944B
:10380000E027E82FF0E0EF55FB4FD490282F2695C6
:103810002695269530E0F901EF5BFA4F0491877009
:1038200010E0082E02C0159507950A94E2F7017082
:103830001127F901EF5CFA4FE490F12C082E02C039
:10384000F594E7940A94E2F791E0E922FF24F90164
:10385000EF5DFA4FC491D0E002C0D595C7958A9527
:10386000E2F7C170DD270115110519F081EE0E9404
:10387000850AE114F10419F086EE0E94850A8D2D67
:103880000E94770BE114F10419F086EE0E940E0BF2
:103890000115110519F081EE0E940E0BCD2B19F0C8
:1038A0008CE20E94770BCDB7DEB7E7E00C94FC27E3
:1038B000982F9F709A50963020F0805D0E94FB1BDD
:1038C0000895895AFBCFEF92FF920F931F93CF93E6
:1038D000DF938C01F62E8AE0E82EF801849188238C
:1038E00009F454C0813009F04DC0E8012196FE0171
:1038F0008491813091F42196FE0184910E94770B8E
:103900008E010F5F1F4F8F2D815038F3EFE9FFE0DD
:103910003197F1F700C00000F7CF823039F4E801A9
:103920002296FE0184910E94850AEACF833039F401
:10393000E8012296FE0184910E940E0BE1CF8430B3
:10394000F9F6E8012296FE01249190E080E0FE0164
:1039500031962053330B2A30310548F0019780F21D
:10396000EFE9FFE03197F1F700C00000F7CFE89EE4
:10397000A001E99E500D1124C901840F951F2491C7
:10398000EF01E5CF0E94FB1BE801BACFCDB7DEB750
:10399000E6E00C94FD27CF93DF93EB0186319C4743
:1039A00011F50E9491129A81992399F08A7A91E0F7
:1039B00009F490E09093E802811109C089E20E9425
:1039C00069120E94D81280E0DF91CF91089585E3BB
:1039D000F6CF8091E802811104C089E20E94711241
:1039E000F0CF85E3FBCF81E0EFCF0F931F93CF9311
:1039F000DF93C42FD22FFC0182818823C9F040932A
:103A0000EB020E9482209093EA028093E90280E216
:103A10008C0F883040F4C77081E001C0880FCA95D0
:103A2000EAF70E94800BDF91CF911F910F910895CB
:103A30001091EB02141332C08091E9029091EA02D6
:103A40000E949A20883C910548F5C0E2CD0F1D17D1
:103A5000B9F080E2810F883040F4177081E001C036
:103A6000880F1A95EAF70E94870BC83048F481E066
:103A70009D2F977001C0880F9A95EAF70E94800BDE
:103A8000802F0E94770BC83070F6D77081E001C09C
:103A9000880FDA95EAF70E94870BC5CF80E28C0F7A
:103AA000883008F6C77081E001C0880FCA95EAF730
:103AB000F2CF0F93DB0188519C4787309105A0F529
:103AC000FC01E559F54D0C94CF2706E221EE41EEBD
:103AD0006AE17CE7CD010E94F51C80E00F9108951A
:103AE00007E225EE45EE6BE17CE7F4CF06E221EE3E
:103AF00040EE68E17CE7EECF07E225EE44EE69E1B7
:103B00007CE7E8CF06E221EE42EE6CE17CE7E2CF13
:103B100007E225EE46EE6DE17CE7DCCF08E221E02E
:103B200045EE6EE17CE7D6CF12968C91882319F092
:103B30001092EB02D3CF81E0D1CFCF93DF93EC0192
:103B4000EA85FB85309719F06C857D8509958B8119
:103B50000E94B0128C810E949A120E94D81286E0B4
:103B6000FE0111928A95E9F7DF91CF910895CF93E5
:103B7000DF93EC018D8181FD12C082608D838B818A
:103B80000E94AA128C810E9494120E94D812E88589
:103B9000F985309721F06C857D85CE0109951092CD
:103BA000EF021092EE028D8180FD03C0CE010E94D3
:103BB0009D1DDF91CF910895CF93DF93EC018A8112
:103BC000823041F4FB01828193810E94A7088D819C
:103BD00082608D83DF91CF910895FB018081918177
:103BE0000E94A7080895FC018281813031F4FB0115
:103BF000808191810E94BD0808958230E9F7FB0120
:103C000082819381F7CFCF93FB01C281CC23E1F076
:103C1000E091EE02F091EF023097C9F0E817F90752
:103C2000B1F02EE0E29FF0011124DF01A95EBE4F4A
:103C30002C9124602C93EE5EFE4F91838083CF0104
:103C40000E94B71D0E94B7128C2FCF910895C0E03B
:103C5000FBCFEF92FF920F931F93CF93DF938C01D3
:103C600097558F3F910511F008F041C07801FF246E
:103C70008EE0089FF0011124EF01CE5EDE4FDB01E4
:103C800012962C91E95EFE4F808120FB80F98083A3
:103C9000222399F10E9482209093ED028093EC02FE
:103CA0008A818F5F8A830E9491128B830E94A71260
:103CB0009B81892B8B830E94BA128C83EE81FF81BA
:103CC000309721F06C857D85CE0109958EE08E9D23
:103CD000F0018F9DF00D1124EE5EFE4F858181FF76
:103CE00002C010E000E01093EF020093EE0281E0CA
:103CF000CDB7DEB7E6E00C94FD278D8181FFF7CFCD
:103D0000CE010E949D1DF3CF8091EE029091EF02B3
:103D1000892BC9F08091EC029091ED020E949A20CB
:103D2000893C910580F08091EE022EE0829FC001D7
:103D30001124FC01E95EFE4F208122FD04C08E5E4D
:103D40009E4F0E94B71D08959093D3018093D20196
:103D500008959093F5028093F4020895E091F4029F
:103D6000F091F502309729F00190F081E02D09954E
:103D7000089580E008950E94AE1E0895E091F40237
:103D8000F091F502309799F020914E01222359F0DD
:103D90002091AE0427FF07C0DC012C9111962C93D3
:103DA000119726E02C930280F381E02D0995089568
:103DB000A3E0B0E0EEEDFEE10C94E5272091F202E5
:103DC0003091F30228173907A1F09093F302809302
:103DD000F202E091F402F091F502309751F023E005
:103DE00029839B838A830680F781E02DCE0101968B
:103DF00009952396E2E00C940128A3E0B0E0E3E00B
:103E0000FFE10C94E5272091F0023091F102281790
:103E10003907A1F09093F1028093F002E091F4024F
:103E2000F091F502309751F024E029839B838A8337
:103E30000680F781E02DCE01019609952396E2E0F8
:103E40000C940128FC01329680914E01882321F0C8
:103E50008091AE049EE187FF96E080E0915008F4E7
:103E6000089521912223D1F38F5FF8CF662301F1CA
:103E700020914E012223F1F02091AE0427FF1AC0B9
:103E8000462F4695469546954E3190F4677021E051
:103E900030E002C0220F331F6A95E2F7840F911DB4
:103EA000FC01828190E02823392381E0232B69F4EF
:103EB00080E00895FC01329608962191261721F0A2
:103EC000E817F907D1F7F4CF81E008959C01FC01D0
:103ED00032969FEF80E04191461751F09F3F19F4D1
:103EE000411101C0982F8F5F8630A9F79F3F09F4D9
:103EF0000895290F311D97FD3A95F90162830895C0
:103F0000FC01329608962191261303C0DF01119718
:103F10001C92E817F907B9F70895E62FE695E6959C
:103F2000E695EE3168F4E80FF92FF11D677021E096
:103F300030E001C0220F6A95EAF78281822B8283EA
:103F40000895E62FE695E695E695EE3170F4E80FD4
:103F5000F92FF11D677021E030E001C0220F6A9552
:103F6000EAF72095828128232283089520914E012B
:103F7000222339F02091AE0427FF03C00E948D1F39
:103F800008950E94661F089520914E01222339F062
:103F90002091AE0427FF03C00E94A11F08950E9434
:103FA000801F0895FC01329680914E01882351F0C4
:103FB0008091AE0487FF06C08EE1DF011D928A95D5
:103FC000E9F7089586E0F9CF08950E94E41F089567
:103FD000811106C081E08093F6020E94E51F0895DA
:103FE00082E0F9CF83E08093F6020E94E51F0895F6
:103FF0000E94E81F089581E08093F6020E94E51F69
:1040000008950E94FB1F089508950895CF930E947C
:1040100004200E94E2170E940520C0E08C2F0E941D
:104020000B17892B31F4CF5FC630C1F780E0CF91F9
:10403000089581E0FCCF85B7806885BF85B780682B
:1040400085BF08951F921FB61F9211248F939F93CF
:10405000AF93BF938091F702811113C08091CE047A
:104060009091CF04A091D004B091D1044196A11DAC
:10407000B11D8093CE049093CF04A093D004B0934D
:10408000D104BF91AF919F918F911F901FBE1F9040
:1040900018958091D604843031F10E94FE09109267
:1040A000F70288E190E020E40FB6F894A895809399
:1040B00060000FBE2093600083B7817F846083BF60
:1040C00083B7816083BF7894889583B78E7F83BFE1
:1040D0000FB6F894A8958091600088618093600085
:1040E000109260000FBE08950E94E20D0E94030A24
:1040F000089582E084BD93E095BD9AEF97BD8093CB
:104100006E0008952FB7F8948091CE049091CF045B
:10411000A091D004B091D1042FBF08952FB7F89487
:104120006091CE047091CF048091D0049091D1041D
:104130002FBF08959C014FB7F8948091CE049091C1
:10414000CF04A091D004B091D1044FBF821B930B38
:10415000089578941F921FB61F9211248F939F93F6
:10416000AF93BF938091CE049091CF04A091D004DF
:10417000B091D1040196A11DB11D8093CE049093FE
:10418000CF04A093D004B093D104BF91AF919F917D
:104190008F911F901FBE1F90189581E08093E000C3
:1041A00080E28093D8001092C9008FE19EE40197CD
:1041B000F1F700C0000087E090EBDC018093E3049E
:1041C0009093E404A093E504B093E60488E19CE0B6
:1041D0000FB6F894A895809360000FBE909360008E
:1041E000FFCF88E19CE00FB6F894A895809360001B
:1041F0000FBE90936000FFCF80911803089508953B
:104200009B01BA019091D6049430E9F48F708093A9
:10421000E9009FEF8091E800915085FD06C085ED93
:104220008A95F1F700009111F5CF8091E80085FFA4
:104230000AC050E040E0C9010E94FE228091E800DF
:104240008E778093E800089543E050E0BC0182E05F
:104250000E9400210895CF93DF93EC0180914E01DD
:10426000811111C048E050E0BE0181E00E940021B0
:1042700080E2FE01A8EFB2E001900D928A95E1F78D
:10428000DF91CF9108958091AE0487FF05C040E291
:1042900082E050E0BE01EACF48E081E0FACF8091B1
:1042A000D504811109C00E948E240E94EB248091C4
:1042B000E20084608093E20008951092D50408958E
:1042C0000E94FB1F08956091D20481E0611101C03A
:1042D00080E00E94F21F08959091D60481E094300E
:1042E00009F080E06091D2040E94F81F089542E036
:1042F00061EC81E00E940A2442E261EC82E00E94CB
:104300000A249091D60481E0943009F080E0609115
:10431000D2040E94E81F08958091D804833009F4E4
:1043200061C030F48130D1F1823009F49EC008952B
:104330008A3009F48AC08B3009F46FC0893009F0E3
:1043400050C08091D704813209F04BC08091DB04CA
:104350009091DC04029708F044C08091E800877FC8
:104360008093E8008091E80082FF37C09091F300CD
:104370008091F200029731F48091F100813011F0C8
:10438000863021F48091F100809318038091E80039
:104390008B778093E8000E943E2423C08091D7044D
:1043A000813AF9F48091E800877F8093E80080915A
:1043B000DB049091DC04892B61F460E288EF92E0E9
:1043C00070E00E944D238091E8008B778093E80095
:1043D000089560E090E080E0F3CF8091D6048111F1
:1043E000C1CF08958091D704813AD9F78091DB0439
:1043F0009091DC04892BA9F78091E800877F809356
:10440000E8008091E80080FFFCCF80914E0180930E
:10441000F1008091E8008E77BCCF8091D704813283
:1044200001F78091DB049091DC04892BD1F6809117
:10443000E800877F8093E8000E943E248091D904A1
:1044400080934E010E94E20D08958091D70481323D
:1044500041F68091E800877F8093E8000E943E2427
:104460008091DA048093190308958091D704813AEA
:1044700009F0B7CF8091E800877F8093E8008091B2
:10448000E80080FFFCCF80911903C1CF84B7877FFC
:1044900084BF0FB6F894A8958091600088618093DE
:1044A0006000109260000FBE80E890E00FB6F894B4
:1044B00080936100909361000FBE0E9401200895D7
:1044C0000E948E240E94EB24E2EEF0E08081846062
:1044D000808378940E946A27089586E491E00E9480
:1044E000A91E08958091D604853031F48091D604B8
:1044F000853019F00E94742008950E94492080910F
:10450000D404882399F30E940620882379F30E941B
:10451000E8220E94E20DEACF08950E9490220895B9
:10452000292F33272330310519F168F42130310563
:1045300009F444C02230310509F445C090E080E020
:1045400030E020E025C02132310549F12232310529
:10455000A9F780E490E027E336E061157105C1F02A
:104560008DE690E02AEC35E06130710589F0E6CF08
:1045700099278130910581F0009729F00297F1F693
:10458000E1E5F5E002C0E9E7F5E0849190E09F0104
:10459000FA01318320830895E1E6F5E0F6CF89E062
:1045A00090E02FE835E06115710591F389E090E026
:1045B00028EA35E06130710559F3C0CF82E190E01F
:1045C00028EB35E0E5CF8BE390E02DE735E0E0CF59
:1045D00080E189BD82E189BD09B400FEFDCF8091F3
:1045E000D8008F7D8093D8008091E0008260809316
:1045F000E0008091E00081FDFCCF0895AF92BF9272
:10460000CF92DF92FF920F931F93CF93DF936C01B2
:10461000EB018A010E945D24F82E811123C001154F
:10462000110539F0F80180819181C81BD90BC80EA2
:10463000D91EB12CA12C2097A9F08091E80085FD0E
:1046400022C08091E8008E778093E8000115110563
:10465000A1F0F80180819181A80EB91EB182A082DB
:1046600085E0F82E8F2DDF91CF911F910F91FF9054
:10467000DF90CF90BF90AF9008950E945D24882373
:10468000D1F2F82EEFCFF60181916F018093F10006
:104690002197FFEFAF1ABF0ACECFFC018091DD0456
:1046A0009091DE0486179707A0F06115710529F433
:1046B0009091E8009E779093E80090E06115710575
:1046C00051F4911108C08091E80082FF34C080E06D
:1046D0000895BC01F2CF8091D6048823C1F18530C2
:1046E000C1F18091E80083FD30C08091E80082FD37
:1046F000EACF8091E80080FFE1CF8091F300209124
:10470000F200382F6115710519F02830310558F085
:1047100091E02830310509F090E02091E8002E77F3
:104720002093E800CBCF81918093F1006150710913
:104730002F5F3F4FE7CF8091D604882341F085302B
:1047400041F08091E80083FFBECF81E0089582E0D0
:10475000089583E00895FC018091DD049091DE04CA
:1047600086179707A0F06115710529F48091E8007C
:104770008E778093E80090E06115710551F49111F6
:1047800008C08091E80082FF35C080E00895BC0138
:10479000F2CF8091D6048823C9F18530C9F1809188
:1047A000E80083FD31C08091E80082FDEACF80916E
:1047B000E80080FFE1CF8091F3002091F200382FD4
:1047C0006115710519F02830310558F091E0283055
:1047D000310509F090E08091E8008E778093E80041
:1047E000CBCF84918093F1003196615071092F5F96
:1047F0003F4FE6CF8091D604882341F0853041F0C9
:104800008091E80083FFBDCF81E0089582E00895A4
:1048100083E00895982F973028F08F708093E900F7
:1048200081E008959093E900242F762F50E09817A7
:1048300031F07091EC002091ED005091F00021FDDD
:1048400002C09F5FE8CF3091EB003E7F3093EB00DA
:104850003091ED003D7F3093ED003091EB00316001
:104860003093EB007093EC002093ED005093F00038
:104870002091EE0027FDE5CF80E008958091D704D8
:1048800087FF13C08091E80082FF06C08091E80096
:104890008B778093E80004C08091D6048111F2CF19
:1048A00008958091D6048823D9F38091E80080FF91
:1048B000F8CF8091E8008E77ECCF2091E400309122
:1048C000E50095E6A9012091EC00822F817020FF80
:1048D00006C08091E80080FF06C080E00895209126
:1048E000E80022FD1AC08091D604882389F0853023
:1048F00089F08091EB0085FD0FC02091E40030919C
:10490000E50042175307F9F29150E1F684E008956B
:1049100082E0089583E0089581E008950E94FD24D7
:104920000E940525E0EEF0E0808181608083E8ED63
:10493000F0E080818F77808319BCA7EDB0E08C9187
:104940008E7F8C9380818F7E80831092D504089512
:104950000F931F93CF93DF930E94FD240E940525A0
:10496000C8EDD0E088818F778883888180688883CC
:1049700088818F7D888319BC1092D6041092D2044E
:104980001092D4041092D30400EE10E0F80180815C
:104990008B7F808388818160888342E060E080E053
:1049A0000E940A24E1EEF0E080818E7F8083E2EEB7
:1049B000F0E0808181608083808188608083F8015D
:1049C00080818E7F8083888180618883DF91CF9111
:1049D0001F910F910895E8EDF0E080818F7E808334
:1049E000E7EDF0E080818160808384E082BF81E038
:1049F0008093D5040E94A8240895E8EDF0E080811A
:104A00008E7F80831092E20008951092DA00109257
:104A1000E10008951F920F920FB60F9211242F9369
:104A20003F934F935F936F937F938F939F93AF9336
:104A3000BF93EF93FF938091E10082FF0BC08091C1
:104A4000E20082FF07C08091E1008B7F8093E1004C
:104A50000E9469278091DA0080FF19C08091D800F8
:104A600080FF15C08091DA008E7F8093DA008091FC
:104A7000D90080FF96C080E189BD82E189BD09B47B
:104A800000FEFDCF81E08093D6040E944F218091EB
:104A9000E10080FF19C08091E20080FF15C0809185
:104AA000E2008E7F8093E2008091E200806180933B
:104AB000E2008091D80080628093D80019BC85E024
:104AC0008093D6040E9463218091E10084FF2BC073
:104AD0008091E20084FF27C080E189BD82E189BD29
:104AE00089B5982F917080FFFBCF8091D8008F7D82
:104AF0008093D8008091E1008F7E8093E1008091C7
:104B0000E2008F7E8093E2008091E20081608093DA
:104B1000E2008091D204882309F449C084E08093A4
:104B2000D6040E946C218091E10083FF29C080910E
:104B3000E20083FF25C08091E100877F8093E10040
:104B400082E08093D6041092D2048091E1008E7F9F
:104B50008093E1008091E2008E7F8093E20080915B
:104B6000E20080618093E20042E060E080E00E9429
:104B70000A248091F00088608093F0000E946021F8
:104B8000FF91EF91BF91AF919F918F917F916F9125
:104B90005F914F913F912F910F900FBE0F901F90FB
:104BA000189519BC1092D6040E945D2170CF809197
:104BB000E30087FD93E09093D604B3CF1F920F924A
:104BC0000FB60F9211242F933F934F935F936F93E0
:104BD0007F938F939F93AF93BF93CF93DF93EF9385
:104BE000FF93D091E900DF708091EC00C82FC17075
:104BF00080FDC0E81092E9008091F000877F8093EB
:104C0000F00078940E9422261092E9008091F00032
:104C100088608093F000CD2BCF70C093E900FF91A6
:104C2000EF91DF91CF91BF91AF919F918F917F9144
:104C30006F915F914F913F912F910F900FBE0F9009
:104C40001F901895AAE2B0E0E8E2F6E20C94E4279F
:104C500087ED94E02091F100FC012193CF01F4E075
:104C60008F3D9F07B9F70E948C218091E80083FF58
:104C70001EC18091D7049091D8049A3008F017C1D2
:104C8000E92FF0E0EE58F54D0C94CF27803899F0DD
:104C9000823809F00CC18091DB048F70873008F0F6
:104CA00006C18093E9008091EB0085FB882780F99D
:104CB0001092E90006C08091D3049091D404911120
:104CC00082609091E800977F9093E8008093F100D4
:104CD0001092F1008091E8008E77E5C0882309F4F6
:104CE000D3C0823009F0E3C08091D9048111D6C0CD
:104CF0008091DB048F702FEF280F263008F0D7C08B
:104D00008093E9002091EB0020FFC8C0933031F47C
:104D10008091EB0080628093EB00C0C09091EB002B
:104D200090619093EB0021E030E001C0220F8A9562
:104D3000EAF72093EA001092EA008091EB00886085
:104D4000EACF8111B4C01091D9041F778091E3009C
:104D50008078812B8093E3008091E800877F8093A7
:104D6000E8000E943E248091E80080FFFCCF809103
:104D7000E30080688093E30082E0111183E0809378
:104D8000D60495C08058823008F091C08091D90433
:104D90009091DA048C3D23E09207A1F583E08A83A9
:104DA0008AE289834FB7F894DE01139620E03EE053
:104DB00051E2E32FF0E050935700E49120FF03C04D
:104DC000E295EF703F5FEF708E2F90E0EA30C0F019
:104DD000C7968D939D932F5F243159F74FBF8091D4
:104DE000E800877F8093E8006AE270E0CE010196D8
:104DF0000E944D238091E8008B778093E80057C094
:104E0000C096E7CF6091DB047091DC04AE014F5F88
:104E10005F4F0E948D22BC01892B09F448C09091FC
:104E2000E800977F9093E80089819A810E94AB23E4
:104E3000E1CF8038E1F58091E800877F8093E8003A
:104E40008091D2048093F10045CF811130C09091C0
:104E5000D904923060F58091E800877F8093E80064
:104E60009093D2040E943E248091D204882311F0B2
:104E700084E005C08091E30087FDFACF81E0809354
:104E8000D6040E94772113C08091D904813079F42F
:104E900081E0933009F080E08093D4041092E9001F
:104EA0008091E800877F8093E8000E943E248091F3
:104EB000E80083FF0AC08091E800877F8093E800C4
:104EC0008091EB0080628093EB00AA96E3E00C9463
:104ED00000280895CF938091D6048823A1F0C09133
:104EE000E900CF709091EC00892F817090FD80E8EF
:104EF000C82B1092E9008091E80083FD0E942226D1
:104F0000CF70C093E900CF910895AA1BBB1B51E15C
:104F100007C0AA1FBB1FA617B70710F0A61BB70B29
:104F2000881F991F5A95A9F780959095BC01CD01CE
:104F3000089597FB072E16F4009407D077FD09D04B
:104F40000E94852707FC05D03EF4909581959F4FE0
:104F50000895709561957F4F0895A1E21A2EAA1BBE
:104F6000BB1BFD010DC0AA1FBB1FEE1FFF1FA21719
:104F7000B307E407F50720F0A21BB30BE40BF50B16
:104F8000661F771F881F991F1A9469F7609570959F
:104F9000809590959B01AC01BD01CF010895EE0F66
:104FA000FF1F0590F491E02D09942F923F924F92AC
:104FB0005F926F927F928F929F92AF92BF92CF92A9
:104FC000DF92EF92FF920F931F93CF93DF93CDB7B2
:104FD000DEB7CA1BDB0B0FB6F894DEBF0FBECDBF2A
:104FE00009942A88398848885F846E847D848C84FB
:104FF0009B84AA84B984C884DF80EE80FD800C8104
:105000001B81AA81B981CE0FD11D0FB6F894DEBFE6
:105010000FBECDBFED0108950F931F93CF93DF9384
:105020008230910510F482E090E0E091E104F0918B
:10503000E20430E020E0B0E0A0E0309799F42115E0
:10504000310509F447C0281B390B24303105C0F560
:105050008A819B816115710571F1FB0193838283C4
:10506000FE0111C040815181028113814817590707
:10507000F8F04817590799F4109761F012960C93BD
:10508000129713961C933296CF01DF91CF911F9107
:105090000F9108950093E1041093E204F4CF2115D9
:1050A000310519F04217530718F49A01BD01EF01B9
:1050B000DF01F801C2CF9093E2048093E104D0CFE6
:1050C000FE01E20FF31F819391932250310939833E
:1050D0002883DACF2091DF043091E004232B41F4C0
:1050E00020910201309103013093E0042093DF040A
:1050F00020910001309101012115310541F42DB7B6
:105100003EB74091040150910501241B350B40919D
:10511000DF045091E0044217530708F0B5CF241B79
:10512000350B2817390708F4AFCFBC016E5F7F4FEE
:105130002617370708F4A8CF640F751F7093E00493
:105140006093DF04FA01819391939ECFCF93DF9315
:105150000097E9F0FC01329713821282C091E104BA
:10516000D091E204DE0130E020E02097A1F420811C
:105170003181820F931F2091DF043091E0042817C2
:10518000390709F067C0F093E004E093DF04DF9192
:10519000CF910895DA01AE17BF0708F040C012960C
:1051A0004D915C9113979D014115510599F7D901D6
:1051B0001396FC93EE9312974D915D91A40FB51F3A
:1051C000EA17FB0779F4808191810296840F951F7D
:1051D000D90111969C938E938281938113969C930F
:1051E0008E931297B0E0A0E08A819B810097B9F579
:1051F000FE0181919191E80FF91F8091DF04909158
:10520000E0048E179F0719F6109761F51092E204DB
:105210001092E104D093E004C093DF04B8CFB383CD
:10522000A28340815181840F951FA817B90771F49B
:105230004E5F5F4F8D919C911197480F591F51837D
:10524000408312968D919C91938382832115310521
:1052500009F0ADCFF093E204E093E10498CFDE01D2
:10526000EC01C2CF13961C921E921297D3CF8F924D
:105270009F92AF92BF92CF92DF92EF92FF92CF9325
:10528000DF93EC01688179818A819B8161157105C9
:105290008105910521F464E279ED8BE597E02DE13C
:1052A00033EF41E050E00E94F22949015A019B018D
:1052B000AC01A7EAB1E40E94112A6B017C01ACEEBB
:1052C000B4EFA50194010E941F2ADC01CB018C0DD3
:1052D0009D1DAE1DBF1DB7FF03C00197A109B048BA
:1052E00088839983AA83BB839F77DF91CF91FF90B7
:1052F000EF90DF90CF90BF90AF909F908F900895E8
:105300000E943729089586E091E00E943729089588
:10531000B0E0A0E08093060190930701A0930801FC
:10532000B09309010895FB01DC0104C08D91019047
:10533000801921F441505040C8F7881B990B0895FB
:10534000DC01CB01FC01F999FECF06C0F2BDE1BD45
:10535000F89A319600B40D9241505040B8F7089534
:10536000F999FECF92BD81BDF89A992780B508952D
:10537000A8E1B0E042E050E00C94A229DC01A40FC7
:10538000B51F4150504048F0CB01840F951F2E911E
:105390000E94CF2941505040D0F70895262FF99907
:1053A000FECF92BD81BDF89A019700B4021639F084
:1053B0001FBA20BD0FB6F894FA9AF99A0FBE089555
:1053C0000396272F0E94CF290E94CE29252F0E94C5
:1053D000CF29242F0C94CF290196272F0E94CF2963
:1053E0000C94CE29052E97FB1EF400940E94092AE6
:1053F00057FD07D00E94AD2707FC03D04EF40C9454
:10540000092A50954095309521953F4F4F4F5F4F5A
:10541000089590958095709561957F4F8F4F9F4F20
:1054200008950E94242AA59F900DB49F900DA49FDB
:10543000800D911D11240895B7FF0C94112A0E942C
:10544000112A821B930B0895A29FB001B39FC00144
:10545000A39F700D811D1124911DB29F700D811DA0
:105460001124911D0895F894FFCFC90BC90BFA0BB5
:10547000FA0B8C0C290C290C290CA80C190D280DE1
:10548000280D77197B1989198D198F19911993197D
:105490009519771BEB1B7F1B491B4D1B831B511B56
:1054A000871B931B5D1BE41B611B971B651B9B1BD1
:1054B000C31B691B9F1BCA1B6F1BA51BAD1B551B69
:1054C0008B1B591B8F1B731BA91BB91BD31BE21B07
:1054D000431B7B1BF21B761D7C1D651D701D821DF1
:1054E000881D8E1D46266E2657276E265727A12615
:0854F000C226572719272527C2
:1054F8000000E704200001000000FF0000FF010099
:1055080000FF000000000000000000000000000094
:10551800000000000000DC1DED1DF31D400100002F
:1055280000000000DC1DED1DF31D3C01AE00000075
:10553800AE000100A702FC202B21FF20242101E25C
:1055480000E900EA00B500B600B700CD008301CC41
:10555800008A0192019401210223022402250226D5
:105568000227022A02B300B4006F0070009F01CB2B
:1055780001818283E200E900EA00B500B600B700C5
:10558800CD008301CC008A019201940121022302FB
:1055980024022502260227022A02B300B4006F0063
:1055A80070009F01CB01818283F59531323393924C
:1055B800676636353497963794F1F0C6F4F6F700F7
:0255C8000400DD
:00000001FF
