:100000000C94BC030C94F4030C94F4030C94F403CC
:100010000C94F4030C94F4030C94F4030C94F40384
:100020000C94F4030C94F4030C9429320C94FD32D8
:100030000C94F4030C94F4030C94F4030C94F40364
:100040000C94F4030C94F4030C94F4030C94F40354
:100050000C94F4030C94EA2C0C94F4030C94F40325
:100060000C94F4030C94F4030C94F4030C94F40334
:100070000C94F4030C94F4030C94F4030C94F40324
:100080000C94F4030C94F4030C94F4030C94F40314
:100090000C94F4030C94F4030C94F4030C94F40304
:1000A0000C94F4030C94F4030C94F40329001E0044
:1000B0001F0020002100220023002400250026002C
:1000C00027002D002E0031002B0014001A0008001C
:1000D000150017001C0018000C00120013002F0060
:1000E00030002A00E00004001600070009000A00A2
:1000F0000B000D000E000F003300340028004C00F0
:10010000E10000001D001B000600190005001100A1
:100110001000360037003800E500105F0000E300F3
:10012000E20000000000000000002C0000000000C1
:100130000000E600115F000035003A003B003C0083
:100140003D003E003F0040004100420043004400AB
:1001500045004900390001000100010001000100D3
:100160000100010046004700480052000100010064
:100170000100AA00A900A800B00001005500540029
:100180004A004B0050004F0001004C0001000000ED
:1001900001000100010001000100570056004D0060
:1001A0004E005100010001000100010001000000AB
:1001B000000000000000010000000000000001003D
:1001C0000100010001000100010001000100010027
:1001D0000100010001000100010001000100010017
:1001E0000100010001000100010001000100010007
:1001F00001000100010001000100010001000100F7
:1002000001000100010001000100010001000100E6
:1002100001000100010001000100000001000100D7
:1002200001000100010001000100010001000100C6
:1002300001000100010001000100000000000000B9
:1002400000000100000000000000010001000100AA
:100250000100035F025F075F065F0B5F0A5F01003B
:10026000010001000100015F005F010001000100C9
:100270000100095F085F0D5F0C5F010001000100D4
:100280000100055F045F01000100010001000100A1
:100290000100010001000100010001000100010056
:1002A0000100010001000000010001000100010047
:1002B0000100010001000100010001000100010036
:1002C000010001000100000000000000000001002A
:1002D000000000000000010001000100FD377A5815
:1002E0005A000004E6D6B4460200210116000000C0
:1002F000742FE5A3E004E001945D003D8889C654B5
:1003000036C3174FE4FC5457B62529ADCB459BD3D4
:1003100008DA8AB9AE85751C9C2554E43AF8C814ED
:100320001D9E611D33209F8FFED941BE95890057C8
:100330003007BD464FF042FA7FB73EA620F7C965A9
:10034000C1D3D2F9A11B6344A7EB68530C63A54248
:10035000C5769D4D725A50AA6A683FEBB750DDD7FB
:100360004BD59E3C1F2B050CFEF26C9B83D148A302
:100370002145FE016ABF43E22BCBF21459AFB665AB
:1003800045FABCC067E4E01551ACA275A959A4595F
:100390002CB64F3BCC5EDD1AA914A007C40F4AD679
:1003A000DCBF1D2B7A46F8D3CD2FAAC32E4D68B1E2
:1003B000DDEE4307B3E77CF99DB3F8EC28B1EDFC23
:1003C000DD7A0C09063746DEEADEFC8574544755B3
:1003D0004AE05A15DEF34F7A3EA453110403EBA70B
:1003E000F996E65FAE37C8E7A9278530E09C1CAEDA
:1003F000EFAD068BE7FF101B7253E10E5D3CB4F0CE
:1004000016013378A657BA3048CD205A514F48A725
:100410008C097D0609370B185163AC585AEEFCF86D
:1004200010FEC84A1496DF29021E11A2D0B513840B
:10043000D115ED4D8D53EE7A7C7040B3D01FC0DCEA
:100440003F490C9942EB5D0F65A4A81E8E6BEACF65
:10045000D94D5F3EEF6E090C432074A9125C2D4408
:1004600092A30EB924AE6EB177725CDEE3FD5E93AB
:10047000B12176F157243C0834ECA6E26BA2776FE9
:10048000B72E7AA1B3B79D19487B672991F44E0026
:10049000F4F9C04328FFFED30001B003E1090000D6
:1004A000AAA02DFFB1C467FB020000000004595A46
:1004B00001000100260439206B2000000200020028
:1004C000220439206B20000003000100270439209A
:1004D0006B200000040002000C0439206B20322045
:1004E00005000100280439206B20000006000200EE
:1004F0000E0439206B20000007000200240439207C
:100500006B20000008000100290439206B20000046
:10051000120002002A0439206B20000013000200A0
:100520002C0439206B200000140001002E04392017
:100530006B2000001500000000003F1FB91F0000E5
:1005400000000000000000002A2B2800000000002E
:100550000000000000000000000000290000000072
:100560002C1E3420212224342627252E362D3738E0
:10057000271E1F202122232425263333362E3738E9
:100580001F0405060708090A0B0C0D0E0F101112A7
:10059000131415161718191A1B1C1D2F3130232D73
:1005A000350405060708090A0B0C0D0E0F10111271
:1005B000131415161718191A1B1C1D2F3130354C22
:1005C000000000000000000000000000000000002B
:1005D000000000000000000000000000000000001B
:1005E000000000007E0F00D4FFFFFFC7000000786E
:1005F0001C037600690061006C003A00660036005A
:100600003400630032006200330063000000100316
:1006100057005400360030002D0042005800000002
:100620001603770069006C00620061002E00740000
:1006300065006300680000000403090409025B0010
:10064000030100A0FA0904000001030101000921CF
:10065000110100012240000705810308000109047F
:100660000100020300000009211101000122220003
:100670000705820320000107050303200001090488
:1006800002000103000000092111010001226D0098
:100690000705840320000112010002000000088207
:1006A00065B1600100010203010660FF0961A1015B
:1006B0000962150026FF009520750881020963155F
:1006C0000026FF00952075089102C005010980A150
:1006D00001850319012AB700150126B70095017598
:1006E000108100C0050C0901A101850419012AA08F
:1006F00002150126A002950175108100C0050109AF
:1007000006A1018506050719E029E71500250195D1
:1007100008750181020507190029EF1500250195CB
:10072000F0750181020508190129059505750191EA
:1007300002950175039101C005010906A101050794
:1007400019E029E715002501950875018102950139
:10075000750881010507190029FF150026FF00957E
:10076000067508810005081901290595057501918F
:1007700002950175039101C011241FBECFEFDAE08D
:10078000DEBFCDBF04B603FE18C080914504909132
:100790004604A0914704B09148048730904BA7408D
:1007A000B04B59F41092450410924604109247043D
:1007B00010924804E0E0F8E3099511E0A0E0B1E010
:1007C000E2E7FDE602C005900D92A83AB107D9F71D
:1007D00024E0A8EAB1E001C01D92A534B207E1F718
:1007E0000E944A160C9493360C9400000E94BF108D
:1007F00008950E94521408950E9453140895CF93AF
:1008000080312FE5920741F08131EFE59E07A1F09D
:100810000E949C04C82F0DC0FB01C28181E0CC2343
:1008200079F00E94B40A43E062E081E00E9403058F
:10083000C0E08C2FCF910895FB01C28182E0EFCF01
:100840000E94C00A43E062E081E00E940305F1CF0C
:100850000E94B2050895089508952FEFFC012083AA
:10086000089584E008959C013A9521153F4150F583
:10087000FC01EE27F170BC0166277270AC014427C1
:1008800054709C012227387094FF0EC080E1EF2B3A
:1008900009F480E0672B09F08062452B09F0806441
:1008A000232B89F08068089581E0EF2B09F480E024
:1008B000672B09F08260452B09F08460232B19F027
:1008C0008860089580E00895CF93DF93EB010E9444
:1008D0003304FE010995DF91CF910895CF93DF9303
:1008E000EC01805E9109089720F06CE577E0209795
:1008F00011F46EE477E0CE010E9464048C2F0E9414
:100900004F06DF91CF910895CF93DF93EC010E94C2
:10091000D806CE01805E9109089720F063E677E063
:10092000209711F465E577E0CE010E946404DF9121
:10093000CF91089581E0089581E0089508950E947F
:100940009E040895A5E0B0E0E8EAF4E00C94C03419
:1009500049835A833091AF0189819A81311119C03D
:10096000662399F0222389F00E94640B182F682FC8
:1009700089819A810E94400B69817A81812F0E942E
:100980000F1E2596E3E00C94DC340E94520B182FC6
:10099000F3CF0E94640B69817A81F1CFFC01262F8D
:1009A000408151816281738184810E94A2040895F3
:1009B00081E00895CF93DF93EC0160E00E94CE04C4
:1009C000BE010E949F04DF91CF910895E1E0F0E025
:1009D000DF0102C0AA0FBB1F6A95E2F7BD01DF016C
:1009E00002C0AA0FBB1F4A95E2F76A2B01C0EE0FA7
:1009F0002A95EAF7962F9823961302C08E2B089516
:100A0000E0958E230895242F462F682F8091CD01E5
:100A10000E94E6040E94A00A08950E94F903089526
:100A20000E94FC03089508950E947C070E9413050C
:100A30002FEF84E39CE0215080409040E1F700C01C
:100A4000000008950E9414050E940E2D08950E9432
:100A500014050E94322D08950F931F93CF93DF93B7
:100A6000EC018B010E94812AB801CE010E94BB16C5
:100A7000811106C080E0DF91CF911F910F91089501
:100A8000B801CE010E94F11B8823A1F3B801CE0169
:100A90000E94FF03882371F3B801CE010E94D22780
:100AA000882341F3B801CE010E94A22A882311F3C2
:100AB000B801CE010E9441258823E1F2B801CE01A0
:100AC0000E94F0298823B1F2B801CE010E94A8212A
:100AD000882381F2B801CE010E947326882351F247
:100AE000F8018281882361F0CA35FDE5DF0701F155
:100AF00058F4C115ECE5DE0791F0CE3DDC4591F0F0
:100B0000C8010E949A04B7CFCC358DE5D80769F0AB
:100B100090F0C73ADD45A1F70E942705ABCF0E94B0
:100B20002205A8CF0E946C11F7CF0E94A610E8CF33
:100B30000E94B010E5CF0E94B410E2CFCF93DF93B4
:100B4000EC0161E00E94CE04BE010E942C05DF9101
:100B5000CF9108950E942B0408950E94C2050E941F
:100B60002C040895089581E008950E94B305089526
:100B70000895CF93C82F0E9428048C2F0E94B5059A
:100B8000CF9108950E943F2B0E94B9050895CF93FD
:100B90000E943F2BC82F8091AA018C1779F0C09337
:100BA000AA010E94B32C6093AB017093AC018093B7
:100BB000AD019093AE018C2F0E94B905CF9108959D
:100BC000019708F40895EFE9FFE03197F1F700C0CD
:100BD0000000F6CFABE0B0E0E0EFF5E00C94C134FC
:100BE0004F83588769877A878B878A859B85892B6E
:100BF00029F0CA0189238F3F09F041C089858111FD
:100C00000E949F0F1E821D8285E0FE013796DE0145
:100C1000119601900D928A95E1F78091F50382FF7C
:100C200012C080910E0490910F04892B61F00E94F4
:100C30005B0F882319F082E00E9475100E94370F25
:100C400081110E94D90F8C819D81892B61F449818A
:100C50005A816B817C818D819E810E948E0E2B96A4
:100C6000E2E00C94DD3489819A8189238F3F79F306
:100C7000CE0101960E94D8048111E9CFF0CF809176
:100C8000B0019091B10101969093B1018093B001B0
:100C9000B5CFFC01808191810E94910B0895CF9383
:100CA000C82F8823C9F08238C9F40E943F2B81FDE8
:100CB00013C089E30E941D0F0E94E70F2FEF87EEFC
:100CC00093E0215080409040E1F700C0000089E3AC
:100CD0000E94250F0E94E70FCF9108958338A1F459
:100CE0000E943F2B80FDF8CF83E50E941D0F0E94DC
:100CF000E70F2FEF81EE94E0215080409040E1F724
:100D000000C0000083E5E4CF8438A1F40E943F2BAB
:100D100082FDE2CF87E40E941D0F0E94E70F2FEFB4
:100D200081EE94E0215080409040E1F700C0000047
:100D300087E4CECF8CEF8C0F813A90F46C2F8091AA
:100D40000601909107010E94A62B882329F08C2F81
:100D50000E94250F0E94E70F8C2F0E941D0FBACF13
:100D600080E28C0F883048F4C77081E001C0880FA2
:100D7000CA95EAF70E947F0FADCFEBE5EC0FE330A9
:100D800040F4F0E0EF5AFE4F808190E00E94662B25
:100D9000A3CFC85AC73108F09FCFEC2FF0E0EE0F79
:100DA000FF1FED5DFE4F808191810E947C2B94CFCF
:100DB000882309F44DC0823879F40E943F2B81FFCB
:100DC00047C089E30E941D0F0E94E70F89E30E943C
:100DD000250F0E94E70F0895833859F40E943F2B96
:100DE00080FF36C083E50E941D0F0E94E70F83E558
:100DF000EECF843859F40E943F2B82FF29C087E44C
:100E00000E941D0F0E94E70F87E4E1CF9CEF980F2F
:100E1000913AE8F290E2980F983050F4877091E0A0
:100E200001C0990F8A95EAF7892F0E94850FD1CFCB
:100E30009BE5980F933028F490E080E00E94662BA9
:100E40000895885A873120F490E080E00E947C2B3E
:100E500008951F93CF93DF93182FEB010E944F0645
:100E6000209739F4812F0E94D806DF91CF911F91EE
:100E700008958FE99FE00197F1F700C000002197E6
:100E8000EFCF60912C0470912D04893321F0609193
:100E90002A0470912B040E9429070895882321F0C9
:100EA0000E947F0F0E94E70F0895882321F00E947F
:100EB000850F0E94E70F0895882321F00E94920F6A
:100EC0000E94E70F0895882321F00E94980F0E9446
:100ED000E70F089590E080E00E94662B90E080E0AC
:100EE0000E947C2B0E949F0F0E94E70F08950E9492
:100EF0002D0F0E946A0708950E948C0F0E947707A9
:100F0000089592959F70963091F058F4925F9F707B
:100F1000923058F4803F19F030F4883E30F481E08C
:100F200008959A5FF4CF843FD1F380E00895883E1E
:100F3000B0F3813FD1F7F3CFFC0183819481892BFA
:100F400029F08081918189238F3F11F480E00895F9
:100F5000808191810E94910B0E9481070895B0E0E9
:100F6000A0E0E5EBF7E00C94BA346C01EB01FC0176
:100F70000281158112951F700E94750FE82E88233B
:100F8000B9F0E02E0023A1F08D2F807F803421F076
:100F900080E28C0F8830D0F08091F50382FF16C07C
:100FA00082E00E9475100E94750F91E0E82EE926FC
:100FB000BD2EB2942FE0B222FBE0FB1508F47CC0FA
:100FC000EB2DF0E0EB56F94C0C94A434E12CF0CF6F
:100FD0002D2F2F70F22E8D2F807F19F0F29490EF2D
:100FE000F922002399F0FF2059F080E28C0F88301D
:100FF00010F0C11107C08F2D0E947F0F0E94E70FD4
:101000008C2F52C08F2D0E94920FF8CF8C2F0E94F0
:10101000D806FF2009F450C080E28C0F883010F011
:10102000C11104C08F2D0E94850F03C08F2D0E9417
:10103000980F0E94E70F40C03D2F3F70F32E8D2F79
:10104000807F803219F0F29480EFF822CC23F1F007
:10105000C13009F49FC0002309F4A8C0112309F48A
:1010600074C020E0F60140815181628173818481E6
:101070000E94A204B6010E9462218111C1CFF60133
:10108000858180FFBDCF8F7085835FC08091F50320
:1010900082FD3CC0002359F0FF2029F08F2D0E94D3
:1010A0007F0F0E94E70F80E00E944F0605C080E09E
:1010B0000E94D806F110B6CFEB2DE850FF0B349705
:1010C00020F40E943F2B0E94B905CE010E948107A7
:1010D000811198C11092B1011092B001EE2089F0F7
:1010E0000E94570F80FD0DC0F60112820E94510F21
:1010F0000E94B40AC6010E943B0A0E94510F0E943E
:10110000C00ACDB7DEB7E9E00C94D6340023F9F07D
:10111000111106C00E94AE0F8F290E944E07CCCF3E
:10112000113031F40E94AE0F8F290E94C20FC4CF3C
:1011300080912804823070F38113ECCF0E94D90F84
:101140000E94340F8F290E94B50F8F2DE6CF111109
:1011500003C00E94D90F15C0809128041130A9F452
:10116000823008F4A9CF0E947C0F8F2109F4A4CF0C
:101170000E94D90F0E94340F9F2D909589230E94C1
:10118000B50F8F2D0E94550797CF823010F318139B
:10119000E0CF92CF80912E04002321F0811708F434
:1011A0008BCFD3CF181708F087CFEBCF112349F39C
:1011B00080912C0490912D04C93321F080912A0450
:1011C00090912B040E94E0058C2F0E94D80674CFCA
:1011D0008D2F86958695837061F0813009F06CCFF4
:1011E000CE019370011102C090E080E00E947C2B40
:1011F00063CFCE019370011102C090E080E00E94A5
:10120000662B5ACF8D2F837081F5011155CF4C2F4E
:10121000429546954770440F440F8C2F8F70042ED3
:1012200001C0880F0A94EAF72C2F2071C4FF07C071
:101230002FE030E001C0220F4A95EAF720959D2F5C
:10124000969596959370822B923049F058F4913090
:1012500019F00E948E0A30CF0E94880A2DCF0E947A
:10126000940A2ACF0E94850A27CF8695002311F081
:101270008D2F8170882309F41FCF4C2F42954695FE
:101280004770440F440F8C2F8F70042E01C0880FBD
:101290000A94EAF72C2F2071C4FF07C02FE030E03A
:1012A00001C0220F4A95EAF720959D2F96959695B5
:1012B0009370822B923049F058F4913019F00E94CB
:1012C000DF0AFACE0E94D90AF7CE0E94E50AF4CED0
:1012D0000E94A00AF1CEFD2FFF70FF2E002329F0FF
:1012E0008F2F0E94B40A8C2F18CF8C2F0E94550785
:1012F0008F2D0E94C00AE0CEC23F51F160F4C03F82
:10130000B9F0C13F81F0002309F477C0111178CE04
:101310008D2F8F7121C0C33F11F1C43FA1F7809180
:10132000F50382FD26C08D2F8F71002311F314C0A9
:1013300080912E04002341F0181708F0BDCE8D2FA8
:101340008F710E94CD0AB8CE811708F4B5CEF7CFC1
:101350008D2F8F710111CDCF0E94B40AADCE002325
:1013600029F08D2F8F710E94AB0AA6CE0E94A70A8A
:10137000A3CE80912804823048F10023D9F00E9446
:10138000570F843041F40E946B108D2F8F710E9493
:10139000C00AE12C91CE809128041817D0F72D2F88
:1013A0002F71F22E822F0E94B40A63E08F2D0E94CB
:1013B0004D10EFCF181730F00E946B1064E08D2FA6
:1013C0008F71F5CF81E00E947510E3CF002359F0B3
:1013D0003D2F3F71F32E832F0E94B40A63E08F2DBF
:1013E0000E944D1069CE81E00E947510123008F401
:1013F00063CE82E00E9475105FCE1111D9CE8D2F81
:101400008F7177CF002319F0111164CE67CE1111BF
:1014100061CE20E0F6014081518162817381848137
:101420000E94A204B6010E946D21882309F452CEC5
:101430008091B0019091B101029709F04BCE8C2FB1
:101440000E94410747CE0F931F93CF93DF93EC0188
:10145000688179818A810E949C0B8C010E94EB0A31
:101460000E94840AB801CE010E94AF07DF91CF919C
:101470001F910F910895CF93DF93EC018B819C8195
:10148000892B29F08881998189238F3F51F4DF913D
:10149000CF910895CE010E94230ACE010E94DA0462
:1014A000F6CFCE010E949E058111F4CF0E94750FE8
:1014B000882369F38A81882351F38091F50382FFA1
:1014C000E6CF82E00E947510E2CFA5E0B0E0EBE647
:1014D000FAE00C94C1342596E2E00C94DD34A6E0E9
:1014E000B0E0E5E7FAE00C94C1342696E2E00C9413
:1014F000DD3408950E94790A08950E947A0A809343
:10150000CE010E946A07089508950E947D0A0895F9
:101510009091CE01892B0E947D0A08959091CE0171
:1015200089230E947D0A08959091CE0189270E9407
:101530007D0A08950E94790A08950E949A0A0895E2
:101540000E949D0A8093CD010E946A07089580E061
:101550000E94A00A089591E001C0990F8A95EAF7C8
:10156000892F0E94A00A089521E030E001C0220FD7
:101570008A95EAF78091CD01822B0E94A00A0895F6
:1015800021E030E001C0220F8A95EAF72095809192
:10159000CD0182230E94A00A089521E030E001C01D
:1015A000220F8A95EAF78091CD0182270E94A00A36
:1015B00008959091CD01892B0E94A00A08959091E1
:1015C000CD0189230E94A00A08959091CD01892719
:1015D0000E94A00A08950895262F277091E001C067
:1015E000990F2A95EAF723E0769567952A95E1F712
:1015F000FB01EE0FFF1FE60FF71FE40FF51F50E092
:1016000040E0682F70E08191DF0111979B01042E6B
:1016100002C0369527950A94E2F721702195282774
:10162000292328272C934F5F5F4F4330510559F7EB
:101630000895A82FA77023E0969587952A95E1F73E
:10164000FC01EE0FFF1FE80FF91FE60FF71F50E038
:1016500040E080E0219130E00A2E02C036952795C7
:101660000A94E2F721703327042E01C0220F0A9456
:10167000EAF7822B4F5F5F4F4330510559F70895CA
:10168000262F953070F48E3060F4682F70E08EE075
:10169000989F600D711D112442EB51E0822F0E9432
:1016A000EC0A0895292F953068F48E3058F490E0B4
:1016B00062EB71E03EE0239F800D911D11240E949A
:1016C000190B089580E00895CF92DF92FF920F9357
:1016D0001F93CF93DF936C010091CD018091CE01D8
:1016E000082BC7E0D0E010E0FC2EC8010C2E02C091
:1016F000959587950A94E2F780FD0CC02197A0F795
:10170000F12C8F2DDF91CF911F910F91FF90DF90E2
:10171000CF900895B6018C2F0E943113019771F379
:10172000F0CFCF93DF93EC010E94640BBE010E94C7
:101730003113DF91CF9108951F93CF93DF93EB0186
:101740009091AF01992339F0CB010E94910BDF9169
:10175000CF911F910895882369F0CB010E94640BFB
:10176000182F682FCE010E94400BBE01812F0E94CE
:101770003113EDCFCB010E94520B182FF6CF1F93E0
:10178000CF93DF93C091CF0116E08091D0018C13ED
:1017900004C0DF91CF911F910895D0E01C9FF0010C
:1017A0001D9FF00D1124EF52FE4F40815181628147
:1017B0007381848195810E946F0A2196C770E5CF5D
:1017C0004091010250910202609103027091040263
:1017D00080910502909106020E946F0A089520915F
:1017E000CF019091D00156E0291302C080E0089506
:1017F00030E0529FF001539FF00D1124EF52FE4F45
:101800007181761306C07081781303C072817413DE
:1018100004C02F5F3F4F2770E7CF81E00895B0E00D
:10182000A0E0E5E1FCE00C94BC3480910602807FEE
:1018300009F055C080910302882309F450C0C0917B
:10184000CF0186E0D82E8091D0018C1709F447C0D3
:101850002091040230910502D0E02115310541F0BC
:101860008091010290910202482F49234F3F19F4C1
:101870002196C770E8CFDC9E8001DD9E100D1124FB
:10188000F801EF52FE4F41814913F2CF9081981336
:10189000EFCF82818111ECCFE380F480E21AF30A6A
:1018A00060E081E092E00E94CE0461E072E00E947C
:1018B000D11BE816F906E0F6809106028F70806170
:1018C00080930602F801EA52FE4F80818F7080619A
:1018D000808381E092E00E943B0A0E94BF0BCDB75B
:1018E000DEB7E7E00C94D834A1E1B0E0EAE7FCE031
:1018F0000C94B3348C0185E0F801DE011D96019053
:101900000D928A95E1F7D8014C9011965C90119751
:1019100012967C9012971396ED90FC9060E081E017
:1019200092E00E94CE046C0181E0882E82E0982E25
:1019300020910402309105022115310541F080917A
:1019400001029091020289238F3F09F094C1711026
:10195000FBC0C8010E943B0A73C0E114F10429F0E6
:10196000852D84218F3F09F005C180E0B82FB1702B
:10197000EB2E80FF29C0472D652D842D0E94EF0B93
:10198000F82E811121C04D865E868D859E850E9430
:10199000910B292F22952F70223050F0243078F4AB
:1019A0009F7051F0F8019581907F31F46F2C04C144
:1019B0009F7011F08823D1F3805E8830B8F3C8019E
:1019C0000E943B0AFE2CF2CF772009F4F5C08091EB
:1019D0000602816080930602612CEEC0892B49F0DB
:1019E0008091010290910202282F29232F3F09F0B4
:1019F000E8C0C8010E949C07882309F4AACF772079
:101A000009F4A7CF80910602803270F02091010284
:101A10003091020238872F831986FB86EA868C87ED
:101A2000CE0107960E943B0A86E0F801A1E0B2E0F1
:101A300001900D928A95E1F70E940F0C0E94E00B35
:101A400066246394B9C0211112C07E2DF98AE88AF8
:101A5000A201672D89890E94650A81E092E00E94B7
:101A60003B0A86E0F40111928A95E9F754C180910E
:101A7000040290910502892B49F080910102909116
:101A80000202282F29232F3F09F0B7C0C8010E9466
:101A90009C07882309F45DCF772009F45ACF809101
:101AA0000602803208F220910102309102023A834C
:101AB00029831B82FD82EC828E83CE010196B2CFF8
:101AC00060E081E092E00E94CE0461E072E00E945A
:101AD000D11BA816B90650F5672C772009F439CF29
:101AE0008091040290910502892B49F080910102B6
:101AF00090910202282F29232F3F09F098C0C80196
:101B00000E949C07811190CF809106028160809392
:101B10000602C8010E943B0A4FC086E0F801A1E01E
:101B2000B2E001900D928A95E1F746C07E2DF98AC8
:101B3000E88AA201672D89890E94650A86E0F4017E
:101B400011928A95E9F756C0C8010E949C07682E39
:101B5000882309F4FECE86E0F801A1E0B2E001900E
:101B60000D928A95E1F781E092E00E9449060E9479
:101B70000F0C40C081E08725F9CE81E08725AEC0FB
:101B8000D80111962C912913A0C0F80190819813C7
:101B90009CC071109AC0809106028F708061809302
:101BA00006020E94E00B81E092E00E943B0A8091D5
:101BB0000602D80115968C93862D6196E0E10C946F
:101BC000CF34F8012181291314CFD8019C919813A7
:101BD00010CF8091060271100CCF15968C93C8011E
:101BE0000E943B0A86E0F801A1E0B2E001900D926C
:101BF0008A95E1F70E94E00BDFCFD80111962C9176
:101C0000291344CFD8019C91981340CF71103ECF37
:101C10008091060215968C93C8010E943B0AE1E070
:101C2000F2E086E0DF011D928A95E9F7C5CFF80161
:101C30002181291364CFF8019081981360CF61E06E
:101C400072E0C6010E946721811167CF8091060270
:101C500080FD63CF982F907F09F45FCFD801159650
:101C60008C931597903F09F4BACF982F907F905F8F
:101C70008F70892BB2CF609003025701A21AB30A6A
:101C8000662009F41DCF60E081E092E00E94CE045E
:101C900061E072E00E94D11B20910602207FA8160D
:101CA000B90608F0D0CE809104029091050221116E
:101CB00095CE672C892B49F0809101029091020208
:101CC000282F29232F3F09F05BCFE114F10429F0DD
:101CD000852D84218F3F09F050CF80E080FF3DCEDD
:101CE000472D652D842D0E94EF0B882309F435CEF6
:101CF00061E072E0C6010E945E21882309F42DCEC6
:101D000081E092E00E943B0A86E0E1E0F2E0DF0140
:101D10001D928A95E9F70E94E00B5ECEACE0B0E040
:101D2000E4E9FEE00C94C0344F83588769877A87D2
:101D30008B879C87CE0107960E94740C882369F0DC
:101D40008A859B85892B39F04F815885842F85237F
:101D50008F3F09F06BC016E05FC086E0FE0137964A
:101D6000DE01119601900D928A95E1F78A859B8597
:101D7000892B89F38F81988589238F3F61F3209187
:101D8000D00130E0C9010196877099274091CF01B9
:101D90004817190671F40E947C071092D001109226
:101DA000CF0186E0E1E0F2E0DF011D928A95E9F7DC
:101DB000D2CF96E0929FD001939FB00D1124AF52E5
:101DC000BE4FFE01319601900D929A95E1F78093F6
:101DD000D0010E94BF0BBFCF819FC00111248F5241
:101DE0009E4F0E94740C8823E9F0E091CF011E9F62
:101DF000F0011124EF52FE4F4081518162817381C5
:101E0000848195810E946F0A8091CF0190E00196B4
:101E1000877099278093CF018091CF019091D00155
:101E20008913DACF2C96E3E00C94DC3469857A854B
:101E30008B859C850E946F0A8ECF682F809106014A
:101E4000909107010E94262C0895682F8091060129
:101E5000909107010E94342C089580910601909181
:101E600007010E94422C089580912C0208958091D0
:101E70000E0490910F04892B89F00E94A72C2091C9
:101E80002A0230912B02AC01421B530B81E02091BE
:101E90000E0430910F044217530708F480E081705C
:101EA000089580912902859585958595089580915D
:101EB0002902877008950E94A72C20912702309153
:101EC0002802821B930B20910E0430910F0482177D
:101ED000930748F08091290282FB882780F991E0DE
:101EE00089278170089580E0FCCF90912902977036
:101EF00081E009F480E00895809151020895909165
:101F00005102892B8093510208958095909151023E
:101F10009823909351020895109251020895809150
:101F20005002089590915002892B80935002089599
:101F300080959091500298239093500208951092AA
:101F40005002089580934F02089510924F02089511
:101F500080934E02089510924E02089580912D02B2
:101F6000089508950E94B10F089590912C0298173A
:101F700021F080932C020E94B20F089508950E94D0
:101F8000BE0F0895CF93C82F8091F50382FF0FC035
:101F900080912D028C1759F00E94A72C90932B0250
:101FA00080932A02C0932D028C2F0E94BF0FCF91E5
:101FB000089580912D02882349F010922D021092ED
:101FC0002B0210922A0280E00E94BF0F0895CF9347
:101FD000DF93E0910601F091070180915102808327
:101FE000E0910601F0910701808190915002892BC8
:101FF000808380912D028823E9F080910E049091D6
:102000000F04892B29F00E94370F81110E94D90FEC
:10201000E0910601F0910701808190912D02892BBA
:10202000808380910601909107010E94922B81117B
:102030000E94D90FE0910601F091070180914E02B4
:10204000982F9095808189238083E0910601F091FB
:102050000701808190914F02892B8083C0910601F6
:10206000D091070140E250E067E072E0CE010E94AB
:102070001C36892B59F080E2FE01A7E0B2E0019006
:102080000D928A95E1F7CE010E944C2BDF91CF9102
:10209000089508950E94491008959091F50392FFC4
:1020A00017C098E0899F90011124622B6093290248
:1020B0000E94B40A0E94A72C9093280280932702C2
:1020C000809129028595859585950E944A100895ED
:1020D0000E94B40A089510922902109228021092C8
:1020E000270280E00E944A1008959091290280956D
:1020F000892380932902282F277091F4282F082EF6
:10210000000C330B9217130659F09091F50392FFD0
:1021100007C08595859585950E94C00A0E946B1021
:1021200008959091F50392FB222720F9281769F072
:1021300080FB92F99093F5038091F4039091F5035D
:102140000E94E31082E00E94751008958091F503CB
:1021500082FB882780F991E089270E9491100895D9
:1021600081E00E949110089580E00E9491100895EE
:102170006FEF7FEF90E080E00E947536089590E069
:1021800080E00E945136883E9E4F19F40E945716F7
:10219000089580E0089582E090E00E944936089515
:1021A00083E090E00E9449360895CF9384E090E068
:1021B0000E944936C82F82E290E00E944936982F4B
:1021C0008C2FCF910895CF93C92F682F84E090E092
:1021D0000E9457366C2F82E290E00E945736CF91D2
:1021E0000895AB01BC018FE090E00E94693608952C
:1021F000AB01BC0183E190E00E946936089560E084
:1022000070E0CB010E94F810089560E070E0CB010F
:102210000E94F1100E94FF10089568EE7EEF90E09A
:1022200080E00E94753660E082E090E00E945736C0
:1022300060E083E090E00E9457361092CE0160E0AB
:1022400084E090E00E94573664E082E290E00E94D1
:10225000573660E085E090E00E94573660E086E007
:1022600090E00E9457366FEF87E090E00E9457366B
:1022700040E050E0BA0188E090E00E94693660E0FA
:102280008DE090E00E94573640E050E0BA0188E1CE
:1022900090E00E94693660E087E190E00E94573646
:1022A00040E050E0BA018CE190E00E94693670E0B5
:1022B00060E080E290E00E94753640E050E0BA01B4
:1022C00088E190E00E94693680E00E9470160E94CA
:1022D0009E160E94051108950E940D110895682F01
:1022E0008EE090E00E94573608950E94B32C6093D0
:1022F000620270936302809364029093650260931C
:102300005E0270935F028093600290936102089571
:10231000089508950E948911089508950E948D11CD
:1023200008958BE194E10E94352B0E94B8180E9419
:1023300086200E9488110E948A11089581E00895E4
:102340000E949E110895089508950E94A3110E946D
:10235000A41108950E9437140E94B80508950E94A0
:102360009E2C0E94AE160E941F150E94AA110E9468
:102370008E1108950E9496270E94FD2A0E9406252C
:102380000895AAE0B0E0E7ECF1E10C94B6340E94C5
:10239000351524E5822E22E0922E640110E0F6012C
:1023A000E190F1906F01812F0E946A141F5F153038
:1023B00009F449C0E816F90691F38091660281FD9F
:1023C0000E9473140E94A011782E10E0812F0E94A9
:1023D0006A147C01F401A190B1904F018A159B050C
:1023E00061F1A826BF2400E0CC24C394D12CC50100
:1023F0008C219D21892BC1F07720B1F00E831F83A2
:1024000021E0C7018C219D21892B09F420E0288738
:102410000E94A72C8160782F9A8789874E815F81DF
:1024200068858A850E94EA050F5FCC0CDD1C0E30A2
:10243000F1F6F4013297F182E0821F5F153031F638
:102440000E94751122C0E816F90609F0B6CF0E9465
:10245000A72C8C0180915202909153020817190702
:10246000A1F08FEF89838A831B820E94A72C816051
:10247000782F9D838C8349815A816B818D810E9445
:10248000EA0510935302009352020E94BA110E946F
:10249000C7052A96EDE00C94D234CF93DF930E94C7
:1024A0003613EC01811522E59207E8F5811531E537
:1024B000930708F0A5C0883E910510F5803E910570
:1024C00070F5883A910570F4853A910508F078C066
:1024D0008130910521F1009711F1049700F5D0E0CA
:1024E000C0E01DC08F3B9105D0F7C85AD0E0CC0F9B
:1024F000DD1FCC5ADE4F0990D881C02DD4640FC0A7
:10250000811540E5940708F066C0C11580E4D8073E
:1025100008F05EC0CE019A9581159F4100F7CE016B
:10252000DF91CF910895811536E5930718F5811550
:1025300045E5940708F07DC0C11584E5D80708F08B
:1025400073C09C2F969596959E0123703327C115D5
:10255000D34508F45AC0C1E0D0E002C0CC0FDD1F63
:102560002A95E2F730E2939FC0011124C82BD92BA2
:10257000DA68D5CFC1158AE5D80778F4C11529E501
:10258000D20708F060C0C11538E5D30708F4A7CF1B
:10259000DC2FCC27C06FD06AC2CFCE0190568115F8
:1025A000904208F09CCF8D2F8F710E94D81390E03D
:1025B000982F882788279F719C012C2BE90141C007
:1025C000C55AD0E0CE57DE4FC881D0E0D064A7CF47
:1025D000DF70D06AA4CF282F26952695237080E23D
:1025E000289F900111248C2F8370C1E0D0E002C09D
:1025F000CC0FDD1F8A95E2F7C22BD32BDD688FCF7E
:10260000D82FCC27C16FD06A8ACFC1E0D0E002C0FA
:10261000CC0FDD1F2A95E2F720E2929FC001112422
:10262000C82BD92BDC687BCFDC2FCC27C46FD06ABA
:1026300076CF0E94D813C82FD0E0DC2FCC27CC2730
:10264000DF71D0626CCF8C2F8F700E94D81334E072
:10265000D695C7953A95E1F7CF709C2FEC01D069DC
:102660005ECF0E940F1E0E944D1208958238910580
:10267000B9F1B0F48133910509F47DC048F4893291
:10268000910509F46DC08A32910509F47BC0089563
:102690008533910509F45FC08933910509F10895E7
:1026A000833E9105D9F138F4803E910529F1823EAF
:1026B000910579F10895863E9105D9F1873E9105FE
:1026C00009F43EC0843E910541F52091F50321FFB8
:1026D00024C08091F40384FD19C087EE90E0089532
:1026E0002091F403237009F05AC02091F50323FFD1
:1026F00014C089E290E008952091F40320FD38C0D1
:102700003091F50330FF09C024FF43C090E080E022
:1027100008952091F40322FDF7CF08952091F4034A
:1027200022FD3AC03091F50330FD39C024FFF5CFCA
:10273000EDCF2091F40323FFF0CF24FDE7CFCDCFE1
:102740002091F40323FD2EC03091F50331FFEECF2D
:1027500084EE90E008952091F40325FFDECFC9CFE9
:102760002091F40325FD21C02091F50323FFD5CF4F
:1027700089E390E0D2CF2091F40326FFCECF8AE206
:1027800090E008952091F40326FFC7CF81E390E005
:10279000089583EE90E0089582EE90E0089580EE33
:1027A00090E0089586EE90E0089585E390E0089526
:1027B0009091F40392FF06C0282F28712830F9F475
:1027C000877F846093FF06C0282F28712831F1F499
:1027D000877E84612091F50320FF06C0382F387171
:1027E0003830D9F4877F816021FF06C0282F2871F7
:1027F0002831D1F4877E816194FD877E0895282F4A
:1028000024712430F9F68B7F8860DCCF282F247167
:10281000243101F78B7E8861DDCF382F3171313063
:1028200019F78E7F8860E0CF282F2171213121F7A1
:102830008E7E8861E1CF80E008950E94B8100895EF
:102840000E9435158FE39CE90197F1F700C0000065
:102850000E94351580E00E946A1480FF04C00E9427
:102860001D140E940E2D08950E94201408950E94A8
:10287000BF10811102C00E946C110E94CB10809386
:1028800066020E94D5109093F5038093F4030E9492
:1028900034140E94D0100E94850A8091CD010E94BC
:1028A0009D0A089508950895E82FF0E0EE0FFF1FA8
:1028B000E050FC4F21E030E002C0220F331F6A9548
:1028C000E2F7808191812823392381E0232B09F4C9
:1028D00080E00895E82FF0E0EE0FFF1FE050FC4F7E
:1028E000808191810895089580EA8A95F1F708958D
:1028F00000C008950E9474140895F894E82FE2959A
:10290000EF70F0E031A1282F2F7081E090E001C03E
:10291000880F2A95EAF7982F9095932391A392A177
:10292000892B82A378940895CF93DF93C3E9D1E0F4
:1029300089918F3F11F00E947D1481E0C839D8073A
:10294000B9F7C5E8D1E089918F3F11F00E947D145D
:1029500081E0C339D807B9F7DF91CF910895AF92DD
:10296000BF92DF92EF92FF920F931F93CF93DF936B
:102970008C01D62EC62FD0E0CE018D569E4F7C0105
:10298000FC0120812F3F09F44DC0F894E22FE2951D
:10299000EF70F0E031A12F7081E090E001C0880F6E
:1029A0002A95EAF7932F982B91A392A180958923DA
:1029B00082A378940E947814E5E8F1E043E951E0BD
:1029C00021E030E0B12CA12C61916F3FA9F1A62F3D
:1029D000A295AF70B0E090968C9190E06F7002C0BD
:1029E000959587956A95E2F780FD26C0C901A82ACA
:1029F000B92A220F331F4E175F0731F7F701808185
:102A00008F3F11F00E947D1461E0A114B10409F41C
:102A100060E08D2D0E947A14CC0FDD1FC00FD11FF6
:102A2000B982A882DF91CF911F910F91FF90EF9013
:102A3000DF90BF90AF90089590E080E0D8CF0E94E3
:102A400094148AE0E0E0F4E0DF01982F1D929A955B
:102A5000E9F7E6EFF3E0DF011D928A95E9F785E0FB
:102A60000E9470150E940D050895AAE0B0E0EBE306
:102A7000F5E10C94BE348E010F5F1F4F8AE0F80120
:102A800011928A95E9F7F12C6F2DC8010E94AF14BD
:102A9000F394F5E0FF12F8CF4AE050E0B80186EF7A
:102AA00093E00E941C3621E0009709F420E0892B76
:102AB00041F08AE0F801A6EFB3E001900D928A950B
:102AC000E1F745E060E074E086EF93E00E948B154B
:102AD000182F0E941005812F2A96E5E00C94DA3415
:102AE000CF93C82F2EE0829FC00111240E94E834AA
:102AF00080936C0290936D029C0180E08C1302C065
:102B0000CF910895F9019EE011929150E9F78F5FFE
:102B1000225F3F4FF3CFB0E0A0E0E1E9F5E10C9494
:102B2000B634182F092FF62EE72EB42EC22F10928E
:102B30006702D0916902DD2309F471C00E94A72CBD
:102B400020916A0230916B02AC01421B530B9A0137
:102B500090936B0280936A024F3F510509F0B8F4DD
:102B6000452B89F0109269021092680280916C02E4
:102B700040916D0230E060E090E0B9120BC06093CC
:102B8000690230936802C11158C0CD2F4AC02FEF9F
:102B900030E0E8CFE82FF42FAF01425F5F4F819123
:102BA000882331F0DF011197281748F01C923D2F40
:102BB000E417F507A1F78E2F4F2F9F5FDECF821B03
:102BC0008C936D2FF5CF6D917D91808191816827D8
:102BD0007927EA0130E020E08701022E02C0000FD1
:102BE000111F0A94E2F76B01C022D122C114D10453
:102BF00051F0D880D11007C078828027912799247E
:102C000093948824839421962F5F3F4F2E30310573
:102C100019F7425F5F4F81939193A39420C02111D4
:102C200006C080916802882301F1C11106C00E948C
:102C3000A72C90936B0280936A0240916C02509192
:102C40006D028090690290906702EF2DFE2DA12FFA
:102C5000B02FA12CEE24E394F12C95E0792EBA103C
:102C6000B2CF809269029092670280916702CDB7DD
:102C7000DEB7EDE00C94D2340E94FD2E0E94AF111D
:102C80000E940A2F08950E940F2F0E94C1110E94D6
:102C9000292F08950E948B2C0E94E32E0E949111EF
:102CA0000E943C160E9443160E94A511FBCF83E2AE
:102CB00090E00E944936853489F484E290E00E94D5
:102CC0004936863E59F485E290E00E94493691E00B
:102CD0008C3209F090E0892F8170089580E0FCCF5C
:102CE000CF93C82F6FEF811165E483E290E00E94DB
:102CF00057366FEFC11166EE84E290E00E945736BE
:102D00006FEFC1116CE285E290E00E945736CF91DF
:102D1000089586E290E00E944936682F70E090E0C6
:102D200080E008950895CF93C62F0E9492166C2FCD
:102D300086E290E00E945736CF91089580E00E948D
:102D4000701660E070E0CB010E9493160E94F71CA1
:102D50000E947B1E81E00E94701608950E94F60377
:102D60000E9489160E9492160E945716811102C075
:102D70000E949E160895CF93FB01C281CC2309F1D6
:102D80009C0122513F452031310520F582510E949E
:102D90008B1EC0E08C2FCF91089581E00E94B40A71
:102DA00043E062E081E00E940305F3CF81E00E94EE
:102DB000C00A43E062E081E00E940305EBCF82E0BD
:102DC000F6CF8031FFE59F0789F381319F45B9F345
:102DD000C1E0E0CF8031EFE59E07F9F281319F45F8
:102DE000C9F682E0DBCFEF92FF920F931F93CF9350
:102DF000DF93EC01162F888120917F0330918003AF
:102E0000232B79F08E3F09F06BC08981833020F04D
:102E10008550833008F064C0612FCE010E94BD1838
:102E20005FC08C3009F4B4C068F5843009F497C0F1
:102E300068F4823009F45DC008F084C0813009F480
:102E40004CC0612FCE010E942D044AC0863009F487
:102E50009CC008F48FC08B30A1F7809181039091C2
:102E60008203892BE9F1CE010E94B62D2FEF81EE6E
:102E700094E0215080409040E1F700C000000E94A3
:102E80000E2D2EC0803109F4A0C0D8F48E3009F484
:102E90008BC008F481C08091810390918203892BBB
:102EA000F9F06B8170E06D317105D0F489819A8100
:102EB000AE014C5F5F4F9827892798270E94561EC6
:102EC0000FC0823109F487C008F482C0833109F44D
:102ED00093C08E3F09F0B5CF9FCF198289E08A83D6
:102EE000612FCE010E94B62DCDB7DEB7E6E00C947F
:102EF000D9348981823071F0833079F0813009F0E2
:102F0000A0CF0E94B32C0E94AA346A837B838C8357
:102F10009D83E6CF0E948916F6CF80918103909120
:102F20008203892BE9F27E0100E0802F0E946A145F
:102F3000F701928383830F5FF2E0EF0EF11C0530FF
:102F4000A1F7CECF8981823009F07BCF6A817B8166
:102F50008C819D810E94AA340E949316C1CF4B811F
:102F60006A8189810E94571C9827892798279D8309
:102F70008C83B6CF2C813D813227232732274B818A
:102F80006A8189810E94791CABCF0E94F71CA8CF6F
:102F90000E942C1E8983A4CF0E942E1E9827892769
:102FA00098279A8389839CCF6B8170E06D3171057E
:102FB00008F096CF89819A81AE014C5F5F4F9827C8
:102FC000892798270E94311E8BCF0E947B1E88CFB5
:102FD0000E94441CDFCF6B8170E06D31710508F0F9
:102FE0007FCF89819A81AE014C5F5F4F98278927F7
:102FF00098270E946E1D74CF6B8170E06D31710552
:1030000008F06ECF89819A81AE014C5F5F4F98279F
:10301000892798270E94931D63CF81152CE592077D
:1030200041F42091810330918203232B11F490E02D
:1030300080E00895E9EFF2E090E080E06AEA7BE169
:1030400046E35BE123EC3AE177836683518740876F
:10305000338722879587848701963E96883091052D
:1030600099F70895AAE0B0E0E8E3F8E10C94B834E9
:1030700000E812E08EE6C82E82E0D82EF12C97E010
:10308000E92E9924939428EFA22E22E0B22ED601A5
:103090000D931D936D01BE016F5F7F4F8F2D0E94B9
:1030A000CF1C892B09F056C0F8013896DF018E2D10
:1030B0001D928A95E9F789819A81D80111969C938E
:1030C0008E938F8112968C9312978D8113968C9389
:1030D0001397888514968C931497898515968C93ED
:1030E00015978B819C8117969C938E9316971896B3
:1030F0001C9218978A8587FF37C01E961C921E92D5
:103100001D9780FF03C0D80118969C9281FF04C0D0
:10311000F80190859260908782FF07C0D8011896C9
:103120009C911897946018969C9383FF04C0F801B3
:1031300090859860908784FF07C0D80118969C916D
:103140001897906118969C9385FF04C0F8018085BC
:1031500080628087015F1F4FF394F8E0FF1297CFE2
:103160002A96EBE00C94D434F801B686A586C9CF34
:103170000E941A180E9432180895CF92DF92FF928F
:103180000F931F93CF93DF93CDB7DEB72A970FB678
:10319000F894DEBF0FBECDBF8C01603269F5DC0153
:1031A0001196EC911197EE3038F5F0E0EF55F94CAF
:1031B0000C94A43488E0EBE1F1E0DE01119601907B
:1031C0000D928A95E1F780E2F80111928A95E9F76C
:1031D00085E0D8018C9311961C92119712961C923F
:1031E000129713961C92139788E0FE01319614965D
:1031F00001900D928A95E1F72A960FB6F894DEBFFA
:103200000FBECDBFDF91CF911F910F91FF90DF9047
:10321000CF90089584EDF801808381E0818312824C
:103220001382EACF13968C911397682F70E0762F54
:10323000662712968C91860F972F911D092E000CF0
:10324000AA0BBB0B45E0880F991FAA1FBB1F4A950D
:10325000D1F7AC01BD01405E5F4F6F4F7F4F481704
:1032600059076A077B0740F2843DE1E09E07A1050C
:10327000B10510F6453DF1E05F076105710520F0ED
:1032800044ED51E060E070E0481B590BBC01645212
:103290007D4FC8010E941336AFCF40E250E06FEF80
:1032A00070E00E94323680918103D8018C93809126
:1032B0007F0311968C93119712961C921297139676
:1032C0001C92139782E014968C9314978DE01596B8
:1032D0008C9392CF81E090E09093800380937F0362
:1032E00082E390E090937E0380937D030E94A72C5D
:1032F00090937C0380937B037FCF80917F03909199
:103300008003892B91F160E080E00E945414D82E54
:103310006DE082E00E945414F82E80917B0390911E
:103320007C030E94BF2C8536910550F1DD2041F1D0
:10333000FF2031F10E94A72C90937C0380937B03A4
:1033400080917D0390917E03019790937E038093FB
:103350007D03892B51F41092800310927F0381E04A
:1033600090E0909382038093810380918103F80120
:10337000808380917F03818380917D0382833CCF12
:1033800082E390E090937E0380937D03EECF1092D2
:1033900082031092810330CF40E250E0BC011296CC
:1033A0008D919C910E94DF2027CFBC016F5F7F4FE2
:1033B0004FE150E0FC01828193810E940F21D801EE
:1033C0008C931ACFBC016C5F7F4F4CE150E0FC0145
:1033D000828193810E942A21F2CF0E94AB200CCFE0
:1033E000FC018281823009F446C0E0F48823D9F1DF
:1033F000813009F001CF13968C912AE0F22EFE0164
:1034000031966F01DF01EF2D1D92EA95E9F7B601C4
:103410000E94A71CD8018D93F60101900D92FA9499
:10342000E1F7EACE853009F453C0863009F0E4CEE6
:103430001396FC908AE03496DE01119601900D926D
:103440008A95E1F78B819C810E940D189C838B8368
:10345000BE016F5F7F4F8F2D0E94E31CF8018083B8
:103460000E943218C9CE80E21D928A95E9F788E061
:103470008083118283CF1396FC908AE03496DE011C
:10348000119601900D928A95E1F789819A810E94A7
:103490000D189A8389838B819C810E940D189C83CF
:1034A0008B838D819E810E940D189E838D838F81D9
:1034B00098850E940D1898878F83BE016F5F7F4F9C
:1034C0008F2D0E94BB1CF80180830E941A1894CE95
:1034D00013968C919AE0F92EFE0131966F01DF016F
:1034E000EF2D1D92EA95E9F7B6010E94CF1C92CF0D
:1034F000A5E0B0E0EEE7FAE10C94C13490930B0440
:1035000080930A04811520E2920730F40E946E0431
:103510002596E2E00C94DD3480EF89838A8381E094
:103520008B830E94A72C8160782F9D838C83498197
:103530005A816B818D810E94EA05EACFA5E0B0E057
:10354000E4EAFAE10C94C13490930B0480930A04EA
:10355000811520E2920730F40E9484042596E2E06F
:103560000C94DD3480EF89838A831B820E94A72C10
:103570008160782F9D838C8349815A816B818D81F5
:103580000E94EA05EBCF0F931F93CF93DF938C013B
:10359000EB0169E673E08C2F0E94A71C892BA1F434
:1035A00080912A0490912B04019798F4DD27CD583F
:1035B000DC4F8881F80112821882833029F180F46F
:1035C000813091F08230B9F0DF91CF911F910F914E
:1035D0000895EFE9FFE03197F1F700C00000E4CF74
:1035E0008430B9F0853081F78091690390916A0346
:1035F000009751F306C080916B0390916C03009784
:1036000099F30E949E1AE0CF80916D0390916E0312
:10361000F6CF80916F0390917003009791F72091FE
:10362000690330916A0380916B0390916C032115BB
:103630003105F1F2009729F7C901E3CFCF93DF936A
:10364000EC010E94781A80912A0490912B04019732
:1036500030F4CE010E949E1ADF91CF910895EFE9D8
:10366000FFE03197F1F700C00000F1CF0F931F93F7
:10367000CF93DF938C01EB0169E673E08C2F0E94FE
:10368000A71C892B09F05CC0FE01FF27D801129608
:103690008C911297ED58FC4F8130B9F415969C919E
:1036A00092FF02C080830AC090FFFCCF82E080833B
:1036B00080916B0390916C030097B9F4809169033A
:1036C00090916A030097E1F110C08230B9F5159628
:1036D0008C9182FD28C080FD0BC083E080838091A7
:1036E0006D0390916E03009701F10E94781A28C033
:1036F00084E0808380916F03909170030097A9F715
:103700008091690390916A030097F9F00E941E1B53
:1037100080916B0390916C03009739F78091690356
:1037200090916A03E2CF85E0808380916903909154
:103730006A03009729F00E941E1BF0CF86E0808369
:10374000DF91CF911F910F91089580916B0390911C
:103750006C03B8CF0F931F93CF93DF938C01862F09
:1037600069E673E00E94A71C892BB1F4C09169033C
:10377000D0916A03209781F0F8018281833051F45F
:10378000CE010E941E1BCE010E941E1BCE010E9474
:103790001E1B02C08430D0F7DF91CF911F910F9193
:1037A0000895AAE0B0E0E7EDFBE10C94BD348C0194
:1037B0007B0197558F3F910509F070F4BE016F5F53
:1037C0007F4F802F0E94A71C892B31F489859A8511
:1037D0002A96E6E00C94D934B701C8010E94592119
:1037E000F7CFCF93DF93FB012281211130C0EC0191
:1037F000D755CF3FD10509F050F569E673E08C2F1E
:103800000E94A71C892B19F58EE08C9FF0018D9FDB
:10381000F00D1124E750FD4F82818130E1F4809159
:10382000690390916A03892B91F080916B039091C9
:103830006C03892B61F080916D0390916E03209150
:103840006F0330917003822B932B892B61F081E001
:10385000DF91CF9108958230D1F780916D039091DF
:103860006E03892BA1F32EE02C9FC0012D9F900D9C
:103870001124FC01E250FD4F20812E7F20838750D0
:103880009D4F0E945C2AE3CF83E0089550E0440FEF
:10389000551F9CE1699F400D511D11249CE8899F93
:1038A000400D511D1124CA018A5B9F4F08950F934B
:1038B0001F93CF93DF938330C8F46530B8F44E3054
:1038C000A8F40E94461C8C010E944936C82FD0E003
:1038D000DC2FCC27C80101960E9449369E01282B77
:1038E000C901DF91CF911F910F91089590E080E081
:1038F000F8CF0F931F93CF93DF93122F032F8330B3
:1039000078F4653068F44E3058F40E94461CEC019F
:10391000602F0E945736612FCE0101960E945736C4
:10392000DF91CF911F910F9108958432910528F472
:1039300086519E4F0E944936089580E00895843252
:10394000910520F486519E4F0E94573608959B01A1
:10395000883070F49AE0899FB0011124625F7D4F36
:103960004AE050E0C9010E94393690E080E00895B5
:103970008FEF9FEF08959B01883070F49AE0899F44
:10398000B0011124625F7D4F4AE050E0C9010E94FE
:103990007B3690E080E008958FEF9FEF08959B01C4
:1039A000883070F49AE0899FB0011124625A7D4FEB
:1039B0004AE050E0C9010E94393690E080E0089565
:1039C0008FEF9FEF08959B01883070F49AE0899FF4
:1039D000B0011124625A7D4F4AE050E0C9010E94B3
:1039E0007B3690E080E008958FEF9FEF0895A4E18B
:1039F000B0E0EDEFFCE10C94B53460908103709081
:103A0000820381E090E090938203809381038CEAAB
:103A1000A82E80E0B82E10E000E06501F12C1EC059
:103A20000E94310421E030E08017110621F01CF0E3
:103A3000F401259134914E2D6F2D802F0E94791C19
:103A400082E0880E911CE3949EE0E912E9CFF394A2
:103A5000ECE1CE0ED11CF5E0FF1619F04601E12C89
:103A6000DFCF0F5F1F4F8CE8A80EB11C033011058C
:103A7000A1F60E94AB201C861B861E861D86188A16
:103A80001F861A8A198A88EC90E09C8B8B8B10E039
:103A9000BE01655F7F4F812F0E94BB1C1F5F1830E6
:103AA000B9F7FE0131967F018AE011928A95E9F714
:103AB0008FEF9FEF9E838D8387E08A8710E0B701A9
:103AC000812F0E94E31C1F5F1830C9F77092820398
:103AD000609281036496EEE00C94D134EF92FF92F1
:103AE0000F931F93CF93DF93EC018A017C01E60EC5
:103AF000F71ECE018A5B9F4FCE15DF0529F4CDB7A7
:103B0000DEB7E6E00C94D934C43A21E0D20740F4A1
:103B10000E944936F80180830F5F1F4F2196E9CF3D
:103B2000F8011082F9CFB0E0A0E0E9E9FDE10C94E2
:103B3000B334EC017B018A01843A9140E0F484EAD9
:103B400091E08C1B9D0B86179707A8F04E0136E479
:103B5000830E911C80918103909182032E01460E69
:103B6000571E892B69F07E01C7018A5B9F4FE414C1
:103B7000F50409F043C0CDB7DEB7E0E10C94CF34D3
:103B80006E0181E0C822DD24C0FF0FC0C40101978F
:103B90000E944936F8019081892798278927811545
:103BA0009C4519F48FEFF8018083570140FE13C044
:103BB000F1E0AF1AB10838016A0C7B1CC4018E0D0C
:103BC0009F1D0E944936F301908181159C4519F48F
:103BD0008FEFF3018083F801EC0DFD1D2FEFCA1468
:103BE000DB0408F69081818181159C4511F42083C6
:103BF000218382E0C80ED11C3296F1CFE4EAEE16A2
:103C0000E1E0FE0640F4F701EC1BFD0BE00FF11FB5
:103C100060810E945736FFEFEF1AFF0AA5CF462FAB
:103C200020917F0330918003232B99F4703F39F466
:103C3000603F79F480910A0490910B0408958330D9
:103C400040F4753030F46E3020F4672F0E94571C1A
:103C5000089590E080E0089580E1089582E591E084
:103C60000895EF92FF920F931F93CF93DF93EC0190
:103C70008A017C01E60EF71ECE0182559D4FCE15BE
:103C8000DF0529F4CDB7DEB7E6E00C94D934C235B0
:103C900021E0D20740F40E944936F80180830F5F8B
:103CA0001F4F2196E9CFF8011082F9CFB0E0A0E0D4
:103CB000ECE5FEE10C94BB347C016A018C01060F3B
:103CC000171FEC01CE0182559D4FC017D10729F473
:103CD000CDB7DEB7E8E00C94D734C23521E0D20787
:103CE00040F4FE01EE19FF09EC0DFD1D60810E94FC
:103CF00057362196E7CFCF93DF93CEEAD2E060E04C
:103D0000CE010E9457362196C11584E0D807B9F735
:103D1000DF91CF910895A4E0B0E0E1E9FEE10C94D9
:103D2000BA34F82E2FE0281708F4A5C08FEF93E0DF
:103D30000E94493681119FC00EEA12E0F11036C090
:103D400019821A821B821C82BB24BA9478015FEF0D
:103D5000E51AF50AC8010E94493689831A82882328
:103D600009F489C0813009F07FC0680182E0C80E83
:103D7000D11CC7010E944936E82E8A83882309F4A2
:103D80007AC0C6010E944936F82E8FEF8E0D83301F
:103D9000D8F46801E3E0CE0ED11CFB82FF2021F0B5
:103DA000CE0101960E94D9238601D0CF011544E0AF
:103DB000140709F460C0C8010E944936811101C08E
:103DC000FA940F5F1F4FBACF8BEF8E0D833030F513
:103DD000C8010396FB826C01FF2031F36801F4E017
:103DE000CF0ED11C0E9449368C838823E9F28B8147
:103DF0009C8181302FEF920710F0982F882746E0A2
:103E0000E41631F057E0E51631F00E941E1BCCCFCE
:103E10000E94781AC9CF0E949E1AC6CF84E0E81289
:103E2000C3CF6801E4E0CE0ED11CC80103960E9406
:103E30004936FF2001F18823F1F08150990BB89E9B
:103E40009001B99E300D11244F2D4150550BCA01E0
:103E5000820F931F019708F4A7CFEFE9FFE0319796
:103E6000F1F700C00000F6CF60E0CE0101960E949D
:103E70007323670199CF2496E9E00C94D634B0E01F
:103E8000A0E0E5E4FFE10C94B9348FEF9FEF4430FC
:103E9000510508F469C04091F40341FB882780F97B
:103EA00090E0880F991F42FB002700F910E0000FF7
:103EB000111F000F111F802B912B40FBCC24C0F849
:103EC000D12C8C299D2943FB222720F9C22FE0E029
:103ED000DE2F53E0CC0FDD1F5A95E1F78C2B9D2B85
:103EE00044FBAA27A0F9B0E0E4E0AA0FBB1FEA95C3
:103EF000E1F78A2B9B2B45FBEE27E0F9F0E0A5E0EC
:103F0000EE0FFF1FAA95E1F78E2B9F2B46FB222772
:103F100020F930E0B6E0220F331FBA95E1F7822B8B
:103F2000932B47FB222720F930E03695322F2227AA
:103F300037952795822B932B2091F503322F3170E3
:103F4000F32EE82EF92A26952170B22EBB0CA82E4E
:103F5000BF28C501BB0CAA0BBB0BFB01808391835F
:103F6000A283B38390E080E0CDB7DEB7EAE00C94A3
:103F7000D534CF92DF92EF92FF928FEF9FEF4430D4
:103F8000510508F46AC0FB01C080D180E280F38053
:103F90000E947C078091F403C0FA80F9B701A60162
:103FA000769567955795479540FB81F9B701A6012E
:103FB00022E076956795579547952A95D1F740FB6E
:103FC00082F9B701A60133E0769567955795479535
:103FD0003A95D1F740FB83F9B701A601E4E0769565
:103FE000679557954795EA95D1F740FB84F9B70156
:103FF000A601F5E07695679557954795FA95D1F71F
:1040000040FB85F9B701A601A6E07695679557951F
:104010004795AA95D1F740FB86F9B701A601B7E00D
:104020007695679557954795BA95D1F740FB87F9EF
:104030008093F4038091F503D0FA80F9D1FACC246F
:10404000C0F8C0FA81F98093F5038091F403909150
:10405000F5030E94E31090E080E0FF90EF90DF9086
:10406000CF90089580910C0490910D040E943C25FE
:104070000895DB01FC0132962591349142175307D4
:1040800058F0FC01349665917491A901CD010E940C
:10409000293690E080E008958FEF9FEF08950F9309
:1040A0001F93CF93DF930CE014E0D0E0C0E0CE018B
:1040B0000E94951CF80161918F01861719F0CE01BD
:1040C0000E949F1C2196C432D10589F7DF91CF91C0
:1040D0001F910F910895DA019C012E5F3F4FF90166
:1040E00045915491F90125913491A217B30758F0E5
:1040F000FC013496859194910E9429360E944F20AC
:1041000090E080E008958FEF9FEF08950F931F9345
:10411000CF93DF930CE014E0D0E0C0E0CE010E942A
:10412000951CF80181938F012196C432D105B1F716
:10413000CAEBD4E0FE0185919491009711F0FC0147
:1041400009952C96F5E0CA34DF07A1F7DF91CF91EE
:104150001F910F910895ECE0F4E0128E138E8FEA18
:1041600090E09183808385E0848F28E833E1338376
:10417000228322E330E0378B268B28EC30E0318F2E
:10418000208F158E178E168E20E530E031A320A3E8
:1041900082A30E944F200E947C071092F503109288
:1041A000F403E5EFF3E08081846080838091F40381
:1041B0009091F5030E94E3100E9486200895EF92EB
:1041C000FF920F931F93CF93DF937C01EB018A0142
:1041D0006FEF70E0CE010E94323620EB34E0A0E4B5
:1041E000B5E090E080E0AC014E5F5F4F041715072B
:1041F00088F0F90165917491E616F70630F48C0F9A
:104200009D1FFC0171836083CA01245F3F4FA21789
:10421000B30749F7CDB7DEB7E6E00C94D9349C017B
:1042200080EB94E0FC01A591B4912A173B0741F083
:104230000C96E5E080349E07A9F78FEF9FEF089575
:10424000FC0136962591349121153105B1F3F90120
:10425000099508950F931F93CF93DF93C0EBD4E09C
:10426000FE01259134918217930741F02C9625E0A9
:10427000C034D207A9F70FEF1FEF15C0FE01389623
:104280002591349121153105B1F3CE01F90109953C
:104290008C01892B41F4FE013A9685919491009707
:1042A00011F0FC010995C801DF91CF911F910F9189
:1042B0000895809124049091250408958091290403
:1042C0008170089580912904869581700895809168
:1042D000290482FB882780F908958091290483FBB3
:1042E000882780F908958832910538F48E31910538
:1042F000E8F40497A0F480E008958933910558F418
:104300008D32910510F48B97B1F78091270482FBD1
:10431000882780F908C084369105B9F3ECCF8091E5
:1043200027048295817091E0892708958091270460
:1043300083FB882780F9F7CF8091270485FB8827A6
:1043400080F908958091270486FB882780F90895D5
:10435000CF93DF93EC01FB018281882309F464C1D0
:10436000C330FDE5DF07E0F5CA3F9CE5D90730F42F
:104370009E0122503C4524313105D8F50E94D510CC
:104380009093F5038093F403C231ECE5DE0709F462
:104390001FC108F06EC0C9308CE5D80709F4F2C01F
:1043A00008F03FC0C530ECE5DE0709F4DBC058F586
:1043B000C3308CE5D80709F4CDC008F0CFC0809198
:1043C000F4038160C230DC4509F4AEC08091F4038F
:1043D0009091F5030E94E3100E947C0780E009C0E1
:1043E000C53AEDE5DE0751F238F4C1369DE5D9074F
:1043F00029F2DF91CF9108959E012D5A3D4523303A
:104400003105B8F7BBCF8091F4038062C730FCE57B
:10441000DF0709F489C008F4B1C08091F403806417
:1044200083C0CD309CE5D90709F4BAC070F48091FF
:10443000F4038E7FCB30FCE5DF0709F475C008F488
:10444000A7C08091F4038D7F6FC0CF309CE5D90762
:1044500009F4B6C008F4A8C0C031FCE5DF0709F4D0
:10446000B3C0C131DC4509F0B1CF8091F4038F7B3B
:104470005BC0CF3F9CE5D90709F4B4C098F5CA3FAB
:10448000FCE5DF0709F472C0B8F4C4319CE5D90734
:1044900009F4B6C008F4A2C0C531DC4509F096CFD6
:1044A0008091F40382FB992790F921E0922790FBF9
:1044B00082F990FB83F938C0CC3F8CE5D80709F42A
:1044C00077C008F457C0CD3FECE5DE0709F474C0AF
:1044D0008091F5038360CE3FDC4509F077CF809370
:1044E000F50374CFC1368DE5D80709F496C068F49A
:1044F000C130EDE5DE0709F48CC008F477C0C230A6
:10450000DD4509F063CF80E085C0CD3A9DE5D90750
:10451000E9F068F49091F403892F8E7F90FF816019
:10452000C53ADD4509F052CF8093F4034FCFCE3A20
:104530008DE5D80789F1CF3ADD4509F047CF909155
:10454000F503892F877F93FF8860C9CF8091F5039A
:104550008860C5CF8091F4038260E6CF8091F40338
:104560008460E2CF8091F4038860DECF8091F50310
:104570008160B5CF8091F5038260B1CF8091F40363
:104580008061D2CF0E947C078091F4038068CCCFF9
:104590008091F4038C60C8CF8091F503877F9FCF13
:1045A0008091F4038B7FC0CF8091F403877FBCCFD1
:1045B0008091F5038E7F93CF8091F5038D7F8FCF10
:1045C0008091F4038F7EB0CF8091F4038F7DACCFC8
:1045D0000E947C078091F4038F77A6CF8091F4032B
:1045E000837FA2CF8091F5038C7F79CF8091F503F3
:1045F000982F909591708E7F892B90FB81F96FCFCA
:104600000E947C079091F403892F97FB87F98058CB
:104610008BCF81E00E946F11D9CE9091F403892F46
:104620008F7E94FF806180CF81E0E3CEB0E0A0E098
:10463000ECE1F3E20C94BC34E82FF0E0E05CFA4FDC
:10464000D490282F26952695269530E0F901E05242
:10465000FA4F0491877010E0082E02C01595079557
:104660000A94E2F701701127F901E053FA4FE49040
:10467000F12C082E02C0F594E7940A94E2F791E039
:10468000E922FF24F901E054FA4FC491D0E002C0BE
:10469000D595C7958A95E2F7C170DD2701151105FB
:1046A00019F081EE0E944F06E114F10419F086EE34
:1046B0000E944F068D2D0E944107E114F10419F06C
:1046C00086EE0E94D8060115110519F081EE0E94B0
:1046D000D806CD2B19F08CE20E944107CDB7DEB78A
:1046E000E7E00C94D834EF92FF920F931F93CF938F
:1046F000DF93EC01162F0AE08881882309F454C067
:10470000813009F04EC08981813099F47E0122E028
:10471000E20EF11C8A810E944107E7012196812F58
:10472000815050F3EFE9FFE03197F1F700C000004E
:10473000F7CF823041F47E0182E0E80EF11C8A81DD
:104740000E944F06EACF833041F47E01E2E0EE0E94
:10475000F11C8A810E94D806E0CF843011F02196A6
:10476000DDCF2A81229690E080E0AE014F5F5F4F5F
:104770002053330B2A30310548F0019778F2EFE9E6
:10478000FFE03197F1F700C00000F7CF089FB001BC
:10479000099F700D1124C901860F971F2981EA0115
:1047A000E4CF0E941623BACFCDB7DEB7E6E00C9473
:1047B000D93460E00E947323089580910A01877FB5
:1047C00080930A0182E00E94980F80910A0184FF81
:1047D00006C08F7E80930A0182E00E947F0F809145
:1047E0000A0185FF06C08F7D80930A0180E20E9446
:1047F0007F0F0E94E70F0895CF93DF93EC016623AC
:1048000019F082E00E94920FCE019056811520E2AD
:10481000920720F0905E8115904108F4DD27CE01CB
:104820000E946E04DF91CF9108959C0130562115AE
:1048300040E2340720F0305E2115304108F499271A
:104840000E9484040895FC0123E0F695E7952A95DB
:10485000E1F7EE71FF27ED57FC4F20813181AC016C
:104860004F70552781E090E002C0880F991F4A954C
:10487000E2F7662329F0822B932B9183808308959E
:104880008095909582239323F8CFFC0123E0F69541
:10489000E7952A95E1F7EE71FF27ED57FC4F8F70F2
:1048A000992721E030E002C0220F331F8A95E2F7FA
:1048B000808191812823392381E0232B09F480E032
:1048C0000895B0E0A0E0E7E6F4E20C94BC34EC011B
:1048D0007B01D42E890180910A0182FF83C020913F
:1048E000A9033091AA032C173D0719F0209709F06E
:1048F00079C090910A019B7F90930A0161E091FD3C
:1049000010C08091AB039091AC03A701481B590BD9
:1049100061E080910B0190910C014817590708F450
:1049200060E0617080910A0160FB81F980930A0167
:10493000C9010E9423240E947C0F81FF08C080913E
:104940000A01806180930A0182E00E94850F0E9423
:104950007C0F85FF08C080910A01806280930A0164
:1049600080E20E94850F60910A0166956170A8013E
:104970008091A9039091AA030E94FC23D11014C036
:1049800080912A0490912B04019728F560910A01E7
:1049900066956170A8018091A9039091AA030E9475
:1049A00015240E94DD232DC0B8018091A9039091A8
:1049B000AA030E949C21882319F3B8018091A903BE
:1049C0009091AA030E94A2218111DACFCDB7DEB760
:1049D000E7E00C94D834EFE9FFE03197F1F700C03D
:1049E0000000D2CFCE010E944524A801682FCE013D
:1049F0000E9415248091A9039091AA038C179D070A
:104A000081F2F092AC03E092AB03E0CF80912704F7
:104A100080FF1EC080910A0182FF1AC00E94A72C4D
:104A20002091AB033091AC03AC01421B530B20919E
:104A30000B0130910C014217530750F023EA33E089
:104A400041E0BC018091A9039091AA030E946124D6
:104A5000089590910A01892F8E7F90FF8160809345
:104A60000A010E94DD23089580910A018E7F8093C0
:104A70000A010E94DD23089590930C0180930B019D
:104A80000895B0E0A0E0E7E4F5E20C94BB34EC015B
:104A90007B018091270480FD07C011E0812FCDB7F5
:104AA000DEB7E8E00C94D7340E94A72C6C01F70124
:104AB0008281882391F180910A0182FF08C023EA54
:104AC00033E040E0B60190E080E00E946124CB3109
:104AD000FCE5DF07C9F0CC312CE5D207D9F0CA31AB
:104AE0008CE5D80711F40E942925CE019056811536
:104AF000E0E29E0720F0905E81159041E0F4109274
:104B0000AA031092A903C9CF80910A018160809302
:104B10000A01EBCF0E943425E8CF80910A018F7EF5
:104B2000C13ED10531F0C53ED105B9F580910A01EC
:104B30008F7D80930A0180910A0180FFAECFB7017B
:104B4000CE010E947321F7011281882309F4C8C0A5
:104B5000112309F4BEC00E947C0F182F0E94AE0FD3
:104B6000812B8D7FB9F11092AA031092A903809135
:104B7000270481FD2FC060E0CE010E942324A701FD
:104B800060E0CE010E94FC230E94AE0F8D7F0E9448
:104B9000C20F82E00E94751072C0CE01905681153E
:104BA00020E2920720F0905E8115904120F68091DE
:104BB0000A0182FF72CFB701CE010E9462218111EA
:104BC0006CCF23EA33E040E0B60190E080E00E9441
:104BD000612463CF86E0F701A3EAB3E001900D9270
:104BE0008A95E1F71092A5031092A7031092A603ED
:104BF0008091A9039091AA03C817D90709F04AC068
:104C0000B701CE010E949C21882309F443C0809102
:104C10000A0181FD36C08091AB039091AC038601FF
:104C2000081B190BB7018091A9039091AA030E9458
:104C3000D11B0817190770F50E947C0F81FF08C06F
:104C400080910A01806180930A0182E00E94850FB1
:104C50000E947C0F85FF08C080910A0180628093CA
:104C60000A0180E20E94850F60910A0166956170D9
:104C7000A7018091A9039091AA030E94FC2310E050
:104C80000DCFB7018091A9039091AA030E94A221A0
:104C90008111C1CF0E947C0F182F0E94AE0F812B73
:104CA00090910A0181FB91F990930A010E94AE0F45
:104CB0008D7F0E94C20FD093AA03C093A903D09204
:104CC000AC03C092AB0380910A01846080930A0117
:104CD00060CF970140E0B601CE010E946124DECE94
:104CE00011110DCFDACECF93DF93EB0186319C45C6
:104CF00009F03BC00E947C0F982F9A7A20912604DD
:104D000020FF04C0382F347409F090E021FF04C064
:104D1000382F317109F090E022FF04C0382F387825
:104D200009F090E023FF03C0827209F090E08A81CD
:104D3000882389F081E0911101C080E08093AD0368
:104D400089E2911185E30E941D0F0E94E70F80E028
:104D5000DF91CF9108958091AD03811104C089E264
:104D60000E94250FF2CF85E3FBCF81E0F1CFFC015C
:104D70008481862351F492819923B9F06923808537
:104D800083FF05C081E061110FC080E00895892F85
:104D90008F7092959F70982B862F8F7062956F7091
:104DA000682B81E09613F1CF089581E0FDCFCF937A
:104DB000DF93EC016091B8037091B9038091BA035D
:104DC0009091BB030E94CE2C643F714081059105F8
:104DD00018F58091B8039091B903A091BA03B091EE
:104DE000BB038093B4039093B503A093B603B09331
:104DF000B70384EF91E0A0E0B0E08093B00390931C
:104E0000B103A093B203B093B303D093AF03C093A5
:104E1000AE03DF91CF9108950E94B32C6093B40349
:104E20007093B5038093B6039093B70382E390E049
:104E3000A0E0B0E0E2CFFF920F931F93CF93DF93F8
:104E4000F82E0091BF031091C0030115110509F45C
:104E50004DC01092AF031092AE030E94AB0F0E94A0
:104E6000A50F0091BF031091C003D8011696CD91F4
:104E7000DC919E013A9521153F4108F4D07ED1E0A6
:104E8000C11101C0D0E0D8011996ED91FC911A979B
:104E9000309731F01B966D917C9180E00995D82375
:104EA000DD2339F08CEF8C0F813A30F58C2F0E9486
:104EB000250FFF2099F0E091BF03F091C00380859A
:104EC00084FD0CC08091BE03882341F080819181D4
:104ED0009C0121503109203B3D45A0F00E94E70F85
:104EE0001092C0031092BF031092BE03C801CDB749
:104EF000DEB7E5E00C94DA340E94E70F8C2F0E94B5
:104F0000D806D7CF0E94D726E9CF10920D0180E0B6
:104F10000E941B27089580910D01882319F00E949B
:104F20008527089581E080930D0108950F931F93C5
:104F30008091AE039091AF03892B89F16091B40306
:104F40007091B5038091B6039091B7030E94CE2C67
:104F50000091B0031091B1032091B2033091B303DB
:104F60006017710782079307D0F08091AE0390918C
:104F7000AF030E946E041092AF031092AE03109222
:104F8000B4031092B5031092B6031092B7031092B7
:104F9000B0031092B1031092B2031092B3031F91A9
:104FA0000F910895A4E0B0E0E8EDF7E20C94B1347D
:104FB0008C017A836983DB0112965C905520B1F0F5
:104FC0008F35BDE59B0759F08036EDE59E0759F01A
:104FD0008E359D4559F40E948B27312C0DC081E000
:104FE00080930D01FACF0E948527F7CF30900D01F5
:104FF000311007C033243394832D2496E2E10C94BE
:10500000CD34680120EEC21AD1080E947C0FF82E20
:105010000E94340F482E0E94AE0F482A4F2838E0D5
:10502000C316D10408F094C098012770332781E09B
:1050300090E001C0880F2A95EAF7552009F485C051
:10504000482AA981BA818D919C910E94520B80902F
:105050000801909009018114910409F4E1C021E054
:1050600030E0390102C0660C771C8A95E2F7E091C6
:10507000BF03F091C003FA83E983A090BC03B09012
:10508000BD03212CE22DF0E0EE0FFF1FE80DF91D0E
:10509000208131813C832B832115310509F4C0C067
:1050A000411005C0D90112968C9181118BC0EB8102
:1050B000FC81838190E086219721892B09F482C0AD
:1050C0008085982F977009F487E0F8E0CF16D10417
:1050D00008F058C0552009F451C086958170882386
:1050E00009F470C0AB81BC81ED90FC900E151F05DA
:1050F00019F4552009F466C0EB81FC8129813A81BD
:10510000E217F30709F45EC00584F685E02D3097B9
:1051100021F08081882309F455C0642D8B819C8106
:105120000E94B726882309F44DC00E151F0509F00B
:105130008BC00115110509F48CC051108CC0EA1404
:10514000FB0409F03FC0512C86C08095482279CFDE
:10515000552009F44EC01093BD030093BC030E9478
:10516000B32C6093B8037093B9038093BA03909300
:10517000BB031092AF031092AE0363CF82FB88276C
:1051800080F9ADCF5520F1F08170A9CF0E94D806EB
:1051900083C00497813A910548F4802F0E941D0F27
:1051A000552009F427CF0E94E70F17CF0E94E70F81
:1051B0008FE39CE90197F1F700C00000802F0E9467
:1051C0004F06EECF23945ECFFC0120813181201762
:1051D000310731F4511007C01092BE0380E031C096
:1051E000552009F407CFDC0118968C9185FD02CF7C
:1051F000F5CF8091BC039091BD038017910781F496
:105200001092BD031092BC031092B8031092B90320
:105210001092BA031092BB031092AF031092AE0328
:105220008091BF039091C003009709F4E3CEA8E0FA
:10523000CA16D10448F6642D0E94B7268111DACE31
:1052400081E00E941B27D8CEE114F10409F077CF4A
:10525000512CF12CE12C80E00E941B27EB81FC817A
:10526000F093C003E093BF0381E08093BE03858188
:105270000E94A80F511010C0E114F10469F0AB8135
:10528000BC818D919C919C0124503109213A3105BA
:1052900008F07CCF0E94250FEB81FC8106811781ED
:1052A000C8019A9581159F4108F4107EFF24F3945C
:1052B000C8010197803B9D4508F0F12CAB81BC8172
:1052C0001996ED91FC911A97309731F01B966D91DC
:1052D0007C9181E00995F822FF2081F0EB81FC812F
:1052E000868197810E9433040E94A20FC801F8E0D2
:1052F000CF16D10408F04DCF0E94D7260E94E70FA9
:105300004FCFB0E0A0E0E7E8F9E20C94B9347C01BB
:105310005B01C42FD22FFC0182818823C9F0409306
:10532000C3030E94A72C9093C2038093C10380E221
:105330008C0F883040F4C77081E001C0880FCA9597
:10534000EAF70E944E07CDB7DEB7EAE00C94D534F9
:105350001091C303141338C08091C1039091C2030C
:105360000E94BF2C6C01B701C5010E94D11BC81659
:10537000D90650F5C0E2CD0F1D17C1F080E2810FB4
:10538000883048F4177081E0012E01C0880F0A941C
:10539000EAF70E945507C83048F481E09D2F9770C6
:1053A00001C0880F9A95EAF70E944E07802F0E944D
:1053B0004107C83040F6D77081E001C0880FDA9508
:1053C000EAF70E945507BFCF80E28C0F883008F0C3
:1053D000BACFC77081E001C0880FCA95EAF7F1CF54
:1053E0000F939C01CB01233F4CE5340759F1A8F4FE
:1053F000283DFCE53F0701F1293D4CE53407D1F19B
:10540000273D3C4591F406E221EE41EE67ED7CE557
:105410000E94812980E00F910895253FFCE53F0718
:10542000E9F0B0F0263F3C45F9F0FC018281882389
:1054300039F11092C303EFCF07E225EE45EE68ED98
:105440007CE5E6CF06E221EE40EE63EF7CE5E0CFBF
:1054500007E225EE44EE64EF7CE5DACF06E221EECA
:1054600042EE65EF7CE5D4CF07E225EE46EE66EF2F
:105470007CE5CECF08E221E045EE69ED7CE5C8CFC2
:1054800081E0C9CFCF93DF93EC01EA85FB853097AC
:1054900019F06C857D8509958B810E94980F8C8110
:1054A0000E94850F0E94E70F86E0FE0111928A9507
:1054B000E9F7DF91CF910895CF93DF93EC018D81D0
:1054C00081FD12C082608D838B810E94920F8C813E
:1054D0000E947F0F0E94E70FE885F985309721F041
:1054E0006C857D85CE0109951092C7031092C60385
:1054F0008D8180FD03C0CE010E94422ADF91CF91B1
:105500000895FB0122812223E1F0E091C603F0918E
:10551000C7033097B1F0E817F90799F02EE0E29F42
:10552000F0011124DF01A250BD4F2C9124602C9377
:10553000E750FD4F91838083CF010E945C2A0E9437
:105540009F0F0895EF92FF920F931F93CF93DF93D6
:105550008C0197558F3F910511F008F041C07801FB
:10556000FF248EE0089FF0011124EF01C750DD4FAA
:10557000DB0112962C91E250FD4F808120FB80F9D7
:105580008083222399F10E94A72C9093C5038093D6
:10559000C4038A818F5F8A830E947C0F8B830E9461
:1055A0008F0F9B81892B8B830E94AE0F8C83EE81A2
:1055B000FF81309721F06C857D85CE0109958EE0C5
:1055C0008E9DF0018F9DF00D1124E750FD4F8581D8
:1055D00081FF02C010E000E01093C7030093C603F0
:1055E00081E0CDB7DEB7E6E00C94D9348D8181FF40
:1055F000F7CFCE010E94422AF3CFA6E0B0E0E3E06D
:10560000FBE20C94BF348091C6039091C703892BB1
:1056100041F18091C4039091C5030E94BF2C8C017D
:10562000BE016F5F7F4F86E0FB0111928A95E9F71B
:105630008091C6039091C7030E94D11B80179107E8
:1056400080F48091C603FEE08F9FC0011124FC010D
:10565000E250FD4F208122FD04C087509D4F0E94E3
:105660005C2A2696E4E00C94DB349093A9018093A5
:10567000A80108959093CD038093CC030895E09101
:10568000CC03F091CD03309729F00190F081E02D0B
:105690000995089580E00895E091CC03F091CD0341
:1056A000309799F020911A01222359F02091F403A8
:1056B00027FF07C0DC012C9111962C93119726E04F
:1056C0002C930280F381E02D099508952091CA035F
:1056D0003091CB032817390771F09093CB03809357
:1056E000CA03E091CC03F091CD03309721F00680FE
:1056F000F781E02D099508952091C8033091C903E1
:105700002817390771F09093C9038093C803E0917B
:10571000CC03F091CD03309721F00084F185E02D8A
:1057200009950895FC01329680911A01882321F091
:105730008091F4039EE187FF96E080E0915008F4A9
:10574000089521912223D1F38F5FF8CF662301F1D1
:1057500020911A012223F1F02091F40327FF1AC0AF
:10576000462F4695469546954E3190F4677021E058
:1057700030E002C0220F331F6A95E2F7840F911DBB
:10578000FC01828190E02823392381E0232B69F4F6
:1057900080E00895FC01329608962191261721F0A9
:1057A000E817F907D1F7F4CF81E008959C01FC01D7
:1057B00032969FEF80E04191461751F09F3F19F4D8
:1057C000411101C0982F8F5F8630A9F79F3F09F4E0
:1057D0000895290F311D97FD3A95F90162830895C7
:1057E000FC01329608962191261303C0DF01119720
:1057F0001C92E817F907B9F70895E62FE695E695A4
:10580000E695EE3168F4E80FF92FF11D677021E09D
:1058100030E001C0220F6A95EAF78281822B8283F1
:105820000895E62FE695E695E695EE3170F4E80FDB
:10583000F92FF11D677021E030E001C0220F6A9559
:10584000EAF72095828128232283089520911A0166
:10585000222339F02091F40327FF03C00E94FD2B7F
:1058600008950E94D62B089520911A01222339F021
:105870002091F40327FF03C00E94112C08950E9479
:10588000F02B0895FC01329680911A01882351F083
:105890008091F40387FF06C08EE1DF011D928A9597
:1058A000E9F7089586E0F9CF08950E94542C0895F1
:1058B000811106C081E08093CE030E94552C08958B
:1058C00082E0F9CF83E08093CE030E94552C0895A7
:1058D0000E94582C089581E08093CE030E94552C9D
:1058E00008950E946B2C089508950895CF930E9407
:1058F000742C0E9435150E94752CC0E08C2F0E94DC
:105900006A14892B31F4CF5FC530C1F780E0CF91A5
:10591000089581E0FCCF85B7806885BF85B7806832
:1059200085BF089580913804843011F00E94AA0543
:1059300008950E947C070E94AD05089582E084BD11
:1059400093E095BD9AEF97BD80936E0008952FB7B1
:10595000F8948091300490913104A0913204B09178
:1059600033042FBF08952FB7F894609130047091DD
:10597000310480913204909133042FBF08959C012B
:105980004FB7F8948091300490913104A091320483
:10599000B09133044FBF821B930B0895CF92DF92D7
:1059A000EF92FF922FB7F894C0903004D09031045A
:1059B000E0903204F09033042FBFA7019601261B1C
:1059C000370B480B590BCA01B901FF90EF90DF90DC
:1059D000CF90089578941F921FB61F9211248F9331
:1059E0009F93AF93BF938091300490913104A09125
:1059F0003204B09133040196A11DB11D809330048F
:105A000090933104A0933204B0933304BF91AF91CB
:105A10009F918F911F901FBE1F90189581E08093DA
:105A2000E00080E28093D8001092C9008FE19EE4EC
:105A30000197F1F700C0000087E090EBDC01809354
:105A4000450490934604A0934704B093480488E12A
:105A50009CE00FB6F894A895809360000FBE9093D9
:105A60006000FFCF88E19CE00FB6F894A895809382
:105A700060000FBE90936000FFCF8091F203089505
:105A80000895CF93DF93EC0180911A018823B1F13F
:105A90008091F40387FF32C060E284E08093E900E4
:105AA0008FEF9091E800815095FD06C095ED9A9595
:105AB000F1F700008111F5CF8091E80085FF1BC050
:105AC00080911A0170E050E040E0811104C050E084
:105AD00040E068E070E0CE010E94CE2F8091E800A7
