:100000000C945A030C9492030C9492030C94920354
:100010000C9492030C9492030C9492030C9492030C
:100020000C9492030C9492030C942B210C94FF21BA
:100030000C94431C0C9492030C9492030C94920322
:100040000C9492030C9492030C9492030C949203DC
:100050000C9492030C94CA1C0C9492030C9492037B
:100060000C9492030C9492030C9492030C949203BC
:100070000C9492030C9492030C9492030C949203AC
:100080000C9492030C9492030C9492030C9492039C
:100090000C9492030C9492030C9492030C9492038C
:1000A0000C9492030C9492030C9492030102E23696
:1000B0000103E275000102E2600103E27500010242
:1000C000E2630103E263000102E2600103E2610016
:1000D0000102E2360103E261000102E2360103E2BD
:1000E00065000102E2600103E265000102E26501D0
:1000F00003E265003C2D003D3E002D3E00E900007E
:1001000000C9000000E8000000C8000000EA00008C
:1001100000CA000000EB000000CB000000E200007D
:1001200000C2000000E0000000C0000000E7000086
:1001300000C7000000EE000000CE000000AC200070
:10014000003F0E0000A9000000AE000000C903003F
:1001500000A9030000F4000000D4000000F9000032
:1001600000D90000005301000052010000C003004C
:1001700000B0000000F1000000D1000000B5000058
:1001800000C30300006422000065220000AB0000F1
:1001900000BB00000060220000482200001E220078
:1001A0000029003A003B003C003D003E003F00407B
:1001B0000041004200430044004500010046007732
:1001C00000AE0035001E001F002000210022002389
:1001D0000024002500260027002D002E002A0049BB
:1001E000004A004B002B0014001A000800150017ED
:1001F000001C0018000C00120013002F003000310A
:10020000004C004D004E0029210400160007000993
:10021000000A000B000D000E000F00330034000038
:1002200000282F000000000000E10001001D001B5D
:1002300000060019000500110010003600370038D4
:1002400000E1000100000052000000E2000100E3B4
:10025000000000000000002C42000000000000E749
:1002600000010000000B7E500051004F0029003AB1
:10027000003B003C003D003E003F0040004100428A
:1002800000430044004500010046007700AE003501
:10029000001E001F00200021002200230024002552
:1002A00000260027002D002E002A0049004A004B9E
:1002B000002B0014001A000800150017001C00187D
:1002C000000C00120013002F00300031004C004DD4
:1002D000004E00E00004001600070009000A000BB1
:1002E000000D000E000F0033003400000028000055
:1002F0000000000000E10001001D001B00060019C5
:1003000000050011001000360037003800E1000140
:100310000000005200000022520100E20000000034
:100320000000002C00000000000000E700010000B9
:10033000000C7E500051004F00010001000100013F
:1003400000010001000100010001000100010001A5
:100350000001000100010001000100010001000195
:100360000001000100010001000100010001000185
:100370000001000100010001000100010001000175
:100380000001000100010001000100010001000165
:10039000000100010001000100007C0100010001DA
:1003A00000010001002A000100010050005100522C
:1003B000004F0001000100000001000000000000EB
:1003C0000001000100010001000100010001002DF9
:1003D000002E0001000100027EE500010000000186
:1003E0000000000100010001000000000000000109
:1003F000000000000000000100010000000100AC4E
:10040000000100AB0001000100010001000100013A
:1004100000010001000100010001000100010001D4
:1004200000010001000100010001000100010001C4
:1004300000010001000100010001000100010001B4
:1004400000010001000100010001000100010000A5
:100450008002800480010018800E80168001000157
:10046000000100010001000100010001000A8001FB
:10047000000100010001005000510052004F000136
:100480000001000000010000000000000001000168
:1004900000010001000C80010001000100010001C9
:1004A0000001000100E50001000000010000000162
:1004B0000001000100000000000000010000000039
:1004C0000000000100010000000100AC000100ABD1
:1004D0000000000000000000002A2B28000000009F
:1004E00000000000000000000000000029000000E3
:1004F000002C1E3420212224342627252E362D3789
:1005000038271E1F202122232425263333362E3759
:10051000381F0405060708090A0B0C0D0E0F1011F1
:1005200012131415161718191A1B1C1D2F313023FE
:100530002D350405060708090A0B0C0D0E0F1011C6
:1005400012131415161718191A1B1C1D2F313035CC
:100550004C0000000000000000000000000000004F
:10056000000000000000000000000000000000008B
:1005700000000000007E0F00D4FFFFFFC700000056
:100580007812034D00650073006100200054004B99
:10059000004C0000001E034D006500730061002048
:1005A000004B006500790062006F0061007200641A
:1005B00000730000000403090409023B000201006B
:1005C000A0FA090400000103010100092111010042
:1005D0000122400007058103080001090401000110
:1005E00003000000092111010001226D00070582AE
:1005F0000320000112010002000000085A4E018091
:1006000001000102000105010980A1018503190112
:100610002AB700150126B700950175108100C005A5
:100620000C0901A101850419012AA002150126A0C7
:1006300002950175108100C005010906A10185061A
:10064000050719E029E715002501950875018102C4
:100650000507190029EF1500250195F075018102A4
:100660000508190129059505750191029501750384
:100670009101C005010906A101050719E029E71547
:100680000025019508750181029501750881010514
:1006900007190029FF150026FF009506750881003F
:1006A0000508190129059505750191029501750344
:1006B0009101C00011241FBECFEFDAE0DEBFCDBF35
:1006C00004B603FE18C080912E0390912F03A091D1
:1006D0003003B09131038730904BA740B04B59F4B1
:1006E00010922E0310922F031092300310923103B8
:1006F000E0E0F8E3099511E0A0E0B1E0ECE9FBE40B
:1007000002C005900D92A63CB107D9F723E0A6ECF4
:10071000B1E001C01D92AE32B207E1F70E94271589
:100720000C9485250C94000080E00E94F215089539
:10073000FB0185302EE7920709F4A2C0E8F481306E
:100740002EE7920709F48DC048F4813E9105E1F14E
:1007500081159E4709F474C081E008952281833099
:100760003EE7930709F485C008F474C060E082EEA8
:1007700090E0222389F36BC089302EE7920709F4B9
:100780009DC070F4228187303EE7930709F487C04B
:1007900008F47EC060E085EB90E02223E9F257C0C8
:1007A0008B302EE79207F1F108F480C08C309E4721
:1007B00099F68281882381F280E00E94F21581E01F
:1007C0000E946C0A80E039C08281882351F082E067
:1007D0000E946B070E94A31C9093C9018093C801DB
:1007E000BBCF8091C8019091C9010E94BB1C853686
:1007F000910520F082E00E947207AECF81EE0E9448
:10080000700681EE0E94F90682E00E94720783E082
:100810000E945C0A63E083E00E94090F81E00E946D
:10082000270F9ACF8281882309F496CF84E00E9413
:10083000F21580E00E946C0A81E00E945C0A8CCF75
:100840008281882309F488CF60E08AEF90E00E94DB
:100850007A1882CF60E087EF90E0222309F47CCF02
:10086000F6CF8281882309F477CF60E084EF90E0AF
:10087000EECF60E08BEE90E0222309F46DCFE7CF5E
:100880008281882309F468CF60E089ED90E0DFCFB2
:1008900060E080ED90E0222309F45ECFD8CF60E0E5
:1008A00087EC90E0222309F457CFD1CF82818823AF
:1008B00009F452CF60E08EEB90E0C9CF82818823AB
:1008C00009F44ACF60E08CEA90E0C1CF8430B8F4FC
:1008D0006630A8F4413198F450E091E1699F400DF1
:1008E000511D1124FA0196E6899FE00DF11D112496
:1008F000EE0FFF1FEF55FE4F85919491089580E014
:1009000090E008950E94660408959C013A9521158F
:100910003F4150F5FC01EE27F170BC016627727073
:10092000AC01442754709C012227387094FF0EC0FC
:1009300080E1EF2B09F480E0672B09F08062452B02
:1009400009F08064232B89F08068089581E0EF2B03
:1009500009F480E0672B09F08260452B09F0846080
:10096000232B19F08860089580E00895CF93DF93DA
:10097000EB010E948504FE010995DF91CF91089556
:10098000CF93DF93EC01805E9109089720F06DEA28
:1009900079E0209711F46BE677E0CE010E94B6046F
:1009A0008C2F0E947006DF91CF910895CF93DF9333
:1009B000EC010E94F906CE01805E9109089720F0B3
:1009C00064EB79E0209711F462E777E0CE010E94B2
:1009D000B604DF91CF9108950F931F93CF93DF93C8
:1009E0008C01EB010E94C004209741F4C8010E94D1
:1009F000D604DF91CF911F910F9108958FE99FE069
:100A00000197F1F700C000002197EECF70E060E0A1
:100A10008933910511F460E570E00E94EC040895BB
:100A200081E008950E949803089508950E94150595
:100A30000895A5E0B0E0EFE1F5E00C94CF23498301
:100A40005A833091CF0189819A81311119C066236F
:100A500099F0222389F00E94220B182F682F898198
:100A60009A810E94FE0A69817A81812F0E94E21197
:100A70002596E3E00C94EB230E94100B182FF3CF84
:100A80000E94220B69817A81F1CFFC01262F4081DF
:100A900051816281738184810E941905089581E0EA
:100AA0000895CF93DF93EC0160E00E944505BE01FD
:100AB0000E941605DF91CF9108950E94FA120895C1
:100AC0000E94FE12089508950E94CD090E946305B8
:100AD0002FEF84E39CE0215080409040E1F700C07C
:100AE000000008950E9464050E94EE1C08950E9473
:100AF00064050E94121D08950F931F93CF93DF93F7
:100B00008C0161E00E944505EC01B8010E941A1AAF
:100B1000882329F061E0C8010E944505EC01B80175
:100B2000CE010E941205811106C080E0DF91CF91B5
:100B30001F910F910895B801CE010E94401A882399
:100B4000A1F3B801CE010E947715882371F3B80193
:100B5000CE010E947019882341F3B801CE010E9492
:100B60003617882311F3B801CE010E94E2188823BA
:100B7000E1F2F8018281882361F0C330FCE7DF07EE
:100B8000E9F058F4C115ECE7DE07A9F0C130DC4705
:100B9000B9F0C8010E941005C9CFCB358CE7D80742
:100BA000A9F0CC35ECE7DE0771F0CA35DC4789F7F0
:100BB0000E94620FEECF0E947205B7CF0E946A0FAB
:100BC0000E947705B2CF0E94580FE3CF0E94660FB4
:100BD000E0CF0E941D1C0E94130608950E94170674
:100BE0000E94221C089508950E94F305089581E053
:100BF00008950895CF93DF93D82F0E94F705C82F4B
:100C0000882319F08D2F0E94F9058C2FDF91CF9149
:100C100008950895CF93C82F0E94F4058C2F0E9449
:100C2000FA05CF91089580E00E940A0608950E9477
:100C3000C51A0E940A060895CF930E94C51AC82FAC
:100C40008091CA018C1779F0C093CA010E94AF1C31
:100C50006093CB017093CC018093CD019093CE0132
:100C60008C2F0E940A06CF910895ABE0B0E0EBE331
:100C7000F6E00C94D0234F83588769877A878B8757
:100C800061110E94A30E1E821D8285E0FE0137962F
:100C9000DE01119601900D928A95E1F78C819D817C
:100CA000892B61F449815A816B817C818D819E8180
:100CB0000E94C60D2B96E2E00C94EC2389819A8168
:100CC00089238F3F79F3CE0101960E944F05811150
:100CD000E9CFF0CFFC01808191810E94540B0895EF
:100CE000CF93C82F8823C9F08238C9F40E94C51A4F
:100CF00081FD13C089E30E94550E0E94C40E2FEFA0
:100D000087EE93E0215080409040E1F700C0000062
:100D100089E30E945D0E0E94C40ECF91089583382E
:100D2000A1F40E94C51A80FDF8CF83E50E94550EFC
:100D30000E94C40E2FEF81EE94E02150804090403D
:100D4000E1F700C0000083E5E4CF8438A1F40E94FD
:100D5000C51A82FDE2CF87E40E94550E0E94C40EA0
:100D60002FEF81EE94E0215080409040E1F700C0E9
:100D7000000087E4CECF8CEF8C0F813A90F46C2F7B
:100D800080913801909139010E944D1B882329F0F0
:100D90008C2F0E945D0E0E94C40E8C2F0E94550E57
:100DA000BACF80E28C0F883048F4C77081E001C070
:100DB000880FCA95EAF70E94800EADCFEBE5EC0FE5
:100DC000E33040F4F0E0EB58FE4F808190E00E9469
:100DD000EF1AA3CFC85AC93108F09FCFEC2FF0E02B
:100DE000EE0FFF1FED5BFE4F808191810E94141B6F
:100DF00094CF882309F44DC0823879F40E94C51A33
:100E000081FF47C089E30E94550E0E94C40E89E30A
:100E10000E945D0E0E94C40E0895833859F40E940A
:100E2000C51A80FF36C083E50E94550E0E94C40E8D
:100E300083E5EECF843859F40E94C51A82FF29C099
:100E400087E40E94550E0E94C40E87E4E1CF9CEF18
:100E5000980F913AE8F290E2980F983050F487702A
:100E600091E001C0990F8A95EAF7892F0E94860EBA
:100E7000D1CF9BE5980F933028F490E080E00E945A
:100E8000EF1A0895885A893120F490E080E00E949A
:100E9000141B08951F93CF93DF93182FEB010E942B
:100EA0007006209739F4812F0E94F906DF91CF91C7
:100EB0001F9108958FE99FE00197F1F700C00000AE
:100EC0002197EFCF70E060E0893311F460E570E0C6
:100ED0000E944A070895882321F00E94800E0E94F4
:100EE000C40E0895882321F00E94860E0E94C40E2D
:100EF0000895B0E0A0E0EFE7F7E00C94C9236C019F
:100F0000D62FC72FFC011281F580F2949FE0F922C1
:100F10000E94760EE82E8823B9F0E12E1123A1F06D
:100F20008C2F807F803421F080E28D0F8830D0F0CC
:100F30008091E20282FF16C082E00E94270F0E9489
:100F4000760E91E0E82EE926BC2EB2948FE0B8220E
:100F5000FBE0FB1508F468C0EB2DF0E0E957FA4D13
:100F60000C94BA23E12CF0CF0C2F0F70C07F11F03E
:100F70000295007F112399F0002359F080E28D0F34
:100F8000883010F0D11107C0802F0E94800E0E947F
:100F9000C40E8D2F41C0802F0E94960EF8CF8D2F4A
:100FA0000E94F906002309F43FC080E28D0F8830CB
:100FB00010F0D11104C0802F0E94860E03C0802F34
:100FC0000E949C0E0E94C40E2FC00C2F0F70C07F79
:100FD000C03211F00295007FDD2381F0D13009F499
:100FE00068C0112309F472C0FF2009F468C0F6013B
:100FF000858180FFCECF8F70858361C08091E202B2
:1010000082FD33C0112359F0002329F0802F0E9464
:10101000800E0E94C40E80E00E94700605C080E031
:101020000E94F9060111C7CFEB2DE850FF0B349752
:1010300020F40E94C51A0E940A06EE2089F00E9440
:10104000720E80FD0DC0F60112820E946C0E0E948D
:101050005C0AC6010E9483090E946C0E0E946C0A01
:10106000CDB7DEB7E9E00C94E523112389F0F11048
:1010700006C00E94A60E802B0E946B07D5CF21E0F0
:10108000F212F7CF0E94A60E802B0E94AD0ECCCF9D
:10109000F11006C00E94BA0E802F0E947207C4CFC2
:1010A00031E0F31609F2802F0E9472070E94BA0EF7
:1010B000BBCF112331F085E08F1508F4B5CF802F19
:1010C000DBCF94E09F1508F4AFCFE6CFFF2021F3EC
:1010D000D93349F4FFEF27EE33E0F15020403040A0
:1010E000E1F700C000008D2F0E94F9069DCF8C2FE4
:1010F00086958695837069F0813009F095CF8D2FA4
:101100009C2F9370111102C080E090E00E94141B8C
:101110008BCF8D2F9C2F9370111102C080E090E037
:101120000E94EF1A81CF8C2F8370A1F511117CCF13
:101130004D2F429546954770440F440F2D2F2F7029
:1011400030E0042E02C0220F331F0A94E2F790E031
:1011500080E0D4FF09C08FE090E002C0880F991FA3
:101160004A95E2F780959095C695C695C370822BF7
:10117000932BC23049F058F4C13019F00E942C0A68
:1011800053CF0E94230A50CF0E94350A4DCF0E94B0
:10119000200A4ACF8695112311F08C2F8170882365
:1011A00009F442CF4D2F429546954770440F440FA6
:1011B0002D2F2F7030E0042E02C0220F331F0A940F
:1011C000E2F790E080E0D4FF09C08FE090E002C039
:1011D000880F991F4A95E2F780959095C695C69518
:1011E000C370822B932BC23049F058F4C13019F0F0
:1011F0000E94970A19CF0E948E0A16CF0E94A00A59
:1012000013CF0E94440A10CFCF70112329F08C2FE6
:101210000E945C0A8D2F30CF8D2F0E9472078C2F79
:101220000E946C0A01CFD23F51F160F4D03FB9F077
:10123000D13F81F0112309F449C0F110AACE8C2FBF
:101240008F7121C0D33F11F1D43FA1F78091E20209
:1012500082FD26C08C2F8F71112311F314C011232E
:1012600049F084E08F1508F4DFCE8C2F8F710E9437
:101270007E0ADACE95E09F1508F4D6CEF6CF8C2FF5
:101280008F711111CDCF0E945C0ACECE112329F0AF
:101290008C2F8F710E94500AC7CE0E944B0AC4CE79
:1012A000112349F0CF718C2F0E945C0A63E08C2FD0
:1012B0000E94090FB9CE81E00E94270FE1E0EF15EF
:1012C00008F0B2CE82E00E94270FAECEF11000CF20
:1012D0008C2F8F71A5CF0F931F93CF93DF93EC01CA
:1012E000688179818A810E945F0B8C010E94A90A22
:1012F0000E941F0AB801CE010E947907DF91CF91A9
:101300001F910F910895CF93DF93EC018B819C8106
:10131000892B29F08881998189238F3F51F4DF91AE
:10132000CF910895CE010E946B09CE010E94510514
:10133000F6CFCE010E947C058111F4CF0E94760E7B
:10134000882369F38A81882351F38091E20282FF26
:10135000E6CF82E00E94270FE2CF882321F00E948F
:10136000960E0E94C40E0895882321F00E949C0EC0
:101370000E94C40E089590E080E00E94EF1A90E071
:1013800080E00E94141B0E94A30E0E94C40E0895C8
:101390000E94650E0E94BB0908950E94900E0E9453
:1013A000C809089592959F70963091F058F4925F15
:1013B0009F70923058F4803F19F030F4883E30F43A
:1013C00081E008959A5FF4CF843FD1F380E00895DF
:1013D000883EB0F3813FD1F7F3CFFC018381948144
:1013E000892B29F08081918189238F3F11F480E03E
:1013F0000895808191810E94540B0E94D209089522
:10140000A5E0B0E0E6E0FAE00C94D0232596E2E017
:101410000C94EC23A6E0B0E0E0E1FAE00C94D023D9
:101420002696E2E00C94EC2308950E94140A089595
:101430000E94150A9093070280930602089508956A
:101440000E94180A08952091060230910702822B0B
:10145000932B0E94180A08952091060230910702EA
:10146000822393230E94180A089520910602309146
:101470000702822793270E94180A08950E94140ADF
:1014800008950E943E0A08950E94410A9093050221
:1014900080930402089590E080E00E94440A089539
:1014A00021E030E0A90102C0440F551F8A95E2F700
:1014B000CA010E94440A089521E030E002C0220FD0
:1014C000331F8A95E2F78091040290910502822BE6
:1014D000932B0E94440A089521E030E002C0220FBD
:1014E000331F8A95E2F72095309580910402909100
:1014F0000502822393230E94440A089521E030E0EC
:1015000002C0220F331F8A95E2F780910402909166
:101510000502822793270E94440A0895209104021D
:1015200030910502822B932B0E94440A089520914A
:10153000040230910502822393230E94440A0895F5
:101540002091040230910502822793270E94440AC9
:1015500008950895262F277091E001C0990F2A95CC
:10156000EAF723E0769567952A95E1F7660F771FEE
:10157000660F771FFA01E60FF71F50E040E0682F73
:1015800070E08191DF0111979B01042E02C0369516
:1015900027950A94E2F721702195282729232827E7
:1015A0002C934F5F5F4F4430510559F70895A82F92
:1015B000A77023E0969587952A95E1F7880F991FE4
:1015C000880F991FFB01E80FF91F50E040E080E011
:1015D000219130E00A2E02C0369527950A94E2F751
:1015E00021703327042E01C0220F0A94EAF7822BC0
:1015F0004F5F5F4F4430510559F70895262F9630BD
:1016000070F4813160F4682F70E081E1989F600D83
:10161000711D112440ED51E0822F0E94AA0A089505
:10162000292F963068F4813158F490E060ED71E034
:1016300031E1239F800D911D11240E94D70A089546
:1016400080E00895B0E0A0E0E8E2FBE00C94C9235C
:101650007C01009104021091050280910602909194
:101660000702082B192BCFE0D0E0CC24C394D12C57
:10167000BC2EC6010C2E02C0880F991F0A94E2F7F7
:1016800080239123892B49F4219790F7B12C8B2D3E
:10169000CDB7DEB7E9E00C94E523B7018C2F0E94AB
:1016A000EE11019789F3F3CFCF93DF93EC010E9402
:1016B000220BBE010E94EE11DF91CF9108951F937E
:1016C000CF93DF93EB019091CF01992339F0CB01B8
:1016D0000E94540BDF91CF911F910895882369F0E8
:1016E000CB010E94220B182F682FCE010E94FE0A08
:1016F000BE01812F0E94EE11EDCFCB010E94100B95
:10170000182FF6CF1F93CF93DF93C091080216E0F6
:10171000809109028C1304C0DF91CF911F9108952D
:10172000D0E01C9FF0011D9FF00D1124E65FFD4FDE
:101730004081518162817381848195810E940A0A6E
:101740002196C770E5CF40913A0250913B026091DB
:101750003C0270913D0280913E0290913F020E94B6
:101760000A0A0895209108029091090256E029136F
:1017700002C080E0089530E0529FF001539FF00DC9
:101780001124E65FFD4F7181761306C070817813D6
:1017900003C07281741304C02F5F3F4F2770E7CFDF
:1017A00081E008951F93CF93DF9380913F02807F64
:1017B00009F049C080913C02882309F444C080911B
:1017C0000802C091090260913A0270913B02A09117
:1017D0003D02B0913E02D62FD72316E0C81799F1EB
:1017E00090E0109711F0DF3F19F401968770F6CF63
:1017F000189F9001199F300D1124F901E65FFD4FEC
:1018000041814713F2CF40814613EFCF428141110E
:10181000ECCF438154814A1B5B0B483C510528F7B0
:1018200080913F028F70806180933F02F901E15FF8
:10183000FD4F80818F70806180838AE392E00E94F7
:1018400083090E94820BDF91CF911F910895A1E13E
:10185000B0E0EDE2FCE00C94C6238C0185E0F801D9
:10186000DE011D9601900D928A95E1F7D80112963E
:10187000EC9012978AE3A82E82E0B82E40913D02A8
:1018800050913E024115510509F461C190913A020F
:1018900020913B02892F82238F3F09F458C1CC90BD
:1018A0001196DC90119713968D909C901497F09060
:1018B0003C02F401E41BF50BFF2009F4F6C0809113
:1018C0003F02382F307FE83CF10508F0B0C03111FD
:1018D0007BC0FE2CD21217C09C1115C0E11013C0A2
:1018E0008F70806180933F020E94A30BC5010E940C
:1018F000830980913F02D80115968C938F2D6196B4
:10190000ECE00C94E2238114910429F08D2D8C21BC
:101910008F3F09F038C180E080FF15C04E2D6D2D3E
:101920008C2D0E94B20B882371F08AE392E00E9412
:10193000830986E0EAE3F2E0DF011D928A95E9F788
:101940000E94A30B3FC08114910429F08D2D8C219E
:101950008F3F09F015C180E0B82FB170AB2E80FF2A
:1019600029C04E2D6D2D8C2D0E94B20BB82E8111E9
:1019700021C0CD86DE868D859E850E94540B292F41
:1019800022952F70223050F0243078F49F7051F05F
:10199000F8019581907F31F4FB2CB0CF9F7011F04E
:1019A0008823D1F3805E8830B8F3C8010E94830990
:1019B000BA2CF2CFEE2009F4A1CF80913F028160D2
:1019C00080933F02F12C9ACFD21205C09C1103C024
:1019D000EE2009F487C0C8010E94ED09882319F19F
:1019E000EE2009F180913F02803270F020913A029E
:1019F00030913B0238872F8319869B868A868C8795
:101A0000CE0107960E94830986E0F801AAE3B2E0BE
:101A100001900D928A95E1F70E94D20B0E94A30BD0
:101A2000FF24F3946BCFC8010E948309F9CF3111D1
:101A300012C0782D998A888AA6016E2D89890E9404
:101A4000000A8AE392E00E94830986E0F501119280
:101A50008A95E9F775CFD2120FC09C110DC0E11025
:101A60000BC015968C93C8010E94830986E0F5018E
:101A700011928A95E9F742CFC8010E94ED098823A7
:101A800091F2EE2081F280913F02803208F4BCCFC7
:101A900020913A0230913B023A8329831B829D8236
:101AA0008C828E83CE010196ADCFE83CF10508F023
:101AB00040C0FE2CEE2009F4B6CFD2122CC09C11EF
:101AC0002AC080913F0280FD1DC0982F907FD1F0E9
:101AD00015968C931597903F39F0982F907F905FD3
:101AE0008F70892B15968C93C8010E94830986E01C
:101AF000F801AAE3B2E001900D928A95E1F70E9405
:101B0000A30BFCCE86E0F801AAE3B2E001900D92AF
:101B10008A95E1F7F3CEC8010E94ED09811174CFD7
:101B200080913F02816080933F02C8010E94830937
:101B3000E5CE782D998A888AA6016E2D89890E9422
:101B4000000A86E0F50111928A95E9F7D8CFEE20D8
:101B500009F469CFC8010E94ED09F82E882309F421
:101B600062CF86E0F801AAE3B2E001900D928A9577
:101B7000E1F78AE392E00E946A060E94D20BBFCF8F
:101B800081E08E25E9CE81E08E25C6CEACE0B0E0C6
:101B9000ECECFDE00C94CF234F83588769877A875C
:101BA0008B879C87CE0107960E94270C882369F0BB
:101BB0008A859B85892B39F04F815885842F852311
:101BC0008F3F09F06BC016E05FC086E0FE013796DC
:101BD000DE01119601900D928A95E1F78A859B8529
:101BE000892B89F38F81988589238F3F61F3209119
:101BF000090230E0C90101968770992740910802D7
:101C00004817190671F40E94CD091092090210922A
:101C1000080286E0EAE3F2E0DF011D928A95E9F727
:101C2000D2CF96E0929FD001939FB00D1124A65F72
:101C3000BD4FFE01319601900D929A95E1F7809388
:101C400009020E94820BBFCF819FC0011124865FD1
:101C50009D4F0E94270C8823E9F0E09108021E9F07
:101C6000F0011124E65FFD4F408151816281738153
:101C7000848195810E940A0A8091080290E0019671
:101C80008770992780930802809108029091090239
:101C90008913DACF2C96E3E00C94EB2369857A85DF
:101CA0008B859C850E940A0A8ECF682F809138010F
:101CB000909139010E94CD1B0895682F80913801C1
:101CC000909139010E94DB1B089580913801909119
:101CD00039010E94E91B08958091600285958595E0
:101CE00085950895809160028770089590916002B3
:101CF000977081E009F480E008958091830208954F
:101D000090918302892B809383020895809590910E
:101D10008302982390938302089580938302089509
:101D20001092830208958091820208959091820218
:101D3000892B809382020895809590918202982346
:101D40009093820208951092820208958091610218
:101D5000089508950E94A90E08959091E20292FFBD
:101D600008C090916102981721F0809361020E944F
:101D7000AA0E089580916102882329F010926102D1
:101D800080E00E94AA0E0895CF93DF93E09138017E
:101D9000F0913901809183028083E0913801F091C4
:101DA0003901808190918202892B80839091610218
:101DB000992381F0E0913801F09139018081892BDC
:101DC000808380913801909139010E94391B8111E3
:101DD0000E94BA0EC0913801D091390140E250E022
:101DE00060E472E0CE010E943625892B59F080E232
:101DF000FE01A0E4B2E001900D928A95E1F7CE01D8
:101E00000E94D51ADF91CF91089508950E94050F81
:101E100008959091E20292FF11C098E0899F90018D
:101E20001124622B609360020E945C0A8091600220
:101E30008595859585950E94060F08950E945C0AF8
:101E400008951092600280E00E94060F089590911C
:101E500060028095892380936002282F277091F477
:101E6000282F082E000C330B9217130659F090916F
:101E7000E20292FF07C08595859585950E946C0AC0
:101E80000E94210F08959091E20292FB222720F9EF
:101E9000281769F080FB92F99093E2028091E102A9
:101EA0009091E2020E948B0F82E00E94270F08951A
:101EB0008091E20282FB882780F991E089270E94C5
:101EC000430F089581E00E94430F089580E00E942F
:101ED000430F08956FEF7FEF90E080E00E946F2541
:101EE000089590E080E00E944B2521E0873E9E4FC0
:101EF00009F020E0822F089582E090E00E944325BF
:101F0000089583E090E00E944325089584E090E0E6
:101F10000E944B250895BC0184E090E00E946F254B
:101F20000895AB01BC018FE090E00E946325089505
:101F3000AB01BC0183E190E00E946325089560E05D
:101F400070E0CB010E94980F089560E070E0CB0133
:101F50000E94910F0E949F0F089567EE7EEF90E020
:101F600080E00E946F2560E082E090E00E945125B1
:101F700060E083E090E00E945125109207021092E9
:101F8000060260E074E184E090E00E946F2560E06A
:101F900086E090E00E9451256FEF87E090E00E947C
:101FA000512540E050E0BA0188E090E00E946325AE
:101FB00060E08DE090E00E94512540E050E0BA01E1
:101FC00088E190E00E94632560E087E190E00E9454
:101FD000512540E050E0BA018CE190E00E94632579
:101FE00070E060E080E290E00E946F2540E050E009
:101FF000BA0188E190E00E9463250E94A50F089530
:102000000E94AD0F0895682F8EE090E00E94512548
:1020100008950E94AF1C6093A2027093A302809364
:10202000A4029093A50260939E0270939F028093F6
:10203000A0029093A1020895089508950E941D1092
:1020400008950E949403089588ED92E10E94BB1ABE
:102050000E941C100E941E10089581E008950E94A5
:102060002D100895089508950E9432100E94331093
:1020700008950E94DB120E9409060E94C715089568
:102080000E949A1C0E94D2130E9439100E942110B3
:102090000895ACE0B0E0EFE4F0E10C94C1230E94BD
:1020A000E81386E892E09C878B877C0110E0F701BB
:1020B00041905190619071907F01812F0E94011396
:1020C0001F5F163009F465C0461657066806790684
:1020D00071F38091A60281FD0E940C130E942F10C3
:1020E000382E10E0812F0E9401136B017C01EB85DB
:1020F000FC854190519061907190FC87EB87C414EE
:10210000D504E604F704F1F146265D2468267F2411
:1021100000E0812C912C54018394D301C2018821C9
:102120009921AA21BB21892B8A2B8B2BE9F0332003
:10213000D9F00E831F8321E0D701C60188219921A0
:10214000AA21BB21892B8A2B8B2B09F420E028871D
:102150000E94A31C8160782F9A8789874E815F81B6
:1021600068858A850E9435060F5F880C991CAA1C19
:10217000BB1C013191F6EB85FC853497C082D1827E
:10218000E282F3821F5F163009F0ACCF0E94091083
:1021900024C0461657066806790609F09ACF0E94B1
:1021A000A31C8C0180918402909185020817190765
:1021B000A1F08FEF89838A831B820E94A31C816018
:1021C000782F9D838C8349815A816B818D810E94F8
:1021D000350610938502009384020E949B1A0E9488
:1021E0001C062C96E1E10C94DD23CF93DF930E9433
:1021F000F311EC01811520E59207D0F5811530E44B
:10220000930708F086C0803E910518F58D3C910536
:1022100008F07DC0883A910570F4853A910508F080
:102220006EC08130910501F10097F1F00497E0F460
:10223000D0E0C0E019C0813C9105D0F7C85AD0E089
:10224000CC0FDD1FC858DE4F0990D881C02DD46453
:102250000BC08115904208F0A8C0C11581E0D807D5
:1022600018F4C83ED10520F7CE01DF91CF91089533
:10227000803622E5920710F5803432E5930708F0A6
:1022800052C08032924508F047C0C11582E5D80798
:1022900008F47DC02C2F2695269540E2249F9001BE
:1022A00011248C2F8370C1E0D0E002C0CC0FDD1F61
:1022B0008A95E2F7C22BD32BDD68D6CF803A22E590
:1022C000920760F4803832E5930708F441C0CF717B
:1022D000D0E0DC2FCC27C46FD06AC6CF803C42E56B
:1022E000940708F449C0C03E82E5D80708F0A0CFA3
:1022F000DC2FCC27CC27DF71C06FD06AB5CFC55A91
:10230000D0E0C655DE4FC881D0E0D064ADCFD065F7
:10231000ABCFDF70D06AA8CFCF71D0E0DC2FCC2755
:10232000C16FD06AA1CF282F26952695277080E20D
:10233000289F900111248C2F8370C1E0D0E002C04F
:10234000CC0FDD1F8A95E2F7C22BD32BDC688CCF34
:10235000282F26952695277040E2249F900111246E
:102360008370C1E0D0E002C0CC0FDD1F8A95E2F798
:10237000C22BD32BDA6878CF8F710E949512C82FA9
:10238000D0E0DC2FCC27CC27DF71D0626DCF8C2F33
:102390008F710E94951235E0D695C7953A95E1F771
:1023A000CF709C2FEC01D0695FCF8D2F8F710E9471
:1023B000951290E0982F882788279F719C012C2BDD
:1023C000E901E3CF462F763030F4613120F4672FF6
:1023D0000E948204089590E080E008950E94E21136
:1023E0000E94F510089582389105B9F1B0F4813357
:1023F000910509F47DC048F48932910509F46DC056
:102400008A32910509F47BC008958533910509F45A
:102410005FC08933910509F10895833E9105D9F193
:1024200038F4803E910529F1823E910579F10895B5
:10243000863E9105D9F1873E910509F43EC0843E60
:10244000910541F52091E20221FF24C08091E10233
:1024500084FD19C087EE90E008952091E102237079
:1024600009F05AC02091E20223FF14C089E290E0F3
:1024700008952091E10220FD38C03091E20230FF42
:1024800009C024FF43C090E080E008952091E1025C
:1024900022FDF7CF08952091E10222FD3AC030914C
:1024A000E20230FD39C024FFF5CFEDCF2091E102EB
:1024B00023FFF0CF24FDE7CFCDCF2091E10223FD14
:1024C0002EC03091E20231FFEECF84EE90E008950D
:1024D0002091E10225FFDECFC9CF2091E10225FD49
:1024E00021C02091E20223FFD5CF89E390E0D2CF33
:1024F0002091E10226FFCECF8AE290E0089520915C
:10250000E10226FFC7CF81E390E0089583EE90E0DB
:10251000089582EE90E0089580EE90E0089586EEB2
:1025200090E0089585E390E008959091E10292FF94
:1025300006C0282F28712830F9F4877F846093FF24
:1025400006C0282F28712831F1F4877E84612091FC
:10255000E20220FF06C0382F38713830D9F4877F67
:10256000816021FF06C0282F28712831D1F4877E91
:10257000816194FD877E0895282F24712430F9F617
:102580008B7F8860DCCF282F2471243101F78B7E6C
:102590008861DDCF382F3171313019F78E7F886037
:1025A000E0CF282F2171213121F78E7E8861E1CF84
:1025B00080E0089508950E94710F811102C00E9469
:1025C00000100E947C0F8093A6020E94860F9093B9
:1025D000E2028093E1020E94DA120E94810F90E0F1
:1025E0000E94200A80910402909105020E94410AF3
:1025F000089508950E94F912089508950E94FD1209
:10260000089594E0899FF0011124E550FD4F608109
:102610007181828193810895089580EA8A95F1F706
:10262000089500C008950E940D130895F894E82FAE
:10263000E295EF70F0E031A1282F2F7081E090E05B
:1026400001C0880F2A95EAF7982F9095932391A3BC
:1026500092A1892B82A378940895CF93DF93CEEB38
:10266000D1E089918F3F11F00E94161381E0C43CA4
:10267000D807B9F7CDEAD1E089918F3F11F00E94D8
:10268000161381E0CE3BD807B9F7DF91CF910895BB
:102690004F925F926F927F928F929F92AF92BF9272
:1026A000DF92EF92FF920F931F93CF93DF938C01F2
:1026B000D62EC62FD0E0CE0182549E4F7C01FC0165
:1026C00020812F3F09F45EC0F894E22FE295EF706D
:1026D000F0E031A12F7081E090E001C0880F2A95D1
:1026E000EAF7932F982B91A392A18095892382A337
:1026F00078940E941113EDEAF1E02EEB31E0412CC9
:10270000512C32014394812C912C540181918F3FA3
:1027100089F0A82FA295AF70B0E090964C9150E050
:102720008F7002C0559547958A95E2F7D301C20193
:1027300040FF03C080E090E0DC01882A992AAA2AA1
:10274000BB2A440C551C661C771C2E173F07F1F65C
:10275000F70180818F3F11F00E94161361E0811410
:102760009104A104B10409F460E08D2D0E941313BB
:10277000CC0FDD1FCC0FDD1FC00FD11F88829982C7
:10278000AA82BB82DF91CF911F910F91FF90EF90B2
:10279000DF90BF90AF909F908F907F906F905F90F1
:1027A0004F9008950E942D1388E1EBEFF2E0DF01D6
:1027B000982F1D929A95E9F7E3EEF2E0DF011D9262
:1027C0008A95E9F786E00E9423140E945D0508952A
:1027D000A8E1B0E0EEEEF3E10C94CD238E010F5FA3
:1027E0001F4F88E1F80111928A95E9F7F12C6F2DBE
:1027F000C8010E944813F394F6E0FF12F8CF48E1B5
:1028000050E0B80183EE92E00E94362521E0009767
:1028100009F420E0892B41F088E1F801A3EEB2E051
:1028200001900D928A95E1F746E06BEF72E083EE3E
:1028300092E00E943E14182F0E946005812F689636
:10284000E5E00C94E923CF93C82F21E1829FC001DA
:1028500011240E940B248093AC029093AD029C0142
:1028600080E08C1302C0CF910895F90191E111929B
:102870009150E9F78F5F2F5E3F4FF3CFAAE0B0E0B2
:10288000E4E4F4E10C94C0238E83F92EE62ED72ED7
:102890004D83122F1092A7020091A902002309F480
:1028A00096C00E94A31C2091AA023091AB02AC01F9
:1028B000421B530B9A019093AB028093AA024F3FA5
:1028C000510509F0C0F4452B91F01092A902109225
:1028D000A8028091AC024091AD0230E060E090E04F
:1028E0007D8079120BC06093A9023093A802111168
:1028F0007CC0102F6EC02FEF30E0E7CFE82FF42F11
:10290000AF014F5E5F4F8191882331F0DF01119756
:10291000281748F01C92302FE417F507A1F78E2FE7
:102920004F2F9F5FDDCF821B8C93602FF5CFE98106
:10293000FA814191519161917191FA83E983F10199
:1029400080819181A281B3816A017B01C826D92649
:10295000EA26FB26CF82D886E986FA86F80130E09F
:1029600020E075016401022E04C0CC0CDD1CEE1CBD
:10297000FF1C0A94D2F74F80588469847A844C20D3
:102980005D206E207F20411451046104710469F0C0
:10299000708071100AC045E040838C259D25AE25CE
:1029A000BF2551E05B8341E04C8331962F5F3F4F61
:1029B00021313105B1F60F5E1F4FF10181939193E3
:1029C000A193B1931F01FE81FF5FFE8322C02111FD
:1029D00006C08091A802882331F1111106C00E941F
:1029E000A31C9093AB028093AA020091AC021091B9
:1029F000AD02C090A902CC824091A7024B832E2C3D
:102A00003D2C7E807982FA821E82812C912C540189
:102A100083947D80CE807C108ACFDC80D092A90206
:102A2000EB80E092A7028091A7022A96E2E10C9443
:102A3000DC230E94811E0E9440100E948E1E089579
:102A40000E94931E0E9449100E94AD1E08950E948C
:102A50003C1C0E94671E0E9424100E9419150E94AF
:102A600020150E943410FBCF0F931F93CF93DF9359
:102A7000EC01C11580ECD80708F10E947D0E182FDB
:102A80000E94930E182B0E94A60E082F0E94D21AA5
:102A9000102B127291E009F490E0869581709817DE
:102AA00029F0CC0FCD2FCC1FDD0BD195CF77DD27B3
:102AB000CE01DF91CF911F910F910895DF73F8CF71
:102AC00097FF13C0FB012281222379F00E94341565
:102AD000FC01EE0FFF1FEE0FFF1FE350FF4F65914C
:102AE0007591859194910E94EE1681E008950F935F
:102AF0001F93CF93DF93EC018B01FB01828188232D
:102B0000B1F00E947D0E8272FE01E053FC47E83076
:102B1000F10568F4ED56FA4D0C94BA23811104C006
:102B200081E003C08111FCCF8FEF0E94FD15B80139
:102B3000CE010E946015DF91CF911F910F910895F2
:102B400080E00E94F215F3CF81E0FBCF82E0F9CF65
:102B500083E0F7CF84E0F5CF85E0F3CF90911403C5
:102B6000923071F48A3050F490E009966AE070E097
:102B70000E94A623875A0E94620708958650FBCFC1
:102B80000E946F18089508950E94C31508958CE05F
:102B900090E00E944325482F50E070E060E04093B1
:102BA000140350931503609316037093170388233F
:102BB00051F0843059F481E08093AE028091140387
:102BC0000E94C41508951092AE02F8CF1092AE0282
:102BD00010921403F3CF609114038CE090E00E94F4
:102BE00051250895CF93C82F809314030E94EB15AD
:102BF0008C2F0E94C415CF9108952091AE02082E0B
:102C0000000C990B820F911D27FD9A9562E070E0F0
:102C10000E94A6238F3F99F08093AE02E091AE020E
:102C20000E2E000CFF0BEC53FE4F8081809314039B
:102C30000E94EB15809114030E94C415089581E051
:102C4000EBCF0E94D21A809313039091140391301A
:102C500029F481FF03C089E30E9462070E947D0E70
:102C6000809318030E94900E0E94A30E809114037B
:102C7000823021F158F48823C1F08130D1F08FE304
:102C80009CE90197F1F700C000000895843051F1EC
:102C90008530A9F78BE191E00E94060585E290E07E
:102CA0000E94060588E290E006C086EE0E9470064B
:102CB000E6CF88E193E00E940605E1CF80911303FF
:102CC00080FD03C083E50E94620782EE0E947006C9
:102CD0008FE39CE90197F1F700C0000087E50E94AF
:102CE0006207CDCF86EE0E94620788E1F8CF80911F
:102CF0001403823011F148F4882381F0813091F07F
:102D0000809118030E948D0E08958430F9F085306B
:102D1000B9F788E290E00E940605F2CF86EE0E94A5
:102D2000F906EECF8CE20E9462078091130381FFC7
:102D3000E7CF89E30E946207E3CF82EE0E94F906A3
:102D40008091130380FDDCCF83E5F4CF88E2F2CFDE
:102D50008F929F92AF92BF92EF92FF920F931F9329
:102D6000CF93DF934B015C01D09114038CE1E82EEB
:102D7000F12C07E010E021E0D501C4010E2C04C0C5
:102D8000B695A795979587950A94D2F7C82FCF70D7
:102D9000222339F0D43051F4CA3040F080E00E9450
:102DA000AE158C2F0E94AE1520E005C0C111F9CFE1
:102DB00004301105B4F30150110984E0E81AF10858
:102DC0000F3F1007C9F6DF91CF911F910F91FF9030
:102DD000EF90BF90AF909F908F900895CF92DF9229
:102DE000EF92FF926B017C01C114D10481E1E806EE
:102DF000F104A0F5C114D10481E0E806F10420F04B
:102E000080911403823051F10E942116C114D10423
:102E100081E0E806F10438F180911403811123C0A8
:102E200081E0E81AF108C701B6012AE09695879576
:102E3000779567952A95D1F778528F4F9F4F0E94CB
:102E4000A81683E0D822EE24FF24C701B6017452ED
:102E50008F4F9F4F0E94A8160E947716FF90EF9009
:102E6000DF90CF900895C701B601F4CFCF93DF93E1
:102E7000EC01FB018281882309F4D2C09E01305706
:102E80002332310508F0B2C00E94860F9093E2020F
:102E90008093E102FE01E150F047E232F10520F4B7
:102EA000E556FA4D0C94BA238091E102816080933B
:102EB000E10293C08091E20288608093E2028DC0BB
:102EC0008091E1028260F3CF8091E1028460EFCFD4
:102ED0008091E1028860EBCF8091E2028160EDCFCA
:102EE0008091E2028260E9CF8091E1028061DFCFD0
:102EF0008091E1028062DBCF8091E1028064D7CFD4
:102F00000E94CD098091E1028068D1CF8091E102D9
:102F10008C60CDCF8091E2028360CFCF8091E102BF
:102F20008E7FC5CF8091E202877FC7CF8091E1027B
:102F30008D7FBDCF8091E1028B7FB9CF8091E1027F
:102F4000877FB5CF8091E2028E7FB7CF8091E2027A
:102F50008D7FB3CF8091E1028F7EA9CF8091E10276
:102F60008F7DA5CF8091E1028F7BA1CF0E94CD09FB
:102F70008091E1028F779BCF8091E102837F97CF91
:102F80008091E2028C7F99CF8091E10282FB9927A8
:102F900090F921E0922790FB82F990FB83F987CF8B
:102FA0008091E202982F909591708E7F892B90FBF3
:102FB00081F983CF9091E102892F8F7B96FF806406
:102FC00076CF0E94CD099091E102892F97FB87F976
:102FD00080586DCF81E00E9403108091E1029091B2
:102FE000E2020E948B0F0E94CD0980E0DF91CF9119
:102FF000089580E0F0CF9091E102892F8F7E94FFB9
:10300000806155CF9091E102892F8E7F90FF816082
:103010004ECF9091E202892F877F93FF88604DCF3A
:1030200081E0E4CFB0E0A0E0E8E1F8E10C94CB234C
:10303000E82FF0E0EF52FB4FD490282F26952695ED
:10304000269530E0F901EF58FA4F0491877010E0AF
:10305000082E02C0159507950A94E2F70170112712
:10306000F901EF59FA4FE490F12C082E02C0F594C3
:10307000E7940A94E2F791E0E922FF24F901EF5A7C
:10308000FA4FC491D0E002C0D595C7958A95E2F772
:10309000C170DD270115110519F081EE0E9470063F
:1030A000E114F10419F086EE0E9470068D2D0E9445
:1030B0006207E114F10419F086EE0E94F906011589
:1030C000110519F081EE0E94F906CD2B19F08CE262
:1030D0000E946207CDB7DEB7E7E00C94E723982F94
:1030E0009F709A50963020F0805D0E9412180895CB
:1030F000895AFBCFEF92FF920F931F93CF93DF93E9
:103100008C01F62E8AE0E82EF8018491882309F4D8
:1031100054C0813009F04DC0E8012196FE01849130
:10312000813091F42196FE0184910E9462078E0104
:103130000F5F1F4F8F2D815038F3EFE9FFE031977C
:10314000F1F700C00000F7CF823039F4E801229691
:10315000FE0184910E947006EACF833039F4E801C1
:103160002296FE0184910E94F906E1CF8430F9F69F
:10317000E8012296FE01249190E080E0FE01319664
:103180002053330B2A30310548F0019780F2EFE9E4
:10319000FFE03197F1F700C00000F7CFE89EA001F3
:1031A000E99E500D1124C901840F951F2491EF0150
:1031B000E5CF0E941218E801BACFCDB7DEB7E6E03E
:1031C0000C94E823CF93DF93EB0186319C4711F5F4
:1031D0000E947D0E9A81992399F08A7A91E009F4F0
:1031E00090E09093AF02811109C089E20E94550ED0
:1031F0000E94C40E80E0DF91CF91089585E3F6CF61
:103200008091AF02811104C089E20E945D0EF0CF6F
:1032100085E3FBCF81E0EFCF0F931F93CF93DF9335
:10322000C42FD22FFC0182818823C9F04093B202BF
:103230000E94A31C9093B1028093B00280E28C0F95
:10324000883040F4C77081E001C0880FCA95EAF762
:103250000E946B07DF91CF911F910F9108951091FC
:10326000B202141332C08091B0029091B1020E9458
:10327000BB1C883C910548F5C0E2CD0F1D17B9F085
:1032800080E2810F883040F4177081E001C0880F20
:103290001A95EAF70E947207C83048F481E09D2F22
:1032A000977001C0880F9A95EAF70E946B07802FEC
:1032B0000E946207C83070F6D77081E001C0880FA5
:1032C000DA95EAF70E947207C5CF80E28C0F88304A
:1032D00008F6C77081E001C0880FCA95EAF7F2CFFF
:1032E0000F93DB0188519C4787309105A0F5FC01C5
:1032F000E354FA4D0C94BA2306E221EE41EE6AE162
:103300007CE7CD010E940C1980E00F91089507E23F
:1033100025EE45EE6BE17CE7F4CF06E221EE40EED0
:1033200068E17CE7EECF07E225EE44EE69E17CE759
:10333000E8CF06E221EE42EE6CE17CE7E2CF07E265
:1033400025EE46EE6DE17CE7DCCF08E221E045EEBC
:103350006EE17CE7D6CF12968C91882319F01092FB
:10336000B202D3CF81E0D1CFCF93DF93EC01EA85D6
:10337000FB85309719F06C857D8509958B810E94BE
:103380009C0E8C810E94860E0E94C40E86E0FE0177
:1033900011928A95E9F7DF91CF910895CF93DF934A
:1033A000EC018D8181FD12C082608D838B810E9432
:1033B000960E8C810E94800E0E94C40EE885F985CD
:1033C000309721F06C857D85CE0109951092B6026B
:1033D0001092B5028D8180FD03C0CE010E94B41908
:1033E000DF91CF910895CF93DF93EC018A818230F2
:1033F00041F4FB01828193810E94C0048D8182602F
:103400008D83DF91CF910895FB01808191810E948E
:10341000C0040895FC018281813031F4FB01808178
:1034200091810E94D60408958230E9F7FB018281E0
:103430009381F7CFCF93FB01C281CC23E1F0E091E0
:10344000B502F091B6023097C9F0E817F907B1F06C
:103450002EE0E29FF0011124DF01A55FBE4F2C9109
:1034600024602C93EA5FFE4F91838083CF010E94FA
:10347000CE190E94A30E8C2FCF910895C0E0FBCFF0
:10348000EF92FF920F931F93CF93DF938C01975589
:103490008F3F910511F008F041C07801FF248EE0C4
:1034A000089FF0011124EF01CA5FDE4FDB01129685
:1034B0002C91E55FFE4F808120FB80F980832223E1
:1034C00099F10E94A31C9093B4028093B3028A8165
:1034D0008F5F8A830E947D0E8B830E94930E9B8157
:1034E000892B8B830E94A60E8C83EE81FF813097FF
:1034F00021F06C857D85CE0109958EE08E9DF001D1
:103500008F9DF00D1124EA5FFE4F858181FF02C07F
:1035100010E000E01093B6020093B50281E0CDB751
:10352000DEB7E6E00C94E8238D8181FFF7CFCE0172
:103530000E94B419F3CF8091B5029091B602892B05
:10354000C9F08091B3029091B4020E94BB1C893CE7
:10355000910580F08091B5022EE0829FC001112478
:10356000FC01E55FFE4F208122FD04C08A5F9E4F73
:103570000E94CE1908959093C7018093C6010895C3
:103580009093BC028093BB020895E091BB02F0913E
:10359000BC02309729F00190F081E02D0995089543
:1035A00080E008950E94C51A0895E091BB02F09151
:1035B000BC02309799F020914201222359F02091CA
:1035C000E10227FF07C0DC012C9111962C93119783
:1035D00026E02C930280F381E02D09950895A3E065
:1035E000B0E0E5EFFAE10C94D0232091B9023091DC
:1035F000BA0228173907A1F09093BA028093B90252
:10360000E091BB02F091BC02309751F023E0298396
:103610009B838A830680F781E02DCE010196099570
:103620002396E2E00C94EC23A3E0B0E0EAE1FBE1B6
:103630000C94D0232091B7023091B8022817390793
:10364000A1F09093B8028093B702E091BB02F09191
:10365000BC02309751F024E029839B838A83068043
:10366000F781E02DCE01019609952396E2E00C94B6
:10367000EC23FC01329680914201882321F0809155
:10368000E1029EE187FF96E080E0915008F4089502
:1036900021912223D1F38F5FF8CF662301F120918E
:1036A00042012223F1F02091E10227FF1AC0462FA8
:1036B0004695469546954E3190F4677021E030E08E
:1036C00002C0220F331F6A95E2F7840F911DFC019F
:1036D000828190E02823392381E0232B69F480E064
:1036E0000895FC01329608962191261721F0E817DB
:1036F000F907D1F7F4CF81E008959C01FC013296DF
:103700009FEF80E04191461751F09F3F19F441111E
:1037100001C0982F8F5F8630A9F79F3F09F4089565
:10372000290F311D97FD3A95F90162830895FC0137
:10373000329608962191261303C0DF0111971C923F
:10374000E817F907B9F70895E62FE695E695E695A7
:10375000EE3168F4E80FF92FF11D677021E030E0D9
:1037600001C0220F6A95EAF78281822B8283089535
:10377000E62FE695E695E695EE3170F4E80FF92F21
:10378000F11D677021E030E001C0220F6A95EAF771
:1037900020958281282322830895209142012223AB
:1037A00039F02091E10227FF03C00E94A41B089575
:1037B0000E947D1B089520914201222339F020911F
:1037C000E10227FF03C00E94B81B08950E94971BC7
:1037D0000895FC01329680914201882351F0809136
:1037E000E10287FF06C08EE1DF011D928A95E9F7AD
:1037F000089586E0F9CF08950E94FB1B089581117A
:1038000006C081E08093BD020E94FC1B089582E007
:10381000F9CF83E08093BD020E94FC1B08950E94B3
:10382000FF1B089581E08093BD020E94FC1B089558
:103830000E94121C0895089508950E941C1C08956A
:10384000089508950E941B1C0895CF930E94201C88
:103850000E94E8130E94211CC0E08C2F0E940113DB
:10386000672B682B692B31F4CF5FC630B1F780E04E
:10387000CF91089581E0FCCF85B7806885BF85B77B
:10388000806885BF08951F921FB61F9211248F93E1
:103890009F93AF93BF938091BE02811113C080911B
:1038A000190390911A03A0911B03B0911C03419638
:1038B000A11DB11D8093190390931A03A0931B03BC
:1038C000B0931C03BF91AF919F918F911F901FBE2A
:1038D0001F90189580912103843031F10E94E905F1
:1038E0001092BE0288E190E020E40FB6F894A8950B
:1038F000809360000FBE2093600083B7817F846057
:1039000083BF83B7816083BF7894889583B78E7FA8
:1039100083BF0FB6F894A89580916000886180936A
:103920006000109260000FBE08950E94CD090E94B1
:10393000EE05089582E084BD93E095BD9AEF97BDB2
:1039400080936E0008952FB7F89480911903909199
:103950001A03A0911B03B0911C032FBF08952FB72A
:10396000F8946091190370911A0380911B03909150
:103970001C032FBF08959C014FB7F8948091190341
:1039800090911A03A0911B03B0911C034FBF821B9F
:10399000930B089578941F921FB61F9211248F9352
:1039A0009F93AF93BF938091190390911A03A091B5
:1039B0001B03B0911C030196A11DB11D8093190337
:1039C00090931A03A0931B03B0931C03BF91AF9174
:1039D0009F918F911F901FBE1F90189581E080933B
:1039E000E00080E28093D8001092C9008FE19EE44D
:1039F0000197F1F700C0000087E090EBDC018093B5
:103A00002E0390932F03A0933003B093310388E1EA
:103A10009CE00FB6F894A895809360000FBE909339
:103A20006000FFCF88E19CE00FB6F894A8958093E2
:103A300060000FBE90936000FFCF8091DF02089579
:103A400008959B01BA01909121039430E9F48F709D
:103A50008093E9009FEF8091E800915085FD06C0BA
:103A600085ED8A95F1F700009111F5CF8091E8007E
:103A700085FF0AC050E040E0C9010E941F1F8091ED
:103A8000E8008E778093E800089543E050E0BC01A1
:103A900082E00E94211D0895CF93DF93EC01809175
:103AA0004201811111C048E050E0BE0181E00E9456
:103AB000211D80E2FE01AFEBB2E001900D928A95EC
:103AC000E1F7DF91CF9108958091E10287FF05C072
:103AD00040E282E050E0BE01EACF48E081E0FACF68
:103AE00080912003811109C00E94AF200E940C2107
:103AF0008091E20084608093E20008951092200398
:103B000008950E94121C089560911D0381E06111C7
:103B100001C080E00E94091C08959091210381E07A
:103B2000943009F080E060911D030E940F1C0895FD
:103B300042E061EC81E00E942B2042E261EC82E0F5
:103B40000E942B209091210381E0943009F080E0C5
:103B500060911D030E94FF1B089580912303833011
:103B600009F461C030F48130D1F1823009F49EC093
:103B700008958A3009F48AC08B3009F46FC0893007
:103B800009F050C080912203813209F04BC080912E
:103B9000260390912703029708F044C08091E80023
:103BA000877F8093E8008091E80082FF37C0909182
:103BB000F3008091F200029731F48091F10081309E
:103BC00011F0863021F48091F1008093DF02809122
:103BD000E8008B778093E8000E945F2023C08091EB
:103BE0002203813AF9F48091E800877F8093E8000E
:103BF0008091260390912703892B61F460E28FEB7B
:103C000092E070E00E946E1F8091E8008B778093B5
:103C1000E800089560E090E080E0F3CF8091210318
:103C20008111C1CF089580912203813AD9F7809103
:103C3000260390912703892BA9F78091E800877FBD
:103C40008093E8008091E80080FFFCCF80914201E2
:103C50008093F1008091E8008E77BCCF80912203A1
:103C6000813201F78091260390912703892BD1F6A9
:103C70008091E800877F8093E8000E945F20809118
:103C80002403809342010E94CD090895809122036C
:103C9000813241F68091E800877F8093E8000E949E
:103CA0005F20809125038093E00208958091220394
:103CB000813A09F0B7CF8091E800877F8093E800D0
:103CC0008091E80080FFFCCF8091E002C1CF84B7F3
:103CD000877F84BF0FB6F894A895809160008861B3
:103CE00080936000109260000FBE80E890E00FB6F5
:103CF000F89480936100909361000FBE0E94181C9D
:103D000008950E94AF200E940C21E2EEF0E0808135
:103D10008460808378940E948B2308958AE391E0E5
:103D20000E94C01A089580912103853031F480915A
:103D30002103853019F00E94951C08950E946A1C89
:103D400080911F03882399F30E94251C882379F30F
:103D50000E94091F0E94CD09EACF08950E94B11E5A
:103D60000895292F33272330310519F168F42130C4
:103D7000310509F444C02230310509F445C090E012
:103D800080E030E020E025C02132310549F12232C7
:103D90003105A9F780E490E023E736E0611571056D
:103DA000C1F08DE690E026E036E06130710589F0E3
:103DB000E6CF99278130910581F0009729F002978D
:103DC000F1F6E1E8F5E002C0E5EBF5E0849190E082
:103DD0009F01FA01318320830895E5E9F5E0F6CFEC
:103DE00089E090E02BEC35E06115710591F389E0F5
:103DF00090E024EE35E06130710559F3C0CF82E1E7
:103E000090E024EF35E0E5CF8BE390E029EB35E05F
:103E1000E0CF80E189BD82E189BD09B400FEFDCF1C
:103E20008091D8008F7D8093D8008091E0008260DF
:103E30008093E0008091E00081FDFCCF0895AF9277
:103E4000BF92CF92DF92FF920F931F93CF93DF9396
:103E50006C01EB018A010E947E20F82E811123C0A3
:103E60000115110539F0F80180819181C81BD90B2A
:103E7000C80ED91EB12CA12C2097A9F08091E80082
:103E800085FD22C08091E8008E778093E8000115BF
:103E90001105A1F0F80180819181A80EB91EB182AF
:103EA000A08285E0F82E8F2DDF91CF911F910F9189
:103EB000FF90DF90CF90BF90AF9008950E947E203A
:103EC0008823D1F2F82EEFCFF60181916F01809314
:103ED000F1002197FFEFAF1ABF0ACECFFC0180910E
:103EE00028039091290386179707A0F061157105A3
:103EF00029F49091E8009E779093E80090E0611596
:103F0000710551F4911108C08091E80082FF34C01E
:103F100080E00895BC01F2CF809121038823C1F194
:103F20008530C1F18091E80083FD30C08091E800C8
:103F300082FDEACF8091E80080FFE1CF8091F3001D
:103F40002091F200382F6115710519F028303105E4
:103F500058F091E02830310509F090E02091E80018
:103F60002E772093E800CBCF81918093F1006150B0
:103F700071092F5F3F4FE7CF80912103882341F0E4
:103F8000853041F08091E80083FFBECF81E0089545
:103F900082E0089583E00895FC01809128039091C8
:103FA000290386179707A0F06115710529F4809100
:103FB000E8008E778093E80090E06115710551F478
:103FC000911108C08091E80082FF35C080E008951B
:103FD000BC01F2CF809121038823C9F18530C9F15A
:103FE0008091E80083FD31C08091E80082FDEACF36
:103FF0008091E80080FFE1CF8091F3002091F200F2
:10400000382F6115710519F02830310558F091E00D
:104010002830310509F090E08091E8008E77809398
:10402000E800CBCF84918093F10031966150710903
:104030002F5F3F4FE6CF80912103882341F08530E9
:1040400041F08091E80083FFBDCF81E0089582E0D8
:10405000089583E00895982F973028F08F7080930B
:10406000E90081E008959093E900242F762F50E035
:10407000981731F07091EC002091ED005091F00014
:1040800021FD02C09F5FE8CF3091EB003E7F30936F
:10409000EB003091ED003D7F3093ED003091EB006F
:1040A00031603093EB007093EC002093ED0050935F
:1040B000F0002091EE0027FDE5CF80E0089580918B
:1040C000220387FF13C08091E80082FF06C0809121
:1040D000E8008B778093E80004C080912103811170
:1040E000F2CF0895809121038823D9F38091E800CD
:1040F00080FFF8CF8091E8008E77ECCF2091E4002C
:104100003091E50095E6A9012091EC00822F8170A5
:1041100020FF06C08091E80080FF06C080E008957F
:104120002091E80022FD1AC080912103882389F0A4
:10413000853089F08091EB0085FD0FC02091E4006F
:104140003091E50042175307F9F29150E1F684E00F
:10415000089582E0089583E0089581E008950E9423
:104160001E210E942621E0EEF0E0808181608083A4
:10417000E8EDF0E080818F77808319BCA7EDB0E097
:104180008C918E7F8C9380818F7E80831092200310
:1041900008950F931F93CF93DF930E941E210E94D7
:1041A0002621C8EDD0E088818F7788838881806858
:1041B000888388818F7D888319BC10922103109297
:1041C0001D0310921F0310921E0300EE10E0F80171
:1041D00080818B7F808388818160888342E060E07A
:1041E00080E00E942B20E1EEF0E080818E7F8083D2
:1041F000E2EEF0E08081816080838081886080834E
:10420000F80180818E7F8083888180618883DF913F
:10421000CF911F910F910895E8EDF0E080818F7E9E
:104220008083E7EDF0E080818160808384E082BF5D
:1042300081E0809320030E94C9200895E8EDF0E01A
:1042400080818E7F80831092E20008951092DA00C0
:104250001092E10008951F920F920FB60F92112451
:104260002F933F934F935F936F937F938F939F937E
:10427000AF93BF93EF93FF938091E10082FF0BC058
:104280008091E20082FF07C08091E1008B7F8093E4
:10429000E1000E948A238091DA0080FF19C080919A
:1042A000D80080FF15C08091DA008E7F8093DA00FD
:1042B0008091D90080FF96C080E189BD82E189BDEF
:1042C00009B400FEFDCF81E0809321030E94701DA0
:1042D0008091E10080FF19C08091E20080FF15C04D
:1042E0008091E2008E7F8093E2008091E200806105
:1042F0008093E2008091D80080628093D80019BC3E
:1043000085E0809321030E94841D8091E10084FF59
:104310002BC08091E20084FF27C080E189BD82E14B
:1043200089BD89B5982F917080FFFBCF8091D8000F
:104330008F7D8093D8008091E1008F7E8093E10093
:104340008091E2008F7E8093E2008091E2008160A4
:104350008093E20080911D03882309F449C084E022
:10436000809321030E948D1D8091E10083FF29C06D
:104370008091E20083FF25C08091E100877F8093D8
:10438000E10082E08093210310921D038091E100FF
:104390008E7F8093E1008091E2008E7F8093E20027
:1043A0008091E20080618093E20042E060E080E082
:1043B0000E942B208091F00088608093F0000E9482
:1043C000811DFF91EF91BF91AF919F918F917F914F
:1043D0006F915F914F913F912F910F900FBE0F9072
:1043E0001F90189519BC109221030E947E1D70CF5A
:1043F0008091E30087FD93E090932103B3CF1F9258
:104400000F920FB60F9211242F933F934F935F9308
:104410006F937F938F939F93AF93BF93CF93DF93CC
:10442000EF93FF93D091E900DF708091EC00C82FEB
:10443000C17080FDC0E81092E9008091F000877F94
:104440008093F00078940E9443221092E9008091BA
:10445000F00088608093F000CD2BCF70C093E9000E
:10446000FF91EF91DF91CF91BF91AF919F918F918C
:104470007F916F915F914F913F912F910F900FBE60
:104480000F901F901895AAE2B0E0E9E4F2E20C94D4
:10449000CF2382E293E02091F100FC012193CF0130
:1044A000F3E08A329F07B9F70E94AD1D8091E800C2
:1044B00083FF1EC180912203909123039A3008F05C
:1044C00017C1E92FF0E0EC53FA4D0C94BA23803871
:1044D00099F0823809F00CC1809126038F708730E3
:1044E00008F006C18093E9008091EB0085FB8827E6
:1044F00080F91092E90006C080911E0390911F037D
:10450000911182609091E800977F9093E8008093EA
:10451000F1001092F1008091E8008E77E5C08823C9
:1045200009F4D3C0823009F0E3C0809124038111E3
:10453000D6C0809126038F702FEF280F263008F009
:10454000D7C08093E9002091EB0020FFC8C09330D2
:1045500031F48091EB0080628093EB00C0C09091B9
:10456000EB0090619093EB0021E030E001C0220F5E
:104570008A95EAF72093EA001092EA008091EB0016
:104580008860EACF8111B4C0109124031F77809115
:10459000E3008078812B8093E3008091E800877F9F
:1045A0008093E8000E945F208091E80080FFFCCFAC
:1045B0008091E30080688093E30082E0111183E042
:1045C0008093210395C08058823008F091C080917B
:1045D0002403909125038C3D23E09207A1F583E00D
:1045E0008A838AE289834FB7F894DE01139620E02C
:1045F0003EE051E2E32FF0E050935700E49120FFBA
:1046000003C0E295EF703F5FEF708E2F90E0EA30CD
:10461000C0F0C7968D939D932F5F243159F74FBFFC
:104620008091E800877F8093E8006AE270E0CE0125
:1046300001960E946E1F8091E8008B778093E800BE
:1046400057C0C096E7CF6091260370912703AE0153
:104650004F5F5F4F0E94AE1EBC01892B09F448C01A
:104660009091E800977F9093E80089819A810E9459
:10467000CC1FE1CF8038E1F58091E800877F8093FF
:10468000E80080911D038093F10045CF811130C077
:1046900090912403923060F58091E800877F8093A9
:1046A000E80090931D030E945F2080911D038823E2
:1046B00011F084E005C08091E30087FDFACF81E02E
:1046C000809321030E94981D13C0809124038130A0
:1046D00079F481E0933009F080E080931F03109219
:1046E000E9008091E800877F8093E8000E945F20C6
:1046F0008091E80083FF0AC08091E800877F809363
:10470000E8008091EB0080628093EB00AA96E3E0E2
:104710000C94EB230895CF93809121038823A1F07B
:10472000C091E900CF709091EC00892F817090FDCD
:1047300080E8C82B1092E9008091E80083FD0E9478
:104740004322CF70C093E900CF91089597FB072EC5
:1047500016F4009407D077FD09D00E94F72307FCD8
:1047600005D03EF4909581959F4F08957095619581
:104770007F4F0895EE0FFF1F0590F491E02D0994EF
:104780002F923F924F925F926F927F928F929F9261
:10479000AF92BF92CF92DF92EF92FF920F931F934F
:1047A000CF93DF93CDB7DEB7CA1BDB0B0FB6F89400
:1047B000DEBF0FBECDBF09942A88398848885F8440
:1047C0006E847D848C849B84AA84B984C884DF80B1
:1047D000EE80FD800C811B81AA81B981CE0FD11D95
:1047E0000FB6F894DEBF0FBECDBFED010895AA1B32
:1047F000BB1B51E107C0AA1FBB1FA617B70710F0CC
:10480000A61BB70B881F991F5A95A9F780959095FD
:10481000BC01CD0108950F931F93CF93DF93823096
:10482000910510F482E090E0E0912C03F0912D03CB
:1048300030E020E0B0E0A0E0309799F42115310598
:1048400009F447C0281B390B24303105C0F58A8193
:104850009B816115710571F1FB0193838283FE01D8
:1048600011C0408151810281138148175907F8F026
:104870004817590799F4109761F012960C93129704
:1048800013961C933296CF01DF91CF911F910F9118
:10489000089500932C0310932D03F4CF21153105B7
:1048A00019F04217530718F49A01BD01EF01DF0117
:1048B000F801C2CF90932D0380932C03D0CFFE013B
:1048C000E20FF31F8193919322503109398328839A
:1048D000DACF20912A0330912B03232B41F420912E
:1048E00002013091030130932B0320932A0320917E
:1048F0000001309101012115310541F42DB73EB77A
:104900004091040150910501241B350B40912A036D
:1049100050912B034217530708F0B5CF241B350BDA
:104920002817390708F4AFCFBC016E5F7F4F2617F9
:10493000370708F4A8CF640F751F70932B0360939B
:104940002A03FA01819391939ECFCF93DF9300972F
:10495000E9F0FC01329713821282C0912C03D091AE
:104960002D03DE0130E020E02097A1F42081318189
:10497000820F931F20912A0330912B0328173907A8
:1049800009F067C0F0932B03E0932A03DF91CF91E6
:104990000895DA01AE17BF0708F040C012964D9196
:1049A0005C9113979D014115510599F7D901139613
:1049B000FC93EE9312974D915D91A40FB51FEA17EA
:1049C000FB0779F4808191810296840F951FD901AC
:1049D00011969C938E938281938113969C938E93D0
:1049E0001297B0E0A0E08A819B810097B9F5FE01A3
:1049F00081919191E80FF91F80912A0390912B03E7
:104A00008E179F0719F6109761F510922D031092DB
:104A10002C03D0932B03C0932A03B8CFB383A28374
:104A200040815181840F951FA817B90771F44E5F1B
:104A30005F4F8D919C911197480F591F518340836F
:104A400012968D919C91938382832115310509F0F3
:104A5000ADCFF0932D03E0932C0398CFDE01EC0152
:104A6000C2CF13961C921E921297D3CFFB01DC018A
:104A700004C08D910190801921F441505040C8F735
:104A8000881B990B0895F999FECF92BD81BDF89AC4
:104A9000992780B50895A8E1B0E042E050E00C9479
:104AA0007725262FF999FECF92BD81BDF89A0197FF
:104AB00000B4021639F01FBA20BD0FB6F894FA9A66
:104AC000F99A0FBE08950396272F0E9452250E943F
:104AD0005125252F0E945225242F0C9452250196F2
:104AE000272F0E9452250C945125DC01CB01FC019B
:104AF000F999FECF06C0F2BDE1BDF89A319600B437
:104B00000D9241505040B8F70895F894FFCFB40784
:104B1000B407E507E5077708140814081408930894
:104B20000409130913098E159215A015A415A615CD
:104B3000A815AA15AC158E170218961760176417DA
:104B40009A1768179E17AA177417FB177817AE17CE
:104B50007C17B217DA178017B617E1178617BC173C
:104B6000C4176C17A2177017A6178A17C017D0178B
:104B7000EA17F9175A17921709188D1993197C1902
:104B8000871999199F19A51967228F2278238F22D7
:0C4B90007823C222E32278233A23462334
:104B9C0000003203200000000000000000000000B4
:104BAC0000000000000000000000F319041A0A1AAB
:104BBC003401000000000000F319041A0A1A300135
:104BCC00AE000000AE00010062021D1D4C1D201D38
:104BDC00451D01E200E900EA00B500B600B700CDC2
:104BEC00008301CC008A019201940121022302244A
:104BFC00022502260227022A02B300B4006F0070BD
:104C0C00009F01CB01818283E200E900EA00B5003C
:104C1C00B600B700CD008301CC008A01920194014B
:104C2C002102230224022502260227022A02B300B3
:104C3C00B4006F0070009F01CB0181828393959427
:104C4C009697343536F7F6F5F4F1F031323392911C
:064C5C00903066670004C1
:00000001FF
